:1000000000800020BD0100003DCD000009CD0000B2
:1000100009CD000009CD000009CD000009CD000088
:1000200009CD000009CD000009CD00003DCD000044
:100030003DCD000009CD00003DCD0000F9CC000011
:100040003DCD00003DCD00003DCD00003DCD000088
:100050003DCD00003DCD00003DCD00003DCD000078
:100060003DCD00003DCD00003DCD00003DCD000068
:100070003DCD00003DCD00003DCD00003DCD000058
:100080003DCD00003DCD00003DCD00003DCD000048
:100090003DCD00003DCD00003DCD00003DCD000038
:1000A0003DCD00003DCD00003DCD00003DCD000028
:1000B0003DCD00003DCD00003DCD00003DCD000018
:1000C0003DCD00003DCD00003DCD00003DCD000008
:1000D0003DCD00003DCD00003DCD00003DCD0000F8
:1000E0003DCD00003DCD00003DCD00003DCD0000E8
:1000F0003DCD000059D600003DCD000021F10000AB
:100100003DCD000059DB00003DCD00003DCD00009D
:100110003DCD00003DCD00003DCD00003DCD0000B7
:100120003DCD00003DCD00003DCD00003DCD0000A7
:100130003DCD00003DCD00003DCD00003DCD000097
:100140003DCD00003DCD00003DCD00003DCD000087
:10015000D5C20000EDC2000005C300001DC30000B1
:100160003DCD0000BDDD00003DCD00003DCD0000D7
:100170003DCD00003DCD00003DCD00003DCD000057
:100180003DCD00003DCD00003DCD00003DCD000047
:100190003DCD00003DCD00003DCD00003DCD000037
:1001A0003DCD00003DCD00003DCD00003DCD000027
:1001B0003DCD00003DCD00009DBF0000564B4CF2F0
:1001C000205210B51A804DF628121A8000BF00BFC9
:1001D0000CF0B8FD514B4FF010621A60504A9A6013
:1001E000504ADA60A3F53043203B1A6812F480725B
:1001F00004D14D490A604FF4A8521A604B4B1A784B
:10020000110703D51A7842F008021A70484B2A22C7
:100210001A700023474A48499818884204D247492F
:10022000595899500433F5E7454A464B9A424FF0E6
:10023000000302D242F8043BF7E74349434A5958C6
:1002400099500433B3F5DE7FF7D1414B802103F899
:10025000011B40498B42F9D13F4B1A603F4B8A2228
:100260001A70A3F5805324225A70A0221A709A792A
:100270009207FCD59A79D406FCD4394B9A7902F0CE
:100280000C02082AF9D103221A7146225A719A796E
:100290009006FCD5324B9A795106FBD5314A4FF086
:1002A000827111600921516020221A702C4B9B79B8
:1002B00003F00C030C2BF9D12B4B2C4A1A602C4B5E
:1002C0002C4A1A6000225A60072243F8042C2A4A5A
:1002D000C3F80C2D62B60CF0B3FE134B1B68DA07A3
:1002E00005D526480CF0C6FD254B264A1A60264B3C
:1002F0001B785B0609D5224C224A2368934204D11D
:100300001E480CF0B7FD0023236015F0DDF90CF05A
:100310001FFD0CF02DFCFEE70E2005403080044050
:10032000823F04000100002B14D0034002D007409C
:1003300000E00740708DFF1F5091FF1F64E4010033
:100340005091FF1FA8DEFF1F000000000082FF1F6A
:1003500000E400E05FE400E008ED00E0005006404B
:10036000004006404480044004800440C010050062
:1003700014E000E0BFD401000000202039E70C5950
:100380001CE00340A5C3945A00F00740FFFFFFFFA5
:10039000FFFFFFFFFFFFFFFFFFFFFFFFFFFFFFFF6D
:1003A000FFFFFFFFFFFFFFFFFFFFFFFFFFFFFFFF5D
:1003B000FFFFFFFFFFFFFFFFFFFFFFFFFFFFFFFF4D
:1003C000FFFFFFFFFFFFFFFFFFFFFFFFFFFFFFFF3D
:1003D000FFFFFFFFFFFFFFFFFFFFFFFFFFFFFFFF2D
:1003E000FFFFFFFFFFFFFFFFFFFFFFFFFFFFFFFF1D
:1003F000FFFFFFFFFFFFFFFFFFFFFFFFFFFFFFFF0D
:10040000FFFFFFFFFFFFFFFFFFFFFFFFDEF9FFFF23
:1004100010B5054C237833B9044B13B10448AFF33E
:1004200000800123237010BD5091FF1F00000000C9
:1004300064E4010008B5064B1BB106480649AFF35A
:1004400000800648036813B1054B03B1984708BD07
:100450000000000064E401005491FF1F5091FF1F51
:10046000000000000369C268934210B509D2826897
:100470005C1C0461D154826803690021D1540120BD
:1004800010BD002010BD44F2040210B58358CC18F2
:10049000B4F5804F07D8033121F00301194481508E
:1004A0001844043010BD002010BD18B111B101393D
:1004B0000068FAE7704738B504460D4634B128465F
:1004C000616815F037FA08B12468F7E7204638BDAF
:1004D00038B54068FFF7EFFF044680B1057A012D7B
:1004E00005D1C16819B1074815F024FA20B1013DC2
:1004F000012D03D8E46802E0044600E00024204611
:1005000038BD00BF3062010038B5044608460D46CC
:1005100015F03DFA236802465B6820462946984755
:1005200038BD38B504460BF016FF054620460BF0E3
:1005300033FF284438BD38B50446FFF7E5FF0546CC
:1005400020460BF029FF284438BD10B5044600684A
:10055000FFF7DAFF63681844606010BD30B587B0FC
:1005600000228DF815200B4605AA0A25B3FBF5F4E9
:1005700005FB14333033114602F801392346002CB1
:10058000F3D1FFF7E2FF07B030BD10B504460068B5
:1005900003681B68984763681844606010BDFFFFDC
:1005A00070B504460D4619B91249FFF7CEFF70BD6C
:1005B0002221FFF7EAFF013D15F8012F7AB10E4B1A
:1005C00013F8026C86B1023313F8031C9142F7D181
:1005D00020465C21FFF7D9FF2046314606E0204641
:1005E0002221FFF7D2FF70BD20461146FFF7CDFF55
:1005F000E2E700BF306201003762010008B503285E
:100600000AD8DFE800F0021105074FF07E5008BD60
:10061000064808BD064808BD0438C0B2FFF7EEFF23
:1006200004490FF0E1FB08BD034808BD0AD7233C8D
:100630006F12833A17B7D138CDCCCC3D2DE9F041BC
:10064000054608460C46174613F098FF10B9284691
:10065000494911E0204600210FF064FD28B12846E9
:100660002D21FFF792FF04F10044204613F086FF8E
:10067000012805D141492846FFF767FFBDE8F08111
:1006800020463F490FF06CFD20B920463D490FF050
:1006900049FD00B30026204600210FF039FD68B95E
:1006A00020464FF07E510FF03DFD38B120463649CF
:1006B0000FF09AFB013EB6B20446ECE72046324901
:1006C0000FF04EFD40B120462F490FF041FC01369E
:1006D000B6B20446F2E706463846FFF78FFF4FF002
:1006E0007C510FF081FB014620460FF075FA04465D
:1006F0000FF066FD80460FF01FFB014620460FF00D
:1007000069FA414604462846FFF728FF1FB12846EC
:100710002E21FFF73AFFCFB11B4920460FF064FBB3
:1007200004460FF04DFD5FFA80F840460FF004FBE1
:10073000014620460FF04EFA08F130010446C9B2D6
:100740002846013FFFF721FFFFB2E4E734B2002C57
:1007500006DA28460D49FFF7F8FE2846614206E012
:100760003EB128466521FFF710FF28462146FFF7D6
:10077000F5FEBDE8F08100BF44620100486201005F
:1007800000007A446F12833A000020415162010058
:10079000024608B5084619B10B6811461B68984710
:1007A00008BDFFFF38B5084C236813F0010509D1D7
:1007B00020460CF0D8FA28B1044B20461D605D603D
:1007C0000CF0D7FA014838BD8091FF1F6C91FF1FD4
:1007D00008B54068FFF76FFE20B1037A062B01D100
:1007E000C06808BDFFF7DEFF08BDFFFF38B5084C45
:1007F000236813F0010509D120460CF0B4FA28B1A2
:10080000044B20461D605D600CF0B3FA014838BD12
:100810007C91FF1F7491FF1F03780D2B09D003D823
:10082000093B012B23D804E0202B02D02F2B02D030
:1008300070470130F0E743782A2B02D02F2B0DD0E0
:100840007047831C1A7818460133002AE4D02A2AFC
:10085000F8D11A782F2AF5D10230DDE7831C18462B
:1008600013F8012B002AD7D00A2AF8D1D4E7704711
:1008700038B5044600680D46FFF7CEFF0378AB425B
:1008800005D10130FFF7C8FF2060012038BD0020EE
:1008900038BDFFFF70B5426884681378272B01D0FC
:1008A000222B27D15178551C51B3994201D1951C67
:1008B00026E05C290BD1951C9178154A16782EB14B
:1008C0008E4201D1517801E00232F7E7C1B104F85C
:1008D000011B2A46E6E723F020014139192905D9F1
:1008E0002B2B03D0A3F12D01012909D804F8013BDA
:1008F00012F8013FA3F1300109291546F6D9EAE7BC
:10090000002304F8013B836845608460184670BD8D
:1009100039620100027838B505460C46072A3CD8F2
:10092000DFE802F041241F302B27041B45680846EE
:100930005B21FFF72AFE6D682DB1281D2146FFF7C8
:10094000E9FF2D6825B920465D21FFF71EFE38BD61
:1009500020462C21FFF719FEEFE7406800F028F849
:1009600038BD08466968FFF71BFE38BD0846696850
:1009700010E008462D21FFF708FE20466968FFF7C2
:10098000EDFD38BD4168084B084A204600290CBFE0
:1009900011461946FFF7D9FD38BD083A0846D2B2CC
:1009A0006968FFF74BFE38BD5462010059620100CF
:1009B00070B505460C4608467B21FFF7E6FD6D68DD
:1009C0007DB12E46204656F8041FFFF7E9FD20466C
:1009D0003A21FFF7DAFD301D2146FFF79BFF2D6816
:1009E00025B920467D21FFF7D0FD70BD20462C2182
:1009F000FFF7CBFDE5E710B5044621460820FFF7D9
:100A0000C7FE18B100230460436010BDFFF7CAFEA3
:100A100010BD10B5044621460820FFF7B9FE18B1F5
:100A200000230460436010BDFFF7E0FE10BDFFFF30
:100A3000037810B5052B1BD8DFE803F01E08080368
:100A40000305406810BD4068404210BD44685CB179
:100A50000A48214614F06EFF40B1204600210A22C8
:100A6000BDE8104015F030B8204610BD012010BD83
:100A700040680FF07FFB10BD002010BD54620100E4
:100A8000037810B5052B14D8DFE803F0170505032C
:100A90000303406810BD44688CB10B48214614F034
:100AA00049FF70B1204600210A22BDE8104015F030
:100AB00091B840680FF084FB10BD002010BD2046A7
:100AC00010BD012010BD00BF5462010070B5044686
:100AD0000CF082FAE0640CF07FFA254600232065D2
:100AE00045F8583F4FF48A700CF064F929460646E1
:100AF0000BF042F9E66604F1740011F0F7FF04F11F
:100B0000940011F0F3FF204670BDFFFFF8B50446D6
:100B10000D46114811491F461646FFF70CFD069B6E
:100B2000A5646665A7662367162010F027F918B933
:100B300009480B49FFF7FFFC00236370A370E370C3
:100B4000E21801330021402B9171F9D10549024887
:100B5000FFF7F1FCF8BD00BFDCD9FF1F5F620100A9
:100B60008D620100B3620100002138B50A460546D6
:100B700001F098FF02241E4B23442146284633F8F7
:100B8000022C023401F08EFF0A2CF4D1194B2344BD
:100B90002146284633F80A2C023401F083FF122C38
:100BA000F4D1154B23442146284633F8122C023445
:100BB00001F078FF1A2CF4D1104B2344214628462B
:100BC00033F81A2C023401F06DFF2A2CF4D10C4BAF
:100BD00023442146284633F82A2C023401F062FFD0
:100BE0003A2CF4D107490848FFF7A5FC38BD00BFEF
:100BF0006A8EFF1F948EFF1F748EFF1F848EFF1F4F
:100C00005A8EFF1FEE620100DCD9FF1F38B50021AC
:100C1000054601F059FF4FF6FF73984218BF0224B2
:100C200018D128492848FFF786FC26492648FFF7AF
:100C300082FC24492448FFF77EFC22492248FFF722
:100C40007AFC20492048FFF776FC1E491E48FFF732
:100C500072FC38BD2146284601F036FF1B4B234469
:100C600002340A2C23F8020CF4D12146284601F064
:100C70002BFF174B23440234122C23F80A0CF4D117
:100C80002146284601F020FF124B234402341A2C3F
:100C900023F8120CF4D12146284601F015FF0E4B23
:100CA000234402342A2C23F81A0CF4D12146284676
:100CB00001F00AFF094B234402343A2C23F82A0C92
:100CC000F4D138BD18630100DCD9FF1F6A8EFF1F05
:100CD000948EFF1F748EFF1F848EFF1F5A8EFF1F7E
:100CE0000803704710B588B00023013A05910692B9
:100CF0000B7003AA064C8DF8103001A903940793DA
:100D000001920293FFF754FE029808B010BD00BF95
:100D10001862010010B504460C202168FFF738FD69
:100D200010B100230360037163682BB11A680AB124
:100D30001346FBE7186010BD606010BD10B50C468F
:100D4000FFF7E8FF20B123788360042202710120BD
:100D500010BD10B50C46FFF7DDFF48B194F9003027
:100D6000002BAEBF04225B4205220271836001208A
:100D700010BD10B5044610202168FFF709FD10B121
:100D800000230360037263682BB11A680AB113462B
:100D9000FBE7186010BD606010BD2DE9F34104460B
:100DA000074654F8040BFFF734FE7B210646204625
:100DB000FFF75EFD002833D020467D21FFF758FD68
:100DC00088BB3846FFF766FD804648B320463A2187
:100DD000FFF74EFD20B302AD00233846694605F803
:100DE000083D00F024F8D8B170684146FFF763FB76
:100DF00028B93046FFF7BDFF90B1C0F8048000F17C
:100E0000080395E8030083E8030020467D21FFF7EF
:100E10002FFD40B920462C21FFF72AFD0028D0D114
:100E2000FFF7E4FC00E0304602B0BDE8F08170B5A9
:100E30000446007B0D46002834D0013820736068DA
:100E4000FFF7EAFC606003785B2B02D07B2B07D0B6
:100E500012E0204600F027F803685BB1062305E0A6
:100E60002046FFF79AFF036823B1072368602B70C1
:100E7000012014E0184612E0272B03D0223B5E42EB
:100E80005E4100E001262046FFF704FD38B1012253
:100E900016B102232B7000E02A7068601046237B95
:100EA0000133237370BDF7B50446074654F8040BAD
:100EB000FFF7A1FD5B2106462046FFF7D9FC08B3EA
:100EC00020465D21FFF7D4FCF8B902AD0023384677
:100ED000694605F8083DFFF7AAFF98B13046FFF7CD
:100EE00019FF78B1031D95E8030083E8030020464D
:100EF0005D21FFF7BDFC40B920462C21FFF7B8FC6F
:100F00000028E2D1FFF74EFC00E0304603B0F0BD10
:100F100070B5054640680E461446FFF7CCFA20B976
:100F20002846FFF726FF50B146602368002B08BF14
:100F300000240CBF002306230372C460012070BD8F
:100F400070B5054600680E4610B9FFF72BFC70BD62
:100F5000FFF751FD0446314628462246FFF7D8FFE9
:100F6000204670BD2DE9F04FADF5804D85B0A74B03
:100F70000191029302A944F204030546144608466F
:100F80000022CA50FFF745FDA1498246FFF7D8FF6E
:100F900040F60813696D5C43214401F602010646E0
:100FA000FFF7CCFE696D214401F60A013046FFF7D8
:100FB000C5FE696D214401F606013046FFF7BEFE0D
:100FC000696D214401F607013046FFF7B7FE696DF0
:100FD000214401F609013046FFF7B0FE696D214456
:100FE00001F608013046FFF7A9FE696D214401F6BC
:100FF000DB013046FFF7ADFE696D214401F60B01C0
:101000003046FFF79BFE696D214401F60C01304626
:10101000FFF794FE696D214401F60D013046FFF79C
:101020008DFE696D214401F60E013046FFF786FE04
:10103000696D214401F60F013046FFF77FFE696DAF
:10104000214401F501613046FFF778FE696D2144C6
:1010500001F611013046FFF771FE696D214401F67A
:1010600012013046FFF76AFE696D214401F6130153
:101070003046FFF763FE696D214401F614013046E6
:10108000FFF75CFE696D2144304601F61501FFF75C
:1010900055FEDAF8000018B9FFF784FB834607E035
:1010A000FFF7A9FC83465B4950465A46FFF730FFDD
:1010B0004FF00009DBF8000018B9FFF773FB064694
:1010C00012E0FFF798FC06465846FFF723FE58B19A
:1010D0003368002B009B18BF334600930CBF0023DE
:1010E00006230371009B83603046FFF713FE18B19F
:1010F00004230371C0F80890696D4FEA4917214431
:1011000039443046FFF71AFE696D7B1C21441944AF
:101110003046FFF713FE696DBB1C2144194430466D
:10112000FFF70CFE696DFB1C214419443046FFF7A4
:1011300005FE6B6D2344D91904313046FFF7FEFDDF
:101140006B6D07F10808234403EB080104313046B6
:10115000FFF7FFFD6B6D2344D91905313046FFF7CA
:10116000EDFD6B6D2344D91906313046FFF7E6FDDE
:101170006B6D2344D91907313046FFF7DFFD696DE8
:10118000214441443046FFF7D9FD6B6D234403EB06
:10119000080101313046FFF7D1FD6B6D234403EBAD
:1011A000080102313046FFF7C9FD6B6D234403EBA4
:1011B000080105313046FFF7C1FD6B6D234403EB99
:1011C000080106313046FFF7B9FD6B6D234403EB90
:1011D000080107313046FFF7B1FD6B6D234403EB87
:1011E00008013046033109F10109FFF7A7FDB9F104
:1011F000400F7FF45FAF504601994FF48052FFF7E4
:1012000071FD0DF5804D05B0BDE8F08F286201003D
:10121000AB630100B46301002DE9F04F95B01746B0
:101220008A46044600F063FE7E49C6B204A80BF06D
:101230007CF9514668460BF0AEF9694604A80BF0FC
:1012400036FA79490BF03CFA3946054608A80BF006
:10125000A2F9284608A90BF02AFA74490BF030FAD3
:10126000314605460CA80BF096F928460CA90BF060
:101270001EFA6F490BF024FA35030A2280462946EC
:1012800010A80BF09BF910A940460BF010FA01468C
:101290006848FFF746F910A80BF007F90CA80BF007
:1012A00004F908A80BF001F9684604EB06080BF0F6
:1012B000FCF804A80BF0F9F898F80630002B39D0A8
:1012C000204600F0B5FE5C49834604A80BF02DF9DA
:1012D000314668460BF05FF9694604A80BF0E7F960
:1012E00056490BF0EDF998F80630554981461944F6
:1012F0000CA80BF01AF90A22594608A80BF05EF95F
:1013000008A90CA80BF0D3F9014610A80BF028F996
:1013100010A948460BF0CBF901464648FFF701F902
:1013200010A80BF0C2F808A80BF0BFF80CA80BF03F
:10133000BCF8B9E74FF0010984F803900BF04CFEBC
:101340002065404814F008FB494680464FF4805021
:1013500014F0A0F981464946204652463B46FFF725
:1013600001FE0FF099FC0028FBD010A841460FF0B9
:10137000AFFD10AA04F158030DF1480E174603CF34
:101380007745186059603A4603F10803F6D138688A
:101390001860BA889A80A06D50BB2B492548FFF78A
:1013A000CAF82A4910A80BF0C0F841460CA80BF067
:1013B000BCF80CA910A80BF07AF901461D48FFF7FC
:1013C000B0F80CA80BF071F810A80BF06EF81948E3
:1013D0001D49FFF7B0F8484614F0A4F9404614F050
:1013E000A1F90023E3700123237015B0BDE8F08F4D
:1013F000E76D256605F58053BB4210D9BD4208D282
:101400007F1B3A46284449460FF086FA236E1F4454
:10141000276620463146012200F066FDDBE74FF4E7
:101420008057EEE7B9630100CA630100D56301008C
:10143000E4630100DCD9FF1FF363010026640100AF
:1014400030640100456401004E6401005D640100E8
:1014500008B54068FFF729F818B10430FFF710FB12
:10146000C0B208BD08B54068FFF71FF818B10430D6
:10147000FFF7DEFAC0B240B208BD08B54068FFF71A
:1014800014F820B10379062B01D1806808BDFFF75D
:1014900089F908BD2DE9F04FADF5804D99B0B34BFA
:1014A0001693144644F2040316AA074618AD4FF0EB
:1014B000000A0E46AE48AF4942F803A0FFF73BF8DA
:1014C00016AB45F8183DAC4BAC60544518BF2346ED
:1014D0004FF00A0928466B6085F80C90FFF75DFC19
:1014E0000446A64928460BF020F82168B1EB0A0112
:1014F00018BF01214A460EA80BF060F828460EA935
:101500000BF0D5F801469A48FFF70BF80EA80AF041
:10151000CCFF28460AF0C9FF99499548FFF70BF818
:1015200040F608135E437B6D9649204603EB0608A0
:10153000FFF74EF95146FFF78BFF88F802087B6DE5
:101540009049204603EB0608FFF742F90121FFF717
:101550007FFF88F80A087B6D8A49204603EB06085E
:10156000FFF736F90221FFF773FF88F806087B6D55
:101570008449204603EB0608FFF72AF90321FFF709
:1015800067FF88F807087B6D7E49204603EB060855
:10159000FFF71EF90421FFF75BFF88F809087B6D50
:1015A0007849204603EB0608FFF712F90521FFF7FB
:1015B0004FFF88F808087B6D7249204603EB060848
:1015C000FFF706F90621FFF74DFF88F8DB087B6D72
:1015D0006C49204603EB0608FFF7FAF80721FFF7EE
:1015E00037FF88F80B087B6D6649204603EB060839
:1015F000FFF7EEF80821FFF72BFF88F80C087B6D4A
:101600006049204603EB0608FFF7E2F80921FFF7DF
:101610001FFF88F80D087B6D5A49204603EB06082A
:10162000FFF7D6F84946FFF713FF88F80E087B6DE1
:101630005449204603EB0608FFF7CAF80B21FFF7D1
:1016400007FF88F80F087B6D4E49204603EB06081C
:10165000FFF7BEF80C21FFF7FBFE88F810087B6D42
:101660004849204603EB0608FFF7B2F80D21FFF7C3
:10167000EFFE88F811087B6D4249204603EB06080F
:10168000FFF7A6F80E21FFF7E3FE88F812087B6D3E
:101690003C49204603EB0608FFF79AF80F21FFF7B5
:1016A000D7FE88F813087B6D3649204603EB060801
:1016B000FFF78EF81021FFF7CBFE88F814087B6D3A
:1016C0003049204603EB0608FFF782F81121FFF7A7
:1016D000BFFE2D4988F8150828460AF026FF7B6DC5
:1016E00033440EA893F808180AF055FF28460EA9AF
:1016F0000AF0DDFF25490AF0E3FF01461C480AF025
:101700002AFE0EA80AF0D1FE28460AF0CEFE204995
:101710002046FEF7DDFE01461548FEF70CFF1D4989
:101720002046FFF755F880461B4928460AF0FDFE83
:10173000D8F80010B1EB0A0118BF01214A460EA8E3
:101740000AF03CFF28460EA90AF0B1FF01460848FE
:10175000FEF7E7FE0EA80AF0A8FE28460AF0A5FE4E
:1017600003480E49FEF7E7FE554619E028620100DE
:10177000DCD9FF1F78640100B76C01008D640100A3
:10178000A3640100AB630100B6640100CB640100F7
:1017900033D10100B4630100D4640100EE640100A0
:1017A00029464046FFF769FE0121FFF751FE294611
:1017B00003904046FFF761FE0221FFF749FE2946EC
:1017C00004904046FFF759FE0321FFF741FE2946EA
:1017D00005904046FFF751FE0421FFF739FE2946E8
:1017E00006904046FFF749FE0521FFF731FE2946E6
:1017F00007904046FFF741FE0621FFF733FE2946DA
:1018000008904046FFF739FE0721FFF721FE2946E1
:1018100009904046FFF731FE0821FFF719FE2946DF
:101820000A904046FFF729FE0921FFF711FE2946DD
:101830000B904046FFF721FE0A21FFF709FE2946DB
:101840000C904046FFF719FE0B21FFF701FE2946D9
:101850000D904046FFF711FE0C21FFF7F9FD2946D8
:1018600084464046CDF808C0FFF707FE0D21FFF77C
:10187000EFFD294683464046FFF7FFFD0E21FFF7A7
:10188000E7FD294682464046FFF7F7FD0F21FFF7A7
:10189000DFFD294681464046FFF7EFFD1021FFF7A7
:1018A000D7FD294600904046FFF7E7FD0021FFF7EE
:1018B000CFFD796D039A314440010B180A54049A04
:1018C0005A70059A9A70069ADA70079A1A71099AEC
:1018D0005A710A9A9A710B9ADA710C9A1A720D9AC5
:1018E0005A720135009ADDF808C0DA72402D089A64
:1018F00083F80AC01A7383F80DB083F80EA083F83A
:101900000F907FF44DAF2068003018BF01200DF517
:10191000804D19B0BDE8F08F2DE9F043044689B041
:101920007F489146884614F017F87E49054604A87A
:101930000AF0FBFD294668460AF0F7FD694604A84F
:101940000AF0B5FE78490AF0BBFE01467748FEF77B
:10195000E8FD68460AF0A9FD04A80AF0A6FD28469D
:101960000FF036FB002838D071497048FEF7E3FDD0
:1019700004A829460FF0ACFA04AE04F1580306AAF5
:10198000374603CF9742186059603E4603F108037B
:10199000F6D138681860BA889A80A36D33BB654960
:1019A00004A80AF0C2FD294668460AF0BEFD694651
:1019B00004A80AF07CFE60490AF082FE01465B48FA
:1019C000FEF7AFFD68460AF070FD04A80AF06DFD51
:1019D000284613F0A7FE02209FE0284613F0A2FE3F
:1019E00052485649FEF7A7FD012096E054494F485A
:1019F000FEF7A1FD4FF4805013F08CFE0A224FF445
:101A00008051064668460AF0D9FD694604A80AF0E6
:101A1000A7FD4C4904A80AF053FE01464348FEF7CF
:101A200080FD04A80AF041FD68460AF03EFD4649E3
:101A300004A80AF07AFD41464A46204600F057FACB
:101A4000C1B20A22090368460AF0B8FD694604A833
:101A50000AF02DFE01463548FEF763FD68460AF0A0
:101A600024FD04A80AF021FD384904A80AF05DFD10
:101A700041464A46204600F03AFA0A2201466846A4
:101A80000AF09CFD694604A80AF011FE01462748A9
:101A9000FEF747FD68460AF008FD04A80AF005FDB8
:101AA0004A462046414600F022FAC0B20303E76DE1
:101AB000236603F58052BA422CD9BB4209D2FF1AE1
:101AC000A06D3A46184431460EF03EFE236E1F4488
:101AD00027661F491548FEF72EFD31461348FEF7CD
:101AE0002AFD204641463246FFF7D4FC10B10F488C
:101AF000184901E00D481849FEF71DFD304613F066
:101B000011FE284613F00EFE08481449FEF713FD97
:101B1000002002E04FF48057D2E709B0BDE8F0831F
:101B200001650100096501002B650100DCD9FF1F7B
:101B30004A6501005966010003660100166601004E
:101B400096660100A5660100B6660100C466010044
:101B50006E650100786501008B650100D9650100A3
:101B60002DE9F04190B00D46064671490CA890460B
:101B70000AF0DBFC294608A80AF00DFD08A90CA80C
:101B80000AF095FD6B490AF09BFD01466A48FEF795
:101B9000C8FC08A80AF089FC0CA80AF086FC0024FE
:101BA00048FA04F3DB070CA816D464490AF0BDFC1C
:101BB0000A22214608A80AF001FD08A90CA80AF08B
:101BC00076FD01465C48FEF7ACFC08A80AF06DFC07
:101BD0000CA80AF06AFC52E059490AF0A6FC0A2255
:101BE000214608A80AF0EAFC08A90CA80AF05FFD43
:101BF00001465148FEF795FC08A80AF056FC0CA8CF
:101C00000AF053FC4F490CA80AF08FFC0A22214627
:101C100008A80AF0D3FC08A90CA80AF048FD014660
:101C20004548FEF77EFC08A80AF03FFCE7B20CA886
:101C30000AF03BFC304639462A46FFF76DFE012884
:101C400013D141493C48FEF776FC736D40F608100D
:101C500000FB043029463A4602F038FF3B4936483B
:101C6000FEF769FC34483A4903E0022803D13248C0
:101C70003849FEF760FC30483749FEF75CFC013418
:101C8000042C8DD1354C364904A80AF04EFC21783D
:101C900068460AF080FC694604A80AF008FD31494C
:101CA0000AF00EFD2946074608A80AF074FC08A9A8
:101CB00038460AF0FCFC2C490AF002FD2B4B074683
:101CC00019780CA80AF067FC0CA938460AF0EFFC5A
:101CD00001461948FEF725FC0CA80AF0E6FB08A807
:101CE0000AF0E3FB68460AF0E0FB04A80AF0DDFB1B
:101CF0000CA81F4925700AF018FC294608A80AF00C
:101D00004AFC08A90CA80AF0D2FC1A490AF0D8FC2F
:101D100001460948FEF705FC08A80AF0C6FB0CA816
:101D20000AF0C3FB304600F0ADFD10B0BDE8F08115
:101D3000D166010072680100DCD9FF1FFA6601005C
:101D400014670100256701004F6701007D670100EE
:101D5000AB670100CF670100EC6701005CD7FF1F94
:101D6000FE6701001D6801002268010031D7FF1FD6
:101D700043680100646801002DE9F04391B0064614
:101D80000D4690469DF8607043B30024736D40F695
:101D9000081202FB0433E1B2304693F808280134FC
:101DA000FFF73AFA042CF1D13A490CA80AF0BDFB2E
:101DB000394B08A819780AF0EEFB08A90CA80AF01C
:101DC00076FC36490AF07CFC01463548FEF7A9FB53
:101DD00008A80AF06AFB0CA80AF067FB314C17B997
:101DE0002378002B3BD104A82F490AF09EFB2946FB
:101DF00068460AF0D0FB694604A80AF058FC2B4953
:101E00000AF05EFC0A228146394608A80AF0D6FB91
:101E100008A948460AF04BFC25490AF051FC0A2261
:101E2000074621780CA80AF0C9FB0CA938460AF02D
:101E30003EFC01461A48FEF774FB0CA80AF035FB7D
:101E400008A80AF032FB68460AF02FFB04A80AF043
:101E50002CFB304629464246FFF782FE17E0154B21
:101E600015491D700CA80AF060FB294608A80AF065
:101E700092FB08A90CA80AF01AFC01460848FEF7D4
:101E800050FB08A80AF011FB0CA80AF00EFB11B0D9
:101E9000BDE8F0838A6801005CD7FF1F9B680100E2
:101EA000DCD9FF1F48D7FF1FAC680100C9680100DB
:101EB000D468010031D7FF1FDF680100044A054BD9
:101EC0001360054A1360054A13600AF0D7BD00BFCE
:101ED0008C91FF1F032000388891FF1F8491FF1F02
:101EE00008B5FEF711FB08BD01448A71704701EB8C
:101EF00082007047F0B504468DB0474813F02CFDC2
:101F000005460FF065F800282ED1444904A80AF0D0
:101F10000CFB294668460AF008FB694604A80AF04B
:101F2000C6FB3F490AF0CCFB0A2206464FF480214B
:101F300008A80AF043FB08A930460AF0B8FB01469E
:101F40003848FEF7EEFA08A80AF0AFFA68460AF039
:101F5000ACFA04A80AF0A9FA0EF084FF4FF480212D
:101F6000024628460FF040F8284613F0DBFB2E48C7
:101F700013F0F2FC06460FF02BF8F0B908A82B4935
:101F80000AF0D3FA314604A80AF0CFFA04A908A847
:101F90000AF08DFB01462348FEF7C3FA04A80AF0B5
:101FA00084FA08A80AF081FA0EF05CFF4FF4802151
:101FB000024630460FF018F818E008A831460EF037
:101FC00087FF04F1580308AA0DF1280E1F46154695
:101FD00003CD7545186059602A4603F10803F6D110
:101FE00028681860AA889A80A36D7BB9304613F0E0
:101FF00099FB0EF051FE0028FBD0002384F84630F8
:102000006370204600F0D2FC0DB0F0BD00232366C3
:1020100038460FF02BF9E9E701650100116901006D
:1020200026690100DCD9FF1F456401002E6901000B
:102030002DE9F04FC7788FB004462FB103202AE373
:102040007B1C402B06D01F4604EB070B9BF8063089
:10205000002BF5D00AF0C0FFE36C4CF25032C01AEE
:10206000904240F2F781AD4813F076FC0190AC4805
:1020700013F072FC81460EF00FFE002800F0BC81C8
:102080004FF48050012113F005FB9BF806305FFAF6
:1020900087F8013B4FEA980608F003058246032BB8
:1020A00000F2A781DFE813F004005600E7005801B2
:1020B0009C4906A80AF039FA294602A80AF06BFAE8
:1020C00002A906A80AF0F3FA97490AF0F9FA31468C
:1020D00083460AA80AF05FFA58460AA90AF0E7FA06
:1020E00001469248FEF71DFA0AA80AF0DEF902A896
:1020F0000AF0DBF906A80AF0D8F90AA849460EF05A
:10210000E7FE04F158030AAA0DF1300C9B469646EF
:10211000BEE80300E64518605960724603F1080303
:10212000F5D11068186092889A80A36D002B00F09A
:10213000928141462046FEF7D3FD2744206658464B
:102140000FF0AAF80223BB710AF046FFE06406A86C
:1021500077492BE1774906A80AF0E7F9294602A852
:102160000AF019FA02A906A80AF0A1FA6E490AF0C3
:10217000A7FA314683460AA80AF00DFA0AA958467A
:102180000AF095FA6C490AF09BFA01466748FEF797
:10219000C8F90AA80AF089F902A80AF086F906A87F
:1021A0000AF083F90AA801990EF092FE0AAA04F136
:1021B00058030DF1300C9646BEE80300E645186062
:1021C0005960724603F10803F5D1106818609288CF
:1021D0009A8056485949FFF783FEA36D002B40F0C3
:1021E0006181574906A80AF0A0F994F8461002A8A0
:1021F0000AF0D1F902A906A80AF059FA51490AF0E1
:102200005FFA294683460AA80AF0C5F90AA9584682
:102210000AF04DFA01464548FEF783F90AA80AF08C
:1022200044F902A80AF041F906A80AF03EF9464925
:102230003E48FFF755FE0AA849460EF049FE0AAA95
:1022400004F158030DF1300C9646BEE80300E64554
:1022500018605960724603F10803F5D110681860E0
:1022600092889A8031483949FFF73AFEA36D002BD6
:1022700040F040819EE1364906A80AF056F9294609
:1022800002A80AF088F902A906A80AF010FA26495D
:102290000AF016FA314683460AA80AF07CF9584635
:1022A0000AA90AF004FA01462048FEF73AF90AA8FA
:1022B0000AF0FBF802A80AF0F8F806A80AF0F5F808
:1022C0000AA801990EF004FE04F158030AAA0DF1C0
:1022D000300C9B469646BEE80300E6451860596000
:1022E000724603F10803F5D11068186092889A804D
:1022F000A36D002B00F0A88141462046FEF7F0FCBC
:10230000206658460EF0C8FF0AF066FE27440423F4
:10231000E064BB7106A80F4948E000BF45640100B6
:10232000016501004469010074690100DCD9FF1FE7
:1023300079690100B2690100F2690100BFBB0100C7
:10234000586B0100A96B0100B3BC0100F0BC010097
:102350004C6A01007D6A0100AA4906A80AF0E5F866
:10236000294602A80AF017F902A906A80AF09FF95F
:10237000A5490AF0A5F9314607460AA80AF00BF963
:102380000AA938460AF093F90146A048FEF7C9F8B1
:102390000AA80AF08AF802A80AF087F806A80AF044
:1023A00084F800239A498BF8063006A80AF0BDF895
:1023B000294602A80AF0EFF802A906A80AF077F960
:1023C00091490AF07DF9314605460AA80AF0E3F87A
:1023D0000AA928460AF06BF901468C48FEF7A1F8D5
:1023E0000AA80AF062F802A80AF05FF806A80AF044
:1023F0005CF8504613F096F9484613F093F90198AB
:1024000013F090F900231D46E21892790AB10135C4
:10241000EDB20133402BF7D12378DBB1D5B97D493B
:102420000AA80AF082F80AF0D7FD216D0A22411AA3
:1024300006A80AF0E9F806A90AA80AF038F9014640
:102440007248FEF76EF806A80AF02FF80AA80AF0FC
:102450002CF825701FE106A86F490AF066F894F879
:10246000461002A80AF097F802A906A80AF01FF978
:102470006A490AF025F9494607460AA80AF055F8BC
:102480000AA938460AF013F901466048FEF749F8F0
:102490000AA80AF00AF802A80AF007F806A80AF043
:1024A00004F854E641462046FEF71AFC5C492066D3
:1024B0005648FFF715FD236EE26D03F580519142FA
:1024C00015D993420AD2C3EB020BA06D51461844B2
:1024D0005A460EF039F9236E5B44236651494B4846
:1024E000FFF7FEFC50494948FFF7FAFC9FE64FF41E
:1024F000805BEAE720464146FEF7F2FBE36D20668B
:1025000000F580529A4252D998420AD2C0EB030891
:10251000A36D5146184442460EF0FEF9236E434423
:1025200023660AF059FD4149E06406A809F0FDFF61
:10253000294602A80AF02FF802A906A80AF0B7F85F
:1025400031490AF0BDF8314680460AA80AF023F85E
:102550000AA940460AF0ABF835490AF0B1F801463D
:102560002A4809F0F8FE0AA809F09FFF02A809F01E
:102570009CFF06A809F099FF51462448FDF7C4FFC7
:10258000224809F009FF21482A49FFF7A9FC2744FE
:102590000323BB7128491D48FFF7A2FC27491B48AC
:1025A000FFF79EFC0023637006A82549FEE64FF462
:1025B0008058ADE706A8184909F0B7FF94F846100F
:1025C00002A809F0E8FF02A906A80AF070F81D4960
:1025D0000AF076F8294680460AA809F0DCFF0AA925
:1025E00040460AF064F801460848FDF79AFF0AA839
:1025F00009F05BFF02A809F058FF06A809F055FF93
:10260000C5E700BFB76A010074690100DCD9FF1F8C
:10261000F66A01003F6B0100586B01007B6B010003
:10262000FCBB010039BC010076BC0100F669010069
:10263000B66C01002DBD01006ABD0100D1BA0100D8
:10264000026A0100DB6B010006A8144909F06DFF66
:1026500094F8461002A809F09EFF02A906A80AF005
:1026600026F80F490AF02CF8294607460AA809F06F
:1026700092FF0AA938460AF01AF801460948FDF700
:1026800050FF0AA809F011FF02A809F00EFF06A8E2
:1026900009F00BFF3EE60FB0BDE8F08F586B01006C
:1026A0000E6C0100DCD9FF1F044A054B1360054A7C
:1026B0001360054A13600AF0E1B900BF9891FF1F4B
:1026C000032000389491FF1F9091FF1F0A220023DE
:1026D00009F072BE38B58368144642680546E018B2
:1026E000904202D993420AD2D41A2868224618444A
:1026F0000EF02AF8AB682344AB60204638BD0020BA
:1027000038BD70B50668044630460D460AF0FAF941
:10271000854203D0304629460AF008FA204670BDAB
:10272000F0B5054685B0184813F016F904460EF0CA
:10273000B3FA0028FBD020460EF04AFCB8B9684630
:1027400021460EF0C5FB05F158036A4602AF1E464E
:10275000144603CCBC4218605960224603F10803BA
:10276000F6D120681860A2889A80AB6D23B90EF06C
:1027700093FA0028FBD005E000232B6630460EF0CC
:1027800075FDF4E705B0F0BD016501002DE9F041EC
:1027900086B004A80EF0BEF9304D04A80EF0CCFAB5
:1027A0002B680093DDF80080044600284FD02C49A8
:1027B0002C48FFF795FB21462A48FFF787FF2A4957
:1027C0002848FDF7B8FE29492648FDF7B4FE2849F8
:1027D0002448FDF7B0FE0EF0D9F92B680193019E55
:1027E00000240EF059FA0746A8B92B680293029B01
:1027F0009B1BB3F57A7FF4D901341A481D49E4B222
:10280000FFF76EFB3B2C06F57A76EAD9154809F0FE
:10281000C3FD3C46E5E714B1124809F0BDFD164979
:102820001048FDF788FE2B680393039B13490D485E
:10283000C8EB0308FFF754FB4FF47A71B8FBF1F1D2
:102840000848FFF743FF07480D49FDF774FE4FF4B2
:102850007A700AF0DFFB06B0BDE8F081D4D7FF1F25
:10286000416C0100DCD9FF1F536C01005B6C01005F
:10287000756C0100A36601008B6C01009B6C01006C
:10288000AB6C010070B590B0404905460CA809F04A
:102890004CFE3F4B08A8197809F07DFE08A90CA84A
:1028A00009F005FF01463B48FDF73BFE08A809F08B
:1028B000FCFD0CA809F0F9FD0024374904A809F033
:1028C00034FE6B6D2344684693F8021809F063FEEA
:1028D000694604A809F0EBFE304909F0F1FE6B6D82
:1028E0002344064693F80A1808A809F054FE304617
:1028F00008A909F0DCFE2A4909F0E2FE6B6D2344C9
:10290000064693F806180CA809F045FE30460CA9B7
:1029100009F0CDFE234909F0D3FE01461D4809F018
:102920001AFD0CA809F0C1FD08A809F0BEFD684613
:1029300009F0BBFD04A809F0B8FD00266B6D03EBA0
:10294000461308A8195D09F026FE08A90CA809F08D
:1029500007FE14490CA809F0B3FE01460D4809F022
:10296000FAFC0CA809F0A1FD013608A809F09DFDAC
:10297000102EE3D107480C49FDF7DDFD04F60814DD
:1029800042F220439C4298D110B070BDB86C010057
:102990005CD7FF1FDCD9FF1FD46C0100D96C01008C
:1029A000DF6C0100B66C0100B76C0100F0B5374B6D
:1029B00000229FB006461A800EA8402101AA0EF000
:1029C000F7FB00285FD032493248FFF789FA3148D7
:1029D0000EA9FFF785FA00240EA812F0D8FFC0F167
:1029E000140084422B4804D22B49FFF779FA0134B2
:1029F000F2E72749FFF774FA01992648FFF766FEC8
:102A000026492448FFF76CFA224809F0C5FC002447
:102A10004FF4805012F07EFE0546346629465A2255
:102A200006F15800FFF756FE00230A22214602A8AD
:102A300085F85B3009F0C2FD02A906A809F090FDF7
:102A4000174906A809F03CFE294607460AA809F0DE
:102A50006CFD0AA9384609F02AFE01460D48FDF72B
:102A600060FD0AA809F021FD06A809F01EFD02A8D4
:102A700009F01BFD04F58054284612F053FEB4F50E
:102A8000802FC5D198E71FB0F0BD00BF6EDBFF1FE0
:102A9000E56C0100DCD9FF1FE66C0100E86C010069
:102AA000B0D0010073B502AC164644F8041D0D46C3
:102AB0002046D1B2FFF725FE01352046310A0195A7
:102AC000FFF71FFE02B070BD38B508460C460AF08D
:102AD00019F80546601C0AF015F805EB002080B2D5
:102AE00038BD13B5002402A8FF2140F8044D01347D
:102AF000FFF707FEB4F5006FF5D14FF4FA700AF056
:102B000089FA02B010BDFFFF044A054B1360054A65
:102B10001360054A136009F0B1BF00BFA491FF1F05
:102B200003200038A091FF1F9C91FF1F38B5044679
:102B30000AF052FAD22360601721052204F108003E
:102B40000EF0C3FC0021172204F11C000AF0B2F8B9
:102B500001232377022363770323A3770423E377F7
:102B6000062384F82030072384F82130082384F8D2
:102B70002230092384F823300B2384F824300C23DB
:102B800084F825300D2384F826300E2384F827306E
:102B9000102384F82830112384F82930122384F874
:102BA0002A30132384F82B30052384F82D300A2390
:102BB00084F82E300F2384F82F300C4B03F11002D1
:102BC00004F13301104653F8045B41F8045B93426F
:102BD000F9D10368C4F84330054B1A889B78A4F8F0
:102BE000472084F84930204638BD00BFCA6F010035
:102BF000DE6F0100C943CAB2542A09D8A2EB820091
:102C0000013802EB42020021C0B2D2B20B4618E0FA
:102C1000A92A0BD8553AD2B202EB4201A2EB8202AA
:102C2000013A0020C9B2D2B203460AE05632D2B20B
:102C300002EB4200A2EB8202511E0022C0B2C9B2D6
:102C400013460EF0AEBCFFFF2DE9F043044685B0FD
:102C500000F1100806463A4F2368387840F6081904
:102C600009FB003001F09FFD2546311B01EB0010F0
:102C7000C1B255F8083B387809FB003090F80038AD
:102C80008B4203D196F83310FF2206E000EB41138C
:102C90005B794BB996F833100122009201922846D5
:102CA00013460EF028FC0DE0002296F8339002F057
:102CB00053F801462046FFF79DFF49460246284645
:102CC0000EF041FC01364645C5D11E4B1E7820460C
:102CD00036B14021FFF78EFF00210246284605E06D
:102CE000FF21FFF787FF3146024628460EF02BFCF6
:102CF00000263B78B34204EB060312D193F84380DD
:102D0000114B1B68039303996423B1FBF3F1204635
:102D1000C9B2FFF76FFF4146024628460EF013FC8A
:102D200008E0002293F843100092019228461346CF
:102D30000EF0E1FB0136042EDBD105B0BDE8F083D7
:102D400032D7FF1F48D7FF1FD4D7FF1F2DE9F04F01
:102D5000044685B000F1100B0646371BFFB2DFF8C2
:102D6000A8812546384606F001FE98F8002055F85F
:102D7000083B40F6081A0AFB023393F800388342F6
:102D800003D196F83310FF222AE0384606F0EEFD14
:102D9000594B1B78834214D1584B96F833701B68FB
:102DA0000393039A0523B2FBF3F3FF2293FBF2F2A2
:102DB0009918C9B22046FFF71DFF3946024628463A
:102DC0002BE0236898F8002038460AFB023906F009
:102DD000CDFD09EB401043794BB996F83310012231
:102DE00000920192284613460EF085FB17E02368F7
:102DF00098F8002096F8339038460AFB023A06F01D
:102E0000B5FD00220146504601F0A6FF01462046CE
:102E1000FFF7F0FE4946024628460EF094FB0136C5
:102E20005E459AD1364B1E78204636B14021FFF7D9
:102E3000E1FE00210246284605E0FF21FFF7DAFE09
:102E40003146024628460EF07EFB2E4B1B78032BA4
:102E500030D8DFE803F00205111D2046FF2101E014
:102E60002046BF21FFF7C6FE1521024628460EF078
:102E70006AFB20467F2116E07F212046FFF7BAFE3D
:102E80001521024628460EF05EFB2046BF210AE0CF
:102E90007F212046FFF7AEFE1521024628460EF0A0
:102EA00052FB2046FF21FFF7A5FE162102462846C9
:102EB0000EF049FB0026144A1378B34204EB0603D4
:102EC0000BD12046002193F84370FFF793FE39465B
:102ED000024628460EF037FB08E0002293F8431024
:102EE00000920192284613460EF005FB0136042E8F
:102EF000E1D105B0BDE8F08F20D7FF1FD4D7FF1F69
:102F000048D7FF1F15D7FF1F32D7FF1F2DE9F04FFE
:102F1000044685B00025724B1A78AA4204EB0503DB
:102F200004F108060BD12046402193F84370FFF7C7
:102F300061FE3946024630460EF005FB08E00022ED
:102F400093F8431000920192304613460EF0D3FAE4
:102F50000135042DDFD104F1100B25462F1BFFB2E4
:102F6000DFF87C91384606F001FD4B4640F6081824
:102F70001A78236808FB023A9AF8002882423846F9
:102F80003DD106F0F3FC0AEB40104379012B08D148
:102F9000FF22802395F8331030468DE80C00002284
:102FA0002BE0236899F80020384608FB023A06F027
:102FB000DDFC0AEB40104379022B06D1002380226E
:102FC00095F83310009301926AE0236899F8002085
:102FD000384608FB023806F0C9FC08EB401095F8AB
:102FE00033104379032B04D1002280238DE80C0099
:102FF0006BE0FF22009201923046134667E006F034
:10300000B5FC384B1B78834216D1374B95F833709B
:103010001B680393039A0523B2FBF3F3FF2293FB90
:10302000F2F299182046C9B2FFF7E4FD394602468C
:1030300030460EF088FA4CE099F8002023683846B4
:1030400008FB023A06F092FC0AEB4010427912B9F2
:1030500095F83310CEE7236899F80020384608FB2E
:10306000023A06F083FC0AEB40104379012B05D1AC
:10307000FF2395F8331000930022BCE7236899F8EA
:103080000020384608FB023A06F070FC0AEB4010BC
:103090004379022B07D1002395F833100093019355
:1030A0003046FF2213E0236899F80020384608FBD9
:1030B000023806F05BFC08EB40104379032B08D183
:1030C000002295F83310009201923046FF230EF053
:1030D00012FA01355D457FF441AF05B0BDE8F08FD0
:1030E00032D7FF1F20D7FF1FD4D7FF1FF7B50546E4
:1030F0000024114B1B78A34205F1080605EB0403DD
:103100000BD12846C42193F84370FFF773FD39466D
:10311000024630460EF017FA08E0002293F84310FA
:1031200000920192304613460EF0E5F90134042C6A
:10313000DFD103B0F0BD00BF32D7FF1FF0B50446AA
:1031400085B00D4609F048FF6368C01AA84269D9E6
:1031500009F042FF344B60601B78092B04F108062C
:1031600020D00ED8032B19D005D8002B52D02046E2
:10317000FFF7ECFD4EE0062B4CD12046FFF7C6FED4
:1031800048E07D2B0ED003D80B3B012B06D941E044
:10319000F12B3FD12046FFF7A9FF3BE02046FFF788
:1031A00053FD37E000256319204693F833701F4B19
:1031B0001B680393039A0523B2FBF3F3122202FB6D
:1031C0000533FF2293FBF2F29918C9B2FFF712FD03
:1031D00001350246394630460EF0B5F9102DE2D1E0
:1031E0000025134B1B782B4113F0010004EB050362
:1031F00093F8431004D00022FF238DE80C0002E076
:103200004022009201903046134601350EF073F9CA
:10321000042DE6D1074B02241C6030460EF0A0F8C6
:10322000054B1C6005B0F0BD728EFF1FD4D7FF1F89
:103230007C8EFF1F04F10F4008F10F4001EB81016C
:103240002DE9F04705464FEAC1080026002406EBA9
:1032500004192B195FFA89F94946284693F833A0D7
:10326000FFF7C8FC05F108070246514638460EF044
:103270006AF904F003032B444946284693F843A017
:10328000FFF7B8FC01340246514638460EF05BF9B0
:10329000102CDCD138460EF063F8B8F1000F03D0E3
:1032A0004346013B7FF4FDAF0136B6B2B6F5807FF1
:1032B000CCD1BDE8F087FFFFF7B52C4C2368162270
:1032C0005B6805460E4620462949984720462C460D
:1032D00009F062F844F8086B0520012109F0FAFDB5
:1032E000C82120460EF064F920460DF0E8FF204684
:1032F0000EF036F800270026AB19FAB293F8331017
:10330000009201922046134601360EF0F4F8102E7A
:10331000F2D120460EF024F84FF47A63013B7FF49B
:10332000FDAF0137B7F5807FE5D1FF270026AB1948
:10333000FAB293F8331000920192204613460136F8
:103340000EF0D9F8102EF2D120460EF009F84FF405
:103350007A63013B7FF4FDAF013FE7D1284664214A
:1033600003B0BDE8F040FFF769BF00BFDCD9FF1F25
:10337000E16F0100044A054B1360054A1360054ADA
:10338000136009F07BBB00BFB091FF1F0320003822
:10339000AC91FF1FA891FF1F2DE9F04705468CB0A7
:1033A0000C4616461F46BE49BE48FDF7C4F8EE62FD
:1033B0006F6201260027BC492F736F73AF73EF73E1
:1033C0002E746E74AE74EE742F756F75AF75EF75E5
:1033D0002E766E76AE76EE76B248FDF7ACF82046E5
:1033E0002121AC6202F064FC2046394608223346B3
:1033F00002F0A4FA204631460422334602F09EFA37
:10340000204602210922334602F098FA2046032181
:103410000522334602F092FA204611210622334655
:1034200002F08CFA204604210A22022302F086FAD6
:10343000204605210722022302F080FA20460621B9
:103440000B22022302F07AFA204607210C220223E3
:1034500002F074FA204608211B22334602F06EFA6D
:10346000204609211222334602F068FA20460A213A
:103470001322334602F062FA20460B21142233460F
:1034800002F05CFA20460C211522334602F056FA6F
:1034900020460D211622334602F050FA20460E2116
:1034A0001722334602F04AFA20460F210322334600
:1034B00002F044FA204610211822334602F03EFA68
:1034C000204616210E22022302F038FA204612214D
:1034D0000222334602F032FA2046132132463B469E
:1034E00002F02CFA204614211A223B4602F026FA5A
:1034F000204615210D223B4602F020FA20461721D6
:103500000F223B4602F01AFA2046182110223B46B1
:1035100002F014FA2046192111223B4602F00EFA5D
:1035200020461A2119223B4602F008FA3A463B4649
:103530001B21204602F002FA204602F03FFB5B49C5
:103540005848FCF7F8FF022105F11D0002F08EF942
:1035500005F11F090A2009F05DFD1321484602F01C
:103560006FFC05F120080A2009F054FD40461221A5
:1035700002F066FC0A2009F04DFD4D4904A808F050
:10358000D4FF0A223946684609F018F8694604A8AB
:1035900009F08DF8474909F093F8FEB282463146AA
:1035A000484602F0C1FC014608A808F0F4FF504666
:1035B00008A909F07CF801463A48FCF7B2FF08A8D0
:1035C00008F073FF684608F070FF04A808F06DFF6C
:1035D000012009F01FFD384904A808F0A6FF0A22BF
:1035E0003946684608F0EAFF694604A809F05FF822
:1035F000304909F065F831468246404602F094FCB5
:10360000014608A808F0C7FF504608A909F04FF87E
:1036100001462448FCF785FF08A808F046FF6846E5
:1036200008F043FF04A808F040FF012009F0F2FC75
:10363000012009F0EFFC31460122484602F03CFC33
:10364000012009F0E7FC01223146404602F034FC3B
:10365000012009F0DFFC012009F0DCFC144904A87A
:1036600008F063FF0A223946684608F0A7FF69465A
:1036700004A809F01CF80F4909F022F831468246E7
:10368000484602F051FC014608A808F084FF504665
:1036900008A909F00CF801460248FCF742FF0DE0CA
:1036A000F86F0100DCD9FF1F0A70010024700100CF
:1036B00035700100A66B01004470010008A808F0F5
:1036C000F4FE684608F0F1FE04A808F0EEFE0120C2
:1036D00009F0A0FC7E4904A808F027FF0A22394619
:1036E000684608F06BFF694604A808F0E0FF7949D6
:1036F00008F0E6FF31468246404602F015FC0146DE
:1037000008A808F048FF504608A908F0D0FF014675
:103710007148FCF706FF08A808F0C7FE684608F0E5
:10372000C4FE04A808F0C1FE012009F073FC0120CA
:1037300009F070FC3146FF22484602F0BDFB012033
:1037400009F068FCFF223146404602F0B5FB01203B
:1037500009F060FC012009F05DFC604904A808F054
:10376000E4FE0A223946684608F028FF694604A8A4
:1037700008F09DFF574908F0A3FF314682464846AE
:1037800002F0D2FB014608A808F005FF504608A940
:1037900008F08DFF01465048FCF7C3FE08A808F06A
:1037A00084FE684608F081FE04A808F07EFE012031
:1037B00009F030FC464904A808F0B7FE0A22394651
:1037C000684608F0FBFE694604A808F070FF41490E
:1037D00008F076FF31468246404602F0A5FB0146DE
:1037E00008A808F0D8FE08A9504608F060FF014676
:1037F0003948FCF796FE08A808F057FE684608F01E
:1038000054FE04A808F051FE0137012009F002FC23
:10381000042F7FF4B2AE2E462F1D96F834302B4481
:10382000204693F83C10012202F037FA96F838301F
:103830002B44204693F83C100122013602F02DFA69
:10384000BE42EAD126492448FCF775FE1F2001211B
:1038500009F040FB0420012109F03CFB21491E48EE
:10386000FCF769FE204602F0DFF900251E4904A896
:1038700008F05BFE0A222946684608F09FFE69466A
:1038800004A808F014FF194908F01AFFE9B2064627
:10389000204602F015F90A22014608A808F08EFE1B
:1038A00008A9304608F003FF01460B48FCF739FE33
:1038B00008A808F0FAFD684608F0F7FD013504A8ED
:1038C00008F0F3FD1C2DD1D10CB0BDE8F08700BF8E
:1038D00044700100A66B0100DCD9FF1F35700100A8
:1038E000537001006870010092700100B66C010015
:1038F0002DE9FF47B34B1A680292029A1B680393A3
:10390000039BB14B1B78283B0446232B00F27D839D
:10391000DFE813F0240053008400240053008400E7
:10392000240053008400240053008400B300CE0020
:10393000EA00050120013C01680183019F01BA01F1
:10394000D501F1010C02270243025E0279029502C1
:10395000B002CB02F2020D032E0351039B4D05F181
:10396000080A6E78DFF87082DFF8709238F8162057
:1039700039F81630009296494FF48042002008F042
:103980008AFD04F11D0782B23146384601F08AFFF4
:1039900015F8016F8E4938F8162039F81630009264
:1039A00000204FF4804208F076FD314682B238465E
:1039B00001F078FF5545D4D127E3844D05F1080A7D
:1039C0006E78DFF81482DFF8149238F8162039F890
:1039D000163000927E494FF480424FF4005008F0B8
:1039E0005AFD04F11D0782B23146384601F05AFFF4
:1039F00015F8016F764938F8162039F8163000921C
:103A00004FF400504FF4804208F045FD314682B239
:103A1000384601F047FF5545D2D1F6E26B4D05F12E
:103A2000080A6E78DFF8B081DFF8B09138F8162018
:103A300039F816300092664966484FF4804208F023
:103A40002AFD04F11D0782B23146384601F02AFFF3
:103A500015F8016F5E4938F8162039F816300092D3
:103A60005C484FF4804208F016FD314682B2384679
:103A700001F018FF5545D4D1C7E2DFF86481564EF6
:103A800098F80050554F36F8152037F81530504942
:103A9000009200F11D044FF480424E4808F0FBFCF8
:103AA000294682B2204601F0FDFE98F8005058E207
:103AB000DFF82C81484E98F80050484F36F8152012
:103AC00037F815304249009200F11D044FF480424E
:103AD0004FF4005008F0DFFC294682B2204601F086
:103AE000E1FE98F800505EE2DFF8F4803A4E98F874
:103AF00000503A4F36F8152037F815303449009207
:103B000000F11D044FF48042002008F0C4FC294657
:103B100082B2204601F0C6FE98F8005065E2DFF858
:103B2000C0802D4E98F801502C4F36F8152037F8EC
:103B300015302749009200F11D044FF480422548BA
:103B400008F0A9FC294682B2204601F0ABFE98F8A5
:103B5000015006E2DFF888801F4E98F801501F4F91
:103B600036F8152037F815301949009200F11D0478
:103B70004FF480424FF4005008F08DFC294682B289
:103B8000204601F08FFE98F801500CE2DFF85080DB
:103B9000114E98F80150114F36F8152037F81530AE
:103BA0000B49009200F11D044FF48042002008F000
:103BB00072FC294682B2204601F074FE98F801504A
:103BC00013E200BFD4D7FF1F16D7FF1F508EFF1F71
:103BD00000C0FFFF00E0FFFF5A8EFF1F848EFF1F13
:103BE000518EFF1FDFF80C83BE4E98F80250BE4F77
:103BF00036F8152037F81530BC49009200F11D0445
:103C00004FF48042BA4808F046FC294682B220466A
:103C100001F048FE98F80250A3E1DFF8D882B14ED7
:103C200098F80250B04F36F8152037F81530AF49E4
:103C3000009200F11D044FF480424FF4005008F050
:103C40002AFC294682B2204601F02CFE98F8025048
:103C5000A9E1DFF8A082A34E98F80250A24F36F8EF
:103C6000152037F81530A149009200F11D044FF4DA
:103C70008042002008F00FFC294682B2204601F065
:103C800011FE98F80250B0E1DFF86882954E98F87E
:103C90000350954F36F8152037F8153093490092A8
:103CA00000F11D044FF48042914808F0F4FB2946CE
:103CB00082B2204601F0F6FD98F8035051E1DFF89A
:103CC0003482884E98F80350874F36F8152037F81D
:103CD00015308649009200F11D044FF480424FF4E4
:103CE000005008F0D8FB294682B2204601F0DAFDE8
:103CF00098F8035057E1DFF8FC817A4E98F80350AA
:103D0000794F36F8152037F815307849009200F1D0
:103D10001D044FF48042002008F0BDFB294682B20A
:103D2000204601F0BFFD98F803505EE1DFF8C48142
:103D30006C4E98F804506C4F36F8152037F8153053
:103D40006A49009200F11D044FF48042684808F06F
:103D5000A2FB294682B2204601F0A4FD98F8045047
:103D6000FFE0DFF890815F4E98F804505E4F36F820
:103D7000152037F815305D49009200F11D044FF40D
:103D800080424FF4005008F086FB294682B220465C
:103D900001F088FD98F8045005E1DFF85881514E94
:103DA00098F80450504F36F8152037F815304F4921
:103DB000009200F11D044FF48042002008F06BFBDC
:103DC000294682B2204601F06DFD98F804500CE1BE
:103DD000DFF82081434E98F80550434F36F8152000
:103DE00037F815304149009200F11D044FF480422C
:103DF0003F4808F050FB294682B2204601F052FDB0
:103E000098F80550ADE0DFF8EC80364E98F8055094
:103E1000354F36F8152037F815303449009200F147
:103E20001D044FF480424FF4005008F034FB294643
:103E300082B2204601F036FD98F80550B3E0DFF875
:103E4000B480284E98F80550274F36F8152037F8DB
:103E500015302649009200F11D044FF480420020E5
:103E600008F019FB294682B2204601F01BFD98F8A4
:103E70000550BAE0DFF87C801A4E98F806501A4FC9
:103E800036F8152037F815301849009200F11D0456
:103E90004FF48042164808F0FEFA294682B22046C6
:103EA00001F000FD98F806505BE0DFF848800D4E09
:103EB00098F806500C4F36F8152037F815300B4996
:103EC000009200F11D044FF480424FF4005008F0BE
:103ED000E2FA294682B2204601F0E4FC98F8065046
:103EE00061E000BF5A8EFF1F848EFF1F00C0FFFFDE
:103EF00000E0FFFF518EFF1FDFF82481444E98F849
:103F00000650444F36F8152037F8153042490092D4
:103F100000F11D044FF48042002008F0BCFA29464D
:103F200082B2204601F0BEFC98F806505DE0DFF852
:103F3000F080374E98F80750364F36F8152037F88E
:103F400015303549009200F11D044FF4804233488A
:103F500008F0A1FA294682B2204601F0A3FC98F8A5
:103F6000075036F8152037F815302C48009242E0FB
:103F7000DFF8AC80264E98F80750264F36F815200B
:103F800037F815302449009200F11D044FF48042A7
:103F90004FF4005008F07FFA294682B2204601F023
:103FA00081FC98F8075036F8152037F81530009244
:103FB0004FF400501FE0DFF86880154E98F8075066
:103FC000144F36F8152037F815301349009200F1D8
:103FD0001D044FF48042002008F05DFA294682B2A9
:103FE000204601F05FFC98F8075036F8152037F8A6
:103FF00015300092002008494FF4804208F04BFA37
:10400000294682B2204601F04DFC04B0BDE8F0879D
:104010005A8EFF1F848EFF1F00C0FFFF00E0FFFFCE
:10402000518EFF1F2DE9F3410446806A414EDFF8AF
:10403000248101F0F9FD11210122606A0FF090FD49
:10404000242130800122606A0FF08AFD25217080D2
:104050000122606A0FF084FD2221B0800122606A93
:104060000FF07EFD0025F080334B705BEB5A334F31
:10407000984207D2324AA95A002200921A464FF4B7
:10408000806305E02F4A3049AA5A0091194600235F
:1040900008F001FA78534023785F2B4900934FF4DE
:1040A00080626FF03F0308F0F6F90235082D08F83A
:1040B000010FD9D1A06A254E042101F09BFE80F0AA
:1040C000010030700521A06A01F094FE80F001002B
:1040D00070700621A06A01F08DFE80F00100B070C2
:1040E0000721A06A01F086FE80F00100F070042133
:1040F000A06A174E01F068FE05213070A06A01F039
:1041000063FE06217070A06A01F05EFE0721B070A8
:10411000A06A01F059FE2946F0700122A06A01F060
:10412000BCFDA06A2946002202B0BDE8F04101F0C2
:10413000B4BD00BF06D7FF1F748EFF1F22D7FF1F1D
:104140006A8EFF1F948EFF1F00FCFFFF3CD7FF1FEE
:1041500049D7FF1F2BD7FF1F2DE9F04F85B09046A1
:104160009DF844909DF838B09DF840609DF8482037
:1041700004460F469A464518B9F1000F01D15EB1C9
:1041800092E0806A039201F03FFE039A0028F6D085
:10419000002A40F0B2807EE0002A40F0848095F84A
:1041A0003430A06A2344012293F83C1001F075FDDD
:1041B000BBF1010F16D195F83830234493F8441021
:1041C0000A0908BF04F11F0001F00F011CBF04F130
:1041D0002000002201F070FE01232B762B7385F85E
:1041E00014A009E008D99DF83C302B74012385F810
:1041F00014A02B7685F80CB095F83430234493F84E
:1042000044100A0908BF04F11F0001F00F011CBF90
:1042100004F12000002201F04FFEDFF8E8B095F82D
:1042200034C0DFF8E4A03BF81C203AF81C300092C0
:1042300013445B08002178224046CDF80CC008F0FA
:104240002AF9DDF80CC004F11D0682B26146304641
:1042500001F028FB95F834503BF815203AF815305A
:10426000009213440021782240465B0808F013F9BD
:10427000294682B2304601F015FBB9F1000F04D097
:10428000A06A3946012201F008FD08F0A5FEA060F1
:1042900005B0BDE8F08FA06A394601F0FEFC002EA3
:1042A0003FF47DAF00E0032695F83430A06A234444
:1042B000002293F83C1001F0F0FC95F834302344D0
:1042C000FF2293F84430190903F00F0A09D1009234
:1042D00030467F220B4608F0DEF8C2B204F11F0020
:1042E00009E00021009230467F220B4608F0D3F807
:1042F000C2B204F1200051468DE7002E08BF03260C
:10430000D2E700BF5A8EFF1F848EFF1F2DE9F743AF
:1043100046180746337B002B00F0E180013B032B5E
:1043200000F29F80DFE803F002053C6D347DE4017C
:1043300065E06C4A337C106858430BF0FDFC6A4919
:104340000BF052FD69490BF04FFD694B04461868AC
:1043500000010BF0F1FC014620460BF0F9FD0BF0DB
:10436000FFF810F091F80446307D0D460BF0E6F8AA
:1043700002460B46204629460BF046F900225D4BCB
:104380000BF042F90BF0DAFB96F838303B44002290
:1043900084B293F83C10B86A01F07FFC022260E01E
:1043A000504A337C106858430BF0C6FC4E490BF062
:1043B0001BFD4E490BF018FD4D4B044618680001DB
:1043C0000BF0BAFC014620460BF0C2FD0BF0C8F81A
:1043D00010F05AF8002200230BF0A6FB347D08B140
:1043E000E40103E0C4EB4424E401A4B296F83830BD
:1043F000B86A3B44012293F83C1001F04EFC0022C5
:104400002FE0384A337C106858430BF095FC36494E
:104410000BF0EAFC35490BF0E7FC354B0446186815
:1044200000010BF089FC014620460BF091FD0BF0DA
:1044300097F810F029F8002200230BF075FB347D6B
:1044400008B1E40103E0C4EB4424E401A4B296F80B
:104450003830B86A3B44002293F83C1001F01DFC50
:10446000282296F83830DFF89480DFF894903B44A7
:1044700024B293F844100B090CBF07F11F0007F199
:10448000200001F00F0101F017FD96F838501A498D
:1044900038F8152000233376204639F8153000927D
:1044A0004FF4804207F0F7FF1D3782B229463846A5
:1044B00001F0F8F996F838500F4938F815200092B5
:1044C00039F8153020464FF4804207F0E4FF2946C2
:1044D00082B2384603B0BDE8F04301F0E3B903B05F
:1044E000BDE8F08354D7FF1FD00F49400000C842F9
:1044F00000D7FF1F0000604000C0FFFF5A8EFF1F63
:10450000848EFF1F70B504460E4615461BB1806AA7
:10451000002201F0C2FB711EC9B20F29E46A0DD856
:1045200094F84A3041F080018B420BD0D4F8E0007F
:1045300084F84A1003681B68984703E0002384F856
:104540004A3070BDD4F8E000036805F07F011B68B5
:104550009847D4F8E000036840211B68984770BD75
:1045600038B5002204460D46806A01F096FB6019BA
:104570000023037303750123037638BD37B54FF469
:10458000007305460C4609B1084A00E0084A13606A
:104590001720214608F07EFC2C7724B1054B1B68C0
:1045A0000193019B2B6003B030BD00BF84F00F402E
:1045B00088F00F40D4D7FF1F044A054B1360054A0B
:1045C0001360054A136008F059BA00BFBC91FF1F81
:1045D00003200038B891FF1FB491FF1F4379032BCC
:1045E00009D8DFE803F0090B0B02407CD0F1010091
:1045F00038BF002070477047002070470120704787
:1046000010B5044608F0E8FCC4F8000910BDD0F865
:10461000F438013370B5C0F8F43890F8016890F8B8
:10462000023800221E440346B2420DDA996900297D
:1046300007DDD0F8EC58D0F8F848B5FBF4F4091BC6
:10464000996101322033EFE770BDFFFF264B80F800
:10465000E2181B78F0B5002B45D090F8DB3890F8C5
:104660000268B0F8E0585CB2002CD8BFC3F1020277
:1046700011FB06F6D4BFD2B20122DBB2002CCCBFB4
:104680001C46012402FB06F205F10105ADB292FBC6
:10469000F4F295FBF2F602FB1652C3F10203A0F806
:1046A000E0284FF48005D0F8F428C0F8F82895FBEE
:1046B000F1F5D4BF1E4601260022C0F8EC58C0F820
:1046C000F428E5B2F6B201238B420CDA0A44B6FBB9
:1046D000F5F492FBF4F704FB172414B980F80438BE
:1046E000F0BD0133F0E7F0BD48D7FF1F90F8DB388D
:1046F0005AB2002ADABFC3F10200C0B20120002A78
:10470000CCBFDBB20123800590FBF3F0704710B5FE
:104710000446FFF7EBFF94F80238584310BDF8B594
:10472000D0F8F458D0F8F848B0F8E068AC4234BF9C
:1047300027462F46D0F8EC58FFF7E9FF6E43B6FB4B
:10474000F0F37D4303FB1060B5FBF4F42044F8BDA7
:1047500038B590F80338012B044611D1FFF7DFFF7D
:1047600005462046FFF7C2FF94F8012894F8023866
:104770001344013BB5FBF0F01B1A84F800380DE040
:1047800063B9FFF7CCFF05462046FFF7AFFF94F86B
:104790000138B5FBF0F0C51884F8005894F80038DB
:1047A00084F8DF3838BD90F80008000970472DE91B
:1047B000F04190F8017890F8023890F800481F44D2
:1047C00007EB0408054608F1FF38002644450CDADB
:1047D00094FBF7F307FB134305EB431328465E6195
:1047E000FFF784FF01340644F0E73046BDE8F0816E
:1047F00030B504468DB051B10023A0F8E038C0F8C0
:10480000F438FFF78CFF01462046FFF7A1FF94F82C
:10481000023894F8010822461844002383420CDA37
:1048200094F800188B4202F1200206D0002102F811
:10483000101C02F80F1C0133F0E72046FFF7B7FF0A
:1048400094F80938002B2FD1184904A807F06DFE01
:1048500094F80918684607F09EFE694604A807F018
:1048600026FF134907F02CFF124907F029FF0546E0
:104870002046FFF754FF0A22014608A807F0C4FEAD
:1048800008A9284607F013FF01460B4807F063FD0F
:10489000094807F081FD08A807F007FE684607F001
:1048A00004FE04A807F001FE0DB030BDBC7001008D
:1048B000C0700100C8700100DCD9FF1F2DE9F74F5F
:1048C0000446FFF72CFF804641462046FFF740FF95
:1048D00094F81638002B40F0AB8094F8006804EB95
:1048E000461303F11002197C002943D1587900289E
:1048F00040D05170D879504D94F80F38EB561427AA
:1049000093FBF7F31844052205F020F82644012113
:1049100086F81B0894F8006804EB46130522187A01
:1049200094F81138EB5693FBF7F7384405F00EF87E
:10493000264494F8103886F85B0894F80068EA5624
:10494000A7190F2392FBF3F387F89B3804EB46106B
:10495000FFF744FE97F85B1897F81B380091024662
:104960003146204600F0A4FA94F8003804EB4313D3
:1049700001221A7425462746002694F8021894F856
:1049800001380B449E4253DC6B79002B48D02A7CC3
:10499000042A04D0062A31D0012A41D10CE094F82F
:1049A00000389E4240D101293AD12046FFF79EFEB1
:1049B000B8EB900F38D333E0A969EA6991422FDA56
:1049C0005FFA86FA032B08D8DFE803F0020205023B
:1049D0004FF0010901E04FF00009204651464A46D8
:1049E00000F0DDFB06232B742046514695F811B0EC
:1049F00000F0BCFB834513D9042310E0AB69002B06
:104A00000EDC2846FFF7EAFD97F85B1897F81B388D
:104A100000910246F1B2204600F04AFA01232B74BD
:104A2000013620350137A8E700232B746B74F7E7B4
:104A300003B0BDE8F08F00BF2CD7FF1F024B1B78DF
:104A40000BB1FFF73BBF704748D7FF1F044A054B28
:104A50001360054A1360054A136008F00FB800BFE1
:104A6000C891FF1F03200038C491FF1FC091FF1F92
:104A70002DE9F041134D044628680F4616461249A9
:104A80001D229846436828469847284607F084FC2C
:104A9000002384F80838042384F8DB38069BC4F824
:104AA000FC3884F8097884F8026884F80A8820467B
:104AB000FFF77DFE012384F8DC38079BC4F8043936
:104AC000BDE8F081DCD9FF1FD8700100F0B58DB0D2
:104AD00004460E4604A84149154607F026FD314616
:104AE000684607F058FD694604A807F0E0FD3C4918
:104AF00007F0E6FD2946074608A807F04CFD08A97F
:104B0000384607F0D4FD01463648FBF70AFD08A8F1
:104B100007F0CBFC684607F0C8FC04A807F0C5FC0A
:104B2000102384F802380423002084F80A3844F65D
:104B3000206284F8DB380523C4F8E82884F80108EB
:104B400084F8060884F8070884F8086884F8095887
:104B500084F80B3884F80C3884F80F3884F80D3852
:104B600084F80E3884F8103884F8113884F8123834
:104B700084F8133884F8143884F8153884F8160843
:104B800084F8170884F8180884F81A0840220134B9
:104B9000032161710121E1712172042118236172E5
:104BA000E172432104F8013C217300231021013AF2
:104BB00023706370A370E3702371A371A372637396
:104BC000A173C4F81330E37323746374C4F817300B
:104BD00004F12004DCD10DB0F0BD00BFF67001007F
:104BE000BF630100DCD9FF1F90F8162882F0010294
:104BF00010B5034680F81628EAB190F8022890F81C
:104C00000148014614440022A2420CDA93F800083D
:104C1000824201F1200106D0002001F8100C01F8B9
:104C20000F0C0132F0E7D3F8040993F80918BDE836
:104C30001040FFF795BC10BDC0F8FC18FFF7B7BDDA
:104C40002DE9F04103EB4117044694B0E2550D46BF
:104C500004A823491646984607F067FC294668468B
:104C600007F099FC694604A807F021FD1D4907F0EB
:104C700027FD3146054608A807F08DFC08A92846FF
:104C800007F015FD184907F01BFD414605460CA825
:104C900007F081FC0CA9284607F009FD134907F02D
:104CA0000FFDE15D054610A807F075FC10A9284628
:104CB00007F0FDFC01460E48FBF733FC10A807F097
:104CC000F4FB0CA807F0F1FB08A807F0EEFB684620
:104CD00007F0EBFB04A807F0E8FB14B0BDE8F08197
:104CE0001671010021710100197401001D7101008C
:104CF000DCD9FF1F30B5023BDBB20C2B98BF154847
:104D00009DF80C4094BF30F8133040F6FF7300203C
:104D1000904206DA03F001055B1043EAC523013037
:104D2000F6E70D200C22B1FBF2F502FB1512D2B210
:104D30004FF4006545FA02F29A4308D00CB10131F4
:104D400000E00139013810F0FF00C9B2EAD108468D
:104D500030BD00BF5871010002EB4112805C70470A
:104D600070B590B004460D4604A8304907F0DDFB4D
:104D70002946684607F00FFC694604A807F097FC2F
:104D80002B4907F09DFC0A220646B4F8E01808A853
:104D900007F014FC304608A907F089FC254907F004
:104DA0008FFC94F8E21806460CA807F0F4FB304696
:104DB0000CA907F07CFC204907F082FC01461F4843
:104DC000FBF7AFFB0CA807F070FB08A807F06DFB22
:104DD000684607F06AFB04A807F067FB94F8E2381E
:104DE00094F9DB6894F80228B4F8E01815FB03F096
:104DF00090FBF6F013FB02F393FBF6F3084490FBF1
:104E0000F3F503FB1505A4F8E0580023934204F1E1
:104E1000200408DA54F8080CAEB28E1B304444F873
:104E2000080C0133F2E710B070BD00BF2A71010019
:104E30003571010046710100B66C0100DCD9FF1F1D
:104E400038B590F80B388B4204460D4602D101214B
:104E5000FFF7CEFC94F80C38AB4208D1044B1B781A
:104E60002BB120460421BDE83840FFF779BF38BD9B
:104E700048D7FF1F08B54318490193F99B380844E8
:104E8000002B407A06DA18440121402204F05EFD2E
:104E9000C0B208BD08BD4318490193F89B380844C7
:104EA0005AB2807A002AC4BF5843C0B27047FFFF8D
:104EB0002DE9F04F17464A0100EB020889464E01E2
:104EC0004146825C044648788DB010448DF8190044
:104ED0008878C9788DF8182010440A448DF81B2072
:104EE00094F818289DF858C08DF81A001AB10023BC
:104EF00084F8183833E10122042518F80210FF293C
:104F000008BF05F1FF3502F1010208BFEDB2042A26
:104F1000F3D1284605EB850188420ADA06AAC5EBDB
:104F2000020E1EF800E00EF10C0E00F802E0013057
:104F3000F2E7BCF1000F02D00CFB05F5EDB2013B2E
:104F4000042B4BD8DFE803F0030D182B4000A31906
:104F50005B7CB3FBF5F205FB12330CAA52FA83F328
:104F60001AE0A3195B7CB3FBF5F205FB1233ED1AD3
:104F70000CAB53FA85F524E0A3195B7CB3FBF5F287
:104F800012F0010F05FB02F2C2EB030308BFC3EBF3
:104F90000503DBB20CAA134413F8185C20E0A31934
:104FA000691E5B7C93FBF1F2D0074BBFB3FBF5F2BC
:104FB00001FB123305FB1235C3EB0505EDB20CAB5B
:104FC0001D4415F8185C0BE02946002007F059FA3B
:104FD0000CAA52FA80F010F8185C01E09DF8185005
:104FE00094F8073853B1012194F80628009120461F
:104FF0002946FFF77FFEA319987401E0A3199D7459
:10500000584B94F80E289A5C9B462AB100207F21C9
:1050100007F037FAA319987494F81318DFF848A129
:10502000A3191AF90100042190FBF1F1987C0144C5
:105030009974D87A94F815381AF903300021184475
:10504000FF2204F083FC94F80D381BF80330C5B23E
:105050000BB187F0010798F80730002B33D194F893
:10506000143898F806001AF903300130012103EBD7
:105070004000402204F06AFC94F8DB385AB2002A5F
:10508000DABFC3F10201C9B201218005002A01FB88
:1050900000FCCCBFD9B20121A0194FEAC10E9CFB84
:1050A000FEF1002A8161DABFC3F10201C9B2012118
:1050B000002ACCBFDBB201238905A219DB0091FBDA
:1050C000F3F3D3612AE094F8DBA84FFA8AF3002BBC
:1050D000D8BFCAF1020A49462046D4BF5FFA8AFA0D
:1050E0004FF0010AFFF7C6FE4FEA8A5A00FB0AFB9F
:1050F00094F8DBA84FFA8AF3002B20464946CCBF30
:105100005FFA8AFA4FF0010AFFF7C5FEA3191AFBEE
:1051100000F09BFBF0F098614010D861A01900F1FD
:105120001006437B827C90F80EE0CDF800E008305A
:1051300094F80918C079019094F81A08039704901C
:105140000295D4F80409FFF707F898F80530022B08
:1051500018BF002784F81A787378013373700DB084
:10516000BDE8F08F3CD7FF1F2CD7FF1F70B5431849
:10517000054693F81B380C467BB100EB41139E7932
:10518000FFF789FE214616FB00F62846FFF772FE60
:1051900096FBF0F0C0F3870070BD184670BD10B5E7
:1051A00000EB4111134601F11002097C012904466C
:1051B00008D194F80918D0F804099278BDE8104095
:1051C000FFF7A0B910BDFFFF531A002BB8BF5B4219
:1051D000013380F802380A4B91421B7805D201EB6B
:1051E000031180F80118002304E002EB031280F899
:1051F0000128012380F80338012380F8183870470C
:1052000015D7FF1F044A054B1360054A1360054A72
:10521000136007F033BC00BFD491FF1F0320003898
:10522000D091FF1FCC91FF1F10B5044607F0D4FEAC
:105230002060204610BD10B5044607F0CDFE23685F
:10524000C01A10BD13B5194B1A680092009A02607B
:105250001B680193019B436004460830FFF7E4FF9D
:1052600004F11D0000F000FB04F11F0000F0E6FD5A
:1052700004F1200000F0E2FD0D4A1346114653F8F8
:10528000040B2063186860639068A06351F80C0FEA
:10529000496804F13C0303C352F8140F516804F148
:1052A000440303C3204602B010BD00BFD4D7FF1F84
:1052B0007271010013B504460C30FFF7B5FF04F11D
:1052C0002400FFF7B1FF04F12800FFF7ADFF144BF6
:1052D0001B680193019B236504F15400FFF7B2FFA3
:1052E00004F1A00004F0DEFB04F1F40000F02AFE5B
:1052F00004F24440FDF71AFC04F59260FBF7E6FB6C
:1053000004F2445000F012FB04F5B56000F00EFB0F
:1053100004F21C60FFF788FF204602B010BD00BFFA
:10532000D4D7FF1F2DE9F04F8DB004468A46894837
:105330008949DFF848921E4604F15407934604F564
:10534000B568FBF7F8F8169BC4F81836384641469E
:105350005246C4F810A6C4F81466FEF71DF8D9F832
:1053600000306425B3FBF5F38DE88800304600215A
:1053700010220423FFF77CFBD9F80030B3FBF5F3D0
:105380008DE8880006F60810012110220423FFF79B
:105390006FFBD9F8003006F59050B3FBF5F38DE8BC
:1053A00088001030022110220423FFF761FBD9F896
:1053B000003006F5D850B3FBF5F58DE8A0001830A5
:1053C00003211022042304F5926504F1A009FFF7DC
:1053D0004FFB43464846394604F244528DE860008C
:1053E000029404F0BBFB224604F1F400314600F0C5
:1053F000CDFD04F244403146FDF75EFF20463946BC
:1054000032465346CDF800B005F06CFE169B009373
:105410002846524B39463246FBF778FB504B1B78F7
:10542000002B00F084804F494A48FBF784F8284657
:10543000FDF757FB2846FDF7A9F92846FCF75AFD6A
:105440000027494908A807F070F80A22394604A83D
:1054500007F0B4F804A908A807F029F9434907F0B0
:105460002FF901463B48FBF75CF804A807F01DF84C
:1054700008A807F01AF84FF000085FFA87FA40F61C
:10548000081000FB08605FFA88F2514608F1010835
:10549000FFF71CFBB8F1040FEFD12E483449FBF79E
:1054A0004AF84FF000085FFA88F12846524608F1A2
:1054B0000108FBF7B1FEB8F1040FF4D125482D49DE
:1054C000FBF739F894F890341BB12846FCF7B0FD8F
:1054D000F8E7294908A807F028F80A22394604A85D
:1054E00007F06CF804A908A807F0E1F81F4907F0D5
:1054F000E7F801461748FBF714F804A806F0D5FFB3
:1055000008A806F0D2FF01374FF4FA7007F082FDC9
:10551000102F96D194F890341BB12846FCF788FDE3
:10552000F8E7642007F076FD2846FDF73FFA2846A5
:10553000FCF7E0FC0F2228460021FCF711FB28466F
:10554000FBF764FB4846012104F010FC0DB0BDE8F8
:10555000F08F00BFDCD9FF1F8E7101006DDBFF1FD4
:105560005DD7FF1FAA710100F871010025720100CB
:105570004C7201006172010075720100808EFF1F84
:1055800030B504468BB007F027FD94F82D3001901C
:105590002BB104F2444048F2A061FDF7CFFD01A811
:1055A000FFF749FE42F21073984219D9414906A803
:1055B00006F0BBFF01A8FFF73EFE0A22014602A843
:1055C00007F022F802A906A807F071F801463A4848
:1055D000FAF7A7FF02A806F068FF06A806F065FF25
:1055E00007F0FAFC44F62061019004F1A00005F0F8
:1055F00089FC01A8FFF71FFE42F21073984219D9E7
:105600002E4906A806F091FF01A8FFF714FE0A2212
:10561000014602A806F0F8FF02A906A807F047F81D
:1056200001462548FAF77DFF02A806F03EFF06A8CE
:1056300006F03BFF07F0D0FC019004F21C60FFF77E
:10564000FAFD42F21075A8422CD994F890344BB36D
:1056500004F59260FCF7ECFC07F0BEFCC4F81C06F5
:1056600001A8FFF7E8FDA84219D9154906A806F0D8
:105670005CFF01A8FFF7DFFD0A22014602A806F041
:10568000C3FF02A906A807F012F801460A48FAF774
:1056900048FF02A806F009FF06A806F006FF07F07B
:1056A0009BFC019004F1F40044F6206103F0EAFA57
:1056B0000BB030BDA1720100DCD9FF1FDA7201000E
:1056C0001673010005F05CBD05F0E2BE0346D0F89C
:1056D0000C06D3F8101606F0D6B9FFFF064B10B52E
:1056E000064C1C60064B1C60064B1C6007F0C6F99C
:1056F000054B1C6010BD00BFE491FF1F0320003864
:10570000DC91FF1FD891FF1FE091FF1F154B02781E
:10571000F0B51C6844F480641C604FF00044DC6207
:105720005A630C460246013C0E4D05D05678EF6A8E
:105730000C4B002FFBDA04E00139EB6A002BFCDA9A
:105740000BE09D6B1F6847F480671F604FF00047B8
:10575000DF625E6302F8015BE5E7024B9B6B43543B
:10576000F0BD00BF00C00240054BDA6A12F0F00F36
:1057700018BF9B6B4FF2F0031340002BF4D170471E
:1057800000C0024010B5184B1A7802B372B61B78ED
:10579000D90707D5154A1649146809682140154CE0
:1057A000216011609A0707D5134A114914684968A6
:1057B0002140104C616011605B0707D50F4B0C4A0C
:1057C000196892680A400B498A601A6062B60C4BED
:1057D000DA68824207D00B4A1A60D8600A4A40F061
:1057E000804018611A6010BD6CDBFF1F80E100E093
:1057F00054DBFF1F60DBFF1F84E100E088E100E075
:1058000000C0024001401F0000001F80054B4FF008
:105810000042DA625863DA6A002AFCDA014B986BBC
:10582000C0B2704700C002400A4B1B788BB1D90749
:1058300003D5094A1168094A11609A0703D5064A37
:105840005168074A11605B0703D5034B9A68054B03
:105850001A6070476CDBFF1F60DBFF1F00E100E098
:1058600004E100E008E100E07047FFFF10B500230D
:105870000446017043700846012107F02BFB227893
:10588000064B53F83230012283F88020044B4FF04E
:1058900038421A60BDE810400AF0D0BC34D3010091
:1058A000E891FF1F2DE9F341174604468846FFF7AC
:1058B0005BFF114B114E1868FFF764FF23788DF8DA
:1058C000067056F83330012583F8005101A83B0AD1
:1058D000032108F130088DF805308DF80480FFF7BA
:1058E00015FF237856F8333083F88050FFF79CFF7C
:1058F00002B0BDE8F08100BFE891FF1F34D3010082
:10590000014B024A1A607047E891FF1F03200038DC
:10591000054BDA6A12F0F00F18BF9B6B4FF2F003E1
:105920001340002BF4D1704700C0024010B504466C
:1059300007F052FBA065204610BDFFFF2DE9F04F98
:1059400081469FB0900890469A468B4609F0F6FD36
:105950000EF00AFD044640460D4609F0EFFD002218
:1059600006460F464E4B2046294609F04DFE0B4693
:1059700002463946304609F093FC0AF007F92946F9
:10598000C6B220460AF002F9C3B2BAF1000F05D040
:10599000BAF1010F0CBF0124032400E0022409EB3B
:1059A0000B02002109EB030582F8108082F8301009
:1059B00003277200974095F85010FF43FFB239401B
:1059C00004FA02F20A4385F8502006A835490193EB
:1059D00006F0ABFD019B02A8194606F0DCFD02A90A
:1059E00006A806F064FE304906F06AFE21468046AD
:1059F0000AA806F0D0FD0AA9404606F058FE2B4939
:105A000006F05EFE1022804695F850100EA806F0B3
:105A1000D5FD0EA9404606F04AFE254906F050FE87
:105A20003146054612A806F0B6FD12A9284606F032
:105A30003EFE204906F044FE02220546394616A8DD
:105A400006F0BCFD16A9284606F031FE1A4906F0FC
:105A500037FE1022054604FA06F11AA806F0AEFD3C
:105A60001AA9284606F023FE01461448FAF759FD04
:105A70001AA806F01AFD16A806F017FD12A806F0DF
:105A800014FD0EA806F011FD0AA806F00EFD02A8EE
:105A900006F00BFD06A806F008FD1FB0BDE8F08F6C
:105AA0000000104051730100657301007073010024
:105AB00079730100837301008E730100DCD9FF1F2D
:105AC0002DE9F0410F460446FFF722FF194B1A4E0D
:105AD0001868FFF757FE94F8603056F83330012508
