:1000000000800020BD0100005DEC000029EC000034
:1000100029EC000029EC000029EC000029EC00008C
:1000200029EC000029EC000029EC00005DEC000048
:100030005DEC000029EC00005DEC000019EC000014
:100040005DEC00005DEC00005DEC00005DEC00008C
:100050005DEC00005DEC00005DEC00005DEC00007C
:100060005DEC00005DEC00005DEC00005DEC00006C
:100070005DEC00005DEC00005DEC00005DEC00005C
:100080005DEC00005DEC00005DEC00005DEC00004C
:100090005DEC00005DEC00005DEC00005DEC00003C
:1000A0005DEC00005DEC00005DEC00005DEC00002C
:1000B0005DEC00005DEC00005DEC00005DEC00001C
:1000C0005DEC00005DEC00005DEC00005DEC00000C
:1000D0005DEC00005DEC00005DEC00005DEC0000FC
:1000E0005DEC00005DEC00005DEC00005DEC0000EC
:1000F0005DEC0000DDF500005DEC0000A5100100E6
:100100005DEC0000DDFA00005DEC00005DEC00003D
:100110005DEC00005DEC00005DEC00005DEC0000BB
:100120005DEC00005DEC00005DEC00005DEC0000AB
:100130005DEC00005DEC00005DEC00005DEC00009B
:100140005DEC00005DEC00005DEC00005DEC00008B
:1001500091E40000A9E40000C1E40000D9E400003B
:100160005DEC000041FD00005DEC00005DEC000076
:100170005DEC00005DEC00005DEC00005DEC00005B
:100180005DEC00005DEC00005DEC00005DEC00004B
:100190005DEC00005DEC00005DEC00005DEC00003B
:1001A0005DEC00005DEC00005DEC00005DEC00002B
:1001B0005DEC00005DEC00005DEC0000564B4CF285
:1001C000205210B51A804DF628121A8000BF00BFC9
:1001D0000EF048FD514B4FF010621A60504A9A6081
:1001E000504ADA60A3F53043203B1A6812F480725B
:1001F00004D14D490A604FF4A8521A604B4B1A784B
:10020000110703D51A7842F008021A70484B2A22C7
:100210001A700023474A48499818884204D247492F
:10022000595899500433F5E7454A464B9A424FF0E6
:10023000000302D242F8043BF7E74349434A5958C6
:1002400099500433B3F5DE7FF7D1414B802103F899
:10025000011B40498B42F9D13F4B1A603F4B8A2228
:100260001A70A3F5805324225A70A0221A709A792A
:100270009207FCD59A79D406FCD4394B9A7902F0CE
:100280000C02082AF9D103221A7146225A719A796E
:100290009006FCD5324B9A795106FBD5314A4FF086
:1002A000827111600921516020221A702C4B9B79B8
:1002B00003F00C030C2BF9D12B4B2C4A1A602C4B5E
:1002C0002C4A1A6000225A60072243F8042C2A4A5A
:1002D000C3F80C2D62B60EF051FE134B1B68DA0703
:1002E00005D526480EF064FD254B264A1A60264B9C
:1002F0001B785B0609D5224C224A2368934204D11D
:100300001E480EF055FD0023236017F077F80EF01D
:10031000AFFC0EF0BDFBFEE70E2005403080044030
:10032000823F04000100002B14D0034002D007409C
:1003300000E00740708CFF1F8490FF1FC81C020064
:100340008490FF1F84C3FF1F000000000082FF1F76
:1003500000E400E05FE400E008ED00E0005006404B
:10036000004006404480044004800440C010050062
:1003700014E000E0BFD40100000020209C3AD459D2
:100380001CE00340A5C3945A00F00740FFFFFFFFA5
:10039000FFFFFFFFFFFFFFFFFFFFFFFFFFFFFFFF6D
:1003A000FFFFFFFFFFFFFFFFFFFFFFFFFFFFFFFF5D
:1003B000FFFFFFFFFFFFFFFFFFFFFFFFFFFFFFFF4D
:1003C000FFFFFFFFFFFFFFFFFFFFFFFFFFFFFFFF3D
:1003D000FFFFFFFFFFFFFFFFFFFFFFFFFFFFFFFF2D
:1003E000FFFFFFFFFFFFFFFFFFFFFFFFFFFFFFFF1D
:1003F000FFFFFFFFFFFFFFFFFFFFFFFFFFFFFFFF0D
:10040000FFFFFFFFFFFFFFFFFFFFFFFFDEF9FFFF23
:1004100010B5054C237833B9044B13B10448AFF33E
:1004200000800123237010BD8490FF1F0000000096
:10043000C81C020008B5064B1BB106480649AFF3BD
:1004400000800648036813B1054B03B1984708BD07
:1004500000000000C81C02008890FF1F8490FF1F4E
:10046000000000000369C268934210B509D2826897
:100470005C1C0461D154826803690021D1540120BD
:1004800010BD002010BD44F2040210B58358CC18F2
:10049000B4F5804F07D8033121F00301194481508E
:1004A0001844043010BD002010BD18B111B101393D
:1004B0000068FAE7704738B504460D4634B128465F
:1004C000616817F0D1F808B12468F7E7204638BD15
:1004D00038B5044608460D4617F0F3F8236802467F
:1004E0005B6820462946984738BD38B504460EF06B
:1004F00010F8054620460EF02DF8284438BD38B5D2
:100500000446FFF7E5FF054620460EF023F8284491
:1005100038BD38B58368144642680546E0189042F5
:1005200002D993420AD2D41A28682246184411F0FC
:1005300045F9AB682344AB60204638BD002038BD88
:1005400010B504460068FFF7C3FF63681844606095
:1005500010BD30B587B000228DF815200B4605AAD6
:100560000A25B3FBF5F405FB14333033114602F8CA
:1005700001392346002CF3D1FFF7E2FF07B030BD6D
:1005800010B50446006803681B6898476368184400
:10059000606010BD70B504460D4619B91249FFF7E9
:1005A000CFFF70BD2221FFF7EBFF013D15F8012FB2
:1005B0007AB10E4B13F8026C86B1023313F8031CA8
:1005C0009142F7D120465C21FFF7DAFF2046314601
:1005D00006E020462221FFF7D3FF70BD20461146DA
:1005E000FFF7CEFFE2E700BF607F0100677F0100F9
:1005F00008B503280AD8DFE800F0021105074FF01C
:100600007E5008BD064808BD064808BD0438C0B283
:10061000FFF7EEFF044916F0E9F908BD034808BDED
:100620000AD7233C6F12833A17B7D138CDCCCC3DD3
:100630002DE9F041054608460C46174614F0A2FB8A
:1006400010B92846494911E02046002116F06CFBFC
:1006500028B128462D21FFF793FF04F100442046DE
:1006600014F090FB012805D141492846FFF768FFA7
:10067000BDE8F08120463F4916F074FB20B92046C2
:100680003D4916F051FB00B300262046002116F02C
:1006900041FB68B920464FF07E5116F045FB38B15A
:1006A0002046364916F0A2F9013EB6B20446ECE700
:1006B0002046324916F056FB40B120462F4916F02D
:1006C00049FA0136B6B20446F2E706463846FFF765
:1006D0008FFF4FF07C5116F089F90146204616F045
:1006E0007DF8044616F06EFB804616F027F90146A9
:1006F000204616F071F8414604462846FFF729FFC8
:100700001FB128462E21FFF73BFFCFB11B492046E2
:1007100016F06CF9044616F055FB5FFA80F8404677
:1007200016F00CF90146204616F056F808F1300193
:100730000446C9B22846013FFFF722FFFFB2E4E7B3
:1007400034B2002C06DA28460D49FFF7F9FE284698
:10075000614206E03EB128466521FFF711FF2846B9
:100760002146FFF7F6FEBDE8F08100BF747F01006F
:10077000787F010000007A446F12833A0000204124
:10078000817F0100024608B5084619B10B68114681
:100790001B68984708BDFFFF38B5084C236813F065
:1007A000010509D120460EF07BFA28B1044B204602
:1007B0001D605D600EF07AFA014838BDB490FF1FED
:1007C000A090FF1F08B54068FFF775FE20B1037ABF
:1007D000062B01D1C06808BDFFF7DEFF08BDFFFF93
:1007E00038B5084C236813F0010509D120460EF0F6
:1007F00057FA28B1044B20461D605D600EF056FA92
:10080000014838BDB090FF1FA890FF1F03780D2B43
:1008100009D003D8093B012B23D804E0202B02D0B8
:100820002F2B02D070470130F0E743782A2B02D0FB
:100830002F2B0DD07047831C1A7818460133002ADD
:10084000E4D02A2AF8D11A782F2AF5D10230DDE730
:10085000831C184613F8012B002AD7D00A2AF8D196
:10086000D4E7704738B5044600680D46FFF7CEFF61
:100870000378AB4205D10130FFF7C8FF20600120AB
:1008800038BD002038BDFFFF70B54268846813781A
:10089000272B01D0222B27D15178551C51B39942D7
:1008A00001D1951C26E05C290BD1951C9178154A45
:1008B00016782EB18E4201D1517801E00232F7E76D
:1008C000C1B104F8011B2A46E6E723F020014139B3
:1008D000192905D92B2B03D0A3F12D01012909D802
:1008E00004F8013B12F8013FA3F130010929154634
:1008F000F6D9EAE7002304F8013B83684560846089
:10090000184670BD697F0100027838B505460C466F
:10091000072A3CD8DFE802F041241F302B27041BB4
:10092000456808465B21FFF72BFE6D682DB1281D39
:100930002146FFF7E9FF2D6825B920465D21FFF725
:100940001FFE38BD20462C21FFF71AFEEFE7406856
:1009500000F028F838BD08466968FFF71BFE38BD6F
:100960000846696810E008462D21FFF709FE204679
:100970006968FFF7EEFD38BD4168084B084A20461C
:1009800000290CBF11461946FFF7DAFD38BD083AB9
:100990000846D2B26968FFF74BFE38BD847F01007C
:1009A000897F010070B505460C4608467B21FFF79C
:1009B000E7FD6D687DB12E46204656F8041FFFF70F
:1009C000E9FD20463A21FFF7DBFD301D2146FFF708
:1009D0009BFF2D6825B920467D21FFF7D1FD70BD15
:1009E00020462C21FFF7CCFDE5E710B50446214653
:1009F0000820FFF7C7FE18B100230460436010BD54
:100A0000FFF7CAFE10BD10B5044621460820FFF7C7
:100A1000B9FE18B100230460436010BDFFF7E0FE8B
:100A200010BD70B504460EF075FAE0640EF072FA6F
:100A300025460023206545F85C3F4FF48A700EF090
:100A400057F9294606460DF061FB266704F1780048
:100A500013F02AF804F1980013F026F8204670BD30
:100A6000002138B50A46044601F058FC0023626DA7
:100A70005D1C02EB43032046B3F89620690001F0A9
:100A80004DFC042D2B46F2D10025636D03EB45038D
:100A9000691D20464900B3F89E20013501F03EFC57
:100AA000042DF2D10025636D03EB450305F1090127
:100AB00020464900B3F8A620013501F02FFC042D93
:100AC000F1D10025636D03EB450305F10D012046CF
:100AD0004900B3F87620013501F020FC082DF1D152
:100AE0000025636D03EB450305F115012046490020
:100AF000B3F88620013501F011FC082DF1D102492F
:100B00000248FFF7FCFC38BD8F7F010010BFFF1FBC
:100B1000F8B50021044601F013FC4FF6FF7398422C
:100B200018BF002519D132493248FFF7E8FC304997
:100B30003048FFF7E4FC2E492E48FFF7E0FC2C4933
:100B40002C48FFF7DCFC2A492A48FFF7D8FC284943
:100B50002848FFF7D4FC0120F8BD6E1C676D2046C5
:100B6000710001F0EDFB07EB4505042EA5F896009A
:100B70003546F2D10025691D666D2046490001F019
:100B8000DFFB06EB45060135042DA6F89E00F2D1E9
:100B9000002505F10901666D2046490001F0D0FBF2
:100BA00006EB45060135042DA6F8A600F1D1002577
:100BB00005F10D01666D2046490001F0C1FB06EB11
:100BC00045060135082DA6F87600F1D1002505F17E
:100BD0001501666D2046490001F0B2FB06EB4506A3
:100BE0000135082DA6F88600F1D10020F8BD00BF20
:100BF000B97F010010BFFF1F0803704710B50446FE
:100C00000C202168FFF7BEFD10B1002303600371C3
:100C100063682BB11A680AB11346FBE7186010BD70
:100C2000606010BD10B50C46FFF7E8FF20B12378D7
:100C3000836004220271012010BD10B50C46FFF73D
:100C4000DDFF48B194F90030002BAEBF04225B42B7
:100C5000052202718360012010BD10B504461020EA
:100C60002168FFF78FFD10B10023036003726368F2
:100C70002BB11A680AB11346FBE7186010BD60601B
:100C800010BD2DE9F3410446074654F8040BFFF765
:100C9000BAFE7B2106462046FFF7E4FD002833D04C
:100CA00020467D21FFF7DEFD88BB3846FFF7ECFDCF
:100CB000804648B320463A21FFF7D4FD20B302AD69
:100CC00000233846694605F8083D00F024F8D8B1FD
:100CD00070684146FFF7EFFB28B93046FFF7BDFFCC
:100CE00090B1C0F8048000F1080395E8030083E8A0
:100CF000030020467D21FFF7B5FD40B920462C2199
:100D0000FFF7B0FD0028D0D1FFF76AFD00E03046C4
:100D100002B0BDE8F08170B50446007B0D460028A6
:100D200034D0013820736068FFF770FD606003788D
:100D30005B2B02D07B2B07D012E0204600F027F877
:100D400003685BB1062305E02046FFF79AFF0368BE
:100D500023B1072368602B70012014E0184612E0CD
:100D6000272B03D0223B5E425E4100E00126204655
:100D7000FFF78AFD38B1012216B102232B7000E083
:100D80002A7068601046237B0133237370BDF7B56A
:100D90000446074654F8040BFFF727FE5B2106467E
:100DA0002046FFF75FFD08B320465D21FFF75AFD9F
:100DB000F8B902AD00233846694605F8083DFFF74B
:100DC000AAFF98B13046FFF719FF78B1031D95E8E7
:100DD000030083E8030020465D21FFF743FD40B98F
:100DE00020462C21FFF73EFD0028E2D1FFF7D4FC7E
:100DF00000E0304603B0F0BD70B5054640680E46D1
:100E00001446FFF758FB20B92846FFF726FF50B1DC
:100E100046602368002B08BF00240CBF0023062374
:100E20000372C460012070BD2DE9F04FADF5804D17
:100E30008FB004468DF80E308D4B0C930CA844F205
:100E400004038DF80F2000220291C250FFF7DBFD52
:100E50008146006818B9FFF79FFC054607E0FFF7D9
:100E6000C4FD0546834948462A46FFF7C5FF9DF85D
:100E70000F20A36D40F60C0606FB023101F205714E
:100E80002846FFF7CFFE9DF80F20A36D06FB023129
:100E900001F211712846FFF7C5FE9DF80F20A36DE2
:100EA00006FB023101F20C712846FFF7BBFE9DF8EC
:100EB0000F20A36D06FB023101F20D712846FFF7EA
:100EC000B1FE0DF10F012846FFF7ACFE0DF10E014A
:100ED0002846FFF7A7FE9DF80F20A36D06FB023101
:100EE00001F2E4712846FFF7A8FE9DF80F20A36DDC
:100EF00006FB023101F212712846FFF79EFE9DF8B3
:100F00000F20A36D06FB023101F213712846FFF793
:100F100094FE9DF80F20A36D06FB023101F21471BF
:100F20002846FFF78AFE9DF80F20A36D06FB0231CD
:100F300001F215712846FFF780FE9DF80F20A36D82
:100F400006FB023101F216712846FFF76BFE9DF891
:100F50000F20A36D06FB023101F217712846FFF73F
:100F600061FE9DF80F20A36D06FB023101F5E361E0
:100F70002846FFF757FE9DF80F20A36D06FB0231B0
:100F800001F219712846FFF74DFE9DF80F20A36D61
:100F900006FB023101F21A712846FFF743FE9DF865
:100FA0000F20A36D06FB023101F21B712846FFF7EB
:100FB00039FE9DF80F20A36D06FB023101F21C7172
:100FC0002846FFF72FFE9DF80F20A36D06FB023188
:100FD00001F204712846FFF725FE9DF80F20A36D4E
:100FE00006FB023101F207712846FFF71BFE9DF850
:100FF0000F20A36D06FB023101F5E1612846FFF7E2
:1010000011FE9DF80F20A36D06FB023101F209715C
:101010002846FFF707FE9DF80F20A36D06FB02315F
:1010200001F20A712846FFF7FDFD9DF80F20A36D20
:1010300006FB0231284601F20B71FFF7F3FDD9F8E8
:10104000000018B9FFF7A8FB834607E0FFF7CDFCC7
:101050008346094948465A46FFF7CEFE4FF0000A3C
:10106000DBF8000050B9FFF797FB054619E000BF19
:10107000587F0100E47F0100E6A50100FFF7B5FC01
:1010800005465846FFF7BAFD58B12B68002B019B67
:1010900018BF2B460193019981600CBF00230623E2
:1010A00003712846FFF7AAFD18B104230371C0F8A5
:1010B00008A09DF80F20A36D40F60C061C2707FB27
:1010C0000AF706FB023139442846FFF7ABFD9DF8CD
:1010D0000F20A36D791C06FB023319442846FFF745
:1010E000A1FD9DF80F20A36DB91C06FB0233194426
:1010F0002846FFF797FD9DF80F20A36DF91C06FB0E
:10110000023319442846FFF78DFD9DF80F10A36D9B
:1011100006FB0133D91904312846FFF783FD9DF8FA
:101120000F10A36D07F1080806FB013303EB08015C
:1011300004312846FFF781FD9DF80F10A36D06FBD3
:101140000133D91905312846FFF76CFD9DF80F10C2
:10115000A36D06FB0133D91906312846FFF762FD5E
:101160009DF80F10A36D06FB0133D91907312846EE
:10117000FFF758FD9DF80F20A36D06FB0231414497
:101180002846FFF74FFD9DF80F10A36D06FB0133B6
:1011900003EB080101312846FFF744FD9DF80F10CD
:1011A000A36D06FB013303EB080102312846FFF76C
:1011B00039FD9DF80F10A36D06FB013303EB080109
:1011C00005312846FFF72EFD9DF80F10A36D06FB95
:1011D000013303EB080106312846FFF723FD9DF894
:1011E0000F20A36D07F1100106FB023319442846B6
:1011F000FFF718FD9DF80F20A36D06FB023606EBE6
:101200000801284603310AF1010AFFF70BFDBAF184
:10121000400F7FF425AF07AB0B4907910299996006
:1012200040F6FF71D9600299059300220A701A7185
:10123000484605A91A610692FFF7B4FB0DF5804DEB
:101240000FB0BDE8F08F00BF487F01002DE9F047E7
:1012500088B004468A46914600F05FFD0546EEB22E
:10126000A3199B791BB1204600F0DAFDF7E70125B1
:10127000E5700DF04FFE2065384816F007FA294654
:1012800007464FF4805016F099F8804641462046B4
:1012900052464B46FFF7C8FD10F03CFD0028FBD03E
:1012A00004A8394610F052FE04AA04F15C030DF1C3
:1012B000180E154603CD7545186059602A4603F18E
:1012C0000803F6D128681860AA889A80E06D50BBA0
:1012D00023492448FFF713F9234904A80DF003FA22
:1012E000394668460DF0FFF9694604A80DF0BDFACD
:1012F00001461C48FFF7F9F868460DF0B4F904A858
:101300000DF0B1F917481649FFF7F9F8404616F005
:10131000A3F8384616F0A0F80023E37001232370E9
:1013200008B0BDE8F0873303256E636603F580528D
:10133000AA4210D9AB4208D2ED1A18442A464146B7
:1013400010F028FB636E1D4465662046314601227D
:1013500000F0E0FCDAE74FF48055EEE7ED7F0100A6
:10136000F67F010010BFFF1F058001002DE9F0414D
:1013700004468CB0564816F089F90746204600F01E
:1013800051FF204600F0D6FC524904A80DF0ABF9FD
:10139000394668460DF0A7F9694604A80DF065FACC
:1013A0004D490DF06BFA0A2205464FF4802108A83A
:1013B0000DF0E2F9284608A90DF057FA0146474812
:1013C000FFF793F808A80DF04EF968460DF04BF9B9
:1013D00004A80DF048F910F083FD4FF48021024677
:1013E000384610F03FFE00253D4908A80DF07BF976
:1013F0000A22294604A80DF0BFF904A908A80DF097
:1014000034FA38490DF03AFA01463448FFF76DF8DE
:1014100004A80DF028F908A80DF025F90026A36D01
:101420005FFA85F840F60C0000FB0630F2B2414648
:10143000013603F031F8042EF1D128482A49FFF78C
:101440005EF80026F1B2204642460136FFF7FEFE66
:10145000042EF7D121482549FFF751F823781BB115
:10146000204600F0DDFCF9E7214908A80DF03BF922
:101470000A22294604A80DF07FF904A908A80DF056
:10148000F4F918490DF0FAF901461448FFF72DF860
:1014900004A80DF0E8F808A80DF0E5F801354FF4C0
:1014A000FA700DF055FD102D9ED123781BB120460A
:1014B00000F0B6FCF9E764200DF04AFD384615F05F
:1014C000CBFF0C490548FFF71AF80CB0BDE8F081D6
:1014D00020800100288001003D80010010BFFF1F17
:1014E000458001007880010096800100AB800100FA
:1014F000BF800100EB80010038B50C4905460C485F
:10150000FEF7FDFF0B4816F0C1F8044610F09EFDF3
:1015100030B907480849FEF7F2FF2846FFF726FFD3
:101520002046BDE8384015F097BF00BF0E8101008E
:1015300010BFFF1F2080010025810100F8B504467F
:101540000D46134813491F461646FEF7D8FF069B63
:101550006367079BA564A665E7666365162010F0C0
:101560004BFC18B90A480C49FEF7C9FF0023637009
:10157000A370E370E21801330021402B9171F9D17F
:101580002046FFF7B9FF05490148FEF7B8FFF8BD4F
:1015900010BFFF1F45810100738101009981010087
:1015A00070B5054616460024064B1B782341DB0721
:1015B00004D52846E1B2325DFFF748FE0134042C21
:1015C000F2D170BDD08DFF1F10B54068FEF76DFFE2
:1015D00000B30379052B13D8DFE803F016050503E4
:1015E0000303806815E0846884B10B48214616F037
:1015F0003BF868B1204600210A2216F085F908E080
:10160000806815F0DFFB04E0002002E0204600E0E7
:101610000120C0B210BD00BF847F010010B540683A
:10162000FEF743FF18B30379052B16D8DFE803F064
:10163000190808030305806818E08068404215E037
:10164000846884B10B48214616F00EF868B1204634
:1016500000210A2216F0D2F808E0806815F08CFB11
:1016600004E0002002E0204600E00120C0B240B2C9
:1016700010BD00BF847F010008B54068FEF715FF6C
:1016800020B10379062B01D1806808BDFFF784F8EB
:1016900008BDFFFF2DE9F04FADF5804D99B0B74B78
:1016A000169318AF8A4644F2040316A94FF00008B7
:1016B00047F8181D41F80380B14BBA60424518BF86
:1016C000134605464FF00A0938467B6087F80C90B0
:1016D000FFF7D7FA40F60C04AB6DAA4904FB0AF4F5
:1016E000064603EB040BFFF76DF84146FFF76CFF6E
:1016F0008BF80507AB6DA349304603EB0408FFF7F1
:1017000061F80121FFF760FF88F81107AB6D9D4973
:10171000304603EB0408FFF755F80221FFF754FFAA
:1017200088F80C07AB6D9749304603EB0408FFF7C8
:1017300049F80321FFF748FF88F80D07AB6D914981
:10174000304603EB0408FFF73DF80421FFF73CFFA8
:1017500088F81007AB6D8B49304603EB0408FFF7A0
:1017600031F80521FFF730FF88F80F07AB6D854989
:10177000304603EB0408FFF725F80621FFF74EFF7C
:1017800088F8E407AB6D7F49304603EB0408FFF7A8
:1017900019F80721FFF742FF88F81207AB6D794966
:1017A000304603EB0408FFF70DF80821FFF736FF7A
:1017B00088F81307AB6D7349304603EB0408FFF755
:1017C00001F80921FFF72AFF88F81407AB6D6D496E
:1017D000304603EB0408FEF7F5FF4946FFF71EFF0E
:1017E00088F81507AB6D6749304603EB0408FEF730
:1017F000E9FF0B21FFF7E8FE88F81607AB6D61499A
:10180000304603EB0408FEF7DDFF0C21FFF7DCFE9A
:1018100088F81707AB6D5B49304603EB0408FEF709
:10182000D1FF0D21FFF7D0FE88F81807AB6D5549A1
:10183000304603EB0408FEF7C5FF0E21FFF7C4FE98
:1018400088F81907AB6D4F49304603EB0408FEF7E3
:10185000B9FF0F21FFF7B8FE88F81A07AB6D4949A9
:10186000304603EB0408FEF7ADFF1021FFF7ACFE96
:1018700088F81B07AB6D4349304603EB0408FEF7BD
:10188000A1FF1121FFF7A0FE88F81C07AB6D3D49B1
:10189000304603EB0408FEF795FF1221FFF794FE94
:1018A00088F80407AB6D3749304603EB0408FEF7B0
:1018B00089FF1321FFF788FE88F80707AB6D3149D0
:1018C000304603EB0408FEF77DFF1421FFF77CFE92
:1018D00088F80807AB6D2B49304603EB0408FEF788
:1018E00071FF1521FFF770FE88F80907AB6D2549D8
:1018F000304603EB0408FEF765FF1621FFF764FE90
:1019000088F80A07AB6D1F49304603EB0408FEF761
:1019100059FF1721FFF758FE1B4988F80B0730467F
:10192000FEF750FFAB6D2344804693F8053713BB99
:101930004FF00309154938460CF0D5FE51460EA864
:101940000CF007FF0EA938460CF08FFF10490CF081
:1019500095FF01460F48FEF7C8FD0EA80CF083FE68
:1019600038460CF080FEB9F10109E3D1AB6D234498
:10197000102283F8052700270EE000BF587F0100E2
:101980003F850100E47F0100E6A50100D48101004C
:10199000DD81010010BFFF1F39464046FFF76CFE96
:1019A0000121FFF711FE394603904046FFF764FE20
:1019B0000221FFF709FE394604904046FFF75CFE1E
:1019C0000321FFF701FE394605904046FFF754FE1C
:1019D0000421FFF7F9FD394606904046FFF74CFE1B
:1019E0000521FFF7F1FD394607904046FFF744FE19
:1019F0000621FFF713FE394608904046FFF73CFEEC
:101A00000721FFF7E1FD394609904046FFF734FE14
:101A10000821FFF7D9FD39460A904046FFF72CFE12
:101A20000921FFF7D1FD39460B904046FFF724FE10
:101A30000A21FFF7C9FD39460C904046FFF71CFE0E
:101A40000B21FFF7C1FD39460D904046FFF714FE0C
:101A50000C21FFF7B9FD394684464046CDF808C051
:101A6000FFF70AFE0D21FFF7AFFD394683464046DA
:101A7000FFF702FE0E21FFF7A7FD394682464046DA
:101A8000FFF7FAFD0F21FFF79FFD394681464046DB
:101A9000FFF7F2FD1021FFF797FD39460090404611
:101AA000FFF7EAFD0021FFF78FFDA96D039A1C23C4
:101AB000214458430B180A54049A5A70059A9A7094
:101AC000069ADA70079A1A71099A5A710A9A9A71E3
:101AD0000B9ADA710C9A1A720D9A5A720137009A9F
:101AE000DDF808C0DA72402F089A83F80AC01A732A
:101AF00083F80DB083F80EA083F810907FF44CAFFC
:101B00003068003018BF01200DF5804D19B0BDE8D8
:101B1000F08F00BF2DE9F047044688B054480F46C7
:101B2000914615F0B3FD054610F0F4F820B951497F
:101B30005148FEF7E4FCF7E7284610F087FAC8B1F1
:101B400004A8294610F002FA04F15C0304AA0DF17E
:101B5000180A9846164603CE564518605960324614
:101B600003F10803F6D130681860B2889A80E36DFB
:101B70002BB95DE0284615F06FFC012075E04FF4AD
:101B8000805015F061FC394606464A46204600F072
:101B9000C4F8C0B20003606631464FF4805240463C
:101BA000FEF7B7FC204639463246FFF773FD0028A2
:101BB00036D1304615F050FC04A8294610F0C6F97D
:101BC00004AA43469646BEE80300D645186059600D
:101BD000724603F10803F5D11068186092889A8064
:101BE00026492548FEF78BFC39464A46204600F038
:101BF00094F8C0B20003606631464FF4805240460C
:101C0000FEF787FC204639463246FFF743FD38B9D8
:101C100031461948FEF773FC17481949FEF76FFC67
:101C2000304615F019FC284615F016FC00201CE083
:101C3000144904A80CF057FD294668460CF053FDE2
:101C4000694604A80CF011FE0F490CF017FE01467E
:101C50000948FEF74AFC68460CF005FD04A80CF0A4
:101C600002FD284615F0F8FB022008B0BDE8F08719
:101C700020800100F781010010BFFF1F0A820100D0
:101C800075820100E5820100228301002DE9F04107
:101C900006460D469046002448FA04F3DB0710D5AB
:101CA000E7B2304639462A46FFF734FF012808D10B
:101CB000B36D40F60C0000FB043029463A4602F0B2
:101CC000EBFB0134042CE7D1014B1D70BDE8F08122
:101CD000C4BCFF1F13B9044B1B780BB9FFF7D6BF69
:101CE000024B1970704700BFB2BCFF1FB5BCFF1F8D
:101CF000044A054B1360054A1360054A13600CF053
:101D00004DBE00BFC090FF1F03200038BC90FF1FD6
:101D1000B890FF1F01448A71704701EB8200704741
:101D200008B5034815F0B2FCBDE8084010F08EB9C4
:101D300020800100F0B5334989B004463248FEF7EF
:101D4000DEFB324815F0A2FC064610F07FF9F0B930
:101D500004A82F490CF0C7FC314668460CF0C3FCC0
:101D6000694604A80CF081FD01462748FEF7BDFB3B
:101D700068460CF078FC04A80CF075FC10F0B0F884
:101D80004FF480210246304610F06CF91CE02149E6
:101D90001D48FEF7B4FB04A8314610F0D7F804F153
:101DA0005C0304AA0DF1180E1F46154603CD7545B8
:101DB000186059602A4603F10803F6D128681860B4
:101DC000AA889A80E36DBBB9304615F045FB0FF049
:101DD000A1FF38B910490C48FEF791FB64200DF0C3
:101DE000B7F8F4E7002384F8463063700B490648DF
:101DF000FEF785FB09B0F0BD00236366384610F09E
:101E000015FAE1E73583010010BFFF1FED7F0100E8
:101E1000568301006C8301008B8301009F830100C6
:101E20002DE9F04FC6788DB004462EB10320C3E1F2
:101E3000731C402B04D01E46A519AB79002BF7D09C
:101E40000DF068F8E36C4CF25032C01A904240F248
:101E50000281AB4815F01AFC8046AA4815F016FC22
:101E600007460FF057FF002800F0C7804FF480505E
:101E7000012115F0A3FAAB79F6B2013B06F0030A93
:101E80008146032B00F2B680DFE803F0022C89B212
:101E900008A8394610F05AF804F15C0308AA0DF1BD
:101EA000280C9A469646BEE80300E645186059603D
:101EB000724603F10803F5D11068186092889A8081
:101EC000E36D002B00F0C88031462046FEF794FEFB
:101ED0006066504610F0C0F90223AB710DF01AF89D
:101EE000E06487E008A8414610F030F808AA04F141
:101EF0005C030DF1280C9646BEE80300E645186029
:101F00005960724603F10803F5D110681860928891
:101F10009A80E36D002B40F0B5807B4904A80CF05B
:101F2000E2FB94F8461068460CF013FC694604A8DE
:101F30000CF09BFC75490CF0A1FC5146834608A8A7
:101F40000CF007FC08A958460CF08FFC01467048BD
:101F5000FEF7CBFA08A80CF086FB68460CF083FB72
:101F600004A80CF080FB08A839460FF0EFFF08AA80
:101F700004F15C030DF1280C9646BEE80300E6452B
:101F800018605960724603F10803F5D110681860B3
:101F900092889A80E36D002B40F09080BEE008A804
:101FA00041460FF0D3FF04F15C0308AA0DF1280CA1
:101FB0009B469646BEE80300E645186059607246A7
:101FC00003F10803F5D11068186092889A80E36DD8
:101FD000002B00F0CA8031462046FEF70DFE6066F9
:101FE000584610F039F90CF095FF0423E06400E046
:101FF0000023AB71484615F02FFA384615F02CFA3D
:10200000404615F029FA00231D46E21892790AB1DC
:102010000135EDB20133402BF7D12378DBB1D5B9CF
:102020003C4908A80CF05FFB0CF074FF216D0A22FC
:10203000411A04A80CF0C6FB04A908A80CF015FC72
:1020400001463348FEF751FA04A80CF00CFB08A82F
:102050000CF009FB2570AFE004A82B490CF043FB02
:1020600094F8461068460CF074FB694604A80CF01E
:10207000FCFB29490CF002FC3946054608A80CF087
:1020800032FB87E020463146FEF7B6FD236E6066E0
:1020900000F580529A420ED99842BFF464AFC0EB6B
:1020A000030BE36D494618445A460FF087FB636EF5
:1020B0005B44636657E74FF4805BF2E731462046A6
:1020C000FEF79AFD266E606600F58053B34213D981
:1020D000B04209D2361AE36D3246184449460FF031
:1020E00059FC636E1E4466660CF014FFE064032323
:1020F000AB71002363707DE74FF48056EBE700BFC0
:10210000ED7F010020800100E083010031840100A7
:1021100010BFFF1FC78301000384010004A82849E2
:102120000CF0E1FA94F8461068460CF012FB694690
:1021300004A80CF09AFB23490CF0A0FB514606467C
:1021400008A80CF006FB08A930460CF08EFB0146EF
:102150001D48FEF7CAF908A80CF085FA68460CF08D
:1021600082FA04A80CF07FFAC1E7154904A80CF024
:10217000BAFA94F8461068460CF0EBFA694604A8DF
:102180000CF073FB11490CF079FB5146054608A889
:102190000CF0DFFA08A928460CF067FB01460A4854
:1021A000FEF7A3F908A80CF05EFA68460CF05BFA9B
:1021B00004A80CF058FA1DE70DB0BDE8F08F00BF81
:1021C000E08301006384010010BFFF1F96840100BB
:1021D000044A054B1360054A1360054A13600CF06E
:1021E000DDBB00BFCC90FF1F03200038C890FF1F4D
:1021F000C490FF1F08B5FEF76BF908BD0A22002343
:102200000CF0B8B970B50668044630460D460CF0BF
:1022100009FC854203D0304629460CF017FC2046C5
:1022200070BDFFFF2DE9F04186B004A80FF0B0FCAF
:10223000304D04A80FF0BEFD2B680093DDF8008040
:10224000044600284FD02C492C48FFF7D3FF2146E5
:102250002A48FFF7D3FF2A492848FEF750F92949B1
:102260002648FEF74CF928492448FEF748F90FF0B4
:10227000CBFC2B680193019E00240FF04BFD074619
:10228000A8B92B680293029B9B1BB3F57A7FF4D904
:1022900001341A481D49E4B2FFF7ACFF3B2C06F5A8
:1022A0007A76EAD915480CF055F93C46E5E714B1C1
:1022B00012480CF04FF916491048FEF720F92B6828
:1022C0000393039B13490D48C8EB0308FFF792FFE4
:1022D0004FF47A71B8FBF1F10848FFF78FFF074818
:1022E0000D49FEF70CF94FF47A700CF031FE06B090
:1022F000BDE8F08108BDFF1FC984010010BFFF1FAA
:10230000DB840100E3840100FD8401008D090200EB
:1023100013850100238501003385010073B502ACEC
:10232000164644F8041D0D462046D1B2FFF76AFF59
:1023300001352046310A0195FFF764FF02B070BDF8
:1023400038B508460C460CF06DFB0546601C0CF0D9
:1023500069FB05EB002080B238BD13B5002402A84C
:10236000FF2140F8044D0134FFF74CFFB4F5006F36
:10237000F5D14FF4FA700CF0EBFD02B010BDFFFF89
:10238000044A054B1360054A1360054A13600CF0BC
:1023900005BB00BFD890FF1F03200038D490FF1F5B
:1023A000D090FF1F37B504460CF0B4FD324BA0604F
:1023B0001B680193019BE3601721D223052204F1DE
:1023C000100010F060F80021172204F124000CF036
:1023D00001FC012384F82430022384F825300323F0
:1023E00084F82630042384F82730062384F8283024
:1023F000072384F82930082384F82A30092384F835
:102400002B300B2384F82C300C2384F82D300D2333
:1024100084F82E300E2384F82F30102384F83030C7
:10242000112384F83130122384F83230132384F8D6
:102430003330052384F835300A2384F836300F23EF
:1024400084F837300D4B03F1100204F13B011046C4
:1024500053F8045B41F8045B9342F9D10368C4F874
:102460004B30074B1A889B78A4F84F20204684F8FD
:10247000513003B030BD00BF08BDFF1F4F880100C1
:1024800063880100F8B5114D2B6804465B680F4660
:1024900016460F4916222846984728460CF05AF847
:1024A000103444F8107C44F80C6C052001210CF029
:1024B000AFFC2046C82110F059F820460FF0DFFE8F
:1024C0002046BDE8F8400FF02BBF00BF10BFFF1F34
:1024D0006688010037B505460024174B28461B784F
:1024E00050F8102B40F60C0101FB0422A34205EB2F
:1024F000040392F81D2793F84B100CD122B100234E
:102500002022009301920AE07F234FF0400E8DE8D5
:102510000840134608E022B10023009301937F2274
:1025200002E0009201927F2301340FF0C2FF042CDD
:10253000D3D103B030BD00BFA8BCFF1FF7B505461F
:1025400000F110060446601BC0B26F6808F04CFD35
:102550003B5C94F83B1033B10022FF238DE80C0064
:102560003046134603E00093019330464022013485
:102570000FF09FFFB442E6D1284603B0BDE8F0401B
:10258000FFF7A8BFC943CAB2542A09D8A2EB8200F8
:10259000013802EB42020021C0B2D2B20B4618E071
:1025A000A92A0BD8553AD2B202EB4201A2EB820221
:1025B000013A0020C9B2D2B203460AE05632D2B282
:1025C00002EB4200A2EB8202511E0022C0B2C9B24D
:1025D00013460FF0C4BFFFFF2DE9F341044600F19D
:1025E00010060546DFF8AC80236898F8000040F636
:1025F0000C0707FB003001F01EFE291B01EB001049
:10260000C1B2236898F8000007FB003090F8033748
:102610008B4203D195F83B10FF2207E01C2303FBFC
:1026200001035B794BB995F83B10012200920192AE
:10263000304613460FF03DFF0DE0002295F83B7049
:1026400002F00AF801462046FFF79CFF3946024691
:1026500030460FF056FF0135B542C3D10C4B1E7802
:10266000204636B14021FFF78DFF00210246284663
:1026700005E0FF21FFF786FF3146024628460FF0AE
:1026800040FF204602B0BDE8F041FFF723BF00BF86
:10269000B2BCFF1FA8BCFF1F2DE9F04F684A694D6F
:1026A000136889B0044605930598E368C01A664B21
:1026B0001968B5FBF1F188429046994603D9136831
:1026C0000693069BE36004F110052646371BFFB214
:1026D000DFF888B1384608F087FC9BF800202368B3
:1026E00040F60C0A0AFB023393F80327824206D114
:1026F0007F22FF2396F83B108DE80C000EE0384651
:10270000039308F071FC039B1C2202FB0030437909
:102710004BB9012296F83B100092019228461346CD
:102720000FF0C7FE1BE023689BF8002096F83BC023
:10273000CDF80CC038460AFB023A08F055FC0022DE
:102740000146504601F088FF01462046FFF71AFF78
:10275000DDF80CC00246614628460FF0D2FE38462E
:1027600008F042FC394B1B7883420CD1D8F800307A
:102770000793079AE3683649D21AD9F80030B1FBBB
:10278000F3F39A4250D30136AE429FD1314B1E78BB
:10279000204636B14021FFF7F5FE002102462846CB
:1027A00005E0FF21FFF7EEFE3146024628460FF016
:1027B000A8FE294B1B78032B30D8DFE803F0020575
:1027C000111D2046FF2101E02046BF21FFF7DAFE60
:1027D0001521024628460FF094FE20467F2116E080
:1027E0007F212046FFF7CEFE1521024628460FF036
:1027F00088FE2046BF210AE07F212046FFF7C2FE67
:102800001521024628460FF07CFE2046FF21FFF7E7
:10281000B9FE1621024628460FF073FE2046FFF748
:1028200059FE09B0BDE8F08FFF22002396F83B1057
:1028300028468DE80C0013460FF03BFEA3E700BFCF
:1028400008BDFF1F808D5B00CC8DFF1FBCBCFF1F30
:10285000C0C62D00B2BCFF1FB0BCFF1FA8BCFF1F2D
:102860002DE9F04F054685B00024734B1A78A2423B
:1028700005EB040305F110060BD12846402193F81F
:102880004B70FFF77FFE3946024630460FF039FEA7
:1028900008E0002293F84B10009201923046134654
:1028A0000FF007FE0134042CDFD12C46671BFFB26A
:1028B000DFF88491384608F097FB4B4640F60C0849
:1028C0001A782B6808FB023A9AF8032782423846A6
:1028D0003FD108F089FB4FF01C0B0BFB00A04379A4
:1028E000012B08D1FF22802394F83B1030468DE85D
:1028F0000C0000222BE02B6899F80020384608FBDA
:10290000023A08F071FB0BFB00A04379022B06D1C1
:102910000023802294F83B10009301926CE02B6816
:1029200099F80020384608FB023808F05DFB0BFBE5
:10293000008094F83B104379032B04D100228023BC
:102940008DE80C006DE0FF220092019230461346A4
:1029500069E008F049FB394B1B78834216D1384BAC
:1029600094F83B701B680393039A0523B2FBF3F3BF
:10297000FF2293FBF2F299182846C9B2FFF702FE34
:102980003946024630460FF0BCFD4EE099F8002073
:102990002B68384608FB023A08F026FB4FF01C0B68
:1029A0000BFB00A0427912B994F83B10CCE72B68DE
:1029B00099F80020384608FB023A08F015FB0BFB9B
:1029C00000A04379012B05D1FF2394F83B1000931D
:1029D0000022BAE72B6899F80020384608FB023A33
:1029E00008F002FB0BFB00A04379022B07D1002368
:1029F00094F83B10009301933046FF2213E02B68BC
:102A000099F80020384608FB023808F0EDFA0BFB75
:102A100000804379032B08D1002294F83B100092E8
:102A200001923046FF230FF044FD0134B4427FF49D
:102A30003DAF05B0BDE8F08FA8BCFF1FBCBCFF1FB9
:102A400008BDFF1FF7B505460024114B1B78A342B4
:102A500005F1100605EB04030BD12846C42193F8B9
:102A60004B70FFF78FFD3946024630460FF049FDA7
:102A700008E0002293F84B10009201923046134672
:102A80000FF017FD0134042CDFD103B0F0BD00BFFF
:102A9000A8BCFF1FF0B5044685B00D460CF03AFA0D
:102AA000A368C01AA84240F283800CF033FA414B6D
:102AB000A0601B78092B04F1100616D008D8042B4F
:102AC00003D8032B11D2A3B969E0072B1DD066E010
:102AD0000D2B03D80C2B08D20A2B04E07D2B26D01B
:102AE000F12B1BD0102B5AD121E02046FFF774FDAB
:102AF00055E0636893F840301BB12046FFF71EFD98
:102B00004DE02046FFF7C8FD49E0636893F8403088
:102B1000002BF2D12046FFF7A3FE40E0636893F854
:102B20004030002BE9D12046FFF78CFF37E000252D
:102B30006319204693F83B701F4B1B680393039A5D
:102B40000523B2FBF3F3122202FB0533FF2293FBB2
:102B5000F2F29918C9B2FFF715FD01350246394660
:102B600030460FF0CEFC102DE2D10025134B1B7820
:102B70002B4113F0010004EB050393F84B1004D034
:102B80000022C8238DE80C0002E040220092019050
:102B90003046134601350FF08CFC042DE6D1084B6E
:102BA0004FF480641C6030460FF0BAFB054B1C608C
:102BB00005B0F0BD508DFF1F08BDFF1FD08DFF1F5A
:102BC00084F00F4088F00F40044A054B1360054A1B
:102BD0001360054A13600BF0E1BE00BFE490FF1FD5
:102BE00003200038E090FF1FDC90FF1F2DE9F04725
:102BF00005468CB00C4616461F46C249C248FDF732
:102C00007EFC14992E646F6301260027E9632F72FE
:102C1000BE496F72AF72EF722E736E73AE73EE7346
:102C20002F746F74AF74EF7485F8286085F829608D
:102C300085F82A6085F82B606F61AF61EF612F62C4
:102C400085F8246085F8256085F8266085F827607A
:102C5000AD48FDF754FC20462121AC6303F00CF98C
:102C6000204639460822334602F04CFF20463146C2
:102C70000422334602F046FF204602210922334651
:102C800002F040FF204603210522334602F03AFFBE
:102C9000204611210622334602F034FF204604214B
:102CA0000A22022302F02EFF2046052107220223DA
:102CB00002F028FF204606210B22022302F022FF09
:102CC000204607210C22022302F01CFF2046082187
:102CD0001B22334602F016FF2046092112223346FA
:102CE00002F010FF20460A211322334602F00AFFA9
:102CF00020460B211422334602F004FF20460C210B
:102D00001522334602F0FEFE20460D2116223346E0
:102D100002F0F8FE20460E211722334602F0F2FEA2
:102D200020460F210322334602F0ECFE20461021FC
:102D30001822334602F0E6FE204616210E22022318
:102D400002F0E0FE022213462046122102F0DAFED3
:102D5000204613213246022302F0D4FE20461421DD
:102D60001A22022302F0CEFE204615210D22022354
:102D700002F0C8FE204617210F22022302F0C2FEF5
:102D8000204618211022022302F0BCFE2046192101
:102D90001122022302F0B6FE20461A211922022334
:102DA00002F0B0FE3A4602231B21204602F0AAFEA2
:102DB000204602F0E7FF56495348FDF7A0FB0221E9
:102DC00005F12D0002F036FE05F12F090A200CF066
:102DD000BFF81321484603F0E7F805F130080A2050
:102DE0000CF0B6F84046122103F0DEF80A200CF091
:102DF000AFF8484904A80BF076FC0A223946684629
:102E00000BF0BAFC694604A80BF02FFD42490BF009
:102E100035FDFEB282463146484603F039F9014697
:102E200008A80BF096FC504608A90BF01EFD0146C1
:102E30003548FDF75AFB08A80BF015FC68460BF067
:102E400012FC04A80BF00FFC01200CF081F83349B0
:102E500004A80BF048FC0A22394668460BF08CFCAB
:102E6000694604A80BF001FD2B490BF007FD314624
:102E70008246404603F00CF9014608A80BF069FCB5
:102E8000504608A90BF0F1FC01461F48FDF72DFB49
:102E900008A80BF0E8FB68460BF0E5FB04A80BF074
:102EA000E2FB01200CF054F801200CF051F83146FF
:102EB0000122484603F0B4F801200CF049F8012241
:102EC0003146404603F0ACF801200CF041F80120F7
:102ED0000CF03EF80F4904A80BF005FC0A22394615
:102EE00068460BF049FC694604A80BF0BEFC0A4991
:102EF0000BF0C4FC31468246484603F0C9F801464F
:102F00000EE000BF7D88010010BFFF1F8F88010009
:102F1000A9880100BA8801002E840100C988010037
:102F200008A80BF016FC504608A90BF09EFC0146C1
:102F30008548FDF7DAFA08A80BF095FB68460BF018
:102F400092FB04A80BF08FFB01200CF001F87F49E5
:102F500004A80BF0C8FB0A22394668460BF00CFCAB
:102F6000694604A80BF081FC79490BF087FC3146D7
:102F70008246404603F08CF8014608A80BF0E9FBB6
:102F8000504608A90BF071FC01466F48FDF7ADFAF9
:102F900008A80BF068FB68460BF065FB04A80BF073
:102FA00062FB01200BF0D4FF01200BF0D1FF314672
:102FB000FF22484603F034F801200BF0C9FFFF223E
:102FC0003146404603F02CF801200BF0C1FF0120F0
:102FD0000BF0BEFF5F4904A80BF085FB0A223946BF
:102FE00068460BF0C9FB694604A80BF03EFC584943
:102FF0000BF044FC31468246484603F049F801464E
:1030000008A80BF0A6FB504608A90BF02EFC0146C1
:103010004D48FDF76AFA08A80BF025FB68460BF04F
:1030200022FB04A80BF01FFB01200BF091FF474986
:1030300004A80BF058FB0A22394668460BF09CFBAB
:10304000694604A80BF011FC41490BF017FC31460E
:103050008246404603F01CF8014608A80BF079FBB5
:1030600008A950460BF001FC01463748FDF73DFA30
:1030700008A80BF0F8FA68460BF0F5FA04A80BF074
:10308000F2FA013701200BF063FF042F7FF4B1AE99
:103090002E462F1D96F848302B44204693F85010AA
:1030A000012202F0DEFE96F84C302B44204693F8C5
:1030B00050100122013602F0D4FEBE42EAD1264968
:1030C0002148FDF71CFA1F2001210BF0A1FE04206E
:1030D00001210BF09DFE21491B48FDF710FA204607
:1030E00002F086FE00251E4904A80BF0FCFA0A2215
:1030F000294668460BF040FB694604A80BF0B5FB77
:1031000018490BF0BBFBE9B20646204602F0BCFDB5
:103110000A22014608A80BF02FFB08A930460BF045
:10312000A4FB01460848FDF7E0F908A80BF09BFA5C
:1031300068460BF098FA013504A80BF094FA1C2DA0
:10314000D1D10CB0BDE8F08710BFFF1FC9880100C6
:103150002E840100BA880100D8880100ED880100A2
:10316000178901003E85010070B500F12D040E465F
:103170001546204602F07AFC204631462A46BDE834
:10318000704002F073BCFFFF2DE9FF415C4B1A68F1
:103190000292029A1B680393039B5A4B1A782E3AA9
:1031A000D2B20B2A044600F2A780012303FA02F2EE
:1031B00040F624131340002B6ED140F2924313408B
:1031C000002B36D140F249231340002B00F09480AD
:1031D0004D4D05F108086E78E26B4C4902EB460252
:1031E0000020B2F87630B2F8862000924FF4804288
:1031F0000BF02FFA04F12D0782B23146384602F067
:1032000035FC15F8016FE26B404902EB46020020E5
:10321000B2F87630B2F8862000924FF480420BF07C
:1032200018FA314682B2384602F020FC4545D2D128
:1032300062E0354D05F108086E78E26B334902EB28
:1032400046024FF40050B2F87630B2F88620009271
:103250004FF480420BF0FDF904F12D0782B23146A4
:10326000384602F003FC15F8016FE26B274902EBC8
:1032700046024FF40050B2F87630B2F88620009241
:103280004FF480420BF0E5F9314682B2384602F045
:10329000EDFB4545D0D12FE01B4D05F108086E78B8
:1032A000E26B1A491A4802EB460204F12D07B2F804
:1032B0007630B2F8862000924FF480420BF0C9F9C4
:1032C000314682B2384602F0D1FB15F8016FE26B4D
:1032D0000E490F4802EB4602B2F87630B2F886206B
:1032E00000924FF480420BF0B4F9314682B2384676
:1032F00002F0BCFB4545D2D104B0BDE8F08100BF6F
:1033000008BDFF1FB1BCFF1F508DFF1F00C0FFFF96
:1033100000E0FFFFF7B50446806B02F069FD112164
:103320000122606BE66B11F0D9F8022590FBF5F0F5
:10333000A6F8AE0024210122606BE66B11F0CEF8F6
:1033400090FBF5F0A6F8B00025210122606BE66B3A
:1033500011F0C4F890FBF5F0A6F8B2002221606BE2
:10336000E66B012211F0BAF890FBF5F0A6F8B40074
:103370000025E66B06EB4506B6F8AE00B6F8A630BB
:10338000984207D20022B6F8961000921A464FF4DF
:10339000806305E05D49B6F89E2000911946002340
:1033A0000BF057F9A6F86A00E66B584906EB45039F
:1033B0004FF48062B3F96A00402300936FF03F033B
:1033C0000BF047F92E440135042D86F85C00D0D16E
:1033D0000025082D05F1040622D00123AB4013F08F
:1033E000AA0F0CD113F0550F1AD0E36B1E4403EB58
:1033F000450393F8B630183B86F85C3010E0E76B75
:10340000434907EB45034FF48042B3F8B60040232D
:1034100000936FF03F030BF01CF93E4486F85C000C
:103420000135092DD5D10421A06BE56B02F095FD86
:1034300080F0010085F8CF000521A06BE56B02F05C
:103440008CFD80F0010085F8D0000621A06BE56BB3
:1034500002F083FD80F0010085F8D1000721A06B08
:10346000E56B02F07AFD80F0010085F8D2000421BE
:10347000A06BE56B02F05BFD85F8C6000521A06B33
:10348000E56B02F054FD85F8C7000621A06BE56BE3
:1034900002F04DFD85F8C800A06BE56B072102F036
:1034A00046FD85F8C90004252E1FF6B2A06B3146F3
:1034B00002F05DFD48B1E36BA06B2B44314693F8FD
:1034C000CF7002F054FD874203D1E36B00222B44FE
:1034D00002E0E36B01222B4483F8C620E76BA06B6C
:1034E000314602F044FD2F440135082D87F8CF0006
:1034F000DAD1A06B2946012202F0B3FCA06B294669
:10350000002203B0BDE8F04002F0ABBC00FCFFFFBE
:1035100000C0FFFF29B1C36B194491F95B0080B271
:10352000704708467047093108B5092936D8DFE8E1
:1035300001F0302B26211C17120A053664200BF0EF
:1035400073F85A2803E064200BF06EF8502894BFFB
:103550000020012008BD64200BF066F84628F6E73D
:1035600064200BF061F83C28F1E764200BF05CF874
:103570003228ECE764200BF057F82828E7E76420AE
:103580000BF052F81E28E2E764200BF04DF81428E7
:10359000DDE764200BF048F80A28D8E708BD0020D2
:1035A00008BDC36B03EB4202B2F88600B2F8763076
:1035B000C31A9BB25943142291FBF2F080B27047B8
:1035C000C36B03EB4101B1F87600B1F886301844C3
:1035D00040087047F8B501441F4691F84850294605
:1035E0000446FFF7EDFF394606462A462046FFF718
:1035F000D8FF301A80B2F8BD10B5014491F84820C8
:10360000C16B01EB4201B1F886401946FFF7C9FFD3
:10361000201A80B210BDFFFF2DE9F743012B16469B
:1036200004460D461F469DF828209DF82CC036D034
:1036300018D3022B62D1421892F848804246FFF715
:10364000C9FF2946814642463B462046FFF7D4FF44
:103650002C4B33F816300090002118464FF47D7241
:103660004B4647E0002700976346F1B2C06B07F076
:1036700059FD6319814693F8486029463246022372
:103680002046FFF7A7FF2946324680460223204600
:10369000FFF7B2FF394600907822484629E000271C
:1036A00000976346F1B2C06B07F03CFD94F893318C
:1036B00090FBF3F203FB1202B432294634F8129065
:1036C00042F6E062504390FBF3F3994463192046BD
:1036D00093F8486002233246FFF77CFF29463246C2
:1036E000804602232046FFF787FF074A00903946AD
:1036F000484643460AF0ADFF80B2FFE703B0BDE89D
:10370000F08300BF5A8DFF1FC0D401002DE9F04F98
:1037100089B01F469DF84C3005939DF854300393B3
:103720009DF86030049304469DF86830C06B0693A2
:103730001B9B079300EB8100039B9DF848A09DF81D
:1037400050B09DF85C809DF8649016460D469DF83B
:103750005820A0F8B6601BB9BBF1000F0BD096E063
:10376000A06B029202F003FC029A0028F4D0002A17
:1037700040F0BA8080E0002A40F0878004EB050B1F
:10378000A06B9BF84820224492F85010012202F0CE
:1037900068FBBAF1000F0DD00122059B8BF82820A1
:1037A00004EB85028BF80C30079B8BF808A08BF894
:1037B000107053619BF84830234493F858100A095D
:1037C00008BF04F12F0001F00F011CBF04F130000D
:1037D000002202F025FC069B002B42D1049B04EB47
:1037E000050B29469BF848C0CDF808C08DE80802B3
:1037F000324643462046FFF70FFFDDF808C004F1CC
:103800002D0A61460246504602F030F9049B9BF8AF
:1038100048B029468DE80802324643462046FFF765
:10382000FBFE59460246504602F020F9691EC9B215
:103830000F29D4F8408014D8D8F84800036841F024
:1038400090011B689847D8F84800036806F07F018C
:103850001B689847D8F84800036807F07F011B6889
:103860009847039B002B45D0A06B2946012209B045
:10387000BDE8F04F02F0F5BAA06B294602F0F1FA6C
:10388000BBF1000F3FF47AAF01E04FF0030B04EB04
:10389000050AA06B9AF84820224492F850100022A2
:1038A00002F0DFFA9AF84820224492F858A05FEA22
:1038B0001A114FF0FF020AF00F0A09D10092584680
:1038C0007F220B460AF0C5FEC2B204F12F0009E0C8
:1038D0000021009258467F220B460AF0BAFEC2B27F
:1038E00004F13000514674E7BBF1000F08BF4FF000
:1038F000030BCCE709B0BDE8F08FFFFF2DE9F341E2
:10390000034604460022A618043201200025102A8E
:103910001D7218731D7483F82800756183F82400E4
:103920000344F0D16718E26B97F84C80154902EB1D
:1039300048022846B2F87630B2F8862000924FF45A
:1039400080420AF086FE04F12D0682B241463046DE
:1039500002F08CF897F84C70E26B0A4902EB4702D0
:103960002846B2F87630B2F8862000924FF48042B2
:103970000AF06FFE394682B2304602B0BDE8F0412F
:1039800002F074B800C0FFFF2DE9F0479AB09946E5
:103990009DF8883006460F461446002B40F08C8276
:1039A00000EB010800EB810A98F80810DAF81420FF
:1039B00098F80C50002900F07F82A31A03FB05F051
:1039C000013980080C2900F22282DFE811F00D0095
:1039D0008401BD001E011700980088012F01CB0152
:1039E000F4013F014601520102EB19194C454FF019
:1039F000000480F00D824FF480450AE26A004FEA2D
:103A00008911B1FBF2F18B424FEA0912B2FBF5F5D5
:103A100098F8102005D2DB01B3FBF5F5A5F1800085
:103A200005E05B1ADB01B3FBF5F5C5F180006FF033
:103A30007F0151435043D20107F0B2FAC04985B229
:103A400006A80AF050FE0A2229B202A80AF094FE43
:103A500002A906A80AF009FFBA490AF00FFF0A22D4
:103A6000804621460AA80AF0ADFE40460AA90AF09F
:103A7000FCFEB5490AF002FF0A228046DAF814106B
:103A80000EA80AF09FFE40460EA90AF0EEFEAF49CE
:103A90000AF0F4FE0A228046494612A80AF092FE75
:103AA000404612A90AF0E1FEA9490AF0E7FEDAF859
:103AB0001410641A642161430A228046B1FBF9F1B3
:103AC00016A80AF07FFE16A940460AF0CEFE01466F
:103AD000A048FCF70AFD16A80AF0C5FD12A80AF0D6
:103AE000C2FD0EA80AF0BFFD0AA80AF0BCFD02A89C
:103AF0000AF0B9FD06A80AF0B6FD002489E14FEAF4
:103B0000891905EB4505B9FBF5F18B424FEA4505EF
:103B1000B9FBF5F907D2DB01B3FBF9F998F81020EE
:103B2000A9F180000BE049008B42C0F0D4805B1A01
:103B3000DB01B3FBF9F998F81020C9F180006FF0B0
:103B40007F01504351436CE04FEA0910DB01B0FBA9
:103B5000F5F5B3FBF5F098F81020C0F180006FF098
:103B60007F01514350434FF4804207F019FA7449E2
:103B700085B20AA80AF0B7FD0A2229B206A80AF0FF
:103B8000FBFD06A90AA80AF070FE6E490AF076FE4F
:103B90000A22804621460EA80AF014FE40460EA9CD
:103BA0000AF063FE68490AF069FE0A228046DAF8E4
:103BB000141012A80AF006FE404612A90AF055FE9B
:103BC00063490AF05BFEDAF81410641A6421614359
:103BD0000A228046B1FBF9F116A80AF0F3FD16A9F6
:103BE00040460AF042FE01465A48FCF77EFC16A801
:103BF0000AF039FD12A80AF036FD0EA80AF033FDCE
:103C000006A80AF030FD0AA875E74FEA8919DB011A
:103C1000B9FBF5F598F810204F49B3FBF5F0803863
:103C20005043D20107F0BCF985B266E74FEA191597
:103C3000B0FBF5F598F81030EDB2803D5D43002DF6
:103C4000B8BF6D42A5EB83156D0010E04FEA191562
:103C5000B0FBF5F5EDB2803D06E04FEA1915B0FB7B
:103C6000F5F5EDB2C5F1800598F810305D43ADB2C1
:103C700043E712F067FE394998F8244012F0B6FE87
:103C800005464FEAC90012F059FE0146284612F0D7
:103C900061FF12F067FA11F02BF80022002312F0F6
:103CA00045FD90B14CB198F810106FF07F0048437B
:103CB000C9010AF0C4FC85B200E02546002388F85B
:103CC000243084F001049846A4E0012488F82440BC
:103CD000054680469EE098F81050ED010DE712F081
:103CE00031FE1E4912F082FE04464FEAC90012F06E
:103CF00025FE0146204612F02DFF12F033FA10F097
:103D0000F7FF044698F810000D4612F019FA024623
:103D10000B462046294612F079FA0022104B12F089
:103D200075FA12F00DFD98F84C30334485B293F8D3
:103D30005010B06B002202F094F84FF0010875E0CB
:103D4000418901004B8901005B89010067890100FD
:103D50007589010010BFFF1F00C0FFFFDB0F494046
:103D60000000604012F0EEFD554912F03FFE04469F
:103D70004FEAC90012F0E2FD0146204612F0EAFEC9
:103D800012F0F0F910F0B4FF0022002312F0CEFC84
:103D900098F8105008B1ED0103E0C5EB4525ED01A1
:103DA000ADB298F84C30B06B3344012293F8501008
:103DB00002F057F8A1E612F0C5FD414912F016FED7
:103DC00004464FEAC90012F0B9FD0146204612F040
:103DD000C1FE12F0C7F910F08BFF0022002312F091
:103DE000A5FC98F8105008B1ED0103E0C5EB45259E
:103DF000ED01ADB298F84C30B06B3344002293F82B
:103E0000501002F02EF800244FF0280802E00024A1
:103E10002546A046F319B06B93F84C303344012289
:103E200093F8501002F01DF8002C45D1F36B03EB12
:103E300087033744A3F8B85097F84C3033444246D0
:103E400093F858100B090CBF06F12F0006F1300053
:103E500001F00F0102F0E4F897F84C80F26B194979
:103E6000002302EB480287F82830B2F87630B2F827
:103E7000862000922DB24FF4804228460AF0E9FBDA
:103E800006F12D0482B24146204601F0EFFD97F87D
:103E90004C70F26B0B4902EB47022846B2F87630C1
:103EA000B2F8862000924FF480420AF0D2FB3946E5
:103EB00082B2204601F0DAFD1AB0BDE8F08700BFFB
:103EC000DB0F494000C0FFFF70B504460E461546A3
:103ED0001BB1806B002201F0C4FF711EC9B20F2913
:103EE000246C10D8A06C036841F080011B689847CF
:103EF000A06C036805F07F011B689847A06C0368FD
:103F000040211B68984770BD38B5002204460D4615
:103F1000806B01F0A6FF6019002303720374012374
:103F200080F8283038BDFFFF37B54FF400730546E1
:103F30000C4609B1084A00E0084A136017202146E0
:103F40000AF046FF85F82C4024B1054B1B6801930D
:103F5000019B2B6003B030BD84F00F4088F00F4010
:103F600008BDFF1F044A054B1360054A1360054A4C
:103F700013600AF013BD00BFF090FF1F032000384C
:103F8000EC90FF1FE890FF1F4379032B09D8DFE86F
:103F900003F0090B0B02807CD0F1010038BF002038
:103FA00070477047002070470120704710B50446E5
:103FB0000AF0B0FF0023C4F8000884F8003710BDF1
:103FC000D0F8F837013330B5C0F8F83790F8045717
:103FD00090F8053700221D440346AA4203F11C0352
:103FE0000CDAD0F8FC17D0F8F447B4FBF1F453F82E
:103FF000081C091B43F8081C0132EEE730BDFFFF27
:10400000114B80F8F2171B78EBB190F8EE3723B91B
:10401000D0F8F837C0F8FC3705E0D0F8083893F846
:104020005B30012B04D0B0F8F0370133A0F8F03743
:10403000002380F8EE37C0F8F8374FF4800393FB85
:10404000F1F1C0F8F4177047B2BCFF1F90F8E437E5
:104050005AB2002ADABFC3F10200C0B20120002A1E
:10406000CCBFDBB20123800590FBF3F0704710B5A5
:104070000446FFF7EBFF94F80537584310BDFFFFE8
:104080002DE9F743D0F8F857D0F8FC67B0F9F0778E
:10409000B5422CBF06F1FF38A8460446D0F8F457C5
:1040A000FFF7E5FF6F4305FB08F5B5FBF6F6B7FB39
:1040B000F0F505FB107094F8087794F8038735182D
:1040C000012FC4F8E85711D12046FFF7BFFF94F83D
:1040D000046794F805773744FFB2B5FBF0F0381A5F
:1040E00031463F22C0B206F05BFF54E0002F54D1AE
:1040F0002046FFF7ABFF94F8072794F8046794F87D
:104100000017A2F13209B5FBF0FE4FEA490906EBB0
:104110000E0300FB1E5500FB09F94FF0640E322A16
:10412000B9FBFEF994BF4FF0000C4FF0010CDBB26D
:104130004D45194488BF4FF0000C1CEA010F05D013
:10414000013B84F8033784F801771BE0570078437C
:10415000B0FBFEFE754534BF00250125312A88BF1E
:1041600000252DB1CA0703D4013384F8033706E0D4
:1041700084F8033794F8023713F0010300D00123C9
:1041800084F8013794F8052794F803073244314640
:10419000013A06F021FF84F8030794F81037012B49
:1041A00003D10E4B1B680193019B94F803374345E1
:1041B00004D094F80237013384F802372046FFF721
:1041C00056FFD4F8E837834203D92046002100F097
:1041D00007F8D4F8E80703B0BDE8F08308BDFF1F77
:1041E00038B500230446A0F8F03721B1012280F849
:1041F000003780F8EE27C4F8F8372046FFF740FF75
:1042000094F8051794F8045723460D440022AA4257
:1042100003F11C0306DA002003F80B0C03F80A0C68
:104220000132F4E7CB0705D594F8003783F001039A
:1042300084F8003738BD90F8030700097047FFFF86
:1042400090F81D372DE9F3470446002B40F0D68047
:104250006C4B1B78002B00F0D180FFF711FF94F816
:104260000367C4F8E8071C2505FB0642103257789F
:10427000002F57D1C6EBC60304EB830359790029FD
:1042800050D0977094F81617D4F8040893F807A044
:10429000FFF740F94FF01408B0FBF8F0394605225B
:1042A0001AFA80F006F07CFE264494F8181786F877
:1042B000240794F80367D4F8040805FB0643264452
:1042C0001F7AFFF727F9B0FBF8F00522012117FA52
:1042D00080F006F065FE94F8171786F86407D4F8A6
:1042E000040894F80367FFF715F926440F23B0FB81
:1042F000F3F086F8A40794F8036705FB0640FFF780
:1043000043FEA119024691F8243791F864170091F1
:104310002046314600F044FA94F8033705FB034584
:1043200001236B7425462746002694F8052794F848
:10433000043713449E4261DC6B79002B56D06B7CB2
:10434000042B04D0062B37D0012B4FD10EE094F86C
:1043500003379E424ED1012A48D12046FFF776FE10
:10436000D4F8E837B3EB900F44D33FE05FFA86F818
:104370002046414600F075F9AB69984236DA6B7910
:10438000032B08D8DFE803F0020205024FF0010911
:1043900001E04FF00009204641464A4600F06DFC1E
:1043A00006236B742046414695F812A000F050FC9D
:1043B00082451BD9042318E05FFA86F8204641465F
:1043C000AA7CD4F8E8A700F0B7FB82450ED92846AE
:1043D000FFF7DAFD97F8641797F824370091024643
:1043E0004146204600F0DCF901236B7401361C3590
:1043F00001379AE700236B74AB74F7E702B0BDE8AE
:10440000F08700BFB2BCFF1F024B1B780BB1FFF758
:1044100017BF7047B2BCFF1F044A054B1360054A23
:104420001360054A13600AF0B9BA00BFFC90FF1F81
:1044300003200038F890FF1FF490FF1F2DE9F04192
:10444000134D044628680F4616469846114943689E
:104450001D222846984728460AF07CF8002384F855
:104460000F37042384F8E437322384F80737012315
:1044700084F8EC37069BC4F8043884F81077079B5F
:1044800084F8056784F81187C4F80838BDE8F0811E
:1044900010BFFF1F7C890100F0B58DB004460E46A9
:1044A00004A8494915460AF01EF9314668460AF043
:1044B00050F9694604A80AF0D8F944490AF0DEF92F
:1044C0002946074608A80AF044F908A938460AF020
:1044D000CCF901463E480AF01CF83D480AF03AF88B
:1044E00008A80AF0C0F868460AF0BDF804A80AF067
:1044F000BAF80422102384F8053784F81127002322
:10450000322184F8E42784F80927062284F8043746
:1045100084F80C3784F80D3784F8123784F8133791
:1045200084F8163784F8143784F8153784F80B2785
:1045300084F80A2784F8173784F8183784F819376D
:1045400084F81A3784F81B3784F81C3784F81D3731
:1045500084F81E3784F81F3784F8203784F8213711
:1045600084F8233784F8071784F80F6784F8105706
:10457000631C4022182103F8011C032159710121F9
:10458000D9711972022159720421D9724321002074
:104590001973013A4FF04001187058709870D87034
:1045A0001871987198725873D973187458749874F4
:1045B000C3F8130003F11C03DCD1D4F80408294626
:1045C000FFF79CF90DB0F0BD9A890100BA8901008E
:1045D00010BFFF1F012910B504462FD008D30229B0
:1045E00033D190F81F0780F0010084F81F0710BD39
:1045F00090F81D3783F0010380F81D37DBB194F884
:10460000053790F8040722461844002383420CDA49
:1046100094F803178B4202F11C0206D0002102F825
:104620000B1C02F80A1C0133F0E7D4F8040894F8D4
:104630001017FFF769FC94F81D0710BD90F81E07CE
:1046400080F0010084F81E0710BD10BD10B51C24B9
:1046500004FB0133C25410BD1C2303FB0122805C08
:1046600070471C2303FB010148697047F8B50446F5
:1046700021B91021012009F0E2FFC1B294F8F2370C
:1046800094F9E45794F80527B4F8F06711FB03F0A8
:1046900090FBF5F013FB02F393FBF5F300FA86F0C1
:1046A00090FBF3F103FB110189B2B7B2A4F8F01744
:1046B0000023934204F11C0408DA54F8080C0DB2EC
:1046C0007D1B284444F8080C0133F2E7F8BDFFFFD6
:1046D00038B590F810370533994204460D4614D08A
:1046E00090F912378B4202D10021FFF779FD94F93E
:1046F0001337AB4209D1054B1B7833B1204694F8F0
:104700000917BDE83840FFF7B1BF38BDB2BCFF1F85
:10471000F0B504468BB01E461C2032B341436518E9
:10472000625CAF7BEA746B7B009705F108002D7C1F
:104730000195C07802900020049094F80E0705902F
:1047400094F80D07069094F80C07079094F81E074C
:104750000890D4F8E807099094F810170396D4F855
:104760000408FEF7D3FF0BB0F0BD00FB0143D4F803
:104770000408DA7C94F8101701230BB0BDE8F04070
:10478000FFF7A2BB431893F8A42753B2002B4FF0B6
:104790001C0303FB0100807AC4BF5043C0B27047C2
:1047A0002DE9F04F04460E461746C1EBC1021C210D
:1047B00001FB064192004D7804EB0208A25C93B025
:1047C00015448DF831508D78C9788DF83020154416
:1047D0000A448DF8332094F821279DF870008DF855
:1047E00032501AB1002384F82137A2E101220425B6
:1047F00018F80210FF2908BF05F1FF3502F1010288
:1048000008BFEDB2042AF3D1294605EB850E7145A8
:104810000ADA0CAAC5EB020C1CF801C00CF10C0C56
:1048200001F802C00131F2E708B14543EDB2013BA6
:104830001C22042B4FD8DFE803F0030E1A2E44008D
:1048400002FB064212A9937CB3FBF5F205FB12337F
:1048500051FA83F31CE002FB0642937CB3FBF5F2B2
:1048600005FB1233ED1A12AA52FA85F526E002FB77
:10487000064212A8937CB3FBF5F212F0010F05FB80
:1048800002F2C2EB030308BFC3EB0503DBB2034430
:1048900013F8183C21E002FB0642691E937C93FB4F
:1048A000F1F2D0074BBFB3FBF5F201FB123305FB6E
:1048B0001235C3EB0505EDB212A90D4415F8183CED
:1048C0000BE00020294609F0BAFE12AA52FA80F045
:1048D00010F8183C01E09DF830301C2505FB06451A
:1048E0001035EB70D4F8040894F91517FEF71BFE89
:1048F00058B1EB7894F80A0794F80B17181A194472
:1049000009F09DFE80F30700E87094F81A17D4F8B8
:104910000408FEF7FFFD1C2303FB064303F110050B
:10492000DA7C93F80B901044D87494F81C17D4F8E0
:104930000408FEF7EFFD0021FF22484406F030FB9B
:10494000C0B20B9094F91417D4F80408FEF7EBFDED
:10495000AB78002818BF002703B96B6098F80730C0
:10496000002B54D198F8065094F81B17D4F804087B
:10497000FEF7D0FD013594F8E4376D0028445DB2B0
:10498000002DD8BFC3F102024FEA8051D4BFD2B28A
:104990000122002D02FB01F2C8BFD9B24FF01C0367
:1049A00003FB064303F11003D8BF0121C900586877
:1049B00092FBF1F202445A6094F8071732290ED0A4
:1049C00094F80007304410F0010F4FF0640018BF56
:1049D000C1EB000149004A4392FBF0F058601C25EE
:1049E00005FB06452046FFF731FB6B694FF0050AD2
:1049F00093FBFAFAC5F818A02046FFF727FBBAEB9D
:104A0000901F68D22046FFF721FB800962E094F8EE
:104A1000E4574FF01C0B4FFA85FA0BFB0640BAF136
:104A2000000FD8BFC5F102034169D4BFDBB2012337
:104A300001EB8353417A01FB03F9C0F8149031462E
:104A40002046FFF79FFEBAF1000FCCBFEDB2012563
:104A50000BFB064399FBF0F090FBF5FA03F1100510
:104A6000C5F804A094F807B7BBF1320F1ED0A9789F
:104A70005B7A94F8002711FB03F32046314606EBDE
:104A800002090A93FFF77EFE0A9B93FBF0F009EB05
:104A90000002642312F0010F18BFCBEB030B4FEAA7
:104AA0004B0B0BFB0AFA9AFBF3F36B601C2505FB1F
:104AB00006454FF0040A6B6993FBFAFAC5F818A093
:104AC0002046FFF7C3FABAEB101F04D22046FFF7C7
:104AD000BDFA0009A8611C2303FB064694F81017D1
:104AE000B07B737BF27C0090307C01900B9802903D
:104AF00094F82307049094F80E07059094F80D0796
:104B0000069094F80C07079094F81E070890D4F8C4
:104B1000E80703970990D4F80408FEF7F7FD98F822
:104B20000530022B18BF002784F82377B37C0133AC
:104B3000B37413B0BDE8F08F2DE9F84F90F8047707
:104B4000904604460D46CF1B1C26FFF77FFA06FB56
:104B500005460836474329462046FFF713FE96F8D8
:104B600001B094F8072718FB0BF999FBF0F35FFAF3
:104B700083F900FB09FA9AFBFBFACAEB080A322A0E
:104B80005FFA8AFA0ED12046FFF760FA737818FBB5
:104B900003F800FB08F829462046FFF7F3FDB8FBB1
:104BA000F0F036E094F8002743F300032A449342E0
:104BB000204631D0FFF74AFA09FB00F92046FFF7FB
:104BC00045FA8046204694F807B7FFF73FFAC0EB56
:104BD000090007442046FFF739FA73781AFB03FAF5
:104BE00000FB0AFA29462046FFF7CCFD4FEA4B0BA3
:104BF00094F8073708FB0BFB4FF06408C3EB08037E
:104C00005B00BAFBF0F0BBFBF8FB58435F44B0FB22
:104C1000F8F03844BDE8F88FFFF718FA09FB00797F
:104C20002046FFF713FA73781AFB03FA00FB0AFA1F
:104C300029462046FFF7A6FD94F80737BAFBF0F0A7
:104C40005B0058436422B0FBF2F04844BDE8F88FA3
:104C500038B5431893F824376BB11C2303FB0104C8
:104C6000FFF790FDA579637A15FB00F090FBF3F058
:104C7000C0F3870038BD184638BD30B51C2505FB8C
:104C8000010113464A7C012A044601F1100508D1AE
:104C900094F81017EA78D0F80408BDE83040FFF720
:104CA00013B930BD531A002BB8BF5B42013380F8F3
:104CB00005370A4B91421B7805D201EB031180F8AE
:104CC0000417002304E002EB031280F804270123F9
:104CD00080F80837012380F821377047B0BCFF1FE8
:104CE000044A054B1360054A1360054A136009F036
:104CF00055BE00BF0891FF1F032000380491FF1F1D
:104D00000091FF1F08B501F10803DBB2072B09D89A
:104D1000012202FA03F313F0DD0F03D000680368E9
:104D20001B68984708BD10B504460AF0F3F82060E8
:104D3000204610BD2DE9F743BB4B1A680092009A3C
:104D400002601B680193019B436004462D3000F014
:104D50006FFE04F12F0001F025F904F1300001F09D
:104D600021F9B24B1A46194652F8040B60641068D8
:104D7000A0649868E06451F80C0F496804F150028F
:104D800003C2194604F1580251F8140F496804F19E
:104D9000600603C203F11C023433106851683546C3
:104DA00003C508329A422E46F7D1A14B04F178028E
:104DB00003F1080618685968154603C50833B3425D
:104DC0002A46F7D118689B88AB809A4B286004F17B
:104DD000860203F10C0153F8040B42F8040B8B42DA
:104DE000F9D11B881380944B04F1940203F1080657
:104DF00018685968154603C50833B3422A46F7D1E7
:104E000018689B88AB808D4B286004F1A20203F1E7
:104E10000C0153F8040B42F8040B8B42F9D11B88A8
:104E20001380874B04F1B00203F108061868596833
:104E3000154603C50833B3422A46F7D118689B8844
:104E4000AB80804B286004F1BE0203F10C0153F8E3
:104E5000040B42F8040B8B42F9D11B8813807A4B68
:104E600004F1CC0203F1080618685968154603C519
:104E70000833B3422A46F7D118689B882860AB8074
:104E800000210E2204F1DA0009F0A4FE4FF47A6347
:104E900040F6B83841F6583742F21076A4F8DE30C2
:104EA00042F22833694DA4F8E23000210E22A4F822
:104EB000DC80A4F8E070A4F8E46004F1E80009F0F4
:104EC00089FE41F27073A4F8EE302B68C4F8F63016
:104ED0006B68C4F8FA3041F288392B89A4F8FE30A7
:104EE00000210E22A4F8EA80A4F8EC90A4F8F07057
:104EF000A4F8F26004F5807009F06CFE05F10A0276
:104F00001A35A4F80281A4F80491A4F80671A4F853
:104F1000086104F587712B4652F8040B41F8040B25
:104F2000AA42F9D11A68C4F81E215A681B89A4F84C
:104F30002631474BC4F822215968186804F5947249
:104F400003C21989118003F10A0204F5997116331D
:104F500052F8040B41F8040B9A42F9D113880B80E4
:104F60003C4B04F5A07203F1080618685968154611
:104F700003C50833B3422A46F7D118689B88AB8033
:104F8000354B286004F5A77203F10C0153F8040BAC
:104F900042F8040B8B42F9D11B8813802F4A10680A
:104FA000516804F5AE7303C39068186004F5B476D5
:104FB00002F10C03243218685968354603C50833DA
:104FC00093422E46F7D10723082005220C2184F8AE
:104FD000813184F8823184F8833184F8843184F813
:104FE000853184F8863184F8873184F8883184F8F3
:104FF000893184F88B3184F88C0184F88F3184F8FE
:10500000903184F891312046062384F8801184F889
:105010008A2184F88D2184F88E2184F8923184F8D5
:10502000931103B0BDE8F08308BDFF1FC6890100DE
:10503000FA890100088A0100168A0100248A010009
:10504000328A0100408A01004E8A01005C8A010018
:10505000808A0100988A0100A68A0100B48A0100B2
:1050600013B504461C30FFF75EFE04F13800FFF76D
:105070005AFE04F13C00FFF756FE144B1B680193E7
:10508000019B636604F16800FFF754FE04F5FE70AF
:1050900006F0DEF804F5167001F008F804F5D460A7
:1050A000FDF780F904F2F460FBF7BBFC04F2AC708E
:1050B00000F020FD04F5016000F01CFD04F6840002
:1050C000FFF731FE204602B010BD00BF08BDFF1F34
:1050D0002DE9F04F8BB004468A4660486049159E22
:1050E00009921D4604F16807FBF709FA04F5016C03
:1050F000149BC4F88038614638465246C4F878A8F4
:10510000C4F87C5866600096CDF81CC0FDF76EFDB3
:10511000284600211022042300970196FFF78EF9FC
:1051200005F60C0001211022042300970196FFF7D9
:1051300085F905F5805018300221102204230097CC
:105140000196FFF77BF905F5C150043003211022C9
:10515000042300970196FFF771F904F1080B099BEE
:10516000009304F51679484629465A46334600F01E
:10517000D3FFDDF81CC0019504F5FE7304F2F4685A
:10518000184608933946634604F2AC72CDF80080A5
:10519000CDF808B0CDF80C90049606F0B9F804F5F7
:1051A000D46029463246FDF76DF9099B58468DE8D3
:1051B000480039462A46534608F0C6FB149B404631
:1051C0008DE848003946274B2A46FCF7B7F9264BAD
:1051D0001B786BB125492148FBF791F94046FDF753
:1051E000BCF84046FCF7C2F81C482149FBF787F998
:1051F0004046FCF79FFD1F4B00261E701F4640F6E1
:105200000C0000FB0650F2B239780136FFF744F982
:10521000042EF4D14046FBF77BFC18B1484601F060
:105220009DF803E00D481449FBF769F94046FCF787
:1052300077FD28B9484601F0E9F808480F4901E030
:1052400006480F49FBF75BF90898012106F042F97F
:10525000002323700BB0BDE8F08F00BF10BFFF1F0D
:10526000D88A0100A1C0FF1FC5BCFF1FF48A01003E
:10527000428B0100C4BCFF1F7B8B0100928B01009D
:10528000AF8B010000F5D4600021FDF703BC0830AE
:1052900008F0AABB083008F07DBD0346D0F87408BA
:1052A000D3F8781808F002BF2DE9F8439DF8207074
:1052B000013FFFB20F2F04460D469146984623D872
:1052C000CEB2330620D5E02917D8806C026847EAB1
:1052D000060113689847A06C066809F07F013368DF
:1052E00005F0EF059847C02D0ED0A06C026808F0BD
:1052F0007F0113689847BDE8F883F72904D948303F
:10530000BDE8F843FFF7FEBCBDE8F88390F86620DF
:10531000F12A10B5034670D018D8B02A35D008D875
:10532000902A26D0A02A45D0802A40F081800468A7
:1053300041E0D02A49D004D8C02A08BF026945D02C
:1053400010BDE02A23D0F02A48D010BDFA2A14D08C
:1053500007D8F32A61D052D3F62A64D0F82A0AD0AB
:1053600010BDFC2A0DD00AD3FE2A0CD0FF2A5CD037
:1053700010BD44681FE0036B58E0436B56E0836B3D
:1053800054E0C36B52E0036C50E0C46813E08269E0
:10539000002A4DD093F8671090F8680001F07F0163
:1053A00000F07F0041EAC011A1F5005193F86500BB
:1053B000904710BD8468002C3AD093F8650093F8AC
:1053C000671093F86820A04710BD4269002A2FD0CB
:1053D00093F8650093F86710904710BDC2693AB31F
:1053E00090F8680093F8671041EA0021802928BFEF
:1053F000802103F16900904710BD026A0EE0426A05
:10540000B2B190F8680093F8673000F07F0003F0C5
:105410007F0343EAC010904710BD826A42B193F8FF
:105420006700904710BDC36A00E0436C03B1984722
:1054300010BDF7B590F864200B46D107044640F143
:105440008B80520800F0888090F8661081F0800010
:1054500060281ED894F86500984204D0D3F1010367
:1054600038BF002300E00123022A04D0032A05D01C
:10547000012A71D104E0002B6ED001E0002B6BD12A
:10548000009094F8672094F868302046FFF70CFFEE
:1054900062E0A1F1F0030F2B5ED8DFE803F00F49C3
:1054A00031245D5D085D085D0808085D080804F1A9
:1054B000480003B0BDE8F040FFF724BC94F86860F2
:1054C00094F8673043EA0626802E28BF802604F130
:1054D00069070025B5423FD0A06C795D03681B6861
:1054E00098470135F6E7A06C94F867500368F321FC
:1054F0001B689847A06C036805F07F01DB6C15E022
:1055000094F8673094F86850A06C43EAC5150368B6
:10551000F2211B689847A06C036805F07F019B6C23
:105520009847A06C03689B6CC5F3C611984713E0BD
:1055300094F8675094F86830A06C03F00F0305F0FE
:10554000070543EA05150368F1211B689847A06C1D
:10555000036829461B68984703B0F0BD00F0CF03ED
:10556000802B08D0D02806D0E02804D0B0F1C003AA
:105570005842584170470120704703060DD500F18D
:105580000C03DBB2012B08D9F92806D0FD2804D082
:10559000EF2803D800F0F0007047002070472DE995
:1055A000F04190F84C60102E044600F23181806C7E
:1055B00003689B689847002800F02A81A06C036864
:1055C000DB689847C5B205F0FB03F92B074600F0EE
:1055D0001F81A26D002A75D194F84D8084F84F5038
:1055E0004046FFF7CAFFFFF7B9FF38B13B0605D4C5
:1055F000012384F84F8084F85050A36594F84F50ED
:105600002846FFF7BAFFF1283CD01DD8B0283BD080
:1056100007D8902838D0A02836D0802840F098802D
:1056200032E0D0282ED002D8C0282BD090E0E0283D
:105630002AD0F02840F08C8080236365002384F812
:105640004D3084F8690021E0F8280CD005D8F32803
:1056500018D019D3F62806D07AE0FA2878D3FC2897
:1056600001D9FE2874D30023012284F8660084F84F
:10567000653084F8673084F8683084F8E920A365E1
:105680006365A9E0022300E003236365626DA36DF7
:10569000013A934213D394F8503084F8673005F000
:1056A0000F050023013584F86830A3656365012385
:1056B00084F8660084F8655084F8E9308CE00133A2
:1056C000A365A5E03F062FD5A5F1F70008282BD844
:1056D000012101FA00F010F4DD7302D1C0070CD4EF
:1056E00022E0002384F8665084F8673084F868303C
:1056F00084F8653084F8E9106EE094F86900F028C9
:1057000027D1551C2244F72782F8697084F8675026
:105710002D0A84F8660084F8685084F8653084F8AF
:10572000E910A365636551E094F84F30D4F85480D4
:10573000F02B04EB02030CBF83F8695083F84F5041
:1057400008F1FF339A4244D394F84F70F02F05D1FB
:105750000023A365636584F84D3059E03846FFF7B0
:105760000CFF84F866000546FFF7F8FE28B107F045
:105770000F03013384F8653001E084F8650094F884
:10578000503084F86730B8F1030F4FF0000314BFB6
:105790001A4694F85120A3656365B02D4FF00103BC
:1057A00084F8682084F8E9300CD005D8902D09D011
:1057B000A02D07D0802D04E0D02D03D0E02D01D006
:1057C000C02D02D184F84D7006E0002384F84D30DE
:1057D00002E00132A2651BE094F86630902B02D102
:1057E00094F86830B3B194F8662094F8653082F08C
:1057F0008002602A03D8B34201D000251EB920469A
:10580000FFF784FD012520463146FFF712FE05E033
:10581000002503E0802384F86630E4E72846BDE8ED
:10582000F081FFFF30B542F210718BB0044600F5F5
:10583000FE7007F0D9FE09F06DFBD4F8843842F20F
:105840001072C01A904203D994F8F436002B44D158
:1058500094F841302BB104F5167049F6404104F03C
:10586000F1FD234B1B78002B40D0224B1B784A2B99
:105870003CD1214906A808F036FF217802A808F09B
:1058800068FF02A906A808F0F0FF01461B4808F0CF
:1058900040FE1A4808F05EFE02A808F0E4FE01256A
:1058A00006A808F0E0FE2278D4F878080095902148
:1058B0007F23FFF7F9FC00232278D4F878080095BD
:1058C0008021FFF7F1FCD4F87808FFF768FE237811
:1058D0002B4403F07F03237008E004F2F460FCF72C
:1058E0009FFA09F017FBC4F88408B1E70BB030BD8C
:1058F000BBBCFF1FB1BCFF1FBF8B010010BFFF1F50
:10590000064B10B5064C1C60064B1C60064B1C6019
:1059100009F044F8054B1C6010BD00BF1891FF1F33
:10592000032000381091FF1F0C91FF1F1491FF1FDF
:10593000054BDA6A12F0F00F18BF9B6B4FF2F003C1
:105940001340002BF4D1704700C0024010B5184B33
:105950001A7802B372B61B78D90707D5154A1649CB
:10596000146809682140154C216011609A0707D519
:10597000134A1149146849682140104C6160116054
:105980005B0707D50F4B0C4A196892680A400B4910
:105990008A601A6062B60C4BDA68824207D00B4A02
:1059A0001A60D8600A4A40F0804018611A6010BD41
:1059B000A0C0FF1F80E100E088C0FF1F94C0FF1F50
:1059C00084E100E088E100E000C0024001401F00E7
:1059D00000001F80054B4FF00042DA625863DA6A1C
:1059E000002AFCDA014B986BC0B2704700C002403D
:1059F0000A4B1B788BB1D90703D5094A1168094AAC
:105A000011609A0703D5064A5168074A11605B077F
:105A100003D5034B9A68054B1A607047A0C0FF1F5F
:105A200094C0FF1F00E100E004E100E008E100E0B5
:105A30007047FFFF10B5002304460170437008460D
:105A4000012109F0E5F92278064B53F832300122A2
:105A500083F88020044B4FF038421A60BDE81040B4
:105A60000BF0FABBB40B02001C91FF1F2DE9F341B0
:105A7000174604468846FFF75BFF114B114E186826
:105A8000FFF764FF23788DF8067056F83330012550
:105A900083F8005101A83B0A032108F130088DF872
:105AA00005308DF804800BF0ABFD237856F83330C9
:105AB00083F88050FFF79CFF02B0BDE8F08100BF83
:105AC0001C91FF1FB40B0200014B024A1A60704781
:105AD0001C91FF1F03200038054BDA6A12F0F00F0B
