:1000000000800020BD010000A9CC000075CC0000DC
:1000100075CC000075CC000075CC000075CC0000DC
:1000200075CC000075CC000075CC0000A9CC000098
:10003000A9CC000075CC0000A9CC000065CC000064
:10004000A9CC0000A9CC0000A9CC0000A9CC0000DC
:10005000A9CC0000A9CC0000A9CC0000A9CC0000CC
:10006000A9CC0000A9CC0000A9CC0000A9CC0000BC
:10007000A9CC0000A9CC0000A9CC0000A9CC0000AC
:10008000A9CC0000A9CC0000A9CC0000A9CC00009C
:10009000A9CC0000A9CC0000A9CC0000A9CC00008C
:1000A000A9CC0000A9CC0000A9CC0000A9CC00007C
:1000B000A9CC0000A9CC0000A9CC0000A9CC00006C
:1000C000A9CC0000A9CC0000A9CC0000A9CC00005C
:1000D000A9CC0000A9CC0000A9CC0000A9CC00004C
:1000E000A9CC0000A9CC0000A9CC0000A9CC00003C
:1000F000A9CC000029D60000A9CC0000F1F0000036
:10010000A9CC000029DB0000A9CC0000A9CC00008C
:10011000A9CC0000A9CC0000A9CC0000A9CC00000B
:10012000A9CC0000A9CC0000A9CC0000A9CC0000FB
:10013000A9CC0000A9CC0000A9CC0000A9CC0000EB
:10014000A9CC0000A9CC0000A9CC0000A9CC0000DB
:1001500095C20000ADC20000C5C20000DDC20000B3
:10016000A9CC00008DDD0000A9CC0000A9CC0000C6
:10017000A9CC0000A9CC0000A9CC0000A9CC0000AB
:10018000A9CC0000A9CC0000A9CC0000A9CC00009B
:10019000A9CC0000A9CC0000A9CC0000A9CC00008B
:1001A000A9CC0000A9CC0000A9CC0000A9CC00007B
:1001B000A9CC0000A9CC00005DBF0000564B4CF25A
:1001C000205210B51A804DF628121A8000BF00BFC9
:1001D0000CF06EFD514B4FF010621A60504A9A605D
:1001E000504ADA60A3F53043203B1A6812F480725B
:1001F00004D14D490A604FF4A8521A604B4B1A784B
:10020000110703D51A7842F008021A70484B2A22C7
:100210001A700023474A48499818884204D247492F
:10022000595899500433F5E7454A464B9A424FF0E6
:10023000000302D242F8043BF7E74349434A5958C6
:1002400099500433B3F5DE7FF7D1414B802103F899
:10025000011B40498B42F9D13F4B1A603F4B8A2228
:100260001A70A3F5805324225A70A0221A709A792A
:100270009207FCD59A79D406FCD4394B9A7902F0CE
:100280000C02082AF9D103221A7146225A719A796E
:100290009006FCD5324B9A795106FBD5314A4FF086
:1002A000827111600921516020221A702C4B9B79B8
:1002B00003F00C030C2BF9D12B4B2C4A1A602C4B5E
:1002C0002C4A1A6000225A60072243F8042C2A4A5A
:1002D000C3F80C2D62B60CF077FE134B1B68DA07DF
:1002E00005D526480CF08AFD254B264A1A60264B78
:1002F0001B785B0609D5224C224A2368934204D11D
:100300001E480CF07BFD0023236015F0FBF90CF078
:10031000D5FC0CF0E3FBFEE70E20054030800440E6
:10032000823F04000100002B14D0034002D007409C
:1003300000E00740708DFF1FBC91FF1FD4F7010044
:10034000C091FF1F6CE1FF1F000000000082FF1F33
:1003500000E400E05FE400E008ED00E0005006404B
:10036000004006404480044004800440C010050062
:1003700014E000E0BFD4010000002020574740599E
:100380001CE00340A5C3945A00F00740FFFFFFFFA5
:10039000FFFFFFFFFFFFFFFFFFFFFFFFFFFFFFFF6D
:1003A000FFFFFFFFFFFFFFFFFFFFFFFFFFFFFFFF5D
:1003B000FFFFFFFFFFFFFFFFFFFFFFFFFFFFFFFF4D
:1003C000FFFFFFFFFFFFFFFFFFFFFFFFFFFFFFFF3D
:1003D000FFFFFFFFFFFFFFFFFFFFFFFFFFFFFFFF2D
:1003E000FFFFFFFFFFFFFFFFFFFFFFFFFFFFFFFF1D
:1003F000FFFFFFFFFFFFFFFFFFFFFFFFFFFFFFFF0D
:10040000FFFFFFFFFFFFFFFFFFFFFFFFDEF9FFFF23
:1004100010B5054C237833B9044B13B10448AFF33E
:1004200000800123237010BDC091FF1F0000000059
:10043000D4F7010008B5064B1BB106480649AFF3D7
:1004400000800648036813B1054B03B1984708BD07
:1004500000000000D4F70100C491FF1FBC91FF1FF2
:10046000000000000369C268934210B509D2826897
:100470005C1C0461D154826803690021D1540120BD
:1004800010BD002010BD44F2040210B58358CC18F2
:10049000B4F5804F07D8033121F00301194481508E
:1004A0001844043010BD002010BD18B111B101393D
:1004B0000068FAE7704738B504460D4634B128465F
:1004C000616815F055FA08B12468F7E7204638BD91
:1004D00038B5044608460D4615F077FA23680246FB
:1004E0005B6820462946984738BD38B504460BF06E
:1004F00012FF054620460BF02FFF284438BD38B5C3
:100500000446FFF7E5FF054620460BF025FF28448B
:1005100038BD38B58368144642680546E0189042F5
:1005200002D993420AD2D41A28682246184411F0FC
:1005300049FBAB682344AB60204638BD002038BD82
:1005400010B504460068FFF7C3FF63681844606095
:1005500010BD30B587B000228DF815200B4605AAD6
:100560000A25B3FBF5F405FB14333033114602F8CA
:1005700001392346002CF3D1FFF7E2FF07B030BD6D
:1005800010B50446006803681B6898476368184400
:10059000606010BD70B504460D4619B91249FFF7E9
:1005A000CFFF70BD2221FFF7EBFF013D15F8012FB2
:1005B0007AB10E4B13F8026C86B1023313F8031CA8
:1005C0009142F7D120465C21FFF7DAFF2046314601
:1005D00006E020462221FFF7D3FF70BD20461146DA
:1005E000FFF7CEFFE2E700BF686201006F62010023
:1005F00008B503280AD8DFE800F0021105074FF01C
:100600007E5008BD064808BD064808BD0438C0B283
:10061000FFF7EEFF04490FF0CFFB08BD034808BD0C
:100620000AD7233C6F12833A17B7D138CDCCCC3DD3
:100630002DE9F041054608460C46174613F0B6FF73
:1006400010B92846494911E0204600210FF052FD1B
:1006500028B128462D21FFF793FF04F100442046DE
:1006600013F0A4FF012805D141492846FFF768FF90
:10067000BDE8F08120463F490FF05AFD20B92046E1
:100680003D490FF037FD00B30026204600210FF052
:1006900027FD68B920464FF07E510FF02BFD38B191
:1006A000204636490FF088FB013EB6B20446ECE71F
:1006B000204632490FF03CFD40B120462F490FF053
:1006C0002FFC0136B6B20446F2E706463846FFF77D
:1006D0008FFF4FF07C510FF06FFB014620460FF06B
:1006E00063FA04460FF054FD80460FF00DFB0146FF
:1006F00020460FF057FA414604462846FFF729FFE7
:100700001FB128462E21FFF73BFFCFB11B492046E2
:100710000FF052FB04460FF03BFD5FFA80F84046B5
:100720000FF0F2FA014620460FF03CFA08F13001D2
:100730000446C9B22846013FFFF722FFFFB2E4E7B3
:1007400034B2002C06DA28460D49FFF7F9FE284698
:10075000614206E03EB128466521FFF711FF2846B9
:100760002146FFF7F6FEBDE8F08100BF7C62010084
:100770008062010000007A446F12833A0000204139
:1007800089620100024608B5084619B10B68114696
:100790001B68984708BDFFFF38B5084C236813F065
:1007A000010509D120460CF0A2FA28B1044B2046DD
:1007B0001D605D600CF0A1FA014838BDF091FF1F8B
:1007C000DC91FF1F08B54068FFF775FE20B1037A82
:1007D000062B01D1C06808BDFFF7DEFF08BDFFFF93
:1007E00038B5084C236813F0010509D120460CF0F8
:1007F0007EFA28B1044B20461D605D600CF07DFA46
:10080000014838BDEC91FF1FE491FF1F03780D2BC9
:1008100009D003D8093B012B23D804E0202B02D0B8
:100820002F2B02D070470130F0E743782A2B02D0FB
:100830002F2B0DD07047831C1A7818460133002ADD
:10084000E4D02A2AF8D11A782F2AF5D10230DDE730
:10085000831C184613F8012B002AD7D00A2AF8D196
:10086000D4E7704738B5044600680D46FFF7CEFF61
:100870000378AB4205D10130FFF7C8FF20600120AB
:1008800038BD002038BDFFFF70B54268846813781A
:10089000272B01D0222B27D15178551C51B39942D7
:1008A00001D1951C26E05C290BD1951C9178154A45
:1008B00016782EB18E4201D1517801E00232F7E76D
:1008C000C1B104F8011B2A46E6E723F020014139B3
:1008D000192905D92B2B03D0A3F12D01012909D802
:1008E00004F8013B12F8013FA3F130010929154634
:1008F000F6D9EAE7002304F8013B83684560846089
:10090000184670BD71620100027838B505460C4684
:10091000072A3CD8DFE802F041241F302B27041BB4
:10092000456808465B21FFF72BFE6D682DB1281D39
:100930002146FFF7E9FF2D6825B920465D21FFF725
:100940001FFE38BD20462C21FFF71AFEEFE7406856
:1009500000F028F838BD08466968FFF71BFE38BD6F
:100960000846696810E008462D21FFF709FE204679
:100970006968FFF7EEFD38BD4168084B084A20461C
:1009800000290CBF11461946FFF7DAFD38BD083AB9
:100990000846D2B26968FFF74BFE38BD8C62010091
:1009A0009162010070B505460C4608467B21FFF7B1
:1009B000E7FD6D687DB12E46204656F8041FFFF70F
:1009C000E9FD20463A21FFF7DBFD301D2146FFF708
:1009D0009BFF2D6825B920467D21FFF7D1FD70BD15
:1009E00020462C21FFF7CCFDE5E710B50446214653
:1009F0000820FFF7C7FE18B100230460436010BD54
:100A0000FFF7CAFE10BD10B5044621460820FFF7C7
:100A1000B9FE18B100230460436010BDFFF7E0FE8B
:100A200010BDFFFF037810B5052B1BD8DFE803F0DE
:100A30001E0808030305406810BD4068404210BD11
:100A400044685CB10A48214614F092FF40B1204648
:100A500000210A22BDE8104015F054B8204610BD10
:100A6000012010BD40680FF06DFB10BD002010BDCF
:100A70008C620100037810B5052B14D8DFE803F071
:100A8000170505030303406810BD44688CB10B488B
:100A9000214614F06DFF70B1204600210A22BDE806
:100AA000104015F0B5B840680FF072FB10BD002083
:100AB00010BD204610BD012010BD00BF8C6201009A
:100AC00070B504460CF04CFAE0640CF049FA254687
:100AD0000023206545F8583F4FF48A700CF02EF93A
:100AE000294606460BF028F9E66604F1740012F078
:100AF00015F804F1940012F011F8204670BDFFFFC4
:100B0000F8B504460D46114811491F461646FFF731
:100B1000F6FC069BA5646665A7662367162011F0A0
:100B20006FFB18B909480B49FFF7E9FC0023637014
:100B3000A370E370E21801330021402B9171F9D1C9
:100B400005490248FFF7DBFCF8BD00BF98DCFF1F3A
:100B500097620100C5620100EB620100002138B517
:100B60000A46054601F0CCFA02241E4B23442146D6
:100B7000284633F8022C023401F0C2FA0A2CF4D1D0
:100B8000194B23442146284633F80A2C023401F03D
:100B9000B7FA122CF4D1154B23442146284633F8DA
:100BA000122C023401F0ACFA1A2CF4D1104B23446D
:100BB0002146284633F81A2C023401F0A1FA2A2CD7
:100BC000F4D10C4B23442146284633F82A2C023416
:100BD00001F096FA3A2CF4D107490848FFF78FFC48
:100BE00038BD00BF528FFF1F4A8FFF1F7A8EFF1F35
:100BF000508EFF1F608EFF1F2663010098DCFF1FD1
:100C000038B50021054601F08DFA4FF6FF73984282
:100C100018BF022418D128492848FFF770FC26493C
:100C20002648FFF76CFC24492448FFF768FC22495A
:100C30002248FFF764FC20492048FFF760FC1E496A
:100C40001E48FFF75CFC38BD2146284601F06AFAD1
:100C50001B4B234402340A2C23F8020CF4D1214606
:100C6000284601F05FFA174B23440234122C23F874
:100C70000A0CF4D12146284601F054FA124B2344C1
:100C800002341A2C23F8120CF4D12146284601F024
:100C900049FA0E4B234402342A2C23F81A0CF4D1BF
:100CA0002146284601F03EFA094B234402343A2CEF
:100CB00023F82A0CF4D138BD5063010098DCFF1FE3
:100CC000528FFF1F4A8FFF1F7A8EFF1F508EFF1F0C
:100CD000608EFF1F0803704710B588B00023013AEB
:100CE000059106920B7003AA064C8DF8103001A9ED
:100CF0000394079301920293FFF754FE029808B001
:100D000010BD00BF5062010010B504460C202168E0
:100D1000FFF738FD10B100230360037163682BB146
:100D20001A680AB11346FBE7186010BD606010BD79
:100D300010B50C46FFF7E8FF20B12378836004224A
:100D40000271012010BD10B50C46FFF7DDFF48B160
:100D500094F90030002BAEBF04225B4205220271E1
:100D60008360012010BD10B5044610202168FFF7F4
:100D700009FD10B100230360037263682BB11A6888
:100D80000AB11346FBE7186010BD606010BD2DE985
:100D9000F3410446074654F8040BFFF734FE7B2169
:100DA00006462046FFF75EFD002833D020467D2111
:100DB000FFF758FD88BB3846FFF766FD804648B30D
:100DC00020463A21FFF74EFD20B302AD00233846FE
:100DD000694605F8083D00F024F8D8B1706841462E
:100DE000FFF769FB28B93046FFF7BDFF90B1C0F8A7
:100DF000048000F1080395E8030083E8030020461F
:100E00007D21FFF72FFD40B920462C21FFF72AFD59
:100E10000028D0D1FFF7E4FC00E0304602B0BDE886
:100E2000F08170B50446007B0D46002834D00138AF
:100E300020736068FFF7EAFC606003785B2B02D0E8
:100E40007B2B07D012E0204600F027F803685BB147
:100E5000062305E02046FFF79AFF036823B1072326
:100E600068602B70012014E0184612E0272B03D095
:100E7000223B5E425E4100E001262046FFF704FD72
:100E800038B1012216B102232B7000E02A7068608D
:100E90001046237B0133237370BDF7B50446074624
:100EA00054F8040BFFF7A1FD5B2106462046FFF72F
:100EB000D9FC08B320465D21FFF7D4FCF8B902AD98
:100EC00000233846694605F8083DFFF7AAFF98B1A8
:100ED0003046FFF719FF78B1031D95E8030083E85A
:100EE000030020465D21FFF7BDFC40B920462C21C0
:100EF000FFF7B8FC0028E2D1FFF74EFC00E03046D7
:100F000003B0F0BD70B5054640680E461446FFF7C5
:100F1000D2FA20B92846FFF726FF50B14660236871
:100F2000002B08BF00240CBF002306230372C460FB
:100F3000012070BD70B5054600680E4610B9FFF778
:100F40002BFC70BDFFF751FD044631462846224672
:100F5000FFF7D8FF204670BD2DE9F04FADF5804D6D
:100F600087B004468DF80E30694B049304A844F210
:100F700004038DF80F200022C2500291FFF743FDB9
:100F800064498246FFF7D6FF9DF80F20636D40F657
:100F9000081606FB023101F602010546FFF7C8FEFE
:100FA0009DF80F20636D06FB023101F60B01284608
:100FB000FFF7BEFE9DF80F20636D06FB023101F6C0
:100FC00006012846FFF7B4FE9DF80F20636D06FB6F
:100FD000023101F607012846FFF7AAFE0DF10F01C5
:100FE0002846FFF7A5FE0DF10E012846FFF7A0FEEB
:100FF0009DF80F20636D06FB023101F6DD012846E6
:10100000FFF7A1FE9DF80F20636D06FB023101F68C
:101010000C012846FFF78CFE9DF80F20636D06FB40
:10102000023101F60D012846FFF782FE9DF80F20E0
:10103000636D06FB023101F60F012846FFF778FECB
:101040009DF80F20636D06FB023101F50161284612
:10105000FFF76EFE9DF80F20636D06FB023101F66F
:1010600011012846FFF764FE9DF80F20636D06FB13
:10107000023101F612012846FFF75AFE9DF80F20B3
:10108000636D06FB023101F613012846FFF750FE9F
:101090009DF80F20636D06FB023101F6140128460E
:1010A000FFF746FE9DF80F20636D06FB023101F647
:1010B00015012846FFF73CFE9DF80F20636D06FBE7
:1010C000023101F616012846FFF732FE9DF80F2087
:1010D000636D06FB0231284601F61701FFF728FE73
:1010E000DAF8000018B9FFF757FB834607E0FFF76F
:1010F0007CFC8346084950465A46FFF703FF4FF0F1
:101100000009DBF8000048B9FFF746FB054618E088
:101110006062010018840100E5630100FFF765FCCF
:1011200005465846FFF7F0FD58B12B68002B019B90
:1011300018BF2B4601930CBF002306230371019BAC
:1011400083602846FFF7E0FD18B104230371C0F85F
:1011500008909DF80F20636D40F608164FEA491776
:1011600006FB023139442846FFF7E2FD9DF80F20C7
:10117000636D791C06FB023319442846FFF7D8FD3E
:101180009DF80F20636DB91C06FB023319442846F5
:10119000FFF7CEFD9DF80F20636DF91C06FB0233AF
:1011A00019442846FFF7C4FD9DF80F10636D06FB38
:1011B0000133D91904312846FFF7BAFD9DF80F1005
:1011C000636D07F1080806FB013303EB08010431E6
:1011D0002846FFF7B8FD9DF80F10636D06FB01333D
:1011E000D91905312846FFF7A3FD9DF80F10636D4F
:1011F00006FB0133D91906312846FFF799FD9DF802
:101200000F20636D06FB0233D91907312846FFF71B
:101210008FFD9DF80F20636D06FB02314144284687
:10122000FFF786FD9DF80F10636D06FB013303EB9E
:10123000080101312846FFF77BFD9DF80F10636D13
:1012400006FB013303EB080102312846FFF770FD6E
:101250009DF80F10636D06FB013303EB08010531A8
:101260002846FFF765FD9DF80F10636D06FB0133FF
:1012700003EB080106312846FFF75AFD9DF80F10D1
:10128000636D06FB013303EB080107312846FFF7C6
:101290004FFD9DF80F20636D06FB023606EB08013B
:1012A0002846033109F10109FFF742FDB9F1400F6A
:1012B0007FF427AF504602994FF48052FFF70CFDA0
:1012C0000DF5804D07B0BDE8F08F00BF2DE9F04768
:1012D00088B004468A46914600F0B7FB0546EEB258
:1012E000A3199B791BB1204600F050FCF7E70125BC
:1012F000E5700BF035FE2065384814F04BFB2946AD
:1013000007464FF4805014F0DDF9804641462046F0
:1013100052464B46FFF720FE10F000FF0028FBD09E
:1013200004A8394611F016F804AA04F158030DF187
:10133000180E154603CD7545186059602A4603F10D
:101340000803F6D128681860AA889A80A06D50BB5F
:1013500023492448FFF7D3F8234904A80BF0C5F824
:10136000394668460BF0C1F8694604A80BF05AF9F3
:1013700001461C48FFF7B9F868460BF076F804A858
:101380000BF073F817481649FFF7B9F8404614F008
:10139000E7F9384614F0E4F90023E37001232370E1
:1013A00008B0BDE8F0873303E56D236603F580528E
:1013B000AA4210D9AB4208D2ED1A18442A46414637
:1013C00010F0ECFC236E1D442566204631460122B8
:1013D00000F038FBDAE74FF48055EEE7EA630100EE
:1013E000F363010098DCFF1F0264010070B505463D
:1013F00016460024064B1B782341DB0704D52846FC
:10140000E1B2325DFFF762FF0134042CF2D170BD0E
:10141000498FFF1F08B54068FFF747F818B104303F
:10142000FFF728FBC0B208BD08B54068FFF73DF8DC
:1014300018B10430FFF7F6FAC0B240B208BD08B5E3
:101440004068FFF732F820B10379062B01D180689C
:1014500008BDFFF7A1F908BD2DE9F04FADF5804DAE
:1014600099B0934B169318AE8A4644F2040316A91A
:101470004FF0000846F8181D41F803808D4BB2600C
:10148000424518BF134605464FF00A0930467360BF
:1014900086F80C90FFF77BFC40F608146B6D8649CC
:1014A00004FB0AF4074603EB040BFFF78BF94146F4
:1014B000FFF7B0FF8BF802086B6D7F49384603EBEE
:1014C0000408FFF77FF90121FFF7A4FF88F80B0854
:1014D0006B6D7949384603EB0408FFF773F9022175
:1014E000FFF798FF88F806086B6D7349384603EBE1
:1014F0000408FFF767F90321FFF78CFF88F8070856
:101500006B6D6D49384603EB0408FFF75BF9042166
:10151000FFF780FF88F80A086B6D6749384603EBD0
:101520000408FFF74FF90521FFF774FF88F8090851
:101530006B6D6149384603EB0408FFF743F9062158
:10154000FFF772FF88F8DD086B6D5B49384603EBE7
:101550000408FFF737F90721FFF75CFF88F80C084C
:101560006B6D5549384603EB0408FFF72BF908214A
:10157000FFF750FF88F80D086B6D4F49384603EBB5
:101580000408FFF71FF90921FFF744FF88F80F0847
:101590006B6D4949384603EB0408FFF713F94946D8
:1015A000FFF738FF88F810086B6D4349384603EBA6
:1015B0000408FFF707F90B21FFF72CFF88F8110843
:1015C0006B6D3D49384603EB0408FFF7FBF80C212F
:1015D000FFF720FF88F812086B6D3749384603EB98
:1015E0000408FFF7EFF80D21FFF714FF88F8130840
:1015F0006B6D3149384603EB0408FFF7E3F80E2121
:10160000FFF708FF88F814086B6D2B49384603EB89
:101610000408FFF7D7F80F21FFF7FCFE88F815083C
:101620006B6D2549384603EB0408FFF7CBF8102112
:10163000FFF7F0FE88F816086B6D1F49384603EB7C
:101640000408FFF7BFF81121FFF7E4FE1B4988F8F3
:1016500017083846FFF7B6F86B6D2344804693F8B9
:10166000023813BB4FF00309154930460AF03DFF1D
:1016700051460EA80AF05CFF0EA930460AF0D2FFD0
:1016800010490AF0D8FF01460F48FEF72EFF0EA8BA
:101690000AF0EBFE30460AF0E8FEB9F10109E3D1A9
:1016A0006B6D2344102283F8022800260EE000BF51
:1016B000606201005067010018840100E5630100C9
:1016C0001D6401002664010098DCFF1F314640467E
:1016D000FFF7B5FE0121FFF79DFE3146039040461E
:1016E000FFF7ADFE0221FFF795FE3146049040461C
:1016F000FFF7A5FE0321FFF78DFE3146059040461A
:10170000FFF79DFE0421FFF785FE31460690404617
:10171000FFF795FE0521FFF77DFE31460790404615
:10172000FFF78DFE0621FFF77FFE31460890404609
:10173000FFF785FE0721FFF76DFE31460990404611
:10174000FFF77DFE0821FFF765FE31460A9040460F
:10175000FFF775FE0921FFF75DFE31460B9040460D
:10176000FFF76DFE0A21FFF755FE31460C9040460B
:10177000FFF765FE0B21FFF74DFE31460D90404609
:10178000FFF75DFE0C21FFF745FE314684464046DB
:10179000CDF808C0FFF753FE0D21FFF73BFE3146A1
:1017A00083464046FFF74BFE0E21FFF733FE3146DE
:1017B00082464046FFF743FE0F21FFF72BFE3146DE
:1017C00081464046FFF73BFE1021FFF723FE3146DE
:1017D00000904046FFF733FE0021FFF71BFE696DC6
:1017E000039A214440010B180A54049A5A70059A2E
:1017F0009A70069ADA70079A1A71099A5A710A9AB7
:101800009A710B9ADA710C9A1A720D9A5A72013601
:10181000009ADDF808C0DA72402E089A83F80AC0F0
:101820001A7383F80DB083F80EA083F80F907FF43D
:101830004DAF3868003018BF01200DF5804D19B04C
:10184000BDE8F08F2DE9F047044688B054480F46B4
:10185000914614F09FF8054610F060FC20B95149FC
:101860005148FEF74CFEF7E7284610F0F3FDC8B1EB
:1018700004A8294610F06EFD04F1580304AA0DF1E6
:10188000180A9846164603CE5645186059603246E7
:1018900003F10803F6D130681860B2889A80A36D0E
:1018A0002BB95DE0284613F05BFF012075E04FF493
:1018B000805013F04DFF394606464A46204600F058
:1018C000C4F8C0B20003206631464FF4805240464F
:1018D000FEF71FFE204639463246FFF7BDFD0028C1
:1018E00036D1304613F03CFF04A8294610F032FDF3
:1018F00004AA43469646BEE80300D64518605960E0
:10190000724603F10803F5D11068186092889A8036
:1019100026492548FEF7F3FD39464A46204600F0A1
:1019200094F8C0B20003206631464FF4805240461E
:10193000FEF7EFFD204639463246FFF78DFD38B9F8
:1019400031461948FEF7DBFD17481949FEF7D7FD68
:10195000304613F005FF284613F002FF00201CE07C
:10196000144904A80AF0C1FD294668460AF0BDFDE5
:10197000694604A80AF056FE0F490AF05CFE0146CB
:101980000948FEF7B2FD68460AF06FFD04A80AF0A8
:101990006CFD284613F0E4FE022008B0BDE8F08795
:1019A000406401004864010098DCFF1F5B64010093
:1019B000C664010036650100736501002DE9F04140
:1019C00006460D469046002448FA04F3DB0710D57E
:1019D000E7B2304639462A46FFF734FF012808D1DE
:1019E000736D40F6081000FB043029463A4602F0B9
:1019F00075FC0134042CE7D1014B1D70BDE8F0816A
:101A0000E8D9FF1F13B9044B1B780BB9FFF7D6BFFA
:101A1000024B1970704700BFF6D9FF1FF5D9FF1FA1
:101A2000044A054B1360054A1360054A13600AF027
:101A3000DBBF00BFFC91FF1F03200038F891FF1FA0
:101A4000F491FF1F01448A71704701EB82007047D7
:101A5000F0B504468DB0474813F09CFF054610F0E2
:101A6000F9FC00282ED1444904A80AF03EFD29467D
:101A700068460AF03AFD694604A80AF0D3FD3F49DA
:101A80000AF0D9FD0A2206464FF4802108A80AF080
:101A900062FD08A930460AF0C5FD01463848FEF748
:101AA00024FD08A80AF0E1FC68460AF0DEFC04A860
:101AB0000AF0DBFC10F018FC4FF4802102462846A7
:101AC00010F0D4FC284613F04BFE2E4813F062FFB2
:101AD000064610F0BFFCF0B908A82B490AF005FD36
:101AE000314604A80AF001FD04A908A80AF09AFDED
:101AF00001462348FEF7F9FC04A80AF0B6FC08A842
:101B00000AF0B3FC10F0F0FB4FF48021024630469F
:101B100010F0ACFC18E008A8314610F01BFC04F1F2
:101B2000580308AA0DF1280E1F46154603CD75452A
:101B3000186059602A4603F10803F6D12868186036
:101B4000AA889A80A36D7BB9304613F009FE10F085
:101B5000E5FA0028FBD0002384F846306370204665
:101B600000F092FA0DB0F0BD00232366384610F065
:101B7000BFFDE9E740640100A5650100BA65010009
:101B800098DCFF1FEA630100C26501002DE9F04FF8
:101B9000C6788DB004462EB10320C3E1731C402BE0
:101BA00004D01E46A519AB79002BF7D00BF0D8F95D
:101BB000E36C4CF25032C01A904240F20281AB48C2
:101BC00013F0E8FE8046AA4813F0E4FE074610F042
:101BD000A5FA002800F0C7804FF48050012113F0CF
:101BE00071FDAB79F6B2013B06F0030A8146032B87
:101BF00000F2B680DFE803F0022C89B208A839466B
:101C000010F0A8FB04F1580308AA0DF1280C9A461D
:101C10009646BEE80300E64518605960724603F137
:101C20000803F5D11068186092889A80A36D002B84
:101C300000F0C88031462046FFF74CF82066504639
:101C400010F06CFD0223AB710BF08AF9E06487E0C1
:101C500008A8414610F07EFB08AA04F158030DF1D4
:101C6000280C9646BEE80300E645186059607246A7
:101C700003F10803F5D11068186092889A80A36D6B
:101C8000002B40F0B5807B4904A80AF02EFC94F8A4
:101C9000461068460AF04CFC694604A80AF0C2FCEB
:101CA00075490AF0C8FC5146834608A80AF040FC72
:101CB00008A958460AF0B6FC01467048FEF715FC24
:101CC00008A80AF0D2FB68460AF0CFFB04A80AF085
:101CD000CCFB08A8394610F03DFB08AA04F15803D4
:101CE0000DF1280C9646BEE80300E64518605960E1
:101CF000724603F10803F5D11068186092889A8043
:101D0000A36D002B40F09080BEE008A8414610F083
:101D100021FB04F1580308AA0DF1280C9B469646B6
:101D2000BEE80300E64518605960724603F10803F7
:101D3000F5D11068186092889A80A36D002B00F08E
:101D4000CA8031462046FEF7C5FF2066584610F08F
:101D5000E5FC0BF005F90423E06400E00023AB711F
:101D6000484613F0FDFC384613F0FAFC404613F0E9
:101D7000F7FC00231D46E21892790AB10135EDB255
:101D80000133402BF7D12378DBB1D5B93C4908A802
:101D90000AF0ABFB0BF0E4F8216D0A22411A04A80B
:101DA0000AF0FFFB04A908A80AF03CFC01463348EE
:101DB000FEF79BFB04A80AF058FB08A80AF055FBA5
:101DC0002570AFE004A82B490AF08FFB94F8461069
:101DD00068460AF0ADFB694604A80AF023FC2949CD
:101DE0000AF029FC3946054608A80AF07EFB87E080
:101DF00020463146FEF76EFFE36D206600F5805207
:101E00009A420ED99842BFF464AFC0EB030BA36DA6
:101E1000494618445A460FF0D5FE236E5B442366AC
:101E200057E74FF4805BF2E731462046FEF752FF5A
:101E3000E66D206600F58053B34213D9B04209D253
:101E4000361AA36D3246184449460FF0A7FF236E99
:101E50001E4426660BF084F8E0640323AB71002374
:101E600063707DE74FF48056EBE700BFEA63010043
:101E700040640100F16501004266010098DCFF1F2B
:101E8000D86501001466010004A828490AF02DFB5A
:101E900094F8461068460AF04BFB694604A80AF01D
:101EA000C1FB23490AF0C7FB5146064608A80AF0C1
:101EB0003FFB08A930460AF0B5FB01461D48FEF776
:101EC00014FB08A80AF0D1FA68460AF0CEFA04A872
:101ED0000AF0CBFAC1E7154904A80AF006FB94F80A
:101EE000461068460AF024FB694604A80AF09AFBEB
:101EF00011490AF0A0FB5146054608A80AF018FB54
:101F000008A928460AF08EFB01460A48FEF7EDFABA
:101F100008A80AF0AAFA68460AF0A7FA04A80AF084
:101F2000A4FA1DE70DB0BDE8F08F00BFF165010018
:101F30007466010098DCFF1FA7660100044A054B88
:101F40001360054A1360054A13600AF04DBD00BFD7
:101F50000892FF1F032000380492FF1F0092FF1F0A
:101F600008B5FEF7B5FA08BD0A2200230AF004BA44
:101F700070B50668044630460D460AF079FD854284
:101F800003D0304629460AF087FD204670BDFFFF8A
:101F90002DE9F04186B004A80FF0FEFF304D04A8F3
:101FA00010F00CF92B680093DDF80080044600283F
:101FB0004FD02C492C48FFF7D3FF21462A48FFF782
:101FC000D3FF2A492848FEF79AFA29492648FEF7FE
:101FD00096FA28492448FEF792FA10F019F82B686F
:101FE0000193019E002410F099F80746A8B92B68C8
:101FF0000293029B9B1BB3F57A7FF4D901341A48F4
:102000001D49E4B2FFF7ACFF3B2C06F57A76EAD91E
:1020100015480AF0A1F93C46E5E714B112480AF068
:102020009BF916491048FEF76AFA2B680393039B45
:1020300013490D48C8EB0308FFF792FF4FF47A717C
:10204000B8FBF1F10848FFF78FFF07480D49FEF78D
:1020500056FA4FF47A700AF0A1FF06B0BDE8F0819D
:1020600090DAFF1FDA66010098DCFF1FEC660100C2
:10207000F46601000E670100C464010024670100DA
:10208000346701004467010070B51A4B002292B01A
:1020900006461A8002A8402101AA10F0CBFA30B3FC
:1020A000002402A813F091FCC0F11400844205D270
:1020B00011481249FFF754FF0134F2E700244FF4AE
:1020C000805013F045FB0546346629465A2206F136
:1020D0005800FEF71EFA04F580540023284685F8C0
:1020E0005B3013F03DFBB4F5802FE8D1D2E712B09E
:1020F00070BD00BFAEDDFF1F98DCFF1F216801002F
:1021000073B502AC164644F8041D0D462046D1B204
:10211000FFF72EFF01352046310A0195FFF728FF12
:1021200002B070BD38B508460C460AF0A1FC054661
:10213000601C0AF09DFC05EB002080B238BD13B591
:10214000002402A8FF2140F8044D0134FFF710FFDE
:10215000B4F5006FF5D14FF4FA700AF01FFF02B02A
:1021600010BDFFFF044A054B1360054A1360054A82
:1021700013600AF039BC00BF1492FF1F032000381F
:102180001092FF1F0C92FF1F37B504460AF0E8FEBD
:10219000324B60601B680193019BA3601721D2231F
:1021A000052204F10C0010F0D0FB0021172204F1ED
:1021B00020000AF035FD012384F82030022384F842
:1021C0002130032384F82230042384F823300623AB
:1021D00084F82430072384F82530082384F8263037
:1021E000092384F827300B2384F828300C2384F843
:1021F00029300D2384F82A300E2384F82B30102345
:1022000084F82C30112384F82D30122384F82E30DA
:10221000132384F82F30052384F831300A2384F8FF
:1022200032300F2384F833300D4B03F1100204F1E8
:102230003701104653F8045B41F8045B9342F9D12F
:102240000368C4F84730074B1A889B78A4F84B20E2
:10225000204684F84D3003B030BD00BF90DAFF1F38
:10226000636A0100776A010037B505460024174B01
:1022700028461B7850F80C2B40F6081101FB04226D
:10228000A34205EB040392F8182893F847100CD1E9
:1022900022B100232022009301920AE07F234FF015
:1022A000400E8DE80840134608E022B10023009359
:1022B00001937F2202E0009201927F23013410F00B
:1022C0005AFB042CD3D103B030BD00BFF3D9FF1F9C
:1022D000C943CAB2542A09D8A2EB8200013802EBE2
:1022E00042020021C0B2D2B20B4618E0A92A0BD894
:1022F000553AD2B202EB4201A2EB8202013A00202F
:10230000C9B2D2B203460AE05632D2B202EB420060
:10231000A2EB8202511E0022C0B2C9B2134610F0D5
:1023200080BBFFFF2DE9F341044600F1100706468C
:10233000294D2368287840F6081808FB003001F082
:1023400070FE311B01EB0010C1B22878254655F80C
:102350000C3B08FB003090F800388B4203D196F814
:102360003710FF2206E000EB41135B794BB996F87A
:1023700037100122009201922846134610F0FBFA12
:102380000DE0002296F8378002F06AF801462046F8
:10239000FFF79EFF41460246284610F014FB013627
:1023A000BE42C5D10D4B1E78204636B14021FFF705
:1023B0008FFF00210246284605E0FF21FFF788FF36
:1023C00031460246284610F0FEFA204602B0BDE82B
:1023D000F041FFF749BF00BFF3D9FF1FF6D9FF1F38
:1023E0002DE9F04F684A694D136889B0044605939A
:1023F0000598A368C01A664B1968B5FBF1F18842CD
:1024000090469A4603D913680693069BA36004F18D
:1024100010092646371BFFB2384607F039FA254621
:102420005C4B55F80C2B197840F6081B0BFB01226E
:1024300092F80018814206D17F22FF2396F83710C8
:102440008DE80C000FE038460392029307F020FA63
:10245000039A029B02EB401042794AB9012296F896
:102460003710009201922846134610F084FA1AE0C1
:102470001A78236896F837C0CDF80CC038460BFBA5
:10248000023B07F005FA00220146584601F0E8FF3A
:1024900001462046FFF71CFFDDF80CC002466146EE
:1024A000284610F090FA384607F0F2F93A4B1B78BC
:1024B00083420CD1D8F800300793079AA3683749B4
:1024C000D21ADAF80030B1FBF3F39A4250D3013656
:1024D0004E459FD1324B1E78204636B14021FFF742
:1024E000F7FE00210246284605E0FF21FFF7F0FE37
:1024F00031460246284610F066FA2A4B1B78032B19
:1025000030D8DFE803F00205111D2046FF2101E06D
:102510002046BF21FFF7DCFE15210246284610F0B9
:1025200052FA20467F2116E07F212046FFF7D0FE99
:1025300015210246284610F046FA2046BF210AE03F
:102540007F212046FFF7C4FE15210246284610F0E1
:102550003AFA2046FF21FFF7BBFE16210246284625
:1025600010F031FA2046FFF77FFE09B0BDE8F08F8A
:10257000FF22002396F8371028468DE80C001346FA
:1025800010F0F9F9A3E700BF90DAFF1F808D5B0020
:10259000F48EFF1FF3D9FF1FF2D9FF1FC0C62D0015
:1025A000F6D9FF1FF0D9FF1F2DE9F04F044685B083
:1025B0000025724B1A78AA4204EB050304F10C06BD
:1025C0000BD12046402193F84770FFF781FE394632
:1025D0000246304610F0F7F908E0002293F8471061
:1025E000009201923046134610F0C5F90135042DD2
:1025F000DFD104F1100B25462F1BFFB2DFF87C91D1
:10260000384607F045F94B4640F608181A78236813
:1026100008FB023A9AF80028824238463DD107F07A
:1026200037F90AEB40104379012B08D1FF228023B0
:1026300095F8371030468DE80C0000222BE0236817
:1026400099F80020384608FB023A07F021F90AEB16
:1026500040104379022B06D10023802295F83710D1
:10266000009301926AE0236899F80020384608FB3D
:10267000023807F00DF908EB401095F83710437950
:10268000032B04D1002280238DE80C006BE0FF2295
:10269000009201923046134667E007F0F9F8384B94
:1026A0001B78834216D1374B95F837701B6803931C
:1026B000039A0523B2FBF3F3FF2293FBF2F299187E
:1026C0002046C9B2FFF704FE39460246304610F0F4
:1026D0007AF94CE099F800202368384608FB023A62
:1026E00007F0D6F80AEB4010427912B995F8371086
:1026F000CEE7236899F80020384608FB023A07F035
:10270000C7F80AEB40104379012B05D1FF2395F858
:10271000371000930022BCE7236899F80020384660
:1027200008FB023A07F0B4F80AEB40104379022B99
:1027300007D1002395F83710009301933046FF220C
:1027400013E0236899F80020384608FB023807F0A8
:102750009FF808EB40104379032B08D1002295F82D
:102760003710009201923046FF2310F004F9013532
:102770005D457FF441AF05B0BDE8F08FF3D9FF1F91
:10278000F2D9FF1F90DAFF1FF7B505460024114B61
:102790001B78A34205F10C0605EB04030BD1284678
:1027A000C42193F84770FFF793FD3946024630463F
:1027B00010F009F908E0002293F847100092019206
:1027C0003046134610F0D7F80134042CDFD103B0A3
:1027D000F0BD00BFF3D9FF1FF0B5044685B00D462C
:1027E0000AF0BEFB6368C01AA8426ED90AF0B8FBB3
:1027F000374B60601B780A2B04F10C0625D00DD8EE
:10280000032B1AD005D8002B57D02046FFF7E8FD40
:1028100053E0072B15D0092B0FD04EE0102B14D00E
:1028200003D80C3B012B08D947E07D2B0DD0F12BB1
:1028300043D12046FFF7A8FF3FE02046FFF772FD97
:102840003BE02046FFF7B0FE37E000256319204645
:1028500093F837701F4B1B680393039A0523B2FB51
:10286000F3F3122202FB0533FF2293FBF2F29918D5
:10287000C9B2FFF72DFD013502463946304610F04A
:10288000A2F8102DE2D10025134B1B782B4113F039
:10289000010004EB050393F8471004D00022C8237D
:1028A0008DE80C0002E04022009201903046134671
:1028B000013510F060F8042DE6D1084B02241C60AD
:1028C00030460FF08FFF064B1C6005B0F0BD00BF17
:1028D0005B8FFF1F90DAFF1F498FFF1F04F10F402E
:1028E00008F10F4001EB81012DE9F04705464FEA61
:1028F000C1080026002406EB04192B195FFA89F998
:102900004946284693F837A0FFF7E2FC05F10C078B
:1029100002465146384610F056F804F003032B44A3
:102920004946284693F847A0FFF7D2FC01340246F7
:102930005146384610F047F8102CDCD138460FF0DD
:1029400051FFB8F1000F03D04346013B7FF4FDAFC8
:102950000136B6B2B6F5807FCCD1BDE8F087FFFF77
:10296000F7B52C4C236816225B6805460E462046B8
:102970002949984720462C4609F0EEFC44F80C6B98
:10298000052001210AF06AFAC821204610F050F80B
:1029900020460FF0D6FE20460FF024FF0027002629
:1029A000AB19FAB293F83710009201922046134601
:1029B00001360FF0E0FF102EF2D120460FF012FF8B
:1029C0004FF47A63013B7FF4FDAF0137B7F5807FA9
:1029D000E5D1FF270026AB19FAB293F83710009221
:1029E00001922046134601360FF0C5FF102EF2D19A
:1029F00020460FF0F7FE4FF47A63013B7FF4FDAF02
:102A0000013FE7D12846642103B0BDE8F040FFF75D
:102A100069BF00BF98DCFF1F7A6A0100044A054BBA
:102A20001360054A1360054A136009F0DDBF00BF5B
:102A30002092FF1F032000381C92FF1F1892FF1FD7
:102A40002DE9F04705468CB00C4616461F46BE4998
:102A5000BE48FDF754FDEE626F6201260027BC49B7
:102A60002F736F73AF73EF732E746E74AE74EE7456
:102A70002F756F75AF75EF752E766E76AE76EE7636
:102A8000B248FDF73CFD20462121AC6202F05AFD20
:102A9000204639460822334602F09AFB204631464A
:102AA0000422334602F094FB2046022109223346D9
:102AB00002F08EFB204603210522334602F088FBFC
:102AC000204611210622334602F082FB20460421D3
:102AD0000A22022302F07CFB204605210722022362
:102AE00002F076FB204606210B22022302F070FB47
:102AF000204607210C22022302F06AFB204608210F
:102B00001B22334602F064FB204609211222334681
:102B100002F05EFB20460A211322334602F058FBE6
:102B200020460B211422334602F052FB20460C2192
:102B30001522334602F04CFB20460D211622334667
:102B400002F046FB20460E211722334602F040FBDE
:102B500020460F210322334602F03AFB2046102183
:102B60001822334602F034FB204616210E2202239F
:102B700002F02EFB204612210222334602F028FBEF
:102B80002046132132463B4602F022FB2046142108
:102B90001A223B4602F01CFB204615210D223B4623
:102BA00002F016FB204617210F223B4602F010FBD5
:102BB0002046182110223B4602F00AFB204619212C
:102BC00011223B4602F004FB20461A2119223B4603
:102BD00002F0FEFA3A463B461B21204602F0F8FA84
:102BE000204602F035FC5B495848FDF788FC02217D
:102BF00005F11D0002F084FA05F11F090A200AF010
:102C0000CDF91321484602F035FD05F120080A20D0
:102C10000AF0C4F94046122102F02CFD0A200AF005
:102C2000BDF94D4904A809F060FC0A2239466846FE
:102C300009F091FC694604A809F0F4FC474909F041
:102C4000FAFCFEB282463146484602F087FD014654
:102C500008A809F06DFC504608A909F0E3FC0146FC
:102C60003A48FDF742FC08A809F0FFFB684609F066
:102C7000FCFB04A809F0F9FB01200AF08FF93849A0
:102C800004A809F032FC0A223946684609F063FCC0
:102C9000694604A809F0C6FC304909F0CCFC31466D
:102CA0008246404602F05AFD014608A809F040FC61
:102CB000504608A909F0B6FC01462448FDF715FC6A
:102CC00008A809F0D2FB684609F0CFFB04A809F078
:102CD000CCFB01200AF062F901200AF05FF93146CD
:102CE0000122484602F002FD01200AF057F90122B4
:102CF0003146404602F0FAFC01200AF04FF901206B
:102D00000AF04CF9144904A809F0EFFB0A223946ED
:102D1000684609F020FC694604A809F083FC0F49C5
:102D200009F089FC31468246484602F017FD01460B
:102D300008A809F0FDFB504608A909F073FC0146FC
:102D40000248FDF7D2FB0DE0916A010098DCFF1FFD
:102D5000A36A0100BD6A0100CE6A01003F6601005E
:102D6000DD6A010008A809F080FB684609F07DFBD8
:102D700004A809F07AFB01200AF010F97E4904A8A2
:102D800009F0B3FB0A223946684609F0E4FB6946BC
:102D900004A809F047FC794909F04DFC3146824608
:102DA000404602F0DBFC014608A809F0C1FB504692
:102DB00008A909F037FC01467148FDF796FB08A801
:102DC00009F053FB684609F050FB04A809F04DFBDD
:102DD00001200AF0E3F801200AF0E0F83146FF2272
:102DE000484602F083FC01200AF0D8F8FF22314661
:102DF000404602F07BFC01200AF0D0F801200AF0E6
:102E0000CDF8604904A809F070FB0A2239466846EB
:102E100009F0A1FB694604A809F004FC574909F030
:102E20000AFC31468246484602F098FC014608A852
:102E300009F07EFB504608A909F0F4FB0146504812
:102E4000FDF753FB08A809F010FB684609F00DFBDD
:102E500004A809F00AFB01200AF0A0F8464904A8DA
:102E600009F043FB0A223946684609F074FB6946BB
:102E700004A809F0D7FB414909F0DDFB3146824641
:102E8000404602F06BFC014608A809F051FB08A976
:102E9000504609F0C7FB01463948FDF726FB08A854
:102EA00009F0E3FA684609F0E0FA04A809F0DDFA4F
:102EB000013701200AF072F8042F7FF4B2AE2E46DB
:102EC0002F1D96F834302B44204693F83C100122F5
:102ED00002F02DFB96F838302B44204693F83C1036
:102EE0000122013602F023FBBE42EAD126492448E2
:102EF000FDF705FB1F20012109F0B0FF042001218F
:102F000009F0ACFF21491E48FDF7F9FA204602F00E
:102F1000D5FA00251E4904A809F0E7FA0A22294635
:102F2000684609F018FB694604A809F07BFB1949BB
:102F300009F081FBE9B20646204602F00BFA0A22AC
:102F4000014608A809F007FB08A9304609F06AFB0A
:102F500001460B48FDF7C9FA08A809F086FA684649
:102F600009F083FA013504A809F07FFA1C2DD1D1AC
:102F70000CB0BDE8F08700BFDD6A01003F660100CC
:102F800098DCFF1FCE6A0100EC6A0100016B0100B2
:102F90002B6B01004F6701002DE9FF47B34B1A6807
:102FA0000292029A1B680393039BB14B1B782B3B45
:102FB0000446232B00F27D83DFE813F02400530046
:102FC0008400240053008400240053008400240063
:102FD00053008400B300CE00EA00050120013C014B
:102FE000680183019F01BA01D501F1010C0227029A
:102FF00043025E0279029502B002CB02F2020D0397
:103000002E0351039B4D05F1080A6E78DFF870829C
:10301000DFF8709238F8162039F816300092964989
:103020004FF48042002009F016FA04F11D0782B225
:103030003146384602F080F815F8016F8E4938F8AD
:10304000162039F81630009200204FF4804209F023
:1030500002FA314682B2384602F06EF85545D4D1B4
:1030600027E3844D05F1080A6E78DFF81482DFF853
:10307000149238F8162039F8163000927E494FF431
:1030800080424FF4005009F0E6F904F11D0782B2C6
:103090003146384602F050F815F8016F764938F895
:1030A000162039F8163000924FF400504FF4804249
:1030B00009F0D1F9314682B2384602F03DF8554563
:1030C000D2D1F6E26B4D05F1080A6E78DFF8B081D7
:1030D000DFF8B09138F8162039F8163000926649BA
:1030E00066484FF4804209F0B6F904F11D0782B238
:1030F0003146384602F020F815F8016F5E4938F87D
:10310000162039F8163000925C484FF4804209F0DE
:10311000A2F9314682B2384602F00EF85545D4D1B4
:10312000C7E2DFF86481564E98F80050554F36F8E4
:10313000152037F815305049009200F11D044FF466
:1031400080424E4809F087F9294682B2204601F0B4
:10315000F3FF98F8005058E2DFF82C81484E98F8B9
:103160000050484F36F8152037F815304249009284
:1031700000F11D044FF480424FF4005009F06BF948
:10318000294682B2204601F0D7FF98F800505EE24F
:10319000DFF8F4803A4E98F800503A4F36F8152090
:1031A00037F815303449009200F11D044FF4804285
:1031B000002009F050F9294682B2204601F0BCFFF8
:1031C00098F8005065E2DFF8C0802D4E98F8015065
:1031D0002C4F36F8152037F815302749009200F1AA
:1031E0001D044FF48042254809F035F9294682B282
:1031F000204601F0A1FF98F8015006E2DFF8888030
:103200001F4E98F801501F4F36F8152037F815302B
:103210001949009200F11D044FF480424FF4005010
:1032200009F019F9294682B2204601F085FF98F885
:1032300001500CE2DFF85080114E98F80150114F08
:1032400036F8152037F815300B49009200F11D04AF
:103250004FF48042002009F0FEF8294682B2204651
:1032600001F06AFF98F8015013E200BF90DAFF1FE7
:10327000E9D9FF1F6F8EFF1F00C0FFFF00E0FFFFB7
:10328000608EFF1F508EFF1F708EFF1FDFF80C83B4
:10329000BE4E98F80250BE4F36F8152037F815305C
:1032A000BC49009200F11D044FF48042BA4809F075
:1032B000D2F8294682B2204601F03EFF98F802502B
:1032C000A3E1DFF8D882B14E98F80250B04F36F83B
:1032D000152037F81530AF49009200F11D044FF466
:1032E00080424FF4005009F0B6F8294682B22046D9
:1032F00001F022FF98F80250A9E1DFF8A082A34E66
:1033000098F80250A24F36F8152037F81530A14929
:10331000009200F11D044FF48042002009F09BF858
:10332000294682B2204601F007FF98F80250B0E12A
:10333000DFF86882954E98F80350954F36F81520BF
:1033400037F815309349009200F11D044FF4804284
:10335000914809F080F8294682B2204601F0ECFE3F
:1033600098F8035051E1DFF83482884E98F8035002
:10337000874F36F8152037F815308649009200F14E
:103380001D044FF480424FF4005009F064F82946C0
:1033900082B2204601F0D0FE98F8035057E1DFF8E2
:1033A000FC817A4E98F80350794F36F8152037F89B
:1033B00015307849009200F11D044FF4804200203E
:1033C00009F049F8294682B2204601F0B5FE98F886
:1033D00003505EE1DFF8C4816C4E98F804506C4FE6
:1033E00036F8152037F815306A49009200F11D04AF
:1033F0004FF48042684809F02EF8294682B22046F0
:1034000001F09AFE98F80450FFE0DFF890815F4EDB
:1034100098F804505E4F36F8152037F815305D499E
:10342000009200F11D044FF480424FF4005009F067
:1034300012F8294682B2204601F07EFE98F8045028
:1034400005E1DFF85881514E98F80450504F36F896
:10345000152037F815304F49009200F11D044FF444
:103460008042002008F0F7FF294682B2204601F092
:1034700063FE98F804500CE1DFF82081434E98F881
:103480000550434F36F8152037F815304149009262
:1034900000F11D044FF480423F4808F0DCFF29464C
:1034A00082B2204601F048FE98F80550ADE0DFF802
:1034B000EC80364E98F80550354F36F8152037F821
:1034C00015303449009200F11D044FF480424FF44E
:1034D000005008F0C0FF294682B2204601F02CFEC1
:1034E00098F80550B3E0DFF8B480284E98F80550FE
:1034F000274F36F8152037F815302649009200F18D
:103500001D044FF48042002008F0A5FF294682B236
:10351000204601F011FE98F80550BAE0DFF87C80F3
:103520001A4E98F806501A4F36F8152037F815300D
:103530001849009200F11D044FF48042164808F02B
:103540008AFF294682B2204601F0F6FD98F806501F
:103550005BE0DFF848800D4E98F806500C4F36F8C7
:10356000152037F815300B49009200F11D044FF477
:1035700080424FF4005008F06EFF294682B2204688
:1035800001F0DAFD98F8065061E000BF608EFF1F81
:10359000508EFF1F00C0FFFF00E0FFFF708EFF1F77
:1035A000DFF82481444E98F80650444F36F8152031
:1035B00037F815304249009200F11D044FF4804263
:1035C000002008F048FF294682B2204601F0B4FDF1
:1035D00098F806505DE0DFF8F080374E98F8075015
:1035E000364F36F8152037F815303549009200F17E
:1035F0001D044FF48042334808F02DFF294682B263
:10360000204601F099FD98F8075036F8152037F854
:1036100015302C48009242E0DFF8AC80264E98F836
:103620000750264F36F8152037F8153024490092F8
:1036300000F11D044FF480424FF4005008F00BFFDE
:10364000294682B2204601F077FD98F8075036F8F7
:10365000152037F8153000924FF400501FE0DFF8C6
:103660006880154E98F80750144F36F8152037F833
:1036700015301349009200F11D044FF480420020E0
:1036800008F0E9FE294682B2204601F055FD98F87F
:10369000075036F8152037F81530009200200849F9
:1036A0004FF4804208F0D7FE294682B2204601F04E
:1036B00043FD04B0BDE8F087608EFF1F508EFF1FF2
:1036C00000C0FFFF00E0FFFF708EFF1F2DE9F347F2
:1036D0000446806A4E4EDFF8588101F0EFFE11215A
:1036E0000122606A10F054FA242130800122606ABD
:1036F00010F04EFA252170800122606A10F048FA1D
:103700002221B0800122606A10F042FA0025F08088
:10371000404B705BEB5A404F984207D23F4AA95A40
:10372000002200921A464FF4806305E03C4A3D496E
:10373000AA5A00911946002308F08DFE78534023C1
:10374000785F384900934FF480626FF03F0308F0D0
:1037500082FE0235082D08F8010FD9D10421A06A94
:10376000314E324F01F05FFF80F0010030700521D3
:10377000A06A01F058FF80F0010070700621A06A75
:1037800001F051FF80F00100B0700721A06A01F044
:103790004AFF80F00100F0700421A06A01F02DFFC3
:1037A00005213870A06A01F028FF06217870A06A10
:1037B00001F023FF0721B870A06A01F01EFF002569
:1037C000F870B14609EB05065FFA85F84146A06A34
:1037D00096F804A001F031FF7B19824514BF012245
:1037E00000221A71A06A414601F027FF0135042D1D
:1037F0003071E7D1A06A0821012201F098FEA06A89
:103800000821002202B0BDE8F04701F090BE00BFE1
:1038100006DAFF1F7A8EFF1FF8D9FF1F528FFF1F96
:103820004A8FFF1F00FCFFFF14DAFF1FA9D9FF1FFB
:10383000FFD9FF1F30B5013AD2B2112A98BF1548FF
:103840009DF80C4094BF30F8122040F6FF72002023
:10385000984206DA02F00105521042EAC522013010
:10386000F6E70D200C23B1FBF3F503FB1513DBB2D8
:103870004FF4006545FA03F3934308D00CB10131CE
:1038800000E00139013810F0FF00C9B2EAD1084662
:1038900030BD00BF566B010010B50144094A91F8D4
:1038A0003410094832F8112030F8111050188A1AD3
:1038B00092B25343142493FBF4F2C2EB500080B253
:1038C00010BD00BF508EFF1F608EFF1F0144084ACD
:1038D00091F83410074832F8112030F81110511ABD
:1038E00089B24B43142093FBF0F1501A80B2704719
:1038F000608EFF1F508EFF1F2DE9F743012B1646E8
:1039000004460D461F469DF828209DF82CC035D052
:1039100018D3022B61D1421892F834804246FFF747
:10392000BBFF2946814642463B462046FFF7CEFF75
:103930002B4B33F816300090002118464FF47D725F
:103940004B4646E000276346F1B20097FFF772FF4F
:103950006319814693F83460294632460223204693
:10396000FFF79AFF29463246804602232046FFF79A
:10397000ADFF394600907822484629E0002763468B
:10398000F1B20097FFF756FF94F87F3190FBF3F206
:1039900003FB120204EB42022946B2F8549142F6AC
:1039A000E062504390FBF3F399446319204693F887
:1039B000346002233246FFF76FFF294632468046C5
:1039C00002232046FFF782FF064A00903946484608
:1039D000434608F040FD80B2FFE703B0BDE8F08346
:1039E000828EFF1FC0D401002DE9F04F87B09A46A8
:1039F0009DF84C3004939DF858300593049B9DF836
:103A000040B09DF848609DF854709DF85C909046D9
:103A100004460D469DF850200BB95EB183E0806AE4
:103A2000039201F00AFE039A0028F6D0002A40F023
:103A3000A78070E0002A75D16619A06A96F8342034
:103A4000224492F83C10012201F071FDBBF1010FFC
:103A500016D196F83820224492F844100A0918BF6B
:103A6000002201F00F010CBF04F11F0004F120003F
:103A700001F03CFE01223276327386F814A009E090
:103A800008D99DF844203274012286F814A03276B9
:103A900086F80CB096F83430234493F844100A09A1
:103AA00008BF04F11F0001F00F011CBF04F120004A
:103AB000002201F01BFE6619059B96F834B02946DA
:103AC0008DE8080242463B462046FFF715FF04F109
:103AD0001D0A02465946504601F02EFB059B96F8FA
:103AE00034B029468DE8080242463B462046FFF79F
:103AF00003FF59460246504601F01EFB049B23B1CA
:103B0000A06A2946012201F012FD09F029FAA060FD
:103B100007B0BDE8F08FA06A294601F008FD002E2D
:103B20008AD000E0032604EB050AA06A9AF8342044
:103B3000224492F83C10002201F0F9FC9AF834205B
:103B4000224492F844A05FEA1A114FF0FF020AF0F3
:103B50000F0A09D1009230467F220B4608F07BFC09
:103B6000C2B204F11F0009E00021009230467F221A
:103B70000B4608F070FCC2B204F12000514698E7F1
:103B8000002E08BF0326CEE72DE9F7434618074667
:103B9000337B002B00F0E180013B032B00F29F8080
:103BA000DFE803F002053C6D347DE40165E06C4A1A
:103BB000337C106858430CF0A7F86A490CF0FCF805
:103BC00069490CF0F9F8694B0446186800010CF0DB
:103BD0009BF8014620460CF0A3F90BF0A9FC10F06D
:103BE0006BFC0446307D0D460BF090FC02460B4604
:103BF000204629460BF0F0FC00225D4B0BF0ECFC5C
:103C00000BF084FF96F838303B44002284B293F8DE
:103C10003C10B86A01F08BFC022260E0504A337C11
:103C2000106858430CF070F84E490CF0C5F84E4936
:103C30000CF0C2F84D4B0446186800010CF064F813
:103C4000014620460CF06CF90BF072FC10F034FCCD
:103C5000002200230BF050FF347D08B1E40103E0A3
:103C6000C4EB4424E401A4B296F83830B86A3B446B
:103C7000012293F83C1001F05AFC00222FE0384A50
:103C8000337C106858430CF03FF836490CF094F838
:103C900035490CF091F8354B0446186800010CF0DA
:103CA00033F8014620460CF03BF90BF041FC10F0D4
:103CB00003FC002200230BF01FFF347D08B1E40158
:103CC00003E0C4EB4424E401A4B296F83830B86AA7
:103CD0003B44002293F83C1001F029FC282296F87E
:103CE0003830DFF89480DFF894903B4424B293F8A6
:103CF00044100B090CBF07F11F0007F1200001F071
:103D00000F0101F0F3FC96F838501A4938F81520E5
:103D100000233376204639F8153000924FF4804264
:103D200008F099FB1D3782B22946384601F004FAA3
:103D300096F838500F4938F81520009239F81530A8
:103D400020464FF4804208F086FB294682B238466E
:103D500003B0BDE8F04301F0EFB903B0BDE8F08374
:103D6000C0D9FF1FD00F49400000C842D4D9FF1F5F
:103D70000000604000C0FFFF608EFF1F508EFF1FDD
:103D800070B504460E4615461BB1806A002201F04C
:103D9000CEFB711EC9B20F29E46A0DD894F84A30DF
:103DA00041F080018B420BD0D4F8E00084F84A1037
:103DB00003681B68984703E0002384F84A3070BD0D
:103DC000D4F8E000036805F07F011B689847D4F839
:103DD000E000036840211B68984770BD38B5002299
:103DE00004460D46806A01F0A2FB601900230373AC
:103DF00003750123037638BD37B54FF400730546CC
:103E00000C4609B1084A00E0084A13601720214611
:103E100009F004F82C7724B1054B1B680193019B32
:103E20002B6003B030BD00BF84F00F4088F00F401E
:103E300090DAFF1F044A054B1360054A1360054AD8
:103E4000136008F0D1BD00BF2C92FF1F0320003883
:103E50002892FF1F2492FF1F4379032B09D8DFE824
:103E600003F0090B0B02407CD0F1010038BF0020A9
:103E700070477047002070470120704710B5044616
:103E800009F06EF8C4F8000910BDD0F8F438013319
:103E900070B5C0F8F43890F8016890F80238002244
:103EA0001E440346B2420DDA9969002907DDD0F8B5
:103EB000EC58D0F8F848B5FBF4F4091B99610132CD
:103EC0002033EFE770BDFFFF264B80F8E4181B7826
:103ED000F0B5002B45D090F8DD3890F80268B0F8C6
:103EE000E2585CB2002CD8BFC3F1020211FB06F607
:103EF000D4BFD2B20122DBB2002CCCBF1C460124BD
:103F000002FB06F205F10105ADB292FBF4F295FB5E
:103F1000F2F602FB1652C3F10203A0F8E2284FF4B6
:103F20008005D0F8F428C0F8F82895FBF1F5D4BF47
:103F30001E4601260022C0F8EC58C0F8F428E5B26D
:103F4000F6B201238B420CDA0A44B6FBF5F492FB7D
:103F5000F4F704FB172414B980F80438F0BD0133DA
:103F6000F0E7F0BDF6D9FF1F90F8DD385AB2002A0D
:103F7000DABFC3F10200C0B20120002ACCBFDBB21D
:103F80000123800590FBF3F0704710B50446FFF75E
:103F9000EBFF94F80238584310BDF8B5D0F8F45848
:103FA000D0F8F848B0F8E268AC4234BF27462F4654
:103FB000D0F8EC58FFF7E9FF6E43B6FBF0F37D4312
:103FC00003FB1060B5FBF4F42044F8BD38B590F85D
:103FD0000338012B044611D1FFF7DFFF05462046C9
:103FE000FFF7C2FF94F8012894F802381344013B0C
:103FF000B5FBF0F01B1A84F800380DE063B9FFF749
:10400000CCFF05462046FFF7AFFF94F80138B5FB1B
:10401000F0F0C51884F8005894F8003884F8E138B6
:1040200038BD90F80008000970472DE9F04190F87C
:10403000017890F8023890F800481F4407EB040814
:10404000054608F1FF38002644450CDA94FBF7F3E7
:1040500007FB134305EB431328465E61FFF784FF1C
:1040600001340644F0E73046BDE8F08110B504465F
:1040700051B10023A0F8E238C0F8F438FFF78DFF03
:1040800001462046FFF7A2FF94F8023894F8010891
:1040900022461844002383420CDA94F800188B421D
:1040A00002F1200206D0002102F8101C02F80F1CB9
:1040B0000133F0E72046BDE81040FFF7B6BFFFFF31
:1040C0002DE9F74F0446FFF768FF8046414620463A
:1040D000FFF77CFF94F81838002B40F0B080594B64
:1040E0001B78002B00F0AB8094F8006804EB4613BB
:1040F00003F11002197C002943D15879002840D0DF
:104100005170D879504D94F81138EB56142793FB21
:10411000F7F31844052205F0ABFB2644012186F88D
:104120001D0894F8006804EB46130522187A94F8E9
:104130001338EB5693FBF7F7384405F099FB264408
:1041400094F8123886F85D0894F80068EA56A719C2
:104150000F2392FBF3F387F89D3804EB4610FFF72B
:104160007BFE97F85D1897F81D380091024631469E
:10417000204600F011FA94F8003804EB43130122B2
:104180001A7425462746002694F8021894F8013838
:104190000B449E4253DC6B79002B48D02A7C042AC6
:1041A00004D0062A31D0012A41D10CE094F800381D
:1041B0009E4240D101293AD12046FFF7D5FEB8EB07
:1041C000900F38D333E0A969EA6991422FDA5FFA98
:1041D00086FA032B08D8DFE803F0020205024FF04D
:1041E000010901E04FF00009204651464A4600F01F
:1041F00046FB06232B742046514695F811B000F07B
:1042000025FB834513D9042310E0AB69002B0EDC9A
:104210002846FFF721FE97F85D1897F81D380091A2
:104220000246F1B2204600F0B7F901232B740136A3
:1042300020350137A8E700232B746B74F7E703B030
:10424000BDE8F08FF6D9FF1F00DAFF1F024B1B7885
:104250000BB1FFF735BF7047F6D9FF1F044A054B76
:104260001360054A1360054A136008F0BDBB00BF28
:104270003892FF1F032000383492FF1F3092FF1F37
:104280002DE9F041134D044628680F4616461249A1
:104290001D229846436828469847284608F05CF84F
:1042A000002384F80938042384F8DD38069BC4F819
:1042B000FC3884F80A7884F8026884F80B88204671
:1042C000FFF7B3FE012384F8DE38079BC4F80439F6
:1042D000BDE8F08198DCFF1F7A6B0100F0B58DB06E
:1042E00004460F4604A84349164608F0FEF839462E
:1042F000684608F01DF9694604A808F093F93E499C
:1043000008F099F93146054608A808F011F9284641
:1043100008A908F087F90146384807F0FCFF37483C
:1043200008F01AF808A808F0A0F8684608F09DF808
:1043300004A808F09AF8102384F8023844F62063A1
:1043400000200425C4F8E838052384F8010884F81F
:104350000B5884F8060884F8070884F8097884F86C
:104360000A6884F8DD5884F80C3884F80D3884F82D
:104370000E5884F8113884F80F3884F8103884F80F
:10438000123884F8133884F8143884F8153884F80F
:10439000163884F8173884F8180884F8190884F84F
:1043A0001A0884F81C08402201340321617101219C
:1043B000E1712172042118236172E172432104F832
:1043C000013C217300231021013A23706370A37014
:1043D000E3702371A371A3726373A173C4F81330E4
:1043E000E37323746374C4F8173004F12004DCD140
:1043F0000DB0F0BD986B0100B86B010098DCFF1F99
:1044000090F8183883F0010310B5044680F8183886
:10441000DBB194F8023890F80108224618440023D2
:1044200083420CDA94F800188B4202F1200206D085
:10443000002102F8101C02F80F1C0133F0E7D4F839
:10444000040994F80A18FFF7C9FC94F8180810BD7D
:10445000C0F8FC18FFF7E9BD03EB4113C2547047E5
:1044600002EB4112805C704770B5044621B91021FF
:10447000012007F0E6FFC1B294F8E43894F9DD6852
:1044800094F80228B4F8E20811FB03F595FBF6F561
:1044900013FB02F393FBF6F3054495FBF3F103FBE7
:1044A0001151A4F8E2180023934204F1200408DA21
:1044B00054F8085C8EB2861B354444F8085C01331E
:1044C000F2E770BD38B590F80C388B4204460D46C3
:1044D00002D10121FFF7CAFD94F80D38AB4209D192
:1044E000054B1B7833B1204694F80E18BDE83840D0
:1044F000FFF7BABF38BD00BFF6D9FF1F70B549013D
:1045000088B004461D46F2B10844625C867B827422
:10451000437B0096C67B0196083094F80A18C07851
:1045200002900020049094F80808059094F8070879
:10453000069094F8060807900395D4F80409FFF74D
:1045400053FA08B070BD4318D0F804099A7C94F867
:104550000A18012308B0BDE87040FFF711BC08B588
:104560004318490193F99D380844002B407A06DA34
:1045700018440121402205F07BF9C0B208BD08BDF6
:104580004318490193F89D3808445AB2807A002AAA
:10459000C4BF5843C0B270472DE9F04F17464A01D7
:1045A00000EB020889464E014146825C0446487889
:1045B0008FB010448DF821008878C9788DF82020BC
:1045C00010440A448DF8232094F81A289DF860C0FE
:1045D0008DF822001AB1002384F81A382EE1012246
:1045E000042518F80210FF2908BF05F1FF3502F174
:1045F000010208BFEDB2042AF3D1284605EB85017C
:1046000088420ADA08AAC5EB020E1EF800E00EF195
:104610000C0E00F802E00130F2E7BCF1000F02D00E
:104620000CFB05F5EDB2013B042B4BD8DFE803F0A2
:10463000030D182B4000A3195B7CB3FBF5F205FBBF
:1046400012330EAA52FA83F31AE0A3195B7CB3FB70
:10465000F5F205FB1233ED1A0EAB53FA85F524E0A3
:10466000A3195B7CB3FBF5F212F0010F05FB02F21C
:10467000C2EB030308BFC3EB0503DBB20EAA13446E
:1046800013F8183C20E0A319691E5B7C93FBF1F240
:10469000D0074BBFB3FBF5F201FB123305FB12351C
:1046A000C3EB0505EDB20EAB1D4415F8183C0BE04D
:1046B0000020294607F0C5FE0EAA52FA80F010F835
:1046C000183C01E09DF82030A5191035AB7094F826
:1046D00010285C4B9A5C9B4622B100207F2107F09A
:1046E000B0FEA87094F81518DFF85CA1A3191AF9A8
:1046F0000100042190FBF1F1987C01449974D87A6F
:1047000094F817381AF9033000211844FF2205F0F5
:10471000AFF894F80F381BF80330002B98F80730E7
:10472000C5B218BF0027002B33D194F8163898F87B
:1047300006001AF903300130012103EB400040224A
:1047400005F096F894F8DD385AB2002ADABFC3F1C2
:104750000201C9B201218005002A01FB00FCCCBF87
:10476000D9B20121A0194FEAC10E9CFBFEF1002A2B
:104770008161DABFC3F10201C9B20121002ACCBFB5
:10478000DBB201238905A219DB0091FBF3F3D361AE
:104790002AE094F8DDA84FFA8AF3002BD8BFCAF1BB
:1047A000020A49462046D4BF5FFA8AFA4FF0010A4E
:1047B000FFF7D5FE4FEA8A5A00FB0AFB94F8DDA802
:1047C0004FFA8AF3002B20464946CCBF5FFA8AFA9B
:1047D0004FF0010AFFF7D4FEA3191AFB00F09BFB70
:1047E000F0F098614010D861A01900F11006437BE9
:1047F000827C90F80EE0CDF800E0083094F80A18BA
:10480000C079019094F81C08049094F80808059069
:1048100094F80708069094F8060803970790029505
:10482000D4F80409FFF7E0F898F80530022B18BF18
:10483000002784F81C787378013373700FB0BDE8DB
:10484000F08F00BF14DAFF1F00DAFF1F70B54318A6
:10485000054693F81D380C467BB100EB41139E7959
:10486000FFF78EFE214616FB00F62846FFF777FE7F
:1048700096FBF0F0C0F3870070BD184670BD10B510
:1048800000EB4111134601F11002097C0129044695
:1048900008D194F80A18D0F804099278BDE81040BD
:1048A000FFF76EBA10BDFFFF531A002BB8BF5B4273
:1048B000013380F802380A4B91421B7805D201EB94
:1048C000031180F80118002304E002EB031280F8C2
:1048D0000128012380F80338012380F81A38704733
:1048E000F0D9FF1F044A054B1360054A1360054ABF
:1048F000136008F079B800BF4492FF1F032000380E
:104900004092FF1F3C92FF1F10B5044608F028FBA1
:104910002060204610BD10B5044608F021FB236836
:10492000C01A10BD2DE9F743BD4B1A680092009ADA
:1049300002601B680193019B4360044608F010FB72
:10494000A06004F11D0000F0D9FB04F11F0000F08D
:104950008FFE04F1200000F08BFEB24B1A46194680
:1049600052F8040B2063106860639868A06351F8E4
:104970000C0F496804F13C0203C2194604F14402D9
:1049800051F8140F496804F14C0603C203F11C02EC
:10499000343310685168354603C508329A422E46B2
:1049A000F7D1A14B04F1640203F1080618685968B5
:1049B000154603C50833B3422A46F7D118689B88C9
:1049C000AB809A4B286004F1720203F10C0153F89A
:1049D000040B42F8040B8B42F9D11B881380944BD3
:1049E00004F1800203F1080618685968154603C5EA
:1049F0000833B3422A46F7D118689B88AB808D4BA9
:104A0000286004F18E0203F10C0153F8040B42F804
:104A1000040B8B42F9D11B881380874B04F19C0255
:104A200003F1080618685968154603C50833B342F0
:104A30002A46F7D118689B88AB80804B286004F128
:104A4000AA0203F10C0153F8040B42F8040B8B4249
:104A5000F9D11B8813807A4B04F1B80203F10806E0
:104A600018685968154603C50833B3422A46F7D17A
:104A700018689B882860AB8000210E2204F1C600D4
:104A800008F0CEF84FF47A6340F6B83841F658375C
:104A900042F21076A4F8CA3042F22833694DA4F8E5
:104AA000CE3000210E22A4F8C880A4F8CC70A4F85F
:104AB000D06004F1D40008F0B3F841F27073A4F8A8
:104AC000DA302B68C4F8E2306B68C4F8E63041F2A3
:104AD00088392B89A4F8EA3000210E22A4F8D68068
:104AE000A4F8D890A4F8DC70A4F8DE6004F1EC001F
:104AF00008F096F805F10A021A35A4F8EE80A4F839
:104B0000F090A4F8F270A4F8F46004F1FA012B46D6
:104B100052F8040B41F8040BAA42F9D11A68C4F800
:104B20000A215A681B89A4F81231474BC4F80E2198
:104B30005968186804F58A7203C21989118003F153
:104B40000A0204F58F71163352F8040B41F8040B76
:104B50009A42F9D113880B803C4B04F5967203F10D
:104B6000080618685968154603C50833B3422A4633
:104B7000F7D118689B88AB80354B286004F59D728F
:104B800003F10C0153F8040B42F8040B8B42F9D1EA
:104B90001B8813802F4A1068516804F5A47303C35F
:104BA0009068186004F5AA7602F10C0324321868A4
:104BB0005968354603C5083393422E46F7D107237B
:104BC000082005220C2184F86D3184F86E3184F8B8
:104BD0006F3184F8703184F8713184F8723184F85F
:104BE000733184F8743184F8753184F8773184F83E
:104BF000780184F87B3184F87C3184F87D3120465B
:104C0000062384F86C1184F8762184F8792184F8DD
:104C10007A2184F87E3184F87F1103B0BDE8F083F7
:104C200090DAFF1FC46B0100F86B0100066C0100F5
:104C3000146C0100226C0100306C01003E6C01001C
:104C40004C6C01005A6C01007E6C0100966C0100F6
:104C5000A46C0100B26C010013B504461430FFF7D8
:104C600053FE04F12C00FFF74FFE04F13000FFF774
:104C70004BFE144B1B680193019BA36504F15C0080
:104C8000FFF750FE04F5EE7004F0ACFE04F50E7074
:104C900000F072FD04F5CF60FDF776FA04F5D960F7
:104CA000FBF70EFF04F27C7000F08AFA04F5FC605A
:104CB00000F086FA04F65400FFF726FE204602B004
:104CC00010BD00BF90DAFF1F2DE9F04F8FB00446F2
:104CD0008A468B488B49DFF850921E4604F15C07E8
:104CE000934604F5FC68FBF70AFC189BC4F850389F
:104CF000384641465246C4F848A8C4F84C68FDF707
:104D00009FFED9F800306425B3FBF5F38DE88800E9
:104D10003046002110220423FFF7B2FAD9F8003000
:104D2000B3FBF5F38DE8880006F608100121102288
:104D30000423FFF7A5FAD9F8003006F59050B3FB2D
:104D4000F5F38DE888001030022110220423FFF7CC
:104D500097FAD9F8003006F5D850B3FBF5F58DE891
:104D6000A0001830032110220423FFF789FA04F56C
:104D70000E73184631462246059304F5D96500F0B6
:104D800031FD04F5EE79059B039304F27C724346F2
:104D9000484639468DE86000029404F083FE04F52D
:104DA000CF603146FDF7DCFD20463946324653469A
:104DB000CDF800B006F0F8F9189B00932846524B46
:104DC00039463246FBF79CFE504B1B78002B00F017
:104DD00084804F494A48FBF792FB2846FDF7AFF91C
:104DE0002846FDF7D5F82846FCF732FE002749494A
:104DF0000AA807F07AFB0A22394606A807F0ABFB9F
:104E000006A90AA807F00EFC434907F014FC014666
:104E10003B48FBF76AFB06A807F027FB0AA807F048
:104E200024FB4FF000085FFA87FA40F6081000FBF9
:104E300008605FFA88F2514608F10108FFF74EFA60
:104E4000B8F1040FEFD12E483449FBF758FB4FF06F
:104E500000085FFA88F12846524608F10108FCF77D
:104E600035FAB8F1040FF4D125482D49FBF747FB7B
:104E700094F8C8361BB12846FCF788FEF8E72949A4
:104E80000AA807F032FB0A22394606A807F063FB9E
:104E900006A90AA807F0C6FB1F4907F0CCFB01468C
:104EA0001748FBF722FB06A807F0DFFA0AA807F06D
:104EB000DCFA01374FF4FA7008F070F8102F96D131
:104EC00094F8C8361BB12846FCF760FEF8E764206A
:104ED00008F064F82846FDF7D7F82846FCF7B8FD37
:104EE0000F2228460021FCF769FD2846FBF788FEC3
:104EF0004846012104F0BEFE0FB0BDE8F08F00BFB0
:104F000098DCFF1FD66C0100ACDDFF1FA8D9FF1F86
:104F1000F26C0100406D01006D6D0100946D0100A7
:104F2000A96D0100BD6D0100F48EFF1F37B5044669
:104F300008F016F802AD45F8040D2846FFF7EBFC23
:104F400008F00EF844F62061019004F5EE7006F0CA
:104F500037F82846FFF7DFFC08F002F8019004F666
:104F60005400FFF7D8FC42F21073984202D994F82B
:104F7000C8364BB994F83530ABB104F50E7047F232
:104F8000481103F003FE0EE004F5D960FCF7FEFDC6
:104F900007F0E6FFC4F854082846FFF7BCFC07F00A
:104FA000DFFF0190E6E703B030BD00F5CF600021E0
:104FB000FDF712BC06F046B906F0BEBA0346D0F8BB
:104FC0004408D3F8481806F03EBDFFFF064B10B565
:104FD000064C1C60064B1C60064B1C6007F004FD71
:104FE000054B1C6010BD00BF5492FF1F032000380A
:104FF0004C92FF1F4892FF1F5092FF1F054BDA6A29
:1050000012F0F00F18BF9B6B4FF2F0031340002B10
:10501000F4D1704700C0024010B5184B1A7802B3A3
:1050200072B61B78D90707D5154A1649146809685E
:105030002140154C216011609A0707D5134A114988
:10504000146849682140104C616011605B0707D506
:105050000F4B0C4A196892680A400B498A601A6023
:1050600062B60C4BDA68824207D00B4A1A60D860ED
:105070000A4A40F0804018611A6010BDA0DDFF1F91
:1050800080E100E088DDFF1F94DDFF1F84E100E088
:1050900088E100E000C0024001401F0000001F80C6
:1050A000054B4FF00042DA625863DA6A002AFCDAF4
:1050B000014B986BC0B2704700C002400A4B1B788E
:1050C0008BB1D90703D5094A1168094A11609A07BB
:1050D00003D5064A5168074A11605B0703D5034BA5
:1050E0009A68054B1A607047A0DDFF1F94DDFF1F13
:1050F00000E100E004E100E008E100E07047FFFFAC
:1051000010B500230446017043700846012107F0E2
:10511000A5FE2278064B53F83230012283F8802016
:10512000044B4FF038421A60BDE810400BF06EB8E7
:10513000A4E601005892FF1F2DE9F34117460446EB
:105140008846FFF75BFF114B114E1868FFF764FFAD
:1051500023788DF8067056F83330012583F8005116
:1051600001A83B0A032108F130088DF805308DF8BD
:1051700004800BF01FFA237856F8333083F8805000
:10518000FFF79CFF02B0BDE8F08100BF5892FF1FFF
:10519000A4E60100014B024A1A6070475892FF1FB3
:1051A00003200038054BDA6A12F0F00F18BF9B6B32
:1051B0004FF2F0031340002BF4D1704700C00240BF
:1051C00010B5044607F0CCFEA065204610BDFFFFD9
:1051D0002DE9F04F81469FB0900890469A468B4645
:1051E0000AF094F90FF0D8F8044640460D460AF04C
:1051F0008DF9002206460F464E4B204629460AF0FE
:10520000EBF90B460246394630460AF031F80AF00F
:10521000A5FC2946C6B220460AF0A0FCC3B2BAF1EA
:10522000000F05D0BAF1010F0CBF0124032400E0E8
:10523000022409EB0B02002109EB030582F8108020
:1052400082F8301003277200974095F85010FF4302
:10525000FFB2394004FA02F20A4385F8502006A84A
:105260003549019307F041F9019B02A8194607F05F
:105270005FF902A906A807F0D5F9304907F0DBF974
:10528000214680460AA807F053F90AA9404607F0CC
:10529000C9F92B4907F0CFF91022804695F8501034
:1052A0000EA807F058F90EA9404607F0BBF92549AA
:1052B00007F0C1F93146054612A807F039F912A9DD
:1052C000284607F0AFF9204907F0B5F90222054654
:1052D000394616A807F03FF916A9284607F0A2F9A3
:1052E0001A4907F0A8F91022054604FA06F11AA88F
:1052F00007F031F91AA9284607F094F90146144835
:10530000FBF7F3F81AA807F0B0F816A807F0ADF805
:1053100012A807F0AAF80EA807F0A7F80AA807F045
:10532000A4F802A807F0A1F806A807F09EF81FB09D
:10533000BDE8F08F00001040E96D0100FD6D010037
:10534000086E0100116E01001B6E0100266E010047
:1053500098DCFF1F2DE9F0410F460446FFF722FFBE
:10536000194B1A4E1868FFF757FE94F8603056F83C
:105370003330012583F8005147F08000FFF790FE9D
:105380000020FFF78DFE94F8603056F8333083F834
:10539000805094F8603056F83330002083F8005184
:1053A000FFF77EFE07460020FFF77AFE94F8603094
:1053B00056F83330804683F88050FFF77FFE47EA87
:1053C000082080B2BDE8F0815C92FF1FA4E60100D6
:1053D0002DE9F0410F4690460446FFF7E3FE1A4BD5
:1053E0001A4E1868FFF718FE94F8603056F83330FC
:1053F000012583F8005107F07F00FFF751FE40467A
:10540000FFF74EFE94F8603056F8333083F8805042
:1054100094F8603056F83330002083F80051FFF7DD
:105420003FFE000287B20020FFF73AFE94F860309A
:1054300056F83330384387B283F88050FFF73EFE8A
:105440003846BDE8F08100BF5C92FF1FA4E6010072
:1054500070B5164905461648FBF73AF8144806F0A9
:105460007BFF09242E19E1B296F847202846FFF762
:10547000AFFF10490E48FBF72BF8214610220023FE
:105480000B4806F079FF0C490948FBF721F896F81C
:10549000471007481022002306F06EFF013404482D
:1054A00006F05AFF102CDDD170BD00BF366E010032
:1054B00098DCFF1F566E0100626E010070B5044655
:1054C000456807F04DFDA36DC01AB0F5FA7F2DD9E0
:1054D00044212046FFF73EFF4C2106462046FFF7B9
:1054E00039FF00F47F4040EA262654212046FFF78A
:1054F00031FF00F47F4046EA00265C212046FFF79A
:1055000029FF00F47F4046EA0043DB43A268636062
:1055100023EA05010A43A260E26825EA03010A437F
:105520009D42E26002D007F01BFDA06570BD38B55A
:1055300044181546217C2431C9B2FFF749FF84F88D
:10554000305038BD30B589B004460D4604A81E4918
:1055500006F0CBFF2946684606F0EAFF694604A834
:1055600007F060F801461948FAF7BFFF684606F0F1
:105570007CFF04A806F079FF154BE365154B164A2E
:1055800084F8605000251A6025700AF03FFE012063
:105590000AF09CFE28460AF0ADFE94F86000012156
:1055A00007F05CFC94F8601020460122FFF7BFFF73
:1055B000642007F0F3FCA560E56020460421012289
:1055C000FFF706FF09B030BD6B6E010098DCFF1FCE
:1055D000005125025C92FF1F000001B810B5014484
:1055E00083680A7C012101FA02F212EA03041DBF5A
:1055F000934383600846204610BD10B5027801230E
:1056000012B1013A02700AE00144C268097C03FA4F
:1056100001F111EA020404D022EA0102C260184634
:1056200010BD204610BD014401220B7C9A40436806
:105630001A420CBF002001207047014491F830004D
:105640007047FFFF014B024A1A6070475C92FF1FD0
:1056500003200038054BDA6A12F0F00F18BF9B6B7D
:105660004FF2F0031340002BF4D1704700C002400A
:105670007047FFFF10B5084B084A017004461A60D6
:105680000AF0C4FD2078012107F0E8FB2078012111
:10569000BDE8104007F0C2BB6092FF1F0000013858
:1056A0002DE9F0410F4690460446FFF7D3FF0D4B1E
:1056B0000D4E1868FFF7B0FC237856F833300125FB
:1056C00083F800513846FFF7EBFC4046FFF7E8FC53
:1056D000237856F8333083F88050FFF7EFFCBDE8AD
:1056E000F08100BF6092FF1FA4E601000139C9B23A
:1056F00002299ABF034B595C0021090101F0F00116
:10570000FFF7CEBFA56E01002DE9F0410F4604461C
:10571000FFF7A0FF0F4B104E1868FFF77DFC2378B2
:1057200056F83330012583F8005147F08000FFF729
:10573000B7FC07460020FFF7B3FC237856F8333058
:10574000804683F88050FFF7B9FC47EA082080B212
:10575000BDE8F0816092FF1FA4E6010008B50021BA
:10576000FFF7D2FF08BDFFFF014B024A1A607047E6
:105770006092FF1F0320003830B5002385B0044637
:105780000360332007F0DCFA0B220D238DE80C00B8
:10579000C4F8F80006210A22092304F580700AF0F3
:1057A00089FF07F0DDFB0D4B0D4D1B680393039B39
:1057B000C4F84001C4F84C31294604F5B0704FF4E8
:1057C000007207F093F904F5587005F50071E022B6
:1057D00007F08CF9204605B030BD00BF90DAFF1FFE
:1057E000A86E0100F8B5764D044617460E462846C9
:1057F000744904F58074FAF782FEE765A665724B7A
:10580000FF22204600211A700BF03EFE642007F0B4
:10581000C5FB204610210AF077FF204600210AF040
:10582000C3FF204600210BF011FE0A2007F0B6FB53
:1058300020464FF478410BF009FE0A2007F0AEFB3A
:1058400020464FF620510BF001FE0A2007F0A6FB80
:1058500020464FF6E0710BF0F9FD0A2007F09EFBA1
:1058600020464FF4FC610BF0F1FD0A2007F096FB97
:1058700020461F210BF0EAFD0A2007F08FFB20468F
:105880000F210BF0E3FD0A2007F088FB204647F6C6
:105890000F010BF0DBFD0A2007F080FB20464FF4E0
:1058A00078410BF0D3FD0A2007F078FB4FF6E07249
:1058B00020464FF620510BF0BDFF204643490AF029
:1058C000C9FF43492046FAF71AFE322007F066FB6B
:1058D0004FF6205220464FF4FC610BF0ABFF3D49E0
:1058E0002046FAF70CFE322007F058FB20461F2115
:1058F0004FF4FC620BF09EFF642007F04FFB204644
:1059000047F60F010F220BF095FF642007F046FBCE
:1059100020460F214FF478420BF08CFF0822002321
:10592000204642F20E710BF02BFD20464FF620511F
:105930000AF037FF204628490AF08CFF2046022152
:105940000AF01CFF25492046FAF7D9FD642007F02C
:1059500025FB28220023204642F20E710BF010FD99
:1059600020464FF620510AF01CFF20461C490AF041
:1059700071FF204604210AF001FF20461949FAF779
:10598000BEFD64220023204640210BF0F9FC204696
:1059900001210AF0F3FE204613490AF05BFF20467E
:1059A0000F210AF0FEFE11492046FAF7A8FD4FF438
:1059B0007A7007F0F3FA28460D49FAF7A0FDF8BD12
:1059C00098DCFF1F568201005B8FFF1F28A5010096
:1059D0006B820100728201002C7C0100798201003F
:1059E00018D4010081820100E89F01008782010034
:1059F0008E82010070B504461E25A06800260FF0B7
:105A0000AFFEA660D4F880000FF0AAFE013DC4F8F6
:105A1000806004F10404F0D170BDFFFFF8B50446C6
:105A20001E25D4F8803023B90C480FF0B3FFC4F81A
:105A30008000A0680FF094FED4F880700026A66065
:105A400038460FF0A7FFA06038460FF089FE013DF1
:105A5000C4F8806004F10404E3D1F8BD658401005A
:105A6000002380F85531084BA0F8521182B01B6812
:105A70000193019BC0F84C31012380F8503180F82C
:105A8000542102B0704700BF90DAFF1F38B50446BA
:105A90001D46FFF7E5FF84F8555138BD2DE9F04F5D
:105AA00087B000EB81081E469DF84C30D8F80810EE
:105AB00005938446BDF85830D8F880000393144607
:105AC000CDF810C00FF054FFDDF810C0BDF9405004
:105AD0009CF8FF20BDF94490BDF948A09DF850B056
