:1000000000800020BD0100006DA8000039A800009C
:1000100039A8000039A8000039A8000039A800005C
:1000200039A8000039A8000039A800006DA8000018
:100030006DA8000039A800006DA8000029A80000E4
:100040006DA800006DA800006DA800006DA800005C
:100050006DA800006DA800006DA800006DA800004C
:100060006DA800006DA800006DA800006DA800003C
:100070006DA800006DA800006DA800006DA800002C
:100080006DA800006DA800006DA800006DA800001C
:100090006DA800006DA800006DA800006DA800000C
:1000A0006DA800006DA800006DA800006DA80000FC
:1000B0006DA800006DA800006DA800006DA80000EC
:1000C0006DA800006DA800006DA800006DA80000DC
:1000D0006DA800006DA800006DA800006DA80000CC
:1000E0006DA800006DA800006DA800006DA80000BC
:1000F0006DA8000095B100006DA8000035CC00008F
:100100006DA8000095B600006DA800006DA8000065
:100110006DA800006DA800006DA800006DA800008B
:100120006DA800006DA800006DA800006DA800007B
:100130006DA800006DA800006DA800006DA800006B
:100140006DA800006DA800006DA800006DA800005B
:10015000219D0000399D0000519D0000699D000017
:100160006DA80000F9B800006DA800006DA800009F
:100170006DA800006DA800006DA800006DA800002B
:100180006DA800006DA800006DA800006DA800001B
:100190006DA800006DA800006DA800006DA800000B
:1001A0006DA800006DA800006DA800006DA80000FB
:1001B0006DA800006DA80000A59A0000564B4CF2F7
:1001C000205210B51A804DF628121A8000BF00BFC9
:1001D0000AF050FB514B4FF010621A60504A9A607F
:1001E000504ADA60A3F53043203B1A6812F480725B
:1001F00004D14D490A604FF4A8521A604B4B1A784B
:10020000110703D51A7842F008021A70484B2A22C7
:100210001A700023474A48499818884204D247492F
:10022000595899500433F5E7454A464B9A424FF0E6
:10023000000302D242F8043BF7E74349434A5958C6
:1002400099500433B3F5DE7FF7D1414B802103F899
:10025000011B40498B42F9D13F4B1A603F4B8A2228
:100260001A70A3F5805324225A70A0221A709A792A
:100270009207FCD59A79D406FCD4394B9A7902F0CE
:100280000C02082AF9D103221A7146225A719A796E
:100290009006FCD5324B9A795106FBD5314A4FF086
:1002A000827111600921516020221A702C4B9B79B8
:1002B00003F00C030C2BF9D12B4B2C4A1A602C4B5E
:1002C0002C4A1A6000225A60072243F8042C2A4A5A
:1002D000C3F80C2D62B60AF051FC134B1B68DA0709
:1002E00005D526480AF0A8FB254B264A1A60264B5E
:1002F0001B785B0609D5224C224A2368934204D11D
:100300001E480AF099FB0023236012F065FF0AF0F3
:10031000B7FA0AF0C5F9FEE70E2005403080044028
:10032000823F04000100002B14D0034002D007409C
:1003300000E0074080A3FF1F0CA7FF1FD487010028
:1003400010A7FF1FB8ECFF1F00000000009CFF1F5C
:1003500000E400E05FE400E008ED00E0005006404B
:10036000004006404480044004800440C010050062
:1003700014E000E0BFD4010000002020458797581A
:100380001CE00340A5C3945A00F00740FFFFFFFFA5
:10039000FFFFFFFFFFFFFFFFFFFFFFFFFFFFFFFF6D
:1003A000FFFFFFFFFFFFFFFFFFFFFFFFFFFFFFFF5D
:1003B000FFFFFFFFFFFFFFFFFFFFFFFFFFFFFFFF4D
:1003C000FFFFFFFFFFFFFFFFFFFFFFFFFFFFFFFF3D
:1003D000FFFFFFFFFFFFFFFFFFFFFFFFFFFFFFFF2D
:1003E000FFFFFFFFFFFFFFFFFFFFFFFFFFFFFFFF1D
:1003F000FFFFFFFFFFFFFFFFFFFFFFFFFFFFFFFF0D
:10040000FFFFFFFFFFFFFFFFFFFFFFFFDEF9FFFF23
:1004100010B5054C237833B9044B13B10448AFF33E
:1004200000800123237010BD10A7FF1F00000000F3
:10043000D487010008B5064B1BB106480649AFF347
:1004400000800648036813B1054B03B1984708BD07
:1004500000000000D487010014A7FF1F0CA7FF1F96
:10046000000000000369C268934210B509D2826897
:100470005C1C0461D154826803690021D1540120BD
:1004800010BD002010BD44F2040210B58358CC18F2
:10049000B4F5804F07D8033121F00301194481508E
:1004A0001844043010BD002010BD18B111B101393D
:1004B0000068FAE7704738B504460D4634B128465F
:1004C000616812F0BFFF08B12468F7E7204638BD25
:1004D00038B54068FFF7EFFF044680B1057A012D7B
:1004E00005D1C16819B1074812F0ACFF20B1013D38
:1004F000012D03D8E46802E0044600E00024204611
:1005000038BD00BF403D010038B5044608460D46E1
:1005100012F0C5FF236802465B68204629469847CB
:1005200038BD38B5044609F0EDFC0546204609F013
:1005300009FD284438BD38B50446FFF7E5FF0546F8
:10054000204609F0FFFC284438BD10B504460AF0E7
:10055000E1FA2060204610BD10B504460068FFF7A0
:10056000D3FF63681844606010BD30B587B00022C7
:100570008DF815200B4605AA0A25B3FBF5F405FBFB
:1005800014333033114602F801392346002CF3D1DD
:10059000FFF7E2FF07B030BD10B5044600680368FE
:1005A0001B68984763681844606010BD70B50446C6
:1005B0000D4619B91249FFF7CFFF70BD2221FFF791
:1005C000EBFF013D15F8012F7AB10E4B13F8026CC9
:1005D00086B1023313F8031C9142F7D120465C2107
:1005E000FFF7DAFF2046314606E020462221FFF7DA
:1005F000D3FF70BD20461146FFF7CEFFE2E700BFF4
:10060000403D0100473D010008B503280AD8DFE856
:1006100000F0021105074FF07E5008BD064808BDE6
:10062000064808BD0438C0B2FFF7EEFF04490DF0DC
:1006300065F908BD034808BD0AD7233C6F12833A09
:1006400017B7D138CDCCCC3D2DE9F0410546084651
:100650000C46174611F01AFD10B92846494911E019
:10066000204600210DF0E8FA28B128462D21FFF799
:1006700093FF04F10044204611F008FD012805D144
:1006800041492846FFF768FFBDE8F08120463F4911
:100690000DF0F0FA20B920463D490DF0CDFA00B337
:1006A0000026204600210DF0BDFA68B920464FF023
:1006B0007E510DF0C1FA38B1204636490DF01EF9D1
:1006C000013EB6B20446ECE7204632490DF0D2FABC
:1006D00040B120462F490DF0C5F90136B6B20446A7
:1006E000F2E706463846FFF78FFF4FF07C510DF0DA
:1006F00005F9014620460CF0F9FF04460DF0EAFA30
:1007000080460DF0A3F8014620460CF0EDFF41466F
:1007100004462846FFF729FF1FB128462E21FFF780
:100720003BFFCFB11B4920460DF0E8F804460DF021
:10073000D1FA5FFA80F840460DF088F8014620466D
:100740000CF0D2FF08F130010446C9B22846013F3F
:10075000FFF722FFFFB2E4E734B2002C06DA2846A6
:100760000D49FFF7F9FE2846614206E03EB12846F2
:100770006521FFF711FF28462146FFF7F6FEBDE889
:10078000F08100BF543D0100583D010000007A4453
:100790006F12833A00002041613D0100024608B516
:1007A000084619B10B6811461B68984708BDFFFF42
:1007B00038B5084C236813F0010509D120460AF02A
:1007C0006AF828B1044B20461D605D600AF069F8A4
:1007D000014838BD40A7FF1F2CA7FF1F08B5406880
:1007E000FFF769FE20B1037A062B01D1C06808BD6E
:1007F000FFF7DEFF08BDFFFF38B5084C236813F094
:10080000010509D120460AF046F828B1044B2046DC
:100810001D605D600AF045F8014838BD3CA7FF1F28
:1008200034A7FF1F03780D2B09D003D8093B012BF8
:1008300023D804E0202B02D02F2B02D070470130A8
:10084000F0E743782A2B02D02F2B0DD07047831C62
:100850001A7818460133002AE4D02A2AF8D11A78E7
:100860002F2AF5D10230DDE7831C184613F8012B3F
:10087000002AD7D00A2AF8D1D4E7704738B5044601
:1008800000680D46FFF7CEFF0378AB4205D101307B
:10089000FFF7C8FF2060012038BD002038BDFFFFF2
:1008A00070B5426884681378272B01D0222B27D19A
:1008B0005178551C51B3994201D1951C26E05C2911
:1008C0000BD1951C9178154A16782EB18E4201D124
:1008D000517801E00232F7E7C1B104F8011B2A4662
:1008E000E6E723F020014139192905D92B2B03D044
:1008F000A3F12D01012909D804F8013B12F8013FA9
:10090000A3F1300109291546F6D9EAE7002304F8D6
:10091000013B836845608460184670BD493D010015
:10092000027838B505460C46072A3CD8DFE802F0C5
:1009300041241F302B27041B456808465B21FFF725
:100940002BFE6D682DB1281D2146FFF7E9FF2D68AC
:1009500025B920465D21FFF71FFE38BD20462C211A
:10096000FFF71AFEEFE7406800F028F838BD0846A8
:100970006968FFF71BFE38BD0846696810E0084645
:100980002D21FFF709FE20466968FFF7EEFD38BD0F
:100990004168084B084A204600290CBF11461946F9
:1009A000FFF7DAFD38BD083A0846D2B26968FFF7AA
:1009B0004BFE38BD643D0100693D010070B5054640
:1009C0000C4608467B21FFF7E7FD6D687DB12E469A
:1009D000204656F8041FFFF7E9FD20463A21FFF7AD
:1009E000DBFD301D2146FFF79BFF2D6825B9204612
:1009F0007D21FFF7D1FD70BD20462C21FFF7CCFDF6
:100A0000E5E710B5044621460820FFF7C7FE18B1F8
:100A100000230460436010BDFFF7CAFE10BD10B58F
:100A2000044621460820FFF7B9FE18B100230460F0
:100A3000436010BDFFF7E0FE10BDFFFF037810B567
:100A4000052B1BD8DFE803F01E08080303054068E8
:100A500010BD4068404210BD44685CB10A48214660
:100A600012F0F0FC40B1204600210A22BDE81040FF
:100A700012F0B2BD204610BD012010BD40680DF03F
:100A800003F910BD002010BD643D0100037810B5CE
:100A9000052B18D8DFE803F01B05050303034068A6
:100AA00010BD44685CB10B48214612F0CBFC40B14C
:100AB000204600210A22BDE8104012F013BE204655
:100AC00010BD012010BD40680DF004F910BD0020DC
:100AD00010BD00BF643D010070B504464C30FFF707
:100AE00034FD254604F15000FFF72FFD002345F8A3
:100AF000583F4FF48A7009F0F5FE2946064608F083
:100B000091FEE66604F174000EF09EF904F1940083
:100B10000EF09AF9204670BDF8B504460D4611480E
:100B200011491F461646FFF706FD069BA56466653C
:100B3000A766236716200DF0A5FE18B909480B49D2
:100B4000FFF7F9FC00236370A370E370E218013330
:100B50000021402B9171F9D105490248FFF7EBFCC8
:100B6000F8BD00BFF8E7FF1F6F3D01009D3D01008C
:100B7000C33D01000A6802600A7902714A79427134
:100B80008A798271CA79C2710A7A02724A7A427289
:100B90008A7A8272CA7AC2720A7B02734A7B427371
:100BA0008A7B8273CA7BC2730A7C02744A7C427459
:100BB0008A7C82744A6942618A698261704708034B
:100BC0007047FFFF10B588B00023013A05910692E7
:100BD0000B7003AA064C8DF8103001A903940793FB
:100BE00001920293FFF7EAFE029808B010BD00BF21
:100BF000283D010010B504460C202168FFF7CEFD0A
:100C000010B100230360037163682BB11A680AB145
:100C10001346FBE7186010BD606010BD10B50C46B0
:100C2000FFF7E8FF20B123788360042202710120DE
:100C300010BD10B5044610202168FFF7AFFD10B1BC
:100C400000230360037263682BB11A680AB113466C
:100C5000FBE7186010BD606010BD2DE9F34104464C
:100C6000074654F8040BFFF7DAFE7B2106462046C0
:100C7000FFF704FE002833D020467D21FFF7FEFD5C
:100C800088BB3846FFF70CFE804648B320463A2121
:100C9000FFF7F4FD20B302AD00233846694605F89E
:100CA000083D00F024F8D8B170684146FFF703FC16
:100CB00028B93046FFF7BDFF90B1C0F8048000F1BD
:100CC000080395E8030083E8030020467D21FFF731
:100CD000D5FD40B920462C21FFF7D0FD0028D0D10A
:100CE000FFF78AFD00E0304602B0BDE8F08170B544
:100CF0000446007B0D46002834D00138207360681C
:100D0000FFF790FD606003785B2B02D07B2B07D050
:100D100012E0204600F027F803685BB1062305E0E7
:100D20002046FFF79AFF036823B1072368602B7002
:100D3000012014E0184612E0272B03D0223B5E422C
:100D40005E4100E001262046FFF7AAFD38B10122EE
:100D500016B102232B7000E02A7068601046237BD6
:100D60000133237370BDF7B50446074654F8040BEE
:100D7000FFF747FE5B2106462046FFF77FFD08B3DD
:100D800020465D21FFF77AFDF8B902AD0023384611
:100D9000694605F8083DFFF7AAFF98B13046FFF70E
:100DA00029FF78B1031D95E8030083E8030020467E
:100DB0005D21FFF763FD40B920462C21FFF75EFD62
:100DC0000028E2D1FFF7F4FC00E0304603B0F0BDAC
:100DD00070B5054640680E461446FFF76CFB20B917
:100DE0002846FFF726FF50B146602368002B08BF56
:100DF00000240CBF002306230372C460012070BDD1
:100E000070B5054600680E4610B9FFF7D1FC70BDFD
:100E1000FFF7F7FD0446314628462246FFF7D8FF84
:100E2000204670BD2DE9F04FADF5804D85B0854B66
:100E30000191029302A944F20403054614460846B0
:100E40000022CA50FFF7EBFD7F498146FFF7D8FF2C
:100E500040F23C73696D5C43214407310646FFF75D
:100E6000DDFE6B6D30461F19FFF7C4FE18B1BB8C59
:100E7000836004220271696D214408313046FFF716
:100E8000CDFE696D214409313046FFF7C7FE696D1B
:100E900021440B313046FFF7C1FE696D21443046D5
:100EA0000A31FFF7BBFED9F8000018B9FFF780FC44
:100EB000824607E0FFF7A5FD824664494846524650
:100EC000FFF786FF4FF00008DAF8000018B9FFF7C7
:100ED0006FFC064610E0FFF794FD06465046FFF70C
:100EE00089FE48B13368002B18BFB3460CBF0023FE
:100EF00006230371C0F808B03046FFF77BFE18B137
:100F000004230371C0F80880696D1C2707FB08F7EC
:100F100007F138032144194430460093FFF77EFE61
:100F2000696D07F13902214411443046FFF776FE1E
:100F3000696D07F13A02214411443046FFF76EFE15
:100F4000696D07F13B02214411443046FFF766FE0C
:100F50006A6D009B2244D11804313046FFF75EFED3
:100F60006B6D304623440093FFF744FE009B48B16D
:100F70003B4493F94430002BAEBF04225B42052270
:100F8000027183606B6D19191C2303FB08F303F1D5
:100F900038073944053130460093FFF73FFE6A6D4C
:100FA0002244D11906313046FFF738FE6A6D2244DB
:100FB000D11907313046FFF731FE009B696D03F10F
:100FC0004007214439443046FFF728FE6B6D234427
:100FD000D91901313046FFF721FE6B6D2344D91931
:100FE00002313046FFF71AFE6B6D2344D9190531E3
:100FF0003046FFF713FE6B6D2344D9190631304696
:10100000FFF70CFE6B6D2344D91907313046FFF70B
:1010100005FE6B6D2344D9193046033108F10108F0
:10102000FFF7FCFDB8F1400F7FF44EAF4846019941
:101030004FF48052FFF7C6FD0DF5804D05B0BDE8B9
:10104000F08F00BF383D0100703E0100793E010085
:101050002DE9F04F95B017468A46044600F0E5FDAD
:101060007E49C6B204A809F036F85146684609F030
:1010700068F8694604A809F0F0F8794909F0F6F82B
:101080003946054608A809F05CF8284608A909F081
:10109000E4F8744909F0EAF8314605460CA809F06D
:1010A00050F828460CA909F0D8F86F4909F0DEF885
:1010B00035030A228046294610A809F055F810A9E0
:1010C000404609F0CAF801466848FFF72AFA10A816
:1010D00008F0C1FF0CA808F0BEFF08A808F0BBFF8D
:1010E000684604EB060808F0B6FF04A808F0B3FF52
:1010F00098F80630002B39D0204600F037FE5C49C6
:10110000834604A808F0E7FF3146684609F019F85D
:10111000694604A809F0A1F8564909F0A7F898F81B
:1011200006305549814619440CA808F0D4FF0A221C
:10113000594608A809F018F808A90CA809F08DF874
:10114000014610A808F0E2FF10A9484609F085F80A
:1011500001464648FFF7E5F910A808F07CFF08A80B
:1011600008F079FF0CA808F076FFB9E74FF0010905
:1011700084F8039009F0CEFC2065404812F074F921
:10118000494680464FF4805012F00CF8814649469B
:10119000204652463B46FFF745FE0DF001FB002876
:1011A000FBD010A841460DF017FC10AA04F158031B
:1011B0000DF1480E174603CF7745186059603A463F
:1011C00003F10803F6D138681860BA889A80A06DD8
:1011D00050BB2B492548FFF7AEF92A4910A808F063
:1011E0007AFF41460CA808F076FF0CA910A809F078
:1011F00034F801461D48FFF794F90CA808F02BFFBE
:1012000010A808F028FF19481D49FFF794F948462F
:1012100012F010F8404612F00DF80023E37001239D
:10122000237015B0BDE8F08FE76D256605F5805396
:10123000BB4210D9BD4208D27F1B3A4628444946DA
:101240000DF0EEF8236E1F4427662046314601223A
:1012500000F0E8FCDBE74FF48057EEE77E3E01004C
:101260008F3E01009A3E0100A93E0100F8E7FF1FF2
:10127000B83E0100EB3E0100F53E01000A3F0100CF
:10128000133F0100223F010008B54068FFF70DF948
:1012900018B10430FFF7FAFBC0B208BD08B54068CA
:1012A000FFF703F920B10379062B01D1806808BD4F
:1012B000FFF77EFA08BDFFFF2DE9F047ADF5804D41
:1012C0008EB0BC4B0C93154644F204030CAA0EAC32
:1012D000002681468846B848B849D650FFF72BF912
:1012E0000CAB44F8243DB64BA560B54218BF2B4665
:1012F00020460A2563602573FFF7AFFC0746B14916
:10130000204608F0E8FE3968891B18BF01212A46EB
:1013100001A808F029FF01A9204608F09EFF014618
:10132000A548FFF7FEF801A808F095FE204608F052
:1013300092FEA549A048FFF7FEF840F23C7303FB7C
:1013400008F8D9F85430A149384603EB0805FFF7EF
:1013500045FA3146FFF798FF9C49E8713846D9F8BD
:101360005450FFF73BFA012140684544FFF79DF8D0
:1013700018B10430FFF78AFB80B2D9F85430A88442
:101380009249384603EB0805FFF728FA0221FFF7D8
:101390007BFF2872D9F854308C49384603EB080596
:1013A000FFF71CFA0321FFF76FFF6872D9F854307A
:1013B0008649384603EB0805FFF710FA0421FFF7CA
:1013C00063FFE872D9F854308049384603EB0805CA
:1013D000FFF704FA0521FFF757FF7D49A872204661
:1013E00008F079FED9F85430434401A8997A08F0FE
:1013F000A8FE01A9204608F030FF764908F036FF24
:1014000001466D4808F07EFD01A808F024FE204644
:1014100008F021FE70493846FFF75AF80146664841
:10142000FFF789F86D493846FFF7D8F906466C4949
:10143000204608F050FE3168003118BF01210A2211
:1014400001A808F091FE01A9204608F006FF014618
:101450005948FFF766F801A808F0FDFD204608F09E
:10146000FAFD55485F49FFF766F80025D9F8543072
:10147000434493F807A0554580F2B6800BA8FFF7C8
:1014800064F829463046FFF709FF0121FFF7FCFE0B
:10149000294620703046FFF701FF0221FFF7F4FED6
:1014A000294660703046FFF7F9FE0321FFF7ECFE96
:1014B0002946A0703046FFF7F1FE0421FFF7E4FE55
:1014C0002946E0703046FFF7E9FE0521FFF7DCFE14
:1014D000294620713046FFF7E1FE06214068FEF7FD
:1014E000E4FF18B10430FFF7A9FAC0B2294620730F
:1014F0003046FFF7D3FE0721FFF7C6FE294660718D
:101500003046FFF7CBFE0821FFF7BEFE2946A0714B
:101510003046FFF7C3FE0921FFF7B6FE2946E0710A
:101520003046FFF7BBFE0A21FFF7AEFE29462072C8
:101530003046FFF7B3FE0B21FFF7A6FE2946607287
:101540003046FFF7ABFE0C21FFF79EFE2946A07246
:101550003046FFF7A3FE0D21FFF796FE2946607384
:101560003046FFF79BFE0E21FFF78EFE2946A07343
:101570003046FFF793FE0F21FFF786FE2946E07302
:101580003046FFF78BFE1021FFF77EFE2946E07202
:101590003046FFF783FE0021FFF776FED9F854307E
:1015A0001C22434402FB003038302146FFF7E2FAA8
:1015B00001355BE7383D0100F8E7FF1F3D3F0100C3
:1015C0007C470100523F0100683F0100703E01006E
:1015D0007B3F0100903F0100343E0100793E010055
:1015E000993F0100B33F0100BAF13F0F2BDC0BA87C
:1015F000FEF7ABFF0122A27122726272042218234D
:10160000A27222734322237062730023102263703C
:10161000A370E37023716371E371E372A373E273E8
:1016200063612374A37409F075FAD9F85430A0618A
:1016300043441C2000FB0A3038302146FFF79AFA59
:101640000AF1010AD0E73868003018BF01200DF513
:10165000804D0EB0BDE8F0872DE9F043044689B017
:101660007F489146884611F0FFFE7E49054604A852
:1016700008F031FD2946684608F02DFD694604A8AA
:1016800008F0EBFD784908F0F1FD01467748FEF7D8
:1016900048FF684608F0DFFC04A808F0DCFC284698
:1016A0000DF01AFA002838D071497048FEF743FF50
:1016B00004A829460DF090F904AE04F1580306AAD7
:1016C000374603CF9742186059603E4603F108033E
:1016D000F6D138681860BA889A80A36D33BB654923
:1016E00004A808F0F8FC2946684608F0F4FC6946AE
:1016F00004A808F0B2FD604908F0B8FD01465B4857
:10170000FEF70FFF684608F0A6FC04A808F0A3FC4B
:10171000284611F08FFD02209FE0284611F08AFD37
:1017200052485649FEF707FF012096E054494F48BA
:10173000FEF701FF4FF4805011F074FD0A224FF4C0
:1017400080510646684608F00FFD694604A808F077
:10175000DDFC4C4904A808F089FD01464348FEF72A
:10176000E0FE04A808F077FC684608F074FC4649DF
:1017700004A808F0B0FC41464A46204600F055FA5D
:10178000C1B20A220903684608F0EEFC694604A8C3
:1017900008F063FD01463548FEF7C3FE684608F0D1
:1017A0005AFC04A808F057FC384904A808F093FC38
:1017B00041464A46204600F038FA0A220146684669
:1017C00008F0D2FC694604A808F047FD0146274806
:1017D000FEF7A7FE684608F03EFC04A808F03BFCB4
:1017E0004A462046414600F020FAC0B20303E76DA6
:1017F000236603F58052BA422CD9BB4209D2FF1AA4
:10180000A06D3A46184431460CF022FD236E1F4469
:1018100027661F491548FEF78EFE31461348FEF72E
:101820008AFE204641463246FFF746FD10B10F487A
:10183000184901E00D481849FEF77DFE304611F0C9
:10184000F9FC284611F0F6FC08481449FEF773FE2F
:10185000002002E04FF48057D2E709B0BDE8F083E2
:10186000C63F0100CE3F0100F03F0100F8E7FF1F37
:101870000F4001001E410100C8400100DB40010093
:101880005B4101006A4101007B4101008941010087
:10189000334001003D400100504001009E400100E6
:1018A0002DE9F04190B00D46064671490CA89046CE
:1018B00008F011FC294608A808F043FC08A90CA868
:1018C00008F0CBFC6B4908F0D1FC01466A48FEF7F2
:1018D00028FE08A808F0BFFB0CA808F0BCFB0024F9
:1018E00048FA04F3DB070CA816D4644908F0F3FBAC
:1018F0000A22214608A808F037FC08A90CA808F01D
:10190000ACFC01465C48FEF70CFE08A808F0A3FBFF
:101910000CA808F0A0FB52E0594908F0DCFB0A22B1
:10192000214608A808F020FC08A90CA808F095FC9E
:1019300001465148FEF7F5FD08A808F08CFB0CA8FD
:1019400008F089FB4F490CA808F0C5FB0A22214684
:1019500008A808F009FC08A90CA808F07EFC0146BC
:101960004548FEF7DEFD08A808F075FBE7B20CA8B5
:1019700008F071FB304639462A46FFF76DFE012814
:1019800013D141493C48FEF7D6FD736D40F23C70DF
:1019900000FB043029463A4602F0ACF83B49364891
:1019A000FEF7C9FD34483A4903E0022803D1324822
:1019B0003849FEF7C0FD30483749FEF7BCFD013419
:1019C000042C8DD1354C364904A808F084FB2178CD
:1019D000684608F0B6FB694604A808F03EFC3149A9
:1019E00008F044FC2946074608A808F0AAFB08A905
:1019F000384608F032FC2C4908F038FC2B4B0746DF
:101A000019780CA808F09DFB0CA9384608F025FCB5
:101A100001461948FEF785FD0CA808F01CFB08A834
:101A200008F019FB684608F016FB04A808F013FB41
:101A30000CA81F49257008F04EFB294608A808F09D
:101A400080FB08A90CA808F008FC1A4908F00EFC55
:101A500001460948FEF765FD08A808F0FCFA0CA845
:101A600008F0F9FA304600F09DFD10B0BDE8F081B5
:101A70009641010037430100F8E7FF1FBF41010015
:101A8000D9410100EA410100144201004242010033
:101A90007042010094420100B142010074E5FF1F51
:101AA000C3420100E2420100E742010054E5FF1F8A
:101AB00008430100294301002DE9F04391B0064697
:101AC0000C4691469DF860702BB30025DFF8248109
:101AD000E9B2304698F800200135FFF7B9FA042D35
:101AE000F4D13B490CA808F0F6FA98F8001008A8C1
:101AF00008F027FB08A90CA808F0AFFB354908F04F
:101B0000B5FB01463448FEF70CFD08A808F0A3FA1F
:101B10000CA808F0A0FA314D17B92B78002B3BD157
:101B200004A82F4908F0D7FA2146684608F009FBB7
:101B3000694604A808F091FB2A4908F097FB0A229D
:101B40008046394608A808F00FFB08A9404608F06F
:101B500084FB254908F08AFB0A22074629780CA84D
:101B600008F002FB0CA9384608F077FB01461A483A
:101B7000FEF7D7FC0CA808F06EFA08A808F06BFA7C
:101B8000684608F068FA04A808F065FA304621466D
:101B90004A46FFF785FE17E0144B15491C700CA848
:101BA00008F099FA214608A808F0CBFA08A90CA871
:101BB00008F053FB01460848FEF7B3FC08A808F0FC
:101BC0004AFA0CA808F047FA11B0BDE8F08300BF4C
:101BD0004F43010060430100F8E7FF1F40E5FF1F8E
:101BE000714301008E4301009943010054E5FF1F3A
:101BF000A443010074E5FF1F044A054B1360054A26
:101C00001360054A136008F007BD00BF4CA7FF1F13
:101C10000320003848A7FF1F44A7FF1F08B5FEF7A1
:101C200073FC08BD01448A71704701EB8200704764
:101C3000F0B504468DB0474811F016FC05460CF08F
:101C40004BFF00282ED1444904A808F044FA294645
:101C5000684608F040FA694604A808F0FEFA3F49D1
:101C600008F004FB0A2206464FF4802108A808F079
:101C70007BFA08A9304608F0F0FA01463848FEF72A
:101C800050FC08A808F0E7F9684608F0E4F904A851
:101C900008F0E1F90CF06AFE4FF480210246284674
:101CA0000CF026FF284611F0C5FA2E4811F0DCFB97
:101CB00006460CF011FFF0B908A82B4908F00BFA02
:101CC000314604A808F007FA04A908A808F0C5FAE4
:101CD00001462348FEF725FC04A808F0BCF908A833
:101CE00008F0B9F90CF042FE4FF48021024630466C
:101CF0000CF0FEFE18E008A831460CF06DFE04F171
:101D0000580308AA0DF1280E1F46154603CD754548
:101D1000186059602A4603F10803F6D12868186054
:101D2000AA889A80A36D7BB9304611F083FA0CF033
:101D300037FD0028FBD0002384F84630637020462E
:101D400000F0C6FC0DB0F0BD0023236638460DF050
:101D500011F8E9E7C63F0100D6430100EB4301005B
:101D6000F8E7FF1F0A3F0100F34301002DE9F04FA0
:101D7000C7788FB004462FB103202AE37B1C402B89
:101D800006D01F4604EB070B9BF80630002BF5D05E
:101D900008F0C0FEE36C4CF25032C01A904240F2A0
:101DA000F781AD4811F060FB0190AC4811F05CFB8D
:101DB00081460CF0F5FC002800F0BC814FF4805007
:101DC000012111F0EFF99BF806305FFA87F8013B2B
:101DD0004FEA980608F003058246032B00F2A7811C
:101DE000DFE813F004005600E70058019C4906A8FC
:101DF00008F071F9294602A808F0A3F902A906A87B
:101E000008F02BFA974908F031FA314683460AA8C0
:101E100008F097F958460AA908F01FFA01469248B7
:101E2000FEF77FFB0AA808F016F902A808F013F9DC
:101E300006A808F010F90AA849460CF0CDFD04F1F7
:101E400058030AAA0DF1300C9B469646BEE80300E3
:101E5000E64518605960724603F10803F5D1106831
:101E6000186092889A80A36D002B00F09281414601
:101E70002046FEF7A4FE2744206658460CF090FF4B
:101E80000223BB7108F046FEE06406A877492BE107
:101E9000774906A808F01FF9294602A808F051F969
:101EA00002A906A808F0D9F96E4908F0DFF9314611
:101EB00083460AA808F045F90AA9584608F0CDF962
:101EC0006C4908F0D3F901466748FEF72AFB0AA8D7
:101ED00008F0C1F802A808F0BEF806A808F0BBF8A0
:101EE0000AA801990CF078FD0AAA04F158030DF133
:101EF000300C9646BEE80300E6451860596072460D
:101F000003F10803F5D11068186092889A8056484A
:101F10005949FFF783FEA36D002B40F061815749BB
:101F200006A808F0D8F894F8461002A808F009F9B5
:101F300002A906A808F091F9514908F097F9294635
:101F400083460AA808F0FDF80AA9584608F085F962
:101F500001464548FEF7E5FA0AA808F07CF802A811
:101F600008F079F806A808F076F846493E48FFF7E9
:101F700055FE0AA849460CF02FFD0AAA04F15803A1
:101F80000DF1300C9646BEE80300E6451860596036
:101F9000724603F10803F5D11068186092889A80A0
:101FA00031483949FFF73AFEA36D002B40F04081DC
:101FB0009EE1364906A808F08EF8294602A808F0E6
:101FC000C0F802A906A808F048F9264908F04EF919
:101FD000314683460AA808F0B4F858460AA908F022
:101FE0003CF901462048FEF79CFA0AA808F033F8AD
:101FF00002A808F030F806A808F02DF80AA8019900
:102000000CF0EAFC04F158030AAA0DF1300C9B46CF
:102010009646BEE80300E64518605960724603F133
:102020000803F5D11068186092889A80A36D002B80
:1020300000F0A88141462046FEF7C1FD20665846C3
:102040000CF0AEFE08F066FD27440423E064BB718B
:1020500006A80F4948E000BF0A3F0100C63F010043
:102060000944010039440100F8E7FF1F3E44010024
:1020700077440100B7440100ED7101001D460100E5
:102080006E460100DD720100197301001145010067
:1020900042450100AA4906A808F01DF8294602A8F1
:1020A00008F04FF802A906A808F0D7F8A54908F0EB
:1020B000DDF8314607460AA808F043F80AA9384671
:1020C00008F0CBF80146A048FEF72BFA0AA807F063
:1020D000C2FF02A807F0BFFF06A807F0BCFF00235D
:1020E0009A498BF8063006A807F0F5FF294602A8A2
:1020F00008F027F802A906A808F0AFF8914908F0FF
:10210000B5F8314605460AA808F01BF80AA9284682
:1021100008F0A3F801468C48FEF703FA0AA807F076
:102120009AFF02A807F097FF06A807F094FF504611
:1021300011F080F8484611F07DF8019811F07AF816
:1021400000231D46E21892790AB10135EDB2013340
:10215000402BF7D12378DBB1D5B97D490AA807F028
:10216000BAFF08F0D7FC216D0A22411A06A808F030
:1021700021F806A90AA808F070F801467248FEF78F
:10218000D0F906A807F067FF0AA807F064FF2570DA
:102190001FE106A86F4907F09EFF94F8461002A8B9
:1021A00007F0CFFF02A906A808F057F86A4908F01F
:1021B0005DF8494607460AA807F08DFF0AA9384688
:1021C00008F04BF801466048FEF7ABF90AA807F0A3
:1021D00042FF02A807F03FFF06A807F03CFF54E6C5
:1021E00041462046FEF7EBFC5C4920665648FFF767
:1021F00015FD236EE26D03F58051914215D993428E
:102200000AD2C3EB020BA06D514618445A460CF09B
:102210001FF8236E5B44236651494B48FFF7FEFCD1
:1022200050494948FFF7FAFC9FE64FF4805BEAE724
:1022300020464146FEF7C3FCE36D206600F5805260
:102240009A4252D998420AD2C0EB0308A36D514674
:10225000184442460CF0E4F8236E4344236608F029
:1022600059FC4149E06406A807F035FF294602A859
:1022700007F067FF02A906A807F0EFFF314907F052
:10228000F5FF314680460AA807F05BFF0AA94046E1
:1022900007F0E3FF354907F0E9FF01462A4807F058
:1022A00031FE0AA807F0D7FE02A807F0D4FE06A860
:1022B00007F0D1FE51462448FEF726F9224807F0E0
:1022C00041FE21482A49FFF7A9FC27440323BB719B
:1022D00028491D48FFF7A2FC27491B48FFF79EFC31
:1022E0000023637006A82549FEE64FF48058ADE749
:1022F00006A8184907F0EFFE94F8461002A807F068
:1023000020FF02A906A807F0A8FF1D4907F0AEFFAD
:10231000294680460AA807F014FF0AA9404607F09C
:102320009CFF01460848FEF7FCF80AA807F093FE58
:1023300002A807F090FE06A807F08DFEC5E700BFD3
:102340007C45010039440100F8E7FF1FBB4501004F
:10235000044601001D4601004046010029720100AB
:1023600065720100A1720100BB4401007B470100BE
:10237000557301006473010007710100C744010037
:10238000A046010006A8144907F0A5FE94F84610DF
:1023900002A807F0D6FE02A906A807F05EFF0F49C3
:1023A00007F064FF294607460AA807F0CAFE0AA9F3
:1023B000384607F052FF01460948FEF7B2F80AA86E
:1023C00007F049FE02A807F046FE06A807F043FE04
:1023D0003EE60FB0BDE8F08F1D460100D346010078
:1023E000F8E7FF1F044A054B1360054A1360054ACE
:1023F000136008F011B900BF58A7FF1F0320003871
:1024000054A7FF1F50A7FF1F0A22002307F0AABDF1
:1024100038B58368144642680546E018904202D9F0
:1024200093420AD2D41A2868224618440BF010FFAF
:10243000AB682344AB60204638BD002038BDFFFFA9
:10244000F0B5054685B0184811F00EF804460CF0BA
:10245000A7F90028FBD020460CF03EFBB8B968462F
:1024600021460CF0B9FA05F158036A4602AF1E4640
:10247000144603CCBC4218605960224603F108039D
:10248000F6D120681860A2889A80AB6D23B90CF051
:1024900087F90028FBD005E000232B6630460CF0BE
:1024A00069FCF4E705B0F0BDC63F01002DE9F0413D
:1024B00086B004A80CF0B2F8304D04A80CF0C0F9B6
:1024C0002B680093DDF80080044600284FD02C498B
:1024D0002C48FFF7A3FB21462A48FFF795FF2A491E
:1024E0002848FEF728F829492648FEF724F8284905
:1024F0002448FEF720F80CF0CDF82B680193019EDC
:1025000000240CF04DF90746A8B92B680293029BF2
:102510009B1BB3F57A7FF4D901341A481D49E4B204
:10252000FFF77CFB3B2C06F57A76EAD9154807F0D5
:1025300009FD3C46E5E714B1124807F003FD1649D2
:102540001048FDF7F8FF2B680393039B13490D48D0
:10255000C8EB0308FFF762FB4FF47A71B8FBF1F1A7
:102560000848FFF751FF07480D49FDF7E4FF4FF416
:102570007A7008F0EDFA06B0BDE8F08104E6FF1FBE
:1025800006470100F8E7FF1F184701002047010038
:102590003A470100684101005047010060470100CF
:1025A0007047010070B590B0414905460CA807F08E
:1025B00092FD404B08A8197807F0C3FD08A90CA8A4
:1025C00007F04BFE01463C48FDF7ABFF08A807F0BB
:1025D00042FD0CA807F03FFD0024384904A807F08D
:1025E0007AFD6B6D23446846D97907F0AAFD6946E8
:1025F00004A807F032FE324907F038FE6B6D234421
:102600000A22998C064608A807F0AEFD304608A9B4
:1026100007F023FE2B4907F029FE6B6D2344064685
:10262000197A0CA807F08DFD30460CA907F015FEAD
:10263000254907F01BFE01461F4807F063FC0CA864
:1026400007F009FD08A807F006FD684607F003FD3E
:1026500004A807F000FD00266B6D1C2202FB063368
:10266000234408A893F8381007F06BFD08A90CA8BC
:1026700007F04CFD14490CA807F0F8FD01460E4880
:1026800007F040FC0CA807F0E6FC013608A807F0AC
:10269000E2FC102EE0D108480C49FDF74CFF04F293
:1026A0003C7441F6F0439C4297D110B070BD00BF1E
:1026B0007D47010074E5FF1FF8E7FF1F9947010000
:1026C0009E470100A44701007B4701007C470100B1
:1026D000F0B5374B00229FB006461A800EA8402165
:1026E00001AA0CF0E9FA00285FD032493248FFF71E
:1026F00095FA31480EA9FFF791FA00240EA810F0C0
:10270000CEFEC0F1140084422B4804D22B49FFF7BF
:1027100085FA0134F2E72749FFF780FA0199264844
:10272000FFF772FE26492448FFF778FA224807F09F
:1027300009FC00244FF4805010F074FD0546346607
:1027400029465A2206F15800FFF762FE00230A22AA
:10275000214602A885F85B3007F006FD02A906A80D
:1027600007F0D4FC174906A807F080FD2946074664
:102770000AA807F0B0FC0AA9384607F06EFD01462A
:102780000D48FDF7CEFE0AA807F065FC06A807F085
:1027900062FC02A807F05FFC04F58054284610F0A4
:1027A00049FDB4F5802FC5D198E71FB0F0BD00BF3B
:1027B00002E9FF1FAA470100F8E7FF1FAB4701002E
:1027C000AD47010058740100044A054B1360054AE7
:1027D0001360054A136007F01FBF00BF64A7FF1F07
:1027E0000320003860A7FF1F5CA7FF1F38B5044611
:1027F00008F090F9D22360601721052204F1080047
:102800000FF005FA0021172204F11C0007F0EAFF7F
:1028100001232377022363770323A3770423E3773A
:10282000062384F82030072384F82130082384F815
:102830002230092384F823300B2384F824300C231E
:1028400084F825300D2384F826300E2384F82730B1
:10285000102384F82830112384F82930122384F8B7
:102860002A30132384F82B30052384F82D300A23D3
:1028700084F82E300F2384F82F300C4B03F1100214
:1028800004F13301104653F8045B41F8045B9342B2
:10289000F9D10368C4F84330054B1A889B78A4F833
:1028A000472084F84930204638BD00BFA04A0100C7
:1028B000B44A0100C943CAB2542A09D8A2EB820023
:1028C000013802EB42020021C0B2D2B20B4618E03E
:1028D000A92A0BD8553AD2B202EB4201A2EB8202EE
:1028E000013A0020C9B2D2B203460AE05632D2B24F
:1028F00002EB4200A2EB8202511E0022C0B2C9B21A
:1029000013460FF015BAFFFF2DE9F04F044685B0CE
:1029100000F1100B0646371BFFB2DFF81481254685
:10292000384605F067F898F8002055F8083B40F263
:102930003C7A0AFB0233DB78834203D196F83310EA
:10294000FF222CE0384605F055F8374B1B788342C0
:1029500014D1364B96F833701B680393039A052302
:10296000B2FBF3F3FF2293FBF2F29918C9B22046AF
:10297000FFF7A0FF3946024628462DE098F80020D0
:10298000236838460AFB023905F034F81C2202FBA2
:10299000009090F83D304BB996F833100122009228
:1029A0000192284613460FF06DF917E0236898F856
:1029B000002096F8339038460AFB023A05F01AF8E0
:1029C00000220146504601F01BFD01462046FFF75C
:1029D00071FF4946024628460FF07CF901365E45F4
:1029E00099D10026124A1378B34204EB06030BD1A7
:1029F0002046002193F84370FFF75CFF39460246FA
:102A000028460FF067F908E0002293F8431000927F
:102A10000192284613460FF035F90136042EE1D114
:102A200005B0BDE8F08F00BF6FE5FF1F04E6FF1F94
:102A300035E5FF1F2DE9F04F044687B000257C4B9C
:102A40001A78AA4204EB050304F108060BD12046CC
:102A5000402193F84370FFF72DFF39460246304678
:102A60000FF038F908E0002293F843100092019229
:102A7000304613460FF006F90135042DDFD104F17D
:102A8000100B25462F1BFFB2DFF8A491384604F047
:102A9000B1FF4B4640F23C781A78236808FB0233BA
:102AA000DA788242384646D1039304F0A3FF039BB1
:102AB0004FF01C0A0AFB003090F83D30012B08D182
:102AC000FF22802395F8331030468DE80C00002259
:102AD0002FE099F800202368384608FB023303935F
:102AE00004F088FF039B0AFB003090F83D30022B76
:102AF00006D10023802295F833100093019276E0EE
:102B0000236899F80020384608FB023804F072FF69
:102B10000AFB008095F8331090F83D30032B04D168
:102B2000002280238DE80C0077E0FF2200920192C2
:102B30003046134673E004F05DFF3E4B1B78834242
:102B400016D13D4B95F833701B680593059A052304
:102B5000B2FBF3F3FF2293FBF2F299182046C9B2BD
:102B6000FFF7A8FE3946024630460FF0B3F858E0AA
:102B700099F800202368384608FB0233039304F0D9
:102B800039FF039B4FF01C0A0AFB003090F83D20F0
:102B900012B995F83310C9E799F800202368384630
:102BA00008FB0233039304F025FF039B0AFB00306C
:102BB00090F83D30012B05D1FF2395F83310009399
:102BC0000022B4E799F800202368384608FB023356
:102BD000039304F00FFF039B0AFB003090F83D3095
:102BE000022B07D1002395F8331000930193304650
:102BF000FF2214E0236899F80020384608FB0238C9
:102C000004F0F8FE0AFB008090F83D30032B08D159
:102C1000002295F83310009201923046FF230FF006
:102C200031F801355D457FF42DAF07B0BDE8F08F79
:102C300035E5FF1F6FE5FF1F04E6FF1FF7B50546EB
:102C40000024114B1B78A34205F1080605EB040391
:102C50000BD12846802193F84370FFF72BFE3946AD
:102C6000024630460FF036F808E0002293F8431091
:102C700000920192304613460FF004F80134042C00
:102C8000DFD103B0F0BD00BF35E5FF1FF7B5054646
:102C90000024114B1B78A34205F1080605EB040341
:102CA0000BD12846C42193F84370FFF703FE394641
:102CB000024630460FF00EF808E0002293F8431069
:102CC00000920192304613460EF0DCFF0134042CD2
:102CD000DFD103B0F0BD00BF35E5FF1F2DE9FF4197
:102CE00004460D4607F016FF6368C01AA84240F27A
:102CF0008E8007F00FFF474B60601B78612B04F15B
:102D000008050FD005D8022B18D0602B7AD10026E9
:102D100041E0632B0ED009D3642B73D12046FFF71B
:102D2000B5FF6FE02046FFF7EFFD6BE02046FFF7B1
:102D300081FE67E02046FFF781FF63E00026A319CC
:102D4000F0B293F83370344B1A78236840F23C7831
:102D500008FB023804F04EFE00220146404601F016
:102D60004FFB01462046FFF7A5FD013602463946D6
:102D700028460EF0AFFF102EE1D10026A319002245
:102D800093F8431000922846134601360EF055FF83
:102D9000042EF3D136E0A319204693F833701F4B6D
:102DA0001B680393039A0523B2FBF3F3122202FB81
:102DB0000633FF2293FBF2F29918C9B2FFF77AFDAE
:102DC00001360246394628460EF084FF102EE2D125
:102DD0000026134B1A78A319324112F0010293F81E
:102DE000431005D0FF22009201922846134604E0CA
:102DF0007F23009301922846FF2301360EF042FF05
:102E0000042EE6D172B628460EF04CFE62B604B02F
:102E1000BDE8F08160A4FF1F35E5FF1F04E6FF1F3A
:102E200068A4FF1F2DE9F0470546894600260024C7
:102E300006EB04182B195FFA88F84146284693F8E8
:102E400033A0FFF737FD05F1080702465146384623
:102E50000EF040FF04F003032B444146284693F84C
:102E600043A0FFF727FD01340246514638460EF0D5
:102E700031FF102CDCD1384601360EF013FEB6B20D
:102E8000484607F065FEB6F5807FD0D1BDE8F087F3
:102E9000F7B52A4C236816225B6805460E46204685
:102EA0002749984720462C4607F04CF844F8086B11
:102EB0000520012107F0F0FD642120460EF03FFFC0
:102EC00020460EF09DFD20460EF0ECFD002700266A
:102ED000AB19FAB293F833100092019220461346D0
:102EE00001360EF0CFFE102EF2D120460EF0DAFDA4
:102EF0000137012007F02CFEB7F5807FE7D1FF27CF
:102F00000026AB19FAB293F83310009201922046D2
:102F1000134601360EF0B6FE102EF2D120460EF00A
:102F2000C1FD012007F014FE013FE9D1284601212F
:102F300003B0BDE8F040FFF775BF00BFF8E7FF1F23
:102F4000B74A0100044A054B1360054A1360054A5D
:102F5000136007F061BB00BF70A7FF1F032000389C
:102F60006CA7FF1F68A7FF1F2DE9F04705468CB02F
:102F70000C4616461F46BE49BE48FDF7DCFAAE6257
:102F80002F6201260027BC492F736F73AF73EF7355
:102F90002E746E74AE74EE742F756F75AF75EF7519
:102FA0002E766E76AE76EE76B248FDF7C4FA2046FF
:102FB00021216C6201F0D4FF2046394608223346B5
:102FC00001F016FE204631460422334601F010FE81
:102FD000204602210922334601F00AFE2046032141
:102FE0000522334601F004FE204611210622334615
:102FF00001F0FEFD204604210A22022301F0F8FD23
:10300000204605210722022301F0F2FD2046062179
:103010000B22022301F0ECFD204607210C220223A3
:1030200001F0E6FD204608211B22334601F0E0FDB9
:10303000204609211222334601F0DAFD20460A21FA
:103040001322334601F0D4FD20460B2114223346CF
:1030500001F0CEFD20460C211522334601F0C8FDBB
:1030600020460D211622334601F0C2FD20460E21D6
:103070001722334601F0BCFD20460F2103223346C0
:1030800001F0B6FD204610211822334601F0B0FDB4
:10309000204616210E22022301F0AAFD204612210D
:1030A0000222334601F0A4FD2046132132463B465E
:1030B00001F09EFD204614211A223B4601F098FDA6
:1030C000204615210D223B4601F092FD2046172196
:1030D0000F223B4601F08CFD2046182110223B4672
:1030E00001F086FD2046192111223B4601F080FDAA
:1030F00020461A2119223B4601F07AFD3A463B460A
:103100001B21204601F074FD204601F0AFFE5B4913
:103110005848FDF710FA022105F11C0001F000FDEE
:1031200005F11E090A2007F013FD1321484601F09E
:10313000C5FF05F11F080A2007F00AFD40461221CD
:1031400001F0BCFF0A2007F003FD4D4904A806F07A
:10315000C2FF0A223946684607F006F8694604A805
:1031600007F07BF8474907F081F8FEB28246314606
:10317000484602F017F8014608A806F0E2FF50465C
:1031800008A907F06AF801463A48FDF7CAF908A805
:1031900006F061FF684606F05EFF04A806F05BFFDC
:1031A000012007F0D5FC384904A806F094FF0A2254
:1031B0003946684606F0D8FF694604A807F04DF87E
:1031C000304907F053F831468246404601F0EAFFA5
:1031D000014608A806F0B5FF504608A907F03DF8DB
:1031E00001462448FDF79DF908A806F034FF68461B
:1031F00006F031FF04A806F02EFF012007F0A8FC1E
:10320000012007F0A5FC31460122484601F092FF5B
:10321000012007F09DFC01223146404601F08AFF63
:10322000012007F095FC012007F092FC144904A846
:1032300006F051FF0A223946684606F095FF6946B6
:1032400004A807F00AF80F4907F010F83146824643
:10325000484601F0A7FF014608A806F072FF504655
:1032600008A906F0FAFF01460248FDF75AF90DE0F9
:10327000CE4A0100F8E7FF1FE04A0100FA4A0100C8
:103280000B4B01006B4601001A4B010008A806F029
:10329000E2FE684606F0DFFE04A806F0DCFE012030
:1032A00007F056FC7E4904A806F015FF0A223946AD
:1032B000684606F059FF694604A806F0CEFF794932
:1032C00006F0D4FF31468246404601F06BFF0146CE
:1032D00008A806F036FF504608A906F0BEFF0146D2
:1032E0007148FDF71EF908A806F0B5FE684606F01D
:1032F000B2FE04A806F0AFFE012007F029FC012071
:1033000007F026FC3146FF22484601F013FF01205A
:1033100007F01EFCFF223146404601F00BFF012062
:1033200007F016FC012007F013FC604904A806F022
:10333000D2FE0A223946684606F016FF694604A8FE
:1033400006F08BFF574906F091FF3146824648460A
:1033500001F028FF014608A806F0F3FE504608A930
:1033600006F07BFF01465048FDF7DBF808A806F0A1
:1033700072FE684606F06FFE04A806F06CFE01209F
:1033800007F0E6FB464904A806F0A5FE0A223946E6
:10339000684606F0E9FE694604A806F05EFF41496A
:1033A00006F064FF31468246404601F0FBFE0146CE
:1033B00008A806F0C6FE08A9504606F04EFF0146D2
:1033C0003948FDF7AEF808A806F045FE684606F055
:1033D00042FE04A806F03FFE0137012007F0B8FBCB
:1033E000042F7FF4B2AE2E462F1D96F830302B44BA
:1033F000204693F83810012201F0A7FD96F83430EA
:103400002B44204693F838100122013601F09DFD2F
:10341000BE42EAD126492448FDF78DF81F2001213C
:1034200007F03AFB0420012107F036FB21491E4832
:10343000FDF781F8204601F04FFD00251E4904A844
:1034400006F049FE0A222946684606F08DFE6946C6
:1034500004A806F002FF194906F008FFE9B2064683
:10346000204601F085FC0A22014608A806F07CFEF1
:1034700008A9304606F0F1FE01460B48FDF751F869
:1034800008A806F0E8FD684606F0E5FD013504A849
:1034900006F0E1FD1C2DD1D10CB0BDE8F08700BFD6
:1034A0001A4B01006B460100F8E7FF1F0B4B0100B0
:1034B000294B01003E4B0100684B01007B47010096
:1034C0002DE9F0472D4B8EB01B6801938246019881
:1034D00009F0AEFD0EF060FD002300220AF0AEF808
:1034E0004FF6FF75002808BF0025254906A806F0FD
:1034F000F2FD0A22294602A806F036FE02A906A815
:1035000006F0ABFE1F4906F0B1FE044607F002FBD1
:103510001D4B19680A22411A0AA806F04BFE2046E4
:103520000AA906F09AFE01461848FCF7FAFF0AA815
:1035300006F091FD02A806F08EFD06A806F08BFDB0
:1035400000240AF11C095FFA84F8AFB248464146EC
:103550003A46282601F000FB3346013B7FF4FDAFDD
:10356000484641463A4601F0F7FA013E7FF4FDAF86
:103570000134082CE5D10EB0BDE8F08704E6FF1F4A
:10358000774B0100954B010050E5FF1FF8E7FF1F47
:1035900038B50446406A1E4D01F09EFC206A112198
:1035A00001220DF08BFE242128800122206A0DF0DB
:1035B00085FE252168800122206A0DF07FFE012210
:1035C000A8802221206A0DF079FE0421E880606A3B
:1035D000104D01F051FD05212870606A01F04CFD8D
:1035E00006216870606A01F047FD0721A870606AD3
:1035F00001F042FD0821E8700122606A01F0A5FC9B
:10360000606A08210022BDE8384001F09EBC00BF7E
:1036100042E5FF1F61E5FF1F2DE9F04F45188FB010
:10362000994695F830309DF868709DF860800344A5
:1036300004460E469246406A93F8381007B30022BB
:1036400001F083FC95F830302344FF2293F840309A
:103650000092190903F00F08384607D17F220B4664
:1036600006F0EFFCC2B204F11E0007E000217F2249
:103670000B4606F0E6FCC2B204F11F0041468FE0A3
:10368000012201F062FCB8F1010F4AD10AA8734986
:1036900006F021FD314606A806F053FD06A90AA84A
:1036A00006F0DBFD01466E48FCF73BFF06A806F07E
:1036B000D2FC0AA806F0CFFC95F8343023444FF62C
:1036C000F02893F840100A0916BF3A4604F11E008C
:1036D00004F11F0001F00F0101F02CFD95F834B04A
:1036E000CDF8008040F20463484600217F2206F0B6
:1036F000A8FC04F11C0782B25946384601F02CFAA6
:1037000095F834B0CDF80080484600217F2240F281
:10371000046306F096FC594682B2384601F01CFA62
:103720002CE02DD94F4906A806F0D5FC314602A859
:1037300006F007FD02A906A806F08FFD4A4906F02B
:1037400095FD414607460AA806F0FBFC0AA9384643
:1037500006F083FD01464248FCF7E3FE0AA806F0A6
:103760007AFC02A806F077FC06A806F074FC9DF827
:10377000643085F814902B7485F80C8001232B7627
:10378000A31993F83030234493F840100A0908BF76
:1037900004F11E0001F00F011CBF04F11F00002204
:1037A00001F0C8FC022E07D0032E08D0012E15D13F
:1037B000206A2421324605E0206A252101E0206AA2
:1037C000222101220DF07AFD6FF03B0300930021CE
:1037D00040F2FF323C2306F034FC00E00020C82712
:1037E0003B46013B7FF4FDAF4FF6F02B824495F84A
:1037F0003090CDF800B048F28003504600217F227F
:1038000006F01FFC04F11C0882B24946404601F054
:10381000A3F93B46013B7FF4FDAF48F2800395F8E6
:103820003050CDF800B0504600217F2206F009FC50
:10383000294682B2404601F08FF9013F7FF4FDAF87
:103840009DF86C3023B1606A3146012201F07DFBA6
:1038500007F060F9A0600FB0BDE8F08FBF4B01002A
:10386000F8E7FF1FDD4B0100FA4B01002DE9F341A2
:1038700046180746337B012B40F2BF80032B2DD027
:10388000042B58D0022B40F08280347C07F042F9A0
:103890005B4B1B68C01A604309F0D8FF59490AF016
:1038A0002DF8594B04461868000109F0CFFF014676
:1038B00020460AF0D7F809F0DDFB0EF06DFB044658
:1038C000307D0D4609F0C4FB02460B4620462946D2
:1038D00009F024FC09F0BCFEC4B22AE0347C07F0F5
:1038E00019F9474B1B68C01A604309F0AFFF4549FF
:1038F0000AF004F8444B04461868000109F0A6FFDA
:10390000014620460AF0AEF809F0B4FB0EF044FB85
:103910000022002309F092FE347D08B96442E4B22B
:1039200096F83430786A3B44012293F8381001F05D
:103930000CFB00222BE0347C07F0ECF8304B1B68CA
:10394000C01A604309F082FF2E4909F0D7FF2E4BC1
:1039500004461868000109F079FF014620460AF084
:1039600081F809F087FB0EF017FB0022002309F015
:1039700065FE347D08B96442E4B296F83430786A62
:103980003B44002293F8381001F0DFFA282296F821
:1039900034303B4464B293F840100B090CBF07F17C
:1039A0001E0007F11F0001F00F0101F0C3FB4FF6ED
:1039B000FF75002396F83480337620460123009566
:1039C0006FF07E017F2206F03CFB1C3782B241463D
:1039D000384601F0C1F896F83460009520466FF043
:1039E0007E017F22012306F02CFB314682B238464D
:1039F00002B0BDE8F04101F0AFB802B0BDE8F0811F
:103A000050E5FF1FD00F494030E5FF1F70B5044659
:103A10000E4615461BB1406A002201F096FA711E4F
:103A2000C9B20F29A46A0DD894F84A3041F0800138
:103A30008B420BD0D4F8E00084F84A1003681B686E
:103A4000984703E0002384F84A3070BDD4F8E000C2
:103A5000036805F07F011B689847D4F8E00003680D
:103A600040211B68984770BD38B5002204460D46BA
:103A7000406A01F06AFA6019002303730375012399
:103A8000037638BD37B50D4604461121406A2A46F3
:103A900001F05BFA25B1034B1B680193019B236086
:103AA00003B030BD04E6FF1F38B505460024074BC0
:103AB000E1B205F11C001A8801F04EF80134012032
:103AC00007F046F8082CF2D138BD00BF6CE5FF1FA7
:103AD000044A054B1360054A1360054A136006F05B
:103AE0009BBD00BF7CA7FF1F0320003878A7FF1FE6
:103AF00074A7FF1FF0B58DB004460E4604A83349E5
:103B0000154606F0E8FA3146684606F01AFB6946A3
:103B100004A806F0A2FB2E4906F0A8FB294607469A
:103B200008A806F00EFB08A9384606F096FB0146E9
:103B30002848FCF7F6FC08A806F08DFA684606F05F
:103B40008AFA04A806F087FA1023E3710423A384F9
:103B500000232372637244F62063E572A672236128
:103B60004025012284F83E2084F8402084F841203A
:103B7000042284F8422084F844201823432284F845
:103B8000383084F845200023102284F8393084F836
:103B90003A3084F83B3084F83C3084F83D3084F887
:103BA0003F3084F8433084F8463084F84720E3649B
:103BB00084F8483084F84A3006F0ACFF013D2065B7
:103BC00004F11C04CDD10DB0F0BD00BF1C4C0100B0
:103BD000843E0100F8E7FF1FF0B51C2606FB01003C
:103BE000C61895B086F838200C4604A82349154617
:103BF0001F4606F070FA2146684606F0A2FA6946AA
:103C000004A806F02AFB1E4906F030FB29460446AC
:103C100008A806F096FA08A9204606F01EFB1949E6
:103C200006F024FB394604460CA806F08AFA0CA9D3
:103C3000204606F012FB144906F018FB96F83810DF
:103C4000044610A806F07DFA10A9204606F005FBF0
:103C500001460E48FCF765FC10A806F0FCF90CA81C
:103C600006F0F9F908A806F0F6F9684606F0F3F947
:103C700004A806F0F0F915B0F0BD00BF924C0100A9
:103C8000404C0100EB4F01003C4C0100F8E7FF1FE6
:103C900030B50123837089B004460D4606F03AFF23
:103CA0000023E17960632377E3702371A370A3712C
:103CB000A3738B4204F11C0406DA002284F82C2042
:103CC00084F82D200133F4E70D4904A806F003FA27
:103CD00006F020FF29680A22411A684606F06AFAAF
:103CE000694604A806F0B9FA01460648FCF719FC33
:103CF000684606F0B0F904A806F0ADF909B030BD89
:103D0000494C0100F8E7FF1F38B54FF4801393FBCF
:103D1000F1F3436183790173013393FBF1F20446BC
:103D200001FB1231036981719D0006F0F3FE636BA4
:103D3000EB1A05221844B0FBF2F32361A26A236A4E
:103D4000032103EB4203B3FBF1F3A362A3795BB955
:103D5000A37BE2790133DBB2B3FBF2F102FB113357
:103D6000DBB2A37303B92377E37A1BB9064807498B
:103D7000FCF7CAFB06F0CEFE00216063D4F83807DA
:103D8000BDE83840FFF77EBEF8E7FF1F554C010045
:103D90001C2303FB010191F944000028C7BF4FF425
:103DA000801393FBF0F0C0F1020000057047F8B5F6
:103DB0000024C77906462546BC420ADA1C2303FBC9
:103DC0000463E1B2DD643046FFF7E2FF01340544ED
:103DD000F2E72846F8BDFFFF2DE9F041104D0446FB
:103DE0000E4628460F4917469846FCF78DFB284695
:103DF00006F0A8F80023A372069BE362E672E7715F
:103E0000A4F8248006F086FE20632046FFF7CFFF4B
:103E100001232370079BC4F83837BDE8F08100BF49
:103E2000F8E7FF1F574C0100C162FFF7C0BF38B56C
:103E3000026A4369857902FB03F1826AB1FBF2F2FF
:103E400003FB0523857B044603EB0555FFF7AFFF16
:103E5000237F03FB00F2954204D8B5FBF0F300FB8F
:103E6000135038BD01332377E1790023E3708B428F
:103E7000F3DA94F84820042A04D1002284F8482078
:103E800084F8492001331C34F1E7F8B50446FFF704
:103E9000CEFFE5781C2303FB054307462946204651
:103EA000DE6CFFF775FF304487420BD9227994F915
:103EB00044300132D2B292FBF3F1013503FB1123FE
:103EC000E5702371F8BD1C2303FB010191F83F004D
:103ED00058B191F8423091F83E0010FB03F091F890
:103EE000413090FBF3F0C0F387007047F8B51C2415
:103EF00004FB0104134694F84820012A05460E46A7
:103F000015D1D0F83807E97A94F84A20FFF77EFDFA
:103F100028463146FFF7D7FF94F84970874206D903
:103F200094F84830042B1CBF042384F84830F8BDB3
:103F300030B5023BDBB20C2B98BF15489DF80C4006
:103F400094BF30F8133040F6FF730020904206DA39
:103F500003F001055B1043EAC5230130F6E70D20AD
:103F60000C22B1FBF2F502FB1512D2B24FF4006540
:103F700045FA02F29A4308D00CB1013100E0013950
:103F8000013810F0FF00C9B2EAD1084630BD00BFC9
:103F9000024C0100F0B51C234B431646C2188FB0EB
:103FA00092F8492004460D4642B903F1500706F045
:103FB000B1FDE05106F0AEFD734B18601C2303FB0E
:103FC000054393F84820042A16D108A86F4906F043
:103FD00082F8294604A806F0B4F804A908A806F057
:103FE0003CF901466A48FCF79CFA04A806F033F84D
:103FF00008A806F030F8C5E093F8381093F83900B7
:104000008DF820100844012283F848208DF8210003
:1040100093F83A0093F83B30084419448DF8231084
:10402000C5EBC5018DF8220004EB8101042388183B
:10403000013290F83800FF2804BF03F1FF33DBB2F0
:10404000042AF4D1194603EB8300814206DA08AA58
:10405000D71A7F5C0C378F540131F6E71C2101FB26
:10406000054292F840200AB15343DBB201FB0541FF
:104070001C2291F83F100139042953D8DFE801F0E0
:10408000030F1E33480002FB054292F84920B2FBA1
:10409000F3F103FB11230EAA52FA83F30BE002FBA8
:1040A00005420EA892F84920B2FBF3F103FB11225E
:1040B0009B1A50FA83F313F8181C35E002FB0542F3
:1040C00092F84920B2FBF3F111F0010F03FB01F16B
:1040D000C1EB020208BFC2EB0302D2B20EAB1A441C
:1040E00012F8181C20E002FB0542581E92F84920E5
:1040F00092FBF0F1CF074BBFB2FBF3F100FB1122B3
:1041000003FB1123C2EB0303DBB20EA80344D2E787
:104110001946002005F08BFF0EAA52FA80F010F825
:10412000181C01E09DF82010637A5BB10120227A0F
:1041300000902046FFF7FCFE1C2303FB054383F899
:104140004A0004E01C2303FB054383F84A101C23A8
:1041500003FB054505F1480795F8460095F84530FD
:1041600095F84A20009095F84700019095F8430093
:104170000290E17A0396D4F83807FFF74DFA7B787E
:1041800001337B700FB0F0BD70E5FF1F754C01006F
:10419000F8E7FF1F2DE9F04F0546A5B004464FF0A4
:1041A0000008EB784345C0F20A8194F84890B9F1D1
:1041B000040F00F0008194F83D70002F00F0FB80A8
:1041C0005FFA88FA28465146FFF7E2FD94F83EB0C0
:1041D0000BFB00004FEA900BB9F1000F01D184F8FE
:1041E000499094F83F3063B128465146FFF7D0FD1F
:1041F00094F8419094F8423009FB00F0B0FBF3F9D9
:1042000000E0D946A7B1012F04D0022F04D194F8C1
:1042100049307BB9012609E006F07CFC266DC9EB2C
:104220000B03801B984234BF00260126012702E0C1
:10423000012600E0002794F84830012B12D12846CF
:10424000FFF7F5FD94F84920E36C02FB09330A22DD
:10425000B9FBF2F29B1A984204D9284651463246DD
:10426000FFF744FE2846FFF7E2FD94F84920E36C8F
:1042700002FB0933984240F29E802846FFF7D7FDA3
:10428000E36CA3F5FA739B44584580F094804D4944
:1042900004A805F020FF0A224146684605F064FFA5
:1042A000694604A805F0D9FF474905F0DFFF8146BC
:1042B0002846FFF7BCFD0A22014608A805F07AFF50
:1042C000484608A905F0C9FF404905F0CFFF0A227A
:1042D00081464FF480110CA805F046FF48460CA912
:1042E00005F0BBFF3A4905F0C1FF814606F012FC1C
:1042F000296B0A22411A10A805F05CFF484610A954
:1043000005F0ABFF334905F0B1FFA97B814614A846
:1043100005F017FF484614A905F09FFF2E4905F048
:10432000A5FFA979814618A805F00BFF484618A9F2
:1043300005F093FF294905F099FF0A228146696932
:104340001CA805F037FF48461CA905F086FF244944
:1043500005F08CFF0A228146296920A805F02AFF72
:1043600020A9484605F079FF01461E48FCF7D9F818
:1043700020A805F070FE1CA805F06DFE18A805F039
:104380006AFE14A805F067FE10A805F064FE0CA8EC
:1043900005F061FE08A805F05EFE684605F05BFECC
:1043A00004A805F058FE06F0B5FB514628633A46CE
:1043B0002846FFF7EFFD08F101081C34F1E625B0AF
:1043C000BDE8F08F854C0100994C01009F4C010025
:1043D000A64C0100AC4C0100B14C0100BC4C0100EA
:1043E000C24C0100F8E7FF1F10B5036A0133044611
:1043F0000362FFF74AFD2046BDE81040FFF7CABE42
:104400001C2303FB01010A4492F838007047FFFFA8
:10441000044A054B1360054A1360054A136006F011
:10442000FBB800BF88A7FF1F0320003884A7FF1F29
:1044300080A7FF1F10B5044606F06CFB2368C01A66
:1044400010BDFFFF13B5194B1A680092009A026065
:104450001B680193019B436004460830FCF775F824
:1044600004F11C0000F05AFB04F11E0000F024FED1
:1044700004F11F0000F020FE0D4A1346114653F8C8
:10448000040BE062186820639068606351F80C0FB9
:10449000496804F1380303C352F8140F516804F15A
:1044A000400303C3204602B010BD00BF04E6FF1F57
:1044B000CA4C010013B504460C30FCF746F804F171
:1044C0001400FCF742F804F11800FCF73EF8144B16
:1044D0001B680193019B636404F14800FFF7B2FF7E
:1044E00004F1900003F0FEFA04F1D80000F068FE39
:1044F00004F22440FEF77AF904F58E60FCF7ECFA3A
:1045000004F2245000F06CFB04F2645000F068FBED
:1045100004F2B450FCF719F8204602B010BD00BFF9
:1045200004E6FF1F2DE9F04F8DB00446894685480B
:104530008549DFF838821D4604F14807924604F2A7
:10454000645BFBF7F8FF169BC4F8B0353846594654
:104550004A46C4F8A895C4F8AC55FEF705FDD8F84E
:1045600000306426B3FBF6F38DE88800284600216E
:1045700010220423FFF730FCD8F80030B3FBF6F329
:104580008DE8880005F23C70012110220423FFF71A
:1045900023FCD8F80030B3FBF6F38DE8880005F66D
:1045A0007860022110220423FFF716FCD8F80030AF
:1045B00005F5AD50B3FBF6F68DE8C00014300321CD
:1045C0001022042304F1900804F58E66FFF704FC22
:1045D00004F224525B464046394600960195029407
:1045E00003F0D4FA4046612103F0D8FF04F1D8006B
:1045F000294600F009FE04F224402946FEF748FC53
:10460000204639462A464B46CDF800A004F0C0FAB1
:10461000169B009330464D4B39462A46FCF77CFAF0
:104620004B4B1B78002B00F082804A494548FBF732
:1046300082FF3046FDF73AFF3046FDF7F9FA0027D2
:10464000454908A805F047FD0A22394604A805F0A7
:104650008BFD04A908A805F000FE404905F006FE00
:1046600001463848FBF75DFF04A805F0F4FC08A8F4
:1046700005F0F1FC4FF000085FFA87F940F23C705A
:1046800000FB08505FFA88F2494608F10108FFF77D
:1046900031FAB8F1040FEFD12A483149FBF74BFF4B
:1046A0004FF000085FFA88F130464A4608F10108E9
:1046B000FCF7CEFCB8F1040FF4D122482949FBF7EE
:1046C0003AFF94F870341BB13046FDF74FFBF8E722
:1046D000254908A805F0FFFC0A22394604A805F080
:1046E00043FD04A908A805F0B8FD1C4905F0BEFD6E
:1046F00001461448FBF715FF04A805F0ACFC08A818
:1047000005F0A9FC01374FF4FA7006F021FA102FDA
:1047100096D194F870341BB13046FDF727FBF8E7CB
:104720004FF47A7006F014FA3046FDF7D1FF3046A8
:10473000FDF77EFA304600210F22FDF7B1F80DB0EB
:10474000BDE8F08FF8E7FF1FE64C010001E9FF1F0D
:1047500075E5FF1F024D0100504D01007D4D010028
:10476000A44D0100B94D0100CD4D010064A4FF1F0F
:10477000F0B58BB0054606F0CDF90AAC41F28831B0
:1047800044F8240D05F22440FEF7A8FA2046FFF76E
:1047900051FE42F21073984219D96E4906A805F0ED
:1047A0009AFC2046FFF746FE0A22014602A805F0C1
:1047B00001FD02A906A805F050FD01466648FBF779
:1047C000B0FE02A805F047FC06A805F044FC06F080
:1047D000A1F94EF66021019005F1900004F034F942
:1047E0002046FFF727FE42F21073984219D95B4921
:1047F00006A805F070FC2046FFF71CFE0A220146C1
:1048000002A805F0D7FC02A906A805F026FD01467E
:104810005148FBF786FE02A805F01DFC06A805F02E
:104820001AFC06F077F9019005F2B450FFF702FE8A
:1048300042F21076B04231D995F8703473B3484BD8
:1048400001271F6005F58E60FDF790FA454B1F604C
:1048500006F060F9C5F8B4052046FFF7EBFDB0425D
:1048600019D9414906A805F036FC2046FFF7E2FDBC
:104870000A22014602A805F09DFC02A906A805F03F
:10488000ECFC01463448FBF74CFE02A805F0E3FBC4
:1048900006A805F0E0FB06F03DF9019005F1D8000F
:1048A00041F2701102F0F4FC2046FFF7C3FD42F222
:1048B0001073984219D92D4906A805F00CFC204622
:1048C000FFF7B8FD0A22014602A805F073FC02A911
:1048D00006A805F0C2FC01461F48FBF722FE02A80D
:1048E00005F0B9FB06A805F0B6FB06F013F9019038
:1048F0002046FFF79FFD42F21073984219D91C49D8
:1049000006A805F0E8FB2046FFF794FD0A220146C1
:1049100002A805F04FFC02A906A805F09EFC01467E
:104920000D48FBF7FEFD02A805F095FB06A805F073
:1049300092FB06F0EFF80F4B01901B787E2B06D10F
:104940000D4B002205F148001A70FEF7B9FD0BB0BF
:10495000F0BD00BFF94D0100F8E7FF1F324E010026
:1049600004F10F4008F10F406E4E0100A94E010006
:10497000E64E010060A4FF1F40E5FF1F04F050BA9F
:104980000346D0F8A405D3F8A81504F0D2BDFFFF64
:10499000064B10B5064C1C60064B1C60064B1C6099
:1049A00005F03AFE054B1C6010BD00BF98A7FF1F25
:1049B0000320003890A7FF1F8CA7FF1F94A7FF1F9D
:1049C000154B0278F0B51C6844F480641C604FF00D
:1049D0000044DC625A630C460246013C0E4D05D091
:1049E0005678EF6A0C4B002FFBDA04E00139EB6AD2
:1049F000002BFCDA0BE09D6B1F6847F480671F609B
:104A00004FF00047DF625E6302F8015BE5E7024BAF
:104A10009B6B4354F0BD00BF00C00240054BDA6AF7
:104A200012F0F00F18BF9B6B4FF2F0031340002BF6
:104A3000F4D1704700C0024010B5184B1A7802B389
:104A400072B61B78D90707D5154A16491468096844
:104A50002140154C216011609A0707D5134A11496E
:104A6000146849682140104C616011605B0707D5EC
:104A70000F4B0C4A196892680A400B498A601A6009
:104A800062B60C4BDA68824207D00B4A1A60D860D3
:104A90000A4A40F0804018611A6010BD00E9FF1F0B
:104AA00080E100E0E8E8FF1FF4E8FF1F84E100E098
:104AB00088E100E000C0024001401F0000001F80AC
:104AC000054B4FF00042DA625863DA6A002AFCDADA
:104AD000014B986BC0B2704700C002400A4B1B7874
:104AE0008BB1D90703D5094A1168094A11609A07A1
:104AF00003D5064A5168074A11605B0703D5034B8B
:104B00009A68054B1A60704700E9FF1FF4E8FF1F21
:104B100000E100E004E100E008E100E07047FFFF91
:104B200010B500230446017043700846012105F0CA
:104B3000B3FF2278064B53F83230012283F88020ED
:104B4000044B4FF038421A60BDE8104009F0FAB843
:104B5000A47601009CA7FF1F2DE9F34117460446E8
:104B60008846FFF75BFF114B114E1868FFF764FF93
:104B700023788DF8067056F83330012583F80051FC
:104B800001A83B0A032108F130088DF805308DF8A3
:104B90000480FFF715FF237856F8333083F88050F0
:104BA000FFF79CFF02B0BDE8F08100BF9CA7FF1F8C
:104BB000A4760100014B024A1A6070479CA7FF1FB0
:104BC00003200038054BDA6A12F0F00F18BF9B6B18
:104BD0004FF2F0031340002BF4D1704700C00240A5
:104BE00010B5044605F096FF6063204610BDFFFF38
:104BF0002DE9F04F81469FB0900890469A468B462B
:104C000008F026FA0DF038F9044640460D4608F043
:104C10001FFA002206460F464D4B2046294608F053
:104C20007DFA0B4602463946304608F0C3F808F0D4
:104C300037FD2946C6B2204608F032FDC3B2BAF1AC
:104C4000000F05D0BAF1010F0CBF0124032400E0CE
:104C5000022409EB0B0209EB030582F80C80032701
:104C60007200974095F82C10FF43FFB2394004FAC8
:104C700002F20A4385F82C2006A83649019305F074
:104C80002AFA019B02A8194605F05BFA02A906A8B8
:104C900005F0E3FA304905F0E9FA214680460AA812
:104CA00005F04FFA0AA9404605F0D7FA2B4905F05E
:104CB000DDFA1022804695F82C100EA805F054FA63
:104CC0000EA9404605F0C9FA254905F0CFFA31464C
:104CD000054612A805F035FA12A9284605F0BDFAD6
:104CE000204905F0C3FA02220546394616A805F008
:104CF0003BFA16A9284605F0B0FA1B4905F0B6FAAA
:104D00001022054604FA06F11AA805F02DFA1AA990
:104D1000284605F0A2FA01461448FBF702FC1AA83F
:104D200005F099F916A805F096F912A805F093F97F
:104D30000EA805F090F90AA805F08DF902A805F073
:104D40008AF906A805F087F91FB0BDE8F08F00BF0B
:104D500000001040234F0100374F0100424F010077
:104D60004B4F0100554F0100604F0100F8E7FF1F56
:104D70002DE9F0410F460446FFF724FF194B1A4E68
:104D80001868FFF759FE94F83C3056F83330012587
:104D900083F8005147F08000FFF792FE0020FFF7F4
:104DA0008FFE94F83C3056F8333083F8805094F8F6
:104DB0003C3056F83330002083F80051FFF780FE76
:104DC00007460020FFF77CFE94F83C3056F833305D
:104DD000804683F88050FFF781FE47EA082080B2C2
:104DE000BDE8F081A0A7FF1FA47601002DE9F041E6
:104DF0000F4690460446FFF7E5FE1A4B1A4E186818
:104E0000FFF71AFE94F83C3056F83330012583F84A
:104E1000005107F07F00FFF753FE4046FFF750FEBA
:104E200094F83C3056F8333083F8805094F83C3096
:104E300056F83330002083F80051FFF741FE00029E
:104E400087B20020FFF73CFE94F83C3056F8333030
:104E5000384387B283F88050FFF740FE3846BDE8FC
:104E6000F08100BFA0A7FF1FA476010070B516490E
:104E700005461648FBF748FB144805F063F809247B
:104E80002E19E1B296F823202846FFF7AFFF10490C
:104E90000E48FBF739FB2146102200230B4805F092
:104EA00061F80C490948FBF72FFB96F823100748D7
:104EB0001022002305F056F80134044805F042F8AA
:104EC000102CDDD170BD00BF704F0100F8E7FF1F4F
:104ED000904F01009C4F010070B50446056805F035
:104EE00019FE636BC01AB0F5FA7F2DD94421204614
:104EF000FFF73EFF4C2106462046FFF739FF00F43E
:104F00007F4040EA262654212046FFF731FF00F477
:104F10007F4046EA00265C212046FFF729FF00F487
:104F20007F4046EA0043DB436268236023EA0501D1
:104F30000A436260A26825EA03010A439D42A26017
:104F400002D005F0E7FD606370BD08B5034672B698
:104F50000B44197B2431C9B2FFF748FF62B608BD84
:104F600030B589B004460D4604A81E4905F0B3F8D3
:104F70002946684605F0E5F8694604A805F06DF98C
:104F800001461948FBF7CDFA684605F064F804A815
:104F900005F061F8154BA363154B164A1A6084F8A7
:104FA0003C5008F0CFFE012008F02CFF002008F054
:104FB0003DFF94F83C00012105F06EFD94F83C1093
:104FC00020460122FFF7C1FF642005F0C1FD002348
:104FD0006360A360204604210122FFF707FF09B0A8
:104FE00030BD00BFA54F0100F8E7FF1F00512502AB
:104FF000A0A7FF1F000001B870B5451843682A7BC1
:10500000012404FA02F20E4612EA03018CB029D000
:1050100023EA02034360154904A805F05CF8314611
:10502000684605F08EF8694604A805F016F910499F
:1050300005F01CF9297B064608A805F082F808A9A6
:10504000304605F00AF901460A48FBF76AFA08A853
:1050500005F001F8684604F0FEFF04A804F0FBFF29
:10506000204600E008460CB070BD00BFDF4F0100D5
:10507000F44F0100F8E7FF1F014401220B7B9A4027
:1050800003681A420CBF002001207047014B024AFE
:105090001A607047A0A7FF1F03200038054BDA6A8B
:1050A00012F0F00F18BF9B6B4FF2F0031340002B70
:1050B000F4D1704700C002407047FFFF10B5084BA5
:1050C000084A017004461A6008F03CFE207801216D
:1050D00005F0E2FC20780121BDE8104005F0BCBCE1
:1050E000A4A7FF1F000001382DE9F0410F469046AC
:1050F0000446FFF7D3FF0D4B0D4E1868FFF79CFCDD
:10510000237856F83330012583F800513846FFF7ED
:10511000D7FC4046FFF7D4FC237856F8333083F8A9
:105120008050FFF7DBFCBDE8F08100BFA4A7FF1FA4
:10513000A47601000139C9B202299ABF034B595C18
:105140000021090101F0F001FFF7CEBF005001007E
:105150002DE9F0410F460446FFF7A0FF0F4B104E1C
:105160001868FFF769FC237856F83330012583F877
:10517000005147F08000FFF7A3FC07460020FFF72F
:105180009FFC237856F83330804683F88050FFF731
:10519000A5FC47EA082080B2BDE8F081A4A7FF1F64
:1051A000A476010008B50021FFF7D2FF08BDFFFF7C
:1051B000014B024A1A607047A4A7FF1F0320003862
:1051C00013B5002304460360332005F08DFB0B224A
:1051D0000D238DE80C00C4F8F800092306210A22EB
:1051E00004F580700AF052FE05F094FC0549C4F8FD
:1051F00040014FF4007204F5A67005F059FA2046FC
:1052000002B010BD0450010070B56E4D04460E464C
:1052100028466D4904F58074FBF78DF9A6640021DA
:1052200020460BF015FD642005F092FC2046FF217E
:105230000AF056FE204665490AF0F4FE2046022197
:105240000AF088FE204600210BF0E4FC0A2005F05D
:105250007FFC20464FF478410BF0DCFC0A2005F07F
:1052600077FC20464FF620510BF0D4FC0A2005F0C5
:105270006FFC20464FF6E0710BF0CCFC0A2005F0E5
:1052800067FC20464FF4FC610BF0C4FC0A2005F0DB
:105290005FFC20461F210BF0BDFC0A2005F058FCE6
:1052A00020460F210BF0B6FC0A2005F051FC2046E9
:1052B00047F60F010BF0AEFC0A2005F049FC204632
:1052C0004FF478410BF0A6FC0A2005F041FC204683
:1052D0004FF620510BF09EFC0A2005F039FC2046C9
:1052E0004FF6E0710BF096FC0A2005F031FC2046E9
:1052F0004FF4FC610BF08EFC0A2005F029FC2046DF
:105300001F210BF087FC0A2005F022FC20460F210C
:105310000BF080FC0A2005F01BFC204647F60F012D
:105320000BF078FC642005F013FC20464FF4784124
:105330000BF070FC00210B46052220460BF004FC0C
:10534000204600210AF019FE21492046FBF7F3F818
:10535000642005F0FDFB20464FF4FC610BF05AFC85
:1053600000210B46052220460BF0EEFB20464FF6AF
:105370001F010AF002FE17492046FBF7DCF8642003
:1053800005F0E6FB20461F210BF044FC00210B46F4
:10539000052220460BF0D8FB20464FF620510AF09C
:1053A000ECFD0D492046FBF7C6F8642005F0D0FB64
:1053B00020461F210BF02EFC28460849FBF7BBF8BE
:1053C00070BD00BFF8E7FF1F086C01000C61010011
:1053D0001D6C0100256C01002B6C0100396C010073
:1053E00070B504461E25A06800260DF023FFA660B8
:1053F000D4F880000DF01EFF013DC4F8806004F178
:105400000404F0D170BDFFFFF8B504461E25D4F8A2
:10541000803023B90C480EF027F8C4F88000A0684B
:105420000DF008FFD4F880700026A66038460EF014
:105430001BF8A06038460DF0FDFE013DC4F8806009
:1054400004F10404E3D1F8BD5A6C01002DE9F04FDA
:1054500089B08C4600EB8C08BDF9541006919DF87C
:10546000581007910446D8F80810D8F88000049224
:105470000393CDF814C00DF0E5FFBDF94870BDF9F8
:105480004C50BDF950B09DF85C90BDF86060BDF81F
:1054900064A0049A039BDDF814C008B9934257D066
:1054A000624502D0334656469A46069B04F5807400
:1054B0008DE80804394620462A465B460BF0A0FDDD
:1054C000B9F1010F07F101010FD86A1E204612B28F
:1054D000002309B20BF038FB20461F490AF0A2FD59
:1054E000204649460AF036FD1BE0B9F1030F09D109
:1054F0002A1F204609B212B200230BF025FB2046DA
:10550000164907E0204609B22A4600230BF01CFB8F
:10551000114920460AF086FD2046012102220AF0A8
:1055200021FD204631460AF028FDD8F8801020469B
:10553000FAF7EAFF079959B1069B129320463946BC
:105540002A465B46139609B0BDE8F04F0BF0B0BD9C
:1055500009B0BDE8F08F00BF0C61010008530100E5
:105560002DE9F04F654B90F8FCB01B78BDB00446B8
:105570000D460D2B25D8DFE803F0070B0911211389
:105580001517190D0F1B1D1F012318E0062316E028
:10559000072314E00C2312E0092310E00F230EE090
:1055A00011230CE013230AE0192308E0152306E079
:1055B000022304E0032302E0042300E0082384F82C
:1055C000FC30DFF858A1DFF85891D4F848319AF848
:1055D000002099F8007040F23C7606FB02364FF04E
:1055E0001C0808FB076898F8383004EB8303D3F8ED
:1055F0004C010DF039FFC4F8840098F83930FF2BC6
:1056000001D13F4806E098F83820134404EB8303A7
:10561000D3F84C010DF028FF1C2202FB0762C4F8EE
:10562000880092F83A30FF2B01D1354806E092F815
:105630003820134404EB8303D3F84C010DF014FF1E
:105640001C2202FB0762C4F88C0092F83B30FF2B4F
:1056500001D12B4806E092F83820134404EB830371
:10566000D3F84C010DF000FFC4F8900025480DF070
:10567000FBFE1C2303FB07663836C4F894007379DD
:105680000BB921480BE0B2792049013202F0030343
:1056900019262846920873430DF0B0FE28460DF0F7
:1056A000E3FE1B49C4F898006C2221A805F000F81D
:1056B0009AF80020D4F8483140F23C7606FB0233D9
:1056C00099F800201C2606FB02363CAA96F83C30CE
:1056D00002EB830353F86C0C0DF0C6FEC4F89C007B
:1056E0000C480DF0C1FEC4F8B40096F843202846DB
:1056F000C2B909490DF0B0FE17E000BF39E5FF1F40
:10570000596C01005C6C0100676C01005F6D010069
:10571000045201006B6C0100726C010035E5FF1F43
:105720006FE5FF1F6B490DF069FE28460DF09CFEEA
:10573000C4F8A0006848DFF8E081DFF8E0A10DF0D0
:1057400093FE11AEC4F8B8006449304604F0C3FCBF
:10575000634915A804F0BFFC624919A804F0BBFC1A
:1057600061491DA804F0B7FC98F80030D4F848212E
:1057700040F23C7707FB03239AF800204FF01C0906
:1057800009FB023C0CF1380309935B791B01F058CB
:10579000CDF820C00DF068FEC4F8BC0053480DF0F1
:1057A00063FEC4F8C00052480DF05EFEDFF870E101
:1057B000C4F88000BEE80F000BAE0FC69EE80300E1
:1057C000099AD37986E803003CAA02EB830353F8D5
:1057D000C40C0DF049FEC4F8C40044480DF044FE6A
:1057E000C4F8C80043480DF03FFEDDF820C0C4F8FF
:1057F000DC009CF84120404928460DF0FFFD28467A
:105800000DF032FE98F80020D4F84831C4F8CC00EE
:1058100007FB02339AF800202E4909FB0233284681
:1058200093F842200DF0EAFD28460DF01DFEC4F865
:10583000E4002E480DF018FEC4F8D0002F480DF0FB
:1058400013FE98F80020D4F84831C4F8E00007FBB4
:1058500002339AF800202A4909FB0233284693F8BC
:1058600040200DF0CBFD28460DF0FEFD254B2649CE
:105870001A78C4F8D40028460DF0C0FD28460DF073
:10588000F3FDC4F8D80021480DF0EEFD98F8002093
:10589000D4F84831C4F8E80007FB02331C49DA7930
:1058A0009B8C28460DF0AAFD28460DF0DDFD98F8EA
:1058B0000020D4F84831C4F8B00007FB02379AF84A
:1058C000003009FB0377284697F94420012A29D1A3
:1058D00010492DE0426F0100766C0100726C0100EE
:1058E0009E700100816C0100866C01008B6C0100D0
:1058F0008F6C0100946C0100996C01009D6C01009B
:10590000A26C010039E5FF1FA86C0100B16C010019
:10591000BC6C0100C56C010035E5FF1F6FE5FF1F82
:1059200070520100002ACEBFBB49BC49C2F102023D
:105930000DF064FD28460DF097FDB94BC4F8A400A6
:105940001B78B849102603FB06F2284606FB0363C2
:105950000DF054FD28460DF087FDB34BC4F8A800A8
:105960001A78D4F8483140F23C7101FB02332846E2
:10597000AE499B7A0DF042FD28460DF075FD1823C7
:105980000393B4F84631069300254FF001084FF019
:105990002E09B4F84431C4F8AC004FF0030A94F86F
:1059A000FC20CDF80890CDF81080CDF814A0079316
:1059B000204641465B4600950195FFF747FD1823B9
:1059C0000293B4F8463106930827B4F8443194F8AA
:1059D000FC20CDF80090CDF81480079320465B465C
:1059E0000195039704950221FFF730FD18230293D8
:1059F000B4F846310693B4F8443194F8FC20CDF85D
:105A00000090CDF814800793204651465B460197DD
:105A100003970495FFF71AFD18230293B4F8463153
:105A20000693B4F8443194F8FC20CDF80090CDF8FA
:105A30001480079320465B46019603970495042142
:105A4000FFF704FD0C23039302230593B4F84631BA
:105A500006934FF0190C4FF0400AB4F84431CDF8DA
:105A600004C094F8FC20079320465B460095CDF8CF
:105A700008A004950721CDF820C0FFF7E7FC2723F5
:105A80000193B4F8463106934FF01A09B4F8443143
:105A900094F8FC20CDF80890CDF8148007932046A8
:105AA0005B460095039604950521FFF7CFFC27235D
:105AB00001932623029302230593B4F846310693FB
:105AC000B4F8443194F8FC20CDF8009007932046B8
:105AD0005B46039604950621FFF7B8FC3723019334
