:1000000000800020BD01000005CB0000D1CA000027
:10001000D1CA0000D1CA0000D1CA0000D1CA000074
:10002000D1CA0000D1CA0000D1CA000005CB00002F
:1000300005CB0000D1CA000005CB0000C1CA0000FA
:1000400005CB000005CB000005CB000005CB000070
:1000500005CB000005CB000005CB000005CB000060
:1000600005CB000005CB000005CB000005CB000050
:1000700005CB000005CB000005CB000005CB000040
:1000800005CB000005CB000005CB000005CB000030
:1000900005CB000005CB000005CB000005CB000020
:1000A00005CB000005CB000005CB000005CB000010
:1000B00005CB000005CB000005CB000005CB000000
:1000C00005CB000005CB000005CB000005CB0000F0
:1000D00005CB000005CB000005CB000005CB0000E0
:1000E00005CB000005CB000005CB000005CB0000D0
:1000F00005CB000021D4000005CB0000E9EE000094
:1001000005CB000021D9000005CB000005CB000085
:1001100005CB000005CB000005CB000005CB00009F
:1001200005CB000005CB000005CB000005CB00008F
:1001300005CB000005CB000005CB000005CB00007F
:1001400005CB000005CB000005CB000005CB00006F
:100150009DC00000B5C00000CDC00000E5C000009B
:1001600005CB000085DB000005CB000005CB0000BF
:1001700005CB000005CB000005CB000005CB00003F
:1001800005CB000005CB000005CB000005CB00002F
:1001900005CB000005CB000005CB000005CB00001F
:1001A00005CB000005CB000005CB000005CB00000F
:1001B00005CB000005CB000065BD0000564B4CF29E
:1001C000205210B51A804DF628121A8000BF00BFC9
:1001D0000CF09CFC514B4FF010621A60504A9A6030
:1001E000504ADA60A3F53043203B1A6812F480725B
:1001F00004D14D490A604FF4A8521A604B4B1A784B
:10020000110703D51A7842F008021A70484B2A22C7
:100210001A700023474A48499818884204D247492F
:10022000595899500433F5E7454A464B9A424FF0E6
:10023000000302D242F8043BF7E74349434A5958C6
:1002400099500433B3F5DE7FF7D1414B802103F899
:10025000011B40498B42F9D13F4B1A603F4B8A2228
:100260001A70A3F5805324225A70A0221A709A792A
:100270009207FCD59A79D406FCD4394B9A7902F0CE
:100280000C02082AF9D103221A7146225A719A796E
:100290009006FCD5324B9A795106FBD5314A4FF086
:1002A000827111600921516020221A702C4B9B79B8
:1002B00003F00C030C2BF9D12B4B2C4A1A602C4B5E
:1002C0002C4A1A6000225A60072243F8042C2A4A5A
:1002D000C3F80C2D62B60CF097FD134B1B68DA07C0
:1002E00005D526480CF0AAFC254B264A1A60264B59
:1002F0001B785B0609D5224C224A2368934204D11D
:100300001E480CF09BFC0023236015F0C1F80CF094
:1003100003FC0CF011FBFEE70E200540308004408A
:10032000823F04000100002B14D0034002D007409C
:1003300000E00740708DFF1F5091FF1FE4E10100B6
:100340005091FF1F8CDEFF1F000000000082FF1F86
:1003500000E400E05FE400E008ED00E0005006404B
:10036000004006404480044004800440C010050062
:1003700014E000E0BFD4010000002020865606599A
:100380001CE00340A5C3945A00F00740FFFFFFFFA5
:10039000FFFFFFFFFFFFFFFFFFFFFFFFFFFFFFFF6D
:1003A000FFFFFFFFFFFFFFFFFFFFFFFFFFFFFFFF5D
:1003B000FFFFFFFFFFFFFFFFFFFFFFFFFFFFFFFF4D
:1003C000FFFFFFFFFFFFFFFFFFFFFFFFFFFFFFFF3D
:1003D000FFFFFFFFFFFFFFFFFFFFFFFFFFFFFFFF2D
:1003E000FFFFFFFFFFFFFFFFFFFFFFFFFFFFFFFF1D
:1003F000FFFFFFFFFFFFFFFFFFFFFFFFFFFFFFFF0D
:10040000FFFFFFFFFFFFFFFFFFFFFFFFDEF9FFFF23
:1004100010B5054C237833B9044B13B10448AFF33E
:1004200000800123237010BD5091FF1F00000000C9
:10043000E4E1010008B5064B1BB106480649AFF3DD
:1004400000800648036813B1054B03B1984708BD07
:1004500000000000E4E101005491FF1F5091FF1FD4
:10046000000000000369C268934210B509D2826897
:100470005C1C0461D154826803690021D1540120BD
:1004800010BD002010BD44F2040210B58358CC18F2
:10049000B4F5804F07D8033121F00301194481508E
:1004A0001844043010BD002010BD18B111B101393D
:1004B0000068FAE7704738B504460D4634B128465F
:1004C000616815F01BF908B12468F7E7204638BDCC
:1004D00038B54068FFF7EFFF044680B1057A012D7B
:1004E00005D1C16819B1074815F008F920B1013DDF
:1004F000012D03D8E46802E0044600E00024204611
:1005000038BD00BFF85F010038B5044608460D4607
:1005100015F021F9236802465B6820462946984772
:1005200038BD38B504460BF0FAFD054620460BF001
:1005300017FE284438BD38B50446FFF7E5FF0546E9
:1005400020460BF00DFE284438BD10B50446006867
:10055000FFF7DAFF63681844606010BD30B587B0FC
:1005600000228DF815200B4605AA0A25B3FBF5F4E9
:1005700005FB14333033114602F801392346002CB1
:10058000F3D1FFF7E2FF07B030BD10B504460068B5
:1005900003681B68984763681844606010BDFFFFDC
:1005A00070B504460D4619B91249FFF7CEFF70BD6C
:1005B0002221FFF7EAFF013D15F8012F7AB10E4B1A
:1005C00013F8026C86B1023313F8031C9142F7D181
:1005D00020465C21FFF7D9FF2046314606E0204641
:1005E0002221FFF7D2FF70BD20461146FFF7CDFF55
:1005F000E2E700BFF85F0100FF5F010008B50328D4
:100600000AD8DFE800F0021105074FF07E5008BD60
:10061000064808BD064808BD0438C0B2FFF7EEFF23
:1006200004490FF0C5FA08BD034808BD0AD7233CAA
:100630006F12833A17B7D138CDCCCC3D2DE9F041BC
:10064000054608460C46174613F07CFE10B92846AE
:10065000494911E0204600210FF048FC28B1284606
:100660002D21FFF792FF04F10044204613F06AFEAB
:10067000012805D141492846FFF767FFBDE8F08111
:1006800020463F490FF050FC20B920463D490FF06D
:100690002DFC00B30026204600210FF01DFC68B998
:1006A00020464FF07E510FF021FC38B120463649EC
:1006B0000FF07EFA013EB6B20446ECE7204632491E
:1006C0000FF032FC40B120462F490FF025FB0136D8
:1006D000B6B20446F2E706463846FFF78FFF4FF002
:1006E0007C510FF065FA014620460FF059F9044697
:1006F0000FF04AFC80460FF003FA014620460FF047
:100700004DF9414604462846FFF728FF1FB1284609
:100710002E21FFF73AFFCFB11B4920460FF048FAD0
:1007200004460FF031FC5FFA80F840460FF0E8F91C
:10073000014620460FF032F908F130010446C9B2F3
:100740002846013FFFF721FFFFB2E4E734B2002C57
:1007500006DA28460D49FFF7F8FE2846614206E012
:100760003EB128466521FFF710FF28462146FFF7D6
:10077000F5FEBDE8F08100BF0C60010010600100D3
:1007800000007A446F12833A000020411960010092
:10079000024608B5084619B10B6811461B68984710
:1007A00008BDFFFF38B5084C236813F0010509D1D7
:1007B00020460CF0BCF928B1044B20461D605D605A
:1007C0000CF0BBF9014838BD8091FF1F6C91FF1FF1
:1007D00008B54068FFF76FFE20B1037A062B01D100
:1007E000C06808BDFFF7DEFF08BDFFFF38B5084C45
:1007F000236813F0010509D120460CF098F928B1BF
:10080000044B20461D605D600CF097F9014838BD2F
:100810007C91FF1F7491FF1F03780D2B09D003D823
:10082000093B012B23D804E0202B02D02F2B02D030
:1008300070470130F0E743782A2B02D02F2B0DD0E0
:100840007047831C1A7818460133002AE4D02A2AFC
:10085000F8D11A782F2AF5D10230DDE7831C18462B
:1008600013F8012B002AD7D00A2AF8D1D4E7704711
:1008700038B5044600680D46FFF7CEFF0378AB425B
:1008800005D10130FFF7C8FF2060012038BD0020EE
:1008900038BDFFFF70B5426884681378272B01D0FC
:1008A000222B27D15178551C51B3994201D1951C67
:1008B00026E05C290BD1951C9178154A16782EB14B
:1008C0008E4201D1517801E00232F7E7C1B104F85C
:1008D000011B2A46E6E723F020014139192905D9F1
:1008E0002B2B03D0A3F12D01012909D804F8013BDA
:1008F00012F8013FA3F1300109291546F6D9EAE7BC
:10090000002304F8013B836845608460184670BD8D
:1009100001600100027838B505460C46072A3CD82C
:10092000DFE802F041241F302B27041B45680846EE
:100930005B21FFF72AFE6D682DB1281D2146FFF7C8
:10094000E9FF2D6825B920465D21FFF71EFE38BD61
:1009500020462C21FFF719FEEFE7406800F028F849
:1009600038BD08466968FFF71BFE38BD0846696850
:1009700010E008462D21FFF708FE20466968FFF7C2
:10098000EDFD38BD4168084B084A204600290CBFE0
:1009900011461946FFF7D9FD38BD083A0846D2B2CC
:1009A0006968FFF74BFE38BD1C6001002160010043
:1009B00070B505460C4608467B21FFF7E6FD6D68DD
:1009C0007DB12E46204656F8041FFFF7E9FD20466C
:1009D0003A21FFF7DAFD301D2146FFF79BFF2D6816
:1009E00025B920467D21FFF7D0FD70BD20462C2182
:1009F000FFF7CBFDE5E710B5044621460820FFF7D9
:100A0000C7FE18B100230460436010BDFFF7CAFEA3
:100A100010BD10B5044621460820FFF7B9FE18B1F5
:100A200000230460436010BDFFF7E0FE10BDFFFF30
:100A3000037810B5052B1BD8DFE803F01E08080368
:100A40000305406810BD4068404210BD44685CB179
:100A50000A48214614F052FE40B1204600210A22E5
:100A6000BDE8104014F014BF204610BD012010BD99
:100A700040680FF063FA10BD002010BD1C6001003B
:100A8000037810B5052B14D8DFE803F0170505032C
:100A90000303406810BD44688CB10B48214614F034
:100AA0002DFE70B1204600210A22BDE8104014F04E
:100AB00075BF40680FF068FA10BD002010BD2046D9
:100AC00010BD012010BD00BF1C60010070B50446C0
:100AD0000CF066F9E0640CF063F92546002320650C
:100AE00045F8583F4FF48A700CF048F829460646FE
:100AF0000BF026F8E66604F1740010F005FB04F133
:100B0000940010F001FB204670BDFFFFF8B50446CD
:100B10000D46114811491F461646FFF70CFD069B6E
:100B2000A5646665A7662367162010F00BF818B950
:100B300009480B49FFF7FFFC00236370A370E370C3
:100B4000E21801330021402B9171F9D10549024887
:100B5000FFF7F1FCF8BD00BFBCD9FF1F2760010003
:100B6000556001007B600100002138B50A4605464A
:100B700001F0BEFF02241E4B23442146284633F8D1
:100B8000022C023401F0B4FF0A2CF4D1194B234497
:100B90002146284633F80A2C023401F0A9FF122C12
:100BA000F4D1154B23442146284633F8122C023445
:100BB00001F09EFF1A2CF4D1104B23442146284605
:100BC00033F81A2C023401F093FF2A2CF4D10C4B89
:100BD00023442146284633F82A2C023401F088FFAA
:100BE0003A2CF4D107490848FFF7A5FC38BD00BFEF
:100BF0006A8EFF1F948EFF1F748EFF1F848EFF1F4F
:100C00005A8EFF1FB6600100BCD9FF1F38B5002106
:100C1000054601F07FFF4FF6FF73984218BF02248C
:100C200018D128492848FFF786FC26492648FFF7AF
:100C300082FC24492448FFF77EFC22492248FFF722
:100C40007AFC20492048FFF776FC1E491E48FFF732
:100C500072FC38BD2146284601F05CFF1B4B234443
:100C600002340A2C23F8020CF4D12146284601F064
:100C700051FF174B23440234122C23F80A0CF4D1F1
:100C80002146284601F046FF124B234402341A2C19
:100C900023F8120CF4D12146284601F03BFF0E4BFD
:100CA000234402342A2C23F81A0CF4D12146284676
:100CB00001F030FF094B234402343A2C23F82A0C6C
:100CC000F4D138BDE0600100BCD9FF1F6A8EFF1F60
:100CD000948EFF1F748EFF1F848EFF1F5A8EFF1F7E
:100CE0000803704710B588B00023013A05910692B9
:100CF0000B7003AA064C8DF8103001A903940793DA
:100D000001920293FFF754FE029808B010BD00BF95
:100D1000E05F010010B504460C202168FFF738FDA4
:100D200010B100230360037163682BB11A680AB124
:100D30001346FBE7186010BD606010BD10B50C468F
:100D4000FFF7E8FF20B123788360042202710120BD
:100D500010BD10B50C46FFF7DDFF48B194F9003027
:100D6000002BAEBF04225B4205220271836001208A
:100D700010BD10B5044610202168FFF709FD10B121
:100D800000230360037263682BB11A680AB113462B
:100D9000FBE7186010BD606010BD2DE9F34104460B
:100DA000074654F8040BFFF734FE7B210646204625
:100DB000FFF75EFD002833D020467D21FFF758FD68
:100DC00088BB3846FFF766FD804648B320463A2187
:100DD000FFF74EFD20B302AD00233846694605F803
:100DE000083D00F024F8D8B170684146FFF763FB76
:100DF00028B93046FFF7BDFF90B1C0F8048000F17C
:100E0000080395E8030083E8030020467D21FFF7EF
:100E10002FFD40B920462C21FFF72AFD0028D0D114
:100E2000FFF7E4FC00E0304602B0BDE8F08170B5A9
:100E30000446007B0D46002834D0013820736068DA
:100E4000FFF7EAFC606003785B2B02D07B2B07D0B6
:100E500012E0204600F027F803685BB1062305E0A6
:100E60002046FFF79AFF036823B1072368602B70C1
:100E7000012014E0184612E0272B03D0223B5E42EB
:100E80005E4100E001262046FFF704FD38B1012253
:100E900016B102232B7000E02A7068601046237B95
:100EA0000133237370BDF7B50446074654F8040BAD
:100EB000FFF7A1FD5B2106462046FFF7D9FC08B3EA
:100EC00020465D21FFF7D4FCF8B902AD0023384677
:100ED000694605F8083DFFF7AAFF98B13046FFF7CD
:100EE00019FF78B1031D95E8030083E8030020464D
:100EF0005D21FFF7BDFC40B920462C21FFF7B8FC6F
:100F00000028E2D1FFF74EFC00E0304603B0F0BD10
:100F100070B5054640680E461446FFF7CCFA20B976
:100F20002846FFF726FF50B146602368002B08BF14
:100F300000240CBF002306230372C460012070BD8F
:100F400070B5054600680E4610B9FFF72BFC70BD62
:100F5000FFF751FD0446314628462246FFF7D8FFE9
:100F6000204670BD2DE9F04FADF5804D85B0A74B03
:100F70000191029302A944F204030546144608466F
:100F80000022CA50FFF745FDA1498246FFF7D8FF6E
:100F900040F60413696D5C43214401F602010646E4
:100FA000FFF7CCFE696D214401F60A013046FFF7D8
:100FB000C5FE696D214401F606013046FFF7BEFE0D
:100FC000696D214401F607013046FFF7B7FE696DF0
:100FD000214401F609013046FFF7B0FE696D214456
:100FE00001F608013046FFF7A9FE696D214401F6BC
:100FF000D6013046FFF7ADFE696D214401F60B01C5
:101000003046FFF79BFE696D214401F60C01304626
:10101000FFF794FE696D214401F60D013046FFF79C
:101020008DFE696D214401F60E013046FFF786FE04
:10103000696D214401F60F013046FFF77FFE696DAF
:10104000214401F501613046FFF778FE696D2144C6
:1010500001F611013046FFF771FE696D214401F67A
:1010600012013046FFF76AFE696D214401F6130153
:101070003046FFF763FE696D214401F614013046E6
:10108000FFF75CFE696D2144304601F61501FFF75C
:1010900055FEDAF8000018B9FFF784FB834607E035
:1010A000FFF7A9FC83465B4950465A46FFF730FFDD
:1010B0004FF00009DBF8000018B9FFF773FB064694
:1010C00012E0FFF798FC06465846FFF723FE58B19A
:1010D0003368002B009B18BF334600930CBF0023DE
:1010E00006230371009B83603046FFF713FE18B19F
:1010F00004230371C0F80890696D4FEA4917214431
:1011000039443046FFF71AFE696D7B1C21441944AF
:101110003046FFF713FE696DBB1C2144194430466D
:10112000FFF70CFE696DFB1C214419443046FFF7A4
:1011300005FE6B6D2344D91904313046FFF7FEFDDF
:101140006B6D07F10808234403EB080104313046B6
:10115000FFF7FFFD6B6D2344D91905313046FFF7CA
:10116000EDFD6B6D2344D91906313046FFF7E6FDDE
:101170006B6D2344D91907313046FFF7DFFD696DE8
:10118000214441443046FFF7D9FD6B6D234403EB06
:10119000080101313046FFF7D1FD6B6D234403EBAD
:1011A000080102313046FFF7C9FD6B6D234403EBA4
:1011B000080105313046FFF7C1FD6B6D234403EB99
:1011C000080106313046FFF7B9FD6B6D234403EB90
:1011D000080107313046FFF7B1FD6B6D234403EB87
:1011E00008013046033109F10109FFF7A7FDB9F104
:1011F000400F7FF45FAF504601994FF48052FFF7E4
:1012000071FD0DF5804D05B0BDE8F08FF05F010078
:10121000736101007C6101002DE9F04F95B0174624
:101220008A46044600F089FE7E49C6B204A80BF047
:1012300060F8514668460BF092F8694604A80BF036
:101240001AF979490BF020F93946054608A80BF040
:1012500086F8284608A90BF00EF974490BF014F92A
:10126000314605460CA80BF07AF828460CA90BF07D
:1012700002F96F490BF008F935030A228046294626
:1012800010A80BF07FF810A940460BF0F4F80146C7
:101290006848FFF746F910A80AF0EBFF0CA80AF01F
:1012A000E8FF08A80AF0E5FF684604EB06080AF024
:1012B000E0FF04A80AF0DDFF98F80630002B39D0D3
:1012C000204600F0DBFE5C49834604A80BF011F8D1
:1012D000314668460BF043F8694604A80BF0CBF89A
:1012E00056490BF0D1F898F8063055498146194413
:1012F0000CA80AF0FEFF0A22594608A80BF042F893
:1013000008A90CA80BF0B7F8014610A80BF00CF8D0
:1013100010A948460BF0AFF801464648FFF701F91F
:1013200010A80AF0A6FF08A80AF0A3FF0CA80AF06C
:10133000A0FFB9E74FF0010984F803900BF030FDEE
:101340002065404814F0ECF9494680464FF480503F
:1013500014F084F881464946204652463B46FFF742
:1013600001FE0FF07DFB0028FBD010A841460FF0D6
:1013700093FC10AA04F158030DF1480E174603CF51
:101380007745186059603A4603F10803F6D138688A
:101390001860BA889A80A06D50BB2B492548FFF78A
:1013A000CAF82A4910A80AF0A4FF41460CA80AF07E
:1013B000A0FF0CA910A80BF05EF801461D48FFF72E
:1013C000B0F80CA80AF055FF10A80AF052FF19480F
:1013D0001D49FFF7B0F8484614F088F8404614F06D
:1013E00085F80023E3700123237015B0BDE8F08F6A
:1013F000E76D256605F58053BB4210D9BD4208D282
:101400007F1B3A46284449460FF06AF9236E1F4471
:10141000276620463146012200F08CFDDBE74FF4C1
:101420008057EEE781610100926101009D6101003A
:10143000AC610100BCD9FF1FBB610100EE6101007E
:10144000F86101000D6201001662010025620100D1
:1014500008B54068FFF729F818B10430FFF710FB12
:10146000C0B208BD08B54068FFF71FF818B10430D6
:10147000FFF7DEFAC0B240B208BD08B54068FFF71A
:1014800014F820B10379062B01D1806808BDFFF75D
:1014900089F908BD2DE9F04FADF5804D99B0B34BFA
:1014A0001693144644F2040316AA064618AF4FF0EA
:1014B000000A0D46AE48AF4942F803A0FFF73BF8DB
:1014C00016AB47F8183DAC4BBC60544518BF2346DB
:1014D0004FF00A0938467B6087F80C90FFF75DFCF7
:1014E0000446A64938460AF004FF2168B1EB0A0118
:1014F00018BF01214A460EA80AF044FF38460EA93B
:101500000AF0B9FF01469A48FFF70BF80EA80AF057
:10151000B0FE38460AF0ADFE99499548FFF70BF842
:1015200040F604135D43736D9649204603EB0508AE
:10153000FFF74EF95146FFF78BFF88F80208736DED
:101540009049204603EB0508FFF742F90121FFF718
:101550007FFF88F80A08736D8A49204603EB050867
:10156000FFF736F90221FFF773FF88F80608736D5D
:101570008449204603EB0508FFF72AF90321FFF70A
:1015800067FF88F80708736D7E49204603EB05085E
:10159000FFF71EF90421FFF75BFF88F80908736D58
:1015A0007849204603EB0508FFF712F90521FFF7FC
:1015B0004FFF88F80808736D7249204603EB050851
:1015C000FFF706F90621FFF74DFF88F8D608736D7F
:1015D0006C49204603EB0508FFF7FAF80721FFF7EF
:1015E00037FF88F80B08736D6649204603EB050842
:1015F000FFF7EEF80821FFF72BFF88F80C08736D52
:101600006049204603EB0508FFF7E2F80921FFF7E0
:101610001FFF88F80D08736D5A49204603EB050833
:10162000FFF7D6F84946FFF713FF88F80E08736DE9
:101630005449204603EB0508FFF7CAF80B21FFF7D2
:1016400007FF88F80F08736D4E49204603EB050825
:10165000FFF7BEF80C21FFF7FBFE88F81008736D4A
:101660004849204603EB0508FFF7B2F80D21FFF7C4
:10167000EFFE88F81108736D4249204603EB050818
:10168000FFF7A6F80E21FFF7E3FE88F81208736D46
:101690003C49204603EB0508FFF79AF80F21FFF7B6
:1016A000D7FE88F81308736D3649204603EB05080A
:1016B000FFF78EF81021FFF7CBFE88F81408736D42
:1016C0003049204603EB0508FFF782F81121FFF7A8
:1016D000BFFE2D4988F8150838460AF00AFE736DDA
:1016E0002B440EA893F808180AF039FE38460EA9C4
:1016F0000AF0C1FE25490AF0C7FE01461C480AF05F
:101700000EFD0EA80AF0B5FD38460AF0B2FD2049DC
:101710002046FEF7DDFE01461548FEF70CFF1D4989
:101720002046FFF755F880461B4938460AF0E1FD90
:10173000D8F80010B1EB0A0118BF01214A460EA8E3
:101740000AF020FE38460EA90AF095FE0146084828
:10175000FEF7E7FE0EA80AF08CFD38460AF089FD78
:1017600003480E49FEF7E7FE574619E0F05F010017
:10177000BCD9FF1F406201007F6A01005562010071
:101780006B620100736101007E62010093620100DF
:10179000FBCE01007C6101009C620100B662010089
:1017A000736D2B4493F802188F4280F2B180394652
:1017B0004046FFF762FE0121FFF74AFE39460390DB
:1017C0004046FFF75AFE0221FFF742FE39460490D9
:1017D0004046FFF752FE0321FFF73AFE39460590D7
:1017E0004046FFF74AFE0421FFF732FE39460690D5
:1017F0004046FFF742FE0521FFF72AFE39460790D3
:101800004046FFF73AFE0621FFF72CFE39460890C6
:101810004046FFF732FE0721FFF71AFE39460990CE
:101820004046FFF72AFE0821FFF712FE39460A90CC
:101830004046FFF722FE0921FFF70AFE39460B90CA
:101840004046FFF71AFE0A21FFF702FE39460C90C8
:101850004046FFF712FE0B21FFF7FAFD39460D90C7
:101860004046FFF70AFE0C21FFF7F2FD3946844699
:101870004046CDF808C0FFF700FE0D21FFF7E8FD58
:10188000394683464046FFF7F8FD0E21FFF7E0FD9D
:10189000394682464046FFF7F0FD0F21FFF7D8FD9D
:1018A000394681464046FFF7E8FD1021FFF7D0FD9D
:1018B000394600904046FFF7E0FD0021FFF7C8FDE4
:1018C000716D039A294440010B180A54049A5A7006
:1018D000059A9A70069ADA70079A1A71099A5A71DB
:1018E0000A9A9A710B9ADA710C9A1A720D9A5A72B4
:1018F000009ADDF808C0DA72089A83F80AC01A73F1
:1019000083F80DB083F80EA083F80F90013747E7F6
:101910003F291EDC706D4A0128448318182787541C
:10192000012098711872587204209872187343201D
:101930000022587310205A709A70DA701A715A7116
:10194000DA71DA729A73D8731A749A745A6101311F
:10195000DEE72068003018BF01200DF5804D19B07A
:10196000BDE8F08F2DE9F043044689B07F489146E9
:10197000884613F0D5FE7E49054604A80AF0B9FC56
:10198000294668460AF0B5FC694604A80AF073FDCA
:1019900078490AF079FD01467748FEF7C2FD6846AE
:1019A0000AF067FC04A80AF064FC28460FF0F4F97A
:1019B000002838D071497048FEF7BDFD04A82946BB
:1019C0000FF06AF904AE04F1580306AA374603CFB4
:1019D0009742186059603E4603F10803F6D1386813
:1019E0001860BA889A80A36D33BB654904A80AF0D1
:1019F00080FC294668460AF07CFC694604A80AF087
:101A00003AFD60490AF040FD01465B48FEF789FD5A
:101A100068460AF02EFC04A80AF02BFC284613F0B6
:101A200065FD02209FE0284613F060FD52485649AC
:101A3000FEF781FD012096E054494F48FEF77BFDFB
:101A40004FF4805013F04AFD0A224FF480510646AD
:101A500068460AF097FC694604A80AF065FC4C4900
:101A600004A80AF011FD01464348FEF75AFD04A8F8
:101A70000AF0FFFB68460AF0FCFB464904A80AF09E
:101A800038FC41464A46204600F057FAC1B20A22C5
:101A9000090368460AF076FC694604A80AF0EBFCE4
:101AA00001463548FEF73DFD68460AF0E2FB04A812
:101AB0000AF0DFFB384904A80AF01BFC41464A46FD
:101AC000204600F03AFA0A22014668460AF05AFC1B
:101AD000694604A80AF0CFFC01462748FEF721FD1D
:101AE00068460AF0C6FB04A80AF0C3FB4A46204633
:101AF000414600F022FAC0B20303E76D236603F506
:101B00008052BA422CD9BB4209D2FF1AA06D3A4684
:101B1000184431460EF0FCFC236E1F4427661F4913
:101B20001548FEF708FD31461348FEF704FD204630
:101B300041463246FFF7AEFC10B10F48184901E0AC
:101B40000D481849FEF7F7FC304613F0CFFC284645
:101B500013F0CCFC08481449FEF7EDFC002002E02D
:101B60004FF48057D2E709B0BDE8F083C9620100A5
:101B7000D1620100F3620100BCD9FF1F12630100B2
:101B800021640100CB630100DE6301005E6401009B
:101B90006D6401007E6401008C6401003663010005
:101BA0004063010053630100A16301002DE9F0418E
:101BB00090B00D46064671490CA890460AF099FB74
:101BC000294608A80AF0CBFB08A90CA80AF053FC88
:101BD0006B490AF059FC01466A48FEF7A2FC08A8C6
:101BE0000AF047FB0CA80AF044FB002448FA04F36F
:101BF000DB070CA816D464490AF07BFB0A222146B5
:101C000008A80AF0BFFB08A90CA80AF034FC01469A
:101C10005C48FEF786FC08A80AF02BFB0CA80AF02B
:101C200028FB52E059490AF064FB0A22214608A821
:101C30000AF0A8FB08A90CA80AF01DFC01465148AF
:101C4000FEF76FFC08A80AF014FB0CA80AF011FBC1
:101C50004F490CA80AF04DFB0A22214608A80AF0B9
:101C600091FB08A90CA80AF006FC01464548FEF7BE
:101C700058FC08A80AF0FDFAE7B20CA80AF0F9FA35
:101C8000304639462A46FFF76DFE012813D14149F7
:101C90003C48FEF750FC736D40F6041000FB043026
:101CA00029463A4602F0F6FE3B493648FEF743FC29
:101CB00034483A4903E0022803D132483849FEF754
:101CC0003AFC30483749FEF736FC0134042C8DD1FC
:101CD000354C364904A80AF00CFB217868460AF016
:101CE0003EFB694604A80AF0C6FB31490AF0CCFB6A
:101CF0002946074608A80AF032FB08A938460AF028
:101D0000BAFB2C490AF0C0FB2B4B074619780CA8EC
:101D10000AF025FB0CA938460AF0ADFB014619482C
:101D2000FEF7FFFB0CA80AF0A4FA08A80AF0A1FA33
:101D300068460AF09EFA04A80AF09BFA0CA81F490C
:101D400025700AF0D6FA294608A80AF008FB08A967
:101D50000CA80AF090FB1A490AF096FB01460948C4
:101D6000FEF7DFFB08A80AF084FA0CA80AF081FA53
:101D7000304600F0ADFD10B0BDE8F081996401007F
:101D80003A660100BCD9FF1FC2640100DC64010097
:101D9000ED640100176501004565010073650100F0
:101DA00097650100B46501003CD7FF1FC6650100BF
:101DB000E5650100EA65010011D7FF1F0B66010010
:101DC0002C6601002DE9F04391B006460D46904681
:101DD0009DF8607043B30024736D40F6041202FB5B
:101DE0000433E1B2304693F808280134FFF714FABF
:101DF000042CF1D13A490CA80AF07BFA394B08A817
:101E000019780AF0ACFA08A90CA80AF034FB364994
:101E10000AF03AFB01463548FEF783FB08A80AF0B2
:101E200028FA0CA80AF025FA314C17B92378002BB0
:101E30003BD104A82F490AF05CFA294668460AF00B
:101E40008EFA694604A80AF016FB2B490AF01CFB1F
:101E50000A228146394608A80AF094FA08A9484699
:101E60000AF009FB25490AF00FFB0A2207462178F0
:101E70000CA80AF087FA0CA938460AF0FCFA0146C9
:101E80001A48FEF74EFB0CA80AF0F3F908A80AF06E
:101E9000F0F968460AF0EDF904A80AF0EAF93046CC
:101EA00029464246FFF782FE17E0154B15491D7083
:101EB0000CA80AF01EFA294608A80AF050FA08A948
:101EC0000CA80AF0D8FA01460848FEF72AFB08A831
:101ED0000AF0CFF90CA80AF0CCF911B0BDE8F083F4
:101EE000526601003CD7FF1F63660100BCD9FF1F8B
:101EF00028D7FF1F74660100916601009C660100EF
:101F000011D7FF1FA7660100044A054B1360054A5D
:101F10001360054A13600AF095BC00BF8C91FF1F47
:101F2000032000388891FF1F8491FF1F08B5FEF73A
:101F3000EBFA08BD01448A71704701EB82007047DB
:101F4000F0B504468DB0474813F0EAFB05460EF0A5
:101F500023FF00282ED1444904A80AF0CAF92946D3
:101F600068460AF0C6F9694604A80AF084FA3F49AF
:101F70000AF08AFA0A2206464FF4802108A80AF0DD
:101F800001FA08A930460AF076FA01463848FEF709
:101F9000C8FA08A80AF06DF968460AF06AF904A8B8
:101FA0000AF067F90EF042FE4FF4802102462846FF
:101FB0000EF0FEFE284613F099FA2E4813F0B0FBFF
:101FC00006460EF0E9FEF0B908A82B490AF091F98F
:101FD000314604A80AF08DF904A908A80AF04BFAC2
:101FE00001462348FEF79DFA04A80AF042F908A822
:101FF0000AF03FF90EF01AFE4FF4802102463046F7
:102000000EF0D6FE18E008A831460EF045FE04F1A9
:10201000580308AA0DF1280E1F46154603CD754535
:10202000186059602A4603F10803F6D12868186041
:10203000AA889A80A36D7BB9304613F057FA0EF048
:102040000FFD0028FBD0002384F846306370204643
:1020500000F0D2FC0DB0F0BD0023236638460EF030
:10206000E9FFE9E7C9620100D9660100EE660100F7
:10207000BCD9FF1F0D620100F66601002DE9F04F8B
:10208000C7788FB004462FB103202AE37B1C402B76
:1020900006D01F4604EB070B9BF80630002BF5D04B
:1020A0000AF07EFEE36C4CF25032C01A904240F2CD
:1020B000F781AD4813F034FB0190AC4813F030FBCE
:1020C00081460EF0CDFC002800F0BC814FF480501A
:1020D000012113F0C3F99BF806305FFA87F8013B42
:1020E0004FEA980608F003058246032B00F2A78109
:1020F000DFE813F004005600E70058019C4906A8E9
:102100000AF0F7F8294602A80AF029F902A906A858
:102110000AF0B1F997490AF0B7F9314683460AA89F
:102120000AF01DF958460AA90AF0A5F90146924895
:10213000FEF7F7F90AA80AF09CF802A80AF099F845
:1021400006A80AF096F80AA849460EF0A5FD04F183
:1021500058030AAA0DF1300C9B469646BEE80300D0
:10216000E64518605960724603F10803F5D110681E
:10217000186092889A80A36D002B00F092814146EE
:102180002046FEF7ADFD2744206658460EF068FF56
:102190000223BB710AF004FEE06406A877492BE134
:1021A000774906A80AF0A5F8294602A80AF0D7F848
:1021B00002A906A80AF05FF96E490AF065F93146EE
:1021C00083460AA80AF0CBF80AA958460AF053F940
:1021D0006C490AF059F901466748FEF7A2F90AA8C6
:1021E0000AF047F802A80AF044F806A80AF041F8F5
:1021F0000AA801990EF050FD0AAA04F158030DF146
:10220000300C9646BEE80300E645186059607246F9
:1022100003F10803F5D11068186092889A80564837
:102220005949FFF783FEA36D002B40F061815749A8
:1022300006A80AF05EF894F8461002A80AF08FF893
:1022400002A906A80AF017F951490AF01DF9294612
:1022500083460AA80AF083F80AA958460AF00BF93F
:1022600001464548FEF75DF90AA80AF002F802A8FF
:1022700009F0FFFF06A809F0FCFF46493E48FFF7BA
:1022800055FE0AA849460EF007FD0AAA04F15803B4
:102290000DF1300C9646BEE80300E6451860596023
:1022A000724603F10803F5D11068186092889A808D
:1022B00031483949FFF73AFEA36D002B40F04081C9
:1022C0009EE1364906A80AF014F8294602A80AF049
:1022D00046F802A906A80AF0CEF826490AF0D4F872
:1022E000314683460AA80AF03AF858460AA90AF085
:1022F000C2F801462048FEF714F90AA809F0B9FF10
:1023000002A809F0B6FF06A809F0B3FF0AA80199D0
:102310000EF0C2FC04F158030AAA0DF1300C9B46E2
:102320009646BEE80300E64518605960724603F120
:102330000803F5D11068186092889A80A36D002B6D
:1023400000F0A88141462046FEF7CAFC20665846A8
:102350000EF086FE0AF024FD27440423E064BB71DE
:1023600006A80F4948E000BF0D620100C9620100E4
:102370000C6701003C670100BCD9FF1F41670100E9
:102380007A670100BA67010088B90100206901007D
:10239000716901007CBA0100B9BA0100146801003A
:1023A00045680100AA4906A809F0A3FF294602A82A
:1023B00009F0D5FF02A906A80AF05DF8A5490AF0C0
:1023C00063F8314607460AA809F0C9FF0AA938464A
:1023D0000AF051F80146A048FEF7A3F80AA809F050
:1023E00048FF02A809F045FF06A809F042FF0023B4
:1023F0009A498BF8063006A809F07BFF294602A807
:1024000009F0ADFF02A906A80AF035F891490AF0D3
:102410003BF8314605460AA809F0A1FF0AA928465B
:102420000AF029F801468C48FEF77BF80AA809F063
:1024300020FF02A809F01DFF06A809F01AFF504668
:1024400013F054F8484613F051F8019813F04EF881
:1024500000231D46E21892790AB10135EDB201332D
:10246000402BF7D12378DBB1D5B97D490AA809F013
:1024700040FF0AF095FC216D0A22411A06A809F0D6
:10248000A7FF06A90AA809F0F6FF01467248FEF761
:1024900048F806A809F0EDFE0AA809F0EAFE257042
:1024A0001FE106A86F4909F024FF94F8461002A81E
:1024B00009F055FF02A906A809F0DDFF6A4909F0F5
:1024C000E3FF494607460AA809F013FF0AA9384660
:1024D00009F0D1FF01466048FEF723F80AA809F089
:1024E000C8FE02A809F0C5FE06A809F0C2FE54E61F
:1024F00041462046FEF7F4FB5C4920665648FFF74C
:1025000015FD236EE26D03F58051914215D993427A
:102510000AD2C3EB020BA06D514618445A460DF087
:10252000F7FF236E5B44236651494B48FFF7FEFCDF
:1025300050494948FFF7FAFC9FE64FF4805BEAE711
:1025400020464146FEF7CCFBE36D206600F5805245
:102550009A4252D998420AD2C0EB0308A36D514661
:10256000184442460EF0BCF8236E434423660AF03A
:1025700017FC4149E06406A809F0BBFE294602A801
:1025800009F0EDFE02A906A809F075FF314909F02E
:102590007BFF314680460AA809F0E1FE0AA94046C1
:1025A00009F069FF354909F06FFF01462A4809F033
:1025B000B6FD0AA809F05DFE02A809F05AFE06A8B9
:1025C00009F057FE51462448FDF79EFF224809F0C6
:1025D000C7FD21482A49FFF7A9FC27440323BB7103
:1025E00028491D48FFF7A2FC27491B48FFF79EFC1E
:1025F0000023637006A82549FEE64FF48058ADE736
:1026000006A8184909F075FE94F8461002A809F0CA
:10261000A6FE02A906A809F02EFF1D4909F034FF05
:10262000294680460AA809F09AFE0AA9404609F000
:1026300022FF01460848FDF774FF0AA809F019FEB9
:1026400002A809F016FE06A809F013FEC5E700BFB0
:102650007F6801003C670100BCD9FF1FBE68010014
:10266000076901002069010043690100C5B9010043
:1026700002BA01003FBA0100BE6701007E6A010094
:10268000F6BA010033BB01009AB80100CA67010025
:10269000A369010006A8144909F02BFE94F846101E
:1026A00002A809F05CFE02A906A809F0E4FE0F49A1
:1026B00009F0EAFE294607460AA809F050FE0AA9D1
:1026C000384609F0D8FE01460948FDF72AFF0AA856
:1026D00009F0CFFD02A809F0CCFD06A809F0C9FD5C
:1026E0003EE60FB0BDE8F08F20690100D669010019
:1026F000BCD9FF1F044A054B1360054A1360054A05
:1027000013600AF09FB800BF9891FF1F03200038A4
:102710009491FF1F9091FF1F0A22002309F030BD02
:1027200038B58368144642680546E018904202D9DD
:1027300093420AD2D41A2868224618440DF0E8FEC3
:10274000AB682344AB60204638BD002038BD70B56F
:102750000668044630460D460AF0B8F8854203D0B4
:10276000304629460AF0C6F8204670BDF0B5054649
:1027700085B0184812F0D4FF04460EF071F9002815
:10278000FBD020460EF008FBB8B9684621460EF093
:1027900083FA05F158036A4602AF1E46144603CC7D
:1027A000BC4218605960224603F10803F6D1206844
:1027B0001860A2889A80AB6D23B90EF051F90028F9
:1027C000FBD005E000232B6630460EF033FCF4E727
:1027D00005B0F0BDC96201002DE9F04186B004A842
:1027E0000EF07CF8304D04A80EF08AF92B680093A7
:1027F000DDF80080044600284FD02C492C48FFF714
:1028000095FB21462A48FFF787FF2A492848FDF70C
:1028100092FE29492648FDF78EFE28492448FDF7F7
:102820008AFE0EF097F82B680193019E00240EF0AB
:1028300017F90746A8B92B680293029B9B1BB3F5B7
:102840007A7FF4D901341A481D49E4B2FFF76EFBD0
:102850003B2C06F57A76EAD9154809F081FC3C460E
:10286000E5E714B1124809F07BFC16491048FDF762
:1028700062FE2B680393039B13490D48C8EB0308C2
:10288000FFF754FB4FF47A71B8FBF1F10848FFF7FA
:1028900043FF07480D49FDF74EFE4FF47A700AF0EA
:1028A0009DFA06B0BDE8F081B4D7FF1F096A0100A8
:1028B000BCD9FF1F1B6A0100236A01003D6A0100A9
:1028C0006B640100536A0100636A0100736A0100CE
:1028D00070B590B0404905460CA809F00AFD3F4B81
:1028E00008A8197809F03BFD08A90CA809F0C3FD58
:1028F00001463B48FDF715FE08A809F0BAFC0CA8F4
:1029000009F0B7FC0024374904A809F0F2FC6B6D0C
:102910002344684693F8021809F021FD694604A88B
:1029200009F0A9FD304909F0AFFD6B6D234406465F
:1029300093F80A1808A809F012FD304608A909F012
:102940009AFD2A4909F0A0FD6B6D2344064693F8D1
:1029500006180CA809F003FD30460CA909F08BFD00
:10296000234909F091FD01461D4809F0D8FB0CA848
:1029700009F07FFC08A809F07CFC684609F079FCA6
:1029800004A809F076FC00266B6D03EB461308A83B
:10299000195D09F0E4FC08A90CA809F0C5FC14496C
:1029A0000CA809F071FD01460D4809F0B8FB0CA810
:1029B00009F05FFC013608A809F05BFC102EE3D19A
:1029C00007480C49FDF7B7FD04F6041442F2104322
:1029D0009C4298D110B070BD806A01003CD7FF1FA7
:1029E000BCD9FF1F9C6A0100A16A0100A76A01000F
:1029F0007E6A01007F6A0100F0B5374B00229FB06C
:102A000006461A800EA8402101AA0EF0B5FA002849
:102A10005FD032493248FFF789FA31480EA9FFF7F3
:102A200085FA00240EA812F096FEC0F1140084422C
:102A30002B4804D22B49FFF779FA0134F2E72749F2
:102A4000FFF774FA01992648FFF766FE26492448E5
:102A5000FFF76CFA224809F083FB00244FF4805002
:102A600012F03CFD0546346629465A2206F158000C
:102A7000FFF756FE00230A22214602A885F85B30A4
:102A800009F080FC02A906A809F04EFC174906A827
:102A900009F0FAFC294607460AA809F02AFC0AA907
:102AA000384609F0E8FC01460D48FDF73AFD0AA852
:102AB00009F0DFFB06A809F0DCFB02A809F0D9FB4E
:102AC00004F58054284612F011FDB4F5802FC5D1CD
:102AD00098E71FB0F0BD00BFC6DAFF1FAD6A010066
:102AE000BCD9FF1FAE6A0100B06A010078CE0100B8
:102AF00073B502AC164644F8041D0D462046D1B20B
:102B0000FFF725FE01352046310A0195FFF71FFE2C
:102B100002B070BD38B508460C4609F0D7FE054630
:102B2000601C09F0D3FE05EB002080B238BD13B560
:102B3000002402A8FF2140F8044D0134FFF707FEEE
:102B4000B4F5006FF5D14FF4FA700AF047F902B00E
:102B500010BDFFFF044A054B1360054A1360054A88
:102B6000136009F06FBE00BFA491FF1F032000385F
:102B7000A091FF1F9C91FF1F38B504460AF010F981
:102B8000D22360601721052204F108000FF0A5FB95
:102B90000021172204F11C0009F070FF01232377A4
:102BA000022363770323A3770423E377062384F8C0
:102BB0002030072384F82130082384F822300923A9
:102BC00084F823300B2384F824300C2384F8253038
:102BD0000D2384F826300E2384F82730102384F840
:102BE0002830112384F82930122384F82A30132343
:102BF00084F82B30052384F82D300A2384F82E30F6
:102C00000F2384F82F300C4B03F1100204F1330131
:102C1000104653F8045B41F8045B9342F9D1036812
:102C2000C4F84330054B1A889B78A4F8472084F8F1
:102C30004930204638BD00BF926D0100A66D0100ED
:102C4000C943CAB2542A09D8A2EB8200013802EB68
:102C500042020021C0B2D2B20B4618E0A92A0BD81A
:102C6000553AD2B202EB4201A2EB8202013A0020B5
:102C7000C9B2D2B203460AE05632D2B202EB4200E7
:102C8000A2EB8202511E0022C0B2C9B213460FF05D
:102C900090BBFFFF2DE9F043044685B000F110081A
:102CA00006463A4F2368387840F6041909FB00308D
:102CB00001F075FD2546311B01EB0010C1B255F83E
:102CC000083B387809FB003090F800388B4203D17C
:102CD00096F83310FF2206E000EB41135B794BB905
:102CE00096F83310012200920192284613460FF005
:102CF0000AFB0DE0002296F8339001F0E1FF014657
:102D00002046FFF79DFF4946024628460FF023FB69
:102D100001364645C5D11E4B1E78204636B14021AE
:102D2000FFF78EFF00210246284605E0FF21FFF74E
:102D300087FF3146024628460FF00DFB00263B7800
:102D4000B34204EB060312D193F84380114B1B6886
:102D5000039303996423B1FBF3F12046C9B2FFF753
:102D60006FFF4146024628460FF0F5FA08E00022C0
:102D700093F8431000920192284613460FF0C3FACD
:102D80000136042EDBD105B0BDE8F08312D7FF1F5A
:102D900028D7FF1FB4D7FF1F2DE9F04F044685B099
:102DA00000F1100B0646371BFFB2DFF8A88125465D
:102DB000384606F059FD98F8002055F8083B40F6D3
:102DC000041A0AFB023393F80038834203D196F8C1
:102DD0003310FF222AE0384606F046FD594B1B7897
:102DE000834214D1584B96F833701B680393039AAF
:102DF0000523B2FBF3F3FF2293FBF2F29918C9B259
:102E00002046FFF71DFF3946024628462BE023687F
:102E100098F8002038460AFB023906F025FD09EB38
:102E2000401043794BB996F8331001220092019279
:102E3000284613460FF067FA17E0236898F8002039
:102E400096F8339038460AFB023A06F00DFD002250
:102E50000146504601F034FF01462046FFF7F0FEE0
:102E60004946024628460FF076FA01365E459AD169
:102E7000364B1E78204636B14021FFF7E1FE002197
:102E80000246284605E0FF21FFF7DAFE31460246FA
:102E900028460FF060FA2E4B1B78032B30D8DFE862
:102EA00003F00205111D2046FF2101E02046BF214D
:102EB000FFF7C6FE1521024628460FF04CFA2046C1
:102EC0007F2116E07F212046FFF7BAFE152102463A
:102ED00028460FF040FA2046BF210AE07F21204615
:102EE000FFF7AEFE1521024628460FF034FA2046C1
:102EF000FF21FFF7A5FE1621024628460FF02BFA08
:102F00000026144A1378B34204EB06030BD1204683
:102F1000002193F84370FFF793FE39460246284696
:102F20000FF019FA08E0002293F843100092019282
:102F3000284613460FF0E7F90136042EE1D105B01B
:102F4000BDE8F08F00D7FF1FB4D7FF1F28D7FF1FA2
:102F5000F5D6FF1F12D7FF1F2DE9F04F044685B0AD
:102F60000025724B1A78AA4204EB050304F1080607
:102F70000BD12046402193F84370FFF761FE39469C
:102F8000024630460FF0E7F908E0002293F84310BC
:102F900000920192304613460FF0B5F90135042D29
:102FA000DFD104F1100B25462F1BFFB2DFF87C9117
:102FB000384606F059FC4B4640F604181A78236848
:102FC00008FB023A9AF80028824238463DD106F0C2
:102FD0004BFC0AEB40104379012B08D1FF228023E0
:102FE00095F8331030468DE80C0000222BE0236862
:102FF00099F80020384608FB023A06F035FC0AEB47
:1030000040104379022B06D10023802295F833101B
:10301000009301926AE0236899F80020384608FB83
:10302000023806F021FC08EB401095F83310437984
:10303000032B04D1002280238DE80C006BE0FF22DB
:10304000009201923046134667E006F00DFC384BC3
:103050001B78834216D1374B95F833701B68039366
:10306000039A0523B2FBF3F3FF2293FBF2F29918C4
:103070002046C9B2FFF7E4FD3946024630460FF05C
:103080006AF94CE099F800202368384608FB023AB8
:1030900006F0EAFB0AEB4010427912B995F83310BA
:1030A000CEE7236899F80020384608FB023A06F07C
:1030B000DBFB0AEB40104379012B05D1FF2395F888
:1030C000331000930022BCE7236899F800203846AB
:1030D00008FB023A06F0C8FB0AEB40104379022BCA
:1030E00007D1002395F83310009301933046FF2257
:1030F00013E0236899F80020384608FB023806F0F0
:10310000B3FB08EB40104379032B08D1002295F85C
:103110003310009201923046FF230FF0F4F801358E
:103120005D457FF441AF05B0BDE8F08F12D7FF1FBA
:1031300000D7FF1FB4D7FF1FF7B505460024114B7A
:103140001B78A34205F1080605EB04030BD12846C2
:10315000C42193F84370FFF773FD394602463046A9
:103160000FF0F9F808E0002293F843100092019262
:10317000304613460FF0C7F80134042CDFD103B0FA
:10318000F0BD00BF12D7FF1FF0B5044685B00D4655
:1031900009F006FE6368C01AA84269D909F000FE6A
:1031A000344B60601B78092B04F1080620D00ED840
:1031B000032B19D005D8002B52D02046FFF7ECFD89
:1031C0004EE0062B4CD12046FFF7C6FE48E07D2B93
:1031D0000ED003D80B3B012B06D941E0F12B3FD198
:1031E0002046FFF7A9FF3BE02046FFF753FD37E0FD
:1031F00000256319204693F833701F4B1B68039317
:10320000039A0523B2FBF3F3122202FB0533FF22DC
:1032100093FBF2F29918C9B2FFF712FD013502468D
:10322000394630460FF097F8102DE2D10025134BA8
:103230001A7863192A4112F0010293F8431005D05D
:10324000FF22009201923046134604E07F23009350
:1032500001923046FF2301350FF055F8042DE6D1D9
:10326000074B02241C6030460EF082FF054B1C60A9
:1032700005B0F0BD728EFF1FB4D7FF1F7C8EFF1FFD
:1032800004F10F4008F10F4001EB81012DE9F047F7
:1032900005464FEAC1080026002406EB04192B1945
:1032A0005FFA89F94946284693F833A0FFF7C8FC2E
:1032B00005F108070246514638460FF04CF804F075
:1032C00003032B444946284693F843A0FFF7B8FC74
:1032D00001340246514638460FF03DF8102CDCD13F
:1032E00038460EF045FFB8F1000F03D04346013BCE
:1032F0007FF4FDAF0136B6B2B6F5807FCCD1BDE824
:10330000F087FFFFF7B52C4C236816225B68054653
:103310000E4620462949984720462C4608F020FFB3
:1033200044F8086B0520012109F0B8FCC8212046AB
:103330000FF046F820460EF0C9FE20460EF018FFAA
:1033400000270026AB19FAB293F8331000920192CD
:103350002046134601360EF0D6FF102EF2D120463D
:103360000EF006FF4FF47A63013B7FF4FDAF0137A7
:10337000B7F5807FE5D1FF270026AB19FAB293F8A5
:103380003310009201922046134601360EF0BBFF27
:10339000102EF2D120460EF0EBFE4FF47A63013B83
:1033A0007FF4FDAF013FE7D12846642103B0BDE8BB
:1033B000F040FFF769BF00BFBCD9FF1FA96D010036
:1033C000044A054B1360054A1360054A136009F06F
:1033D00039BA00BFB091FF1F03200038AC91FF1F26
:1033E000A891FF1F2DE9F04705468CB00C46164604
:1033F0001F46BE49BE48FDF79EF8EE626F62012689
:103400000027BC492F736F73AF73EF732E746E7404
:10341000AE74EE742F756F75AF75EF752E766E7690
:10342000AE76EE76B248FDF786F820462121AC62F2
:1034300002F0C2FB204639460822334602F002FA67
:10344000204631460422334602F0FCF92046022190
:103450000922334602F0F6F92046032105223346BD
:1034600002F0F0F9204611210622334602F0EAF973
:10347000204604210A22022302F0E4F92046052115
:103480000722022302F0DEF9204606210B22022346
:1034900002F0D8F9204607210C22022302F0D2F9CB
:1034A000204608211B22334602F0CCF92046092190
:1034B0001222334602F0C6F920460A21132233466F
:1034C00002F0C0F920460B211422334602F0BAF96B
:1034D00020460C211522334602F0B4F920460D2176
:1034E0001622334602F0AEF920460E21172233464B
:1034F00002F0A8F920460F210322334602F0A2F978
:10350000204610211822334602F09CF9204616214D
:103510000E22022302F096F920461221022233469F
:1035200002F090F92046132132463B4602F08AF918
:10353000204614211A223B4602F084F92046152128
:103540000D223B4602F07EF9204617210F223B4612
:1035500002F078F92046182110223B4602F072F959
:103560002046192111223B4602F06CF920461A210F
:1035700019223B4602F066F93A463B461B2120469B
:1035800002F060F9204602F09DFA5B495848FCF7CA
:10359000D2FF022105F11D0002F0ECF805F11F0930
:1035A0000A2009F01BFC1321484602F0C7FB05F175
:1035B00020080A2009F012FC4046122102F0BEFB4E
:1035C0000A2009F00BFC4D4904A808F092FE0A22DB
:1035D0003946684608F0D6FE694604A808F04BFF55
:1035E000474908F051FFFEB282463146484602F094
:1035F00019FC014608A808F0B2FE504608A908F0D8
:103600003AFF01463A48FCF78CFF08A808F031FE63
:10361000684608F02EFE04A808F02BFE012009F0F1
:10362000DDFB384904A808F064FE0A2239466846E2
:1036300008F0A8FE694604A808F01DFF304908F00C
:1036400023FF31468246404602F0ECFB014608A8C3
:1036500008F085FE504608A908F00DFF01462448F1
:10366000FCF75FFF08A808F004FE684608F001FEBA
:1036700004A808F0FEFD012009F0B0FB012009F0CC
:10368000ADFB31460122484602F094FB012009F0CF
:10369000A5FB01223146404602F08CFB012009F0D7
:1036A0009DFB012009F09AFB144904A808F021FEB3
:1036B0000A223946684608F065FE694604A808F003
:1036C000DAFE0F4908F0E0FE31468246484602F035
:1036D000A9FB014608A808F042FE504608A908F0D8
:1036E000CAFE01460248FCF71CFF0DE0C06D010058
:1036F000BCD9FF1FD26D0100EC6D0100FD6D010012
:103700006E6901000C6E010008A808F0B2FD684661
:1037100008F0AFFD04A808F0ACFD012009F05EFB45
:103720007E4904A808F0E5FD0A223946684608F0FB
:1037300029FE694604A808F09EFE794908F0A4FE17
:1037400031468246404602F06DFB014608A808F06B
:1037500006FE504608A908F08EFE01467148FCF7A7
:10376000E0FE08A808F085FD684608F082FD04A880
:1037700008F07FFD012009F031FB012009F02EFB4C
:103780003146FF22484602F015FB012009F026FBD6
:10379000FF223146404602F00DFB012009F01EFBDE
:1037A000012009F01BFB604904A808F0A2FD0A22D1
:1037B0003946684608F0E6FD694604A808F05BFE55
:1037C000574908F061FE31468246484602F02AFB1E
:1037D000014608A808F0C3FD504608A908F04BFEB2
:1037E00001465048FCF79DFE08A808F042FD6846D7
:1037F00008F03FFD04A808F03CFD012009F0EEFAB6
:10380000464904A808F075FD0A223946684608F0C2
:10381000B9FD694604A808F02EFE414908F034FEBF
:1038200031468246404602F0FDFA014608A808F0FB
:1038300096FD08A9504608F01EFE01463948FCF7DF
:1038400070FE08A808F015FD684608F012FD04A8EF
:1038500008F00FFD0137012009F0C0FA042F7FF4B2
:10386000B2AE2E462F1D96F834302B44204693F8E6
:103870003C10012202F095F996F838302B4420468E
:1038800093F83C100122013602F08BF9BE42EAD1D6
:1038900026492448FCF74FFE1F20012109F0FEF9BC
:1038A0000420012109F0FAF921491E48FCF743FEE2
:1038B000204602F03DF900251E4904A808F019FD34
:1038C0000A222946684608F05DFD694604A808F00A
:1038D000D2FD194908F0D8FDE9B20646204602F0AB
:1038E00073F80A22014608A808F04CFD08A93046E2
:1038F00008F0C1FD01460B48FCF713FE08A808F0CC
:10390000B8FC684608F0B5FC013504A808F0B1FC25
:103910001C2DD1D10CB0BDE8F08700BF0C6E0100AA
:103920006E690100BCD9FF1FFD6D01001B6E010017
:10393000306E01005A6E01007E6A01002DE9FF47DA
:10394000B34B1A680292029A1B680393039BB14B14
:103950001B78283B0446232B00F27D83DFE813F01D
:1039600024005300840024005300840024005300EA
:103970008400240053008400B300CE00EA00050157
:1039800020013C01680183019F01BA01D501F101C9
:103990000C02270243025E0279029502B002CB02BA
:1039A000F2020D032E0351039B4D05F1080A6E78B8
:1039B000DFF87082DFF8709238F8162039F8163088
:1039C000009296494FF48042002008F048FC04F130
:1039D0001D0782B23146384601F0E8FE15F8016F46
:1039E0008E4938F8162039F81630009200204FF42E
:1039F000804208F034FC314682B2384601F0D6FEEF
:103A00005545D4D127E3844D05F1080A6E78DFF8D7
:103A10001482DFF8149238F8162039F81630009224
:103A20007E494FF480424FF4005008F018FC04F136
:103A30001D0782B23146384601F0B8FE15F8016F15
:103A4000764938F8162039F8163000924FF40050B5
:103A50004FF4804208F003FC314682B2384601F050
:103A6000A5FE5545D2D1F6E26B4D05F1080A6E78F8
:103A7000DFF8B081DFF8B09138F8162039F8163049
:103A80000092664966484FF4804208F0E8FB04F172
:103A90001D0782B23146384601F088FE15F8016FE5
:103AA0005E4938F8162039F8163000925C484FF419
:103AB000804208F0D4FB314682B2384601F076FEEF
:103AC0005545D4D1C7E2DFF86481564E98F80050CE
:103AD000554F36F8152037F815305049009200F14F
:103AE0001D044FF480424E4808F0B9FB294682B2CB
:103AF000204601F05BFE98F8005058E2DFF82C8178
:103B0000484E98F80050484F36F8152037F81530D1
:103B10004249009200F11D044FF480424FF40050DE
:103B200008F09DFB294682B2204601F03FFE98F83E
:103B300000505EE2DFF8F4803A4E98F800503A4FB9
:103B400036F8152037F815303449009200F11D047D
:103B50004FF48042002008F082FB294682B22046C2
:103B600001F024FE98F8005065E2DFF8C0802D4E89
:103B700098F801502C4F36F8152037F815302749A2
:103B8000009200F11D044FF48042254808F067FBC5
:103B9000294682B2204601F009FE98F8015006E25B
:103BA000DFF888801F4E98F801501F4F36F8152017
:103BB00037F815301949009200F11D044FF4804286
:103BC0004FF4005008F04BFB294682B2204601F02A
:103BD000EDFD98F801500CE2DFF85080114E98F896
:103BE0000150114F36F8152037F815300B49009267
:103BF00000F11D044FF48042002008F030FB2946FC
:103C000082B2204601F0D2FD98F8015013E200BFC5
:103C1000B4D7FF1FF6D6FF1F508EFF1F00C0FFFF57
:103C200000E0FFFF5A8EFF1F848EFF1F518EFF1F83
:103C3000DFF80C83BE4E98F80250BE4F36F81520C0
:103C400037F81530BC49009200F11D044FF4804252
:103C5000BA4808F004FB294682B2204601F0A6FDCE
:103C600098F80250A3E1DFF8D882B14E98F80250DC
:103C7000B04F36F8152037F81530AF49009200F1F3
:103C80001D044FF480424FF4005008F0E8FA294632
:103C900082B2204601F08AFD98F80250A9E1DFF8CF
:103CA000A082A34E98F80250A24F36F8152037F89C
:103CB0001530A149009200F11D044FF4804200200C
:103CC00008F0CDFA294682B2204601F06FFD98F83F
:103CD0000250B0E1DFF86882954E98F80350954F96
:103CE00036F8152037F815309349009200F11D047D
:103CF0004FF48042914808F0B2FA294682B2204639
:103D000001F054FD98F8035051E1DFF83482884EF9
:103D100098F80350874F36F8152037F81530864944
:103D2000009200F11D044FF480424FF4005008F05F
:103D300096FA294682B2204601F038FD98F80350E1
:103D400057E1DFF8FC817A4E98F80350794F36F846
:103D5000152037F815307849009200F11D044FF412
:103D60008042002008F07BFA294682B2204601F00A
:103D70001DFD98F803505EE1DFF8C4816C4E98F8A1
:103D800004506C4F36F8152037F815306A49009208
:103D900000F11D044FF48042684808F060FA29469B
:103DA00082B2204601F002FD98F80450FFE0DFF8EF
:103DB00090815F4E98F804505E4F36F8152037F822
:103DC00015305D49009200F11D044FF480424FF41C
:103DD000005008F044FA294682B2204601F0E6FC81
:103DE00098F8045005E1DFF85881514E98F80450D6
:103DF000504F36F8152037F815304F49009200F132
:103E00001D044FF48042002008F029FA294682B2AE
:103E1000204601F0CBFC98F804500CE1DFF820813B
:103E2000434E98F80550434F36F8152037F81530B3
:103E30004149009200F11D044FF480423F4808F0D0
:103E40000EFA294682B2204601F0B0FC98F80550DF
:103E5000ADE0DFF8EC80364E98F80550354F36F877
:103E6000152037F815303449009200F11D044FF445
:103E700080424FF4005008F0F2F9294682B2204601
:103E800001F094FC98F80550B3E0DFF8B480284EB8
:103E900098F80550274F36F8152037F81530264981
:103EA000009200F11D044FF48042002008F0D7F981
:103EB000294682B2204601F079FC98F80550BAE014
:103EC000DFF87C801A4E98F806501A4F36F8152005
:103ED00037F815301849009200F11D044FF4804264
:103EE000164808F0BCF9294682B2204601F05EFC73
:103EF00098F806505BE0DFF848800D4E98F80650C1
:103F00000C4F36F8152037F815300B49009200F1A8
:103F10001D044FF480424FF4005008F0A0F92946E8
:103F200082B2204601F042FC98F8065061E000BFE2
:103F30005A8EFF1F848EFF1F00C0FFFF00E0FFFFAF
:103F4000518EFF1FDFF82481444E98F80650444FED
:103F500036F8152037F815304249009200F11D045B
:103F60004FF48042002008F07AF9294682B22046B8
:103F700001F01CFC98F806505DE0DFF8F080374E49
:103F800098F80750364F36F8152037F81530354970
:103F9000009200F11D044FF48042334808F05FF9AD
:103FA000294682B2204601F001FC98F8075036F805
:103FB000152037F815302C48009242E0DFF8AC802D
:103FC000264E98F80750264F36F8152037F815304A
:103FD0002449009200F11D044FF480424FF4005038
:103FE00008F03DF9294682B2204601F0DFFB98F83F
:103FF000075036F8152037F8153000924FF400506E
:104000001FE0DFF86880154E98F80750144F36F817
:10401000152037F815301349009200F11D044FF4B4
:104020008042002008F01BF9294682B2204601F0A8
:10403000BDFB98F8075036F8152037F81530009278
:10404000002008494FF4804208F009F9294682B25D
:10405000204601F0ABFB04B0BDE8F0875A8EFF1F8D
:10406000848EFF1F00C0FFFF00E0FFFF518EFF1F87
:104070002DE9F3410446806A414EDFF8248101F0C6
:1040800057FD11210122606A0FF050FC242130807D
:104090000122606A0FF04AFC252170800122606ACB
:1040A0000FF044FC2221B0800122606A0FF03EFC38
:1040B0000025F080334B705BEB5A334F984207D2A8
:1040C000324AA95A002200921A464FF4806305E052
:1040D0002F4A3049AA5A00911946002308F0BFF828
:1040E00078534023785F2B4900934FF480626FF040
:1040F0003F0308F0B4F80235082D08F8010FD9D1B4
:10410000A06A254E042101F0F2FD80F0010030701C
:104110000521A06A01F0EBFD80F00100707006211E
:10412000A06A01F0E4FD80F00100B0700721A06AF0
:1041300001F0DDFD80F00100F0700421A06A174E4F
:1041400001F0C6FD05213070A06A01F0C1FD062115
:104150007070A06A01F0BCFD0721B070A06A01F088
:10416000B7FD2946F0700122A06A01F01AFDA06A8D
:104170002946002202B0BDE8F04101F012BD00BFA7
:10418000E6D6FF1F748EFF1F02D7FF1F6A8EFF1F28
:10419000948EFF1F00FCFFFF1CD7FF1F29D7FF1FB6
:1041A0000BD7FF1F2DE9F04F85B004469DF84480E2
:1041B0009DF838A09DF840600F4691469B46B8F1A7
:1041C000000F08D0806A01F09CFD20B1A06A39463A
:1041D000002201F0E6FCE519A06A95F8343023448A
:1041E00093F83C1006B3002201F0DBFC95F8343064
:1041F0002344FF2293F844300092190903F00F0A78
:10420000304607D17F220B4608F029F8C2B204F1EC
:104210001F0007E000217F220B4608F020F8C2B201
:1042200004F12000514635E0012201F0BAFCBAF158
:10423000010F16D195F838302344324693F84410D4
:104240000B0908BF04F11F0001F00F0118BF04F1B2
:10425000200001F0AFFD01232B762B7385F814B0FD
:1042600009E008D99DF83C302B74012385F814B07F
:104270002B7685F80CA095F83430234493F844103D
:104280000A0908BF04F11F0001F00F011CBF04F16F
:104290002000002201F08EFDDFF878B095F834C0E0
:1042A000DFF874A03BF81C203AF81C30009213444D
:1042B0005B08002178224846CDF80CC007F0CFFFFC
:1042C000DDF80CC004F11D0682B26146304601F0F3
:1042D0006DFA95F834503BF815203AF815300092F5
:1042E00013440021782248465B0807F0B8FF2946AE
:1042F00082B2304601F05AFAB8F1000F04D0A06A39
:104300003946012201F04DFC08F04AFDA06005B0DD
:10431000BDE8F08F5A8EFF1F848EFF1F2DE9F743F3
:1043200046180746337B002B00F0E180013B032B4E
:1043300000F29F80DFE803F002053C6D347DE4016C
:1043400065E06C4A337C106858430BF0D9FB6A492E
:104350000BF02EFC69490BF02BFC694B04461868E6
:1043600000010BF0CDFB014620460BF0D5FC0AF016
:10437000DBFF0FF06DFF0446307D0D460AF0C2FFF3
:1043800002460B46204629460BF022F800225D4BE0
:104390000BF01EF80BF0B6FA96F838303B440022CA
:1043A00084B293F83C10B86A01F0FBFB022260E093
:1043B000504A337C106858430BF0A2FB4E490BF077
:1043C000F7FB4E490BF0F4FB4D4B04461868000117
:1043D0000BF096FB014620460BF09EFC0AF0A4FF72
:1043E0000FF036FF002200230BF082FA347D08B173
:1043F000E40103E0C4EB4424E401A4B296F83830AD
:10440000B86A3B44012293F83C1001F0CAFB002239
:104410002FE0384A337C106858430BF071FB364963
:104420000BF0C6FB35490BF0C3FB354B044618684F
:1044300000010BF065FB014620460BF06DFC0AF015
:1044400073FF0FF005FF002200230BF051FA347DBB
:1044500008B1E40103E0C4EB4424E401A4B296F8FB
:104460003830B86A3B44002293F83C1001F099FBC5
:10447000282296F83830DFF89480DFF894903B4497
:1044800024B293F844100B090CBF07F11F0007F189
:10449000200001F00F0101F08DFC96F838501A4908
:1044A00038F8152000233376204639F8153000926D
:1044B0004FF4804207F0D3FE1D3782B229463846BA
:1044C00001F074F996F838500F4938F81520009229
:1044D00039F8153020464FF4804207F0C0FE2946D7
:1044E00082B2384603B0BDE8F04301F05FB903B0D3
:1044F000BDE8F08334D7FF1FD00F49400000C84209
:10450000E0D6FF1F0000604000C0FFFF5A8EFF1F73
:10451000848EFF1F70B504460E4615461BB1806A97
:10452000002201F03EFB711EC9B20F29E46A0DD8CA
:1045300094F84A3041F080018B420BD0D4F8E0006F
:1045400084F84A1003681B68984703E0002384F846
:104550004A3070BDD4F8E000036805F07F011B68A5
:104560009847D4F8E000036840211B68984770BD65
:1045700038B5002204460D46806A01F012FB60192E
:104580000023037303750123037638BD37B54FF459
:10459000007305460C4609B1084A00E0084A13605A
:1045A0001720214608F05AFB2C7724B1054B1B68D5
:1045B0000193019B2B6003B030BD00BF84F00F401E
:1045C00088F00F40B4D7FF1F044A054B1360054A1B
:1045D0001360054A136008F035B900BFBC91FF1F96
:1045E00003200038B891FF1FB491FF1F10B5044697
:1045F00008F0D6FBC4F8FC0810BDFFFF104B1B7879
:1046000070B5DBB1D0F8F03890F801680133C0F82C
:10461000F03890F8023800221E440346B2420DDA08
:104620009969002907DDD0F8E858D0F8F448B5FBBF
:10463000F4F4091B996101322033EFE770BD00BF2C
:1046400028D7FF1F264B80F8DE181B78F0B5002B0B
:1046500045D090F8D63890F80268B0F8DC585CB2D3
:10466000002CD8BFC3F1020211FB06F6D4BFD2B2B0
:104670000122DBB2002CCCBF1C46012402FB06F257
:1046800005F10105ADB292FBF4F295FBF2F602FBE7
:104690001652C3F10203A0F8DC284FF48005D0F8CD
:1046A000F028C0F8F42895FBF1F5D4BF1E4601268A
:1046B0000022C0F8E858C0F8F028E5B2F6B20123AD
:1046C0008B420CDA0A44B6FBF5F492FBF4F704FBD8
:1046D000172414B980F80438F0BD0133F0E7F0BDB9
:1046E00028D7FF1F90F8D6385AB2002ADABFC3F194
:1046F0000200C0B20120002ACCBFDBB2012380053A
:1047000090FBF3F0704710B50446FFF7EBFF94F809
:104710000238584310BDF8B5D0F8F058D0F8F44836
:10472000B0F8DC68AC4234BF27462F46D0F8E858D2
:10473000FFF7E9FF6E43B6FBF0F37D4303FB106028
:10474000B5FBF4F42044F8BD38B590F80338012BDC
:10475000044611D1FFF7DFFF05462046FFF7C2FFF1
:1047600094F8012894F802381344013BB5FBF0F0AB
:104770001B1A84F800380DE063B9FFF7CCFF05463B
:104780002046FFF7AFFF94F80138B5FBF0F0C518ED
:1047900084F8005894F8003884F8DA3838BD90F876
:1047A0000008000970472DE9F04190F8017890F871
:1047B000023890F800481F4407EB0408054608F14A
:1047C000FF38002644450CDA94FBF7F307FB13434C
:1047D00005EB431328465E61FFF784FF013406446E
:1047E000F0E73046BDE8F08130B504468DB051B1F8
:1047F0000023A0F8DC38C0F8F038FFF78CFF014642
:104800002046FFF7A1FF94F8023894F801082246E9
:104810001844002383420CDA94F800188B4202F10A
:10482000200206D0002102F8101C02F80F1C0133F0
:10483000F0E72046FFF7B7FF94F80938002B2FD197
:10484000184904A807F055FD94F80918684607F0C0
:1048500086FD694604A807F00EFE134907F014FE12
:10486000124907F011FE05462046FFF754FF0A22C1
:10487000014608A807F0ACFD08A9284607F0FBFD93
:1048800001460B4807F04BFC094807F069FC08A8F3
:1048900007F0EFFC684607F0ECFC04A807F0E9FC21
:1048A0000DB030BD846E0100886E0100906E010075
:1048B000BCD9FF1F2DE9F3470446FFF72CFF014643
:1048C0002046FFF741FF94F8006804EB461303F11C
:1048D0001002197C002946D15879002843D0517024
:1048E000D879474D94F80F38EB56142793FBF7F31C
:1048F0001844052204F0A8FF2644012186F8160872
:1049000094F8006804EB46130522187A94F81138DD
:10491000EB5693FBF7F7384404F096FF94F8103801
:1049200094F80018EA5626440F2386F856086018B3
:1049300092FBF3F380F8963804EB41135A7922B1D5
:10494000022A4FF0000298BF012290F8163890F822
:1049500056080090204600F05FFA94F8003804EB07
:10496000431301221A7425462746002694F801288D
:1049700094F8023813449E423FDA6B79002B38D00A
:104980002A7C042A04D0062A20D0012A31D107E04B
:1049900094F800389E422CD000232B746B7428E0CE
:1049A000A969EB69994224DA5FFA86F920464946FB
:1049B00000F097FB06232B742046494695F811A07A
:1049C00000F076FB824514D9042311E0AA69002A7D
:1049D0000FDC022B97F8562897F81638009298BFEC
:1049E0004FF001082046F1B2424600F015FA0123CB
:1049F0002B74013620350137B8E702B0BDE8F087E7
:104A00000CD7FF1F024B1B780BB1FFF753BF70474A
:104A100028D7FF1F044A054B1360054A1360054A57
:104A2000136007F00FBF00BFC891FF1F03200038BD
:104A3000C491FF1FC091FF1F2DE9F041134D0446A3
:104A400028680F46164612491D2298464368284694
:104A50009847284607F084FB002384F8083804238D
:104A600084F8D638069BC4F8F83884F8097884F8B6
:104A7000026884F80A882046FFF795FE012384F82F
:104A8000D738079BC4F80039BDE8F081BCD9FF1FB7
:104A9000A06E0100F0B58DB004460E4604A83D4955
:104AA000154607F026FC3146684607F058FC694673
:104AB00004A807F0E0FC384907F0E6FC2946074661
:104AC00008A807F04CFC08A9384607F0D4FC0146BA
:104AD0003248FBF726FD08A807F0CBFB684607F035
:104AE000C8FB04A807F0C5FB102384F80238002394
:104AF00084F8013884F8063884F8073844F62063CF
:104B00000422C4F8E438052384F80A2884F8D62857
:104B100084F8086884F8095884F80B3884F80C384D
:104B200084F80F3884F80D3884F80E3884F810387B
:104B300084F8113884F8123884F8133884F814385B
:104B400084F81538601C4022032141710121C17194
:104B50000172042118234172C172432100F8013C03
:104B6000017300231021013A037043708370C370F6
:104B700003718371837243738173C0F81330C373FD
:104B800003744374C0F8173000F12000DCD10DB07D
:104B9000F0BD00BFBE6E010087610100BCD9FF1FE0
:104BA000C0F8F818FFF7FFBD2DE9F04103EB4117FE
:104BB000044694B0E2550D4604A82349164698468B
:104BC00007F097FB2946684607F0C9FB694604A829
:104BD00007F051FC1D4907F057FC3146054608A86F
:104BE00007F0BDFB08A9284607F045FC184907F067
:104BF0004BFC414605460CA807F0B1FB0CA9284622
:104C000007F039FC134907F03FFCE15D054610A8A9
:104C100007F0A5FB10A9284607F02DFC01460E4819
:104C2000FBF77FFC10A807F024FB0CA807F021FB82
:104C300008A807F01EFB684607F01BFB04A807F056
:104C400018FB14B0BDE8F081DE6E0100E96E0100D2
:104C5000E1710100E56E0100BCD9FF1F30B5023BD8
:104C6000DBB20C2B98BF15489DF80C4094BF30F870
:104C7000133040F6FF730020904206DA03F001057E
:104C80005B1043EAC5230130F6E70D200C22B1FB8F
:104C9000F2F502FB1512D2B24FF4006545FA02F2AA
:104CA0009A4308D00CB1013100E00139013810F00D
:104CB000FF00C9B2EAD1084630BD00BF206F010035
:104CC00002EB4112805C704770B590B004460D460F
:104CD00004A8304907F00DFB2946684607F03FFB62
:104CE000694604A807F0C7FB2B4907F0CDFB0A2251
:104CF0000646B4F8DC1808A807F044FB304608A9BB
:104D000007F0B9FB254907F0BFFB94F8DE1806460B
:104D10000CA807F024FB30460CA907F0ACFB204997
:104D200007F0B2FB01461F48FBF7FBFB0CA807F09E
:104D3000A0FA08A807F09DFA684607F09AFA04A8B6
:104D400007F097FA94F8DE3894F9D66894F80228B8
:104D5000B4F8DC1815FB03F090FBF6F013FB02F33C
:104D600093FBF6F3084490FBF3F503FB1505A4F859
:104D7000DC580023934204F1200408DA54F8080CAC
:104D8000AEB28E1B304444F8080C0133F2E710B089
:104D900070BD00BFF26E0100FD6E01000E6F0100DC
:104DA0007E6A0100BCD9FF1F38B590F80B388B42E2
:104DB00004460D4602D10121FFF716FD94F80C3888
:104DC000AB4208D1044B1B782BB120460421BDE82F
:104DD0003840FFF779BF38BD28D7FF1F08B5431803
:104DE000490193F996380844002B407A06DA1844B2
:104DF0000121402204F028FDC0B208BD08BD4318BF
:104E0000490193F8963808445AB2807A002AC4BF00
:104E10005843C0B27047FFFF2DE9F04F90464A015A
:104E200000EB02090F464E014946825C0446487871
:104E30008BB010448DF811008878C9788DF8102057
:104E400010449DF850E08DF812000A448DF81320AC
:104E50000425012219F80210FF2908BF05F1FF35CA
:104E600002F1010208BFEDB2042AF3D1284605EB96
:104E7000850188420ADA04AAC5EB020C1CF800C0BE
:104E80000CF10C0C00F802C00130F2E7BEF1000F8B
:104E900002D00EFB05F5EDB2013B042B4BD8DFE849
:104EA00003F0030D182B4000A3195B7CB3FBF5F254
:104EB00005FB12330AAA52FA83F31AE0A3195B7CAA
:104EC000B3FBF5F205FB1233ED1A0AAB53FA85F585
:104ED00024E0A3195B7CB3FBF5F212F0010F05FB94
:104EE00002F2C2EB030308BFC3EB0503DBB20AAA5D
:104EF000134413F8185C20E0A319691E5B7C93FB34
:104F0000F1F2D0074BBFB3FBF5F201FB123305FB07
:104F10001235C3EB0505EDB20AAB1D4415F8185C5C
:104F20000BE02946002007F090F90AAA52FA80F017
:104F300010F8185C01E09DF8105094F8073853B150
:104F4000012194F80628009120462946FFF786FEA5
:104F5000A319987401E0A3199D74534B94F80E287B
:104F60009A5C9B462AB100207F2107F06EF9A319B5
:104F7000987494F81318DFF834A1A3191AF90100F2
:104F8000042190FBF1F1987C01449974D87A94F84B
:104F900015381AF9033000211844FF2204F054FC9C
:104FA00094F80D381BF80330C5B20BB188F0010836
:104FB00099F80730002B33D194F8143899F806008B
:104FC0001AF903300130012103EB4000402204F0C4
:104FD0003BFC94F8D6385AB2002ADABFC3F102017A
:104FE000C9B201218005002A01FB00F0CCBFD9B273
:104FF0000121A7194FEAC10E90FBFEF1002AB96109
:10500000DABFC3F10201C9B20121002ACCBFDBB271
:1050100001238905A219DB0091FBF3F3D3612AE098
:1050200094F8D6984FFA89F3002BD8BFC9F102093A
:1050300039462046D4BF5FFA89F94FF00109FFF7DE
:10504000CDFE4FEA895900FB09FA94F8D6984FFA39
:1050500089F3002B20463946CCBF5FFA89F94FF01F
:105060000109FFF7CCFEA31919FB00F09AFBF0F041
:1050700098614010D861264406F11007B07B737B1D
:10508000B27C0090F07B019094F809180295CDF85D
:105090000C80D4F80009FFF785F87B7801337B702A
:1050A0000BB0BDE8F08F00BF1CD7FF1F0CD7FF1F50
:1050B00070B54318054693F816380C467BB100EBE3
:1050C00041139E79FFF79BFE214616FB00F628460A
:1050D000FFF784FE96FBF0F0C0F3870070BD184622
:1050E00070BD10B500EB4111134601F11002097CAF
:1050F0000129044608D194F80918D0F800099278DB
:10510000BDE81040FFF706BA10BDFFFF044A054B8B
:105110001360054A1360054A136007F093BB00BF94
:10512000D491FF1F03200038D091FF1FCC91FF1FA7
:1051300010B5044607F034FE2060204610BD10B5BF
:10514000044607F02DFE2368C01A10BD13B5194B95
:105150001A680092009A02601B680193019B4360E9
:1051600004460830FFF7E4FF04F11D0000F000FBE7
:1051700004F11F0000F0E0FD04F1200000F0DCFD70
:105180000D4A1346114653F8040B206318686063F8
:105190009068A06351F80C0F496804F13C0303C305
:1051A00052F8140F516804F1440303C3204602B0BF
:1051B00010BD00BFB4D7FF1F3A6F010013B50446FE
:1051C0000C30FFF7B5FF04F12400FFF7B1FF04F145
:1051D0002800FFF7ADFF144B1B680193019B23656B
:1051E00004F15400FFF7B2FF04F1A00004F0CCFB7F
:1051F00004F1F00000F024FE04F58860FDF7BCFC2B
:1052000004F28C40FBF762FC04F5A86000F012FB8E
:1052100004F5B46000F00EFB04F5C260FFF788FFF0
:10522000204602B010BD00BFB4D7FF1F2DE9F04FDC
:105230008DB004468A4689488949DFF848921E465F
:1052400004F15407934604F5B468FBF774F9169B10
:10525000C4F80C36384641465246C4F804A6C4F891
:105260000866FEF7BFF8D9F800306425B3FBF5F304
:105270008DE888003046002110220423FFF7DCFB74
:10528000D9F80030B3FBF5F38DE8880006F604107A
:10529000012110220423FFF7CFFBD9F8003006F5D7
:1052A0009050B3FBF5F38DE88800083002211022FE
:1052B0000423FFF7C1FBD9F8003006F5D850B3FB43
:1052C000F5F58DE8A0000C3003211022042304F230
:1052D0008C4504F1A009FFF7AFFB43464846394629
:1052E00004F5A8628DE86000029404F0A9FB224650
:1052F00004F1F000314600F0C7FD04F58860314646
:10530000FEF700F82046394632465346CDF800B045
:1053100005F0CCFD169B00932846524B3946324689
:10532000FBF7F4FB504B1B78002B00F084804F49B7
:105330004A48FBF700F92846FDF7F9FB2846FDF738
:105340004BFA2846FCF7FCFD0027494908A806F05F
:10535000D0FF0A22394604A807F014F804A908A8C7
:1053600007F089F8434907F08FF801463B48FBF7FF
:10537000D8F804A806F07DFF08A806F07AFF4FF0E1
:1053800000085FFA87FA40F6041000FB08605FFA35
:1053900088F2514608F10108FFF77CFBB8F1040FD1
:1053A000EFD12E483449FBF7C6F84FF000085FFAFA
:1053B00088F12846524608F10108FBF72DFFB8F1A5
:1053C000040FF4D125482D49FBF7B5F894F88C3437
:1053D0001BB12846FCF752FEF8E7294908A806F059
:1053E00088FF0A22394604A806F0CCFF04A908A8C1
:1053F00007F041F81F4907F047F801461748FBF747
:1054000090F804A806F035FF08A806F032FF01372F
:105410004FF4FA7007F0E2FC102F96D194F88C3418
:105420001BB12846FCF72AFEF8E7642007F0D6FCFB
:105430002846FDF7E1FA2846FCF782FD0F222846B0
:105440000021FCF7B3FB2846FBF7E0FB48460121AF
:1054500004F0E0FB0DB0BDE8F08F00BFBCD9FF1F2A
:10546000566F0100C5DAFF1F3DD7FF1F726F0100A5
:10547000C06F0100ED6F0100147001002970010080
:105480003D700100808EFF1F30B504468BB007F0E1
:1054900087FC94F82D3001902BB104F5886042F21E
:1054A0001071FDF771FE01A8FFF749FE42F210737B
:1054B000984219D9414906A806F01BFF01A8FFF739
:1054C0003EFE0A22014602A806F082FF02A906A8B3
:1054D00006F0D1FF01463A48FBF723F802A806F090
:1054E000C8FE06A806F0C5FE07F05AFC44F6206187
:1054F000019004F1A00005F0EBFB01A8FFF71FFEEF
:1055000042F21073984219D92E4906A806F0F1FE0E
:1055100001A8FFF714FE0A22014602A806F058FF70
:1055200002A906A806F0A7FF01462548FAF7F9FFE9
:1055300002A806F09EFE06A806F09BFE07F030FCCF
:10554000019004F5C260FFF7FAFD42F21075A8421F
:105550002CD994F88C344BB304F28C40FCF78EFDBC
:1055600007F01EFCC4F8100601A8FFF7E8FDA842EA
:1055700019D9154906A806F0BCFE01A8FFF7DFFD02
:105580000A22014602A806F023FF02A906A806F097
:1055900072FF01460A48FAF7C4FF02A806F069FE46
:1055A00006A806F066FE07F0FBFB019004F1F00090
:1055B00044F6206103F0E4FA0BB030BD69700100DD
:1055C000BCD9FF1FA2700100DE70010005F0BCBC59
:1055D00005F042BE0346D0F80006D3F8041606F0E4
:1055E00036B9FFFF064B10B5064C1C60064B1C601D
:1055F000064B1C6007F026F9054B1C6010BD00BF70
:10560000E491FF1F03200038DC91FF1FD891FF1F9A
:10561000E091FF1F154B0278F0B51C6844F48064DC
:105620001C604FF00044DC625A630C460246013CA9
:105630000E4D05D05678EF6A0C4B002FFBDA04E0D4
:105640000139EB6A002BFCDA0BE09D6B1F6847F415
:1056500080671F604FF00047DF625E6302F8015B06
:10566000E5E7024B9B6B4354F0BD00BF00C0024016
:10567000054BDA6A12F0F00F18BF9B6B4FF2F00384
:105680001340002BF4D1704700C0024010B5184BF6
:105690001A7802B372B61B78D90707D5154A16498E
:1056A000146809682140154C216011609A0707D5DC
:1056B000134A1149146849682140104C6160116017
:1056C0005B0707D50F4B0C4A196892680A400B49D3
:1056D0008A601A6062B60C4BDA68824207D00B4AC5
:1056E0001A60D8600A4A40F0804018611A6010BD04
:1056F000C4DAFF1F80E100E0ACDAFF1FB8DAFF1F59
:1057000084E100E088E100E000C0024001401F00A9
:1057100000001F80054B4FF00042DA625863DA6ADE
:10572000002AFCDA014B986BC0B2704700C00240FF
:105730000A4B1B788BB1D90703D5094A1168094A6E
:1057400011609A0703D5064A5168074A11605B0742
:1057500003D5034B9A68054B1A607047C4DAFF1FE4
:10576000B8DAFF1F00E100E004E100E008E100E03A
:105770007047FFFF10B500230446017043700846D0
:10578000012107F08BFA2278064B53F832300122C0
:1057900083F88020044B4FF038421A60BDE8104077
:1057A0000AF030BCB4D00100E891FF1F2DE9F341AD
:1057B000174604468846FFF75BFF114B114E1868E9
:1057C000FFF764FF23788DF8067056F83330012513
:1057D00083F8005101A83B0A032108F130088DF835
:1057E00005308DF80480FFF715FF237856F8333025
:1057F00083F88050FFF79CFF02B0BDE8F08100BF46
:10580000E891FF1FB4D00100014B024A1A607047B3
:10581000E891FF1F03200038054BDA6A12F0F00F01
:1058200018BF9B6B4FF2F0031340002BF4D170476D
:1058300000C0024010B5044607F0B2FA6065204689
:1058400010BDFFFF2DE9F04F81469FB090089046B4
:105850009A468B4609F056FD0EF06AFC0446404617
:105860000D4609F04FFD002206460F464E4B2046DE
:10587000294609F0ADFD0B4602463946304609F08F
:10588000F3FB0AF067F82946C6B220460AF062F830
:10589000C3B2BAF1000F05D0BAF1010F0CBF012459
:1058A000032400E0022409EB0B02002109EB0305AD
:1058B00082F80C8082F82C1003277200974095F82C
:1058C0004C10FF43FFB2394004FA02F20A4385F854
:1058D0004C2006A83549019306F00BFD019B02A858
:1058E000194606F03CFD02A906A806F0C4FD3049A1
:1058F00006F0CAFD214680460AA806F030FD0AA936
:10590000404606F0B8FD2B4906F0BEFD1022804649
:1059100095F84C100EA806F035FD0EA9404606F08D
:10592000AAFD254906F0B0FD3146054612A806F04D
:1059300016FD12A9284606F09EFD204906F0A4FD9A
:1059400002220546394616A806F01CFD16A928466F
:1059500006F091FD1A4906F097FD1022054604FA5B
:1059600006F11AA806F00EFD1AA9284606F083FDD6
:1059700001461448FAF7D5FD1AA806F07AFC16A8D5
:1059800006F077FC12A806F074FC0EA806F071FC75
:105990000AA806F06EFC02A806F06BFC06A806F04A
:1059A00068FC1FB0BDE8F08F0000104019710100C5
:1059B0002D71010038710100417101004B7101002E
:1059C00056710100BCD9FF1F2DE9F0410F46044676
:1059D000FFF722FF194B1A4E1868FFF757FE94F88D
:1059E0005C3056F83330012583F8005147F08000D1
:1059F000FFF790FE0020FFF78DFE94F85C3056F81C
:105A0000333083F8805094F85C3056F833300020FF
:105A100083F80051FFF77EFE07460020FFF77AFE6D
:105A200094F85C3056F83330804683F88050FFF7A6
:105A30007FFE47EA082080B2BDE8F081EC91FF1FAD
:105A4000B4D001002DE9F0410F4690460446FFF71F
:105A5000E3FE1A4B1A4E1868FFF718FE94F85C30F4
:105A600056F83330012583F8005107F07F00FFF727
:105A700051FE4046FFF74EFE94F85C3056F8333046
:105A800083F8805094F85C3056F83330002083F867
:105A90000051FFF73FFE000287B20020FFF73AFEF9
:105AA00094F85C3056F83330384387B283F880502E
:105AB000FFF73EFE3846BDE8F08100BFEC91FF1FC6
:105AC000B4D0010070B5164905461648FAF71CFD1A
:105AD000144806F045FB09242E19E1B296F843203C
