:1000000000800020BD01000019E70000E5E60000C7
:10001000E5E60000E5E60000E5E60000E5E60000B4
:10002000E5E60000E5E60000E5E6000019E700006F
:1000300019E70000E5E6000019E70000D5E600003A
:1000400019E7000019E7000019E7000019E70000B0
:1000500019E7000019E7000019E7000019E70000A0
:1000600019E7000019E7000019E7000019E7000090
:1000700019E7000019E7000019E7000019E7000080
:1000800019E7000019E7000019E7000019E7000070
:1000900019E7000019E7000019E7000019E7000060
:1000A00019E7000019E7000019E7000019E7000050
:1000B00019E7000019E7000019E7000019E7000040
:1000C00019E7000019E7000019E7000019E7000030
:1000D00019E7000019E7000019E7000019E7000020
:1000E00019E7000019E7000019E7000019E7000010
:1000F00019E7000099F0000019E70000610B01000A
:1001000019E7000099F5000019E7000019E7000061
:1001100019E7000019E7000019E7000019E70000DF
:1001200019E7000019E7000019E7000019E70000CF
:1001300019E7000019E7000019E7000019E70000BF
:1001400019E7000019E7000019E7000019E70000AF
:10015000E1DC0000F9DC000011DD000029DD000019
:1001600019E70000FDF7000019E7000019E700009B
:1001700019E7000019E7000019E7000019E700007F
:1001800019E7000019E7000019E7000019E700006F
:1001900019E7000019E7000019E7000019E700005F
:1001A00019E7000019E7000019E7000019E700004F
:1001B00019E7000019E70000A9D90000564B4CF2DE
:1001C000205210B51A804DF628121A8000BF00BFC9
:1001D0000EF0A6FA514B4FF010621A60504A9A6026
:1001E000504ADA60A3F53043203B1A6812F480725B
:1001F00004D14D490A604FF4A8521A604B4B1A784B
:10020000110703D51A7842F008021A70484B2A22C7
:100210001A700023474A48499818884204D247492F
:10022000595899500433F5E7454A464B9A424FF0E6
:10023000000302D242F8043BF7E74349434A5958C6
:1002400099500433B3F5DE7FF7D1414B802103F899
:10025000011B40498B42F9D13F4B1A603F4B8A2228
:100260001A70A3F5805324225A70A0221A709A792A
:100270009207FCD59A79D406FCD4394B9A7902F0CE
:100280000C02082AF9D103221A7146225A719A796E
:100290009006FCD5324B9A795106FBD5314A4FF086
:1002A000827111600921516020221A702C4B9B79B8
:1002B00003F00C030C2BF9D12B4B2C4A1A602C4B5E
:1002C0002C4A1A6000225A60072243F8042C2A4A5A
:1002D000C3F80C2D62B60EF0AFFB134B1B68DA07A8
:1002E00005D526480EF0C2FA254B264A1A60264B41
:1002F0001B785B0609D5224C224A2368934204D11D
:100300001E480EF0B3FA0023236016F033FF0EF000
:100310000DFA0EF01BF9FEE70E2005403080044078
:10032000823F04000100002B14D0034002D007409C
:1003300000E00740708DFF1FC091FF1FA40902005D
:10034000C091FF1FC0DDFF1F000000000082FF1FE3
:1003500000E400E05FE400E008ED00E0005006404B
:10036000004006404480044004800440C010050062
:1003700014E000E0BFD401000000202024A36F5946
:100380001CE00340A5C3945A00F00740FFFFFFFFA5
:10039000FFFFFFFFFFFFFFFFFFFFFFFFFFFFFFFF6D
:1003A000FFFFFFFFFFFFFFFFFFFFFFFFFFFFFFFF5D
:1003B000FFFFFFFFFFFFFFFFFFFFFFFFFFFFFFFF4D
:1003C000FFFFFFFFFFFFFFFFFFFFFFFFFFFFFFFF3D
:1003D000FFFFFFFFFFFFFFFFFFFFFFFFFFFFFFFF2D
:1003E000FFFFFFFFFFFFFFFFFFFFFFFFFFFFFFFF1D
:1003F000FFFFFFFFFFFFFFFFFFFFFFFFFFFFFFFF0D
:10040000FFFFFFFFFFFFFFFFFFFFFFFFDEF9FFFF23
:1004100010B5054C237833B9044B13B10448AFF33E
:1004200000800123237010BDC091FF1F0000000059
:10043000A409020008B5064B1BB106480649AFF3F4
:1004400000800648036813B1054B03B1984708BD07
:1004500000000000A4090200C491FF1FC091FF1F0B
:10046000000000000369C268934210B509D2826897
:100470005C1C0461D154826803690021D1540120BD
:1004800010BD002010BD44F2040210B58358CC18F2
:10049000B4F5804F07D8033121F00301194481508E
:1004A0001844043010BD002010BD18B111B101393D
:1004B0000068FAE7704738B504460D4634B128465F
:1004C000616816F08DFF08B12468F7E7204638BD53
:1004D00038B5044608460D4616F0AFFF23680246BD
:1004E0005B6820462946984738BD38B504460DF06C
:1004F00038FC054620460DF055FC284438BD38B57B
:100500000446FFF7E5FF054620460DF04BFC284466
:1005100038BD38B58368144642680546E0189042F5
:1005200002D993420AD2D41A28682246184412F0FB
:10053000FFFBAB682344AB60204638BD002038BDCC
:1005400010B504460068FFF7C3FF63681844606095
:1005500010BD30B587B000228DF815200B4605AAD6
:100560000A25B3FBF5F405FB14333033114602F8CA
:1005700001392346002CF3D1FFF7E2FF07B030BD6D
:1005800010B50446006803681B6898476368184400
:10059000606010BD70B504460D4619B91249FFF7E9
:1005A000CFFF70BD2221FFF7EBFF013D15F8012FB2
:1005B0007AB10E4B13F8026C86B1023313F8031CA8
:1005C0009142F7D120465C21FFF7DAFF2046314601
:1005D00006E020462221FFF7D3FF70BD20461146DA
:1005E000FFF7CEFFE2E700BFD87C0100DF7C01000F
:1005F00008B503280AD8DFE800F0021105074FF01C
:100600007E5008BD064808BD064808BD0438C0B283
:10061000FFF7EEFF044911F007F908BD034808BDD4
:100620000AD7233C6F12833A17B7D138CDCCCC3DD3
:100630002DE9F041054608460C46174615F0EEFC3C
:1006400010B92846494911E02046002111F08AFAE4
:1006500028B128462D21FFF793FF04F100442046DE
:1006600015F0DCFC012805D141492846FFF768FF59
:10067000BDE8F08120463F4911F092FA20B92046AA
:100680003D4911F06FFA00B300262046002111F019
:100690005FFA68B920464FF07E5111F063FA38B125
:1006A0002046364911F0C0F8013EB6B20446ECE7E8
:1006B0002046324911F074FA40B120462F4911F01A
:1006C00067F90136B6B20446F2E706463846FFF748
:1006D0008FFF4FF07C5111F0A7F80146204610F033
:1006E0009BFF044611F08CFA804611F045F8014654
:1006F000204610F08FFF414604462846FFF729FFA9
:100700001FB128462E21FFF73BFFCFB11B492046E2
:1007100011F08AF8044611F073FA5FFA80F8404647
:1007200011F02AF80146204610F074FF08F130015C
:100730000446C9B22846013FFFF722FFFFB2E4E7B3
:1007400034B2002C06DA28460D49FFF7F9FE284698
:10075000614206E03EB128466521FFF711FF2846B9
:100760002146FFF7F6FEBDE8F08100BFEC7C0100FA
:10077000F07C010000007A446F12833A00002041AF
:10078000F97C0100024608B5084619B10B6811460C
:100790001B68984708BDFFFF38B5084C236813F065
:1007A000010509D120460DF0DAFF28B1044B20469F
:1007B0001D605D600DF0D9FF014838BDF091FF1F4D
:1007C000DC91FF1F08B54068FFF775FE20B1037A82
:1007D000062B01D1C06808BDFFF7DEFF08BDFFFF93
:1007E00038B5084C236813F0010509D120460DF0F7
:1007F000B6FF28B1044B20461D605D600DF0B5FFCB
:10080000014838BDEC91FF1FE491FF1F03780D2BC9
:1008100009D003D8093B012B23D804E0202B02D0B8
:100820002F2B02D070470130F0E743782A2B02D0FB
:100830002F2B0DD07047831C1A7818460133002ADD
:10084000E4D02A2AF8D11A782F2AF5D10230DDE730
:10085000831C184613F8012B002AD7D00A2AF8D196
:10086000D4E7704738B5044600680D46FFF7CEFF61
:100870000378AB4205D10130FFF7C8FF20600120AB
:1008800038BD002038BDFFFF70B54268846813781A
:10089000272B01D0222B27D15178551C51B39942D7
:1008A00001D1951C26E05C290BD1951C9178154A45
:1008B00016782EB18E4201D1517801E00232F7E76D
:1008C000C1B104F8011B2A46E6E723F020014139B3
:1008D000192905D92B2B03D0A3F12D01012909D802
:1008E00004F8013B12F8013FA3F130010929154634
:1008F000F6D9EAE7002304F8013B83684560846089
:10090000184670BDE17C0100027838B505460C46FA
:10091000072A3CD8DFE802F041241F302B27041BB4
:10092000456808465B21FFF72BFE6D682DB1281D39
:100930002146FFF7E9FF2D6825B920465D21FFF725
:100940001FFE38BD20462C21FFF71AFEEFE7406856
:1009500000F028F838BD08466968FFF71BFE38BD6F
:100960000846696810E008462D21FFF709FE204679
:100970006968FFF7EEFD38BD4168084B084A20461C
:1009800000290CBF11461946FFF7DAFD38BD083AB9
:100990000846D2B26968FFF74BFE38BDFC7C010007
:1009A000017D010070B505460C4608467B21FFF726
:1009B000E7FD6D687DB12E46204656F8041FFFF70F
:1009C000E9FD20463A21FFF7DBFD301D2146FFF708
:1009D0009BFF2D6825B920467D21FFF7D1FD70BD15
:1009E00020462C21FFF7CCFDE5E710B50446214653
:1009F0000820FFF7C7FE18B100230460436010BD54
:100A0000FFF7CAFE10BD10B5044621460820FFF7C7
:100A1000B9FE18B100230460436010BDFFF7E0FE8B
:100A200010BD70B504460DF0D3FFE0640DF0D0FFAB
:100A300025460023206545F8583F4FF48A700DF095
:100A4000B5FE294606460CF09DFEE66604F17400EC
:100A500012F06EFF04F1940012F06AFF204670BDA0
:100A6000F8B504460D46114811491F461646FFF7D2
:100A700046FD069BA5646665A7662367162012F0EF
:100A800075FC18B909480B49FFF739FD002363705D
:100A9000A370E370E21801330021402B9171F9D16A
:100AA00005490248FFF72BFDF8BD00BFF0D8FF1F36
:100AB000077D0100357D01005B7D0100002138B517
:100AC0000A46054601F088FB02241E4B23442146BA
:100AD000284633F8022C023401F07EFB0A2CF4D1B4
:100AE000194B23442146284633F80A2C023401F0DE
:100AF00073FB122CF4D1154B23442146284633F8BE
:100B0000122C023401F068FB1A2CF4D1104B234450
:100B10002146284633F81A2C023401F05DFB2A2CBA
:100B2000F4D10C4B23442146284633F82A2C0234B6
:100B300001F052FB3A2CF4D107490848FFF7DFFCDB
:100B400038BD00BF7C8EFF1F068FFF1F8C8EFF1FDE
:100B5000528EFF1F6A8EFF1F967D0100F0D8FF1F87
:100B600038B50021054601F049FB4FF6FF73984266
:100B700018BF022418D128492848FFF7C0FC26498D
:100B80002648FFF7BCFC24492448FFF7B8FC22495B
:100B90002248FFF7B4FC20492048FFF7B0FC1E496B
:100BA0001E48FFF7ACFC38BD2146284601F026FB65
:100BB0001B4B234402340A2C23F8020CF4D12146A7
:100BC000284601F01BFB174B23440234122C23F858
:100BD0000A0CF4D12146284601F010FB124B2344A5
:100BE00002341A2C23F8120CF4D12146284601F0C5
:100BF00005FB0E4B234402342A2C23F81A0CF4D1A3
:100C00002146284601F0FAFA094B234402343A2CD3
:100C100023F82A0CF4D138BDC07D0100F0D8FF1FA5
:100C20007C8EFF1F068FFF1F8C8EFF1F528EFF1FB3
:100C30006A8EFF1F0803704710B504460C20216818
:100C4000FFF7A0FD10B100230360037163682BB1AF
:100C50001A680AB11346FBE7186010BD606010BD4A
:100C600010B50C46FFF7E8FF20B12378836004221B
:100C70000271012010BD10B50C46FFF7DDFF48B131
:100C800094F90030002BAEBF04225B4205220271B2
:100C90008360012010BD10B5044610202168FFF7C5
:100CA00071FD10B100230360037263682BB11A68F1
:100CB0000AB11346FBE7186010BD606010BD2DE956
:100CC000F3410446074654F8040BFFF79CFE7B21D2
:100CD00006462046FFF7C6FD002833D020467D217A
:100CE000FFF7C0FD88BB3846FFF7CEFD804648B30E
:100CF00020463A21FFF7B6FD20B302AD0023384667
:100D0000694605F8083D00F024F8D8B170684146FE
:100D1000FFF7D1FB28B93046FFF7BDFF90B1C0F80F
:100D2000048000F1080395E8030083E803002046EF
:100D30007D21FFF797FD40B920462C21FFF792FD5A
:100D40000028D0D1FFF74CFD00E0304602B0BDE8EE
:100D5000F08170B50446007B0D46002834D0013880
:100D600020736068FFF752FD606003785B2B02D050
:100D70007B2B07D012E0204600F027F803685BB118
:100D8000062305E02046FFF79AFF036823B10723F7
:100D900068602B70012014E0184612E0272B03D066
:100DA000223B5E425E4100E001262046FFF76CFDDB
:100DB00038B1012216B102232B7000E02A7068605E
:100DC0001046237B0133237370BDF7B504460746F5
:100DD00054F8040BFFF709FE5B2106462046FFF797
:100DE00041FD08B320465D21FFF73CFDF8B902AD97
:100DF00000233846694605F8083DFFF7AAFF98B179
:100E00003046FFF719FF78B1031D95E8030083E82A
:100E1000030020465D21FFF725FD40B920462C2127
:100E2000FFF720FD0028E2D1FFF7B6FC00E03046D6
:100E300003B0F0BD70B5054640680E461446FFF796
:100E40003AFB20B92846FFF726FF50B146602368D9
:100E5000002B08BF00240CBF002306230372C460CC
:100E6000012070BD2DE9F04FADF5804D8FB00446E7
:100E70008DF80E308D4B0C930CA844F204038DF8C2
:100E80000F2000220291C250FFF7BDFD814600688D
:100E900018B9FFF781FC054607E0FFF7A6FD0546F8
:100EA000834948462A46FFF7C5FF9DF80F20636D2A
:100EB00040F6040606FB023101F205712846FFF7F1
:100EC000CFFE9DF80F20636D06FB023101F2117118
:100ED0002846FFF7C5FE9DF80F20636D06FB023123
:100EE00001F20C712846FFF7BBFE9DF80F20636DE1
:100EF00006FB023101F20D712846FFF7B1FE0DF13C
:100F00000F012846FFF7ACFE0DF10E012846FFF752
:100F1000A7FE9DF80F20636D06FB023101F2E2711E
:100F20002846FFF7A8FE9DF80F20636D06FB0231EF
:100F300001F212712846FFF79EFE9DF80F20636DA7
:100F400006FB023101F213712846FFF794FE9DF86B
:100F50000F20636D06FB023101F214712846FFF782
:100F60008AFE9DF80F20636D06FB023101F21571B8
:100F70002846FFF780FE9DF80F20636D06FB0231C7
:100F800001F216712846FFF76BFE9DF80F20636D86
:100F900006FB023101F217712846FFF761FE9DF84A
:100FA0000F20636D06FB023101F5E3612846FFF770
:100FB00057FE9DF80F20636D06FB023101F2197197
:100FC0002846FFF74DFE9DF80F20636D06FB0231AA
:100FD00001F21A712846FFF743FE9DF80F20636D5A
:100FE00006FB023101F21B712846FFF739FE9DF81E
:100FF0000F20636D06FB023101F21C712846FFF7DA
:101000002FFE9DF80F20636D06FB023101F2047183
:101010002846FFF725FE9DF80F20636D06FB023181
:1010200001F207712846FFF71BFE9DF80F20636D44
:1010300006FB023101F5E1612846FFF711FE9DF83C
:101040000F20636D06FB023101F209712846FFF79C
:1010500007FE9DF80F20636D06FB023101F20A7155
:101060002846FFF7FDFD9DF80F20636D06FB02315A
:10107000284601F20B71FFF7F3FDD9F8000018B90B
:10108000FFF78AFB834607E0FFF7AFFC8346094979
:1010900048465A46FFF7CEFE4FF0000ADBF8000044
:1010A00050B9FFF779FB054619E000BFD07C01007D
:1010B000EB7D0100119B0100FFF797FC05465846A8
:1010C000FFF7BAFD58B12B68002B019B18BF2B46C8
:1010D0000193019981600CBF002306230371284608
:1010E000FFF7AAFD18B104230371C0F808A09DF80A
:1010F0000F20636D40F604061C2707FB0AF706FB6A
:10110000023139442846FFF7ABFD9DF80F20636D8F
:10111000791C06FB023319442846FFF7A1FD9DF810
:101120000F20636DB91C06FB023319442846FFF7F4
:1011300097FD9DF80F20636DF91C06FB02331944DF
:101140002846FFF78DFD9DF80F10636D06FB0133F8
:10115000D91904312846FFF783FD9DF80F10636D00
:1011600007F1080806FB013303EB080104312846A8
:10117000FFF781FD9DF80F10636D06FB0133D91950
:1011800005312846FFF76CFD9DF80F10636D06FBD7
:101190000133D91906312846FFF762FD9DF80F206B
:1011A000636D06FB0233D91907312846FFF758FD56
:1011B0009DF80F20636D06FB023141442846FFF77E
:1011C0004FFD9DF80F10636D06FB013303EB080123
:1011D00001312846FFF744FD9DF80F10636D06FBB3
:1011E000013303EB080102312846FFF739FD9DF872
:1011F0000F10636D06FB013303EB08010531284630
:10120000FFF72EFD9DF80F10636D06FB013303EB16
:10121000080106312846FFF723FD9DF80F10636D86
:1012200006FB013303EB080107312846FFF718FDE1
:101230009DF80F20636D06FB023606EB0801284679
:1012400003310AF1010AFFF70BFDBAF1400F7FF4F9
:1012500025AF07AB0B4907910299996040F6FF71E2
:10126000D9600299059300220A701A71484605A9AF
:101270001A610692FFF796FB0DF5804D0FB0BDE8A1
:10128000F08F00BFC07C01002DE9F04788B0044614
:101290008A46914600F045FC0546EEB2A3199B79BB
:1012A0001BB1204600F0DEFCF7E70125E5700DF0EC
:1012B0008FFB2065384816F0A5F8294607464FF4FD
:1012C000805015F037FF80464146204652464B4637
:1012D000FFF7C8FD11F0D8FF0028FBD004A839465D
:1012E00012F0EEF804AA04F158030DF1180E154699
:1012F00003CD7545186059602A4603F10803F6D1FD
:1013000028681860AA889A80A06D50BB2349244899
:10131000FFF7F5F8234904A80CF00DFE394668469E
:101320000CF009FE694604A80CF0B5FE01461C4805
:10133000FFF7DBF868460CF0BEFD04A80CF0BBFD1F
:1013400017481649FFF7DBF8404615F041FF3846CD
:1013500015F03EFF0023E3700123237008B0BDE8C1
:10136000F0873303E56D236603F58052AA4210D956
:10137000AB4208D2ED1A18442A46414611F0C4FD8A
:10138000236E1D44256620463146012200F0C6FB2F
:10139000DAE74FF48055EEE7F47D0100FD7D0100B2
:1013A000F0D8FF1F0C7E010070B5054616460024DC
:1013B000064B1B782341DB0704D52846E1B2325D9A
:1013C000FFF762FF0134042CF2D170BD7A8EFF1F4B
:1013D00010B54068FFF769F800B30379052B13D8FF
:1013E000DFE803F0160505030303806815E0846851
:1013F00084B10B48214615F0F3FF68B12046002167
:101400000A2216F03DF908E0806810F0F9FB04E0CC
:10141000002002E0204600E00120C0B210BD00BF65
:10142000FC7C010010B54068FFF73FF818B3037962
:10143000052B16D8DFE803F01908080303058068B8
:1014400018E08068404215E0846884B10B4821466A
:1014500015F0C6FF68B1204600210A2216F08AF86E
:1014600008E0806810F0A6FB04E0002002E02046BF
:1014700000E00120C0B240B210BD00BFFC7C010002
:1014800008B54068FFF711F820B10379062B01D1A8
:10149000806808BDFFF780F908BDFFFF2DE9F04F18
:1014A000ADF5804D99B0B74B169318AF8A4644F20C
:1014B000040316A94FF0000847F8181D41F80380EF
:1014C000B14BBA60424518BF134605464FF00A09B2
:1014D00038467B6087F80C90FFF7F1FB40F6040478
:1014E0006B6DAA4904FB0AF4064603EB040BFFF7F5
:1014F00069F94146FFF76CFF8BF805076B6DA3494F
:10150000304603EB0408FFF75DF90121FFF760FFA8
:1015100088F811076B6D9D49304603EB0408FFF70F
:1015200051F90221FFF754FF88F80C076B6D9749BA
:10153000304603EB0408FFF745F90321FFF748FFA6
:1015400088F80D076B6D9149304603EB0408FFF7EF
:1015500039F90421FFF73CFF88F810076B6D8B49C0
:10156000304603EB0408FFF72DF90521FFF730FFA4
:1015700088F80F076B6D8549304603EB0408FFF7C9
:1015800021F90621FFF74EFF88F8E2076B6D7F49CE
:10159000304603EB0408FFF715F90721FFF742FF78
:1015A00088F812076B6D7949304603EB0408FFF7A2
:1015B00009F90821FFF736FF88F813076B6D7349A7
:1015C000304603EB0408FFF7FDF80921FFF72AFF77
:1015D00088F814076B6D6D49304603EB0408FFF77C
:1015E000F1F84946FFF71EFF88F815076B6D67494C
:1015F000304603EB0408FFF7E5F80B21FFF7E8FEA0
:1016000088F816076B6D6149304603EB0408FFF755
:10161000D9F80C21FFF7DCFE88F817076B6D5B49E2
:10162000304603EB0408FFF7CDF80D21FFF7D0FE9D
:1016300088F818076B6D5549304603EB0408FFF72F
:10164000C1F80E21FFF7C4FE88F819076B6D4F49EA
:10165000304603EB0408FFF7B5F80F21FFF7B8FE9B
:1016600088F81A076B6D4949304603EB0408FFF709
:10167000A9F81021FFF7ACFE88F81B076B6D4349F2
:10168000304603EB0408FFF79DF81121FFF7A0FE99
:1016900088F81C076B6D3D49304603EB0408FFF7E3
:1016A00091F81221FFF794FE88F804076B6D374913
:1016B000304603EB0408FFF785F81321FFF788FE97
:1016C00088F807076B6D3149304603EB0408FFF7D4
:1016D00079F81421FFF77CFE88F808076B6D2B4919
:1016E000304603EB0408FFF76DF81521FFF770FE95
:1016F00088F809076B6D2549304603EB0408FFF7AE
:1017000061F81621FFF764FE88F80A076B6D1F4920
:10171000304603EB0408FFF755F81721FFF758FE92
:101720001B4988F80B073046FFF74CF86B6D2344D4
:10173000804693F8053713BB4FF003091549384627
:101740000CF0F9FB51460EA80CF02BFC0EA9384604
:101750000CF0A1FC10490CF0A7FC01460F48FEF765
:10176000C4FE0EA80CF0A7FB38460CF0A4FBB9F1A0
:101770000109E3D16B6D2344102283F8052700276C
:101780000EE000BFD07C01003B810100EB7D010039
:10179000119B0100277E0100307E0100F0D8FF1F61
:1017A00039464046FFF76CFE0121FFF711FE39462E
:1017B00003904046FFF764FE0221FFF709FE394619
:1017C00004904046FFF75CFE0321FFF701FE394617
:1017D00005904046FFF754FE0421FFF7F9FD394616
:1017E00006904046FFF74CFE0521FFF7F1FD394614
:1017F00007904046FFF744FE0621FFF713FE3946E7
:1018000008904046FFF73CFE0721FFF7E1FD39460F
:1018100009904046FFF734FE0821FFF7D9FD39460D
:101820000A904046FFF72CFE0921FFF7D1FD39460B
:101830000B904046FFF724FE0A21FFF7C9FD394609
:101840000C904046FFF71CFE0B21FFF7C1FD394607
:101850000D904046FFF714FE0C21FFF7B9FD394605
:1018600084464046CDF808C0FFF70AFE0D21FFF779
:10187000AFFD394683464046FFF702FE0E21FFF7D3
:10188000A7FD394682464046FFF7FAFD0F21FFF7D4
:101890009FFD394681464046FFF7F2FD1021FFF7D4
:1018A00097FD394600904046FFF7EAFD0021FFF71B
:1018B0008FFD696D039A1C23214458430B180A5469
:1018C000049A5A70059A9A70069ADA70079A1A71F1
:1018D000099A5A710A9A9A710B9ADA710C9A1A72C9
:1018E0000D9A5A720137009ADDF808C0DA72402F5B
:1018F000089A83F80AC01A7383F80DB083F80EA013
:1019000083F80F907FF44CAF3068003018BF01208F
:101910000DF5804D19B0BDE8F08F00BF2DE9F047FF
:10192000044688B054480F46914615F06BFD0546B5
:1019300011F0AAFC20B951495148FEF7E0FDF7E744
:10194000284611F03DFEC8B104A8294611F0B8FDA3
:1019500004F1580304AA0DF1180A9846164603CE5E
:10196000564518605960324603F10803F6D13068D5
:101970001860B2889A80A36D2BB95DE0284615F0F7
:1019800027FC012075E04FF4805015F019FC394612
:1019900006464A46204600F0C4F8C0B2000320665E
:1019A00031464FF480524046FEF7B3FD204639469B
:1019B0003246FFF773FD002836D1304615F008FC9B
:1019C00004A8294611F07CFD04AA43469646BEE8C9
:1019D0000300D64518605960724603F10803F5D13B
:1019E0001068186092889A8026492548FEF787FD7E
:1019F00039464A46204600F094F8C0B200032066FB
:101A000031464FF480524046FEF783FD204639466A
:101A10003246FFF743FD38B931461948FEF76FFDEE
:101A200017481949FEF76BFD304615F0D1FB2846E3
:101A300015F0CEFB00201CE0144904A80CF07BFA42
:101A4000294668460CF077FA694604A80CF023FB97
:101A50000F490CF029FB01460948FEF746FD684690
:101A60000CF029FA04A80CF026FA284615F0B0FB71
:101A7000022008B0BDE8F0874A7E0100527E0100D6
:101A8000F0D8FF1F657E0100D07E0100407F01007D
:101A90007D7F01002DE9F04106460D469046002469
:101AA00048FA04F3DB0710D5E7B2304639462A4638
:101AB000FFF734FF012808D1736D40F6040000FBE6
:101AC000043029463A4602F083FE0134042CE7D163
:101AD000014B1D70BDE8F08170D6FF1F13B9044B98
:101AE0001B780BB9FFF7D6BF024B1970704700BFC8
:101AF0005CD6FF1F3DD6FF1F044A054B1360054A05
:101B00001360054A13600CF0A7BC00BFFC91FF1FD7
:101B100003200038F891FF1FF491FF1F01448A71E0
:101B2000704701EB82007047F0B504468DB047481E
:101B300015F068FC054611F043FD00282ED14449FC
:101B400004A80CF0F8F9294668460CF0F4F9694647
:101B500004A80CF0A0FA3F490CF0A6FA0A220646A7
:101B60004FF4802108A80CF02FFA08A930460CF099
:101B700092FA01463848FEF7B8FC08A80CF09BF929
:101B800068460CF098F904A80CF095F911F062FC85
:101B90004FF480210246284611F01EFD284615F01C
:101BA00017FB2E4815F02EFC064611F009FDF0B982
:101BB00008A82B490CF0BFF9314604A80CF0BBF97A
:101BC00004A908A80CF067FA01462348FEF78DFC2B
:101BD00004A80CF070F908A80CF06DF911F03AFCAB
:101BE0004FF480210246304611F0F6FC18E008A8B8
:101BF000314611F065FC04F1580308AA0DF1280ED6
:101C00001F46154603CD7545186059602A4603F1F5
:101C10000803F6D128681860AA889A80A36D7BB95A
:101C2000304615F0D5FA11F02FFB0028FBD0002329
:101C300084F846306370204600F092FA0DB0F0BD93
:101C400000232366384611F009FEE9E74A7E0100C9
:101C5000907F0100A57F0100F0D8FF1FF47D0100F7
:101C6000AD7F01002DE9F04FC6788DB004462EB14E
:101C70000320C3E1731C402B04D01E46A519AB7989
:101C8000002BF7D00CF0A4FEE36C4CF25032C01ADB
:101C9000904240F20281AB4815F0B4FB8046AA485E
:101CA00015F0B0FB074611F0EFFA002800F0C780EE
:101CB0004FF48050012115F03DFAAB79F6B2013BAB
:101CC00006F0030A8146032B00F2B680DFE803F03A
:101CD000022C89B208A8394611F0F2FB04F158032E
:101CE00008AA0DF1280C9A469646BEE80300E64580
:101CF00018605960724603F10803F5D11068186046
:101D000092889A80A36D002B00F0C880314620464F
:101D1000FEF790FF2066504611F0B6FD0223AB712E
:101D20000CF056FEE06487E008A8414611F0C8FBBD
:101D300008AA04F158030DF1280C9646BEE80300EA
:101D4000E64518605960724603F10803F5D1106842
:101D5000186092889A80A36D002B40F0B5807B4973
:101D600004A80CF0E8F894F8461068460CF019F94D
:101D7000694604A80CF08FF975490CF095F95146A5
:101D8000834608A80CF00DF908A958460CF083F911
:101D900001467048FEF7A9FB08A80CF08CF86846CD
:101DA0000CF089F804A80CF086F808A8394611F060
:101DB00087FB08AA04F158030DF1280C9646BEE8EB
:101DC0000300E64518605960724603F10803F5D137
:101DD0001068186092889A80A36D002B40F0908064
:101DE000BEE008A8414611F06BFB04F1580308AAB5
:101DF0000DF1280C9B469646BEE80300E6451860A8
:101E00005960724603F10803F5D110681860928892
:101E10009A80A36D002B00F0CA8031462046FEF761
:101E200009FF2066584611F02FFD0CF0D1FD042368
:101E3000E06400E00023AB71484615F0C9F938466C
:101E400015F0C6F9404615F0C3F900231D46E21807
:101E500092790AB10135EDB20133402BF7D12378E5
:101E6000DBB1D5B93C4908A80CF065F80CF0B0FD21
:101E7000216D0A22411A04A80CF0CCF804A908A884
:101E80000CF009F901463348FEF72FFB04A80CF0CB
:101E900012F808A80CF00FF82570AFE004A82B4941
:101EA0000CF049F894F8461068460CF07AF8694648
:101EB00004A80CF0F0F829490CF0F6F8394605466C
:101EC00008A80CF038F887E020463146FEF7B2FE4D
:101ED000E36D206600F580529A420ED99842BFF415
:101EE00064AFC0EB030BA36D494618445A4610F08B
:101EF0001FFF236E5B44236657E74FF4805BF2E7D6
:101F000031462046FEF796FEE66D206600F58053CA
:101F1000B34213D9B04209D2361AA36D32461844DF
:101F2000494610F0F1FF236E1E4426660CF050FD6A
:101F3000E0640323AB71002363707DE74FF48056A8
:101F4000EBE700BFF47D01004A7E0100DC7F010069
:101F50002D800100F0D8FF1FC37F0100FF7F01002B
:101F600004A828490BF0E7FF94F8461068460CF0E7
:101F700018F8694604A80CF08EF823490CF094F880
:101F80005146064608A80CF00CF808A930460CF09B
:101F900082F801461D48FEF7A8FA08A80BF08BFF4F
:101FA00068460BF088FF04A80BF085FFC1E71549D0
:101FB00004A80BF0C0FF94F8461068460BF0F1FF40
:101FC000694604A80CF067F811490CF06DF8514609
:101FD000054608A80BF0E5FF08A928460CF05BF8B9
:101FE00001460A48FEF781FA08A80BF064FF68462C
:101FF0000BF061FF04A80BF05EFF1DE70DB0BDE81C
:10200000F08F00BFDC7F01005F800100F0D8FF1F70
:1020100092800100044A054B1360054A1360054A8B
:1020200013600CF019BA00BF0892FF1F032000389C
:102030000492FF1F0092FF1F08B5FEF749FA08BD82
:102040000A2200230BF0BEBE70B506680446304677
:102050000D460CF045FA854203D0304629460CF077
:1020600053FA204670BDFFFF2DE9F04186B004A869
:1020700011F048F8304D04A811F056F92B68009380
:10208000DDF80080044600284FD02C492C48FFF78B
:10209000D3FF21462A48FFF7D3FF2A492848FEF7F5
:1020A0002EFA29492648FEF72AFA28492448FEF73D
:1020B00026FA11F063F82B680193019E002411F0B9
:1020C000E3F80746A8B92B680293029B9B1BB3F564
:1020D0007A7FF4D901341A481D49E4B2FFF7ACFF06
:1020E0003B2C06F57A76EAD915480BF05BFE3C46A8
:1020F000E5E714B112480BF055FE16491048FEF7FB
:10210000FEF92B680393039B13490D48C8EB0308A2
:10211000FFF792FF4FF47A71B8FBF1F10848FFF72F
:102120008FFF07480D49FEF7EAF94FF47A700CF07B
:102130006DFC06B0BDE8F081E8D6FF1FC580010048
:10214000F0D8FF1FD7800100DF800100F980010077
:10215000CE7E01000F8101001F8101002F8101004F
:1021600070B51A4B002292B006461A8002A8402190
:1021700001AA11F015FB30B3002402A815F05DF997
:10218000C0F11400844205D211481249FFF754FFF0
:102190000134F2E700244FF4805015F011F80546A1
:1021A000346629465A2206F15800FEF7B2F904F5C2
:1021B00080540023284685F85B3015F009F8B4F503
:1021C000802FE8D1D2E712B070BD00BFFAD9FF1F4F
:1021D000F0D8FF1F0C82010073B502AC164644F81C
:1021E000041D0D462046D1B2FFF72EFF01352046D3
:1021F000310A0195FFF728FF02B070BD38B50846D7
:102200000C460CF06DF90546601C0CF069F905EB05
:10221000002080B238BD13B5002402A8FF2140F889
:10222000044D0134FFF710FFB4F5006FF5D14FF402
:10223000FA700CF0EBFB02B010BDFFFF044A054B37
:102240001360054A1360054A13600CF005B900BF1E
:102250001492FF1F032000381092FF1F0C92FF1FE3
:1022600037B504460CF0B4FB324BA0601B680193F9
:10227000019BE3601721D223052204F1100010F026
:102280003EF80021172204F124000CF001FA01238A
:1022900084F82430022384F82530032384F8263080
:1022A000042384F82730062384F82830072384F891
:1022B0002930082384F82A30092384F82B300B2393
:1022C00084F82C300C2384F82D300D2384F82E3024
:1022D0000E2384F82F30102384F83030112384F833
:1022E0003130122384F83230132384F8333005233D
:1022F00084F835300A2384F836300F2384F83730D9
:102300000D4B03F1100204F13B01104653F8045B3E
:1023100041F8045B9342F9D10368C4F84B30074B92
:102320001A889B78A4F84F20204684F8513003B0D7
:1023300030BD00BFE8D6FF1F4E840100628401005B
:1023400037B505460024174B28461B7850F8102B4C
:1023500040F6040101FB0422A34205EB040392F8BA
:102360001D2793F84B100CD122B10023202200939B
:1023700001920AE07F234FF0400E8DE8084013469B
:1023800008E022B10023009301937F2202E0009233
:1023900001927F2301340FF0C8FF042CD3D103B086
:1023A00030BD00BF44D6FF1FF7B5054600F110064B
:1023B0000446601BC0B26F6808F07EFC3B5C94F87A
:1023C0003B1033B10022FF238DE80C00304613464A
:1023D00003E0009301933046402201340FF0A5FF43
:1023E000B442E6D1284603B0BDE8F040FFF7A8BFED
:1023F000C943CAB2542A09D8A2EB8200013802EBC1
:1024000042020021C0B2D2B20B4618E0A92A0BD872
:10241000553AD2B202EB4201A2EB8202013A00200D
:10242000C9B2D2B203460AE05632D2B202EB42003F
:10243000A2EB8202511E0022C0B2C9B213460FF0B5
:10244000CABFFFFF2DE9F341044600F1100605461F
:10245000DFF8AC80236898F8000040F6040707FB1B
:10246000003002F06FF8291B01EB0010C1B22368A5
:1024700098F8000007FB003090F803378B4203D137
:1024800095F83B10FF2207E01C2303FB01035B7957
:102490004BB995F83B100122009201923046134649
:1024A0000FF043FF0DE0002295F83B7002F056FA62
:1024B00001462046FFF79CFF3946024630460FF0A2
:1024C0005CFF0135B542C3D10C4B1E78204636B1B6
:1024D0004021FFF78DFF00210246284605E0FF213D
:1024E000FFF786FF3146024628460FF046FF20469A
:1024F00002B0BDE8F041FFF723BF00BF5CD6FF1F6D
:1025000044D6FF1F2DE9F04F684A694D136889B022
:10251000044605930598E368C01A664B1968B5FB35
:10252000F1F188429046994603D913680693069BB9
:10253000E36004F110052646371BFFB2DFF888B1CF
:10254000384608F0B9FB9BF80020236840F6040ADF
:102550000AFB023393F80327824206D17F22FF232E
:1025600096F83B108DE80C000EE03846039308F017
:10257000A3FB039B1C2202FB003043794BB90122D1
:1025800096F83B1000920192284613460FF0CDFEBC
:102590001BE023689BF8002096F83BC0CDF80CC0E8
:1025A00038460AFB023A08F087FB002201465046F3
:1025B00002F0D4F901462046FFF71AFFDDF80CC0FF
:1025C0000246614628460FF0D8FE384608F074FBF4
:1025D000394B1B7883420CD1D8F800300793079A07
:1025E000E3683649D21AD9F80030B1FBF3F39A42C6
:1025F00050D30136AE429FD1314B1E78204636B1C2
:102600004021FFF7F5FE00210246284605E0FF21A4
:10261000FFF7EEFE3146024628460FF0AEFE294B8C
:102620001B78032B30D8DFE803F00205111D20468C
:10263000FF2101E02046BF21FFF7DAFE1521024607
:1026400028460FF09AFE20467F2116E07F21204683
:10265000FFF7CEFE1521024628460FF08EFE2046DB
:10266000BF210AE07F212046FFF7C2FE1521024666
:1026700028460FF082FE2046FF21FFF7B9FE162103
:10268000024628460FF079FE2046FFF759FE09B0B2
:10269000BDE8F08FFF22002396F83B1028468DE816
:1026A0000C0013460FF041FEA3E700BFE8D6FF1F62
:1026B000808D5B00888EFF1F66D6FF1FC0C62D0071
:1026C0005CD6FF1F24D6FF1F44D6FF1F2DE9F04F15
:1026D000054685B00024734B1A78A24205EB04032B
:1026E00005F110060BD12846402193F84B70FFF7F7
:1026F0007FFE3946024630460FF03FFE08E00022DA
:1027000093F84B1000920192304613460FF00DFEE5
:102710000134042CDFD12C46671BFFB2DFF8849113
:10272000384608F0C9FA4B4640F604081A782B6878
:1027300008FB023A9AF80327824238463FD108F054
:10274000BBFA4FF01C0B0BFB00A04379012B08D107
:10275000FF22802394F83B1030468DE80C000022C5
:102760002BE02B6899F80020384608FB023A08F065
:10277000A3FA0BFB00A04379022B06D10023802291
:1027800094F83B10009301926CE02B6899F80020BC
:10279000384608FB023808F08FFA0BFB008094F8EB
:1027A0003B104379032B04D1002280238DE80C00D9
:1027B0006DE0FF22009201923046134669E008F076
:1027C0007BFA394B1B78834216D1384B94F83B7017
:1027D0001B680393039A0523B2FBF3F3FF2293FBD9
:1027E000F2F299182846C9B2FFF702FE39460246AE
:1027F00030460FF0C2FD4EE099F800202B683846B5
:1028000008FB023A08F058FA4FF01C0B0BFB00A033
:10281000427912B994F83B10CCE72B6899F8002064
:10282000384608FB023A08F047FA0BFB00A0437950
:10283000012B05D1FF2394F83B1000930022BAE747
:102840002B6899F80020384608FB023A08F034FA61
:102850000BFB00A04379022B07D1002394F83B1017
:10286000009301933046FF2213E02B6899F8002073
:10287000384608FB023808F01FFA0BFB008043794A
:10288000032B08D1002294F83B10009201923046AD
:10289000FF230FF04AFD0134B4427FF43DAF05B091
:1028A000BDE8F08F44D6FF1F66D6FF1FE8D6FF1F96
:1028B000F7B505460024114B1B78A34205F110061D
:1028C00005EB04030BD12846C42193F84B70FFF7A6
:1028D0008FFD3946024630460FF04FFD08E00022DA
:1028E00093F84B1000920192304613460FF01DFDF5
:1028F0000134042CDFD103B0F0BD00BF44D6FF1F6C
:10290000F0B5044685B00D460CF062F8A368C01A15
:10291000A84240F282800CF05BF8414BA0601B782B
:10292000092B04F1100616D008D8042B03D8032B6A
:1029300011D2A3B969E0072B1DD066E00D2B03D897
:102940000C2B08D20A2B04E07D2B26D0F12B1BD0B8
:10295000102B5AD121E02046FFF774FD55E0636843
:1029600093F840301BB12046FFF71EFD4DE0204696
:10297000FFF7C8FD49E0636893F84030002BF2D1BF
:102980002046FFF7A3FE40E0636893F84030002B39
:10299000E9D12046FFF78CFF37E000256319204678
:1029A00093F83B701F4B1B680393039A0523B2FBFC
:1029B000F3F3122202FB0533FF2293FBF2F2991884
:1029C000C9B2FFF715FD01350246394630460FF012
:1029D000D4FC102DE2D10025134B1B782B4113F0B2
:1029E000010004EB050393F84B1004D00022C82328
:1029F0008DE80C0002E04022009201903046134620
:102A000001350FF092FC042DE6D1084B02241C6026
:102A100030460FF0C1FB064B1C6005B0F0BD00BF97
:102A2000848EFF1FE8D6FF1F7A8EFF1F04F10F4030
:102A300008F10F4001EB81012DE9F04705464FEA0F
:102A4000C1080026002406EB04192B195FFA89F946
:102A50004946284693F83BA0FFF7CAFC05F110074A
:102A60000246514638460FF088FC04F003032B441D
:102A70004946284693F84BA0FFF7BAFC01340246BA
:102A8000514638460FF079FC102CDCD138460FF057
:102A900083FBB8F1000F03D04346013B7FF4FDAF49
:102AA0000136B6B2B6F5807FCCD1BDE8F087FFFF26
:102AB000F7B52D4C236805465B680F4616462B4933
:102AC00016222046984720460BF06CF905F11004B9
:102AD0002F60052001216E600BF0F8FEC821204612
:102AE0000FF080FC20460FF005FB20460FF054FB52
:102AF00000270026AB19FAB293F83B10009201921E
:102B00002046134601360FF010FC102EF2D120465D
:102B10000FF042FB4FF47A63013B7FF4FDAF0137C6
:102B2000B7F5807FE5D1FF270026AB19FAB293F8FD
:102B30003B10009201922046134601360FF0F5FB40
:102B4000102EF2D120460FF027FB4FF47A63013BA1
:102B50007FF4FDAF013FE7D12846642103B0BDE813
:102B6000F040FFF767BF00BFF0D8FF1F658401008A
:102B7000044A054B1360054A1360054A13600BF0C5
:102B80006BBC00BF2092FF1F032000381C92FF1F68
:102B90001892FF1F2DE9F04705468CB00C461646EB
:102BA0001F46BE49BE48FDF7AAFC14992E636F620A
:102BB00001260027E9622F73BA496F73AF73EF7371
:102BC0002E746E74AE74EE742F756F75AF75EF75ED
:102BD0002E766E76AE76EE76B148FDF790FC204606
:102BE0002121AC6202F0FAFF204639460822334622
:102BF00002F03AFE204631460422334602F034FE0B
:102C0000204602210922334602F02EFE20460321EF
:102C10000522334602F028FE2046112106223346C3
:102C200002F022FE204604210A22022302F01CFEAA
:102C3000204605210722022302F016FE2046062127
:102C40000B22022302F010FE204607210C22022351
:102C500002F00AFE204608211B22334602F004FE41
:102C6000204609211222334602F0FEFD20460A21A9
:102C70001322334602F0F8FD20460B21142233467E
:102C800002F0F2FD20460C211522334602F0ECFD45
:102C900020460D211622334602F0E6FD20460E2185
:102CA0001722334602F0E0FD20460F21032233466F
:102CB00002F0DAFD204610211822334602F0D4FD3E
:102CC000204616210E22022302F0CEFD20461221BC
:102CD0000222334602F0C8FD2046132132463B460D
:102CE00002F0C2FD204614211A223B4602F0BCFD30
:102CF000204615210D223B4602F0B6FD2046172145
:102D00000F223B4602F0B0FD2046182110223B4620
:102D100002F0AAFD2046192111223B4602F0A4FD33
:102D200020461A2119223B4602F09EFD3A463B46B8
:102D30001B21204602F098FD204602F0D5FE5A499C
:102D40005748FDF7DCFB022105F11D0002F024FDD0
:102D500005F11F090A200BF059FE1321484602F025
:102D6000D5FF05F120080A200BF050FE4046122145
:102D700002F0CCFF0A200BF049FE4C4904A80BF0EE
:102D8000DAF80A22394668460BF01EF9694604A8AB
:102D90000BF081F946490BF087F9FEB282463146C5
:102DA000484603F027F8014608A80BF0FAF8504609
:102DB00008A90BF070F901463948FDF796FB08A801
:102DC0000BF079F868460BF076F804A80BF073F86E
:102DD00001200BF01BFE374904A80BF0ACF80A22C7
:102DE000394668460BF0F0F8694604A80BF053F931
:102DF0002F490BF059F931468246404602F0FAFF5E
:102E0000014608A80BF0CDF8504608A90BF043F98D
:102E100001462348FDF769FB08A80BF04CF868460B
:102E20000BF049F804A80BF046F801200BF0EEFD7A
:102E300001200BF0EBFD31460122484602F0A2FFD3
:102E400001200BF0E3FD01223146404602F09AFFDB
:102E500001200BF0DBFD01200BF0D8FD134904A885
:102E60000BF069F80A22394668460BF0ADF869465E
:102E700004A80BF010F90E490BF016F93146824602
:102E8000484602F0B7FF014608A80BF08AF8504602
:102E900008A90BF000F901460EE000BF7C84010098
:102EA000F0D8FF1F8E840100A8840100B9840100BE
:102EB0002A800100C88401008548FDF716FB08A898
:102EC0000AF0F9FF68460AF0F6FF04A80AF0F3FFDB
:102ED00001200BF09BFD7F4904A80BF02CF80A227F
:102EE000394668460BF070F8694604A80BF0D3F831
:102EF00079490BF0D9F831468246404602F07AFF14
:102F0000014608A80BF04DF8504608A90BF0C3F88D
:102F100001466F48FDF7E9FA08A80AF0CCFF6846B9
:102F20000AF0C9FF04A80AF0C6FF01200BF06EFDED
:102F300001200BF06BFD3146FF22484602F022FFD4
:102F400001200BF063FDFF223146404602F01AFFDC
:102F500001200BF05BFD01200BF058FD5F4904A838
:102F60000AF0E9FF0A22394668460BF02DF8694657
:102F700004A80BF090F858490BF096F831468246B9
:102F8000484602F037FF014608A80BF00AF8504601
:102F900008A90BF080F801464D48FDF7A6FA08A8ED
:102FA0000AF089FF68460AF086FF04A80AF083FF4A
:102FB00001200BF02BFD474904A80AF0BCFF0A22B0
:102FC000394668460BF000F8694604A80BF063F830
:102FD00041490BF069F831468246404602F00AFF4B
:102FE000014608A80AF0DDFF08A950460BF053F887
:102FF00001463748FDF779FA08A80AF05CFF6846F1
:103000000AF059FF04A80AF056FF013701200BF01F
:10301000FDFC042F7FF4B1AE2E462F1D96F83830FC
:103020002B44204693F84010012202F0CCFD96F884
:103030003C302B44204693F840100122013602F028
:10304000C2FDBE42EAD126492148FDF758FA1F20A9
:1030500001210BF03BFC042001210BF037FC21493E
:103060001B48FDF74CFA204602F074FD00251E496E
:1030700004A80AF060FF0A22294668460AF0A4FF65
:10308000694604A80BF007F818490BF00DF8E9B2EF
:103090000646204602F0AAFC0A22014608A80AF0C9
:1030A00093FF08A930460AF0F6FF01460848FDF7ED
:1030B0001CFA08A80AF0FFFE68460AF0FCFE01357B
:1030C00004A80AF0F8FE1C2DD1D10CB0BDE8F087A1
:1030D000F0D8FF1FC88401002A800100B9840100D4
:1030E000D7840100EC840100168501003A810100BB
:1030F0002DE9FF47B34B1A680292029A1B680393AB
:10310000039BB14B1B782E3B0446232B00F27D839F
:10311000DFE813F0240053008400240053008400EF
:10312000240053008400240053008400B300CE0028
:10313000EA00050120013C01680183019F01BA01F9
:10314000D501F1010C02270243025E0279029502C9
:10315000B002CB02F2020D032E0351039B4D05F189
:10316000080A6E78DFF87082DFF8709238F816205F
:1031700039F81630009296494FF4804200200AF048
:1031800090FE04F11D0782B23146384602F020FB62
:1031900015F8016F8E4938F8162039F8163000926C
:1031A00000204FF480420AF07CFE314682B238465D
:1031B00002F00EFB5545D4D127E3844D05F1080AF2
:1031C0006E78DFF81482DFF8149238F8162039F898
:1031D000163000927E494FF480424FF400500AF0BE
:1031E00060FE04F11D0782B23146384602F0F0FA63
:1031F00015F8016F764938F8162039F81630009224
:103200004FF400504FF480420AF04BFE314682B238
:10321000384602F0DDFA5545D2D1F6E26B4D05F1A4
:10322000080A6E78DFF8B081DFF8B09138F8162020
:1032300039F816300092664966484FF480420AF029
:1032400030FE04F11D0782B23146384602F0C0FA62
:1032500015F8016F5E4938F8162039F816300092DB
:103260005C484FF480420AF01CFE314682B2384678
:1032700002F0AEFA5545D4D1C7E2DFF86481564E6C
:1032800098F80050554F36F8152037F8153050494A
:10329000009200F11D044FF480424E480AF001FEF6
:1032A000294682B2204602F093FA98F8005058E27C
:1032B000DFF82C81484E98F80050484F36F815201A
:1032C00037F815304249009200F11D044FF4804256
:1032D0004FF400500AF0E5FD294682B2204602F084
:1032E00077FA98F800505EE2DFF8F4803A4E98F8EA
:1032F00000503A4F36F8152037F81530344900920F
:1033000000F11D044FF4804200200AF0CAFD294656
:1033100082B2204602F05CFA98F8005065E2DFF8CD
:10332000C0802D4E98F801502C4F36F8152037F8F4
:1033300015302749009200F11D044FF480422548C2
:103340000AF0AFFD294682B2204602F041FA98F811
:10335000015006E2DFF888801F4E98F801501F4F99
:1033600036F8152037F815301949009200F11D0480
:103370004FF480424FF400500AF093FD294682B288
:10338000204602F025FA98F801500CE2DFF8508050
:10339000114E98F80150114F36F8152037F81530B6
:1033A0000B49009200F11D044FF4804200200AF006
:1033B00078FD294682B2204602F00AFA98F80150B8
:1033C00013E200BFE8D6FF1F25D6FF1F618EFF1F47
:1033D00000C0FFFF00E0FFFF6A8EFF1F528EFF1F3D
:1033E000628EFF1FDFF80C83BE4E98F80250BE4F6E
:1033F00036F8152037F81530BC49009200F11D044D
:103400004FF48042BA480AF04CFD294682B2204669
:1034100002F0DEF998F80250A3E1DFF8D882B14E4D
:1034200098F80250B04F36F8152037F81530AF49EC
:10343000009200F11D044FF480424FF400500AF056
:1034400030FD294682B2204602F0C2F998F80250B7
:10345000A9E1DFF8A082A34E98F80250A24F36F8F7
:10346000152037F81530A149009200F11D044FF4E2
:10347000804200200AF015FD294682B2204602F063
:10348000A7F998F80250B0E1DFF86882954E98F8F5
:103490000350954F36F8152037F8153093490092B0
:1034A00000F11D044FF4804291480AF0FAFC2946CD
:1034B00082B2204602F08CF998F8035051E1DFF80F
:1034C0003482884E98F80350874F36F8152037F825
:1034D00015308649009200F11D044FF480424FF4EC
:1034E00000500AF0DEFC294682B2204602F070F954
:1034F00098F8035057E1DFF8FC817A4E98F80350B2
:10350000794F36F8152037F815307849009200F1D8
:103510001D044FF4804200200AF0C3FC294682B209
:10352000204602F055F998F803505EE1DFF8C481B7
:103530006C4E98F804506C4F36F8152037F815305B
:103540006A49009200F11D044FF4804268480AF075
:10355000A8FC294682B2204602F03AF998F80450B5
:10356000FFE0DFF890815F4E98F804505E4F36F828
:10357000152037F815305D49009200F11D044FF415
:1035800080424FF400500AF08CFC294682B220465B
:1035900002F01EF998F8045005E1DFF85881514E09
:1035A00098F80450504F36F8152037F815304F4929
:1035B000009200F11D044FF4804200200AF071FCDB
:1035C000294682B2204602F003F998F804500CE133
:1035D000DFF82081434E98F80550434F36F8152008
:1035E00037F815304149009200F11D044FF4804234
:1035F0003F480AF056FC294682B2204602F0E8F81D
:1036000098F80550ADE0DFF8EC80364E98F805509C
:10361000354F36F8152037F815303449009200F14F
:103620001D044FF480424FF400500AF03AFC294642
:1036300082B2204602F0CCF898F80550B3E0DFF8EB
:10364000B480284E98F80550274F36F8152037F8E3
:1036500015302649009200F11D044FF480420020ED
:103660000AF01FFC294682B2204602F0B1F898F811
:103670000550BAE0DFF87C801A4E98F806501A4FD1
:1036800036F8152037F815301849009200F11D045E
:103690004FF4804216480AF004FC294682B22046C4
:1036A00002F096F898F806505BE0DFF848800D4E7F
:1036B00098F806500C4F36F8152037F815300B499E
:1036C000009200F11D044FF480424FF400500AF0C4
:1036D000E8FB294682B2204602F07AF898F80650B4
:1036E00061E000BF6A8EFF1F528EFF1F00C0FFFF08
:1036F00000E0FFFF628EFF1FDFF82481444E98F840
:103700000650444F36F8152037F8153042490092DC
:1037100000F11D044FF4804200200AF0C2FB29464C
:1037200082B2204602F054F898F806505DE0DFF8C7
:10373000F080374E98F80750364F36F8152037F896
:1037400015303549009200F11D044FF48042334892
:103750000AF0A7FB294682B2204602F039F898F811
:10376000075036F8152037F815302C48009242E003
:10377000DFF8AC80264E98F80750264F36F8152013
:1037800037F815302449009200F11D044FF48042AF
:103790004FF400500AF085FB294682B2204602F021
:1037A00017F898F8075036F8152037F815300092BA
:1037B0004FF400501FE0DFF86880154E98F807506E
:1037C000144F36F8152037F815301349009200F1E0
:1037D0001D044FF4804200200AF063FB294682B2A8
:1037E000204601F0F5FF98F8075036F8152037F815
:1037F00015300092002008494FF480420AF051FB36
:10380000294682B2204601F0E3FF04B0BDE8F0870C
:103810006A8EFF1F528EFF1F00C0FFFF00E0FFFFF8
:10382000628EFF1F2DE9F7430446806A624EDFF87F
:10383000B08102F08FF911210122606A0EF060FE62
:10384000242130800122606A0EF05AFE252170800A
:103850000122606A0EF054FE2221B0800122606ACB
:103860000EF04EFE0025F080544B705BEB5A544F27
:10387000984207D2534AA95A002200921A464FF49E
:10388000806305E0504A5149AA5A00911946002325
:103890000AF007FB78534023785F4C4900934FF4BC
:1038A00080626FF03F030AF0FCFA0235082D08F839
:1038B000010FD9D104252B1F082B1BD0012202FA9E
:1038C00003F313F0AA0F08D113F0550F12D016F816
:1038D00015203F4B183AEA540CE0402336F8150007
:1038E0003C4900934FF480426FF03F030AF0D9FA4D
:1038F000374B585501350D2DDDD10421A06A364EC8
:10390000364F02F0DCF980F0010030700521A06A2A
:1039100002F0D5F980F0010070700621A06A02F073
:10392000CEF980F00100B0700721A06A02F0C7F95B
:1039300080F00100F0700421A06A02F0AAF90521CC
:103940003870A06A02F0A5F906217870A06A02F02A
:10395000A0F90721B870A06A02F09BF90025F87061
:103960005FFA85F8A06A414602F0B3F940B17319D5
:10397000A06A93F80490414602F0ABF9814502D168
:103980007B19002201E07B1901221A71A06A4146CD
:1039900002F09FF973190135042D1871E0D1A06A66
:1039A0000821012202F00FF9A06A0821002203B0C9
:1039B000BDE8F04302F007B90CD6FF1F8C8EFF1F45
:1039C0002ED6FF1F7C8EFF1F068FFF1F00FCFFFF00
:1039D00038D6FF1F00C0FFFF45D6FF1F5DD6FF1F73
:1039E00037D6FF1F29B1044B194411F9010C80B2DD
:1039F00070470846704700BF38D6FF1F093108B529
:103A0000092936D8DFE801F0302B26211C17120ACD
:103A1000053664200AF030FA5A2803E064200AF0E0
:103A20002BFA502894BF0020012008BD64200AF022
:103A300023FA4628F6E764200AF01EFA3C28F1E74C
:103A400064200AF019FA3228ECE764200AF014FA2C
:103A50002828E7E764200AF00FFA1E28E2E764202E
:103A60000AF00AFA1428DDE764200AF005FA0A28A9
:103A7000D8E708BD002008BD10B50144094A91F8F7
:103A80003810094832F8112030F8111050188A1AED
:103A900092B25343142493FBF4F2C2EB500080B271
:103AA00010BD00BF528EFF1F6A8EFF1F0144084ADF
:103AB00091F83810074832F8112030F81110511AD7
:103AC00089B24B43142093FBF0F1501A80B2704737
:103AD0006A8EFF1F528EFF1F2DE9F743012B1646FA
:103AE00004460D461F469DF828209DF82CC036D070
:103AF00018D3022B62D1421892F838804246FFF761
:103B0000BBFF2946814642463B462046FFF7CEFF93
:103B10002C4B33F816300090002118464FF47D727C
:103B20004B4647E0002700976346F1B2C06A07F0B2
:103B30000FF96319814693F838602946324602230B
:103B40002046FFF799FF2946324680460223204649
:103B5000FFF7ACFF394600907822484629E000275D
:103B600000976346F1B2C06A07F0F2F894F8833127
:103B700090FBF3F203FB1202AC32294634F81290A8
:103B800042F6E062504390FBF3F3994463192046F8
:103B900093F8386002233246FFF76EFF294632461B
:103BA000804602232046FFF781FF074A00903946EE
:103BB000484643460AF075F980B2FFE703B0BDE816
:103BC000F08300BF948EFF1FC0D401002DE9F04F99
:103BD00087B09A469DF84C3004939DF85830059371
:103BE000044601F1020E6448049B9DF840B09DF824
:103BF00048709DF854809DF85C9016460D469DF8DF
:103C0000502020F82E600BB95FB183E0A06A0392C8
:103C100002F05FF8039A0028F6D0002A40F0A7804F
:103C200070E0002A75D16719A06A97F838202244FD
:103C300092F84010012201F0C6FFBBF1010F16D12E
:103C400097F83C20224492F848100A0918BF002235
:103C500001F00F010CBF04F11F0004F1200002F07D
:103C600091F801223A763A7387F814A009E008D94E
:103C70009DF844203A74012287F814A03A7687F818
:103C80000CB097F83830234493F848100A0908BF5D
:103C900004F11F0001F00F011CBF04F120000022FD
:103CA00002F070F86719059B97F838B029468DE83F
:103CB0000802324643462046FFF70EFF04F11D0A74
:103CC00002465946504601F083FD059B97F838B0EF
:103CD00029468DE80802324643462046FFF7FCFE9F
:103CE00059460246504601F073FD049B23B1A06A79
:103CF0002946012201F067FF0AF06AFEA06007B0C2
:103D0000BDE8F08FA06A294601F05DFF002F8AD040
:103D100000E0032704EB050AA06A9AF83820224441
:103D200092F84010002201F04EFF9AF83820224409
:103D300092F848A05FEA1A114FF0FF020AF00F0A4A
:103D400009D1009238467F220B460AF0AAF8C2B287
:103D500004F11F0009E00021009238467F220B4643
:103D60000AF09FF8C2B204F12000514698E7002FF4
:103D700008BF0327CEE700BF0CD6FF1F2DE9F7438E
:103D800046180746337B8846002B00F0E580013B50
:103D9000032B00F29F80DFE803F002053C6D347DC9
:103DA000E40165E06E4A337C106858430DF0E4FC92
:103DB0006C490DF039FD6C490DF036FD6B4B044636
:103DC000186800010DF0D8FC014620460DF0E0FD1A
:103DD0000DF0E6F812F0A8F80446307D0D460DF01F
:103DE000CDF802460B46204629460DF02DF900225B
:103DF0005F4B0DF029F90DF0C1FB96F83C303B44C8
:103E0000002284B293F84010B86A01F0DCFE02226E
:103E100060E0534A337C106858430DF0ADFC5149C3
:103E20000DF002FD50490DF0FFFC504B04461868A0
:103E300000010DF0A1FC014620460DF0A9FD0DF09A
:103E4000AFF812F071F8002200230DF08DFB347DE5
:103E500008B1E40103E0C4EB4424E401A4B296F801
:103E60003C30B86A3B44012293F8401001F0ABFEAD
:103E700000222FE03A4A337C106858430DF07CFC56
:103E800038490DF0D1FC38490DF0CEFC374B0446D3
:103E9000186800010DF070FC014620460DF078FD19
:103EA0000DF07EF812F040F8002200230DF05CFBCC
:103EB000347D08B1E40103E0C4EB4424E401A4B27E
:103EC00096F83C30B86A3B44002293F8401001F069
:103ED0007AFE2822274BDFF8A49003EB8803DFF853
:103EE000A0805C8196F83C303B4424B293F84810A3
:103EF0000B090CBF07F11F0007F1200001F00F01B3
:103F000001F040FF96F83C501B4938F8152000237B
:103F10003376204639F8153000924FF4804209F08C
:103F2000C0FF1D3782B22946384601F051FC96F891
:103F30003C50114938F81520009239F815302046C8
:103F40004FF4804209F0ADFF294682B2384603B0F3
:103F5000BDE8F04301F03CBC03B0BDE8F08300BF16
:103F600068D6FF1FD00F49400000C84200D6FF1F8F
:103F7000000060400CD6FF1F00C0FFFF528EFF1FE5
:103F80006A8EFF1F70B504460E4615461BB1806A47
:103F9000002201F018FE711EC9B20F29246B0DD842
:103FA00094F84A3041F080018B420BD0D4F8E00005
:103FB00084F84A1003681B68984703E0002384F8DC
:103FC0004A3070BDD4F8E000036805F07F011B683B
:103FD0009847D4F8E000036840211B68984770BDFB
:103FE00038B5002204460D46806A01F0ECFD6019E8
:103FF0000023037303750123037638BD37B54FF4EF
:10400000007305460C4609B1084A00E0084A1360EF
:10401000172021460AF03AFC2C7724B1054B1B6887
:104020000193019B2B6003B030BD00BF84F00F40B3
:1040300088F00F40E8D6FF1F044A054B1360054A7D
:104040001360054A13600AF007BA00BF2C92FF1FE5
:10405000032000382892FF1F2492FF1F4379032B6F
:1040600009D8DFE803F0090B0B02407CD0F1010016
:1040700038BF00207047704700207047012070470C
:1040800010B504460AF0A4FC0023C4F8FC0784F829
:10409000003710BDD0F8F037013330B5C0F8F03735
:1040A00090F8045790F8053700221D440346AA42B1
:1040B00003F11C030CDAD0F8F417D0F8EC47B4FB8A
:1040C000F1F453F8081C091B43F8081C0132EEE711
:1040D00030BDFFFF0E4B80F8EA171B78B3B190F8A4
:1040E000E527B0F8E8371AB9D0F8F027C0F8F42778
:1040F0000133A0F8E837002380F8E537C0F8F0373F
:104100004FF4800393FBF1F1C0F8EC17704700BF48
:104110005CD6FF1F90F8E2375AB2002ADABFC3F12B
:104120000200C0B20120002ACCBFDBB2012380050F
:1041300090FBF3F0704770B590F8085704460E46B0
:10414000EDB9FFF7E7FF94F8043794F80017B6FBD2
:10415000F0F2134403F001030B4494F8071700FB3B
:10416000126248436421B0FBF1F082422CBF00226E
:1041700003F001022AB9181C18BF012070BD0020ED
:1041800070BD284670BD10B50446FFF7C3FF94F814
:104190000537584310BDFFFF2DE9F047D0F8F06711
:1041A000D0F8F457B0F9E877AE42B2B034BFB046B9
:1041B00005F1FF38D0F8EC670446FFF7E4FF7743DA
:1041C000B7FBF0F306FB08F6B6FBF5F600FB13773A
:1041D0003E44864294F8038703D92046002100F02C
:1041E00049F92046FFF796FF94F80827B6FBF0F34D
:1041F000012A00FB13670DD194F8041794F80557B2
:104200000D44ED1AEDB228463F2206F031FD84F848
:10421000030745E0002A42D194F8045794F80017A8
:104220001D4494F80737A3F1320A4FEA4A0A00FB0B
:104230000AFA4FF0640C322BBAFBFCFA94BF4FF031
:1042400000094FF00109EDB25745294488BF4FF0EE
:10425000000919EA010F05D06B1E84F8033784F8B2
:1042600001271DE05A005043B0FBFCF0874234BFE9
:1042700000200120312B88BF002028B1CB0703D4B8
:104280006B1C84F8033706E094F8023784F8035770
:1042900013F0010300D0012384F8013700E000256A
:1042A00094F81037012B03D1664A12680092009AE5
:1042B00094F80327424500F0C18094F802270132A8
:1042C00084F80227002B40F0B9805E4B1B680193F5
:1042D0000A22019902A809F09DFE02A906A809F088
:1042E00045FE594906A809F0DFFE0A22814694F8E6
:1042F00000170AA809F068FE48460AA909F0CBFE93
:10430000524909F0D1FE94F8031781460EA809F02E
:1043100048FE48460EA909F0BEFE4D4909F0C4FE0C
:104320002946814612A809F03CFE12A9484609F028
:10433000B2FE484909F0B8FE4146054616A809F004
:1043400030FE284616A909F0A6FE434909F0ACFE46
:1043500005462046FFF7DEFE0A2201461AA809F0AC
:1043600059FE28461AA909F096FE3C4909F09CFE20
:1043700094F8071705461EA809F013FE28461EA943
:1043800009F089FE364909F08FFE0A2205463146BA
:1043900022A809F03FFE284622A909F07CFE3149F7
:1043A00009F082FE0A220546394626A809F032FEA7
:1043B000284626A909F06FFE2B4909F075FE94F8EE
:1043C000041705462AA809F0ECFD28462AA909F099
:1043D00062FE264909F068FE94F8051705462EA8E6
:1043E00009F0DFFD2EA9284609F055FE01462048B8
:1043F000FCF77BF82EA809F05EFD2AA809F05BFD0A
:1044000026A809F058FD22A809F055FD1EA809F0BC
:1044100052FD1AA809F04FFD16A809F04CFD12A88C
:1044200009F049FD0EA809F046FD0AA809F043FD70
:1044300006A809F040FD02A809F03DFD304632B063
:10444000BDE8F087E8D6FF1F4085010049850100DF
:10445000568501006B8501007D8501008B8501007B
:1044600098850100A7850100BD850100CA8501006E
:10447000F0D8FF1F30B500238DB00446A0F8E83710
:1044800021B1012280F8003780F8E527C4F8F03721
:104490002046FFF781FE94F8053794F804070022C0
:1044A00018442346824203F11C0306DA002103F874
:1044B0000C1C03F80B1C0132F4E794F8103763BBB3
:1044C0001C4904A809F037FD94F81017684609F054
:1044D00068FD694604A809F0DEFD174909F0E4FD0E
:1044E000164909F0E1FD05462046FFF755FE0A2270
:1044F000014608A809F08EFD08A9284609F0CBFD61
:1045000001460F48FBF7F1FF08A809F0D4FC684604
:1045100009F0D1FC04A809F0CEFC94F80537DB07BC
:1045200005D594F8003783F0010384F800370DB007
:1045300030BD00BFD7850100DB850100E3850100A8
:10454000F0D8FF1F90F8030700097047F8B590F8FE
:10455000047790F8053790F803471F442744054631
:10456000013F0026BC4205DA2846FFF7D3FD01349F
:104570000644F7E73046F8BD90F81D372DE9F74FB0
:104580000446002B40F0D2806A4B1B78002B00F0D1
:10459000CD80FFF701FE94F803671C2505FB064359
:1045A00080461F7C03F11002002F57D1C6EBC603D3
:1045B00004EB83035979002950D0577094F81617EB
:1045C000D4F8000893F807B0FFF70CFA4FF0140A7C
:1045D000B0FBFAF0394605221BFA80F006F048FBE2
:1045E000264494F8181786F8220794F80367D4F83D
:1045F000000805FB064326441F7AFFF7F3F9B0FBDA
:10460000FAF00522012117FA80F006F031FB94F848
:10461000171786F86207D4F8000894F80367FFF7C5
:10462000E1F926440F23B0FBF3F086F8A20794F8D3
:10463000036705FB0640FFF711FDA119024691F83B
:10464000223791F8621700912046314600F023FA94
:1046500094F8033705FB034501232B7425462746B1
:10466000002694F8052794F8043713449E425DDC35
:104670006B79002B52D02B7C042B04D0062B35D029
:10468000012B4BD10CE094F803379E424AD1012A0A
:1046900044D12046FFF73EFDB8EB900F42D33DE0FA
:1046A0005FFA86FA2046514600F05DF9AB69984200
:1046B00034DA6B79032B08D8DFE803F00202050235
:1046C0004FF0010901E04FF00009204651464A46EB
:1046D00000F0CAFB06232B742046514695F811B012
:1046E00000F0ADFB834519D9042316E05FFA86FA82
:1046F000204651466A7C00F055FB80450ED928467D
:10470000FFF7ACFC97F8621797F822370091024642
:104710005146204600F0BFF901232B7401361C35A9
:1047200001379EE700232B746B74F7E703B0BDE8F5
:10473000F08F00BF5CD6FF1F024B1B780BB1FFF759
:104740001BBF70475CD6FF1F044A054B1360054A28
:104750001360054A136009F07FBE00BF3892FF1F47
:10476000032000383492FF1F3092FF1F2DE9F041E3
:10477000154D044628680F46164614491D229846D2
:10478000436828469847284609F00CFB002384F824
:104790000F37042384F8E237322384F80737069B67
:1047A000C4F8F83784F8107784F8056784F811871F
:1047B0002046FFF7CBFE012384F8E337079BC4F8BC
:1047C0000038BDE8F08100BFF0D8FF1FF38501007D
:1047D000F0B58DB004460E4604A84449154609F0CC
:1047E000AAFB3146684609F0DCFB694604A809F0DB
:1047F00052FC3F4909F058FC2946074608A809F031
:10480000D0FB08A9384609F046FC0146394809F0B2
:10481000A8FA384809F0C6FA08A809F04CFB68461F
:1048200009F049FB04A809F046FB102332220420BA
:1048300084F8053784F807270023062284F80B271D
:1048400084F80A2784F8043784F8110784F80C37B1
:1048500084F80D3784F80F6784F8105784F8E2075E
:1048600084F8123784F8133784F8090784F8163768
:1048700084F8143784F8153784F8173784F8183714
:1048800084F8193784F81A3784F81B3784F81C37F2
:1048900084F81D3784F81E3784F81F3784F82137D1
:1048A00040220134032161710121E1712172022151
:1048B000617204211823E172432104F8013C217341
:1048C00000231021013A23706370A370E3702371F9
:1048D000A371A3726373A173E37323746374C4F845
:1048E000133004F11C04DDD10DB0F0BD11860100C0
:1048F00031860100F0D8FF1F90F81D3783F00103C7
:1049000010B5044680F81D37DBB194F8053790F8F0
:10491000040722461844002383420CDA94F8031754
:104920008B4202F11C0206D0002102F80C1C02F896
:104930000B1C0133F0E7D4F8000894F81017FFF7C8
:104940004FFB94F81D0710BDC0F8F817FFF7FEBD28
:1049500010B51C2404FB0133C25410BD1C2303FBFF
:104960000122805C70471C2303FB010148697047EA
:10497000F8B5044621B91021012009F088FAC1B226
:1049800094F8EA3794F9E25794F80527B4F8E86701
:1049900011FB03F090FBF5F013FB02F393FBF5F32F
:1049A00000FA86F090FBF3F103FB110189B2B7B274
:1049B000A4F8E8170023934204F11C0408DA54F821
:1049C000080C0DB27D1B284444F8080C0133F2E7B3
:1049D000F8BDFFFF38B590F810370533994204460B
:1049E0000D4614D090F912378B4202D10021FFF707
:1049F00041FD94F91337AB4209D1054B1B7833B114
:104A0000204694F80917BDE83840FFF7B1BF38BD1C
:104A10005CD6FF1F70B5044688B01D461C20FAB155
:104A200041436018625C867B8274437B0096C67B40
:104A30000196083094F81017C07802900020049076
:104A400094F80E07059094F80D07069094F80C075B
:104A500007900395D4F80008FFF7B8F808B070BDC8
:104A600000FB0143D4F800089A7C94F81017012346
:104A700008B0BDE87040FFF785BA431893F8A22745
:104A800053B2002B4FF01C0303FB0100807AC4BF1C
:104A90005043C0B270472DE9F04F04460E4617460A
:104AA000C1EBC1021C2101FB064192004D7804EBD1
:104AB0000208A25C91B015448DF829508D78C97810
:104AC0008DF8282015440A448DF82B2094F81F27D0
:104AD0009DF868008DF82A501AB1002384F81F371A
:104AE0005DE10122042518F80210FF2908BF05F135
:104AF000FF3502F1010208BFEDB2042AF3D12946C5
:104B000005EB850E71450ADA0AAAC5EB020C1CF802
:104B100001C00CF10C0C01F802C00131F2E708B140
:104B20004543EDB2013B1C22042B4FD8DFE803F0D4
:104B3000030E1A2E440002FB0642537CB3FBF5F22F
:104B400005FB123310AA52FA83F31CE002FB064263
:104B5000537CB3FBF5F205FB1233ED1A10AB53FA9D
:104B600085F526E002FB064210A9537CB3FBF5F263
:104B700012F0010F05FB02F2C2EB030308BFC3EB07
:104B80000503DBB20B4413F8183C21E002FB06429C
:104B9000691E537C93FBF1F2D0074BBFB3FBF5F2D8
:104BA00001FB123305FB1235C3EB0505EDB210AA6C
:104BB000154415F8183C0BE00020294609F067F968
:104BC00010AB53FA80F010F8183C01E09DF8283043
:104BD0001C2505FB06451035AB70D4F8000894F988
:104BE0001517FEF70BFF58B1AB7894F80A0794F845
:104BF0000B17181A194409F04AF980F30700A87036
:104C000094F81A17D4F80008FEF7ECFE1C2303FBF7
:104C1000064303F110059A7C93F80B9010449874A6
:104C200094F81C17D4F80008FEF7DCFE0021484475
:104C3000FF2206F01DF894F914175FFA80F9D4F8F2
:104C40000008FEF7DBFE6B78002818BF002703B9C9
:104C50006B6098F80730002B39D194F81B17D4F803
:104C6000000898F80650FEF7BDFE94F8E2370135CB
:104C70005AB2002A4FEA4505D8BFC3F102012844C1
:104C80004FF01C05D4BFC9B2012105FB0645002A1F
:104C9000CCBFDBB201234FEA805B6A6901FB0BFBEF
:104CA000DB009BFBF3FB9344C5F814B02046FFF7F1
:104CB00031FA834505D26A69082392FBF3F3AB61AD
:104CC00043E02046FFF726FAC008A8613DE094F8CB
:104CD000E2574FF01C0A4FFA85FB0AFB0640BBF176
:104CE000000FD8BFC5F102034169D4BFDBB2012375
:104CF00001EB8353417A4B4343613146204609938C
:104D0000FFF7BBFE099B94F8011793FBF0F0BBF192
:104D1000000F0AFB0643CCBFEDB20125103390FB18
:104D2000F5F55D6094F8072709B1C2F164025200FD
:104D30005543642195FBF1F55D601C2303FB06439D
:104D400004215A6992FBF1F29A611C2303FB064687
:104D500094F81017B07B737BB27C0090F07B0190CD
:104D600094F82107049094F80E07059094F80D0725
:104D7000069094F80C0703970790CDF80890D4F8A4
:104D80000008FEF723FF98F80530022B06F1100506
:104D900018BF002784F821776B7801336B7011B04E
:104DA000BDE8F08FF8B590F8046704460F46154645
:104DB0008E1BFFF7AFF946432046FFF7ABF91C23E4
:104DC00003FB074339465B7A15FB03F54543204651
:104DD000FFF753FEB5FBF0F5A9192046FFF7ABF935
:104DE00090B12046FFF796F907462046FFF792F963
:104DF000B5FBF0F007FB00662046FFF78BF994F84F
:104E00000737C3F164030FE02046FFF783F9074635
:104E10002046FFF77FF9B5FBF0F007FB0066204660
:104E2000FFF778F994F80737B5FBF0F25B0002FB67
:104E3000105058436421B0FBF1F03044F8BD38B550
:104E4000431893F822376BB11C2303FB0104FFF7CF
:104E500014FEA579637A15FB00F090FBF3F0C0F324
:104E6000870038BD184638BD10B513461C2202FB1A
:104E7000010101F11002097C0129044608D194F8CE
:104E80001017D0F800089278BDE81040FFF77AB804
:104E900010BDFFFF531A002BB8BF5B42013380F8EF
:104EA00005370A4B91421B7805D201EB031180F8BC
:104EB0000417002304E002EB031280F80427012307
:104EC00080F80837012380F81F37704724D6FF1F6A
:104ED000044A054B1360054A1360054A136009F044
:104EE000BBBA00BF4492FF1F032000384092FF1F4F
:104EF0003C92FF1F10B5044609F06AFD2060204671
:104F000010BD10B5044609F063FD2368C01A10BD3A
:104F10002DE9F743BD4B1A680092009A02601B68A6
:104F20000193019B4360044609F052FDA06004F127
:104F30001D0000F02FFC04F11F0000F0E5FE04F15D
:104F4000200000F0E1FEB24B1A46194652F8040B5D
:104F500060631068A0639868E06351F80C0F4968BB
:104F600004F1400203C2194604F1480251F8140F3B
:104F7000496804F1500603C203F11C02343310687F
:104F80005168354603C508329A422E46F7D1A14BE7
:104F900004F1680203F1080618685968154603C54C
:104FA0000833B3422A46F7D118689B88AB809A4BE6
:104FB000286004F1760203F10C0153F8040B42F867
:104FC000040B8B42F9D11B881380944B04F18402AB
:104FD00003F1080618685968154603C50833B3423B
:104FE0002A46F7D118689B88AB808D4B286004F166
:104FF000920203F10C0153F8040B42F8040B8B42AC
:10500000F9D11B881380874B04F1A00203F1080635
:1050100018685968154603C50833B3422A46F7D1C4
:1050200018689B88AB80804B286004F1AE0203F1C6
:105030000C0153F8040B42F8040B8B42F9D11B8886
:1050400013807A4B04F1BC0203F108061868596812
:10505000154603C50833B3422A46F7D118689B8822
:105060002860AB8000210E2204F1CA0009F010FB79
:105070004FF47A6340F6B83841F6583742F210766A
:10508000A4F8CE3042F22833694DA4F8D230002182
:105090000E22A4F8CC80A4F8D070A4F8D46004F157
:1050A000D80009F0F5FA41F27073A4F8DE302B68ED
:1050B000C4F8E6306B68C4F8EA3041F288392B89CD
:1050C000A4F8EE3000210E22A4F8DA80A4F8DC90D7
:1050D000A4F8E070A4F8E26004F1F00009F0D8FA56
:1050E00005F10A021A35A4F8F280A4F8F490A4F8A5
:1050F000F670A4F8F86004F1FE012B4652F8040B98
:1051000041F8040BAA42F9D11A68C4F80E215A6872
:105110001B89A4F81631474BC4F812215968186846
:1051200004F58C7203C21989118003F10A0204F597
:105130009171163352F8040B41F8040B9A42F9D1DD
:1051400013880B803C4B04F5987203F1080618682D
:105150005968154603C50833B3422A46F7D1186883
:105160009B88AB80354B286004F59F7203F10C01DE
:1051700053F8040B42F8040B8B42F9D11B881380BF
:105180002F4A1068516804F5A67303C3906818602D
:1051900004F5AC7602F10C032432186859683546E0
:1051A00003C5083393422E46F7D107230820052272
:1051B0000C2184F8713184F8723184F8733184F8E9
:1051C000743184F8753184F8763184F8773184F855
:1051D000783184F8793184F87B3184F87C0184F863
:1051E0007F3184F8803184F881312046062384F8A9
:1051F000701184F87A2184F87D2184F87E2184F866
:10520000823184F8831103B0BDE8F083E8D6FF1F34
:105210003C860100708601007E8601008C860100BC
:105220009A860100A8860100B6860100C4860100A6
:10523000D2860100F68601000E8701001C8701005E
:105240002A87010013B504467030FFF753FE04F1BE
:105250008800FFF74FFE04F18C00FFF74BFE144B64
:105260001B680193019BC4F8B43004F1B800FFF748
:105270004FFE04F50F7005F0F5FD04F5267000F003
:10528000C7FD04F2DC60FCF7EBFF04F5E660FBF71A
:10529000C8FB04F2E47000F0DFFA04F6480000F006
:1052A000DBFA04F6BC00FFF725FE204602B010BD75
:1052B000E8D6FF1F2DE9F04F93B004468846B44866
:1052C000B44909921D46FBF71AF91C9BC4F8B8387B
:1052D0000023C4F8B088C4F8B45884F8413084F886
:1052E000423084F8433084F8443084F8453084F800
:1052F000463084F8473084F8483084F8493084F8E0
:105300004A3084F84B3084F84C3084F84D3084F8BF
:105310004E3084F84F3084F8503084F8513084F89F
:10532000523084F8533084F8543084F8553084F87F
:10533000563084F8573084F8583084F8593084F85F
:105340005A304FF0000A04F803A00133402BF8D183
:1053500004F1B807DFF864921C9B009404F6480B34
:10536000384659464246FDF715FCD9F80030642608
:10537000B3FBF6F38DE8880028465146102204233B
:10538000FFF7F4F9D9F80030B3FBF6F38DE88800A5
:1053900005F60400012110220423FFF7E7F9D9F8EC
:1053A000003005F58050B3FBF6F38DE88800083037
:1053B000022110220423FFF7D9F9D9F8003005F5AE
:1053C000C050B3FBF6F68DE8C0000C30032110226C
:1053D0000423FFF7CBF904F15C0904F5267C604651
:1053E00029464A462346CDF81CC004F5E66600F07F
:1053F00045FDDDF81CC0CDF80CC004F50F73184650
:10540000089339465B4604F2E47200960195CDF8A4
:105410000890049405F086FD04F2DC6029462246DB
:10542000FDF746FB099B0093484639462A4643460A
:1054300007F070FB1C9B00933046574B39462A46B9
:10544000FBF70EFB554B1B78002B00F08480544972
:105450004F48FBF754F83046FCF7DDFE3046FCF7CA
:1054600003FE3046FCF760FB57464E490EA808F095
:1054700062FD0A2239460AA808F0A6FD0AA90EA86C
:1054800008F009FE484908F00FFE01464048FBF7C6
:105490002CF80AA808F00FFD0EA808F00CFD4FF03C
:1054A00000085FFA87F940F6040000FB08505FFA35
:1054B00088F2494608F10108FFF78AF9B8F1040FAC
:1054C000EFD133483949FBF71AF84FF000085FFA7B
:1054D00088F130464A4608F10108FBF7D5FEB8F1DD
:1054E000040FF4D12A483249FBF709F894F8303711
:1054F0001BB13046FCF7B6FBF8E72E490EA808F0C2
:105500001AFD0A2239460AA808F05EFD0AA90EA86B
:1055100008F0C1FD244908F0C7FD01461C48FAF710
:10552000E4FF0AA808F0C7FC0EA808F0C4FC013785
:105530004FF4FA7009F06AFA102F96D194F83037C8
:105540001BB13046FCF78EFBF8E7642009F05EFAE9
:105550003046FCF705FE3046FCF7E6FA164B002411
:105560001C701F4640F6040000FB0450E2B239787C
:105570000134FFF72DF9042CF4D13046FBF7F0FA93
:105580000898012105F0B8FD13B0BDE8F08F00BF09
:10559000F0D8FF1F4E870100F9D9FF1F71D6FF1FFA
:1055A0006A870100B8870100E58701000C880100C7
:1055B000218801003588010070D6FF1F888EFF1FEB
:1055C00037B5044609F004FA02AD45F8040D284643
:1055D000FFF797FC09F0FCF942F21071019004F515
:1055E0000F7007F09BF92846FFF78BFC09F0F0F9E4
:1055F000019004F6BC00FFF784FC42F2107398425D
:1056000002D994F830374BB994F89130ABB104F526
:10561000267047F2305104F0AFFC0EE004F5E6606E
:10562000FCF720FB09F0D4F9C4F8BC082846FFF7C2
:1056300068FC09F0CDF90190E6E703B030BD00F257
:10564000DC600021FDF75CB95C3007F0B1BA5C307A
:1056500007F030BC0346D0F8AC08D3F8B01807F018
:1056600018BFFFFF064B10B5064C1C60064B1C60B4
:10567000064B1C6008F0F0FE054B1C6010BD00BF1F
:105680005492FF1F032000384C92FF1F4892FF1FC7
:105690005092FF1F054BDA6A12F0F00F18BF9B6B98
:1056A0004FF2F0031340002BF4D1704700C00240CA
:1056B00010B5184B1A7802B372B61B78D90707D504
:1056C000154A1649146809682140154C216011607B
:1056D0009A0707D5134A1149146849682140104CAC
:1056E000616011605B0707D50F4B0C4A196892681F
:1056F0000A400B498A601A6062B60C4BDA68824233
:1057000007D00B4A1A60D8600A4A40F080401861FE
:105710001A6010BDF8D9FF1F80E100E0E0D9FF1F3B
:10572000ECD9FF1F84E100E088E100E000C0024006
:1057300001401F0000001F80054B4FF00042DA625D
:105740005863DA6A002AFCDA014B986BC0B27047E2
:1057500000C002400A4B1B788BB1D90703D5094A18
:105760001168094A11609A0703D5064A5168074A29
:1057700011605B0703D5034B9A68054B1A607047AD
:10578000F8D9FF1FECD9FF1F00E100E004E100E0C1
:1057900008E100E07047FFFF10B5002304460170E8
:1057A00043700846012109F091F82278064B53F81E
:1057B0003230012283F88020044B4FF038421A60C7
:1057C000BDE810400CF05ABA74F801005892FF1F5F
:1057D0002DE9F341174604468846FFF75BFF114B5E
:1057E000114E1868FFF764FF23788DF8067056F89D
:1057F0003330012583F8005101A83B0A032108F149
:1058000030088DF805308DF804800CF00BFC2378FF
:1058100056F8333083F88050FFF79CFF02B0BDE8A4
:10582000F08100BF5892FF1F74F80100014B024A3B
:105830001A6070475892FF1F03200038054BDA6A40
:1058400012F0F00F18BF9B6B4FF2F0031340002BC8
:10585000F4D1704700C0024010B5044609F0B8F812
:10586000A065204610BDFFFF2DE9F04F81469FB097
:10587000900890469A468B460BF080FB10F0C4FAD5
:10588000044640460D460BF079FB002206460F46C3
:105890004E4B204629460BF0D7FB0B4602463946B5
:1058A00030460BF01DFA0BF091FE2946C6B2204699
:1058B0000BF08CFEC3B2BAF1000F05D0BAF1010FA4
:1058C0000CBF0124032400E0022409EB0B02002199
:1058D00009EB030582F8108082F83010032772006C
:1058E000974095F85010FF43FFB2394004FA02F296
:1058F0000A4385F8502006A83549019308F01BFBA0
:10590000019B02A8194608F04CFB02A906A808F062
:10591000C2FB304908F0C8FB214680460AA808F0BF
:1059200040FB0AA9404608F0B6FB2B4908F0BCFB37
:105930001022804695F850100EA808F045FB0EA9DD
:10594000404608F0A8FB254908F0AEFB3146054665
:1059500012A808F026FB12A9284608F09CFB204953
:1059600008F0A2FB02220546394616A808F02CFBD7
:1059700016A9284608F08FFB1A4908F095FB10225B
:10598000054604FA06F11AA808F01EFB1AA92846D3
:1059900008F081FB01461448FAF7A7FD1AA808F0A1
:1059A0008AFA16A808F087FA12A808F084FA0EA856
:1059B00008F081FA0AA808F07EFA02A808F07BFA3B
:1059C00006A808F078FA1FB0BDE8F08F000010407C
:1059D00061880100758801008088010089880100C4
:1059E000938801009E880100F0D8FF1F2DE9F04147
:1059F0000F460446FFF722FF194B1A4E1868FFF7AF
:105A000057FE94F8603056F83330012583F8005182
:105A100047F08000FFF790FE0020FFF78DFE94F81E
:105A2000603056F8333083F8805094F8603056F880
:105A30003330002083F80051FFF77EFE0746002038
:105A4000FFF77AFE94F8603056F83330804683F8DA
:105A50008050FFF77FFE47EA082080B2BDE8F08162
:105A60005C92FF1F74F801002DE9F0410F4690464B
:105A70000446FFF7E3FE1A4B1A4E1868FFF718FEAC
:105A800094F8603056F83330012583F8005107F060
:105A90007F00FFF751FE4046FFF74EFE94F860305E
:105AA00056F8333083F8805094F8603056F833302D
:105AB000002083F80051FFF73FFE000287B200206C
:105AC000FFF73AFE94F8603056F83330384387B227
:105AD00083F88050FFF73EFE3846BDE8F08100BFF6
