:1000000000800020BD010000F1CC0000BDCC00004C
:10001000BDCC0000BDCC0000BDCC0000BDCC0000BC
:10002000BDCC0000BDCC0000BDCC0000F1CC000078
:10003000F1CC0000BDCC0000F1CC0000ADCC000044
:10004000F1CC0000F1CC0000F1CC0000F1CC0000BC
:10005000F1CC0000F1CC0000F1CC0000F1CC0000AC
:10006000F1CC0000F1CC0000F1CC0000F1CC00009C
:10007000F1CC0000F1CC0000F1CC0000F1CC00008C
:10008000F1CC0000F1CC0000F1CC0000F1CC00007C
:10009000F1CC0000F1CC0000F1CC0000F1CC00006C
:1000A000F1CC0000F1CC0000F1CC0000F1CC00005C
:1000B000F1CC0000F1CC0000F1CC0000F1CC00004C
:1000C000F1CC0000F1CC0000F1CC0000F1CC00003C
:1000D000F1CC0000F1CC0000F1CC0000F1CC00002C
:1000E000F1CC0000F1CC0000F1CC0000F1CC00001C
:1000F000F1CC00000DD60000F1CC0000D5F00000DE
:10010000F1CC00000DDB0000F1CC0000F1CC0000D0
:10011000F1CC0000F1CC0000F1CC0000F1CC0000EB
:10012000F1CC0000F1CC0000F1CC0000F1CC0000DB
:10013000F1CC0000F1CC0000F1CC0000F1CC0000CB
:10014000F1CC0000F1CC0000F1CC0000F1CC0000BB
:1001500089C20000A1C20000B9C20000D1C20000E3
:10016000F1CC000071DD0000F1CC0000F1CC00000A
:10017000F1CC0000F1CC0000F1CC0000F1CC00008B
:10018000F1CC0000F1CC0000F1CC0000F1CC00007B
:10019000F1CC0000F1CC0000F1CC0000F1CC00006B
:1001A000F1CC0000F1CC0000F1CC0000F1CC00005B
:1001B000F1CC0000F1CC000051BF0000564B4CF2D6
:1001C000205210B51A804DF628121A8000BF00BFC9
:1001D0000CF092FD514B4FF010621A60504A9A6039
:1001E000504ADA60A3F53043203B1A6812F480725B
:1001F00004D14D490A604FF4A8521A604B4B1A784B
:10020000110703D51A7842F008021A70484B2A22C7
:100210001A700023474A48499818884204D247492F
:10022000595899500433F5E7454A464B9A424FF0E6
:10023000000302D242F8043BF7E74349434A5958C6
:1002400099500433B3F5DE7FF7D1414B802103F899
:10025000011B40498B42F9D13F4B1A603F4B8A2228
:100260001A70A3F5805324225A70A0221A709A792A
:100270009207FCD59A79D406FCD4394B9A7902F0CE
:100280000C02082AF9D103221A7146225A719A796E
:100290009006FCD5324B9A795106FBD5314A4FF086
:1002A000827111600921516020221A702C4B9B79B8
:1002B00003F00C030C2BF9D12B4B2C4A1A602C4B5E
:1002C0002C4A1A6000225A60072243F8042C2A4A5A
:1002D000C3F80C2D62B60CF08DFE134B1B68DA07C9
:1002E00005D526480CF0A0FD254B264A1A60264B62
:1002F0001B785B0609D5224C224A2368934204D11D
:100300001E480CF091FD0023236015F0B9F90CF0A4
:10031000F9FC0CF007FCFEE70E200540308004409D
:10032000823F04000100002B14D0034002D007409C
:1003300000E00740708DFF1F5091FF1F34E3010064
:100340005091FF1FACDEFF1F000000000082FF1F66
:1003500000E400E05FE400E008ED00E0005006404B
:10036000004006404480044004800440C010050062
:1003700014E000E0BFD4010000002020E60C125978
:100380001CE00340A5C3945A00F00740FFFFFFFFA5
:10039000FFFFFFFFFFFFFFFFFFFFFFFFFFFFFFFF6D
:1003A000FFFFFFFFFFFFFFFFFFFFFFFFFFFFFFFF5D
:1003B000FFFFFFFFFFFFFFFFFFFFFFFFFFFFFFFF4D
:1003C000FFFFFFFFFFFFFFFFFFFFFFFFFFFFFFFF3D
:1003D000FFFFFFFFFFFFFFFFFFFFFFFFFFFFFFFF2D
:1003E000FFFFFFFFFFFFFFFFFFFFFFFFFFFFFFFF1D
:1003F000FFFFFFFFFFFFFFFFFFFFFFFFFFFFFFFF0D
:10040000FFFFFFFFFFFFFFFFFFFFFFFFDEF9FFFF23
:1004100010B5054C237833B9044B13B10448AFF33E
:1004200000800123237010BD5091FF1F00000000C9
:1004300034E3010008B5064B1BB106480649AFF38B
:1004400000800648036813B1054B03B1984708BD07
:100450000000000034E301005491FF1F5091FF1F82
:10046000000000000369C268934210B509D2826897
:100470005C1C0461D154826803690021D1540120BD
:1004800010BD002010BD44F2040210B58358CC18F2
:10049000B4F5804F07D8033121F00301194481508E
:1004A0001844043010BD002010BD18B111B101393D
:1004B0000068FAE7704738B504460D4634B128465F
:1004C000616815F013FA08B12468F7E7204638BDD3
:1004D00038B54068FFF7EFFF044680B1057A012D7B
:1004E00005D1C16819B1074815F000FA20B1013DE6
:1004F000012D03D8E46802E0044600E00024204611
:1005000038BD00BFE861010070B5066804460846C2
:100510000D4615F018FA336802465B6830462946E6
:10052000984763681844606070BD30B587B000229A
:100530008DF815200B4605AA0A25B3FBF5F405FB3B
:1005400014333033114602F801392346002CF3D11D
:10055000FFF7DAFF07B030BD10B504460068036846
:100560001B68984763681844606010BD70B5044606
:100570000D4619B91249FFF7C7FF70BD2221FFF7D9
:10058000EBFF013D15F8012F7AB10E4B13F8026C09
:1005900086B1023313F8031C9142F7D120465C2147
:1005A000FFF7DAFF2046314606E020462221FFF71A
:1005B000D3FF70BD20461146FFF7CEFFE2E700BF34
:1005C000E8610100EF61010008B503280AD8DFE8FF
:1005D00000F0021105074FF07E5008BD064808BD27
:1005E000064808BD0438C0B2FFF7EEFF04490FF01B
:1005F000D5FB08BD034808BD0AD7233C6F12833AD8
:1006000017B7D138CDCCCC3D2DE9F0410546084691
:100610000C46174613F08EFF10B92846494911E0E1
:10062000204600210FF058FD28B128462D21FFF764
:1006300093FF04F10044204613F07CFF012805D10C
:1006400041492846FFF760FFBDE8F08120463F4959
:100650000FF060FD20B920463D490FF03DFD00B38D
:100660000026204600210FF02DFD68B920464FF0EE
:100670007E510FF031FD38B1204636490FF08EFB28
:10068000013EB6B20446ECE7204632490FF042FD87
:1006900040B120462F490FF035FC0136B6B2044672
:1006A000F2E706463846FFF78FFF4FF07C510FF018
:1006B00075FB014620460FF069FA04460FF05AFD1B
:1006C00080460FF013FB014620460FF05DFA4146CD
:1006D00004462846FFF729FF1FB128462E21FFF7C1
:1006E0003BFFCFB11B4920460FF058FB04460FF0EB
:1006F00041FD5FFA80F840460FF0F8FA01462046C7
:100700000FF042FA08F130010446C9B22846013F11
:10071000FFF722FFFFB2E4E734B2002C06DA2846E6
:100720000D49FFF7F1FE2846614206E03EB128463A
:100730006521FFF711FF28462146FFF7F6FEBDE8C9
:10074000F08100BFFC6101000062010000007A44FA
:100750006F12833A0000204109620100024608B589
:10076000084619B10B6811461B68984708BDFFFF82
:1007700038B5084C236813F0010509D120460CF068
:10078000CCFA28B1044B20461D605D600CF0CBFA1A
:10079000014838BD8091FF1F6C91FF1F08B540686C
:1007A000FFF789FE20B1037A062B01D1C06808BD8E
:1007B000FFF7DEFF08BDFFFF38B5084C236813F0D4
:1007C000010509D120460CF0A8FA28B1044B2046B7
:1007D0001D605D600CF0A7FA014838BD7C91FF1FD9
:1007E0007491FF1F03780D2B09D003D8093B012B0F
:1007F00023D804E0202B02D02F2B02D070470130E9
:10080000F0E743782A2B02D02F2B0DD07047831CA2
:100810001A7818460133002AE4D02A2AF8D11A7827
:100820002F2AF5D10230DDE7831C184613F8012B7F
:10083000002AD7D00A2AF8D1D4E7704738B5044641
:1008400000680D46FFF7CEFF0378AB4205D10130BB
:10085000FFF7C8FF2060012038BD002038BDFFFF32
:1008600070B5426884681378272B01D0222B27D1DA
:100870005178551C51B3994201D1951C26E05C2951
:100880000BD1951C9178154A16782EB18E4201D164
:10089000517801E00232F7E7C1B104F8011B2A46A2
:1008A000E6E723F020014139192905D92B2B03D084
:1008B000A3F12D01012909D804F8013B12F8013FE9
:1008C000A3F1300109291546F6D9EAE7002304F817
:1008D000013B836845608460184670BDF16101008A
:1008E000027838B505460C46072A3CD8DFE802F006
:1008F00041241F302B27041B456808465B21FFF766
:100900002BFE6D682DB1281D2146FFF7E9FF2D68EC
:1009100025B920465D21FFF71FFE38BD20462C215A
:10092000FFF71AFEEFE7406800F028F838BD0846E8
:100930006968FFF71BFE38BD0846696810E0084685
:100940002D21FFF709FE20466968FFF7EEFD38BD4F
:100950004168084B084A204600290CBF1146194639
:10096000FFF7D2FD38BD083A0846D2B26968FFF7F2
:100970004BFE38BD0C6201001162010070B50546E6
:100980000C4608467B21FFF7E7FD6D687DB12E46DA
:10099000204656F8041FFFF7E9FD20463A21FFF7ED
:1009A000DBFD301D2146FFF79BFF2D6825B9204652
:1009B0007D21FFF7D1FD70BD20462C21FFF7CCFD36
:1009C000E5E710B5044621460820FFF7C7FE18B139
:1009D00000230460436010BDFFF7CAFE10BD10B5D0
:1009E000044621460820FFF7B9FE18B10023046031
:1009F000436010BDFFF7E0FE10BDFFFF037810B5A8
:100A0000052B1BD8DFE803F01E0808030305406828
:100A100010BD4068404210BD44685CB10A482146A0
:100A200014F064FF40B1204600210A22BDE81040C6
:100A300015F026B8204610BD012010BD40680FF00B
:100A400073FB10BD002010BD0C620100037810B5CF
:100A5000052B14D8DFE803F01705050303034068EE
:100A600010BD44688CB10B48214614F03FFF70B1B3
:100A7000204600210A22BDE8104015F087B84068E2
:100A80000FF078FB10BD002010BD204610BD0120E6
:100A900010BD00BF0C62010070B504460CF076FA80
:100AA000E0640CF073FA25460023206545F8583FB2
:100AB0004FF48A700CF058F9294606460BF036F9C7
:100AC000E66604F1740010F0C3FD04F1940010F028
:100AD000BFFD204670BDFFFFF0B585B004460D4652
:100AE00068461A491F4616460BF0F9FC684608F09E
:100AF0000DFF68460BF0B3FC0A9BA5646665A7660C
:100B00002367162010F014F948B9114968460BF014
:100B1000E6FC684608F0FAFE68460BF0A0FC0023ED
:100B20006370A370E370E21801330021402B9171D0
:100B3000F9D1084968460BF0D2FC684608F0E6FE99
:100B400068460BF08CFC05B0F0BD00BF17620100D9
:100B5000456201006B62010030B5002185B00A4694
:100B6000054602F061F80224214B23442146284621
:100B700033F8022C023402F057F80A2CF4D11D4B42
:100B800023442146284633F80A2C023402F04CF85C
:100B9000122CF4D1184B23442146284633F8122C4A
:100BA000023402F041F81A2CF4D1144B23442146AC
:100BB000284633F81A2C023402F036F82A2CF4D1E5
:100BC0000F4B23442146284633F82A2C023402F0E6
:100BD0002BF83A2CF4D10B4968460BF080FC6846A0
:100BE00008F094FE68460BF03AFC05B030BD00BF3B
:100BF0006A8EFF1F948EFF1F748EFF1F848EFF1F4F
:100C00005A8EFF1FA662010030B5002185B005464F
:100C100002F01CF84FF6FF73984218BF02243CD133
:100C20003A4968460BF05BFC684608F06FFE684680
:100C30000BF015FC354968460BF051FC684608F08E
:100C400065FE68460BF00BFC304968460BF047FC2C
:100C5000684608F05BFE68460BF001FC2B496846CD
:100C60000BF03DFC684608F051FE68460BF0F7FBC0
:100C7000264968460BF033FC684608F047FE684694
:100C80000BF0EDFB214968460BF029FC684608F0A3
:100C90003DFE68460BF0E3FB36E02146284601F0B6
:100CA000D5FF1B4B234402340A2C23F8020CF4D149
:100CB0002146284601F0CAFF164B23440234122C69
:100CC00023F80A0CF4D12146284601F0BFFF124B4D
:100CD000234402341A2C23F8120CF4D1214628465E
:100CE00001F0B4FF0D4B234402342A2C23F81A0CD4
:100CF000F4D12146284601F0A9FF094B23440234D0
:100D00003A2C23F82A0CF4D105B030BDD062010092
:100D10006A8EFF1F948EFF1F748EFF1F848EFF1F2D
:100D20005A8EFF1F0803704710B588B00023013AA0
:100D3000059106920B7003AA064C8DF8103001A99C
:100D40000394079301920293FFF718FE029808B0EC
:100D500010BD00BFD061010010B504460C20216811
:100D6000FFF7FCFC10B100230360037163682BB133
:100D70001A680AB11346FBE7186010BD606010BD29
:100D800010B50C46FFF7E8FF20B1237883600422FA
:100D90000271012010BD10B50C46FFF7DDFF48B110
:100DA00094F90030002BAEBF04225B420522027191
:100DB0008360012010BD10B5044610202168FFF7A4
:100DC000CDFC10B100230360037263682BB11A6875
:100DD0000AB11346FBE7186010BD606010BD2DE935
:100DE000F3410446074654F8040BFFF7F8FD7B2156
:100DF00006462046FFF722FD002833D020467D21FD
:100E0000FFF71CFD88BB3846FFF72AFD804648B334
:100E100020463A21FFF712FD20B302AD00233846E9
:100E2000694605F8083D00F024F8D8B170684146DD
:100E3000FFF741FB28B93046FFF7BDFF90B1C0F87E
:100E4000048000F1080395E8030083E803002046CE
:100E50007D21FFF7F3FC40B920462C21FFF7EEFC83
:100E60000028D0D1FFF7A8FC00E0304602B0BDE872
:100E7000F08170B50446007B0D46002834D001385F
:100E800020736068FFF7AEFC606003785B2B02D0D4
:100E90007B2B07D012E0204600F027F803685BB1F7
:100EA000062305E02046FFF79AFF036823B10723D6
:100EB00068602B70012014E0184612E0272B03D045
:100EC000223B5E425E4100E001262046FFF7C8FC5F
:100ED00038B1012216B102232B7000E02A7068603D
:100EE0001046237B0133237370BDF7B504460746D4
:100EF00054F8040BFFF765FD5B2106462046FFF71B
:100F00009DFC08B320465D21FFF798FCF8B902ADBF
:100F100000233846694605F8083DFFF7AAFF98B157
:100F20003046FFF719FF78B1031D95E8030083E809
:100F3000030020465D21FFF781FC40B920462C21AB
:100F4000FFF77CFC0028E2D1FFF712FC00E03046FE
:100F500003B0F0BD70B5054640680E461446FFF775
:100F6000AAFA20B92846FFF726FF50B14660236849
:100F7000002B08BF00240CBF002306230372C460AB
:100F8000012070BD70B5054600680E4610B9FFF728
:100F9000EFFB70BDFFF715FD04463146284622469B
:100FA000FFF7D8FF204670BD2DE9F04FADF5804D1D
:100FB00085B0A74B0191029302A944F204030546B0
:100FC000144608460022CA50FFF709FDA14982468F
:100FD000FFF7D8FF40F60813696D5C43214401F622
:100FE00002010646FFF7CCFE696D214401F60A01B5
:100FF0003046FFF7C5FE696D214401F60601304613
:10100000FFF7BEFE696D214401F607013046FFF788
:10101000B7FE696D214401F609013046FFF7B0FEC5
:10102000696D214401F608013046FFF7A9FE696D9C
:10103000214401F6DB013046FFF7ADFE696D214426
:1010400001F60B013046FFF79BFE696D214401F666
:101050000C013046FFF794FE696D214401F60D0145
:101060003046FFF78DFE696D214401F60E013046D2
:10107000FFF786FE696D214401F60F013046FFF748
:101080007FFE696D214401F501613046FFF778FE6E
:10109000696D214401F611013046FFF771FE696D5B
:1010A000214401F612013046FFF76AFE696D2144C2
:1010B00001F613013046FFF763FE696D214401F626
:1010C00014013046FFF75CFE696D2144304601F69D
:1010D0001501FFF755FEDAF8000018B9FFF748FBD5
:1010E000834607E0FFF76DFC83465B4950465A464E
:1010F000FFF730FF4FF00009DBF8000018B9FFF7E9
:1011000037FB064612E0FFF75CFC06465846FFF741
:1011100023FE58B13368002B009B18BF3346009361
:101120000CBF002306230371009B83603046FFF74A
:1011300013FE18B104230371C0F80890696D4FEADB
:101140004917214439443046FFF71AFE696D7B1C6C
:10115000214419443046FFF713FE696DBB1C21443E
:1011600019443046FFF70CFE696DFB1C21441944FD
:101170003046FFF705FE6B6D2344D9190431304624
:10118000FFF7FEFD6B6D07F10808234403EB080130
:1011900004313046FFF7FFFD6B6D2344D91905314B
:1011A0003046FFF7EDFD6B6D2344D919063130460B
:1011B000FFF7E6FD6B6D2344D91907313046FFF781
:1011C000DFFD696D214441443046FFF7D9FD6B6D69
:1011D000234403EB080101313046FFF7D1FD6B6D6D
:1011E000234403EB080102313046FFF7C9FD6B6D64
:1011F000234403EB080105313046FFF7C1FD6B6D59
:10120000234403EB080106313046FFF7B9FD6B6D4F
:10121000234403EB080107313046FFF7B1FD6B6D46
:10122000234403EB08013046033109F10109FFF7BC
:10123000A7FDB9F1400F7FF45FAF504601994FF41D
:101240008052FFF771FD0DF5804D05B0BDE8F08FC0
:10125000E0610100636301006C6301002DE9F04F60
:1012600099B017468A46044600F031FF8E49C6B24F
:1012700004A80BF034F9514668460BF066F969464C
:1012800004A80BF0EEF989490BF0F4F9394605464C
:1012900008A80BF05AF9284608A90BF0E2F984498E
:1012A0000BF0E8F9314605460CA80BF04EF928463C
:1012B0000CA90BF0D6F97F490BF0DCF935030A22B3
:1012C0008046294610A80BF053F910A940460BF0B0
:1012D000C8F9014614A80BF01DF914A808F016FB74
:1012E00014A80BF0BCF810A80BF0B9F80CA80BF080
:1012F000B6F808A80BF0B3F8684604EB06080BF044
:10130000AEF804A80BF0ABF898F80630002B3FD0ED
:10131000204600F087FF6849834604A80BF0DFF8F9
:10132000314668460BF011F9694604A80BF099F9AB
:1013300062490BF09FF998F80630614981461944DB
:101340000CA80BF0CCF80A22594608A80BF010F9AB
:1013500008A90CA80BF085F9014610A80BF0DAF8E3
:1013600010A948460BF07DF9014614A80BF0D2F8FD
:1013700014A808F0CBFA14A80BF071F810A80BF021
:101380006EF808A80BF06BF80CA80BF068F8B3E740
:101390004FF0010984F803900BF0F8FD20654948EF
:1013A00014F0B6FA494680464FF4805014F04EF9D6
:1013B00081464946204652463B46FFF7F5FD0FF071
:1013C00045FC0028FBD014A841460FF05BFD14AA91
:1013D00004F158030DF1580E174603CF77451860F6
:1013E00059603A4603F10803F6D138681860BA88A4
:1013F0009A80A06D00283CD1334914A80BF06FF8F7
:1014000014A808F083FA14A80BF029F82F4910A8A3
:101410000BF065F841460CA80BF061F80CA910A878
:101420000BF01FF9014614A80BF074F814A808F08B
:101430006DFA14A80BF013F80CA80BF010F810A814
:101440000BF00DF8204914A80BF049F814A808F087
:101450005DFA14A80BF003F8484614F03FF9404633
:1014600014F03CF90023E3700123237019B0BDE8A8
:10147000F08FE76D256605F58053BB4210D9BD425C
:1014800008D27F1B3A46284449460FF01FFA236EC4
:101490001F44276620463146012200F015FEDBE797
:1014A0004FF48057EEE700BF7163010082630100D3
:1014B0008D6301009C630100AB630100DE630100EA
:1014C000E8630100FD63010006640100156401008A
:1014D00008B54068FEF7E9FF18B10430FFF7B6FA27
:1014E000C0B208BD08B54068FEF7DFFF18B1043090
:1014F000FFF784FAC0B240B208BD08B54068FEF7F5
:10150000D4FF20B10379062B01D1806808BDFFF715
:101510002FF908BD2DE9F04FADF5804D9DB0BD4BC5
:101520001A93144644F204031AAA074600250E46ED
:1015300016A8B949D5500AF0D2FF16A808F0E6F966
:1015400016A80AF08CFF1AAB1693B44B1894AC4251
:1015500018BF23464FF00A0916A817938DF8649018
:10156000FFF73DFC0446AE4912A80AF0B8FF216817
:10157000491B18BF01214A460EA80AF0F9FF0EA91F
:1015800012A80BF06EF8014616A80AF0C3FF16A8C1
:1015900008F0BCF916A80AF062FF0EA80AF05FFF77
:1015A00012A80AF05CFF9F4916A80AF098FF16A837
:1015B00008F0ACF916A80AF052FF40F608135E4393
:1015C0007B6D9949204603EB0608FFF7E7F82946AB
:1015D000FFF77EFF88F802087B6D9349204603EBF6
:1015E0000608FFF7DBF80121FFF772FF88F80A0809
:1015F0007B6D8D49204603EB0608FFF7CFF80221EB
:10160000FFF766FF88F806087B6D8749204603EBE5
:101610000608FFF7C3F80321FFF75AFF88F8070809
:101620007B6D8149204603EB0608FFF7B7F80421DC
:10163000FFF74EFF88F809087B6D7B49204603EBD6
:101640000608FFF7ABF80521FFF742FF88F8080806
:101650007B6D7549204603EB0608FFF79FF80621CE
:10166000FFF740FF88F8DB087B6D6F49204603EBEE
:101670000608FFF793F80721FFF72AFF88F80B0801
:101680007B6D6949204603EB0608FFF787F80821C0
:10169000FFF71EFF88F80C087B6D6349204603EBBB
:1016A0000608FFF77BF80921FFF712FF88F80D08FD
:1016B0007B6D5D49204603EB0608FFF76FF849464E
:1016C000FFF706FF88F80E087B6D5749204603EBAD
:1016D0000608FFF763F80B21FFF7FAFE88F80F08FA
:1016E0007B6D5149204603EB0608FFF757F80C21A4
:1016F000FFF7EEFE88F810087B6D4B49204603EBA0
:101700000608FFF74BF80D21FFF7E2FE88F81108F5
:101710007B6D4549204603EB0608FFF73FF80E2195
:10172000FFF7D6FE88F812087B6D3F49204603EB91
:101730000608FFF733F80F21FFF7CAFE88F81308F1
:101740007B6D3949204603EB0608FFF727F8102187
:10175000FFF7BEFE88F814087B6D3349204603EB83
:101760000608FFF71BF81121FFF7B2FE2F4988F892
:10177000150812A80AF0B3FE7B6D33440EA893F847
:1017800008180AF0E2FE0EA912A80AF06AFF28491A
:101790000AF070FF014616A80AF0BCFE16A808F071
:1017A000B5F816A80AF05BFE0EA80AF058FE12A8BB
:1017B0000AF055FE1F492046FEF78AFE014616A88C
:1017C0000AF08DFE16A808F0A1F816A80AF047FE48
:1017D00019492046FEF7E2FF8046184912A80AF090
:1017E0007EFED8F80010491B18BF01214A460EA8FA
:1017F0000AF0BEFE0EA912A80AF033FF014616A891
:101800000AF088FE16A808F081F816A80AF027FE4C
:101810000EA815E0E0610100306401006F6C01006A
:10182000456401005B640100636301006E640100B4
:101830008364010016D001006C6301008C64010018
:101840000AF00DFE12A80AF00AFE634916A80AF073
:1018500046FE16A808F05AF816A80AF000FE294617
:101860004046FFF74AFE0121FFF732FE294603906A
:101870004046FFF742FE0221FFF72AFE2946049068
:101880004046FFF73AFE0321FFF722FE2946059066
:101890004046FFF732FE0421FFF71AFE2946069064
:1018A0004046FFF72AFE0521FFF712FE2946079062
:1018B0004046FFF722FE0621FFF714FE2946089056
:1018C0004046FFF71AFE0721FFF702FE294609905E
:1018D0004046FFF712FE0821FFF7FAFD29460A905D
:1018E0004046FFF70AFE0921FFF7F2FD29460B905B
:1018F0004046FFF702FE0A21FFF7EAFD29460C9059
:101900004046FFF7FAFD0B21FFF7E2FD29460D9057
:101910004046FFF7F2FD0C21FFF7DAFD2946844629
:101920004046CDF808C0FFF7E8FD0D21FFF7D0FDD8
:10193000294683464046FFF7E0FD0E21FFF7C8FD2C
:10194000294682464046FFF7D8FD0F21FFF7C0FD2C
:10195000294681464046FFF7D0FD1021FFF7B8FD2C
:10196000294600904046FFF7C8FD0021FFF7B0FD73
:10197000796D039A314440010B180A54049A5A7045
:10198000059A9A70069ADA70079A1A71099A5A712A
:101990000A9A9A710B9ADA710C9A1A720D9A5A7203
:1019A0000135009ADDF808C0DA72402D089A83F8F4
:1019B0000AC01A7383F80DB083F80EA083F80F9055
:1019C0007FF44DAF2068003018BF01200DF5804D29
:1019D0001DB0BDE8F08F00BFA66401002DE9F04303
:1019E00004468DB0A4489146884613F091FFA34960
:1019F000054604A80AF073FD294668460AF06FFD03
:101A0000694604A80AF02DFE9D490AF033FE0146FE
:101A100008A80AF07FFD08A807F078FF08A80AF0D8
:101A20001EFD68460AF01BFD04A80AF018FD2846B2
:101A30000FF0A8FA002845D0924908A80AF04FFDF7
:101A400008A807F063FF08A80AF009FD08A82946BE
:101A50000FF018FA08AE04F158030AAA374603CF6C
:101A60009742186059603E4603F10803F6D1386882
:101A70001860BA889A80A36D002B32D1824904A8DD
:101A80000AF02DFD294668460AF029FD694604A89A
:101A90000AF0E7FD7D490AF0EDFD014608A80AF0CD
:101AA00039FD08A807F032FF08A80AF0D8FC6846FC
:101AB0000AF0D5FC04A80AF0D2FC284613F00EFE6A
:101AC0000220D5E0284613F009FE714908A80AF063
:101AD00006FD08A807F01AFF08A80AF0C0FC0120BC
:101AE000C6E06C4908A80AF0FAFC08A807F00EFF47
:101AF00008A80AF0B4FC4FF4805013F0E7FD0A2266
:101B00004FF48051064668460AF032FD694604A843
:101B10000AF000FD604904A80AF0ACFD014608A8DF
:101B20000AF0F8FC08A807F0F1FE08A80AF097FCF4
:101B300004A80AF094FC68460AF091FC574904A8EE
:101B40000AF0CDFC41464A46204600F0C0FAC1B238
:101B50000A22090368460AF00BFD694604A80AF048
:101B600080FD014608A80AF0D5FC08A807F0CEFEC3
:101B700008A80AF074FC68460AF071FC04A80AF090
:101B80006EFC474904A80AF0AAFC41464A46204692
:101B900000F09DFA0A22014668460AF0E9FC69460F
:101BA00004A80AF05EFD014608A80AF0B3FC08A8E4
:101BB00007F0ACFE08A80AF052FC68460AF04FFC99
:101BC00004A80AF04CFC4A462046414600F07FFA41
:101BD000C0B20303E76D236603F58052BA4244D9CD
:101BE000BB4209D2FF1AA06D3A46184431460EF0A6
:101BF00085FD236E1F4427662A4908A80AF06FFC5A
:101C000008A807F083FE08A80AF029FC314608A8B6
:101C10000AF065FC08A807F079FE08A80AF01FFC86
:101C2000204641463246FFF775FC10B108A81E4910
:101C300001E01E4908A80AF052FC08A807F066FE59
:101C400008A80AF00CFC304613F048FD284613F0B3
:101C500045FD174908A80AF042FC08A807F056FEFF
:101C600008A80AF0FCFB002002E04FF48057BAE716
:101C70000DB0BDE8F08300BFB9640100C16401008C
:101C8000E36401000265010011660100BB6501000B
:101C9000CE6501004E6601005D6601006E660100C2
:101CA0007C66010026650100306501004365010086
:101CB000916501002DE9F04194B00D4606468E492C
:101CC0000CA890460AF00BFC294608A80AF03DFC37
:101CD00008A90CA80AF0C5FC88490AF0CBFC01460B
:101CE00010A80AF017FC10A807F010FE10A80AF0C0
:101CF000B6FB08A80AF0B3FB0CA80AF0B0FB00245E
:101D000048FA04F3DB070CA81CD47D490AF0E7FB72
:101D10000A22214608A80AF02BFC08A90CA80AF000
:101D2000A0FC014610A80AF0F5FB10A807F0EEFD94
:101D300010A80AF094FB08A80AF091FB0CA80AF07E
:101D40008EFB76E06F490AF0CAFB0A22214608A8FA
:101D50000AF00EFC08A90CA80AF083FC014610A8A2
:101D60000AF0D8FB10A807F0D1FD10A80AF077FB05
:101D700008A80AF074FB0CA80AF071FB62490CA8D1
:101D80000AF0ADFB0A22214608A80AF0F1FB08A9D7
:101D90000CA80AF066FC014610A80AF0BBFB10A8CC
:101DA00007F0B4FD10A80AF05AFB08A80AF057FB88
:101DB000E7B20CA80AF053FB304639462A46FFF733
:101DC0000DFE01281FD1514910A80AF088FB10A868
:101DD00007F09CFD10A80AF042FB736D40F6081056
:101DE00000FB04303A46294602F06EFF484910A82D
:101DF0000AF075FB10A807F089FD10A80AF02FFB68
:101E000010A8444903E0022809D1434910A80AF068
:101E100066FB10A807F07AFD10A80AF020FB3F49E6
:101E200010A80AF05CFB10A807F070FD10A80AF0DB
:101E300016FB0134042C7FF463AF394C394904A8F4
:101E40000AF04DFB217868460AF07FFB694604A83A
:101E50000AF007FC34490AF00DFC2946064608A89A
:101E60000AF073FB08A930460AF0FBFB2F490AF081
:101E700001FC2F4B064619780CA80AF066FB0CA94A
:101E800030460AF0EEFB014610A80AF043FB10A80A
:101E900007F03CFD10A80AF0E2FA0CA80AF0DFFAFD
:101EA00008A80AF0DCFA68460AF0D9FA04A80AF091
:101EB000D6FA0CA81F4925700AF011FB294608A87C
:101EC0000AF043FB08A90CA80AF0CBFB1A490AF058
:101ED000D1FB014610A80AF01DFB10A807F016FD63
:101EE00010A80AF0BCFA08A80AF0B9FA0CA80AF07F
:101EF000B6FA14B0BDE8F081896601002A680100D5
:101F0000B2660100CC660100DD66010007670100D2
:101F1000356701006367010087670100A46701005E
:101F20005CD7FF1FB6670100D5670100DA670100C3
:101F300031D7FF1FFB6701001C6801002DE9F0414C
:101F400094B006460D4690469DF8687073B3002421
:101F5000736D40F6081202FB0433E1B2304693F889
:101F600008280134FFF77AF9042CF1D144490CA870
:101F70000AF0B5FA434B08A819780AF0E6FA08A95E
:101F80000CA80AF06EFB40490AF074FB014610A849
:101F90000AF0C0FA10A807F0B9FC10A80AF05FFA1E
:101FA00008A80AF05CFA0CA80AF059FA1FB9374BD6
:101FB0001B78002B42D104A835490AF090FA294633
:101FC00068460AF0C2FA694604A80AF04AFB314999
:101FD0000AF050FB0A220446394608A80AF0C8FA5B
:101FE00008A920460AF03DFB2B490AF043FB274B8A
:101FF0000A22197804460CA80AF0BAFA0CA920465D
:102000000AF02FFB014610A80AF084FA10A807F086
:102010007DFC10A80AF023FA0CA80AF020FA08A800
:102020000AF01DFA68460AF01AFA04A80AF017FA2C
:10203000304629464246FFF73DFE1DE0174B184942
:102040001D700CA80AF04BFA294608A80AF07DFA80
:1020500008A90CA80AF005FB014610A80AF05AFAD4
:1020600010A807F053FC10A80AF0F9F908A80AF024
:10207000F6F90CA80AF0F3F914B0BDE8F08100BF3E
:10208000426801005CD7FF1F5368010048D7FF1F5B
:1020900064680100816801008C68010031D7FF1F6E
:1020A00097680100044A054B1360054A1360054A0E
:1020B00013600AF0BDBC00BF8C91FF1F03200038E5
:1020C0008891FF1F8491FF1F01448A71704701EBC3
:1020D00082007047F0B5044691B04D4813F018FCEB
:1020E00005460EF04FFF002834D14A4904A80AF0F3
:1020F000F6F9294668460AF0F2F9694604A80AF09A
:10210000B0FA45490AF0B6FA0A2206464FF4802191
:1021100008A80AF02DFA08A930460AF0A2FA0146EA
:102120000CA80AF0F7F90CA807F0F0FB0CA80AF0CD
:1021300096F908A80AF093F968460AF090F904A8FD
:102140000AF08DF90EF068FE4FF480210246284611
:102150000EF024FF284613F0C1FA304813F0D8FBE4
:1021600006460EF00FFF20BB08A82D490AF0B7F96C
:10217000314604A80AF0B3F904A908A80AF071FAD4
:1021800001460CA80AF0C6F90CA807F0BFFB0CA882
:102190000AF065F904A80AF062F908A80AF05FF9E4
:1021A0000EF03AFE4FF48021024630460EF0F6FE65
:1021B00018E00CA831460EF065FE04F158030CAA95
:1021C0000DF1380E1F46154603CD75451860596050
:1021D0002A4603F10803F6D128681860AA889A8075
:1021E000A36D7BB9304613F079FA0EF02FFD00286D
:1021F000FBD0002384F846306370204600F0D8FC02
:1022000011B0F0BD0023236638460FF009F8E9E766
:10221000B9640100C9680100DE680100FD630100C6
:10222000E66801002DE9F04FC77893B004462FB15E
:10223000032092E37B1C402B06D01F4604EB070BC8
:102240009BF80630002BF5D00AF0A0FEE36C4CF2B0
:102250005032C01A904240F22D82964813F058FB3B
:102260000190954813F054FB81460EF0EFFC0028D6
:1022700000F0EC814FF48050012113F0E7F99BF856
:1022800006305FFA87F8013B4FEA980608F003052D
:102290008246032B00F2D781DFE813F004005C00D4
:1022A00024017C01854906A80AF019F9294602A8EB
:1022B0000AF04BF902A906A80AF0D3F980490AF0FE
:1022C000D9F9314683460AA80AF03FF958460AA9C7
:1022D0000AF0C7F901460EA80AF01CF90EA807F08B
:1022E00015FB0EA80AF0BBF80AA80AF0B8F802A875
:1022F0000AF0B5F806A80AF0B2F80EA849460EF0A2
:10230000C1FD04F158030EAA0DF1400C9B46964600
:10231000BEE80300E64518605960724603F1080301
:10232000F5D11068186092889A80A36D002B00F098
:10233000C28141462046FEF7F5FC274420665846F8
:102340000EF084FF0223BB710AF020FEE06406A8B1
:102350005C494FE15C4906A80AF0C1F8294602A889
:102360000AF0F3F802A906A80AF07BF954490AF02A
:1023700081F9314683460AA80AF0E7F80AA95846C7
:102380000AF06FF951490AF075F901460EA80AF0F2
:10239000C1F80EA807F0BAFA0EA80AF060F80AA869
:1023A0000AF05DF802A80AF05AF806A80AF057F8F1
:1023B0000EA801990EF066FD0EAA04F158030DF166
:1023C000400C9646BEE80300E64518605960724628
:1023D00003F10803F5D11068186092889A803C498F
:1023E0000EA80AF07CF80EA807F090FA0EA80AF0E2
:1023F00036F8A36D002B40F08B81364906A80AF011
:102400006EF894F8461002A80AF09FF802A906A8F0
:102410000AF027F930490AF02DF9294683460AA81F
:102420000AF093F80AA958460AF01BF901460EA8CB
:102430000AF070F80EA807F069FA0EA80AF00FF873
:102440000AA80AF00CF802A80AF009F806A80AF08F
:1024500006F822490EA80AF042F80EA807F056FA2C
:102460000EA809F0FCFF0EA849460EF00BFD0EAABF
:1024700004F158030DF1400C9646BEE80300E64512
:1024800018605960724603F10803F5D110681860AE
:1024900092889A8012490EA80AF021F80EA807F037
:1024A00035FA0EA809F0DBFFA36D002B40F0808108
:1024B000F9E100BFFD630100B9640100FC6801009F
:1024C0002C690100316901006A690100AA690100F3
:1024D000B5BA0100106B0100616B0100A9BB0100DE
:1024E000E6BB0100A74906A809F0F9FF294602A8A2
:1024F0000AF02BF802A906A80AF0B3F8A2490AF0DC
:10250000B9F8314683460AA80AF01FF858460AA9C6
:102510000AF0A7F801460EA809F0FCFF0EA807F084
:10252000F5F90EA809F09BFF0AA809F098FF02A888
:1025300009F095FF06A809F092FF0EA801990EF088
:10254000A1FC04F158030EAA0DF1400C9B469646DF
:10255000BEE80300E64518605960724603F10803BF
:10256000F5D11068186092889A80A36D002B00F056
:10257000C78141462046FEF7D5FB206658460EF03F
:1025800065FE0AF003FD27440423E064BB7106A83E
:102590007E492FE07E4906A809F0A1FF294602A83E
:1025A00009F0D3FF02A906A80AF05BF876490AF001
:1025B00061F8314607460AA809F0C7FF0AA938465C
:1025C0000AF04FF801460EA809F0A4FF0EA807F084
:1025D0009DF90EA809F043FF0AA809F040FF02A8E0
:1025E00009F03DFF06A809F03AFF002369498BF87E
:1025F000063006A809F073FF294602A809F0A5FFD6
:1026000002A906A80AF02DF85F490AF033F831460E
:1026100005460AA809F099FF0AA928460AF021F8F8
:1026200001460EA809F076FF0EA807F06FF90EA874
:1026300009F015FF0AA809F012FF02A809F00FFF20
:1026400006A809F00CFF504613F048F8484613F06E
:1026500045F8019813F042F800231D46E2189279DC
:102660000AB10135EDB20133402BF7D123780BB31A
:1026700005BB49490AA809F032FF0AF087FC216D21
:102680000A22411A06A809F099FF06A90AA809F02A
:10269000E8FF01460EA809F03DFF0EA807F036F945
:1026A0000EA809F0DCFE06A809F0D9FE0AA809F078
:1026B000D6FE257051E106A8384909F010FF94F8BC
:1026C000461002A809F041FF02A906A809F0C9FFB7
:1026D000334909F0CFFF494607460AA809F0FFFE33
:1026E0000AA9384609F0BDFF01460EA809F012FFFD
:1026F0000EA807F00BF90EA809F0B1FE0AA809F020
:10270000AEFE02A809F0ABFE06A809F0A8FE1EE680
:1027100041462046FEF706FB224920660EA809F036
:10272000DEFE0EA807F0F2F80EA809F098FE236E60
:10273000E26D03F58051914221D993420AD2C3EB55
:10274000020BA06D514618445A460DF0D7FF236E78
:102750005B44236614490EA809F0C1FE0EA807F0D9
:10276000D5F80EA809F07BFE10490EA809F0B7FEB7
:102770000EA807F0CBF80EA809F071FE69E64FF439
:10278000805BDEE7046A01002C690100356A010004
:102790006F6A0100AE6A0100F76A0100106B010068
:1027A000336B0100F2BA01002FBB01006CBB0100CA
:1027B00020464146FEF7B6FAE36D206600F58052EA
:1027C0009A426DD998420AD2C0EB0308A36D5146D4
:1027D000184442460EF07AF8236E434423660AF00A
:1027E000D5FB5F49E06406A809F079FE294602A8F6
:1027F00009F0ABFE02A906A809F033FF594909F018
:1028000039FF314680460AA809F09FFE0AA94046D2
:1028100009F027FF544909F02DFF01460EA809F0E1
:1028200079FE0EA807F072F80EA809F018FE0AA8A3
:1028300009F015FE02A809F012FE06A809F00FFE25
:1028400051460EA809F04BFE0EA807F05FF80EA83F
:1028500009F005FE45490EA809F041FE0EA807F053
:1028600055F80EA809F0FBFD27440323BB7140492E
:102870000EA809F034FE0EA807F048F80EA809F0DB
:10288000EEFD3C490EA809F02AFE0EA807F03EF81E
:102890000EA809F0E4FD0023637006A83649A9E6F6
:1028A0004FF4805892E706A8344909F018FE94F8CE
:1028B000461002A809F049FE02A906A809F0D1FEB7
:1028C0002F4909F0D7FE294680460AA809F03DFEA7
:1028D0000AA9404609F0C5FE01460EA809F01AFEF5
:1028E0000EA807F013F80EA809F0B9FD0AA809F020
:1028F000B6FD02A809F0B3FD06A809F0B0FDB3E7E4
:1029000006A81E4909F0EBFD94F8461002A809F04C
:102910001CFE02A906A809F0A4FE1A4909F0AAFEA5
:10292000294607460AA809F010FE0AA9384609F008
:1029300098FE01460EA809F0EDFD0EA806F0E6FF90
:102940000EA809F08CFD0AA809F089FD02A809F07B
:1029500086FD06A809F083FD19E613B0BDE8F08FE7
:10296000AE6901002C6901006E6C010023BC0100FE
:1029700060BC0100C7B90100BA690100106B010019
:10298000936B0100C66B0100044A054B1360054AB6
:102990001360054A13600AF04BB800BF9891FF1FFF
:1029A000032000389491FF1F9091FF1F38B5044613
:1029B00008460D4612F0C7FF236802465B682046B2
:1029C0002946984738BD08B5FFF7F0FF08BD0A2231
:1029D000002309F0CBBC38B5044609F096FC054647
:1029E000204609F0B3FC284438BD38B50446FFF74B
:1029F000DDFF0546204609F0A9FC284438BD38B55E
:102A00008368144642680546E018904202D9934212
:102A10000AD2D41A2868224618440DF06FFEAB681B
:102A20002344AB60204638BD002038BD70B5066831
:102A3000044630460D460AF03FF8854203D0304642
:102A400029460AF04DF8204670BDFFFFF0B5054657
:102A500085B0184812F05CFF04460EF0F7F8002825
:102A6000FBD020460EF08EFAB8B9684621460EF02B
:102A700009FA05F158036A4602AF1E46144603CC14
:102A8000BC4218605960224603F10803F6D1206861
:102A90001860A2889A80AB6D23B90EF0D7F8002891
:102AA000FBD005E000232B6630460EF0B9FBF4E7BF
:102AB00005B0F0BDB96401002DE9F04186B004A86D
:102AC0000EF002F8304D04A80EF010F92B680093B8
:102AD000DDF80080044600284FD02C492C48FFF731
:102AE00072FF21462A48FFF772FF2A492848FFF75C
:102AF0007CFF29492648FFF778FF28492448FFF73B
:102B000074FF0EF01DF82B680193019E00240EF057
:102B10009DF80746A8B92B680293029B9B1BB3F54F
:102B20007A7FF4D901341A481D49E4B2FFF74BFF0C
:102B30003B2C06F57A76EAD9154809F007FC3C46A5
:102B4000E5E714B1124809F001FC16491048FFF7F7
:102B50004CFF2B680393039B13490D48C8EB0308F4
:102B6000FFF731FF4FF47A71B8FBF1F10848FFF736
:102B70002EFF07480D49FFF738FF4FF47A700AF02F
:102B800023FA06B0BDE8F081D4D7FF1FF96B01002E
:102B9000DCD9FF1F0B6C0100136C01002D6C0100D0
:102BA0005B660100436C0100536C0100636C010023
:102BB00070B51A4B002292B006461A8002A8402136
:102BC00001AA0EF0CFFA30B3002402A812F0BBFE27
:102BD000C0F11400844205D211481249FFF7F3FEF8
:102BE0000134F2E700244FF4805012F06FFD0546E7
:102BF000346629465A2206F15800FFF700FF04F513
:102C000080540023284685F85B3012F067FDB4F548
:102C1000802FE8D1D2E712B070BD00BF6EDBFF1F7E
:102C2000DCD9FF1F406D010073B502AC164644F8B5
:102C3000041D0D462046D1B2FFF7F8FE01352046AF
:102C4000310A0195FFF7F2FE02B070BD38B50846B3
:102C50000C4609F031FF0546601C09F02DFF05EB1D
:102C6000002080B238BD13B5002402A8FF2140F82F
:102C7000044D0134FFF7DAFEB4F5006FF5D14FF4DF
:102C8000FA700AF0A1F902B010BDFFFF044A054B2B
:102C90001360054A1360054A136009F0C9BE00BFFE
:102CA000A491FF1F03200038A091FF1F9C91FF1FDC
:102CB00038B504460AF06AF9D2236060172105226C
:102CC00004F108000EF0DBFB0021172204F11C00C8
:102CD00009F0CAFF01232377022363770323A37735
:102CE0000423E377062384F82030072384F8213077
:102CF000082384F82230092384F823300B2384F836
:102D000024300C2384F825300D2384F826300E233C
:102D100084F82730102384F82830112384F82930D0
:102D2000122384F82A30132384F82B30052384F8E7
:102D30002D300A2384F82E300F2384F82F300C4BCB
:102D400003F1100204F13301104653F8045B41F81B
:102D5000045B9342F9D10368C4F84330054B1A88E9
:102D60009B78A4F8472084F84930204638BD00BF3E
:102D7000826F0100966F0100C943CAB2542A09D874
:102D8000A2EB8200013802EB42020021C0B2D2B2B3
:102D90000B4618E0A92A0BD8553AD2B202EB4201F1
:102DA000A2EB8202013A0020C9B2D2B203460AE085
:102DB0005632D2B202EB4200A2EB8202511E002236
:102DC000C0B2C9B213460EF0C6BBFFFF2DE9F043F7
:102DD000044685B000F1100806463A4F236838785B
:102DE00040F6081909FB003001F0D3FD2546311BE0
:102DF00001EB0010C1B255F8083B387809FB0030F0
:102E000090F800388B4203D196F83310FF2206E089
:102E100000EB41135B794BB996F833100122009215
:102E20000192284613460EF040FB0DE0002296F872
:102E3000339002F013F801462046FFF79DFF494604
:102E4000024628460EF059FB01364645C5D11E4BB9
:102E50001E78204636B14021FFF78EFF0021024642
:102E6000284605E0FF21FFF787FF31460246284646
:102E70000EF043FB00263B78B34204EB060312D16D
:102E800093F84380114B1B68039303996423B1FBB0
:102E9000F3F12046C9B2FFF76FFF414602462846CC
:102EA0000EF02BFB08E0002293F8431000920192F1
:102EB000284613460EF0F9FA0136042EDBD105B090
:102EC000BDE8F08332D7FF1F48D7FF1FD4D7FF1FBD
:102ED0002DE9F04F044685B000F1100B0646371B74
:102EE000FFB2DFF8A8812546384606F03BFD98F88A
:102EF000002055F8083B40F6081A0AFB023393F805
:102F00000038834203D196F83310FF222AE0384676
:102F100006F028FD594B1B78834214D1584B96F884
:102F200033701B680393039A0523B2FBF3F3FF226C
:102F300093FBF2F29918C9B22046FFF71DFF3946FC
:102F4000024628462BE0236898F8002038460AFB02
:102F5000023906F007FD09EB401043794BB996F8AA
:102F60003310012200920192284613460EF09DFA7A
:102F700017E0236898F8002096F8339038460AFB4B
:102F8000023A06F0EFFC00220146504601F066FFCF
:102F900001462046FFF7F0FE4946024628460EF05D
:102FA000ACFA01365E459AD1364B1E78204636B1D2
:102FB0004021FFF7E1FE00210246284605E0FF21FF
:102FC000FFF7DAFE3146024628460EF096FA2E4BFF
:102FD0001B78032B30D8DFE803F00205111D2046D3
:102FE000FF2101E02046BF21FFF7C6FE1521024662
:102FF00028460EF082FA20467F2116E07F212046E7
:10300000FFF7BAFE1521024628460EF076FA204652
:10301000BF210AE07F212046FFF7AEFE15210246C0
:1030200028460EF06AFA2046FF21FFF7A5FE16217A
:10303000024628460EF061FA0026144A1378B3427D
:1030400004EB06030BD12046002193F84370FFF7F1
:1030500093FE3946024628460EF04FFA08E0002259
:1030600093F8431000920192284613460EF01DFA81
:103070000136042EE1D105B0BDE8F08F20D7FF1F47
:10308000D4D7FF1F48D7FF1F15D7FF1F32D7FF1F09
:103090002DE9F04F044685B00025724B1A78AA42FC
:1030A00004EB050304F108060BD12046402193F8F8
:1030B0004370FFF761FE3946024630460EF01DFAB6
:1030C00008E0002293F84310009201923046134624
:1030D0000EF0EBF90135042DDFD104F1100B25467C
:1030E0002F1BFFB2DFF87C91384606F03BFC4B46C5
:1030F00040F608181A78236808FB023A9AF8002864
:10310000824238463DD106F02DFC0AEB401043794F
:10311000012B08D1FF22802395F8331030468DE82B
:103120000C0000222BE0236899F80020384608FBA9
:10313000023A06F017FC0AEB40104379022B06D145
:103140000023802295F83310009301926AE02368EF
:1031500099F80020384608FB023806F003FC08EB1B
:10316000401095F833104379032B04D100228023BB
:103170008DE80C006BE0FF2200920192304613466E
:1031800067E006F0EFFB384B1B78834216D1374BD4
:1031900095F833701B680393039A0523B2FBF3F38E
:1031A000FF2293FBF2F299182046C9B2FFF7E4FD23
:1031B0003946024630460EF0A0F94CE099F800205E
:1031C0002368384608FB023A06F0CCFB0AEB4010B5
:1031D000427912B995F83310CEE7236899F80020A8
:1031E000384608FB023A06F0BDFB0AEB4010437973
:1031F000012B05D1FF2395F8331000930022BCE783
:10320000236899F80020384608FB023A06F0AAFB2A
:103210000AEB40104379022B07D1002395F83310B5
:10322000009301933046FF2213E0236899F80020B1
:10323000384608FB023806F095FB08EB401043794E
:10324000032B08D1002295F83310009201923046EA
:10325000FF230EF02AF901355D457FF441AF05B03B
:10326000BDE8F08F32D7FF1F20D7FF1FD4D7FF1F35
:10327000F7B505460024114B1B78A34205F108065B
:1032800005EB04030BD12846C42193F84370FFF7E4
:1032900073FD3946024630460EF02FF908E0002251
:1032A00093F8431000920192304613460EF0FDF859
:1032B0000134042CDFD103B0F0BD00BF32D7FF1FB3
:1032C000F0B5044685B00D4609F060FE6368C01A8B
:1032D000A84269D909F05AFE344B60601B78092B6B
:1032E00004F1080620D00ED8032B19D005D8002BE6
:1032F00052D02046FFF7ECFD4EE0062B4CD1204685
:10330000FFF7C6FE48E07D2B0ED003D80B3B012B08
:1033100006D941E0F12B3FD12046FFF7A9FF3BE062
:103320002046FFF753FD37E000256319204693F848
:1033300033701F4B1B680393039A0523B2FBF3F30F
:10334000122202FB0533FF2293FBF2F29918C9B255
:10335000FFF712FD01350246394630460EF0CDF832
:10336000102DE2D10025134B1B782B4113F00100E7
:1033700004EB050393F8431004D00022FF238DE8EB
:103380000C0002E0402200920190304613460135C5
:103390000EF08BF8042DE6D1074B02241C6030465A
:1033A0000DF0B8FF054B1C6005B0F0BD728EFF1F1D
:1033B000D4D7FF1F7C8EFF1F04F10F4008F10F4090
:1033C00001EB81012DE9F04705464FEAC1080026CF
:1033D000002406EB04192B195FFA89F9494628469F
:1033E00093F833A0FFF7C8FC05F1080702465146E1
:1033F00038460EF082F804F003032B444946284671
:1034000093F843A0FFF7B8FC013402465146384612
:103410000EF073F8102CDCD138460DF07BFFB8F1BC
:10342000000F03D04346013B7FF4FDAF0136B6B237
:10343000B6F5807FCCD1BDE8F087FFFFF7B52C4C07
:10344000236816225B6805460E46204629499847A0
:1034500020462C4608F07AFF44F8086B052001212D
:1034600009F012FDC82120460EF07CF820460DF030
:1034700000FF20460DF04EFF00270026AB19FAB2E0
:1034800093F83310009201922046134601360EF055
:103490000CF8102EF2D120460DF03CFF4FF47A6369
:1034A000013B7FF4FDAF0137B7F5807FE5D1FF2702
:1034B0000026AB19FAB293F833100092019220461D
:1034C000134601360DF0F1FF102EF2D120460DF01B
:1034D00021FF4FF47A63013B7FF4FDAF013FE7D159
:1034E0002846642103B0BDE8F040FFF769BF00BF84
:1034F000DCD9FF1F996F0100044A054B1360054A90
:103500001360054A136009F093BA00BFB091FF1F22
:1035100003200038AC91FF1FA891FF1F2DE9F04751
:1035200005468CB00C4616461F46BE49BE48FFF7FE
:103530005CFAEE626F6201260027BC492F736F733D
:10354000AF73EF732E746E74AE74EE742F756F7567
:10355000AF75EF752E766E76AE76EE76B248FFF7E3
:1035600044FA20462121AC6202F022FC2046394672
:103570000822334602F062FA2046314604223346DE
:1035800002F05CFA204602210922334602F056FA84
:10359000204603210522334602F050FA204611212D
:1035A0000622334602F04AFA204604210A22022368
:1035B00002F044FA204605210722022302F03EFAD7
:1035C000204606210B22022302F038FA204607216A
:1035D0000C22022302F032FA204608211B22334635
:1035E00002F02CFA204609211222334602F026FA74
:1035F00020460A211322334602F020FA20460B21EE
:103600001422334602F01AFA20460C2115223346C2
:1036100002F014FA20460D211622334602F00EFA6B
:1036200020460E211722334602F008FA20460F21C9
:103630000322334602F002FA2046102118223346B4
:1036400002F0FCF9204616210E22022302F0F6F9C0
:10365000204612210222334602F0F0F920461321BF
:1036600032463B4602F0EAF9204614211A223B4634
:1036700002F0E4F9204615210D223B4602F0DEF966
:10368000204617210F223B4602F0D8F92046182188
:1036900010223B4602F0D2F92046192111223B4666
:1036A00002F0CCF920461A2119223B4602F0C6F955
:1036B0003A463B461B21204602F0C0F9204602F064
:1036C000FDFA5B495848FFF790F9022105F11D000A
:1036D00002F04CF905F11F090A2009F075FC1321CD
:1036E000484602F0FDFB05F120080A2009F06CFCB9
:1036F0004046122102F0F4FB0A2009F065FC4D4916
:1037000004A808F0ECFE0A223946684608F030FFAB
:10371000694604A808F0A5FF474908F0ABFFFEB2D0
:1037200082463146484602F04FFC014608A808F0A0
:103730000CFF504608A908F094FF01463A48FFF7ED
:103740004AF908A808F08BFE684608F088FE04A82D
:1037500008F085FE012009F037FC384904A808F07C
:10376000BEFE0A223946684608F002FF694604A8F0
:1037700008F077FF304908F07DFF31468246404629
:1037800002F022FC014608A808F0DFFE504608A916
:1037900008F067FF01462448FFF71DF908A808F064
:1037A0005EFE684608F05BFE04A808F058FE0120A3
:1037B00009F00AFC012009F007FC314601224846C5
:1037C00002F0CAFB012009F0FFFB0122314640460E
:1037D00002F0C2FB012009F0F7FB012009F0F4FB25
:1037E000144904A808F07BFE0A223946684608F00E
:1037F000BFFE694604A808F034FF0F4908F03AFFFD
:1038000031468246484602F0DFFB014608A808F030
:103810009CFE504608A908F024FF01460248FFF725
:10382000DAF80DE0B06F0100DCD9FF1FC26F0100B4
:10383000DC6F0100ED6F01005E6B0100FC6F0100A9
:1038400008A808F00CFE684608F009FE04A808F075
:1038500006FE012009F0B8FB7E4904A808F03FFEEF
:103860000A223946684608F083FE694604A808F033
:10387000F8FE794908F0FEFE31468246404602F0E5
:10388000A3FB014608A808F060FE504608A908F00E
:10389000E8FE01467148FFF79EF808A808F0DFFD32
:1038A000684608F0DCFD04A808F0D9FD012009F005
:1038B0008BFB012009F088FB3146FF22484602F0CD
:1038C0004BFB012009F080FBFF223146404602F00D
:1038D00043FB012009F078FB012009F075FB6049EA
:1038E00004A808F0FCFD0A223946684608F040FEAC
:1038F000694604A808F0B5FE574908F0BBFE3146FA
:103900008246484602F060FB014608A808F01DFE0A
:10391000504608A908F0A5FE01465048FFF75BF89D
:1039200008A808F09CFD684608F099FD04A808F076
:1039300096FD012009F048FB464904A808F0CFFD98
:103940000A223946684608F013FE694604A808F0C2
:1039500088FE414908F08EFE31468246404602F01C
:1039600033FB014608A808F0F0FD08A9504608F00E
:1039700078FE01463948FFF72EF808A808F06FFDD9
:10398000684608F06CFD04A808F069FD01370120C5
:1039900009F01AFB042F7FF4B2AE2E462F1D96F8C5
:1039A00034302B44204693F83C10012202F0F5F904
:1039B00096F838302B44204693F83C10012201360B
:1039C00002F0EBF9BE42EAD126492448FFF70DF890
:1039D0001F20012109F058FA0420012109F054FAAE
:1039E00021491E48FFF701F8204602F09DF9002505
:1039F0001E4904A808F073FD0A222946684608F00B
:103A0000B7FD694604A808F02CFE194908F032FEFB
:103A1000E9B20646204602F0D3F80A22014608A879
:103A200008F0A6FD08A9304608F01BFE01460B4829
:103A3000FEF7D1FF08A808F012FD684608F00FFD58
:103A4000013504A808F00BFD1C2DD1D10CB0BDE848
:103A5000F08700BFFC6F01005E6B0100DCD9FF1F27
:103A6000ED6F01000B700100207001004A70010031
:103A70006E6C01002DE9FF47B34B1A680292029A5F
:103A80001B680393039BB14B1B78283B0446232BF5
:103A900000F27D83DFE813F024005300840024004B
:103AA0005300840024005300840024005300840049
:103AB000B300CE00EA00050120013C01680183014A
:103AC0009F01BA01D501F1010C02270243025E02F7
:103AD00079029502B002CB02F2020D032E035103CC
:103AE0009B4D05F1080A6E78DFF87082DFF870925E
:103AF00038F8162039F81630009296494FF4804273
:103B0000002008F0A2FC04F11D0782B231463846BD
:103B100001F048FF15F8016F8E4938F8162039F882
:103B20001630009200204FF4804208F08EFC31469F
:103B300082B2384601F036FF5545D4D127E3844D93
:103B400005F1080A6E78DFF81482DFF8149238F86D
:103B5000162039F8163000927E494FF480424FF417
:103B6000005008F072FC04F11D0782B2314638465D
:103B700001F018FF15F8016F764938F8162039F86A
:103B8000163000924FF400504FF4804208F05DFC74
:103B9000314682B2384601F005FF5545D2D1F6E2F2
:103BA0006B4D05F1080A6E78DFF8B081DFF8B0914F
:103BB00038F8162039F816300092664966484FF4F6
:103BC000804208F042FC04F11D0782B231463846BB
:103BD00001F0E8FE15F8016F5E4938F8162039F853
:103BE000163000925C484FF4804208F02EFC3146BB
:103BF00082B2384601F0D6FE5545D4D1C7E2DFF88F
:103C00006481564E98F80050554F36F8152037F815
:103C100015305049009200F11D044FF480424E4887
:103C200008F013FC294682B2204601F0BBFE98F84A
:103C3000005058E2DFF82C81484E98F80050484F69
:103C400036F8152037F815304249009200F11D046E
:103C50004FF480424FF4005008F0F7FB294682B23F
:103C6000204601F09FFE98F800505EE2DFF8F480F5
:103C70003A4E98F800503A4F36F8152037F815307C
:103C80003449009200F11D044FF48042002008F0F6
:103C9000DCFB294682B2204601F084FE98F80050F1
:103CA00065E2DFF8C0802D4E98F801502C4F36F8B1
:103CB000152037F815302749009200F11D044FF404
:103CC0008042254808F0C1FB294682B2204601F017
:103CD00069FE98F8015006E2DFF888801F4E98F8D8
:103CE00001501F4F36F8152037F81530194900924A
:103CF00000F11D044FF480424FF4005008F0A5FB82
:103D0000294682B2204601F04DFE98F801500CE29F
:103D1000DFF85080114E98F80150114F36F81520F9
:103D200037F815300B49009200F11D044FF4804222
:103D3000002008F08AFB294682B2204601F032FEBC
:103D400098F8015013E200BFD4D7FF1F16D7FF1F0A
:103D5000508EFF1F00C0FFFF00E0FFFF5A8EFF1FC5
:103D6000848EFF1F518EFF1FDFF80C83BE4E98F824
:103D70000250BE4F36F8152037F81530BC49009276
:103D800000F11D044FF48042BA4808F05EFB29465A
:103D900082B2204601F006FE98F80250A3E1DFF857
:103DA000D882B14E98F80250B04F36F8152037F847
:103DB0001530AF49009200F11D044FF480424FF4DA
:103DC000005008F042FB294682B2204601F0EAFD8D
:103DD00098F80250A9E1DFF8A082A34E98F80250AB
:103DE000A24F36F8152037F81530A149009200F19E
:103DF0001D044FF48042002008F027FB294682B2C0
:103E0000204601F0CFFD98F80250B0E1DFF868825B
:103E1000954E98F80350954F36F8152037F8153021
:103E20009349009200F11D044FF48042914808F03C
:103E30000CFB294682B2204601F0B4FD98F80350ED
:103E400051E1DFF83482884E98F80350874F36F8F6
:103E5000152037F815308649009200F11D044FF403
:103E600080424FF4005008F0F0FA294682B2204612
:103E700001F098FD98F8035057E1DFF8FC817A4E85
:103E800098F80350794F36F8152037F815307849EF
:103E9000009200F11D044FF48042002008F0D5FA92
:103EA000294682B2204601F07DFD98F803505EE17C
:103EB000DFF8C4816C4E98F804506C4F36F815202A
:103EC00037F815306A49009200F11D044FF4804222
:103ED000684808F0BAFA294682B2204601F062FD2D
:103EE00098F80450FFE0DFF890815F4E98F8045096
:103EF0005E4F36F8152037F815305D49009200F115
:103F00001D044FF480424FF4005008F09EFA2946F9
:103F100082B2204601F046FD98F8045005E1DFF832
:103F20005881514E98F80450504F36F8152037F804
:103F300015304F49009200F11D044FF480420020DB
:103F400008F083FA294682B2204601F02BFD98F84A
:103F500004500CE1DFF82081434E98F80550434FA0
:103F600036F8152037F815304149009200F11D044C
:103F70004FF480423F4808F068FA294682B2204652
:103F800001F010FD98F80550ADE0DFF8EC80364EFA
:103F900098F80550354F36F8152037F81530344964
:103FA000009200F11D044FF480424FF4005008F0DD
:103FB0004CFA294682B2204601F0F4FC98F80550EC
:103FC000B3E0DFF8B480284E98F80550274F36F854
:103FD000152037F815302649009200F11D044FF4E2
:103FE0008042002008F031FA294682B2204601F0D2
:103FF000D9FC98F80550BAE0DFF87C801A4E98F8A2
:1040000006501A4F36F8152037F815301849009227
:1040100000F11D044FF48042164808F016FA2946B4
:1040200082B2204601F0BEFC98F806505BE0DFF853
:1040300048800D4E98F806500C4F36F8152037F88A
:1040400015300B49009200F11D044FF480424FF4EB
:10405000005008F0FAF9294682B2204601F0A2FC8D
:1040600098F8065061E000BF5A8EFF1F848EFF1F34
:1040700000C0FFFF00E0FFFF518EFF1FDFF824812B
:10408000444E98F80650444F36F8152037F815304E
:104090004249009200F11D044FF48042002008F0D4
:1040A000D4F9294682B2204601F07CFC98F80650EB
:1040B0005DE0DFF8F080374E98F80750364F36F85D
:1040C000152037F815303549009200F11D044FF4E2
:1040D0008042334808F0B9F9294682B2204601F0FF
:1040E00061FC98F8075036F8152037F815302C4841
:1040F000009242E0DFF8AC80264E98F80750264F39
:1041000036F8152037F815302449009200F11D04C7
:104110004FF480424FF4005008F097F9294682B2DC
:10412000204601F03FFC98F8075036F8152037F884
:10413000153000924FF400501FE0DFF86880154EF4
:1041400098F80750144F36F8152037F815301349F2
:10415000009200F11D044FF48042002008F075F930
:10416000294682B2204601F01DFC98F8075036F827
:10417000152037F815300092002008494FF480428E
:1041800008F063F9294682B2204601F00BFC04B026
:10419000BDE8F0875A8EFF1F848EFF1F00C0FFFF0F
:1041A00000E0FFFF518EFF1F2DE9F3410446806AB6
:1041B000414EDFF8248101F0B7FD11210122606A30
:1041C0000FF0AAFC242130800122606A0FF0A4FCC9
:1041D000252170800122606A0FF09EFC2221B080B0
:1041E0000122606A0FF098FC0025F080334B705B71
:1041F000EB5A334F984207D2324AA95A0022009212
:104200001A464FF4806305E02F4A3049AA5A0091BC
:104210001946002308F019F978534023785F2B4999
:1042200000934FF480626FF03F0308F00EF90235FF
:10423000082D08F8010FD9D1A06A254E042101F0FC
:1042400028FE80F0010030700521A06A01F021FEF7
:1042500080F0010070700621A06A01F01AFE80F063
:104260000100B0700721A06A01F013FE80F0010088
:10427000F0700421A06A174E01F0F5FD05213070A1
:10428000A06A01F0F0FD06217070A06A01F0EBFD5C
:104290000721B070A06A01F0E6FD2946F070012206
:1042A000A06A01F07AFDA06A2946002202B0BDE8AA
:1042B000F04101F072BD00BF06D7FF1F748EFF1FD3
:1042C00022D7FF1F6A8EFF1F948EFF1F00FCFFFF87
:1042D0003CD7FF1F49D7FF1F2BD7FF1F10B5014445
:1042E000094A91F83410094832F8112030F81110B9
:1042F00050188A1A92B25343142493FBF4F2C2EB7F
:10430000500080B210BD00BF848EFF1F5A8EFF1F69
:104310000144084A91F83410074832F8112030F867
:104320001110511A89B24B43142093FBF0F1501A2B
:1043300080B270475A8EFF1F848EFF1F2DE9F04F09
:1043400085B090469DF844909DF838B09DF8406047
:104350009DF8482004460F469A464518B9F1000FCB
:1043600001D15EB19AE0806A039201F09CFD039A4C
:104370000028F6D0002A40F0BA8086E0002A40F0FB
:104380008C8095F83430A06A2344012293F83C10C5
:1043900001F003FDBBF1010F16D195F8383023442D
:1043A00093F844100A0908BF04F11F0001F00F013F
:1043B0001CBF04F12000002201F0CEFD01232B766A
:1043C0002B7385F814A009E008D99DF83C302B74B4
:1043D000012385F814A02B7685F80CB095F83430BD
:1043E000234493F844100A0908BF04F11F0001F0A8
:1043F0000F011CBF04F12000002201F0ADFD95F873
:1044000034603946324602232046FFF767FF3246C2
:104410008346394602232046FFF77AFF5B46009029
:1044200000217822404608F010F804F11D0A82B2FB
:104430003146504601F0B6FA95F8345039462A46CE
:1044400002232046FFF74AFF394606462A46022342
:104450002046FFF75DFF002100907822404633465A
:1044600007F0F3FF294682B2504601F09BFAB9F1FA
:10447000000F04D0A06A3946012201F08EFC08F03A
:1044800085FDA06005B0BDE8F08FA06A394601F057
:1044900084FC002E3FF475AF00E0032695F834301D
:1044A000A06A2344002293F83C1001F076FC95F8B2
:1044B00034302344FF2293F84430190903F00F0AE3
:1044C00009D1009230467F220B4607F0BEFFC2B2F0
:1044D00004F11F0009E00021009230467F220B46C4
:1044E00007F0B3FFC2B204F12000514685E7002E69
:1044F00008BF0326D2E7FFFF2DE9F743461807461A
:10450000337B002B00F0E180013B032B00F29F8006
:10451000DFE803F002053C6D347DE40165E06C4AA0
:10452000337C106858430BF0E1FB6A490BF036FC12
:1045300069490BF033FC694B0446186800010BF025
:10454000D5FB014620460BF0DDFC0AF0E3FF0FF03F
:1045500077FF0446307D0D460AF0CAFF02460B463F
:10456000204629460BF02AF800225D4B0BF026F876
:104570000BF0BEFA96F838303B44002284B293F830
:104580003C10B86A01F009FC022260E0504A337C1A
:10459000106858430BF0AAFB4E490BF0FFFB4E4945
:1045A0000BF0FCFB4D4B0446186800010BF09EFB22
:1045B000014620460BF0A6FC0AF0ACFF0FF040FFCE
:1045C000002200230BF08AFA347D08B1E40103E0F5
:1045D000C4EB4424E401A4B296F83830B86A3B44F2
:1045E000012293F83C1001F0D8FB00222FE0384A5A
:1045F000337C106858430BF079FB36490BF0CEFB47
:1046000035490BF0CBFB354B0446186800010BF025
:104610006DFB014620460BF075FC0AF07BFF0FF0A6
:104620000FFF002200230BF059FA347D08B1E4019A
:1046300003E0C4EB4424E401A4B296F83830B86A2D
:104640003B44002293F83C1001F0A7FB282296F887
:104650003830DFF89480DFF894903B4424B293F82C
:1046600044100B090CBF07F11F0007F1200001F0F7
:104670000F0101F071FC96F838501A4938F81520EE
:1046800000233376204639F8153000924FF48042EB
:1046900007F0DBFE1D3782B22946384601F082F969
:1046A00096F838500F4938F81520009239F815302F
:1046B00020464FF4804207F0C8FE294682B23846B1
:1046C00003B0BDE8F04301F06DB903B0BDE8F0837D
:1046D00054D7FF1FD00F49400000C84200D7FF1F2A
:1046E0000000604000C0FFFF5A8EFF1F848EFF1F36
:1046F00070B504460E4615461BB1806A002201F0D3
:104700004CFB711EC9B20F29E46A0DD894F84A30E7
:1047100041F080018B420BD0D4F8E00084F84A10BD
:1047200003681B68984703E0002384F84A3070BD93
:10473000D4F8E000036805F07F011B689847D4F8BF
:10474000E000036840211B68984770BD38B500221F
:1047500004460D46806A01F020FB601900230373B4
:1047600003750123037638BD37B54FF40073054652
:104770000C4609B1084A00E0084A13601720214698
:1047800008F062FB2C7724B1054B1B680193019B59
:104790002B6003B030BD00BF84F00F4088F00F40A5
:1047A000D4D7FF1F044A054B1360054A1360054A1E
:1047B000136008F03DB900BFBC91FF1F0320003813
:1047C000B891FF1FB491FF1F4379032B09D8DFE88D
:1047D00003F0090B0B02407CD0F1010038BF002030
:1047E00070477047002070470120704710B504469D
:1047F00008F0CCFBC4F8000910BDD0F8F438013340
:1048000070B5C0F8F43890F8016890F802380022CA
:104810001E440346B2420DDA9969002907DDD0F83B
:10482000EC58D0F8F848B5FBF4F4091B9961013253
:104830002033EFE770BDFFFF264B80F8E2181B78AE
:10484000F0B5002B45D090F8DB3890F80268B0F84E
:10485000E0585CB2002CD8BFC3F1020211FB06F68F
:10486000D4BFD2B20122DBB2002CCCBF1C46012443
:1048700002FB06F205F10105ADB292FBF4F295FBE5
:10488000F2F602FB1652C3F10203A0F8E0284FF43F
:104890008005D0F8F428C0F8F82895FBF1F5D4BFCE
:1048A0001E4601260022C0F8EC58C0F8F428E5B2F4
:1048B000F6B201238B420CDA0A44B6FBF5F492FB04
:1048C000F4F704FB172414B980F80438F0BD013361
:1048D000F0E7F0BD48D7FF1F90F8DB385AB2002A46
:1048E000DABFC3F10200C0B20120002ACCBFDBB2A4
:1048F0000123800590FBF3F0704710B50446FFF7E5
:10490000EBFF94F80238584310BDF8B5D0F8F458CE
:10491000D0F8F848B0F8E068AC4234BF27462F46DC
:10492000D0F8EC58FFF7E9FF6E43B6FBF0F37D4398
:1049300003FB1060B5FBF4F42044F8BD38B590F8E3
:104940000338012B044611D1FFF7DFFF054620464F
:10495000FFF7C2FF94F8012894F802381344013B92
:10496000B5FBF0F01B1A84F800380DE063B9FFF7CF
:10497000CCFF05462046FFF7AFFF94F80138B5FBA2
:10498000F0F0C51884F8005894F8003884F8DF383F
:1049900038BD90F80008000970472DE9F04190F803
:1049A000017890F8023890F800481F4407EB04089B
:1049B000054608F1FF38002644450CDA94FBF7F36E
:1049C00007FB134305EB431328465E61FFF784FFA3
:1049D00001340644F0E73046BDE8F08130B50446C6
:1049E00091B051B10023A0F8E038C0F8F438FFF7D7
:1049F0008CFF01462046FFF7A1FF94F8023894F897
:104A0000010822461844002383420CDA94F8001867
:104A10008B4202F1200206D0002102F8101C02F89D
:104A20000F1C0133F0E72046FFF7B7FF94F8093871
:104A3000002B32D11A4904A807F051FD94F8091847
:104A4000684607F082FD694604A807F00AFE15498A
:104A500007F010FE144907F00DFE05462046FFF74B
:104A600054FF0A22014608A807F0A8FD08A9284615
:104A700007F0F7FD01460CA807F04CFD0CA804F068
:104A800045FF0CA807F0EBFC08A807F0E8FC684617
:104A900007F0E5FC04A807F0E2FC11B030BD00BF50
:104AA0007470010078700100807001002DE9F74FEB
:104AB0000446FFF72AFF804641462046FFF73EFFA7
:104AC00094F81638002B40F0B080594B1B78002B1F
:104AD00000F0AB8094F8006804EB461303F1100279
:104AE000197C002943D15879002840D05170D879D9
:104AF000504D94F80F38EB56142793FBF7F31844F6
:104B0000052204F01FFF2644012186F81B0894F8B3
:104B1000006804EB46130522187A94F81138EB5616
:104B200093FBF7F7384404F00DFF264494F810384F
:104B300086F85B0894F80068EA56A7190F2392FBE1
:104B4000F3F387F89B3804EB4610FFF73DFE97F828
:104B50005B1897F81B38009102463146204600F05A
:104B600017FA94F8003804EB431301221A7425460F
:104B70002746002694F8021894F801380B449E4208
:104B800053DC6B79002B48D02A7C042A04D0062AF7
:104B900031D0012A41D10CE094F800389E4240D136
:104BA00001293AD12046FFF797FEB8EB900F38D392
:104BB00033E0A969EA6991422FDA5FFA86FA032B9A
:104BC00008D8DFE803F0020205024FF0010901E016
:104BD0004FF00009204651464A4600F050FB06239C
:104BE0002B742046514695F811B000F02FFB8345F9
:104BF00013D9042310E0AB69002B0EDC2846FFF725
:104C0000E3FD97F85B1897F81B3800910246F1B264
:104C1000204600F0BDF901232B7401362035013701
:104C2000A8E700232B746B74F7E703B0BDE8F08F9F
:104C300048D7FF1F2CD7FF1F024B1B780BB1FFF784
:104C400035BF704748D7FF1F044A054B1360054A1C
:104C50001360054A136007F0EBBE00BFC891FF1F49
:104C600003200038C491FF1FC091FF1F2DE9F041C0
:104C7000134D044628680F46164612491D229846D1
:104C8000436828469847284607F060FB002384F8CD
:104C90000838042384F8DB38069BC4F8FC3884F811
:104CA000097884F8026884F80A882046FFF775FEC0
:104CB000012384F8DC38079BC4F80439BDE8F0818F
:104CC000DCD9FF1F90700100F0B58DB004460E4690
:104CD00004A84249154607F002FC3146684607F031
:104CE00034FC694604A807F0BCFC3D4907F0C2FC4F
:104CF0002946074608A807F028FC08A9384607F007
:104D0000B0FC0146374807F000FB364807F01EFBB1
:104D100008A807F0A4FB684607F0A1FB04A807F069
:104D20009EFB102384F802380423002084F80A38FC
:104D300044F6206284F8DB380523C4F8E82884F8B8
:104D4000010884F8060884F8070884F8086884F8DD
:104D5000095884F80B3884F80C3884F80F3884F834
:104D60000D3884F80E3884F8103884F8113884F837
:104D7000123884F8133884F8143884F8153884F815
:104D8000160884F8170884F8180884F81A084022CE
:104D90000134032161710121E17121720421182381
:104DA0006172E172432104F8013C21730023102158
:104DB000013A23706370A370E3702371A371A3722F
:104DC0006373A173C4F81330E37323746374C4F87A
:104DD000173004F12004DCD10DB0F0BDAE7001003D
:104DE00077630100DCD9FF1FC0F8FC18FFF7D5BDC1
:104DF00003EB4113C254704730B5023BDBB20C2BBE
:104E000098BF15489DF80C4094BF30F8133040F619
:104E1000FF730020904206DA03F001055B1043EABD
:104E2000C5230130F6E70D200C22B1FBF2F502FBA1
:104E30001512D2B24FF4006545FA02F29A4308D037
:104E40000CB1013100E00139013810F0FF00C9B2A6
:104E5000EAD1084630BD00BFCE70010002EB41121E
:104E6000805C704770B590F8E25890F9DB3890F8A4
:104E70000228B0F8E048694391FBF3F115FB02F515
:104E800095FBF3F3214491FBF3F503FB1515A0F813
:104E9000E0580023934200F1200008DA50F8081C83
:104EA000AEB2A61B314440F8081C0133F2E770BDD6
:104EB00038B590F80B388B4204460D4602D10121DB
:104EC000FFF78CFD94F80C38AB4208D1044B1B78EB
:104ED0002BB120460421BDE83840FFF7C3BF38BDE1
:104EE00048D7FF1FF0B5044687B01E464D012AB3D0
:104EF00090F807385BB14FF0010E415D90F806283D
:104F0000CDF800E04719FFF777FFB87402E04319C6
:104F1000425D9A74254494F80918A87BAA7C6B7B9F
:104F20000090E87B0190E87A0290002004900396BC
:104F3000D4F80409FFF702FA07B0F0BD054494F86D
:104F40000918D0F80409AA7C012307B0BDE8F04095
:104F5000FFF7CEBB08B54318490193F99B380844C5
:104F6000002B407A06DA18440121402204F0EAFCC2
:104F7000C0B208BD08BD4318490193F89B380844E6
:104F80005AB2807A002AC4BF5843C0B27047FFFFAC
:104F90002DE9F04F17464A0100EB020889464E0101
:104FA0004146825C044648788DB010448DF8190063
:104FB0008878C9788DF8182010440A448DF81B2091
:104FC00094F818289DF858C08DF81A001AB10023DB
:104FD00084F8183833E10122042518F80210FF295B
:104FE00008BF05F1FF3502F1010208BFEDB2042A46
:104FF000F3D1284605EB850188420ADA06AAC5EBFB
:10500000020E1EF800E00EF10C0E00F802E0013076
:10501000F2E7BCF1000F02D00CFB05F5EDB2013B4D
:10502000042B4BD8DFE803F0030D182B4000A31925
:105030005B7CB3FBF5F205FB12330CAA52FA83F347
:105040001AE0A3195B7CB3FBF5F205FB1233ED1AF2
:105050000CAB53FA85F524E0A3195B7CB3FBF5F2A6
:1050600012F0010F05FB02F2C2EB030308BFC3EB12
:105070000503DBB20CAA134413F8185C20E0A31953
:10508000691E5B7C93FBF1F2D0074BBFB3FBF5F2DB
:1050900001FB123305FB1235C3EB0505EDB20CAB7A
:1050A0001D4415F8185C0BE02946002007F0C3F9F1
:1050B0000CAA52FA80F010F8185C01E09DF8185024
:1050C00094F8073853B1012194F80628009120463E
:1050D0002946FFF791FEA319987401E0A3199D7466
:1050E000584B94F80E289A5C9B462AB100207F21E9
:1050F00007F0A1F9A319987494F81318DFF848A1E0
:10510000A3191AF90100042190FBF1F1987C0144E4
:105110009974D87A94F815381AF903300021184494
:10512000FF2204F00FFC94F80D381BF80330C5B2D1
:105130000BB187F0010798F80730002B33D194F8B2
:10514000143898F806001AF903300130012103EBF6
:105150004000402204F0F6FB94F8DB385AB2002AF3
:10516000DABFC3F10201C9B201218005002A01FBA7
:1051700000FCCCBFD9B20121A0194FEAC10E9CFBA3
:10518000FEF1002A8161DABFC3F10201C9B2012137
:10519000002ACCBFDBB201238905A219DB0091FBF9
:1051A000F3F3D3612AE094F8DBA84FFA8AF3002BDB
:1051B000D8BFCAF1020A49462046D4BF5FFA8AFA2C
:1051C0004FF0010AFFF7C6FE4FEA8A5A00FB0AFBBE
:1051D00094F8DBA84FFA8AF3002B20464946CCBF4F
:1051E0005FFA8AFA4FF0010AFFF7C5FEA3191AFB0E
:1051F00000F09BFBF0F098614010D861A01900F11D
:105200001006437B827C90F80EE0CDF800E0083079
:1052100094F80918C079019094F81A08039704903B
:105220000295D4F80409FFF789F898F80530022BA5
:1052300018BF002784F81A787378013373700DB0A3
:10524000BDE8F08F3CD7FF1F2CD7FF1F70B5431868
:10525000054693F81B380C467BB100EB41139E7951
:10526000FFF789FE214616FB00F62846FFF772FE7F
:1052700096FBF0F0C0F3870070BD184670BD10B506
:1052800000EB4111134601F11002097C012904468B
:1052900008D194F80918D0F804099278BDE81040B4
:1052A000FFF726BA10BDFFFF531A002BB8BF5B42B1
:1052B000013380F802380A4B91421B7805D201EB8A
:1052C000031180F80118002304E002EB031280F8B8
:1052D0000128012380F80338012380F8183870472B
:1052E00015D7FF1F044A054B1360054A1360054A92
:1052F000136007F09DBB00BFD491FF1F032000384F
:10530000D091FF1FCC91FF1F10B5044607F03EFE61
:105310002060204610BD10B5044607F037FE236814
:10532000C01A10BD13B5194B1A680092009A02609A
:105330001B680193019B436004460830FFF7E4FFBC
:1053400004F11D0000F010FB04F11F0000F0C6FD89
:1053500004F1200000F0C2FD0D4A1346114653F837
:10536000040B2063186860639068A06351F80C0F09
:10537000496804F13C0303C352F8140F516804F167
:10538000440303C3204602B010BD00BFD4D7FF1FA3
:10539000E870010013B504460C30FFF7B5FF04F1C7
:1053A0002400FFF7B1FF04F12800FFF7ADFF144B15
:1053B0001B680193019B236504F15400FFF7B2FFC2
:1053C00004F1A00004F06AFB04F1F40000F00AFE0E
:1053D00004F24440FDF76CFC04F59260FBF75CFBC3
:1053E00004F2445000F022FB04F5B56000F01EFB0F
:1053F00004F21C60FFF788FF204602B010BD00BF1A
:10540000D4D7FF1F2DE9F04F8DB004468A46894856
:105410008949DFF848921E4604F15407934604F583
:10542000B568FDF7E2FA169BC4F8183638464146CF
:105430005246C4F810A6C4F81466FEF76FF8D9F8FF
:1054400000306425B3FBF5F38DE888003046002179
:1054500010220423FFF70AFCD9F80030B3FBF5F360
:105460008DE8880006F60810012110220423FFF7BA
:10547000FDFBD9F8003006F59050B3FBF5F38DE84D
:1054800088001030022110220423FFF7EFFBD9F827
:10549000003006F5D850B3FBF5F58DE8A0001830C4
:1054A00003211022042304F5926504F1A009FFF7FB
:1054B000DDFB43464846394604F244528DE860001D
:1054C000029404F047FB224604F1F400314600F058
:1054D000ADFD04F244403146FDF7B0FF20463946A9
:1054E00032465346CDF800B005F0E0FD169B009320
:1054F0002846524B39463246FBF7EEFA504B1B78A2
:10550000002B00F084804F494A48FDF76EFA284688
:10551000FDF7A9FB2846FDF7CFFA2846FCF7DAFD90
:105520000027494908A806F0DAFF0A22394604A8EC
:1055300007F01EF804A908A807F093F8434907F0FC
:1055400099F801463B48FDF746FA04A806F087FFA4
:1055500008A806F084FF4FF000085FFA87FA40F6CB
:10556000081000FB08605FFA88F2514608F1010854
:10557000FFF7AAFBB8F1040FEFD12E483449FDF72D
:1055800034FA4FF000085FFA88F12846524608F1D5
:105590000108FBF763FEB8F1040FF4D125482D494B
:1055A000FDF723FA94F890341BB12846FCF73AFE35
:1055B000F8E7294908A806F092FF0A22394604A80C
:1055C00006F0D6FF04A908A807F04BF81F4907F01A
:1055D00051F801461748FDF7FEF904A806F03FFF11
:1055E00008A806F03CFF01374FF4FA7007F0ECFC16
:1055F000102F96D194F890341BB12846FCF712FE78
:10560000F8E7642007F0E0FC2846FDF7D1FA2846C9
:10561000FCF760FD0F2228460021FCF74BFB2846D3
:10562000FBF7F2FA4846012104F09CFB0DB0BDE8FF
:10563000F08F00BFDCD9FF1F047101006DDBFF1F7D
:105640005DD7FF1F207101006E7101009B71010089
:10565000C2710100D7710100EB710100808EFF1F44
:1056600030B504468FB007F091FC94F82D300190CE
:105670002BB104F2444048F2A061FDF721FE01A8DD
:10568000FFF749FE42F2107398421FD94A4906A813
:1056900006F025FF01A8FFF73EFE0A22014602A8F8
:1056A00006F08CFF02A906A806F0DBFF01460AA857
:1056B00006F030FF0AA804F029F90AA806F0CFFE88
:1056C00002A806F0CCFE06A806F0C9FE07F05EFCB4
:1056D00044F62061019004F1A00005F0F7FB01A859
:1056E000FFF719FE42F2107398421FD9334906A8FA
:1056F00006F0F5FE01A8FFF70EFE0A22014602A8F9
:1057000006F05CFF02A906A806F0ABFF01460AA856
:1057100006F000FF0AA804F0F9F80AA806F09FFEB8
:1057200002A806F09CFE06A806F099FE07F02EFCE3
:10573000019004F21C60FFF7EEFD42F21075A842E2
:1057400032D994F890347BB304F59260FCF76AFD8B
:1057500007F01CFCC4F81C0601A8FFF7DCFDA842FA
:105760001FD9174906A806F0BAFE01A8FFF7D3FD16
:105770000A22014602A806F021FF02A906A806F0A7
:1057800070FF01460AA806F0C5FE0AA804F0BEF89C
:105790000AA806F064FE02A806F061FE06A806F05C
:1057A0005EFE07F0F3FB019004F1F40044F6206183
:1057B00003F0B8FA0FB030BD17720100507201004B
:1057C0008C72010005F0C0BC05F03CBE0346D0F869
:1057D0000C06D3F8101606F030B9FFFF064B10B5D3
:1057E000064C1C60064B1C60064B1C6007F020F941
:1057F000054B1C6010BD00BFE491FF1F0320003863
:10580000DC91FF1FD891FF1FE091FF1F154B02781D
:10581000F0B51C6844F480641C604FF00044DC6206
:105820005A630C460246013C0E4D05D05678EF6A8D
:105830000C4B002FFBDA04E00139EB6A002BFCDA99
:105840000BE09D6B1F6847F480671F604FF00047B7
:10585000DF625E6302F8015BE5E7024B9B6B43543A
:10586000F0BD00BF00C00240054BDA6A12F0F00F35
:1058700018BF9B6B4FF2F0031340002BF4D170471D
:1058800000C0024010B5184B1A7802B372B61B78EC
:10589000D90707D5154A1649146809682140154CDF
:1058A000216011609A0707D5134A114914684968A5
:1058B0002140104C616011605B0707D50F4B0C4A0B
:1058C000196892680A400B498A601A6062B60C4BEC
:1058D000DA68824207D00B4A1A60D8600A4A40F060
:1058E000804018611A6010BD6CDBFF1F80E100E092
:1058F00054DBFF1F60DBFF1F84E100E088E100E074
:1059000000C0024001401F0000001F80054B4FF007
:105910000042DA625863DA6A002AFCDA014B986BBB
:10592000C0B2704700C002400A4B1B788BB1D90748
:1059300003D5094A1168094A11609A0703D5064A36
:105940005168074A11605B0703D5034B9A68054B02
:105950001A6070476CDBFF1F60DBFF1F00E100E097
:1059600004E100E008E100E07047FFFF10B500230C
:105970000446017043700846012107F085FA227839
:10598000064B53F83230012283F88020044B4FF04D
:1059900038421A60BDE810400AF02ABC04D2010067
:1059A000E891FF1F2DE9F341174604468846FFF7AB
:1059B0005BFF114B114E1868FFF764FF23788DF8D9
:1059C000067056F83330012583F8005101A83B0AD0
:1059D000032108F130088DF805308DF80480FFF7B9
:1059E00015FF237856F8333083F88050FFF79CFF7B
:1059F00002B0BDE8F08100BFE891FF1F04D20100B2
:105A0000014B024A1A607047E891FF1F03200038DB
:105A1000054BDA6A12F0F00F18BF9B6B4FF2F003E0
:105A20001340002BF4D1704700C0024010B504466B
:105A300007F0ACFAA065204610BDFFFF2DE9F04F3E
:105A400081469FB0900890469A468B4609F050FDDB
:105A50000EF066FC044640460D4609F049FD002262
:105A600006460F464E4B2046294609F0A7FD0B4639
:105A700002463946304609F0EDFB0AF061F8294646
:105A8000C6B220460AF05CF8C3B2BAF1000F05D0E6
:105A9000BAF1010F0CBF0124032400E0022409EB3A
:105AA0000B02002109EB030582F8108082F8301008
:105AB00003277200974095F85010FF43FFB239401A
:105AC00004FA02F20A4385F8502006A835490193EA
:105AD00006F005FD019B02A8194606F036FD02A955
