:1000000000800020BD0100005D5B0100295B010054
:10001000295B0100295B0100295B0100295B0100CC
:10002000295B0100295B0100295B01005D5B010088
:100030005D5B0100295B010031510100F5510100B8
:100040005D5B01005D5B01005D5B01005D5B0100CC
:100050005D5B01005D5B01005D5B01005D5B0100BC
:100060005D5B01005D5B01005D5B01005D5B0100AC
:100070005D5B01005D5B01005D5B01005D5B01009C
:100080005D5B01005D5B01005D5B01005D5B01008C
:100090005D5B01005D5B01005D5B01005D5B01007C
:1000A0005D5B01005D5B01005D5B01005D5B01006C
:1000B0005D5B01005D5B01005D5B01005D5B01005C
:1000C0005D5B01005D5B01005D5B01005D5B01004C
:1000D0005D5B01005D5B01005D5B01005D5B01003C
:1000E0005D5B01005D5B01005D5B01005D5B01002C
:1000F0005D5B0100397501005D5B01005576010013
:100100005D5B0100216301005D5B01005D5B01003F
:100110005D5B01005D5B01005D5B01005D5B0100FB
:100120005D5B01005D5B01005D5B01005D5B0100EB
:100130005D5B01005D5B01005D5B01005D5B0100DB
:100140005D5B01005D5B01005D5B01005D5B0100CB
:10015000C1530100D5530100E9530100FD530100D3
:100160005D5B0100816501005D5B01005D5B01007D
:100170005D5B01005D5B01005D5B01005D5B01009B
:100180005D5B01005D5B01005D5B01005D5B01008B
:100190005D5B01005D5B01005D5B01005D5B01007B
:1001A0005D5B01005D5B01005D5B01005D5B01006B
:1001B0005D5B01005D5B01005D5B0100564B4CF235
:1001C000205210B51A804DF628121A8000BF00BFC9
:1001D00015F0C8FC514B4FF010621A60504A9A60FB
:1001E000504ADA60504A136813F4807301BF4F49D4
:1001F0000B604FF4A85313604D4B4E491A7810070B
:1002000042BF1A7842F008021A704B4B2A221A7029
:100210004A4A4B4B8B4204D252F8040F43F8040B6A
:10022000F8E7484B484A0021934202D243F8041BA6
:10023000FAE7464A4648002350F8231042F82310B4
:1002400001336F2BF8D1434B434A802103F8011B44
:100250009342FBD1414B3D4A1A60414B8A221A70AE
:10026000A3F5805324225A70A0221A709A7991071C
:10027000FCD59A79D206FCD43A4A937903F00C0360
:10028000082B384BF9D103221A7146225A719A79F8
:100290009406FCD533498A79324B5006FBD5324A55
:1002A0004FF0827111600921516020221A709A79F1
:1002B00002F00C020C2AFAD12C4B2D4A1A602D4B5D
:1002C0002D4A1A6000225A60072243F8042C2B4A58
:1002D000C3F80C2D62B615F0CDFD144B1B68DA0780
:1002E00005D5274815F0B8FC264B274A1A60274B3E
:1002F0001B785B0609D5234C234B22689A4204D114
:100300001F4815F0A9FC0023236019F097FD15F094
:100310002FFC15F045FBFEE70E2005403080044021
:10032000823F04000100002B10D0034014D0034092
:1003300002D00740D899FF1F00E0074084810200E7
:10034000308CFF1FD899FF1F8CD6FF1F0082FF1F24
:100350000000000000E400E05FE400E008ED00E0E1
:1003600000500640004006404480044004800440A1
:10037000C010050014E000E0BFD401000000202000
:10038000B847C05A1CE00340A5C3945A00F0074088
:10039000FFFFFFFFFFFFFFFFFFFFFFFFFFFFFFFF6D
:1003A000FFFFFFFFFFFFFFFFFFFFFFFFFFFFFFFF5D
:1003B000FFFFFFFFFFFFFFFFFFFFFFFFFFFFFFFF4D
:1003C000FFFFFFFFFFFFFFFFFFFFFFFFFFFFFFFF3D
:1003D000FFFFFFFFFFFFFFFFFFFFFFFFFFFFFFFF2D
:1003E000FFFFFFFFFFFFFFFFFFFFFFFFFFFFFFFF1D
:1003F000FFFFFFFFFFFFFFFFFFFFFFFFFFFFFFFF0D
:10040000FFFFFFFFFFFFFFFFFFFFFFFFDEF9FFFF23
:1004100010B5054C237833B9044B13B10448AFF33E
:1004200000800123237010BDD899FF1F0000000039
:1004300080810200084B10B51BB108490848AFF392
:1004400000800848036803B910BD074B002BFBD0A0
:10045000BDE81040184700BF00000000DC99FF1FF6
:1004600080810200D899FF1F000000000020704723
:1004700070470369C268934210B509D282685C1C58
:100480000461D154826803690021D154012010BD58
:10049000002010BD10B544F2040403595A18B2F5F7
:1004A000804F9FBF033121F00301C218C9189ABFC2
:1004B0000151101D002010BD18B111B100680139A3
:1004C000FAE7704738B504460D4634B161682846EE
:1004D0001AF0AAFA08B12468F7E7204638BD70B5CB
:1004E000044608460D461AF08BFC2368024629464E
:1004F00020465B68BDE87040184738B5054614F0E3
:1005000098FF0446284614F0B5FF204438BD38B59E
:100510000546FFF7E4FF0446284614F0ABFF2044ED
:1005200038BD38B504460D4614F022FC2946024673
:100530002046BDE8384014F0D9BC38B5836814466D
:10054000426805461819904202D993420AD2D41A39
:1005500028682246184414F025F8AB682344AB60A1
:10056000204638BD002038BD38B58368144642683F
:1005700005461819904202D993420AD2D41A286823
:100580002246184414F014F9AB682344AB602046AB
:1005900038BD002038BD10B504460068FFF79FFF46
:1005A00063681844606010BD10B586B00B4606A99C
:1005B000002201F8032D0A24B3FBF4F204FB1233EA
:1005C000303301F8013D1346002AF5D1FFF7E3FF70
:1005D00006B010BD10B50446006803681B68984754
:1005E00063681844606010BD70B505460C4619B9C3
:1005F0001149FFF7D0FF70BD2221FFF7EBFF013C4F
:1006000014F8011F71B10D4B13F8026C7EB1023367
:1006100013F8032C8A42F7D15C212846FFF7DAFF52
:10062000314604E022212846FFF7D4FF70BD28465A
:10063000FFF7D0FFE4E700BF92E4010099E4010076
:1006400008B5032809D8DFE800F0100204060848BE
:1006500008BD084808BD084808BD0438C0B2FFF707
:10066000EFFF064918F0C0FF08BD4FF07E5008BDEF
:10067000CDCCCC3D0AD7233C6F12833A17B7D13883
:100680002DE9F041064608460C46174619F072F966
:1006900008B14E4917E00021204619F043F928B16E
:1006A0002D213046FFF796FF04F1004424F0004569
:1006B0004749284619F05EF950B94549284619F0CE
:1006C0003BF928B943493046FFF765FFBDE8F081A3
:1006D0004149204619F044F90546002872D13F49A6
:1006E000204619F01FF970B905461FE04FF07E5102
:1006F000204619F017F960B12046394918F074FF07
:10070000013D2DB204460021204619F001F90028D0
:10071000ECD03349204619F023F938B1204630494E
:1007200019F016F801352DB20446F2E73846FFF706
:1007300087FF4FF07C5118F057FF214618F04CFE10
:10074000804619F053F9044601463046FFF72CFF66
:100750002FB3204618F0F0FE0146404618F03AFE4E
:100760002E2180463046FFF735FF1D49404618F0E0
:100770003BFF804619F03AF9C4B2204618F0DCFE7F
:100780000146404618F026FE04F130018046C9B209
:100790003046013FFFF71EFF17F0FF07E5D1002DA0
:1007A00005DA10493046FFF7F6FE694205E00BD046
:1007B00065213046FFF70EFF29463046FFF7F4FE6D
:1007C000BDE8F08100259EE7BDE8F081A6E40100C8
:1007D000FFFF7F7FADE4010000007A446F12833A8F
:1007E00000002041AAE401000246084619B10B6846
:1007F00011461B681847704738B5084D2B6813F031
:10080000010409D1284615F0CBF928B1044B28463C
:100810001C605C6015F0C9F9014838BD009AFF1FE3
:10082000049AFF1F08B54068FFF74CFE20B1037A19
:10083000062B01D1C06808BDFFF7DEFF08BDFFFF32
:1008400038B5084D2B6813F0010409D1284615F07E
:10085000A7F928B1044B28461C605C6015F0A5F987
:10086000014838BDF499FF1FF899FF1F03780D2B3D
:1008700009D003D8093B012B23D804E0202B02D058
:100880002F2B02D070470130F0E743782A2B02D09B
:100890002F2B0DD07047831C1A7818460133002A7D
:1008A000E4D02A2AF8D11A782F2AF5D10230DDE7D0
:1008B000831C184613F8012B002AD7D00A2AF8D136
:1008C000D4E7704738B5044600680D46FFF7CEFF01
:1008D0000378AB4205D10130FFF7C8FF206001204B
:1008E00038BD002038BDFFFF70B5436882681C78B2
:1008F000272C0ED0222C0CD047F6ED7524E05C2975
:1009000005D1AB1CA978174D2E7856B911B302F852
:10091000011B1D4601336978E1B18C42EFD1AB1C5C
:1009200018E0B14201D16978F0E70235ECE7A4F1B3
:100930002B01C9B20E290DD825FA01F1C90709D535
:1009400002F8014B13F8014F24F020014139192915
:10095000EDD8F5E7002102F8011B81684360826051
:10096000084670BD9BE40100027838B505460C4688
:10097000072A3BD8DFE802F040241F2F2A26041B59
:1009800045685B212046FFF725FE6D6855B1281D9F
:100990002146FFF7E9FF2D6825B12C212046FFF7FE
:1009A00019FEF3E75D212046FFF714FE38BD4068CD
:1009B00000F028F838BD41682046FFF715FE38BD25
:1009C00041680FE02D212046FFF704FE69682046AC
:1009D000FFF7EAFD38BD4168084B094A002914BFFA
:1009E000114619462046FFF7D6FD38BD083A416842
:1009F000D2B22046FFF744FE38BD00BFBBE4010081
:100A0000B6E4010070B505460C4620467B21FFF791
:100A1000E1FD6D68A5B12E46204656F8041FFFF78C
:100A2000E3FD3A212046FFF7D5FD2146301DFFF7B3
:100A30009BFF2D6825B12C212046FFF7CBFDE9E770
:100A40007D212046FFF7C6FD70BD10B50146044666
:100A50000820FFF7C9FE18B100230460436010BDF1
:100A6000FFF7CAFE10BD10B5014604460820FFF787
:100A7000BBFE18B100230460436010BDFFF7E0FE29
:100A800010BDFFFF037810B5052B17D8DFE803F082
:100A90001A0808030305406810BD4068404210BDB5
:100AA00044688CB121460A4819F0BEFF70B1204657
:100AB0000A220021BDE810401AF0E0BA406818F0A0
:100AC0006FFF10BD002010BD204610BD012010BDDD
:100AD000B6E40100037810B5052B14D8DFE803F065
:100AE000170505030303406810BD44688CB1214617
:100AF0000A4819F099FF70B120460A220021BDE88A
:100B000010401AF085BB406818F070FF10BD00203F
:100B100010BD204610BD012010BD00BFB6E401008D
:100B200070B5044615F072F9E06415F06FF9A06530
:100B300015F06CF925460023E06545F8683F4FF451
:100B40008A7015F053F82946064610F01BFDE6673B
:100B500004F1840012F0E8FF04F1A40012F0E4FFB5
:100B6000204670BD2DE9F04767498EB006466748BC
:100B7000FFF7CDFC642015F067F9654B1B88ADF8D5
:100B80000430F7238DF8003013F0FCFF20B96149E1
:100B90005E48FFF7BCFCF7E7002400275E495FFAD8
:100BA00087F806A814F02BFD414602A814F047FD73
:100BB00002A906A814F0E2FD584914F0E7FD214609
:100BC00005460AA814F03BFD0AA9284614F0D6FDF4
:100BD00001464E48FFF791FC0AA814F0D0FC02A889
:100BE00014F0CDFC06A814F0CAFC0022022101A8D2
:100BF00016F0D8F84A481AF0DFF8824614F06AF97D
:100C000008B351460AA814F0E9F806F168030AAAE5
:100C10000DF1300E9946154603CD754518605960A3
:100C20002A4603F10803F6D128681860AA889A803A
:100C3000504619F051F9B36E53B93A493348FFF7AA
:100C400066FC02205DE0504619F046F9012058E0AC
:100C50004FF4805019F038F9224605464146304697
:100C600002F0B1F9C0B20003294630674FF4805258
:100C70004846FFF762FC00224FF48051284616F0E8
:100C800091F8284619F028F900220121684616F04B
:100C900089F8642015F0D8F8234906A814F0AFFCB1
:100CA000414602A814F0CBFC02A906A814F066FD88
:100CB0001A4914F06BFD214605460AA814F0BFFC42
:100CC0000AA9284614F05AFD184914F05FFD0146A0
:100CD0000E48FFF712FC0AA814F051FC02A814F009
:100CE0004EFC013706A814F04AFC042F7FF456AFDF
:100CF0000134E4B2102C7FF450AF0D490348FFF7E4
:100D000006FC0EB0BDE8F087C1E40100248FFF1F90
:100D100090E40100E0E40100F3E4010004E50100D7
:100D20000EE5010033E5010081E501008AE50100DF
:100D300016E5010008037047002238B51146044645
:100D400002F046FC0023226E02EB43025D1CB2F867
:100D5000A2206900204602F03BFC042D2B46F2D174
:100D60000025236E03EB4503691DB3F8AA20490053
:100D70002046013502F02CFC042DF2D10025236E13
:100D800003EB450305F10901B3F8B2204900204601
:100D9000013502F01DFC042DF1D10025236E03EB7B
:100DA000450305F10D01B3F88220490020460135C5
:100DB00002F00EFC082DF1D10025236E03EB450354
:100DC00005F11501B3F8922049002046013502F0E3
:100DD000FFFB082DF1D102490248FFF798FB38BD0F
:100DE00090E50100248FFF1FF8B50021044602F0B2
:100DF00001FC4FF6FF73984219D132493248FFF790
:100E000086FB30493048FFF782FB2E492E48FFF71A
:100E10007EFB2C492C48FFF77AFB2A492A48FFF72A
:100E200076FB28492848FFF772FB0120F8BD002512
:100E30006F1C266E7900204602F0DCFB06EB4505B0
:100E4000042FA5F8A2003D46F2D10025691D266EAB
:100E50004900204602F0CEFB06EB45060135042D85
:100E6000A6F8AA00F2D1002505F10901266E490075
:100E7000204602F0BFFB06EB45060135042DA6F81F
:100E8000B200F1D1002505F10D01266E4900204682
:100E900002F0B0FB06EB45060135082DA6F88200EE
:100EA000F1D1002505F11501266E4900204602F01A
:100EB000A1FB06EB45060135082DA6F89200F1D1FD
:100EC0000020F8BDBAE50100248FFF1F036E70B546
:100ED0000446012083F85B0183F85A010E4615464B
:100EE00014F094FF002384F8476084F8503084F8AD
:100EF0004850E06470BD30B413B930BCFFF7E6BFB2
:100F0000036E83F80A1130BC7047FFFF10B588B03C
:100F10000023013A059106920B7003AA064C8DF846
:100F2000103001A90394079301920293FFF76AFD21
:100F3000029808B010BD00BF74E4010010B501684C
:100F400004460C20FFF750FC10B10023036003712E
:100F500063682BB11A680AB11346FBE7186010BD2D
:100F6000606010BD38B50546006810B9FFF744FC55
:100F700038BDFFF76AFD04462846FFF7DFFF40B1A2
:100F80002368002B15BF062200222346002302718E
:100F90008360204638BD10B50C46FFF7CFFF20B167
:100FA0002378836003220271012010BD10B50C4626
:100FB000FFF7C4FF40B12368002BAEBF04225B42A1
:100FC000052202718360012010BD10B50C46FFF7A9
:100FD000B5FF20B12378836004220271012010BD87
:100FE00010B50C46FFF7AAFF48B194F90030002B6A
:100FF000AEBF04225B42052202718360012010BD56
:1010000010B5016804461020FFF7EEFB10B1002375
:101010000360037263682BB11A680AB11346FBE7D9
:10102000186010BD606010BD2DE9F7430546074606
:1010300055F8040BFFF717FD7B2104462846FFF700
:1010400041FC98B37D212846FFF73CFC88BB06464F
:10105000E8463846FFF748FC814638B33A2128462F
:10106000FFF730FC10B3414638468DF8006000F0C1
:1010700024F8D8B149466068FFF724FA28B9204619
:10108000FFF7BEFF90B1C0F8049000F1080398E8A4
:10109000030083E803007D212846FFF713FC40B9D5
:1010A0002C212846FFF70EFC0028D2D1FFF7C8FB01
:1010B00000E0204603B0BDE8F08370B5047B054630
:1010C0000E46002C36D0013C04734068FFF7CEFB7F
:1010D000686004785B2C02D07B2C09D013E0284692
:1010E00000F02AF803680BB9002420E0062306E08C
:1010F0002846FFF799FF0368002BF5D007233370CC
:101100007060012413E0272C04D0A4F122035C4278
:101110005C4100E001242846FFF7E6FB0028E3D00D
:1011200014B10223337001E00124347070602B7B12
:1011300001332B73204670BD2DE9F34105468046EF
:1011400055F8040BFFF781FC5B2104462846FFF7A6
:10115000B9FB08B35D212846FFF7B4FBF8B9064692
:101160006F46394640468DF80060FFF7A6FF98B1FC
:101170002046FFF7E3FE78B1031D97E8030083E8FC
:1011800003005D212846FFF79DFB40B92C2128462E
:10119000FFF798FB0028E4D1FFF72EFB00E0204684
:1011A00002B0BDE8F081FFFF1FB5074B009000299A
:1011B00018BF0B466846019302918DF80C20FFF78B
:1011C00033FF05B05DF804FB3EEF010070B5054646
:1011D00000680E4610B9FFF70FFB70BDFFF735FC36
:1011E000314604466868FFF76DF920B92846FFF7D5
:1011F00007FF48B146602368002B15BF0622002276
:10120000234600230272C360204670BD2DE9F041E1
:10121000ADF5814D5F4B1E93044644F204031EA8B6
:101220000022C2500F46FFF71EFC5B490646FFF73F
:10123000CDFF12231AA905461A93FFF7B7FE216EB8
:1012400028464131FFF7C1FE216E28464231FFF7A3
:10125000BCFE216E28464331FFF7B7FE216E2846BB
:101260004431FFF7B2FE216E28464531FFF7ADFE4F
:10127000216E28464631FFF7A8FE216E28466331CD
:10128000FFF7A3FE2846D4F86080FFF757FE20B191
:10129000D8F86430836004220271404906A814F033
:1012A000AEF9236E02A893F8411014F0C8F902A910
:1012B00006A814F063FA3A4914F068FA236E05465A
:1012C00093F842100AA814F0BAF90AA9284614F0B3
:1012D00055FA334914F05AFA236E054693F8431031
:1012E0000EA814F0ACF90EA9284614F047FA2C49C0
:1012F00014F04CFA236E054693F8441012A814F02B
:101300009EF912A9284614F039FA254914F03EFA3C
:10131000236E054693F8451016A814F090F916A907
:10132000284614F02BFA1E4914F030FA236E1AAA3C
:1013300093F8461001920546104614F080F9019981
:10134000284614F01BFA164914F020FA01461548F5
:10135000FFF7D3F8019814F012F916A814F00FF95A
:1013600012A814F00CF90EA814F009F90AA814F048
:1013700006F902A814F003F906A814F000F94FF4D6
:10138000805239463046FFF7C1FD0DF5814DBDE86D
:10139000F08100BF8CE401007E180200E5E5010049
:1013A0003DEF0100248FFF1F2DE9F041044688B076
:1013B0002D4819F001FD012107464FF4805018F027
:1013C000F9FC064601462046FFF720FF13F0DAFB42
:1013D0000028FBD0394604A813F000FD04F168038F
:1013E00004AA0DF1180E9846154603CD75451860F0
:1013F00059602A4603F10803F6D128681860AA88C4
:101400009A80A36E8BB100254046256713F062FEDB
:1014100025674FF4805231464046FFF7A5F8304625
:1014200008B0BDE8F04118F057BD10491048FFF76B
:101430006EF8104904A814F0E2F83946684614F032
:10144000DEF8694604A814F099F901460848FFF748
:1014500054F8684614F093F804A814F090F803497F
:101460000348FFF754F8DAE7FEE5010007E601005C
:10147000248FFF1F16E60100F0B5304989B00446FD
:101480002F48FFF744F82F4819F096FC064613F052
:1014900021FD78B92C492A48FFF739F84FF48031FB
:1014A0003046FFF73EF8206E0CF072F82046FFF74A
:1014B0007BFF38E025492248FFF729F813F062FB4B
:1014C0000028FBD0314604A813F088FC06AF04AA1C
:1014D00004F16803154603CDBD42186059602A46E1
:1014E00003F10803F6D128681860AA889A80A36ED1
:1014F000FBB1174904A814F082F80A22E16E68468D
:1015000014F0D6F8694604A814F038F901460C48DE
:10151000FEF7F3FF684614F032F804A814F02FF831
:101520000A2014F091FC304609B0BDE8F04018F0F4
:10153000D3BC08490248FEF7EAFFF4E731E60100B0
:10154000248FFF1FFEE5010053E6010087E601003E
:10155000A2E60100BEE6010070B5044640680E46F2
:101560001546FEF7AFFF20B92046FFF749FD48B109
:1015700046602B68002BAEBF04225B42052202723C
:10158000C360012070BDFFFF2DE9F047ADF5804D30
:1015900086B004468DF806308B4B049304A844F2C1
:1015A00004038DF807200022C2508946FFF75BFA3A
:1015B00003AA1223804685490393FFF7CDFF844990
:1015C0004046FFF703FE9DF80730616E40F6142693
:1015D00006FB031101F608110546FFF7F6FC9DF81E
:1015E0000730616E06FB031101F616112846FFF75E
:1015F000ECFC9DF80730616E06FB031101F60F113C
:101600002846FFF7E2FC9DF80730626E284606FB8D
:101610000326FFF793FC20B1B6F81039836004224B
:1016200002710DF107012846FFF7CFFC0DF106010D
:101630002846FFF7CAFC9DF80730616E40F6142675
:1016400006FB031101F6E9112846FFF7C9FC9DF8D6
:101650000730616E06FB031101F617112846FFF7EC
:10166000BFFC9DF80730616E06FB031101F61811EF
:101670002846FFF7B5FC9DF80730616E06FB0311A5
:1016800001F619112846FFF7ABFC9DF80730616E93
:1016900006FB031101F61A112846FFF7A1FC9DF87D
:1016A0000730616E06FB031101F61B112846FFF798
:1016B0008CFC9DF80730616E06FB031101F61C11CE
:1016C0002846FFF782FC9DF80730616E06FB031188
:1016D00001F61D112846FFF778FC9DF80730616E72
:1016E00006FB031101F61E112846FFF76EFC9DF85C
:1016F0000730616E06FB031101F61F112846FFF744
:1017000064FC9DF80730616E06FB031101F5126160
:101710002846FFF75AFC9DF80730616E06FB03115F
:1017200001F621112846FFF750FC9DF80730616E45
:1017300006FB031101F607112846FFF746FC9DF84A
:101740000730616E06FB031101F60A112846FFF708
:101750003CFC9DF80730616E06FB031101F60B118E
:101760002846FFF732FC9DF80730616E06FB031137
:1017700001F60C112846FFF728FC9DF80730616E32
:1017800006FB031101F60D112846FFF71EFC9DF81C
:101790000730616E06FB031101F60E112846FFF7B4
:1017A00014FC9DF80730616E06FB031101F613115E
:1017B0002846FFF70AFC07494046FFF707FD0023CC
:1017C00082460393242707E08CE40100F4E601003D
:1017D0007E180200DBE40100039B3F2B00F3CA806C
:1017E0005046FFF7BFFB03A90546FFF7DFFB616E1D
:1017F0009DF8073006FB03130399284607FB0131C8
:10180000FFF7E3FB9DF80730616E06FB0311039BB6
:1018100007FB031101312846FFF7D7FB9DF807307E
:10182000616E06FB0311039B07FB0311023128467F
:10183000FFF7CBFB9DF80730616E06FB0311039B9E
:1018400007FB031103312846FFF7BFFB9DF8073064
:10185000616E06FB0311039B07FB0311043128464D
:10186000FFF7B3FB9DF80730616E06FB0311039B86
:1018700007FB03110C312846FFF7B2FB9DF8073038
:10188000616E06FB0311039B07FB0311053128461C
:10189000FFF79BFB9DF80730616E06FB0311039B6E
:1018A00007FB031106312846FFF78FFB9DF8073031
:1018B000616E06FB0311039B07FB031107312846EA
:1018C000FFF783FB9DF80730616E06FB0311039B56
:1018D00007FB031108312846FFF777FB9DF8073017
:1018E000616E06FB0311039B07FB031109312846B8
:1018F000FFF76BFB9DF80730616E06FB0311039B3E
:1019000007FB03110A312846FFF75FFB9DF80730FC
:10191000616E06FB0311039B07FB03110D31284683
:10192000FFF75EFB9DF80730616E06FB0311039B1A
:1019300007FB03110E312846FFF747FB9DF80730E0
:10194000616E06FB0311039B07FB03111031284650
:10195000FFF73BFB9DF80730616E06FB0311039B0D
:1019600007FB03110B312846FFF72FFB039B0133C5
:10197000039331E74FF4805249464046FFF7C6FAD9
:101980000DF5804D06B0BDE8F08700BF2DE9F043AE
:10199000036E03EB01131344012683F8116189B030
:1019A00004460D46914601F00EFB5FFA80F804EB09
:1019B0000806B3791BB1204601F088FBF9E701273F
:1019C000E77014F023FAE065334819F0F5F9394669
:1019D00006464FF4805018F0EDF94B460746014695
:1019E0002A462046FFF7D0FD13F0CCF80028FBD0A4
:1019F000314604A813F0F2F904F1680304AA0DF1CA
:101A0000180C9E46154603CD6545186059602A4658
:101A100003F10803F6D128681860AA889A80A36E9B
:101A2000D3B14FEA08334FF48052394623677046EA
:101A3000FEF79AFD01224146204601F0C1FA3846E0
:101A400018F04AFA304618F047FA0023E3700123F1
:101A5000237009B0BDE8F08310491148FEF757FD27
:101A6000104904A813F0CBFD3146684613F0C7FDBA
:101A7000694604A813F082FE01460948FEF73DFDC1
:101A8000684613F07CFD04A813F079FD034904486F
:101A9000FEF73DFDD3E700BFFCE6010007E60100CD
:101AA000248FFF1F16E601002DE9F04304468DB098
:101AB000554819F081F90746204601F011FD2046EE
:101AC00001F08EFA514904A813F099FD3946684691
:101AD00013F095FD694604A813F050FE4C4913F02D
:101AE00055FE0A2205464FF4802108A813F0BAFDDE
:101AF00008A9284613F042FE01464648FEF7FDFCC1
:101B000008A813F03CFD684613F039FD04A813F053
:101B100036FD4FF480213846FEF703FD00253E498F
:101B200008A813F06CFD0A22294604A813F09AFDB8
:101B300004A908A813F022FE384913F027FE014635
:101B40003448FEF7DAFC04A813F019FD08A813F0D6
:101B500016FD00265FFA85F840F61429606EF2B291
:101B600009FB06004146013604F01CF8042EF5D1AD
:101B70002B492848FEF7CBFC0026F1B2424620460E
:101B80000136FFF703FF042EF7D126492148FEF75F
:101B9000BEFC23781BB1204601F098FAF9E72249F0
:101BA00008A813F02CFD0A22294604A813F05AFDB8
:101BB00004A908A813F0E2FD184913F0E7FD014657
:101BC0001448FEF79AFC04A813F0D9FC08A813F0F7
:101BD000D6FC01354FF4FA7014F036F9102D9ED171
:101BE00023781BB1204601F071FAF9E7642014F064
:101BF0002BF9384618F070F90C490648FEF787FCB7
:101C00000DB0BDE8F08300BF0EE5010005E701005F
:101C10001AE70100248FFF1F22E7010055E70100AA
:101C200073E7010088E701009CE70100C8E70100B5
:101C3000F0B52A4989B005462948FEF768FC2948CD
:101C400019F0BAF8064613F045F938B92649244880
:101C5000FEF75DFC2846FFF727FF39E012F092FF00
:101C60000028FBD0314604A813F0B8F806AF04AA48
:101C700005F16803144603CCBC4218605960224643
:101C800003F10803F6D120681860A2889A80AB6E31
:101C9000BBB1164904A813F0B2FC0A22E96E6846EB
:101CA00013F006FD694604A813F068FD01460C48D0
:101CB000FEF723FC684613F062FC04A813F05FFCF7
:101CC00003E00B490648FEF722FC0A2014F0BCF89A
:101CD000304609B0BDE8F04018F0FEB8EBE701006F
:101CE000248FFF1F0EE5010002E8010022E8010039
:101CF0003CE8010070B50546164600242B6E93F8AB
:101D000008312341DB0704D5325DE1B22846FFF7F5
:101D10003DFE0134042CF1D170BDFFFF2DE9F047E9
:101D2000ADF5804D84B0314B0293054644F2040377
:101D300002A800248846C450FEF795FE12230746E9
:101D400001AA2B490193FFF707FC2A493846FFF700
:101D50003DFA01948146019B002B3BDC4846FFF78E
:101D600001F901A98246FFF721F900245046FFF747
:101D7000F9F8296E214401F26F110646FFF70BF9BD
:101D8000296E214401F27F113046FFF704F9296ED4
:101D9000214401F28F113046FFF7FDF8296E2144EE
:101DA00001F29F113046FFF7F6F8296E214401F247
:101DB000AF113046FFF709F9296E214401F2BF1136
:101DC00030460134FFF70CF9102CCFD1019B0133C1
:101DD0000193C0E74FF4805241463846FFF796F82A
:101DE0000DF5804D04B0BDE8F08700BF8CE4010024
:101DF000F4E6010070E801002DE9F041044688B0E6
:101E00002D4818F0D9FF012107464FF4805017F0F4
:101E1000D1FF064601462046FFF780FF12F0B2FED2
:101E20000028FBD0394604A812F0D8FF04F168035B
:101E300004AA0DF1180E9846154603CD7545186095
:101E400059602A4603F10803F6D128681860AA8869
:101E50009A80A36E8BB100254046256713F03AF9AE
:101E600025674FF4805231464046FEF77DFB3046F1
:101E700008B0BDE8F04118F02FB810491048FEF73F
:101E800046FB104904A813F0BAFB3946684613F024
:101E9000B6FB694604A813F071FC01460848FEF73A
:101EA0002CFB684613F06BFB04A813F068FB034996
:101EB0000348FEF72CFBDAE776E8010007E60100AD
:101EC000248FFF1F16E60100F0B52F4989B00446A4
:101ED0002E48FEF71CFB2E4818F06EFF064612F047
:101EE000F9FF78B92B492948FEF711FB4FF48031EF
:101EF0003046FEF716FB206E0BF01EFB2046FFF768
:101F00007BFF35E024492148FEF701FB12F03AFE41
:101F10000028FBD0314604A812F060FF06AF04AAE7
:101F200004F16803154603CDBD42186059602A4686
:101F300003F10803F6D128681860AA889A80A36E76
:101F4000E3B1164904A813F05AFB0A22E16E684671
:101F500013F0AEFB694604A813F010FC01460B48D1
:101F6000FEF7CBFA684613F00AFB04A813F007FB50
:101F7000304609B0BDE8F04017F0AEBF084903484D
:101F8000FEF7C5FAF4E700BF7FE80100248FFF1FCA
:101F900076E801009BE80100CFE80100E4E80100D9
:101FA000FAE8010008B54068FEF786FA10B104307F
:101FB000FEF768FD08BD08B54068FEF77DFA18B168
:101FC0000430FEF787FDC0B208BDFFFFF0B5ADF5E8
:101FD000814D81B07C4B1E93044644F204031EA83D
:101FE00000270A22C750FFF7DFF80668054646B902
:101FF000052013F029FF75497548FEF788FA304629
:10200000DEE07449FEF70EFC3946FFF7CBFF1228DD
:1020100006D0206E0BF0BCFA2046FFF7C5F9CEE0E3
:102020006C49266E2846FEF7FDFB0121FFF7C3FF32
:10203000684986F841002846266EFEF7F3FB022128
:10204000FFF7B9FF634986F842002846266EFEF77F
:10205000E9FB0321FFF7AFFF5E4986F843002846FE
:10206000266EFEF7DFFB0421FFF7A5FF594986F82E
:1020700044002846266EFEF7D5FB0521FFF79BFF9F
:10208000544986F845002846266EFEF7CBFB06210C
:10209000FFF791FF4F4986F846002846266EFEF767
:1020A000C1FB0721FFF787FF4A4986F863002846EE
:1020B000266EFEF7B7FB08214068FEF7FDF910B168
:1020C0000430FEF707FD7066206E90F86330072B32
:1020D0000CBF002101210BF04DFB3F4906A813F076
:1020E0008EFA236E02A893F8411013F0A8FA02A901
:1020F00006A813F043FB394913F048FB236E05464D
:1021000093F842100AA813F09AFA0AA9284613F085
:1021100035FB324913F03AFB236E054693F8431022
:102120000EA813F08CFA0EA9284613F027FB2B49B2
:1021300013F02CFB236E054693F8441012A813F0FD
:102140007EFA12A9284613F019FB244913F01EFB4E
:10215000236E054693F8451016A813F070FA16A9D9
:10216000284613F00BFB1D4913F010FB236E1AAA2F
:1021700093F8461001920546104613F060FA019953
:10218000284613F0FBFA154913F000FB01461048EE
:10219000FEF7B3F9019813F0F2F916A813F0EFF96E
:1021A00012A813F0ECF90EA813F0E9F90AA813F03D
:1021B000E6F902A813F0E3F906A813F0E0F901200C
:1021C0000DF5814D01B0F0BD8CE401002AE901005C
:1021D000248FFF1F7E18020058E901003DEF010027
:1021E0002DE9F041044688B0524818F0E5FD054657
:1021F00012F0C8FC20B950495048FEF788F9F7E7BB
:10220000284612F067FEC8B1294604A812F0E6FD80
:1022100004F1680304AA0DF118081F46164603CE00
:10222000464518605960324603F10803F6D130681C
:102230001860B2889A80A36E2BB95AE0284617F02E
:102240004BFE012072E04FF4805017F03DFE00235A
:102250000146064623674FF480523846FEF76DF973
:1022600031462046FFF7B2FE002837D1304617F03E
:1022700033FE294604A812F0B1FD04AA3B46964657
:10228000BEE80300C64518605960724603F10803B2
:10229000F5D1DEF800001860BEF804209A802849C5
:1022A0002648FEF734F90023314623674FF4805265
:1022B0003846FEF742F931462046FFF787FE68B9F7
:1022C00031461E48FEF723F91E491C48FEF71FF948
:1022D000206E0BF05DF92046FFF766F80A2013F038
:1022E000B3FD304617F0F8FD284617F0F5FD002045
:1022F0001CE0154904A813F082F92946684613F03A
:102300007EF9694604A813F039FA104913F03EFA31
:1023100001460A48FEF7F1F8684613F030F904A8C0
:1023200013F02DF9284617F0D7FD022008B0BDE8BC
:10233000F08100BFFEE50100E0E40100248FFF1FF3
:1023400075E90100BFE9010029EA010066EA010020
:1023500008B54068FEF7B0F818B10430FEF792FBFC
:1023600040B208BD08B54068FEF7A6F828B10430B1
:10237000FEF788FB003018BF012008BD08B5406893
:10238000FEF79AF820B10379062B01D1806808BDC9
:10239000FEF732FA08BDFFFF70B5ADF5804D82B093
:1023A000154B009344F204030A22002468464DF8BA
:1023B0000340FEF7F9FE1149FEF734FA06462146BE
:1023C0003046FFF7DBFF0721FFF7ECFD054608B1BC
:1023D00001200CE021463046FFF7D0FF0121FFF736
:1023E000E1FD1828F4D10134402CE8D128460DF540
:1023F000804D02B070BD00BF8CE40100DBE4010041
:102400002DE9F04F054689B03E4818F0D5FC04464A
:1024100012F0B8FB20B93C493C48FEF778F8F7E7E2
:10242000204612F057FD002847D0214604A812F09C
:10243000D5FC05F1680304AA06AF9A46164603CEFA
:10244000BE4218605960324603F10803F6D1306885
:102450001860B2889A80AB6EA3B3002600275FFA9B
:1024600086FB4FF4805017F02FFDF9B281465A4693
:10247000284600F0A8FDC0B200034FF48052286740
:1024800049465046FEF759F8D5F860804946284637
:10249000FFF782FF08EB0718B044013788F81101F5
:1024A000484617F019FD042FDBD10136102ED5D187
:1024B000204617F011FD002021E0204617F00CFD0A
:1024C00001201CE0124904A813F099F8214668463F
:1024D00013F095F8694604A813F050F90D4913F06C
:1024E00055F901460948FEF708F8684613F047F821
:1024F00004A813F044F8204617F0EEFC022009B0BF
:10250000BDE8F08F0EE50100E0E40100248FFF1F1D
:1025100029EA010066EA01002DE9F04FADF5804D92
:102520009BB0AE4B1893054644F2040318A88A46A4
:102530004FF0000811460A2240F8038040F61424A8
:10254000FEF732FE6F6EA64904FB0AF427440646E6
:1025500097F814390193FEF765F94146FFF72BFD13
:1025600087F808096B6E9E4930461F19FEF75AF925
:102570000121FFF720FD87F816096B6E9849304658
:102580001F19FEF74FF90221FFF715FD944987F84F
:102590000F0930466F6EFEF745F903214068274466
:1025A000FDF78AFF18B10430FEF794FA80B26B6E23
:1025B000A7F810098A4930461F19FEF733F904219C
:1025C000FFF7F9FC87F815096B6E854930461F192E
:1025D000FEF728F90521FFF7EEFC87F814096B6E6A
:1025E0007F4930461F19FEF71DF90621FFF7B0FE9F
:1025F00087F8E9096B6E7A4930461F19FEF712F920
:102600000721FFF7A5FE87F817096B6E744930465E
:102610001F19FEF707F90821FFF79AFE87F8180936
:102620006B6E6F4930461F19FEF7FCF80921FFF762
:102630008FFE87F819096B6E694930461F19FEF73E
:10264000F1F80A21FFF784FE87F81A096B6E6449D6
:1026500030461F19FEF7E6F80B21FFF7ACFC87F8B0
:102660001B096B6E5E4930461F19FEF7DBF80C2123
:10267000FFF7A1FC87F81C096B6E594930461F19FA
:10268000FEF7D0F80D21FFF796FC87F81D096B6E59
:10269000534930461F19FEF7C5F80E21FFF78BFC92
:1026A00087F81E096B6E4E4930461F19FEF7BAF8BF
:1026B0000F21FFF780FC87F81F096B6E48493046F1
:1026C0001F19FEF7AFF81021FFF775FC87F82009F6
:1026D0006B6E434930461F19FEF7A4F81121FFF72E
:1026E0006AFC87F821096B6E3D4930461F19FEF7D9
:1026F00099F81221FFF75FFC87F807096B6E3849DC
:1027000030461F19FEF78EF81321FFF754FC87F8A7
:102710000A096B6E324930461F19FEF783F81421FF
:10272000FFF749FC87F80B096B6E2D4930461F19DE
:10273000FEF778F81521FFF73EFC87F80C096B6E61
:10274000274930461F19FEF76DF81621FFF733FCB5
:1027500087F80D096B6E224930461F19FEF762F8A3
:102760001721FFF728FC87F80E096B6E1C493046CD
:102770001F19FEF757F81821FFF71DFC194987F8B4
:1027800013093046FEF74EF86B6E2344804693F8EB
:10279000083903BB0327144914A812F030FF51462F
:1027A00010A812F04CFF10A914A812F0E7FF0F496F
:1027B00012F0ECFF01460E48FDF79FFE10A812F044
:1027C000DEFE14A812F0DBFE013FE4D16B6E234461
:1027D000102283F8082900270CE000BF8CE40100D8
:1027E0007E180200DBE4010081E5010079EA0100C6
:1027F000248FFF1F39464046FFF7C0FD0121FFF738
:10280000DAFB39460D904046FFF7B8FD0221FFF78D
:10281000D2FB39460C904046FFF7B0FD0321FFF78D
:10282000CAFB39460B904046FFF7A8FD0421FFF78D
:10283000C2FB39460A904046FFF7A0FD0521FFF78D
:10284000BAFB394609904046FFF798FD0621FFF78D
:102850007FFD394608904046FFF790FD0721FFF7BE
:10286000AAFB394607904046FFF788FD0821FFF78D
:10287000A2FB394606904046FFF780FD0921FFF78D
:102880009AFB394605904046FFF778FD0A21FFF78D
:1028900092FB394604904046FFF770FD0B21FFF78D
:1028A0008AFB394603904046FFF768FD0C21FFF78D
:1028B00082FB394602904046FFF760FD0D21FFF78D
:1028C00047FD394683464046FFF758FD0E21FFF786
:1028D00072FB3C4981467068FDF7F4FD20B1083079
:1028E000FEF7D0F811280CDC39464046FFF746FDCC
:1028F0000E21FFF757FB0128C4BF09F101095FFA58
:1029000089F939464046FFF739FD0F21FFF753FBA0
:1029100039460F904046FFF731FD1021FFF74BFB82
:1029200039460E904046FFF729FD0021FFF743FB93
:10293000696E9DF834300E9A01EB040E2421484351
:102940000EEB00010EF800309DF830304B709DF812
:102950002C308B709DF82830CB709DF824300B7193
:102960009DF81C304B719DF818308B719DF8143018
:10297000CB719DF810300B729DF80C304B729DF8A6
:1029800008308B7201379DF820300B73402F0F9B5E
:10299000CA7281F80DB081F80E900B747FF42AAFE3
:1029A0003368002B14BF0126002605D1686E0199FB
:1029B0005246204403F0F6F830460DF5804D1BB02A
:1029C000BDE8F08FF4E601002DE9F047044688B039
:1029D00055480F46914618F0EFF9054612F0D2F827
:1029E00020B952495248FDF792FDF7E7284612F008
:1029F00071FAC8B1294604A812F0F0F904F168038D
:102A000004AA0DF1180A9846164603CE56451860DA
:102A10005960324603F10803F6D130681860B28875
:102A20009A80A36E2BB95FE0284617F055FA012073
:102A300077E04FF4805017F047FA4A460646394689
:102A4000204600F0C0FAC0B2000320674FF4805265
:102A500031464046FDF771FD324639462046FFF7C4
:102A60005BFD002838D1304617F036FA294604A815
:102A700012F0B4F904AA43469646BEE80300D645D0
:102A800018605960724603F10803F5D1DEF80000C2
:102A90001860BEF804209A8026492548FDF737FDC6
:102AA0004A463946204600F08EFAC0B2000320673D
:102AB0004FF4805231464046FDF73FFD32463946DD
:102AC0002046FFF729FD38B931461948FDF71FFDAB
:102AD00019491748FDF71BFD304617F0FDF9284648
:102AE00017F0FAF900201CE0144904A812F087FD41
:102AF0002946684612F083FD694604A812F03EFE9E
:102B00000F4912F043FE01460948FDF7F6FC6846FE
:102B100012F035FD04A812F032FD284617F0DCF95A
:102B2000022008B0BDE8F0870EE50100E0E40100F6
:102B3000248FFF1F93EA0100FEEA010029EA010049
:102B400066EA010070B506460D461446FFF73CFFE5
:102B500001280AD1736E40F614202A46214600FB54
:102B60000530BDE8704003F01DB870BD036E93F8EA
:102B70005B3110B50446DBB190F8482094F8503032
:102B800042FA03F1C9070CD594F8472094F8501085
:102B90002046FFF7D7FF94F85030013384F85030C7
:102BA00006E00133DBB2032B84F85030E6D9EBE7C3
:102BB00094F85030032B09D9226E002382F85B3140
:102BC00084F85030024B94F847201A7010BD00BFB3
:102BD000F8CEFF1F2DE9F041ADF5804D82B0534B8B
:102BE000009344F20403074600240A2268464DF885
:102BF0000340FEF7D9FA0568064625B9052013F00B
:102C000023F94B490AE04B494068FDF75BFC20B1D2
:102C10000830FDF737FF122805D047494748FDF730
:102C200076FC00207DE046493D6E3046FDF7FAFD1A
:102C30002146FFF7A3FB2146FFF7BDF985F85C01AC
:102C40003F49D7F860803046651CFDF7EBFD002159
:102C5000FFF794FB2946FFF791FB0021FFF782FB6A
:102C6000A044374988F86F013046D7F86080FDF7F7
:102C7000D9FD0021FFF782FB2946FFF77FFB0121E9
:102C8000FFF770FBA0442E4988F87F013046D7F843
:102C90006080FDF7C7FD0021FFF770FB2946FFF7B5
:102CA0006DFB0221FFF75EFBA044254988F88F01E8
:102CB0003046D7F86080FDF7B5FD0021FFF75EFBD9
:102CC0002946FFF75BFB0321FFF74CFBA0441C499F
:102CD00088F89F013046D7F86080FDF7A3FD0021FA
:102CE000FFF74CFB2946FFF749FB0421FFF763F987
:102CF000A044134988F8AF013046D7F86080FDF74B
:102D000091FD0021FFF73AFB2946FFF737FB05212C
:102D1000FFF71EFB4444102D84F8BF012C468FD1D1
:102D200001200DF5804D02B0BDE8F0818CE401007A
:102D30002AE90100F4E601006EEB0100248FFF1F79
:102D400070E801002DE9F041044688B0504818F0C1
:102D500033F8054611F016FF20B94E494E48FDF7ED
:102D6000D6FBF7E7284612F0B5F8C8B1294604A803
:102D700012F034F804F1680304AA0DF118081F4694
:102D8000164603CE464518605960324603F10803E3
:102D9000F6D130681860B2889A80A36E2BB957E0DC
:102DA000284617F099F801206FE04FF4805017F093
:102DB0008BF800230146064623674FF480523846BD
:102DC000FDF7BBFB31462046FFF704FF002837D153
:102DD000304617F081F8294604A811F0FFFF04AA35
:102DE0003B469646BEE80300C645186059607246E9
:102DF00003F10803F5D1DEF800001860BEF80420E6
:102E00009A8026492448FDF782FB00233146236738
:102E10004FF480523846FDF790FB31462046FFF7CD
:102E2000D9FE68B931461C48FDF771FB1C491A48A8
:102E3000FDF76DFB206E0AF07FFB2046FEF7DCFFFE
:102E4000304617F049F8284617F046F800201CE0F5
:102E5000144904A812F0D3FB2946684612F0CFFBB0
:102E6000694604A812F08AFC0F4912F08FFC014653
:102E70000948FDF742FB684612F081FB04A812F0F6
:102E80007EFB284617F028F8022008B0BDE8F08144
:102E900076E80100E0E40100248FFF1F8BEB0100C6
:102EA000D3EB010029EA010066EA0100F0B589B020
:102EB00004460F4639483A491D461646FDF727FB9A
:102EC0000E9BC4F880300F9B67656666A567236616
:102ED000162011F0D7FE18B932493048FDF717FB1C
:102EE00000236370A370E370621D04F1450102F8D2
:102EF000013F8A42FBD172B62046FEF799FE20467A
:102F0000FEF7BAFA2046FEF7DFFF62B62046FFF76B
:102F100067F90546B8B1244904A812F070FB0A22EB
:102F20002946684612F09EFB694604A812F026FC6A
:102F300001461A48FDF7E1FA684612F020FB04A8A2
:102F400012F01DFB03E019491448FDF7E0FA204692
:102F5000FFF7F8FE0446B8B1154904A812F04FFB7C
:102F60000A222146684612F07DFB694604A812F049
:102F700005FC01460948FDF7C0FA684612F0FFFA61
:102F800004A812F0FCFA03E00A490448FDF7BFFA6E
:102F900009490248FDF7BBFA09B0F0BD248FFF1FB5
:102FA0003BEC010069EC01008FEC0100B3EC010087
:102FB000C6EC0100E8EC0100F9EC010012F076BC6F
:102FC00001448A71704701EB8200704708B50348DD
:102FD00017F0F2FEBDE8084011F07CBF0EE50100DD
:102FE000F0B5334989B004463248FDF790FA3248CB
:102FF00017F0E2FE064611F06DFFF0B92F4904A864
:1030000012F0FDFA3146684612F0F9FA694604A852
:1030100012F0B4FB01462748FDF76FFA684612F03C
:10302000AEFA04A812F0ABFA11F0A2FE4FF4802120
:103030000246304611F05AFF1CE021491D48FDF7B9
:1030400066FA314604A811F0C9FE04F1680204AB27
:103050000DF1180E17461D4603CD754510605160E1
:103060002B4602F10802F6D128681060AB889380E5
:10307000A36EBBB9304616F02FFF11F083FD38B9AF
:1030800010490C48FDF743FA642012F0DDFEF4E726
:10309000002384F8463063700B490648FDF737FA81
:1030A00009B0F0BD00232367384611F0FDFFE1E7CA
:1030B00034ED0100248FFF1FFCE6010055ED0100F7
:1030C0006BED01008AED01009EED01002DE9F04F4E
:1030D000C5788FB004460DB10320DBE1471D3A46A9
:1030E00012F8013F4BB112F091FEA36DC01A4CF2E1
:1030F0005033984240F2CE8104E06B1C402BF2D05A
:103100001D46EDE7B54817F057FE8246B44817F064
:1031100053FE804611F036FD002800F0DD800121CD
:103120004FF4805016F046FE6219EEB29379013BDF
:1031300006F003098346032B00F2CB80DFE803F09F
:1031400002389AC741460AA8019211F047FE04F1DD
:103150006803019A0AAD0DF1300C9946AE46BEE8FF
:103160000300E64518605960754603F10803F5D180
:10317000DEF800001860BEF804109980A36E002BE2
:1031800040F0DD80974906A812F039FA94F846100D
:1031900002A812F054FA02A906A812F0EFFA924916
:1031A00012F0F4FA414605460AA812F028FA5FE147
:1031B00051460AA811F012FE0AAB04F168020DF1A3
:1031C000300C9E46BEE80300E64510605160734631
:1031D00002F10802F5D1DEF800001060BEF80430FC
:1031E0009380A36E002B40F0BA807E4906A812F0AF
:1031F00006FA94F8461002A812F021FA02A906A8CD
:1032000012F0BCFA794912F0C1FA494601900AA8B5
:1032100012F015FA019B0AA9184612F0AFFA0146FE
:103220007348FDF76AF90AA812F0A9F902A812F08A
:10323000A6F906A812F0A3F941460AA811F0CEFD9E
:103240000AAA04F168030DF1300C9646BEE80300AB
:10325000E64518605960724603F10803F5D1DEF8BF
:1032600000001860BEF804209A80A36E002B40F086
:103270009380C1E051460AA811F0B0FD04F1680343
:103280000AAA0DF1300C01939646BEE80300E6450C
:1032900018605960724603F10803F5D1DEF80000AA
:1032A0001860BEF804209A80A36E002B00F0CB803B
:1032B00031462046FDF73EFD2067019811F00AFFD8
:1032C00012F0A4FD25440423A065AB7101E00023A6
:1032D0009371584616F000FE404616F0FDFD50462C
:1032E00016F0FAFD002504F1450317F8012F0AB185
:1032F0000135EDB29F42F8D12378002B00F0CA804F
:10330000002D40F0C7803B490AA812F078F912F06E
:103310007DFDE16D0A22411A06A812F0C9F906A93D
:103320000AA812F02BFA01463148FDF7E6F806A884
:1033300012F025F90AA812F022F92570AAE0314608
:1033400020460192FDF7F6FC2067484611F0C2FEC8
:10335000019A0223937112F059FDA065B9E7314635
:103360002046FDF7E7FCE36E206700F580529A42A5
:103370000FD99842BFF460AF1B1A1A460193A36E8F
:103380005946184411F00EF9226F019B134423672C
:1033900052E74FF48053F0E731462046FDF7CAFC70
:1033A000E66E206700F58053B34214D9B04209D2CB
:1033B000361AA36E32461844594611F0F9F9236FB4
:1033C0001E44266712F022FDA06525440323AB713D
:1033D000002363707DE74FF48056EAE7FCE60100C6
:1033E0000EE50100DFED010002EE010030EE01000C
:1033F000248FFF1FC6ED0100284906A812F0FFF830
:1034000094F8461002A812F01AF902A906A812F0C0
:10341000B5F9234912F0BAF9494606460AA812F04E
:103420000EF90AA9304612F0A9F901461D48FDF728
:1034300064F80AA812F0A3F802A812F0A0F806A8EF
:1034400012F09DF8C1E7154906A812F0D8F894F8D3
:10345000461002A812F0F3F802A906A812F08EF99D
:10346000114912F093F9494605460AA812F0E7F807
:103470000AA9284612F082F901460A48FDF73DF8EC
:103480000AA812F07CF802A812F079F806A812F047
:1034900076F81EE70FB0BDE8F08F00BFDFED01004A
:1034A00062EE0100248FFF1F95EE010012F0FEB9BD
:1034B00008B5FDF714F808BD00230A2211F0EABF91
:1034C00070B50568044628460E4612F033FA864267
:1034D00003D03146284612F041FA204670BDFFFF66
:1034E0002DE9F04186B004A811F078FA2E4D04A819
:1034F00011F0A2FB2B680093009F044600284CD0DB
:103500002A492B48FFF7D4FF21462948FFF7D4FF6B
:1035100028492748FCF7FBFF27492548FCF7F7FF18
:1035200026492348FCF7F3FF11F09EFA2B6801931C
:10353000019E002411F026FBA0B92B680293029B88
:103540009B1BB3F57A7FF5D901341D491848E4B2C5
:10355000FFF7AEFF3B2C06F57A76EBD9144811F055
:1035600089FFE6E714B1124811F084FF15491048AD
:10357000FCF7CDFF2B680393039B13490C48DC1B1E
:10358000FFF796FF4FF47A710948B4FBF1F1FFF7AA
:1035900093FF0E490648FCF7BAFF4FF47A7012F019
:1035A00053FC06B0BDE8F08124D2FF1FC8EE010035
:1035B000248FFF1FDAEE0100E2EE0100FCEE0100B5
:1035C000756D020012EF010022EF010032EF0100E1
:1035D00073B502AC164644F8041D0D462046D1B220
:1035E000FFF76EFF0135310A20460195FFF768FFAE
:1035F00002B070BD38B508460D4612F09BF904467E
:10360000681C12F097F904EB002080B238BD12F06C
:103610004DB9FFFF37B5044612F0F8FB324BA060FE
:103620001B680193019BE3600522D223172104F15B
:1036300010000EF0D2FB1722002104F1240012F03A
:1036400051FA012384F82430022384F8253003231F
:1036500084F82630042384F82730062384F82830A1
:10366000072384F82930082384F82A30092384F8B2
:103670002B300B2384F82C300C2384F82D300D23B1
:1036800084F82E300E2384F82F30102384F8303045
:10369000112384F83130122384F83230132384F854
:1036A0003330052384F835300A2384F836300F236D
:1036B00084F837300D4B03F1100204F13B01104642
:1036C00053F8045B41F8045B9342F9D10368C4F8F2
:1036D0004B30074B1A889B78A4F84F20204684F87B
:1036E000513003B030BD00BF24D2FF1F4EF20100A5
:1036F00062F2010070B504460E460E4816211546CA
:1037000013F0D0FD0C4811F0B5FE103444F8106CE5
:1037100044F80C5C0121052012F0CEFA2046C821A5
:103720000EF0D2FB20460EF04FFA2046BDE8704066
:103730000EF09EBA65F20100248FFF1F2DE9F743BA
:10374000DFF86890074600F14B05002440F6142886
:1037500000F1100699F80030A3423B6808FB0433DF
:103760000DD193F8223929781BB12023019300232E
:103770000BE040227F208DE805001A460BE093F80D
:103780002229297822B10023019300937F2202E0AD
:10379000019200927F23304601340EF034FB042C5A
:1037A00005F10105D6D103B0BDE8F083F5CEFF1FCA
:1037B000C943C9B2542908D801EB41020023A1EB47
:1037C0008101481ED2B2194617E0A9290BD85539F4
:1037D000C9B2A1EB8102013A01EB41010023D2B24F
:1037E000C9B218460AE05631C8B2A0EB80010139CF
:1037F000002300EB40001A46C9B2C0B20EF05DBB18
:1038000030B500242046FF2505FA04F30B40E340C1
:1038100053431B0AA3400834202C40EA0300F3D191
:1038200030BDC943C9B25429134607D801EB410240
:10383000A1EB8101481ED2B2002115E0A9290AD8C6
:103840005539C9B2A1EB8102013A01EB4101D2B273
:10385000C9B2002009E05631C8B2A0EB800101399D
:1038600000EB40000022C9B2C0B20EF026BB436894
:1038700070B593F8566193F858510446103446B128
:103880002DB1C021FFF794FF002102460EE0402138
:1038900008E035B12022FF21FFF7C3FF3146024681
:1038A00004E0FF21FFF784FF294602462046BDE8D9
:1038B00070400EF0D0BAFFFF2DE9F743DFF87C80AF
:1038C000044600F13B06002540F6142900F11007DC
:1038D000226898F80030317809FB03233846B3F8A2
:1038E00010392B4113F001030DBF01220022FF23E9
:1038F000019212BF8DE80C000093FF2201350EF0FB
:1039000082FA0C2D06F10106E2D104F1460504F11C
:103910004A08002615F8011F0196002300961A4652
:1039200038460EF070FAA845F4D12046FFF79FFF05
:10393000204603B0BDE8F043FFF700BFF5CEFF1F00
:103940002DE9F347DFF89080044600F13B0500269F
:1039500040F6142900F11007236898F8000009FBCD
:10396000003001F0D1FF06EB0010C1B2236898F8D7
:10397000000009FB003090F806398B4202D129780B
:10398000FF2306E0242303FB01035B7943B9297875
:103990000123019300931A4638460EF034FA0DE0E5
:1039A000002295F800A002F09DF901462046FFF79D
:1039B000FFFE5146024638460EF04DFA0136102EF3
:1039C00005F10105C8D12046FFF751FF204602B09E
:1039D000BDE8F047FFF7B2BEF5CEFF1F2DE9F04F6F
:1039E000DFF8C88085B0044600F13B0500265FFA89
:1039F00086FA5046676809F07BFD3B5C04F11007CE
:103A00001BB3284BE0681B680393039B6168264A3D
:103A1000496EB2FBF1F11B1A994216D9FF2329789E
:103A20000193002300931A4638460EF0ECF9013654
:103A3000102E05F10105DAD12046FFF718FF2046C8
:103A4000FFF77CFE05B0BDE8F08F98F800302068E5
:103A500040F6142B0BFB0309504609F049FD2423C3
:103A600003FB00904379C3B198F80000216895F8F2
:103A700000900BFB001B504609F03AFD0022014666
:103A8000584602F02FF901462046FFF791FE4946BD
:103A9000024638460EF0DFF9C9E710222978019373
:103AA0000092C1E724D2FF1FC0C62D00F5CEFF1F34
:103AB0002DE9F04FDFF858A187B004468B4600F19E
:103AC0003B0600275FFA87F82546404609F010FDBF
:103AD00055F8103B9AF8009040F6142202FB093981
:103AE00099F80639834204D1FF23317801937F236B
:103AF0000CE04046039209F0FBFC242303FB0090FA
:103B0000039A437943B901233178019300931A460C
:103B100028460EF078F918E021689AF8009033787A
:103B20000393404602FB091909F0E2FC002201461A
:103B3000484602F0D7F801462046FFF739FE039BBE
:103B40000246194628460EF086F9404609F0D0FC98
:103B500058450CD12B4B62681B6805932A49059B7D
:103B6000526EB1FBF2F2E1685B1A9A423FD801371C
:103B7000102F06F10106A5D1244B1B78032B2DD85D
:103B8000DFE803F002040F1AFF2100E0BF21204606
:103B9000FFF70EFE1521024628460EF05CF97F2144
:103BA00014E07F212046FFF703FE15210246284638
:103BB0000EF051F9BF2109E07F212046FFF7F8FD03
:103BC0001521024628460EF046F9FF212046FFF750
:103BD000EFFD1621024628460EF03DF92046FFF77C
:103BE00046FE2046FFF7AAFD07B0BDE8F08F002390
:103BF00031780193FF2300931A4628460EF003F90B
:103C0000B5E700BF24D2FF1FC0C62D00ECCEFF1FBA
:103C1000F5CEFF1F2DE9F04F044687B0FFF78EFD6C
:103C20002046FFF724FE664F04F13B054FF0000AE3
:103C300040F614285FFA8AF6304609F059FC2368EA
:103C400097F8009008FB093999F806398342304605
:103C500041D109F04DFC4FF0240B0BFB009004F117
:103C600010094279012A06D18023FF2029788DE8A6
:103C7000090000232DE020683A7808FB0202304654
:103C8000039209F035FC039A0BFB00204279022ACB
:103C900006D180232978019300230093FF2213E0AB
:103CA00020683A7808FB02033046039309F020FCB1
:103CB000039B29780BFB00304379032B06D180232B
:103CC00000228DE80C00FF2348466BE0FF230193A0
:103CD00000931A46F8E709F00BFC636893F80C317F
:103CE000834216D1374B2E781B680593059B05211F
:103CF000B3FBF1F1FF2391FBF3F31944C9B2204662
:103D0000FFF756FD3146024604F110000EF0A3F80D
:103D10004AE03B78206808FB030B304609F0E8FBDB
:103D20004FF0240909FB00B043791BB929780193AE
:103D3000009310E03B78206808FB030B304609F045
:103D4000D7FB09FB00B04379012B06D1FF220023EA
:103D500029788DE80C001A4622E03B78206808FBA1
:103D6000030B304609F0C4FB09FB00B04379022B7A
:103D700005D10023297801930093FF2210E03B78BE
:103D8000206808FB030B304609F0B2FB09FB00B0CA
:103D90004379032B08D10022297801920092FF2356
:103DA00004F110000EF02FF80AF1010ABAF1100F19
:103DB00005F101057FF43EAF07B0BDE8F08F00BF0D
:103DC000F5CEFF1F24D2FF1F2DE9FF470446FFF762
:103DD0004EFDDFF8048104F13B07002504F11006D5
:103DE0004FF00509636893F8CF211A4492F8AF2188
:103DF000AA4213D1D8F800300293029BB3FBF9F129
:103E0000122303FB0513FF2293FBF2F11944C9B2FD
:103E1000204697F800A0FFF704FD25E02B4493F817
:103E2000112142B993F821212AB993F8312112B90D
:103E300093F84131F3B1D8F800300393122303997A
:103E4000B1FBF9F103FB0511FF2391FBF3F31944D7
:103E50000022C9B2204697F800A0FFF7E2FC4022FA
:103E600001462046FFF7CCFC0246514630460DF095
:103E7000F2FF07E00A223978019200931A46304691
:103E80000DF0C1FF0135102D07F10107AAD1002562
:103E900004F14B074FF00A08A9464FF0FF0A636888
:103EA000397893F8CF2103EB0513134493F86F315E
:103EB0001BB18DE80006002301E08DE808011A46D9
:103EC000304601350DF09FFF042D07F10107E6D1C3
:103ED00004B0BDE8F08700BF24D2FF1F2DE9F04FEA
:103EE00085B00546FFF7C3FC394F05F13B060024BA
:103EF00005F110084FF005096B68234493F8112170
:103F000042B993F821212AB993F8312112B993F8D3
:103F10004131BBB13B68029312230299B1FBF9F125
:103F200003FB0411FF2391FBF3F31944C9B22846A4
:103F300096F800A0FFF73CFC5146024640460DF0C3
:103F40008AFF07E00A223178019200931A46404620
:103F50000DF059FF0134102C06F10106CCD1DFF829
:103F6000709005F14B0700264FF00A0A6B6893F832
:103F70000831334113F0010319D0D9F8003003930D
:103F800012230399B1FBFAF103FB0611FF2391FB06
:103F9000F3F31944C822C9B2284697F800B0FFF7D6
:103FA00040FC5946024640460DF055FF07E039787F
:103FB0000193102300941A4640460DF024FF013669
:103FC000042E07F10107D1D105B0BDE8F08F00BF85
:103FD00024D2FF1F37B504460D4611F017FFA36822
:103FE000C01A854250D211F011FFA060274828491D
:103FF000036800936368009A5D6EB1FBF5F1E568B4
:10400000521B91423FBF02680192019AE260214A2D
:104010001278013A152A33D8DFE802F016160B0B96
:10402000323223320B2B0B0B0B0B0B32322B322B7E
:10403000162F194B1B78162B204602D1FFF73CFC9C
:104040001EE0FFF77DFC1BE093F840201AB12046EC
:10405000FFF7C4FC14E093F80C112046FFF728FD8D
:104060000EE093F84030002BF1D12046FFF7D2FD4F
:1040700006E02046FFF732FF02E02046FFF7A4FEED
:1040800004F110000DF0F4FD03B030BD24D2FF1F89
:10409000808D5B00108DFF1FF7CEFF1F11F006BC57
:1040A00010B5BDF80840521AE41AA242A0EB010074
:1040B000C6BF04FB00000132604390FBF2F01844DD
:1040C00010BD521AB2F5004F00F58040B5BF02FB9B
:1040D0000002424348F201004FF4004092FBF0F22C
:1040E000501870472DE9F04704460D461E460A9FBA
:1040F000B049B148DDF82090DDF824A09046FCF7E7
:1041000006FA2766E66400270126C4F85490C4F82E
:104110005880AA49C4F85CA027736773A773E77334
:1041200026746674A674E67427756775A775E775B7
:1041300084F83C6084F83D6084F83E6084F83F6019
:10414000A762E7622763676384F8386084F83960A0
:1041500084F83A6084F83B609748FCF7D8F921214D
:104160002846256503F0A0F933460822394628463B
:1041700003F048F8334604223146284603F042F85B
:10418000334609220221284603F03CF83346052233
:104190000321284603F036F833460622112128462B
:1041A00003F030F802230A220421284603F02AF8FB
:1041B000022307220521284603F024F802230B22BC
:1041C0000621284603F01EF802230C220721284668
:1041D00003F018F833461B220821284603F012F892
:1041E000334612220921284603F00CF833461322E5
:1041F0000A21284603F006F8334614220B212846EC
:1042000003F000F8334615220C21284602F0FAFF8D
:10421000334616220D21284602F0F4FF33461722BA
:104220000E21284602F0EEFF334603220F212846D6
:1042300002F0E8FF334618221021284602F0E2FF80
:1042400002230E221621284602F0DCFF02231A4622
:104250001221284602F0D6FF0223324613212846B7
:1042600002F0D0FF02231A221421284602F0CAFFCE
:1042700002230D221521284602F0C4FF02230F223B
:104280001721284602F0BEFF0223102218212846DB
:1042900002F0B8FF022311221921284602F0B2FFD2
:1042A000022319221A21284602F0ACFF02233A46C3
:1042B0001B21284602F0A6FF284603F07BF8404960
:1042C0003D48FCF724F9022104F1480002F026FFE2
:1042D00004F14A090A2011F0B7FD1321484603F002
:1042E0008FF904F14B080A2011F0AEFD404612216F
:1042F00003F086F90A2011F0A7FDFEB2012011F0AB
:10430000A3FD01223146484603F0C0F9012011F017
:104310009BFD01223146404603F0B8F9012011F01F
:1043200093FD012011F090FD012011F08DFDFF2281
:104330003146484603F0AAF9012011F085FDFF221D
:104340003146404603F0A2F9012011F07DFD01370E
:10435000012011F079FD042FCFD104F1670604F19B
:104360006B0716F8013F2344012293F8701028468A
:1043700003F08FF833792344012293F87010284614
:1043800003F087F8BE42ECD10E490B48FCF7BFF8AA
:1043900001211F2011F090FC0121042011F08CFC60
:1043A00009490548FCF7B3F82846BDE8F04703F093
:1043B00037B800BF7CF20100248FFF1F8EF201008E
:1043C000A8F20100B9F20100CEF20100C06D40F682
:1043D000142303FB0100012101F0CAB9006EFEF7AE
:1043E000C5BB006EFCF772BD70B500F148040D4608
:1043F0001646204602F0B2FE324629462046BDE867
:10440000704002F0ABBEFFFF2DE9F8430446006D9B
:1044100003F006F801221121E06C666D0EF0BAFF80
:104420000225012290FBF5F02421A6F8BA00E06CE9
:10443000666D0EF0AFFF012290FBF5F02521A6F886
:10444000BC00E06C666D0EF0A5FF222190FBF5F03C
:104450000122A6F8BE00E06C666D0EF09BFF90FB9B
:10446000F5F0A6F8C000734E002140F60107656D17
:1044700005EB4100B0F8BA20B0F8B2E0724516D2B0
:10448000B0F8A230C3EB0E0EB645A2EB0303B5BFE6
:10449000C3EB8353A3EB83229B020EF10103B4BF52
:1044A00093FBFEF392FBF3F303F5806313E0B0F8A4
:1044B000AA30CEEB030CB445CEEB0203B5BFC3EB81
:1044C0008353A3EB83229A020CF10103B4BF92FB46
:1044D000FCF392FBF3F3A0F87630B0F976300D449C
:1044E00003F58063013103EBC313042993FBF7F356
:1044F000A3F1400385F86830B9D1012248F20100E8
:104500000C291ED002FA01F313F42A6F0AD113F416
:10451000AA6F16D0636D5D1803EB410393F8BA30B0
:10452000183B0CE0636D5D1803EB4103B3F8BA3040
:1045300003F5804303EBC31393FBF0F3403B85F893
:10454000683001310D29DBD10421206D656D03F048
:1045500030F880F0010085F8DB000521206D656DE5
:1045600003F027F880F0010085F8DC000621206DBB
:10457000656D03F01EF880F0010085F8DD0007216D
:10458000206D656D03F015F880F0010085F8DE0000
:104590000421206D656D02F0E8FF85F8D200052149
:1045A000206D656D02F0E1FF85F8D3000621206DD6
:1045B000656D02F0DAFF85F8D4000721206D656D86
:1045C00002F0D3FF002785F8D5004FF0010804253D
:1045D0002E1FF6B23146206D02F0F5FF28B3636D51
:1045E000206D2B44314693F8DB9002F0ECFF8145BF
:1045F0001BD0636D2B4483F8D280D4F85490206D87
:10460000314602F0E0FFA9440135082D89F8DB00AE
:10461000DED12946206D012202F03BFF2946206DA4
:104620000022BDE8F84302F034BF636D2B4483F8E9
:10463000D270E2E701FCFFFF2DE9F0419E4D90B002
:104640002B680193019B2B680093009B9B4B1B786D
:104650003B3B04461E2B00F20F82DFE813F01F00E5
:10466000480073001F00480073001F0048007300DB
:104670001F00480073000D020D020D020D020D0215
:104680000D020D020D020D020D020D020D020D02B2
:104690000D020D020D020D029C003B01884D00F140
:1046A000480605F1080815F8017F636D03EB470321
:1046B0000020B3F89220B3F88210FFF702FD3946CC
:1046C00082B2304602F04AFD2F78636D03EB470358
:1046D0000020B3F89220B3F88210FFF7F2FC3946BD
:1046E00082B2304602F03AFDA845DCD1C4E1744DF7
:1046F00000F1480605F1080815F8017F636D03EB2A
:1047000047034FF40050B3F89220B3F88210FFF73C
:10471000D8FC394682B2304602F020FD2F78636D16
:1047200003EB47034FF40050B3F89220B3F8821024
:10473000FFF7C7FC394682B2304602F00FFDA845AC
:10474000DAD199E15E4D00F1480605F1080815F847
:10475000017F636D5B4803EB4703B3F89220B3F826
:104760008210FFF7AEFC394682B2304602F0F6FC0A
:104770002F78636D534803EB4703B3F89220B3F8E7
:104780008210FFF79EFC394682B2304602F0E6FC0A
:10479000A845DCD170E1FFF737FE2B68626D02930C
:1047A000029BD2F8D4219B1A642B75D9002633467C
:1047B000616D8A1992F8DB70012F2CD191F80031CC
:1047C00082F8FC30404908A810F019FF636D04A876
:1047D00093F8001110F033FF04A908A810F0CEFFE1
:1047E0003A4910F0D3FF0A22804631460CA810F057
:1047F00039FF0CA9404610F0C1FF01463448FBF7D1
:104800007CFE0CA810F0BBFE04A810F0B8FE08A8AF
:1048100010F0B5FE3B460136042EC9D173BB626D64
:10482000294992F800311344FF2683F8FC6008A858
:1048300010F0E5FE636D04A893F8001110F0FFFE80
:1048400004A908A810F09AFF204910F09FFF0A223F
:10485000074631460CA810F005FF0CA9384610F0A9
:104860008DFF01461A48FBF748FE0CA810F087FEA2
:1048700004A810F084FE08A810F081FE626D92F882
:104880000031013303F0030382F800312A68636DBD
:104890000392039AC3F8D4210025636D206D93F829
:1048A00000319D42E9B20CBF01220022013502F025
:1048B000F0FD042DF1D1DFE024D2FF1FF7CEFF1F62
:1048C000D38DFF1F00E0FFFF13F3010025F301006C
:1048D000248FFF1F2A68436D04920499D3F8D401F2
:1048E000091A962903D993F80021012A6BD12A6865
:1048F0000892089A121AB2F5967F40F2BD80604A7B
:1049000012680C9200250C9A83F80051C3F8D42148
:10491000626D92F80131103303F07F0382F80131A8
:10492000264604F14B0796F86C30206D2344012293
:1049300093F8701002F0ADFD96F86830206D2344B6
:10494000012293F8701002F0A4FD96F86830234419
:10495000013593F878100A110CBF04F14A0038466B
:1049600001F00F0118BF002202F090FE96F86C30A3
:104970002344013693F878100A110EBF04F14A005F
:104980000022384601F00F0102F080FE042DCAD14A
:104990003C4D04F1480605F1080715F8011F636D49
:1049A00003EB41033046B3F8822002F0D7FB2978AD
:1049B000636D03EB41033046B3F8822002F0CEFB77
:1049C000AF42EAD158E0012283F8002125460026B3
:1049D00004F14B0804F14A0795F86C30206D23442C
:1049E000002293F8701002F054FD95F86830206DA5
:1049F0002344002293F8701002F04BFD95F86830C4
:104A00002344013693F878100B09636D0CBF3846C8
:104A1000404693F8012101F00F0102F037FE95F8AE
:104A20006C302344013593F878100B09636D0CBF8B
:104A30003846404601F00F0193F8012102F026FEAE
:104A4000042EC9D10F4D04F1480605F1080715F8E9
:104A5000011F636D03EB41033046B3F8922002F06F
:104A60007DFB2978636D03EB41033046B3F8922058
:104A700002F074FBAF42EAD110B0BDE8F08100BF94
:104A800024D2FF1FD38DFF1F29B1406D014491F93E
:104A9000671088B2704708467047093108B5112978
:104AA0005DD8DFE801F0544F4A45403B36312C5D7C
:104AB000090D14181C202428436D93F8DB0002E034
:104AC000436D93F8DC00003018BF012008BD436D32
:104AD00093F8DD00F7E7436D93F8DE00F3E7436DED
:104AE00093F8DF00EFE7436D93F8E000EBE7436DE9
:104AF00093F8E100E7E7436D93F8E200E3E7642011
:104B000010F028FD5A2826E0642010F023FD5028DC
:104B100021E0642010F01EFD46281CE0642010F007
:104B200019FD3C2817E0642010F014FD322812E033
:104B3000642010F00FFD28280DE0642010F00AFD1D
:104B40001E2808E0642010F005FD142803E064200E
:104B500010F000FD0A2894BF0020012008BD08BD08
:104B6000002008BD436D03EB4202B2F89230B2F868
:104B70008200181A80B24143142091FBF0F080B2F9
:104B80007047436D03EB4101B1F88200B1F89230F8
:104B90001844C0F34F00704770B511461E460546D5
:104BA000FFF7EFFF314604462846FFF7DBFF201AE8
:104BB00080B270BD416D01EB420110B5B1F8924079
:104BC0001946FFF7CFFF201A80B210BD2DE9F34739
:104BD0009DF8289007460E4690469A46B9F1000F78
:104BE0000ED0421892F868502A46FFF7D5FF2A46A1
:104BF0000446534631463846FFF7DCFF054603E0DE
:104C00004FF480454FF44044FB6D40F6142101FB06
:104C1000063191F81339012B2BD012D3022B4BD133
:104C2000274B2D1B33F81800B5F57D7FB5BF05FB6D
:104C30000005454340F2F5304FF47D7095FBF0F0F0
:104C400037E00026B1F8103991F80F290096414657
:104C5000786D08F029FE009523467822B9F1000FFF
:104C600001D0314601E06FF07701FFF719FA00B289
:104C700023E0B1F8103991F80F2900210091786DE7
:104C8000414608F011FE97F8B31190FBF1F201FBD9
:104C90001202C43242F6E06337F812202D1B10FBDB
:104CA00003F393FBF1F0104405FB0000054D90FB6E
:104CB000F5F0044420B200E0002002B0BDE8F08727
:104CC000648DFF1FC1D401002DE9F04F89B09846D3
:104CD0009DF8483003939DF8543005939DF85C305F
:104CE00004939DF8703006931D9B0793436D9DF8C8
:104CF0004C709DF850B09DF858609DF860A003EB93
:104D000081030446A3F8C280049B0D4691460BB96B
:104D100056B128E0006D02F056FC0028F8D0BAF138
:104D2000000F40F0AE8017E0BAF1000F40F0A18014
:104D30006619012296F86830206D234493F87010AC
:104D400002F0A7FB96F86830234493F878100A1114
:104D500001F00F0122D024E052462946206D02F0D6
:104D600098FB002EE4D004EB050A00229AF8683084
:104D7000206D234436B293F8701002F08AFB9AF843
:104D8000683023447F2293F878100B0901F00F015B
:104D900071D1C6EB062696FBF2F2D2B204F14A00BC
:104DA00002E0002204F14B0002F070FC87B16319AD
:104DB0009DF80C201A759DF814201A7683F8089037
:104DC0001F7383F810B005F10A03079A44F82320F3
:104DD000069B002B43D1636D04EB050A2B440FFAAD
:104DE00088F74FF001099AF868B093F84330CDF88E
:104DF00000903A4629462046FFF7E8FE04F14806AF
:104E000082B25946304602F0A9F9636D9AF868A05B
:104E10002B443A4693F84330CDF80090294620467B
:104E2000FFF7D4FE514682B2304602F097F9691E70
:104E3000C9B20F2913D8A66DB06C036841F0900178
:104E40001B689847B06C036808F07F011B6898479F
:104E5000B06C039A036802F07F011B689847049BBB
:104E60009BB1206D0122294609B0BDE8F04F02F048
:104E700010BB032677E7C6EB062696FBF2F2D2B20A
:104E800090E7002E08BF03266DE709B0BDE8F08F5C
:104E9000F7B500220446034600F12406154601201A
:104EA0000132042A1D7318741D7583F83C0046F8FE
:104EB000045F03F1010383F83700F1D16518626DD7
:104EC00095F86C70154902EB47020020B2F8823069
:104ED000B2F8922000924FF48042FFF7E1F804F11B
:104EE000480682B23946304602F038F995F86C50DF
:104EF000626D0A4902EB45020020B2F88230B2F836
:104F0000922000924FF48042FFF7CAF8294682B2FD
:104F1000304603B0BDE8F04002F020B900C0FFFF0A
:104F200010B501449DF80840087A904208D13CB180
:104F30000B759DF80C300B749DF810300C730B76CC
:104F400010BDFFFF2DE9F04F85B09A469DF83C302B
:104F5000DDF8388006460F461546002B40F05D828E
:104F600000EB8109D34B1B68D9F82830934200EB42
:104F700001042BBF02EB0A00D01AC01A514628BF09
:104F8000514608F077FA237C5843736C4FEA580B6C
:104F90005B454FEA900004D95D453CBF05EB0B0330
:104FA0007364237B002B00F03882013B0D2B00F251
:104FB000B681DFE813F00E0018001C0184009E008B
:104FC000220048002101B40052018501CC00D90023
:104FD000EB00D9F8283003EB18139D4280F09F8135
:104FE0004FF48049CEE0002394F914200093394611
:104FF0003046FFF7EBFD8146C4E0D9F828309D42EA
:10500000C0F08D81207C08FB00F003EB90029542FC
:1050100000F28581C208D1188D42A5EB030324BF9D
:105020009B1A23F07F0394F914904FEA902027BF36
:10503000B3FBF0F3C3F1800323F07F02B2FBF0F384
:1050400013FB09F980E0D9F828309D42C0F0678150
:10505000207C08FB00F003EB9002954200F25F8198
:105060004FF00C0EB0FBFEFE0EEB030C654594F901
:1050700014100CD2C3EB050E2EF07F0E4FF4C06857
:10508000B0FBF8F8BEFBF8F818FB01F95CE04FEA5A
:105090004E08E644754502D24FEAC11972E0EA1A99
:1050A000C8EB020323F07F024FF4C063B0FBF3F3BD
:1050B000B2FBF3F3C3F1800313FB01F944E0D9F829
:1050C00028209542C0F02B81237C08FB03F302EBE0
:1050D00093018D4200F22381AA1A94F9149022F0D0
:1050E0007F015A0AB1FBF2F2C2F1800212FB09F908
:1050F0002AE0D9F828108D42C0F01181237C08FBEA
:1051000003F301EB9302954200F20981691A21F041
:105110007F015B0A94F91490B1FBF3F390E794F9E3
:1051200014204FEA1813B0FBF3F05FFA80F9A9F1ED
:10513000800902FB09F9B9F1000FB8BFC9F10009F4
:10514000A9EB82194FEA49090FFA89F91AE04FEAE7
:105150001813B0FBF3F05FFA80F9A9F1800094F91D
:10516000149019FB00F9EFE794F914904FEA181323
:10517000B0FBF3F0C0B2C9F10009803810FB09F0B0
:105180000FFA80F94FF000084346CCE014F0D4F950
:10519000494914F029FA81464FEAC80014F0CCF9C5
:1051A0000146484614F0D4FA13F0C4FD12F098FBFF
:1051B0000022002314F0A2F898B194F838000028D7
:1051C00000F0278194F91410C1EB4160C001C901BE
:1051D00010F0CBF94FF000080FFA80F984F838800E
:1051E000D2E74FF0010884F8388081469AE094F9BC
:1051F00014904FEAC919C5E714F09EF92E4914F02E
:10520000F3F981464FEAC80014F096F90146484682
:1052100014F09EFA13F08EFD12F062FB8046894670
:1052200094F9140013F074FD42464B4613F0D6FD7A
:105230000022224B13F0D2FD14F080F894F86C3069
:1052400033440FFA80F993F87010306D002202F0A9
:1052500020F94FF00008012370E014F06DF91649B1
:1052600014F0C2F981464FEAC80014F065F901460E
:10527000484614F06DFA13F05DFD12F031FB002288
:10528000002314F03BF894F9149010B14FEAC919B7
:1052900005E0C9EB49294FEAC9190FFA89F994F8D1
:1052A0006C30306D3344012293F8701002F0F1F845
:1052B00068E700BF041000E0DB0F494000006040D9
:1052C00014F03AF9564914F08FF981464FEAC800B4
:1052D00014F032F90146484614F03AFA13F02AFD68
:1052E00012F0FEFA0022002314F008F894F914904A
:1052F00010B14FEAC91905E0C9EB49294FEAC919AC
:105300000FFA89F994F86C30306D3344002293F829
:10531000701002F0BEF84FF00008282303E04FF0B1
:105320000009C8464B4694F86C10306D0393314425
:10533000012291F8701002F0ACF8039B94F9180068
:1053400009EBC0191FFA89F00FFA80F9B9F5804FFF
:1053500002DDC0F5004906E019F5804F05DAC9F114
:105360000009A9F500490FFA89F947B9726C95420D
:1053700081BF9344BBFBFAF20AFB12B27264B8F12C
:10538000000F4AD1726D02EB870706F14805A7F8B6
:10539000C49094F86C20324492F878100A090CBF3B
:1053A00006F14A0006F14B001A4601F00F0102F027
:1053B0006DF994F86C70726D1A4902EB4702002384
:1053C00084F83C30B2F88230B2F89220009248461D
:1053D0004FF48042FEF764FE394682B2284601F05F
:1053E000BDFE94F86C40726D0E4902EB44024846D3
:1053F000B2F88230B2F8922000924FF48042FEF769
:105400004FFE214682B2284605B0BDE8F04F01F0BC
:10541000A5BE81464FF0010884E705B0BDE8F08FD6
:10542000DB0F494000C0FFFF70B505460C4616462D
:105430001BB10022006D02F02CF8611EC9B20F29C9
:1054400013D8AC6DA06C036841F080011B689847CD
:10545000A06C036806F07F011B689847A06C036886
:1054600040211B68BDE87040184770BD0022006DE8
:1054700002F00FB808B5406D08F074F920B9034B7D
:105480001868C0F3800008BD002008BD90F00F40F0
:1054900037B50446406D0D4608F064F928B1042381
:1054A0000DB1074A00E0074A136084F8405025B167
:1054B000054B1B680193019B236003B030BD00BF07
:1054C00084F00F4088F00F4024D2FF1F10F0EEB997
:1054D0004379032B0AD8DFE803F00A020204012013
:1054E0007047808AB0FA80F040097047704700200A
:1054F0007047FFFF002380F80039024B1B68C0F89B
:10550000043A7047041000E0144BD0F8FC1970B551
:105510001D68D0F8083A0446E81AD4F8002A002397
:10552000A1FB000114F082FA94F8071994F80829F5
:105530000A442421234601FB0242002693420AD05A
:10554000597C012905D19969884236BF091A9E61A3
:1055500099612433F2E7C4F8085A70BD041000E0E2
:1055600070B5174B04461D6884F8F519D0F8100A79
:105570000E4608F0EFF810B1012384F8023994F8D0
:10558000F239D4F8102A63B9D4F8043AEB1AC4F803
:10559000003A92F8563153B1B4F8F6390133A4F811
:1055A000F63992F8563113B1002384F8F2394FF0EE
:1055B0008073C4F8045AB3FBF6F1C4F8FC1970BD4B
:1055C000041000E04FF08070704790F8F539B0F8A3
:1055D000F62980F8081913FB01F192FBF1F301FBA6
:1055E0001321A0F8F619704790F9E939002BDABFBA
:1055F000C3F10200C0B20120002BCCBFDBB20123FB
:105600000006B0FBF3F0704708B50246FFF7ECFF69
:1056100092F80839584308BDF7B5044690F8066972
:1056200000F0E8F80746C4F8EC092046FFF7DCFF75
:1056300094F80A29B7FBF0F3322A1DB20ED999B2B9
:1056400011F0010F0FD0323A00FB13735200504398
:105650006422B0FBF2F0834271D904E003D099B226
:1056600011F0010F6FD194F8F4399D4255D094F8A0
:105670000B39032B4FD8DFE803F0161F023394F8E1
:10568000062994F807399A4201D1012306E094F8DB
:1056900008190B44013B9A4202D1002384F80339D4
:1056A00094F8033943B194F8060994F8082994F85A
:1056B0000719402301302AE094F8082994F80739A3
:1056C000294994F806091344013B19400029BEBF3B
:1056D00001F1FF3161F03F0101314023013816E053
:1056E00094F8070994F8081901440FF03EFF94F864
:1056F000082994F807391C491344013B1940002933
:10570000BEBF01F1FF3161F03F010131402307F0DD
:10571000DAFE84F8060984F8F45994F81539012B57
:1057200001BF124B1B680193019B94F80639B342E9
:1057300018D094F80539013384F8053912E04D1E6C
:105740002DB200230BE000FB137352005043642280
:10575000B0FBF2F0834286D34D1C2DB2012384F8B6
:10576000013980E703B0F0BD3F00008024D2FF1F65
:1057700010B5D0F8103A90F815291A4404460120C3
:1057800082F80D0193F85D0194F8152990424FF0CD
:10579000000208BF83F859210023A4F8F62991B12B
:1057A000012284F8F229124A84F800391268C4F8F8
:1057B000042A94F8072984F8023984F8F43984F823
:1057C000062984F803392046FFF726FF234604F50F
:1057D000106100225A749A829A6124338B42F9D163
:1057E00094F81519D4F80C0ABDE81040FFF73EBE36
:1057F000041000E02DE9F843254B1E6804460027FD
:10580000D4F8040AD4F8002AD4F8FC39B4F8F659CC
:10581000301A904228BF02F1FF304FEAE079A3FB33
:1058200000015D4303FB0911002314F0FFF8054458
:105830002046FFF7E9FE854226D3D4F8103A94F8C3
:10584000151993F85D21914219D193F85A31B3B1EA
:105850000025D4F8103A93F85E2103EB05131344A6
:1058600093F86F3123B1E9B2D4F80C0AFEF7AEFD1C
:105870000135042DEDD1D4F8103A83F85A71002186
:105880002046FFF775FFBBE72846BDE8F88300BF59
:10589000041000E02DE9F84306460C46D0F8EC79F8
:1058A000FFF7B2FE96F8083996F8F55986F8E91927
:1058B000002915FB03F5DABFC1F10203DBB20123B6
:1058C000002905FB03F50246CCBFCBB2012395FBB3
:1058D000F3F3A7FB03014FEAE37907FB0911002368
:1058E00014F0A4F8002CCCBFE4B2012495FBF4F230
:1058F000D31714F09BF83046A6F8F629FFF77AFF85
:10590000C6F8EC09BDE8F88390F80609000970476D
:105910002DE9F04F90F8226985B00446002E40F042
:10592000E180D0F8103A93F85691B9F1000F00F0E9
:10593000D980FFF771FE254604F62917B04694F882
:10594000081994F807390B44B3425EDB6B79002BDE
:1059500057D06A7C042A04D0062A36D0012A50D1B6
:1059600010E094F806399E4240F0B780012948D1F2
:105970002046FFF739FED4F8EC39B3EB900FC0F0B6
:10598000AC803EE0A9692A6A91423AD25FFA86FB6E
:10599000032B07D8DFE803F002020402CA4601E045
:1059A0004FF0000A52465946204600F0FCFC4FF0EA
:1059B00006036B745946AB8A0393204600F0DEFC65
:1059C000039B83421DD904231AE05FFA86FBD4F8B7
:1059D000EC39AA8A03935946204600F04FFC039BFA
:1059E00083420ED92846FFF773FD97F840203B7895
:1059F000009259460246204600F077FA4FF0010324
:105A00006B7401362435013799E794F8065924263A
:105A100006FB054292F81180B8F1000F58D105EB52
:105A2000C50304EB83035979002951D0A2F81480EF
:105A300094F81B19D4F80C0A93F80790FFF724F890
:105A4000142705224146B0FBF7F019FA80F007F061
:105A50001BFD254485F8290994F8065994F81D1969
:105A6000D4F80C0A06FB0543254493F80880FFF799
:105A70000BF805220121B0FBF7F018FA80F007F0CF
:105A800003FD85F8690994F81C1994F80659D4F8AF
:105A90000C0AFEF7F9FF25440F23B0FBF3F085F85D
:105AA000A90994F8065906FB0540FFF711FD621994
:105AB000294692F8293992F869290092024620462F
:105AC00000F013FA94F8063906FB034601237374B9
:105AD00094F8063984F8043904E085F81180A5F8B3
