:1000000000800020BD01000061CC00002DCC00006C
:100010002DCC00002DCC00002DCC00002DCC0000FC
:100020002DCC00002DCC00002DCC000061CC0000B8
:1000300061CC00002DCC000061CC00001DCC000084
:1000400061CC000061CC000061CC000061CC0000FC
:1000500061CC000061CC000061CC000061CC0000EC
:1000600061CC000061CC000061CC000061CC0000DC
:1000700061CC000061CC000061CC000061CC0000CC
:1000800061CC000061CC000061CC000061CC0000BC
:1000900061CC000061CC000061CC000061CC0000AC
:1000A00061CC000061CC000061CC000061CC00009C
:1000B00061CC000061CC000061CC000061CC00008C
:1000C00061CC000061CC000061CC000061CC00007C
:1000D00061CC000061CC000061CC000061CC00006C
:1000E00061CC000061CC000061CC000061CC00005C
:1000F00061CC00007DD5000061CC000045F000001F
:1001000061CC00007DDA000061CC000061CC000011
:1001100061CC000061CC000061CC000061CC00002B
:1001200061CC000061CC000061CC000061CC00001B
:1001300061CC000061CC000061CC000061CC00000B
:1001400061CC000061CC000061CC000061CC0000FB
:10015000F9C1000011C2000029C2000041C2000024
:1001600061CC0000E1DC000061CC000061CC00004B
:1001700061CC000061CC000061CC000061CC0000CB
:1001800061CC000061CC000061CC000061CC0000BB
:1001900061CC000061CC000061CC000061CC0000AB
:1001A00061CC000061CC000061CC000061CC00009B
:1001B00061CC000061CC0000C1BE0000564B4CF287
:1001C000205210B51A804DF628121A8000BF00BFC9
:1001D0000CF04AFD514B4FF010621A60504A9A6081
:1001E000504ADA60A3F53043203B1A6812F480725B
:1001F00004D14D490A604FF4A8521A604B4B1A784B
:10020000110703D51A7842F008021A70484B2A22C7
:100210001A700023474A48499818884204D247492F
:10022000595899500433F5E7454A464B9A424FF0E6
:10023000000302D242F8043BF7E74349434A5958C6
:1002400099500433B3F5DE7FF7D1414B802103F899
:10025000011B40498B42F9D13F4B1A603F4B8A2228
:100260001A70A3F5805324225A70A0221A709A792A
:100270009207FCD59A79D406FCD4394B9A7902F0CE
:100280000C02082AF9D103221A7146225A719A796E
:100290009006FCD5324B9A795106FBD5314A4FF086
:1002A000827111600921516020221A702C4B9B79B8
:1002B00003F00C030C2BF9D12B4B2C4A1A602C4B5E
:1002C0002C4A1A6000225A60072243F8042C2A4A5A
:1002D000C3F80C2D62B60CF045FE134B1B68DA0711
:1002E00005D526480CF058FD254B264A1A60264BAA
:1002F0001B785B0609D5224C224A2368934204D11D
:100300001E480CF049FD0023236015F071F90CF034
:10031000B1FC0CF0BFFBFEE70E200540308004402E
:10032000823F04000100002B14D0034002D007409C
:1003300000E00740708DFF1F5091FF1F6CE301002C
:100340005091FF1FACDEFF1F000000000082FF1F66
:1003500000E400E05FE400E008ED00E0005006404B
:10036000004006404480044004800440C010050062
:1003700014E000E0BFD4010000002020EC7E0A5908
:100380001CE00340A5C3945A00F00740FFFFFFFFA5
:10039000FFFFFFFFFFFFFFFFFFFFFFFFFFFFFFFF6D
:1003A000FFFFFFFFFFFFFFFFFFFFFFFFFFFFFFFF5D
:1003B000FFFFFFFFFFFFFFFFFFFFFFFFFFFFFFFF4D
:1003C000FFFFFFFFFFFFFFFFFFFFFFFFFFFFFFFF3D
:1003D000FFFFFFFFFFFFFFFFFFFFFFFFFFFFFFFF2D
:1003E000FFFFFFFFFFFFFFFFFFFFFFFFFFFFFFFF1D
:1003F000FFFFFFFFFFFFFFFFFFFFFFFFFFFFFFFF0D
:10040000FFFFFFFFFFFFFFFFFFFFFFFFDEF9FFFF23
:1004100010B5054C237833B9044B13B10448AFF33E
:1004200000800123237010BD5091FF1F00000000C9
:100430006CE3010008B5064B1BB106480649AFF353
:1004400000800648036813B1054B03B1984708BD07
:10045000000000006CE301005491FF1F5091FF1F4A
:10046000000000000369C268934210B509D2826897
:100470005C1C0461D154826803690021D1540120BD
:1004800010BD002010BD44F2040210B58358CC18F2
:10049000B4F5804F07D8033121F00301194481508E
:1004A0001844043010BD002010BD18B111B101393D
:1004B0000068FAE7704738B504460D4634B128465F
:1004C000616815F0CBF908B12468F7E7204638BD1C
:1004D00038B54068FFF7EFFF044680B1057A012D7B
:1004E00005D1C16819B1074815F0B8F920B1013D2F
:1004F000012D03D8E46802E0044600E00024204611
:1005000038BD00BF5861010038B5044608460D46A5
:1005100015F0D1F9236802465B68204629469847C2
:1005200038BD38B504460BF0A8FE054620460BF052
:10053000C5FE284438BD38B50446FFF7E5FF05463B
:1005400020460BF0BBFE284438BD10B504460068B9
:10055000FFF7DAFF63681844606010BD30B587B0FC
:1005600000228DF815200B4605AA0A25B3FBF5F4E9
:1005700005FB14333033114602F801392346002CB1
:10058000F3D1FFF7E2FF07B030BD10B504460068B5
:1005900003681B68984763681844606010BDFFFFDC
:1005A00070B504460D4619B91249FFF7CEFF70BD6C
:1005B0002221FFF7EAFF013D15F8012F7AB10E4B1A
:1005C00013F8026C86B1023313F8031C9142F7D181
:1005D00020465C21FFF7D9FF2046314606E0204641
:1005E0002221FFF7D2FF70BD20461146FFF7CDFF55
:1005F000E2E700BF586101005F61010008B5032810
:100600000AD8DFE800F0021105074FF07E5008BD60
:10061000064808BD064808BD0438C0B2FFF7EEFF23
:1006200004490FF073FB08BD034808BD0AD7233CFB
:100630006F12833A17B7D138CDCCCC3D2DE9F041BC
:10064000054608460C46174613F02CFF10B92846FD
:10065000494911E0204600210FF0F6FC28B1284658
:100660002D21FFF792FF04F10044204613F01AFFFA
:10067000012805D141492846FFF767FFBDE8F08111
:1006800020463F490FF0FEFC20B920463D490FF0BF
:10069000DBFC00B30026204600210FF0CBFC68B93C
:1006A00020464FF07E510FF0CFFC38B1204636493E
:1006B0000FF02CFB013EB6B20446ECE7204632496F
:1006C0000FF0E0FC40B120462F490FF0D3FB01367C
:1006D000B6B20446F2E706463846FFF78FFF4FF002
:1006E0007C510FF013FB014620460FF007FA044639
:1006F0000FF0F8FC80460FF0B1FA014620460FF0EB
:10070000FBF9414604462846FFF728FF1FB128465B
:100710002E21FFF73AFFCFB11B4920460FF0F6FA22
:1007200004460FF0DFFC5FFA80F840460FF096FABF
:10073000014620460FF0E0F908F130010446C9B245
:100740002846013FFFF721FFFFB2E4E734B2002C57
:1007500006DA28460D49FFF7F8FE2846614206E012
:100760003EB128466521FFF710FF28462146FFF7D6
:10077000F5FEBDE8F08100BF6C6101007061010011
:1007800000007A446F12833A000020417961010031
:10079000024608B5084619B10B6811461B68984710
:1007A00008BDFFFF38B5084C236813F0010509D1D7
:1007B00020460CF06AFA28B1044B20461D605D60AB
:1007C0000CF069FA014838BD8091FF1F6C91FF1F42
:1007D00008B54068FFF76FFE20B1037A062B01D100
:1007E000C06808BDFFF7DEFF08BDFFFF38B5084C45
:1007F000236813F0010509D120460CF046FA28B110
:10080000044B20461D605D600CF045FA014838BD80
:100810007C91FF1F7491FF1F03780D2B09D003D823
:10082000093B012B23D804E0202B02D02F2B02D030
:1008300070470130F0E743782A2B02D02F2B0DD0E0
:100840007047831C1A7818460133002AE4D02A2AFC
:10085000F8D11A782F2AF5D10230DDE7831C18462B
:1008600013F8012B002AD7D00A2AF8D1D4E7704711
:1008700038B5044600680D46FFF7CEFF0378AB425B
:1008800005D10130FFF7C8FF2060012038BD0020EE
:1008900038BDFFFF70B5426884681378272B01D0FC
:1008A000222B27D15178551C51B3994201D1951C67
:1008B00026E05C290BD1951C9178154A16782EB14B
:1008C0008E4201D1517801E00232F7E7C1B104F85C
:1008D000011B2A46E6E723F020014139192905D9F1
:1008E0002B2B03D0A3F12D01012909D804F8013BDA
:1008F00012F8013FA3F1300109291546F6D9EAE7BC
:10090000002304F8013B836845608460184670BD8D
:1009100061610100027838B505460C46072A3CD8CB
:10092000DFE802F041241F302B27041B45680846EE
:100930005B21FFF72AFE6D682DB1281D2146FFF7C8
:10094000E9FF2D6825B920465D21FFF71EFE38BD61
:1009500020462C21FFF719FEEFE7406800F028F849
:1009600038BD08466968FFF71BFE38BD0846696850
:1009700010E008462D21FFF708FE20466968FFF7C2
:10098000EDFD38BD4168084B084A204600290CBFE0
:1009900011461946FFF7D9FD38BD083A0846D2B2CC
:1009A0006968FFF74BFE38BD7C6101008161010081
:1009B00070B505460C4608467B21FFF7E6FD6D68DD
:1009C0007DB12E46204656F8041FFFF7E9FD20466C
:1009D0003A21FFF7DAFD301D2146FFF79BFF2D6816
:1009E00025B920467D21FFF7D0FD70BD20462C2182
:1009F000FFF7CBFDE5E710B5044621460820FFF7D9
:100A0000C7FE18B100230460436010BDFFF7CAFEA3
:100A100010BD10B5044621460820FFF7B9FE18B1F5
:100A200000230460436010BDFFF7E0FE10BDFFFF30
:100A3000037810B5052B1BD8DFE803F01E08080368
:100A40000305406810BD4068404210BD44685CB179
:100A50000A48214614F002FF40B1204600210A2234
:100A6000BDE8104014F0C4BF204610BD012010BDE9
:100A700040680FF011FB10BD002010BD7C6101002B
:100A8000037810B5052B14D8DFE803F0170505032C
:100A90000303406810BD44688CB10B48214614F034
:100AA000DDFE70B1204600210A22BDE8104015F09D
:100AB00025B840680FF016FB10BD002010BD204681
:100AC00010BD012010BD00BF7C61010070B504465F
:100AD0000CF014FAE0640CF011FA254600232065AE
:100AE00045F8583F4FF48A700CF0F6F82946064650
:100AF0000BF0D4F8E66604F1740010F061FD04F127
:100B0000940010F05DFD204670BDFFFFF8B504466F
:100B10000D46114811491F461646FFF70CFD069B6E
:100B2000A5646665A7662367162010F0B9F818B9A2
:100B300009480B49FFF7FFFC00236370A370E370C3
:100B4000E21801330021402B9171F9D10549024887
:100B5000FFF7F1FCF8BD00BFDCD9FF1F8761010082
:100B6000B5610100DB610100002138B50A46054688
:100B700001F098FF02241E4B23442146284633F8F7
:100B8000022C023401F08EFF0A2CF4D1194B2344BD
:100B90002146284633F80A2C023401F083FF122C38
:100BA000F4D1154B23442146284633F8122C023445
:100BB00001F078FF1A2CF4D1104B2344214628462B
:100BC00033F81A2C023401F06DFF2A2CF4D10C4BAF
:100BD00023442146284633F82A2C023401F062FFD0
:100BE0003A2CF4D107490848FFF7A5FC38BD00BFEF
:100BF0006A8EFF1F948EFF1F748EFF1F848EFF1F4F
:100C00005A8EFF1F16620100DCD9FF1F38B5002184
:100C1000054601F059FF4FF6FF73984218BF0224B2
:100C200018D128492848FFF786FC26492648FFF7AF
:100C300082FC24492448FFF77EFC22492248FFF722
:100C40007AFC20492048FFF776FC1E491E48FFF732
:100C500072FC38BD2146284601F036FF1B4B234469
:100C600002340A2C23F8020CF4D12146284601F064
:100C70002BFF174B23440234122C23F80A0CF4D117
:100C80002146284601F020FF124B234402341A2C3F
:100C900023F8120CF4D12146284601F015FF0E4B23
:100CA000234402342A2C23F81A0CF4D12146284676
:100CB00001F00AFF094B234402343A2C23F82A0C92
:100CC000F4D138BD40620100DCD9FF1F6A8EFF1FDE
:100CD000948EFF1F748EFF1F848EFF1F5A8EFF1F7E
:100CE0000803704710B588B00023013A05910692B9
:100CF0000B7003AA064C8DF8103001A903940793DA
:100D000001920293FFF754FE029808B010BD00BF95
:100D10004061010010B504460C202168FFF738FD42
:100D200010B100230360037163682BB11A680AB124
:100D30001346FBE7186010BD606010BD10B50C468F
:100D4000FFF7E8FF20B123788360042202710120BD
:100D500010BD10B50C46FFF7DDFF48B194F9003027
:100D6000002BAEBF04225B4205220271836001208A
:100D700010BD10B5044610202168FFF709FD10B121
:100D800000230360037263682BB11A680AB113462B
:100D9000FBE7186010BD606010BD2DE9F34104460B
:100DA000074654F8040BFFF734FE7B210646204625
:100DB000FFF75EFD002833D020467D21FFF758FD68
:100DC00088BB3846FFF766FD804648B320463A2187
:100DD000FFF74EFD20B302AD00233846694605F803
:100DE000083D00F024F8D8B170684146FFF763FB76
:100DF00028B93046FFF7BDFF90B1C0F8048000F17C
:100E0000080395E8030083E8030020467D21FFF7EF
:100E10002FFD40B920462C21FFF72AFD0028D0D114
:100E2000FFF7E4FC00E0304602B0BDE8F08170B5A9
:100E30000446007B0D46002834D0013820736068DA
:100E4000FFF7EAFC606003785B2B02D07B2B07D0B6
:100E500012E0204600F027F803685BB1062305E0A6
:100E60002046FFF79AFF036823B1072368602B70C1
:100E7000012014E0184612E0272B03D0223B5E42EB
:100E80005E4100E001262046FFF704FD38B1012253
:100E900016B102232B7000E02A7068601046237B95
:100EA0000133237370BDF7B50446074654F8040BAD
:100EB000FFF7A1FD5B2106462046FFF7D9FC08B3EA
:100EC00020465D21FFF7D4FCF8B902AD0023384677
:100ED000694605F8083DFFF7AAFF98B13046FFF7CD
:100EE00019FF78B1031D95E8030083E8030020464D
:100EF0005D21FFF7BDFC40B920462C21FFF7B8FC6F
:100F00000028E2D1FFF74EFC00E0304603B0F0BD10
:100F100070B5054640680E461446FFF7CCFA20B976
:100F20002846FFF726FF50B146602368002B08BF14
:100F300000240CBF002306230372C460012070BD8F
:100F400070B5054600680E4610B9FFF72BFC70BD62
:100F5000FFF751FD0446314628462246FFF7D8FFE9
:100F6000204670BD2DE9F04FADF5804D85B0A74B03
:100F70000191029302A944F204030546144608466F
:100F80000022CA50FFF745FDA1498246FFF7D8FF6E
:100F900040F60813696D5C43214401F602010646E0
:100FA000FFF7CCFE696D214401F60A013046FFF7D8
:100FB000C5FE696D214401F606013046FFF7BEFE0D
:100FC000696D214401F607013046FFF7B7FE696DF0
:100FD000214401F609013046FFF7B0FE696D214456
:100FE00001F608013046FFF7A9FE696D214401F6BC
:100FF000DA013046FFF7ADFE696D214401F60B01C1
:101000003046FFF79BFE696D214401F60C01304626
:10101000FFF794FE696D214401F60D013046FFF79C
:101020008DFE696D214401F60E013046FFF786FE04
:10103000696D214401F60F013046FFF77FFE696DAF
:10104000214401F501613046FFF778FE696D2144C6
:1010500001F611013046FFF771FE696D214401F67A
:1010600012013046FFF76AFE696D214401F6130153
:101070003046FFF763FE696D214401F614013046E6
:10108000FFF75CFE696D2144304601F61501FFF75C
:1010900055FEDAF8000018B9FFF784FB834607E035
:1010A000FFF7A9FC83465B4950465A46FFF730FFDD
:1010B0004FF00009DBF8000018B9FFF773FB064694
:1010C00012E0FFF798FC06465846FFF723FE58B19A
:1010D0003368002B009B18BF334600930CBF0023DE
:1010E00006230371009B83603046FFF713FE18B19F
:1010F00004230371C0F80890696D4FEA4917214431
:1011000039443046FFF71AFE696D7B1C21441944AF
:101110003046FFF713FE696DBB1C2144194430466D
:10112000FFF70CFE696DFB1C214419443046FFF7A4
:1011300005FE6B6D2344D91904313046FFF7FEFDDF
:101140006B6D07F10808234403EB080104313046B6
:10115000FFF7FFFD6B6D2344D91905313046FFF7CA
:10116000EDFD6B6D2344D91906313046FFF7E6FDDE
:101170006B6D2344D91907313046FFF7DFFD696DE8
:10118000214441443046FFF7D9FD6B6D234403EB06
:10119000080101313046FFF7D1FD6B6D234403EBAD
:1011A000080102313046FFF7C9FD6B6D234403EBA4
:1011B000080105313046FFF7C1FD6B6D234403EB99
:1011C000080106313046FFF7B9FD6B6D234403EB90
:1011D000080107313046FFF7B1FD6B6D234403EB87
:1011E00008013046033109F10109FFF7A7FDB9F104
:1011F000400F7FF45FAF504601994FF48052FFF7E4
:1012000071FD0DF5804D05B0BDE8F08F5061010016
:10121000D3620100DC6201002DE9F04F95B0174662
:101220008A46044600F063FE7E49C6B204A80BF06D
:101230000EF9514668460BF040F9694604A80BF0D8
:10124000C8F979490BF0CEF93946054608A80BF0E4
:1012500034F9284608A90BF0BCF974490BF0C2F91F
:10126000314605460CA80BF028F928460CA90BF0CE
:10127000B0F96F490BF0B6F935030A2280462946CA
:1012800010A80BF02DF910A940460BF0A2F9014669
:101290006848FFF746F910A80BF099F80CA80BF076
:1012A00096F808A80BF093F8684604EB06080BF0D4
:1012B0008EF804A80BF08BF898F80630002B39D084
:1012C000204600F0B5FE5C49834604A80BF0BFF849
:1012D000314668460BF0F1F8694604A80BF079F93D
:1012E00056490BF07FF998F8063055498146194464
:1012F0000CA80BF0ACF80A22594608A80BF0F0F83D
:1013000008A90CA80BF065F9014610A80BF0BAF873
:1013100010A948460BF05DF901464648FFF701F970
:1013200010A80BF054F808A80BF051F80CA80BF01B
:101330004EF8B9E74FF0010984F803900BF0DEFD99
:101340002065404814F09CFA494680464FF480508E
:1013500014F034F981464946204652463B46FFF791
:1013600001FE0FF02BFC0028FBD010A841460FF027
:1013700041FD10AA04F158030DF1480E174603CFA2
:101380007745186059603A4603F10803F6D138688A
:101390001860BA889A80A06D50BB2B492548FFF78A
:1013A000CAF82A4910A80BF052F841460CA80BF0D5
:1013B0004EF80CA910A80BF00CF901461D48FFF7D8
:1013C000B0F80CA80BF003F810A80BF000F81948BF
:1013D0001D49FFF7B0F8484614F038F9404614F0BC
:1013E00035F90023E3700123237015B0BDE8F08FB9
:1013F000E76D256605F58053BB4210D9BD4208D282
:101400007F1B3A46284449460FF018FA236E1F44C2
:10141000276620463146012200F066FDDBE74FF4E7
:101420008057EEE7E1620100F2620100FD62010017
:101430000C630100DCD9FF1F1B6301004E63010038
:10144000586301006D63010076630100856301004C
:1014500008B54068FFF729F818B10430FFF710FB12
:10146000C0B208BD08B54068FFF71FF818B10430D6
:10147000FFF7DEFAC0B240B208BD08B54068FFF71A
:1014800014F820B10379062B01D1806808BDFFF75D
:1014900089F908BD2DE9F04FADF5804D99B0B34BFA
:1014A0001693144644F2040316AA074618AD4FF0EB
:1014B000000A0E46AE48AF4942F803A0FFF73BF8DA
:1014C00016AB45F8183DAC4BAC60544518BF2346ED
:1014D0004FF00A0928466B6085F80C90FFF75DFC19
:1014E0000446A64928460AF0B2FF2168B1EB0A017A
:1014F00018BF01214A460EA80AF0F2FF28460EA99D
:101500000BF067F801469A48FFF70BF80EA80AF0AF
:101510005EFF28460AF05BFF99499548FFF70BF8F4
:1015200040F608135E437B6D9649204603EB0608A0
:10153000FFF74EF95146FFF78BFF88F802087B6DE5
:101540009049204603EB0608FFF742F90121FFF717
:101550007FFF88F80A087B6D8A49204603EB06085E
:10156000FFF736F90221FFF773FF88F806087B6D55
:101570008449204603EB0608FFF72AF90321FFF709
:1015800067FF88F807087B6D7E49204603EB060855
:10159000FFF71EF90421FFF75BFF88F809087B6D50
:1015A0007849204603EB0608FFF712F90521FFF7FB
:1015B0004FFF88F808087B6D7249204603EB060848
:1015C000FFF706F90621FFF74DFF88F8DA087B6D73
:1015D0006C49204603EB0608FFF7FAF80721FFF7EE
:1015E00037FF88F80B087B6D6649204603EB060839
:1015F000FFF7EEF80821FFF72BFF88F80C087B6D4A
:101600006049204603EB0608FFF7E2F80921FFF7DF
:101610001FFF88F80D087B6D5A49204603EB06082A
:10162000FFF7D6F84946FFF713FF88F80E087B6DE1
:101630005449204603EB0608FFF7CAF80B21FFF7D1
:1016400007FF88F80F087B6D4E49204603EB06081C
:10165000FFF7BEF80C21FFF7FBFE88F810087B6D42
:101660004849204603EB0608FFF7B2F80D21FFF7C3
:10167000EFFE88F811087B6D4249204603EB06080F
:10168000FFF7A6F80E21FFF7E3FE88F812087B6D3E
:101690003C49204603EB0608FFF79AF80F21FFF7B5
:1016A000D7FE88F813087B6D3649204603EB060801
:1016B000FFF78EF81021FFF7CBFE88F814087B6D3A
:1016C0003049204603EB0608FFF782F81121FFF7A7
:1016D000BFFE2D4988F8150828460AF0B8FE7B6D34
:1016E00033440EA893F808180AF0E7FE28460EA91E
:1016F0000AF06FFF25490AF075FF01461C480AF001
:10170000BCFD0EA80AF063FE28460AF060FE2049E0
:101710002046FEF7DDFE01461548FEF70CFF1D4989
:101720002046FFF755F880461B4928460AF08FFEF1
:10173000D8F80010B1EB0A0118BF01214A460EA8E3
:101740000AF0CEFE28460EA90AF043FF01460848DB
:10175000FEF7E7FE0EA80AF03AFE28460AF037FE2A
:1017600003480E49FEF7E7FE554619E050610100B7
:10177000DCD9FF1FA0630100DF6B0100B56301002E
:10178000CB630100D3620100DE630100F36301005B
:101790005BD00100DC620100FC6301001664010003
:1017A00029464046FFF769FE0121FFF751FE294611
:1017B00003904046FFF761FE0221FFF749FE2946EC
:1017C00004904046FFF759FE0321FFF741FE2946EA
:1017D00005904046FFF751FE0421FFF739FE2946E8
:1017E00006904046FFF749FE0521FFF731FE2946E6
:1017F00007904046FFF741FE0621FFF733FE2946DA
:1018000008904046FFF739FE0721FFF721FE2946E1
:1018100009904046FFF731FE0821FFF719FE2946DF
:101820000A904046FFF729FE0921FFF711FE2946DD
:101830000B904046FFF721FE0A21FFF709FE2946DB
:101840000C904046FFF719FE0B21FFF701FE2946D9
:101850000D904046FFF711FE0C21FFF7F9FD2946D8
:1018600084464046CDF808C0FFF707FE0D21FFF77C
:10187000EFFD294683464046FFF7FFFD0E21FFF7A7
:10188000E7FD294682464046FFF7F7FD0F21FFF7A7
:10189000DFFD294681464046FFF7EFFD1021FFF7A7
:1018A000D7FD294600904046FFF7E7FD0021FFF7EE
:1018B000CFFD796D039A314440010B180A54049A04
:1018C0005A70059A9A70069ADA70079A1A71099AEC
:1018D0005A710A9A9A710B9ADA710C9A1A720D9AC5
:1018E0005A720135009ADDF808C0DA72402D089A64
:1018F00083F80AC01A7383F80DB083F80EA083F83A
:101900000F907FF44DAF2068003018BF01200DF517
:10191000804D19B0BDE8F08F2DE9F043044689B041
:101920007F489146884613F0ABFF7E49054604A8E0
:101930000AF08DFD294668460AF089FD694604A82B
:101940000AF047FE78490AF04DFE01467748FEF757
:10195000E8FD68460AF03BFD04A80AF038FD284679
:101960000FF0C8FA002838D071497048FEF7E3FD3F
:1019700004A829460FF03EFA04AE04F1580306AA63
:10198000374603CF9742186059603E4603F108037B
:10199000F6D138681860BA889A80A36D33BB654960
:1019A00004A80AF054FD294668460AF050FD69462D
:1019B00004A80AF00EFE60490AF014FE01465B48D6
:1019C000FEF7AFFD68460AF002FD04A80AF0FFFC2E
:1019D000284613F03BFE02209FE0284613F036FE17
:1019E00052485649FEF7A7FD012096E054494F485A
:1019F000FEF7A1FD4FF4805013F020FE0A224FF4B1
:101A00008051064668460AF06BFD694604A80AF054
:101A100039FD4C4904A80AF0E5FD01464348FEF7AC
:101A200080FD04A80AF0D3FC68460AF0D0FC4649C1
:101A300004A80AF00CFD41464A46204600F057FA39
:101A4000C1B20A22090368460AF04AFD694604A8A1
:101A50000AF0BFFD01463548FEF763FD68460AF00F
:101A6000B6FC04A80AF0B3FC384904A80AF0EFFC5D
:101A700041464A46204600F03AFA0A2201466846A4
:101A80000AF02EFD694604A80AF0A3FD0146274886
:101A9000FEF747FD68460AF09AFC04A80AF097FC96
:101AA0004A462046414600F022FAC0B20303E76DE1
:101AB000236603F58052BA422CD9BB4209D2FF1AE1
:101AC000A06D3A46184431460EF0D0FD236E1F44F7
:101AD00027661F491548FEF72EFD31461348FEF7CD
:101AE0002AFD204641463246FFF7D4FC10B10F488C
:101AF000184901E00D481849FEF71DFD304613F066
:101B0000A5FD284613F0A2FD08481449FEF713FD71
:101B1000002002E04FF48057D2E709B0BDE8F0831F
:101B2000296401003164010053640100DCD9FF1F06
:101B300072640100816501002B6501003E650100B2
:101B4000BE650100CD650100DE650100EC650100A8
:101B500096640100A0640100B36401000165010006
:101B60002DE9F04190B00D46064671490CA890460B
:101B70000AF06DFC294608A80AF09FFC08A90CA8E9
:101B80000AF027FD6B490AF02DFD01466A48FEF771
:101B9000C8FC08A80AF01BFC0CA80AF018FC0024DA
:101BA00048FA04F3DB070CA816D464490AF04FFC8A
:101BB0000A22214608A80AF093FC08A90CA80AF0FA
:101BC00008FD01465C48FEF7ACFC08A80AF0FFFBE4
:101BD0000CA80AF0FCFB52E059490AF038FC0A2232
:101BE000214608A80AF07CFC08A90CA80AF0F1FC20
:101BF00001465148FEF795FC08A80AF0E8FB0CA83E
:101C00000AF0E5FB4F490CA80AF021FC0A22214604
:101C100008A80AF065FC08A90CA80AF0DAFC01463D
:101C20004548FEF77EFC08A80AF0D1FBE7B20CA8F5
:101C30000AF0CDFB304639462A46FFF76DFE0128F3
:101C400013D141493C48FEF776FC736D40F608100D
:101C500000FB043029463A4602F000FF3B49364873
:101C6000FEF769FC34483A4903E0022803D13248C0
:101C70003849FEF760FC30483749FEF75CFC013418
:101C8000042C8DD1354C364904A80AF0E0FB2178AC
:101C900068460AF012FC694604A80AF09AFC314929
:101CA0000AF0A0FC2946074608A80AF006FC08A985
:101CB00038460AF08EFC2C490AF094FC2B4B074660
:101CC00019780CA80AF0F9FB0CA938460AF081FC37
:101CD00001461948FEF725FC0CA80AF078FB08A875
:101CE0000AF075FB68460AF072FB04A80AF06FFB65
:101CF0000CA81F4925700AF0AAFB294608A80AF07B
:101D0000DCFB08A90CA80AF064FC1A490AF06AFC7A
:101D100001460948FEF705FC08A80AF058FB0CA884
:101D20000AF055FB304600F0ADFD10B0BDE8F08183
:101D3000F96501009A670100DCD9FF1F22660100E6
:101D40003C6601004D66010077660100A566010052
:101D5000D3660100F7660100146701005CD7FF1F1E
:101D600026670100456701004A67010031D7FF1F60
:101D70006B6701008C6701002DE9F04391B00646C6
:101D80000D4690469DF8607043B30024736D40F695
:101D9000081202FB0433E1B2304693F808280134FC
:101DA000FFF73AFA042CF1D13A490CA80AF04FFB9C
:101DB000394B08A819780AF080FB08A90CA80AF08A
:101DC00008FC36490AF00EFC01463548FEF7A9FB2F
:101DD00008A80AF0FCFA0CA80AF0F9FA314C17B975
:101DE0002378002B3BD104A82F490AF030FB294669
:101DF00068460AF062FB694604A80AF0EAFB2B4930
:101E00000AF0F0FB0A228146394608A80AF068FB6E
:101E100008A948460AF0DDFB25490AF0E3FB0A223F
:101E2000074621780CA80AF05BFB0CA938460AF09B
:101E3000D0FB01461A48FEF774FB0CA80AF0C7FA5B
:101E400008A80AF0C4FA68460AF0C1FA04A80AF021
:101E5000BEFA304629464246FFF782FE17E0154B90
:101E600015491D700CA80AF0F2FA294608A80AF0D4
:101E700024FB08A90CA80AF0ACFB01460848FEF7B1
:101E800050FB08A80AF0A3FA0CA80AF0A0FA11B0B7
:101E9000BDE8F083B26701005CD7FF1FC367010094
:101EA000DCD9FF1F48D7FF1FD4670100F16701008D
:101EB000FC67010031D7FF1F07680100044A054B8A
:101EC0001360054A1360054A13600AF069BD00BF3C
:101ED0008C91FF1F032000388891FF1F8491FF1F02
:101EE00008B5FEF711FB08BD01448A71704701EB8C
:101EF00082007047F0B504468DB0474813F0C0FC2F
:101F000005460EF0F7FF00282ED1444904A80AF038
:101F10009EFA294668460AF09AFA694604A80AF029
:101F200058FB3F490AF05EFB0A2206464FF4802127
:101F300008A80AF0D5FA08A930460AF04AFB01467B
:101F40003848FEF7EEFA08A80AF041FA68460AF0A7
:101F50003EFA04A80AF03BFA0EF016FF4FF4802177
:101F6000024628460EF0D2FF284613F06FFB2E489B
:101F700013F086FC06460EF0BDFFF0B908A82B4909
:101F80000AF065FA314604A80AF061FA04A908A823
:101F90000AF01FFB01462348FEF7C3FA04A80AF023
:101FA00016FA08A80AF013FA0EF0EEFE4FF480219C
:101FB000024630460EF0AAFF18E008A831460EF09F
:101FC00019FF04F1580308AA0DF1280E1F46154603
:101FD00003CD7545186059602A4603F10803F6D110
:101FE00028681860AA889A80A36D7BB9304613F0E0
:101FF0002DFB0EF0E3FD0028FBD0002384F84630D3
:102000006370204600F0D2FC0DB0F0BD00232366C3
:1020100038460FF0BDF8E9E729640100396801008E
:102020004E680100DCD9FF1F6D6301005668010096
:102030002DE9F04FC7788FB004462FB103202AE373
:102040007B1C402B06D01F4604EB070B9BF8063089
:10205000002BF5D00AF052FFE36C4CF25032C01A5C
:10206000904240F2F781AD4813F00AFC0190AC4871
:1020700013F006FC81460EF0A1FD002800F0BC81A3
:102080004FF48050012113F099FA9BF806305FFA63
:1020900087F8013B4FEA980608F003058246032BB8
:1020A00000F2A781DFE813F004005600E7005801B2
:1020B0009C4906A80AF0CBF9294602A80AF0FDF9C6
:1020C00002A906A80AF085FA97490AF08BFA314668
:1020D00083460AA80AF0F1F958460AA90AF079FAE3
:1020E00001469248FEF71DFA0AA80AF070F902A804
:1020F0000AF06DF906A80AF06AF90AA849460EF036
:1021000079FE04F158030AAA0DF1300C9B4696465D
:10211000BEE80300E64518605960724603F1080303
:10212000F5D11068186092889A80A36D002B00F09A
:10213000928141462046FEF7D3FD2744206658464B
:102140000FF03CF80223BB710AF0D8FEE06406A849
:1021500077492BE1774906A80AF079F9294602A8C0
:102160000AF0ABF902A906A80AF033FA6E490AF0A0
:1021700039FA314683460AA80AF09FF90AA9584657
:102180000AF027FA6C490AF02DFA01466748FEF773
:10219000C8F90AA80AF01BF902A80AF018F906A85B
:1021A0000AF015F90AA801990EF024FE0AAA04F112
:1021B00058030DF1300C9646BEE80300E645186062
:1021C0005960724603F10803F5D1106818609288CF
:1021D0009A8056485949FFF783FEA36D002B40F0C3
:1021E0006181574906A80AF032F994F8461002A80E
:1021F0000AF063F902A906A80AF0EBF951490AF0BE
:10220000F1F9294683460AA80AF057F90AA958465F
:102210000AF0DFF901464548FEF783F90AA80AF0FB
:10222000D6F802A80AF0D3F806A80AF0D0F8464972
:102230003E48FFF755FE0AA849460EF0DBFD0AAA04
:1022400004F158030DF1300C9646BEE80300E64554
:1022500018605960724603F10803F5D110681860E0
:1022600092889A8031483949FFF73AFEA36D002BD6
:1022700040F040819EE1364906A80AF0E8F8294678
:1022800002A80AF01AF902A906A80AF0A2F926493A
:102290000AF0A8F9314683460AA80AF00EF9584612
:1022A0000AA90AF096F901462048FEF73AF90AA869
:1022B0000AF08DF802A80AF08AF806A80AF087F852
:1022C0000AA801990EF096FD04F158030AAA0DF12F
:1022D000300C9B469646BEE80300E6451860596000
:1022E000724603F10803F5D11068186092889A804D
:1022F000A36D002B00F0A88141462046FEF7F0FCBC
:10230000206658460EF05AFF0AF0F8FD27440423D1
:10231000E064BB7106A80F4948E000BF6D6301008F
:10232000296401006C6801009C680100DCD9FF1F72
:10233000A1680100DA6801001A690100E8BA010029
:10234000806A0100D16A0100DCBB010019BC0100F8
:1023500074690100A5690100AA4906A80AF077F886
:10236000294602A80AF0A9F802A906A80AF031F93C
:10237000A5490AF037F9314607460AA80AF09DF840
:102380000AA938460AF025F90146A048FEF7C9F81F
:102390000AA80AF01CF802A80AF019F806A80AF020
:1023A00016F800239A498BF8063006A80AF04FF871
:1023B000294602A80AF081F802A906A80AF009F93C
:1023C00091490AF00FF9314605460AA80AF075F856
:1023D0000AA928460AF0FDF801468C48FEF7A1F844
:1023E0000AA809F0F4FF02A809F0F1FF06A809F015
:1023F000EEFF504613F02AF9484613F027F90198EA
:1024000013F024F900231D46E21892790AB1013530
:10241000EDB20133402BF7D12378DBB1D5B97D493B
:102420000AA80AF014F80AF069FD216D0A22411A7F
:1024300006A80AF07BF806A90AA80AF0CAF801461D
:102440007248FEF76EF806A809F0C1FF0AA809F065
:10245000BEFF25701FE106A86F4909F0F8FF94F848
:10246000461002A80AF029F802A906A80AF0B1F855
:102470006A490AF0B7F8494607460AA809F0E7FF93
:102480000AA938460AF0A5F801466048FEF749F85F
:102490000AA809F09CFF02A809F099FF06A809F014
:1024A00096FF54E641462046FEF71AFC5C4920663A
:1024B0005648FFF715FD236EE26D03F580519142FA
:1024C00015D993420AD2C3EB020BA06D51461844B2
:1024D0005A460EF0CBF8236E5B44236651494B48B5
:1024E000FFF7FEFC50494948FFF7FAFC9FE64FF41E
:1024F000805BEAE720464146FEF7F2FBE36D20668B
:1025000000F580529A4252D998420AD2C0EB030891
:10251000A36D5146184442460EF090F9236E434491
:1025200023660AF0EBFC4149E06406A809F08FFF3E
:10253000294602A809F0C1FF02A906A80AF049F835
:1025400031490AF04FF8314680460AA809F0B5FF34
:102550000AA940460AF03DF835490AF043F8014619
:102560002A4809F08AFE0AA809F031FF02A809F0FA
:102570002EFF06A809F02BFF51462448FDF7C4FFA3
:10258000224809F09BFE21482A49FFF7A9FC27446D
:102590000323BB7128491D48FFF7A2FC27491B48AC
:1025A000FFF79EFC0023637006A82549FEE64FF462
:1025B0008058ADE706A8184909F049FF94F846107D
:1025C00002A809F07AFF02A906A80AF002F81D493C
:1025D0000AF008F8294680460AA809F06EFF0AA901
:1025E000404609F0F6FF01460848FDF79AFF0AA8A1
:1025F00009F0EDFE02A809F0EAFE06A809F0E7FEE0
:10260000C5E700BFDF6901009C680100DCD9FF1F3E
:102610001E6A0100676A0100806A0100A36A010066
:1026200025BB010062BB01009FBB01001E690100C8
:10263000DE6B010056BC010093BC0100FAB9010039
:102640002A690100036B010006A8144909F0FFFE86
:1026500094F8461002A809F030FF02A906A809F074
:10266000B8FF0F4909F0BEFF294607460AA809F03E
:1026700024FF0AA9384609F0ACFF01460948FDF7D6
:1026800050FF0AA809F0A3FE02A809F0A0FE06A8C0
:1026900009F09DFE3EE60FB0BDE8F08F806A0100B4
:1026A000366B0100DCD9FF1F044A054B1360054A55
:1026B0001360054A13600AF073B900BF9891FF1FB9
:1026C000032000389491FF1F9091FF1F0A220023DE
:1026D00009F004BE38B58368144642680546E01820
:1026E000904202D993420AD2D41A2868224618444A
:1026F0000DF0BCFFAB682344AB60204638BD002022
:1027000038BD70B50668044630460D460AF08CF9AF
:10271000854203D0304629460AF09AF9204670BD1A
:10272000F0B5054685B0184813F0AAF804460EF037
:1027300045FA0028FBD020460EF0DCFBB8B968460D
:1027400021460EF057FB05F158036A4602AF1E46BC
:10275000144603CCBC4218605960224603F10803BA
:10276000F6D120681860A2889A80AB6D23B90EF06C
:1027700025FA0028FBD005E000232B6630460EF03A
:1027800007FDF4E705B0F0BD296401002DE9F04133
:1027900086B004A80EF050F9304D04A80EF05EFA91
:1027A0002B680093DDF80080044600284FD02C49A8
:1027B0002C48FFF795FB21462A48FFF787FF2A4957
:1027C0002848FDF7B8FE29492648FDF7B4FE2849F8
:1027D0002448FDF7B0FE0EF06BF92B680193019EC3
:1027E00000240EF0EBF90746A8B92B680293029B70
:1027F0009B1BB3F57A7FF4D901341A481D49E4B222
:10280000FFF76EFB3B2C06F57A76EAD9154809F0FE
:1028100055FD3C46E5E714B1124809F04FFD164955
:102820001048FDF788FE2B680393039B13490D485E
:10283000C8EB0308FFF754FB4FF47A71B8FBF1F1D2
:102840000848FFF743FF07480D49FDF774FE4FF4B2
:102850007A700AF071FB06B0BDE8F081D4D7FF1F93
:10286000696B0100DCD9FF1F7B6B0100836B0100EA
:102870009D6B0100CB650100B36B0100C36B0100D0
:10288000D36B010070B590B0404905460CA809F023
:10289000DEFD3F4B08A8197809F00FFE08A90CA827
:1028A00009F097FE01463B48FDF73BFE08A809F0FA
:1028B0008EFD0CA809F08BFD0024374904A809F00F
:1028C000C6FD6B6D2344684693F8021809F0F5FDC8
:1028D000694604A809F07DFE304909F083FE6B6D5E
:1028E0002344064693F80A1808A809F0E6FD304686
:1028F00008A909F06EFE2A4909F074FE6B6D2344A5
:10290000064693F806180CA809F0D7FD30460CA926
:1029100009F05FFE234909F065FE01461D4809F0F4
:10292000ACFC0CA809F053FD08A809F050FD68465E
:1029300009F04DFD04A809F04AFD00266B6D03EB7C
:10294000461308A8195D09F0B8FD08A90CA809F0FC
:1029500099FD14490CA809F045FE01460D4809F0FF
:102960008CFC0CA809F033FD013608A809F02FFDF6
:10297000102EE3D107480C49FDF7DDFD04F60814DD
:1029800042F220439C4298D110B070BDE06B010030
:102990005CD7FF1FDCD9FF1FFC6B0100016C01003D
:1029A000076C0100DE6B0100DF6B0100F0B5374BF7
:1029B00000229FB006461A800EA8402101AA0EF000
:1029C00089FB00285FD032493248FFF789FA314845
:1029D0000EA9FFF785FA00240EA812F06CFFC0F1D3
:1029E000140084422B4804D22B49FFF779FA0134B2
:1029F000F2E72749FFF774FA01992648FFF766FEC8
:102A000026492448FFF76CFA224809F057FC0024B5
:102A10004FF4805012F012FE0546346629465A22C1
:102A200006F15800FFF756FE00230A22214602A8AD
:102A300085F85B3009F054FD02A906A809F022FDD3
:102A4000174906A809F0CEFD294607460AA809F04D
:102A5000FEFC0AA9384609F0BCFD01460D48FDF709
:102A600060FD0AA809F0B3FC06A809F0B0FC02A8B2
:102A700009F0ADFC04F58054284612F0E7FDB4F5EA
:102A8000802FC5D198E71FB0F0BD00BF6EDBFF1FE0
:102A90000D6C0100DCD9FF1F0E6C0100106C0100F1
:102AA000D8CF010073B502AC164644F8041D0D469C
:102AB0002046D1B2FFF725FE01352046310A0195A7
:102AC000FFF71FFE02B070BD38B508460C4609F08E
:102AD000ABFF0546601C09F0A7FF05EB002080B2A4
:102AE00038BD13B5002402A8FF2140F8044D01347D
:102AF000FFF707FEB4F5006FF5D14FF4FA700AF056
:102B00001BFA02B010BDFFFF044A054B1360054AD3
:102B10001360054A136009F043BF00BFA491FF1F73
:102B200003200038A091FF1F9C91FF1F38B5044679
:102B30000AF0E4F9D22360601721052204F10800AD
:102B40000EF055FC0021172204F11C000AF044F895
:102B500001232377022363770323A3770423E377F7
:102B6000062384F82030072384F82130082384F8D2
:102B70002230092384F823300B2384F824300C23DB
:102B800084F825300D2384F826300E2384F827306E
:102B9000102384F82830112384F82930122384F874
:102BA0002A30132384F82B30052384F82D300A2390
:102BB00084F82E300F2384F82F300C4B03F11002D1
:102BC00004F13301104653F8045B41F8045B93426F
:102BD000F9D10368C4F84330054B1A889B78A4F8F0
:102BE000472084F84930204638BD00BFF26E01000E
:102BF000066F0100C943CAB2542A09D8A2EB820069
:102C0000013802EB42020021C0B2D2B20B4618E0FA
:102C1000A92A0BD8553AD2B202EB4201A2EB8202AA
:102C2000013A0020C9B2D2B203460AE05632D2B20B
:102C300002EB4200A2EB8202511E0022C0B2C9B2D6
:102C400013460EF040BCFFFF2DE9F043044685B06B
:102C500000F1100806463A4F2368387840F6081904
:102C600009FB003001F06FFD2546311B01EB001020
:102C7000C1B255F8083B387809FB003090F80038AD
:102C80008B4203D196F83310FF2206E000EB41138C
:102C90005B794BB996F833100122009201922846D5
:102CA00013460EF0BAFB0DE0002296F8339002F0C6
:102CB00019F801462046FFF79DFF4946024628467F
:102CC0000EF0D3FB01364645C5D11E4B1E7820467B
:102CD00036B14021FFF78EFF00210246284605E06D
:102CE000FF21FFF787FF3146024628460EF0BDFB65
:102CF00000263B78B34204EB060312D193F84380DD
:102D0000114B1B68039303996423B1FBF3F1204635
:102D1000C9B2FFF76FFF4146024628460EF0A5FBF9
:102D200008E0002293F843100092019228461346CF
:102D30000EF073FB0136042EDBD105B0BDE8F08345
:102D400032D7FF1F48D7FF1FD4D7FF1F2DE9F04F01
:102D5000044685B000F1100B0646371BFFB2DFF8C2
:102D6000A8812546384606F0BBFD98F8002055F8A6
:102D7000083B40F6081A0AFB023393F800388342F6
:102D800003D196F83310FF222AE0384606F0A8FD5A
:102D9000594B1B78834214D1584B96F833701B68FB
:102DA0000393039A0523B2FBF3F3FF2293FBF2F2A2
:102DB0009918C9B22046FFF71DFF3946024628463A
:102DC0002BE0236898F8002038460AFB023906F009
:102DD00087FD09EB401043794BB996F83310012277
:102DE00000920192284613460EF017FB17E0236865
:102DF00098F8002096F8339038460AFB023A06F01D
:102E00006FFD00220146504601F06CFF014620464E
:102E1000FFF7F0FE4946024628460EF026FB013633
:102E20005E459AD1364B1E78204636B14021FFF7D9
:102E3000E1FE00210246284605E0FF21FFF7DAFE09
:102E40003146024628460EF010FB2E4B1B78032B12
:102E500030D8DFE803F00205111D2046FF2101E014
:102E60002046BF21FFF7C6FE1521024628460EF078
:102E7000FCFA20467F2116E07F212046FFF7BAFEAC
:102E80001521024628460EF0F0FA2046BF210AE03E
:102E90007F212046FFF7AEFE1521024628460EF0A0
:102EA000E4FA2046FF21FFF7A5FE16210246284638
:102EB0000EF0DBFA0026144A1378B34204EB060343
:102EC0000BD12046002193F84370FFF793FE39465B
:102ED000024628460EF0C9FA08E0002293F8431093
:102EE00000920192284613460EF097FA0136042EFE
:102EF000E1D105B0BDE8F08F20D7FF1FD4D7FF1F69
:102F000048D7FF1F15D7FF1F32D7FF1F2DE9F04FFE
:102F1000044685B00025724B1A78AA4204EB0503DB
:102F200004F108060BD12046402193F84370FFF7C7
:102F300061FE3946024630460EF097FA08E000225C
:102F400093F8431000920192304613460EF065FA52
:102F50000135042DDFD104F1100B25462F1BFFB2E4
:102F6000DFF87C91384606F0BBFC4B4640F608186B
:102F70001A78236808FB023A9AF8002882423846F9
:102F80003DD106F0ADFC0AEB40104379012B08D18E
:102F9000FF22802395F8331030468DE80C00002284
:102FA0002BE0236899F80020384608FB023A06F027
:102FB00097FC0AEB40104379022B06D100238022B4
:102FC00095F83310009301926AE0236899F8002085
:102FD000384608FB023806F083FC08EB401095F8F1
:102FE00033104379032B04D1002280238DE80C0099
:102FF0006BE0FF22009201923046134667E006F034
:103000006FFC384B1B78834216D1374B95F83370E1
:103010001B680393039A0523B2FBF3F3FF2293FB90
:10302000F2F299182046C9B2FFF7E4FD394602468C
:1030300030460EF01AFA4CE099F800202368384622
:1030400008FB023A06F04CFC0AEB4010427912B938
:1030500095F83310CEE7236899F80020384608FB2E
:10306000023A06F03DFC0AEB40104379012B05D1F2
:10307000FF2395F8331000930022BCE7236899F8EA
:103080000020384608FB023A06F02AFC0AEB401002
:103090004379022B07D1002395F833100093019355
:1030A0003046FF2213E0236899F80020384608FBD9
:1030B000023806F015FC08EB40104379032B08D1C9
:1030C000002295F83310009201923046FF230EF053
:1030D000A4F901355D457FF441AF05B0BDE8F08F3F
:1030E00032D7FF1F20D7FF1FD4D7FF1FF7B50546E4
:1030F0000024114B1B78A34205F1080605EB0403DD
:103100000BD12846C42193F84370FFF773FD39466D
:10311000024630460EF0A9F908E0002293F8431069
:1031200000920192304613460EF077F90134042CD8
:10313000DFD103B0F0BD00BF32D7FF1FF0B50446AA
:1031400085B00D4609F0DAFE6368C01AA84269D955
:1031500009F0D4FE344B60601B78092B04F108069B
:1031600020D00ED8032B19D005D8002B52D02046E2
:10317000FFF7ECFD4EE0062B4CD12046FFF7C6FED4
:1031800048E07D2B0ED003D80B3B012B06D941E044
:10319000F12B3FD12046FFF7A9FF3BE02046FFF788
:1031A00053FD37E000256319204693F833701F4B19
:1031B0001B680393039A0523B2FBF3F3122202FB6D
:1031C0000533FF2293FBF2F29918C9B2FFF712FD03
:1031D00001350246394630460EF047F9102DE2D14E
:1031E0000025134B1A7863192A4112F0010293F853
:1031F000431005D0FF22009201923046134604E0AE
:103200007F23009301923046FF2301350EF005F92C
:10321000042DE6D1074B02241C6030460EF032F834
:10322000054B1C6005B0F0BD728EFF1FD4D7FF1F89
:103230007C8EFF1F04F10F4008F10F4001EB81016C
:103240002DE9F04705464FEAC1080026002406EBA9
:1032500004192B195FFA89F94946284693F833A0D7
:10326000FFF7C8FC05F108070246514638460EF044
:10327000FCF804F003032B444946284693F843A086
:10328000FFF7B8FC01340246514638460EF0EDF81F
:10329000102CDCD138460DF0F5FFB8F1000F03D04B
:1032A0004346013B7FF4FDAF0136B6B2B6F5807FF1
:1032B000CCD1BDE8F087FFFFF7B52C4C2368162270
:1032C0005B6805460E4620462949984720462C460D
:1032D00008F0F4FF44F8086B0520012109F08CFD8B
:1032E000C82120460EF0F6F820460DF07AFF204661
:1032F0000DF0C8FF00270026AB19FAB293F833107F
:10330000009201922046134601360EF086F8102EE8
:10331000F2D120460DF0B6FF4FF47A63013B7FF403
:10332000FDAF0137B7F5807FE5D1FF270026AB1948
:10333000FAB293F8331000920192204613460136F8
:103340000EF06BF8102EF2D120460DF09BFF4FF4DB
:103350007A63013B7FF4FDAF013FE7D1284664214A
:1033600003B0BDE8F040FFF769BF00BFDCD9FF1F25
:10337000096F0100044A054B1360054A1360054AB2
:10338000136009F00DBB00BFB091FF1F0320003890
:10339000AC91FF1FA891FF1F2DE9F04705468CB0A7
:1033A0000C4616461F46BE49BE48FDF7C4F8EE62FD
:1033B0006F6201260027BC492F736F73AF73EF73E1
:1033C0002E746E74AE74EE742F756F75AF75EF75E5
:1033D0002E766E76AE76EE76B248FDF7ACF82046E5
:1033E0002121AC6202F01EFC2046394608223346F9
:1033F00002F05EFA204631460422334602F058FAC3
:10340000204602210922334602F052FA20460321C7
:103410000522334602F04CFA20461121062233469B
:1034200002F046FA204604210A22022302F040FA62
:10343000204605210722022302F03AFA20460621FF
:103440000B22022302F034FA204607210C22022329
:1034500002F02EFA204608211B22334602F028FAF9
:10346000204609211222334602F022FA20460A2180
:103470001322334602F01CFA20460B211422334655
:1034800002F016FA20460C211522334602F010FAFB
:1034900020460D211622334602F00AFA20460E215C
:1034A0001722334602F004FA20460F210322334646
:1034B00002F0FEF9204610211822334602F0F8F9F6
:1034C000204616210E22022302F0F2F92046122194
:1034D0000222334602F0ECF92046132132463B46E5
:1034E00002F0E6F9204614211A223B4602F0E0F9E8
:1034F000204615210D223B4602F0DAF9204617211D
:103500000F223B4602F0D4F92046182110223B46F8
:1035100002F0CEF92046192111223B4602F0C8F9EB
:1035200020461A2119223B4602F0C2F93A463B4690
:103530001B21204602F0BCF9204602F0F9FA5B4953
:103540005848FCF7F8FF022105F11D0002F048F988
:1035500005F11F090A2009F0EFFC1321484602F08B
:1035600029FC05F120080A2009F0E6FC404612215A
:1035700002F020FC0A2009F0DFFC4D4904A808F005
:1035800066FF0A223946684608F0AAFF694604A881
:1035900009F01FF8474909F025F8FEB28246314686
:1035A000484602F07BFC014608A808F086FF50461A
:1035B00008A909F00EF801463A48FCF7B2FF08A83E
:1035C00008F005FF684608F002FF04A808F0FFFEB7
:1035D000012009F0B1FC384904A808F038FF0A229C
:1035E0003946684608F07CFF694604A808F0F1FFF8
:1035F000304908F0F7FF31468246404602F04EFC63
:10360000014608A808F059FF504608A908F0E1FF54
:1036100001462448FCF785FF08A808F0D8FE684654
:1036200008F0D5FE04A808F0D2FE012009F084FCC1
:10363000012009F081FC31460122484602F0F6FBE8
:10364000012009F079FC01223146404602F0EEFBF0
:10365000012009F071FC012009F06EFC144904A856
:1036600008F0F5FE0A223946684608F039FF694637
:1036700004A808F0AEFF0F4908F0B4FF31468246B7
:10368000484602F00BFC014608A808F016FF504619
:1036900008A908F09EFF01460248FCF742FF0DE032
:1036A000206F0100DCD9FF1F326F01004C6F010059
:1036B0005D6F0100CE6A01006C6F010008A808F080
:1036C00086FE684608F083FE04A808F080FE01200C
:1036D00009F032FC7E4904A808F0B9FE0A223946F6
:1036E000684608F0FDFE694604A808F072FF7949B3
:1036F00008F078FF31468246404602F0CFFB014693
:1037000008A808F0DAFE504608A908F062FF014652
:103710007148FCF706FF08A808F059FE684608F053
:1037200056FE04A808F053FE012009F005FC012014
:1037300009F002FC3146FF22484602F077FB0120E7
:1037400009F0FAFBFF223146404602F06FFB0120F0
:1037500009F0F2FB012009F0EFFB604904A808F032
:1037600076FE0A223946684608F0BAFE694604A881
:1037700008F02FFF574908F035FF3146824648468A
:1037800002F08CFB014608A808F097FE504608A9F5
:1037900008F01FFF01465048FCF7C3FE08A808F0D8
:1037A00016FE684608F013FE04A808F010FE01207B
:1037B00009F0C2FB464904A808F049FE0A2239462E
:1037C000684608F08DFE694604A808F002FF4149EA
:1037D00008F008FF31468246404602F05FFB014692
:1037E00008A808F06AFE08A9504608F0F2FE014653
:1037F0003948FCF796FE08A808F0E9FD684608F08D
:10380000E6FD04A808F0E3FD0137012009F094FB70
:10381000042F7FF4B2AE2E462F1D96F834302B4481
:10382000204693F83C10012202F0F1F996F8383066
:103830002B44204693F83C100122013602F0E7F9B0
:10384000BE42EAD126492448FCF775FE1F2001211B
:1038500009F0D2FA0420012109F0CEFA21491E48CC
:10386000FCF769FE204602F099F900251E4904A8DC
:1038700008F0EDFD0A222946684608F031FE694647
:1038800004A808F0A6FE194908F0ACFEE9B2064605
:10389000204602F0CFF80A22014608A808F020FED0
:1038A00008A9304608F095FE01460B48FCF739FEA2
:1038B00008A808F08CFD684608F089FD013504A8C9
:1038C00008F085FD1C2DD1D10CB0BDE8F08700BFFC
:1038D0006C6F0100CE6A0100DCD9FF1F5D6F010033
:1038E0007B6F0100906F0100BA6F0100DE6B010079
:1038F0002DE9FF47B34B1A680292029A1B680393A3
:10390000039BB14B1B78283B0446232B00F27D839D
:10391000DFE813F0240053008400240053008400E7
:10392000240053008400240053008400B300CE0020
:10393000EA00050120013C01680183019F01BA01F1
:10394000D501F1010C02270243025E0279029502C1
:10395000B002CB02F2020D032E0351039B4D05F181
:10396000080A6E78DFF87082DFF8709238F8162057
:1039700039F81630009296494FF48042002008F042
:103980001CFD04F11D0782B23146384601F044FFA8
:1039900015F8016F8E4938F8162039F81630009264
:1039A00000204FF4804208F008FD314682B23846CC
:1039B00001F032FF5545D4D127E3844D05F1080AC3
:1039C0006E78DFF81482DFF8149238F8162039F890
:1039D000163000927E494FF480424FF4005008F0B8
:1039E000ECFC04F11D0782B23146384601F014FFA9
:1039F00015F8016F764938F8162039F8163000921C
:103A00004FF400504FF4804208F0D7FC314682B2A8
:103A1000384601F001FF5545D2D1F6E26B4D05F174
:103A2000080A6E78DFF8B081DFF8B09138F8162018
:103A300039F816300092664966484FF4804208F023
:103A4000BCFC04F11D0782B23146384601F0E4FEA9
:103A500015F8016F5E4938F8162039F816300092D3
:103A60005C484FF4804208F0A8FC314682B23846E8
:103A700001F0D2FE5545D4D1C7E2DFF86481564E3D
:103A800098F80050554F36F8152037F81530504942
:103A9000009200F11D044FF480424E4808F08DFC66
:103AA000294682B2204601F0B7FE98F8005058E24D
:103AB000DFF82C81484E98F80050484F36F8152012
:103AC00037F815304249009200F11D044FF480424E
:103AD0004FF4005008F071FC294682B2204601F0F4
:103AE0009BFE98F800505EE2DFF8F4803A4E98F8BA
:103AF00000503A4F36F8152037F815303449009207
:103B000000F11D044FF48042002008F056FC2946C5
:103B100082B2204601F080FE98F8005065E2DFF89E
:103B2000C0802D4E98F801502C4F36F8152037F8EC
:103B300015302749009200F11D044FF480422548BA
:103B400008F03BFC294682B2204601F065FE98F859
:103B5000015006E2DFF888801F4E98F801501F4F91
:103B600036F8152037F815301949009200F11D0478
:103B70004FF480424FF4005008F01FFC294682B2F7
:103B8000204601F049FE98F801500CE2DFF8508021
:103B9000114E98F80150114F36F8152037F81530AE
:103BA0000B49009200F11D044FF48042002008F000
:103BB00004FC294682B2204601F02EFE98F80150FE
:103BC00013E200BFD4D7FF1F16D7FF1F508EFF1F71
:103BD00000C0FFFF00E0FFFF5A8EFF1F848EFF1F13
:103BE000518EFF1FDFF80C83BE4E98F80250BE4F77
:103BF00036F8152037F81530BC49009200F11D0445
:103C00004FF48042BA4808F0D8FB294682B22046D9
:103C100001F002FE98F80250A3E1DFF8D882B14E1D
:103C200098F80250B04F36F8152037F81530AF49E4
:103C3000009200F11D044FF480424FF4005008F050
:103C4000BCFB294682B2204601F0E6FD98F80250FE
:103C5000A9E1DFF8A082A34E98F80250A24F36F8EF
:103C6000152037F81530A149009200F11D044FF4DA
:103C70008042002008F0A1FB294682B2204601F0D4
:103C8000CBFD98F80250B0E1DFF86882954E98F8C5
:103C90000350954F36F8152037F8153093490092A8
:103CA00000F11D044FF48042914808F086FB29463C
:103CB00082B2204601F0B0FD98F8035051E1DFF8E0
:103CC0003482884E98F80350874F36F8152037F81D
:103CD00015308649009200F11D044FF480424FF4E4
:103CE000005008F06AFB294682B2204601F094FD9C
:103CF00098F8035057E1DFF8FC817A4E98F80350AA
:103D0000794F36F8152037F815307849009200F1D0
:103D10001D044FF48042002008F04FFB294682B278
:103D2000204601F079FD98F803505EE1DFF8C48188
:103D30006C4E98F804506C4F36F8152037F8153053
:103D40006A49009200F11D044FF48042684808F06F
:103D500034FB294682B2204601F05EFD98F80450FB
:103D6000FFE0DFF890815F4E98F804505E4F36F820
:103D7000152037F815305D49009200F11D044FF40D
:103D800080424FF4005008F018FB294682B22046CA
:103D900001F042FD98F8045005E1DFF85881514EDA
:103DA00098F80450504F36F8152037F815304F4921
:103DB000009200F11D044FF48042002008F0FDFA4B
:103DC000294682B2204601F027FD98F804500CE104
:103DD000DFF82081434E98F80550434F36F8152000
:103DE00037F815304149009200F11D044FF480422C
:103DF0003F4808F0E2FA294682B2204601F00CFD65
:103E000098F80550ADE0DFF8EC80364E98F8055094
:103E1000354F36F8152037F815303449009200F147
:103E20001D044FF480424FF4005008F0C6FA2946B2
:103E300082B2204601F0F0FC98F80550B3E0DFF8BC
:103E4000B480284E98F80550274F36F8152037F8DB
:103E500015302649009200F11D044FF480420020E5
:103E600008F0ABFA294682B2204601F0D5FC98F85A
:103E70000550BAE0DFF87C801A4E98F806501A4FC9
:103E800036F8152037F815301849009200F11D0456
:103E90004FF48042164808F090FA294682B2204634
:103EA00001F0BAFC98F806505BE0DFF848800D4E50
:103EB00098F806500C4F36F8152037F815300B4996
:103EC000009200F11D044FF480424FF4005008F0BE
:103ED00074FA294682B2204601F09EFC98F80650FA
:103EE00061E000BF5A8EFF1F848EFF1F00C0FFFFDE
:103EF00000E0FFFF518EFF1FDFF82481444E98F849
:103F00000650444F36F8152037F8153042490092D4
:103F100000F11D044FF48042002008F04EFA2946BB
:103F200082B2204601F078FC98F806505DE0DFF898
:103F3000F080374E98F80750364F36F8152037F88E
:103F400015303549009200F11D044FF4804233488A
:103F500008F033FA294682B2204601F05DFC98F859
:103F6000075036F8152037F815302C48009242E0FB
:103F7000DFF8AC80264E98F80750264F36F815200B
:103F800037F815302449009200F11D044FF48042A7
:103F90004FF4005008F011FA294682B2204601F091
:103FA0003BFC98F8075036F8152037F8153000928A
:103FB0004FF400501FE0DFF86880154E98F8075066
:103FC000144F36F8152037F815301349009200F1D8
:103FD0001D044FF48042002008F0EFF9294682B218
:103FE000204601F019FC98F8075036F8152037F8EC
:103FF00015300092002008494FF4804208F0DDF9A6
:10400000294682B2204601F007FC04B0BDE8F087E3
:104010005A8EFF1F848EFF1F00C0FFFF00E0FFFFCE
:10402000518EFF1F2DE9F3410446806A414EDFF8AF
:10403000248101F0B3FD11210122606A0FF024FDFB
:10404000242130800122606A0FF01EFD252170803E
:104050000122606A0FF018FD2221B0800122606AFF
:104060000FF012FD0025F080334B705BEB5A334F9D
:10407000984207D2324AA95A002200921A464FF4B7
:10408000806305E02F4A3049AA5A0091194600235F
:1040900008F093F978534023785F2B4900934FF44D
:1040A00080626FF03F0308F088F90235082D08F8A8
:1040B000010FD9D1A06A254E042101F055FE80F0F0
:1040C000010030700521A06A01F04EFE80F0010071
:1040D00070700621A06A01F047FE80F00100B07008
:1040E0000721A06A01F040FE80F00100F070042179
:1040F000A06A174E01F022FE05213070A06A01F07F
:104100001DFE06217070A06A01F018FE0721B07034
:10411000A06A01F013FE2946F0700122A06A01F0A6
:1041200076FDA06A2946002202B0BDE8F04101F008
:104130006EBD00BF06D7FF1F748EFF1F22D7FF1F63
:104140006A8EFF1F948EFF1F00FCFFFF3CD7FF1FEE
:1041500049D7FF1F2BD7FF1F2DE9F04F85B004462D
:104160009DF844809DF838A09DF840600F46914628
:104170009B46B8F1000F08D0806A01F0FFFD20B126
:10418000A06A3946002201F042FDE519A06A95F8BF
:104190003430234493F83C1006B3002201F037FD7D
:1041A00095F834302344FF2293F8443000921909E3
:1041B00003F00F0A304607D17F220B4608F0FDF8C6
:1041C000C2B204F11F0007E000217F220B4608F075
:1041D000F4F8C2B204F12000514635E0012201F0AA
:1041E00016FDBAF1010F16D195F838302344324646
:1041F00093F844100B0908BF04F11F0001F00F01F0
:1042000018BF04F1200001F011FE01232B762B735F
:1042100085F814B009E008D99DF83C302B740123CF
:1042200085F814B02B7685F80CA095F8343023442B
:1042300093F844100A0908BF04F11F0001F00F01B0
:104240001CBF04F12000002201F0F0FDDFF878B07F
:1042500095F834C0DFF874A03BF81C203AF81C3005
:10426000009213445B08002178224846CDF80CC028
:1042700008F0A3F8DDF80CC004F11D0682B2614617
:10428000304601F0C9FA95F834503BF815203AF859
:104290001530009213440021782248465B0808F04C
:1042A0008CF8294682B2304601F0B6FAB8F1000F18
:1042B00004D0A06A3946012201F0A9FC08F01EFED4
:1042C000A06005B0BDE8F08F5A8EFF1F848EFF1FDF
:1042D0002DE9F74346180746337B002B00F0E180B9
:1042E000013B032B00F29F80DFE803F002053C6DE9
:1042F000347DE40165E06C4A337C106858430BF070
:10430000ADFC6A490BF002FD69490BF0FFFC694BFB
:104310000446186800010BF0A1FC014620460BF092
:10432000A9FD0BF0AFF810F043F80446307D0D46C0
:104330000BF096F802460B46204629460BF0F6F89D
:1043400000225D4B0BF0F2F80BF08AFB96F8383048
:104350003B44002284B293F83C10B86A01F057FC49
:10436000022260E0504A337C106858430BF076FC20
:104370004E490BF0CBFC4E490BF0C8FC4D4B0446AC
:10438000186800010BF06AFC014620460BF072FD34
:104390000BF078F810F00CF8002200230BF056FB1D
:1043A000347D08B1E40103E0C4EB4424E401A4B289
:1043B00096F83830B86A3B44012293F83C1001F07B
:1043C00026FC00222FE0384A337C106858430BF05B
:1043D00045FC36490BF09AFC35490BF097FC354B00
:1043E0000446186800010BF039FC014620460BF02A
:1043F00041FD0BF047F80FF0DBFF002200230BF02C
:1044000025FB347D08B1E40103E0C4EB4424E4015E
:10441000A4B296F83830B86A3B44002293F83C10B6
:1044200001F0F5FB282296F83830DFF89480DFF8A9
:1044300094903B4424B293F844100B090CBF07F14D
:104440001F0007F1200001F00F0101F0EFFC96F8CA
:1044500038501A4938F8152000233376204639F8A9
:10446000153000924FF4804207F0A7FF1D3782B24B
:104470002946384601F0D0F996F838500F4938F8F7
:104480001520009239F8153020464FF4804207F08D
:1044900094FF294682B2384603B0BDE8F04301F0EC
:1044A000BBB903B0BDE8F08354D7FF1FD00F49401C
:1044B0000000C84200D7FF1F0000604000C0FFFF9F
:1044C0005A8EFF1F848EFF1F70B504460E46154698
:1044D0001BB1806A002201F09AFB711EC9B20F293C
:1044E000E46A0DD894F84A3041F080018B420BD039
:1044F000D4F8E00084F84A1003681B68984703E08A
:10450000002384F84A3070BDD4F8E000036805F059
:104510007F011B689847D4F8E000036840211B68BE
:10452000984770BD38B5002204460D46806A01F0F8
:104530006EFB60190023037303750123037638BDF6
:1045400037B54FF4007305460C4609B1084A00E040
:10455000084A13601720214608F02EFC2C7724B15E
:10456000054B1B680193019B2B6003B030BD00BF5E
:1045700084F00F4088F00F40D4D7FF1F044A054B4A
:104580001360054A1360054A136008F009BA00BFBA
:10459000BC91FF1F03200038B891FF1FB491FF1F8B
:1045A00010B5044608F0AAFCC4F8000910BDD0F804
:1045B000F438013370B5C0F8F43890F8016890F819
:1045C000023800221E440346B2420DDA99690029DE
:1045D00007DDD0F8EC58D0F8F848B5FBF4F4091B27
:1045E000996101322033EFE770BDFFFF264B80F861
:1045F000E2181B78F0B5002B45D090F8DA3890F827
:104600000268B0F8E0585CB2002CD8BFC3F10202D7
:1046100011FB06F6D4BFD2B20122DBB2002CCCBF14
:104620001C46012402FB06F205F10105ADB292FB26
:10463000F4F295FBF2F602FB1652C3F10203A0F866
:10464000E0284FF48005D0F8F428C0F8F82895FB4E
:10465000F1F5D4BF1E4601260022C0F8EC58C0F880
:10466000F428E5B2F6B201238B420CDA0A44B6FB19
:10467000F5F492FBF4F704FB172414B980F804381E
:10468000F0BD0133F0E7F0BD48D7FF1F90F8DA38EE
:104690005AB2002ADABFC3F10200C0B20120002AD8
:1046A000CCBFDBB20123800590FBF3F0704710B55F
:1046B0000446FFF7EBFF94F80238584310BDF8B5F5
:1046C000D0F8F458D0F8F848B0F8E068AC4234BFFD
:1046D00027462F46D0F8EC58FFF7E9FF6E43B6FBAC
:1046E000F0F37D4303FB1060B5FBF4F42044F8BD08
:1046F00038B590F80338012B044611D1FFF7DFFFDE
:1047000005462046FFF7C2FF94F8012894F80238C6
:104710001344013BB5FBF0F01B1A84F800380DE0A0
:1047200063B9FFF7CCFF05462046FFF7AFFF94F8CB
:104730000138B5FBF0F0C51884F8005894F800383B
:1047400084F8DE3838BD90F80008000970472DE97C
:10475000F04190F8017890F8023890F800481F4432
:1047600007EB0408054608F1FF38002644450CDA3B
:1047700094FBF7F307FB134305EB431328465E61F5
:10478000FFF784FF01340644F0E73046BDE8F081CE
:1047900030B504468DB051B10023A0F8E038C0F820
:1047A000F438FFF78CFF01462046FFF7A1FF94F88D
:1047B000023894F8010822461844002383420CDA98
:1047C00094F800188B4202F1200206D0002102F872
:1047D000101C02F80F1C0133F0E72046FFF7B7FF6B
:1047E00094F80938002B2FD1184904A807F02FFEA0
:1047F00094F80918684607F060FE694604A807F0B7
:10480000E8FE134907F0EEFE124907F0EBFE0546FD
:104810002046FFF754FF0A22014608A807F086FE4B
:1048200008A9284607F0D5FE01460B4807F025FDEC
:10483000094807F043FD08A807F0C9FD684607F0DE
:10484000C6FD04A807F0C3FD0DB030BDE46F010044
:10485000E86F0100F06F0100DCD9FF1F2DE9F74F71
:104860000446FFF72CFF804641462046FFF740FFF5
:1048700094F81638002B40F0A38094F8006804EBFD
:10488000461303F11002197C002946D158790028FB
:1048900043D05170D8794C4D94F80F38EB5614270B
:1048A00093FBF7F31844052205F00AF8264401218A
:1048B00086F81A0894F8006804EB46130522187A63
:1048C00094F81138EB5693FBF7F7384404F0F8FFEF
:1048D00094F8103894F80018EA5626440F2386F806
:1048E0005A08601892FBF3F380F89A3804EB4113EE
:1048F0005A7922B1022A4FF0000298BF012290F8A3
:104900001A3890F85A080090204600F097FA94F868
:10491000003804EB431301221A742546274600266B
:1049200094F8023894F801281A44964248DC6979D0
:1049300000293DD02A7C042A04D0062A25D0012A49
:1049400036D10CE094F80028964235D1012B2FD1B6
:104950002046FFF79BFEB8EB900F2DD328E0A96906
:10496000EB69994224DA5FFA86FA2046514600F054
:10497000D0FB06232B742046514695F811B000F069
:10498000AFFB834514D9042311E0AB69002B0FDC86
:10499000022997F85A2897F81A38009298BF4FF0D2
:1049A00001092046F1B24A4600F048FA01232B746F
:1049B000013620350137B3E700232B746B74F7E71A
:1049C00003B0BDE8F08F00BF2CD7FF1F024B1B7850
:1049D0000BB1FFF743BF704748D7FF1F044A054B91
:1049E0001360054A1360054A136007F0D9BF00BF82
:1049F000C891FF1F03200038C491FF1FC091FF1F03
:104A00002DE9F041134D044628680F461646124919
:104A10001D229846436828469847284607F04EFCD2
:104A2000002384F80838042384F8DA38069BC4F895
:104A3000FC3884F8097884F8026884F80A882046EB
:104A4000FFF785FE012384F8DB38079BC4F804399F
:104A5000BDE8F081DCD9FF1F00700100F0B58DB01A
:104A600004460E4604A84049154607F0F0FC3146BE
:104A7000684607F022FD694604A807F0AAFD3B49F5
:104A800007F0B0FD2946074608A807F016FD08A95B
:104A9000384607F09EFD01463548FBF742FD08A861
:104AA00007F095FC684607F092FC04A807F08FFC1D
:104AB000102384F802380423002084F80A3844F6CE
:104AC000206284F8DA380523C4F8E82884F801085D
:104AD00084F8060884F8070884F8086884F80958F8
:104AE00084F80B3884F80C3884F80F3884F80D38C3
:104AF00084F80E3884F8103884F8113884F81238A5
:104B000084F8133884F8143884F8153884F81608B3
:104B100084F8170884F818084022013403216171D1
:104B20000121E1712172042118236172E172432194
:104B300004F8013C217300231021013A23706370B3
:104B4000A370E3702371A371A3726373A173C4F89C
:104B50001330E37323746374C4F8173004F1200432
:104B6000DCD10DB0F0BD00BF1E700100E762010096
:104B7000DCD9FF1F90F8162882F0010210B5034619
:104B800080F81628EAB190F8022890F8014801460A
:104B900014440022A2420CDA93F80008824201F188
:104BA000200106D0002001F8100C01F80F0C013292
:104BB000F0E7D3F8040993F80918BDE81040FFF7AF
:104BC000B1BC10BDC0F8FC18FFF7C1BD2DE9F04124
:104BD00003EB4117044694B0E2550D4604A823495F
:104BE0001646984607F033FC2946684607F065FCF0
:104BF000694604A807F0EDFC1D4907F0F3FC3146B7
:104C0000054608A807F059FC08A9284607F0E1FC6A
:104C1000184907F0E7FC414605460CA807F04DFC93
:104C20000CA9284607F0D5FC134907F0DBFCE15D31
:104C3000054610A807F041FC10A9284607F0C9FC5A
:104C400001460E48FBF76DFC10A807F0C0FB0CA84E
:104C500007F0BDFB08A807F0BAFB684607F0B7FBF2
:104C600004A807F0B4FB14B0BDE8F0813E70010069
:104C7000497001004173010045700100DCD9FF1F3C
:104C800030B5023BDBB20C2B98BF15489DF80C40A9
:104C900094BF30F8133040F6FF730020904206DADC
:104CA00003F001055B1043EAC5230130F6E70D2050
:104CB0000C22B1FBF2F502FB1512D2B24FF40065E3
:104CC00045FA02F29A4308D00CB1013100E00139F3
:104CD000013810F0FF00C9B2EAD1084630BD00BF6C
:104CE0008070010002EB4112805C704770B590B09B
:104CF00004460D4604A8304907F0A9FB294668463A
:104D000007F0DBFB694604A807F063FC2B4907F0BA
:104D100069FC0A220646B4F8E01808A807F0E0FB90
:104D2000304608A907F055FC254907F05BFC94F8CC
:104D3000E21806460CA807F0C0FB30460CA907F0A5
:104D400048FC204907F04EFC01461F48FBF7E9FBF1
:104D50000CA807F03CFB08A807F039FB684607F0F1
:104D600036FB04A807F033FB94F8E23894F9DA68CC
:104D700094F80228B4F8E01815FB03F090FBF6F065
:104D800013FB02F393FBF6F3084490FBF3F503FBEC
:104D90001505A4F8E0580023934204F1200408DA32
:104DA00054F8080CAEB28E1B304444F8080C0133A2
:104DB000F2E710B070BD00BF527001005D700100DD
:104DC0006E700100DE6B0100DCD9FF1F38B590F872
:104DD0000B388B4204460D4602D10121FFF7D8FC67
:104DE00094F80C38AB4208D1044B1B782BB1204609
:104DF0000421BDE83840FFF779BF38BD48D7FF1F11
:104E000008B54318490193F99A380844002B407AB1
:104E100006DA18440121402204F052FDC0B208BD58
:104E200008BD4318490193F89A3808445AB2807A69
:104E3000002AC4BF5843C0B27047FFFF2DE9F04FAE
:104E400090464A0100EB02090F464E014946825C3A
:104E5000044648788BB010448DF811008878C978E2
:104E60008DF8102010440A448DF8132094F8182867
:104E70009DF850C08DF812001AB1002384F818383C
:104E800027E10122042519F80210FF2908BF05F1C6
:104E9000FF3502F1010208BFEDB2042AF3D1284622
:104EA00005EB850188420ADA04AAC5EB020E1EF85A
:104EB00000E00EF10C0E00F802E00130F2E7BCF168
:104EC000000F02D00CFB05F5EDB2013B042B4BD8D3
:104ED000DFE803F0030D182B4000A3195B7CB3FB44
:104EE000F5F205FB12330AAA52FA83F31AE0A3196A
:104EF0005B7CB3FBF5F205FB1233ED1A0AAB53FAF8
:104F000085F524E0A3195B7CB3FBF5F212F0010FE9
:104F100005FB02F2C2EB030308BFC3EB0503DBB2E0
:104F20000AAA134413F8185C20E0A319691E5B7CDD
:104F300093FBF1F2D0074BBFB3FBF5F201FB123349
:104F400005FB1235C3EB0505EDB20AAB1D4415F8A0
:104F5000185C0BE02946002007F025FA0AAA52FA4D
:104F600080F010F8185C01E09DF8105094F80738B4
:104F700053B1012194F80628009120462946FFF7F5
:104F80007FFEA319987401E0A3199D74524B94F805
:104F90000E289A5C9B462AB100207F2107F003FA75
:104FA000A319987494F81318DFF830A1A3191AF90B
:104FB0000100042190FBF1F1987C01449974D87AA6
:104FC00094F815381AF9033000211844FF2204F030
:104FD00077FC94F80D381BF80330C5B20BB188F09C
:104FE000010899F80730002B33D194F8143899F858
:104FF00006001AF903300130012103EB4000402282
:1050000004F05EFC94F8DA385AB2002ADABFC3F131
:105010000201C9B201218005002A01FB00F0CCBFCA
:10502000D9B20121A7194FEAC10E90FBFEF1002A67
:10503000B961DABFC3F10201C9B20121002ACCBFB4
:10504000DBB201238905A219DB0091FBF3F3D361E5
:105050002AE094F8DA984FFA89F3002BD8BFC9F107
:10506000020939462046D4BF5FFA89F94FF0010999
:10507000FFF7C6FE4FEA895900FB09FA94F8DA985F
:105080004FFA89F3002B20463946CCBF5FFA89F9E5
:105090004FF00109FFF7C5FEA31919FB00F09AFBB9
:1050A000F0F098614010D861264406F11007B07BFB
:1050B000737BB27C0090F07B019094F80918029504
:1050C000CDF80C80D4F80409FFF746F87B7801335B
:1050D0007B700BB0BDE8F08F3CD7FF1F2CD7FF1FB4
:1050E00070B54318054693F81A380C467BB100EBAF
:1050F00041139E79FFF795FE214616FB00F62846E0
:10510000FFF77EFE96FBF0F0C0F3870070BD1846F7
:1051100070BD10B500EB4111134601F11002097C7E
:105120000129044608D194F80918D0F804099278A6
:10513000BDE81040FFF7C8B910BDFFFF531A002BA0
:10514000B8BF5B42013380F802380A4B91421B78AA
:1051500005D201EB031180F80118002304E002EBF3
:10516000031280F80128012380F80338012380F816
:105170001838704715D7FF1F044A054B1360054ABE
:105180001360054A136007F00BBC00BFD491FF1FEA
:1051900003200038D091FF1FCC91FF1F10B50446AB
:1051A00007F0ACFE2060204610BD10B5044607F0A5
:1051B000A5FE2368C01A10BD13B5194B1A680092DA
:1051C000009A02601B680193019B4360044608300B
:1051D000FFF7E4FF04F11D0000F000FB04F11F00E5
:1051E00000F0E6FD04F1200000F0E2FD0D4A134658
:1051F000114653F8040B2063186860639068A0633D
:1052000051F80C0F496804F13C0303C352F8140F22
:10521000516804F1440303C3204602B010BD00BF2F
:10522000D4D7FF1F9A70010013B504460C30FFF766
:10523000B5FF04F12400FFF7B1FF04F12800FFF7E8
:10524000ADFF144B1B680193019B236504F15400CF
:10525000FFF7B2FF04F1A00004F0DEFB04F1F4005C
:1052600000F02AFE04F24440FDF760FC04F5926071
:10527000FBF72CFC04F2445000F012FB04F5B5607F
:1052800000F00EFB04F21C60FFF788FF204602B01E
:1052900010BD00BFD4D7FF1F2DE9F04F8DB00446DD
:1052A0008A4689488949DFF848921E4604F1540726
:1052B000934604F5B568FBF73EF9169BC4F818361B
:1052C000384641465246C4F810A6C4F81466FEF7A4
:1052D00063F8D9F800306425B3FBF5F38DE8880056
:1052E0003046002110220423FFF78AFBD9F8003052
:1052F000B3FBF5F38DE8880006F6081001211022B3
:105300000423FFF77DFBD9F8003006F59050B3FB7E
:10531000F5F38DE888001030022110220423FFF7F6
:105320006FFBD9F8003006F5D850B3FBF5F58DE8E2
:10533000A000183003211022042304F5926504F123
:10534000A009FFF75DFB43464846394604F2445244
:105350008DE86000029404F0BBFB224604F1F400E7
:10536000314600F0CDFD04F244403146FDF7A4FF84
:105370002046394632465346CDF800B005F044FE8B
:10538000169B00932846524B39463246FBF7BEFB2C
:10539000504B1B78002B00F084804F494A48FBF7A4
:1053A000CAF82846FDF79DFB2846FDF7EFF9284689
:1053B000FCF7A0FD0027494908A807F048F80A2291
:1053C000394604A807F08CF804A908A807F001F9E9
:1053D000434907F007F901463B48FBF7A2F804A848
:1053E00006F0F5FF08A806F0F2FF4FF000085FFA9C
:1053F00087FA40F6081000FB08605FFA88F2514611
:1054000008F10108FFF72AFBB8F1040FEFD12E488D
:105410003449FBF790F84FF000085FFA88F128460E
:10542000524608F10108FBF7F7FEB8F1040FF4D17A
:1054300025482D49FBF77FF894F890341BB1284696
:10544000FCF7F6FDF8E7294908A807F000F80A225A
:10545000394604A807F044F804A908A807F0B9F8E9
:105460001F4907F0BFF801461748FBF75AF804A890
:1054700006F0ADFF08A806F0AAFF01374FF4FA7056
:1054800007F05AFD102F96D194F890341BB128469E
:10549000FCF7CEFDF8E7642007F04EFD2846FDF747
:1054A00085FA2846FCF726FD0F2228460021FCF746
:1054B00057FB2846FBF7AAFB4846012104F0F2FB04
:1054C0000DB0BDE8F08F00BFDCD9FF1FB670010042
:1054D0006DDBFF1F5DD7FF1FD2700100207101003F
:1054E0004D71010074710100897101009D7101000D
:1054F000808EFF1F30B504468BB007F0FFFC94F898
:105500002D3001902BB104F2444042F21071FDF7AE
:1055100015FE01A8FFF749FE42F21073984219D90F
:10552000414906A806F093FF01A8FFF73EFE0A22B4
:10553000014602A806F0FAFF02A906A807F049F8FA
:1055400001463A48FAF7EDFF02A806F040FF06A828
:1055500006F03DFF07F0D2FC44F62061019004F113
:10556000A00005F061FC01A8FFF71FFE42F21073D6
:10557000984219D92E4906A806F069FF01A8FFF73D
:1055800014FE0A22014602A806F0D0FF02A906A8CE
:1055900007F01FF801462548FAF7C3FF02A806F0F6
:1055A00016FF06A806F013FF07F0A8FC019004F20E
:1055B0001C60FFF7FAFD42F21075A8422CD994F84E
:1055C00090344BB304F59260FCF732FD07F096FC83
:1055D000C4F81C0601A8FFF7E8FDA84219D915492F
:1055E00006A806F034FF01A8FFF7DFFD0A220146F6
:1055F00002A806F09BFF02A906A806F0EAFF0146F2
:105600000A48FAF78EFF02A806F0E1FE06A806F0A7
:10561000DEFE07F073FC019004F1F40044F6206113
:1056200003F0EAFA0BB030BDC9710100DCD9FF1FED
:10563000027201003E72010005F034BD05F0BABEF1
:105640000346D0F80C06D3F8101606F0AEB9FFFFEB
:10565000064B10B5064C1C60064B1C60064B1C60CC
:1056600007F09EF9054B1C6010BD00BFE491FF1FC1
:1056700003200038DC91FF1FD891FF1FE091FF1F2E
:10568000154B0278F0B51C6844F480641C604FF040
:105690000044DC625A630C460246013C0E4D05D0C4
:1056A0005678EF6A0C4B002FFBDA04E00139EB6A05
:1056B000002BFCDA0BE09D6B1F6847F480671F60CE
:1056C0004FF00047DF625E6302F8015BE5E7024BE3
:1056D0009B6B4354F0BD00BF00C00240054BDA6A2B
:1056E00012F0F00F18BF9B6B4FF2F0031340002B2A
:1056F000F4D1704700C0024010B5184B1A7802B3BD
:1057000072B61B78D90707D5154A16491468096877
:105710002140154C216011609A0707D5134A1149A1
:10572000146849682140104C616011605B0707D51F
:105730000F4B0C4A196892680A400B498A601A603C
:1057400062B60C4BDA68824207D00B4A1A60D86006
:105750000A4A40F0804018611A6010BD6CDBFF1FE0
:1057600080E100E054DBFF1F60DBFF1F84E100E00D
:1057700088E100E000C0024001401F0000001F80DF
:10578000054B4FF00042DA625863DA6A002AFCDA0D
:10579000014B986BC0B2704700C002400A4B1B78A7
:1057A0008BB1D90703D5094A1168094A11609A07D4
:1057B00003D5064A5168074A11605B0703D5034BBE
:1057C0009A68054B1A6070476CDBFF1F60DBFF1F98
:1057D00000E100E004E100E008E100E07047FFFFC5
:1057E00010B500230446017043700846012107F0FC
:1057F00003FB2278064B53F83230012283F88020D5
:10580000044B4FF038421A60BDE810400AF0A8BCC3
:105810003CD20100E891FF1F2DE9F34117460446F1
:105820008846FFF75BFF114B114E1868FFF764FFC6
:1058300023788DF8067056F83330012583F800512F
:1058400001A83B0A032108F130088DF805308DF8D6
:105850000480FFF715FF237856F8333083F8805023
:10586000FFF79CFF02B0BDE8F08100BFE891FF1F89
:105870003CD20100014B024A1A607047E891FF1FB9
:1058800003200038054BDA6A12F0F00F18BF9B6B4B
:105890004FF2F0031340002BF4D1704700C00240D8
:1058A00010B5044607F02AFBA065204610BDFFFF97
:1058B0002DE9F04F81469FB0900890469A468B465E
:1058C00009F0CEFD0EF0E4FC044640460D4609F01A
:1058D000C7FD002206460F464E4B2046294609F0DA
:1058E00025FE0B4602463946304609F06BFC0AF0AD
:1058F000DFF82946C6B220460AF0DAF8C3B2BAF198
:10590000000F05D0BAF1010F0CBF0124032400E001
:10591000022409EB0B02002109EB030582F8108039
:1059200082F8301003277200974095F85010FF431B
:10593000FFB2394004FA02F20A4385F8502006A863
:105940003549019306F083FD019B02A8194606F034
:10595000B4FD02A906A806F03CFE304906F042FE5E
:10596000214680460AA806F0A8FD0AA9404606F08E
:1059700030FE2B4906F036FE1022804695F8501076
:105980000EA806F0ADFD0EA9404606F022FE254900
:1059900006F028FE3146054612A806F08EFD12A933
:1059A000284606F016FE204906F01CFE0222054697
:1059B000394616A806F094FD16A9284606F009FEF9
:1059C0001A4906F00FFE1022054604FA06F11AA83D
:1059D00006F086FD1AA9284606F0FBFD014614488C
:1059E000FAF79FFD1AA806F0F2FC16A806F0EFFCE5
:1059F00012A806F0ECFC0EA806F0E9FC0AA806F0D6
:105A0000E6FC02A806F0E3FC06A806F0E0FC1FB0E6
:105A1000BDE8F08F00001040797201008D72010026
:105A200098720100A1720100AB720100B672010010
:105A3000DCD9FF1F2DE9F0410F460446FFF722FF96
:105A4000194B1A4E1868FFF757FE94F8603056F855
:105A50003330012583F8005147F08000FFF790FEB6
:105A60000020FFF78DFE94F8603056F8333083F84D
:105A7000805094F8603056F83330002083F800519D
:105A8000FFF77EFE07460020FFF77AFE94F86030AD
:105A900056F83330804683F88050FFF77FFE47EAA0
:105AA000082080B2BDE8F081EC91FF1F3CD20100DC
:105AB0002DE9F0410F4690460446FFF7E3FE1A4BEE
:105AC0001A4E1868FFF718FE94F8603056F8333015
:105AD000012583F8005107F07F00FFF751FE404693
