:1000000000800020BD010000A10F0200590F020076
:10001000590F0200590F0200590F0200590F020038
:10002000590F0200590F0200590F0200A10F0200E0
:10003000A10F0200590F0200590402005D050200E1
:10004000A10F0200A10F0200A10F0200A10F0200E8
:10005000A10F0200A10F0200A10F0200A10F0200D8
:10006000A10F0200A10F0200A10F0200A10F0200C8
:10007000A10F0200A10F0200A10F0200A10F0200B8
:10008000A10F0200A10F0200A10F0200A10F0200A8
:10009000A10F0200A10F0200A10F0200A10F020098
:1000A000A10F0200A10F0200A10F0200A10F020088
:1000B000A10F0200A10F0200A10F0200A10F020078
:1000C000A10F0200A10F0200A10F0200A10F020068
:1000D000A10F0200A10F0200A10F0200A10F020058
:1000E000A10F0200A10F0200A10F0200A10F020048
:1000F000A10F020031300200A10F02005D310200A9
:10010000A10F0200B5180200A10F0200A10F02000A
:10011000A10F0200A10F0200A10F0200A10F020017
:10012000A10F0200A10F0200A10F0200A10F020007
:10013000A10F0200A10F0200A10F0200A10F0200F7
:10014000A10F0200A10F0200A10F0200A10F0200E7
:1001500095070200A9070200BD070200D1070200AF
:10016000A10F0200611B0200A10F0200A10F0200FB
:10017000A10F0200A10F0200A10F0200A10F0200B7
:10018000A10F0200A10F0200A10F0200A10F0200A7
:10019000A10F0200A10F0200A10F0200A10F020097
:1001A000A10F0200A10F0200A10F0200A10F020087
:1001B000A10F0200A10F0200A10F0200564B4CF24A
:1001C000205210B51A804DF628121A8000BF00BFC9
:1001D00020F0EAFE514B4FF010621A60504A9A60CC
:1001E000504ADA60504A136813F4807304D14F49BF
:1001F0000B604FF4A85313604D4B1A78110703D5C9
:100200001A7842F008021A704A4B4B492A221A7097
:100210004A4A4B4B8B4204D252F8040F43F8040B6A
:10022000F8E7484B484900228B4202D243F8042B9E
:10023000FAE74649464A002352F8230041F82300D2
:1002400001336F2BF8D1434B434A802103F8011B44
:100250009342FBD1414B3D4A1A60414B8A221A70AE
:10026000A3F5805324225A70A0221A709A7992071B
:10027000FCD59A79D406FCD43A4A937903F00C035E
:10028000082B384BF9D103221A7146225A719A79F8
:100290009006FCD5334A9179324B4906FBD5324A58
:1002A0004FF0827111600921516020221A709A79F1
:1002B00002F00C020C2AFAD12C4B2D4A1A602D4B5D
:1002C0002D4A1A6000225A60072243F8042C2B4A58
:1002D000C3F80C2D62B621F041F8144B1B68DA0705
:1002E00005D5274820F0ACFF264B274A1A60274B3C
:1002F0001B785B0609D5234C234B22689A4204D114
:100300001F4820F09DFF0023236025F03FFD20F0D3
:1003100051FE20F07FFDFEE70E20054030800440B6
:10032000823F04000100002B10D0034014D0034092
:1003300002D0074000E00740E099FF1FC0500300D3
:10034000308CFF1FE099FF1F00DFFF1F0082FF1F9F
:100350000000000000E400E05FE400E008ED00E0E1
:1003600000500640004006404480044004800440A1
:10037000C010050014E000E0BFD401000000202000
:1003800011AA245F1CE00340A5C3945A00F0074063
:10039000FFFFFFFFFFFFFFFFFFFFFFFFFFFFFFFF6D
:1003A000FFFFFFFFFFFFFFFFFFFFFFFFFFFFFFFF5D
:1003B000FFFFFFFFFFFFFFFFFFFFFFFFFFFFFFFF4D
:1003C000FFFFFFFFFFFFFFFFFFFFFFFFFFFFFFFF3D
:1003D000FFFFFFFFFFFFFFFFFFFFFFFFFFFFFFFF2D
:1003E000FFFFFFFFFFFFFFFFFFFFFFFFFFFFFFFF1D
:1003F000FFFFFFFFFFFFFFFFFFFFFFFFFFFFFFFF0D
:10040000FFFFFFFFFFFFFFFFFFFFFFFFDEF9FFFF23
:1004100010B5054C237833B9044B13B10448AFF33E
:1004200000800123237010BDE099FF1F0000000031
:10043000BC500300084B10B51BB108490848AFF386
:1004400000800848036803B910BD074B002BFBD0A0
:10045000BDE81040184700BF00000000E499FF1FEE
:10046000BC500300E099FF1F00000000002070470F
:10047000704700BF0369C26893420BD2826810B410
:100480005C1C0461D154036982680021D1540120AD
:1004900010BC70470020704744F2040210B4835827
:1004A0005C18B4F5804F08D8033121F003011944DA
:1004B0000344815010BC181D7047002010BC7047C9
:1004C00008B5806820F06CFB012008BD38B5446891
:1004D00064B10D4601E0246844B16168284626F005
:1004E00093FA0028F7D1237A062B13D00A4B1B6806
:1004F000DB0701D5094838BD074820F073FD002807
:10050000F8D0064C044800232360636020F070FD9F
:10051000204638BDE06838BD089AFF1F0C9AFF1FBF
:1005200038B5054620F074F90446284620F096F9BF
:10053000204438BD38B5044608460D4626F060FC18
:100540002368024629465B682046984705462046B0
:1005500020F084F9284438BD08B503280CD8DFE81A
:1005600000F004020907124808BD4FF07E5008BD94
:10057000104808BD104808BD031FDBB2032B0BD881
:10058000DFE803F0040206080C4808BD0C4808BD6B
:100590000C4808BD0C4808BD0838C0B2FFF7DCFFA6
:1005A000074924F0C9FF064924F0C6FF08BD00BF73
:1005B000CDCCCC3D6F12833A0AD7233CACC527374C
:1005C00017B7D138BD37863595BFD6330378093B89
:1005D000262B26D8DFE803F02222252522252525F3
:1005E00025252525252525252525252525252522BE
:1005F00025252525252525252525252525251400E1
:1006000043782A2B0FD02F2B0CD1837802301BB9C3
:1006100007E010F8013F23B10A2BFAD143780130EB
:10062000D5E770477047837802301BB9F9E701308E
:10063000002BF6D02A2B4378F9D12F2BF7D18378D2
:100640000230C4E72DE9F04F046883B00546002C62
:1006500000F0AB802368734A1B68934240F09F8090
:1006600044F20402A35803F10801B1F5804F00F2EF
:100670009C80E618A150301D0023046043600646AC
:1006800069680A78A2F10903262B31D8DFE803F064
:100690002323303023303030303030303030303081
:1006A0003030303030303023303030303030303057
:1006B00030303030303014004B782A2B00F08B80F3
:1006C0002F2B0BD18B7802311BB907E011F8013FBA
:1006D00023B10A2BFAD14A780131D3E7524D534E58
:1006E0002B6813F0010468D0304603B0BDE8F08FEA
:1006F0007B2AF3D14A784B1C093A262A1FD8DFE817
:1007000002F080801E1E801E1E1E1E1E1E1E1E1E2D
:100710001E1E1E1E1E1E1E1E1E801E1E1E1E1E1E97
:100720001E1E1E1E1E1E1E1E14005A782A2A00F0AF
:1007300005832F2A03D19A780233002A5FD16B6098
:1007400019781846A1F10902262A71D8DFE802F0CB
:10075000242470702470707070707070707070707D
:1007600070707070707070247070707070707070D5
:10077000707070707070140042782A2A44D02F2A4A
:100780005DD18178821C21B959E012F8011F00293E
:1007900055D00A29F9D1104641780130D2E7082115
:1007A0002046984700287FF467AF1F4F3B6813F03F
:1007B000010400F07E821D4E62E7284620F012FC04
:1007C000002891D028463460746020F011FC304637
:1007D00003B0BDE8F08F8B788A1C23B97EE7013225
:1007E000002B3FF47BAF2A2B5378F8D12F2BF6D177
:1007F000911C927846E713F8012F002A9FD00A2A0D
:10080000F9D15A78013377E78278811C12B916E062
:100810000131A2B12A2A4A78FAD12F2AF8D1881CAC
:1008200089788FE799040000FC99FF1F009AFF1F49
:100830007D2904D10130FFF7C9FE686054E7DFF875
:10084000C88247F6ED771C78D5F808E0272C39D018
:10085000222C37D024F02002413AA4F12B01192A8E
:10086000C9B240F2BD810E2927FA01F240F2B581EA
:100870007246002102F8011BD5F808906B60AA604F
:10088000B9F1000F3FF42AAF1978A1F10902262A25
:1008900048D8DFE802F044444747444747474747C2
:1008A00047474747474747474747474747444747DB
:1008B00047474747474747474747474732000B4661
:1008C0000EF8012B5A78591C002A00F0EE81944250
:1008D00000F0ED815C2AF2D19A788A48622A03F10D
:1008E000020303D181E18A4200F07F8110F8021FE8
:1008F0000029F8D1002AE3D1BAE75A782A2A00F071
:10090000A3812F2A7FF4EAAE9A7802332AB9E5E66A
:1009100013F8012F002A3FF4E1AE0A2AF8D15978E2
:100920000133B2E73A297FF4D9AE5A780133093A54
:10093000262A60D801A151F822F000BF2B0900003F
:100940002B090000F7090000F70900002B0900003F
:10095000F7090000F7090000F7090000F709000097
:10096000F7090000F7090000F7090000F709000087
:10097000F7090000F7090000F7090000F709000077
:10098000F7090000F7090000F7090000F709000067
:10099000F7090000F70900002B090000F709000023
:1009A000F7090000F7090000F7090000F709000047
:1009B000F7090000F7090000F7090000F709000037
:1009C000F7090000F7090000F7090000F709000027
:1009D000F7090000D90900005A782A2A00F0768128
:1009E0002F2A08D19A7802332AB10A2A9DD013F807
:1009F000012F002AF9D10DF1080A00220AF8082D6A
:100A00006B605146284600F019FD00283FF466AEA1
:100A1000D6F804B0BBF1000F00F088815C4603E01B
:100A20002468002C00F0E6806168484625F0ECFF61
:100A30000028F5D19AE80300083484E803006A68C6
:100A4000147811462046A0F10903262B5ED8DFE872
:100A500003F056565D5D565D5D5D5D5D5D5D5D5DA2
:100A60005D5D5D5D5D5D5D5D5D565D5D5D5D5D5DBD
:100A70005D5D5D5D5D5D5D5D14004B782A2B00F072
:100A8000F4802F2B0BD188788B1C40B10A2802D11F
:100A900034E00A2932D013F8011F0029F9D1A4F15A
:100AA0000903262B4FD8DFE803F026264E4E264EAC
:100AB0004E4E4E4E4E4E4E4E4E4E4E4E4E4E4E4E56
:100AC0004E264E4E4E4E4E4E4E4E4E4E4E4E4E4E6E
:100AD000140053782A2B00F0D8802F2B7FF4FEAD22
:100AE000937802322BB9F9E512F8013F002B3FF45D
:100AF000F5AD0A2BF8D154780132D0E71946487881
:100B00000131A0E710A50200990400007D28C6D19C
:100B10004A784B1C093A262A5AD8DFE802F04242AA
:100B2000595942595959595959595959595959594C
:100B3000595959595942595959595959595959593C
:100B40005959595933002C2C7FF4C8AD5178531C96
:100B5000A1F10902262A39D8DFE802F03535383804
:100B60003538383838383838383838383838383808
:100B700038383835383838383838383838383838F8
:100B8000383826005A782A2A00F0B0802F2A1FD140
:100B90009A7802331AB91BE013F8012FC2B10A2A5E
:100BA000FAD15A780133B5E75A782A2A00F0AE8094
:100BB0002F2A0BD19A7802331AB907E013F8012FC4
:100BC00022B10A2AFAD159780133C1E76B603AE6BB
:100BD00030466B6003B0BDE8F08FD2077FF548AEBA
:100BE0000EF8014B13F8014F34E64278002A7FF4E7
:100BF00067AE3DE63068D8B103681B68434540F0F6
:100C0000B18000F5804304331A6802F11001B1F598
:100C1000804F00F2A4800244141D19605A4600233C
:100C200023602372002A00F0A380934600E09B46D5
:100C3000DBF80030002BFAD1CBF80040002C3FF459
:100C40004DADC4F80490F5E69A78991C2AB945E5AB
:100C50000131002B3FF442AD1A462A2A4B78F7D1D6
:100C60002F2BF5D18B1C89780FE68B78881C23B944
:100C700015E70130002B3FF412AF2A2B4378F8D14F
:100C80002F2BF6D1811C8078DDE69378911C23B957
:100C900024E50131002B3FF421AD2A2B4B78F8D10C
:100CA0002F2BF6D18A1C8C78F9E60B46E0E502334F
:100CB000DEE5384620F096F900283FF47CAD2F4E53
:100CC00038463460746020F093F9D9E49A7802339E
:100CD00022B990E60133002A3FF48DAE2A2A5A78D1
:100CE000F8D12F2AF6D19A78023320E69A78023387
:100CF00022B96DE70133002A3FF46AAF2A2A5A78F5
:100D0000F8D12F2AF6D19A78023303E79A78023382
:100D100022B95BE70133002A3FF458AF2A2A5A78F8
:100D2000F8D12F2AF6D19978023311E730680028DC
:100D30007FF462AFC6F804B05C467FE79A7802336E
:100D400032B9FCE42F2A07D00133002A3FF4F7AC74
:100D50002A2A5A78F8D1F5E79A780233CCE45A4631
:100D600000245FE71021984720B90446726859E7CC
:100D7000A346DFE77268044651E700BF009AFF1FF1
:100D80002DE9F84305680446002D00F0A3802B6888
:100D90006E4A1B68934240F0978044F20403EE5879
:100DA00006F10802B2F5804F00F294802E44EA501A
:100DB000301D002305604360064661680A78A2F191
:100DC0000903262B33D8DFE803F023233232233202
:100DD00032323232323232323232323232323232F3
:100DE00032233232323232323232323232323232F2
:100DF00014004B782A2B00F082802F2B0ED18B7899
:100E000002311BB90AE011F8013F3BB10A2BFAD1BC
:100E10004A780131D3E7237B013323734C4D4D4E88
:100E20002B6813F001045DD03046BDE8F8835B2ADF
:100E3000F4D14A784B1C093A262A15D8DFE802F08B
:100E40007E7E14147E141414141414141414141424
:100E5000141414141414147E1414141414141414E8
:100E60001414141414146E00636019781846A1F158
:100E70000902262A7AD8DFE802F024247979247935
:100E800079797979797979797979797979797979D2
:100E90007924797979797979797979797979797917
:100EA000140042782A2A4CD02F2A62D18178821CE1
:100EB00021B95EE012F8011F00295AD00A29F9D1A0
:100EC000104641780130D2E708212846984700288B
:100ED0007FF46FAF1E4F3B6813F0010500F0858271
:100EE0001C4E6AE7284620F07DF800289CD0284652
:100EF0003460746020F07CF83046BDE8F8838B786D
:100F00008A1C1BB98AE70132002B87D02A2B537821
:100F1000F9D12F2BF7D1911C927850E75A782A2AD1
:100F200000F078822F2A9FD19A78023322B99BE76A
:100F300013F8012F002A97D00A2AF9D15A780133E1
:100F400079E78278811C4AB913E000BF9904000058
:100F5000089AFF1F0C9AFF1F013152B12A2A4A78C2
:100F6000FAD12F2AF8D1881C897880E75D2900F012
:100F70004C82227B002A3FF451AF694F47F6ED784F
:100F8000013A22731A78093A262A27D8DFE802F0B4
:100F900023232626232626262626262626262626FA
:100FA00026262626262626232626262626262626E4
:100FB00026262626262614005A782A2A00F0B381EF
:100FC0002F2A0BD19A7802331AB907E013F8012FB0
:100FD00022B10A2AFAD15A780133D4E7636018782B
:100FE0005B2800F095817B2840F06D812046FFF75B
:100FF00029FB03680546002B3FF40DAF4FF00709AE
:10100000237B013323733068002800F05581036887
:101010001B68BB4240F04B8100F5804204321368EC
:1010200003F10C01B1F5804F00F246811844043001
:10103000116072680023036003710AB941E11A4626
:101040001368002BFBD1106000283FF4E7AE80F856
:1010500004908560636893F800E019467046A0F13B
:101060000902262A5ED8DFE802F057575D5D575D1A
:101070005D5D5D5D5D5D5D5D5D5D5D5D5D5D5D5DA0
:101080005D575D5D5D5D5D5D5D5D5D5D5D5D5D5D96
:1010900014004A782A2A00F0E8802F2A0BD1887899
:1010A0008A1C40B10A2802D135E00A2933D012F84F
:1010B000011F0029F9D1AEF10902262A50D8DFE834
:1010C00002F026264F4F264F4F4F4F4F4F4F4F4F57
:1010D0004F4F4F4F4F4F4F4F4F264F4F4F4F4F4F49
:1010E0004F4F4F4F4F4F4F4F14005A782A2A00F05E
:1010F000CC802F2A7FF492AE9A7802332AB98DE6FB
:1011000013F8012F002A3FF489AE0A2AF8D193F888
:1011100001E00133CFE71146487801319FE700BF76
:10112000990400005D28C6D14B784A1C093B262B48
:1011300000F29780DFE803F07D7D95957D9595958C
:101140009595959595959595959595959595957D67
:1011500095959595959595959595959595956E00FB
:10116000BEF12C0F7FF45AAE5A780133093A262A81
:1011700071D801A151F822F0691100006911000035
:1011800057120000571200006911000057120000AA
:1011900057120000571200005712000057120000AB
:1011A000571200005712000057120000571200009B
:1011B000571200005712000057120000571200008B
:1011C000571200005712000057120000571200007B
:1011D000571200006911000057120000571200005A
:1011E000571200005712000057120000571200005B
:1011F000571200005712000057120000571200004B
:10120000571200005712000057120000571200003A
:101210003912000053782A2B00F0C7802F2B20D1E1
:10122000937802321BB91CE012F8013FCBB10A2BB4
:10123000FAD15378013279E75A782A2A00F0C5802A
:101240002F2A08D19A7802332AB10A2A8CD013F8AF
:10125000012F002AF9D1227B6360002A3FF4DEAD22
:101260008EE662603046BDE8F8838A78881C22B931
:1012700021E70130002A3FF41EAF2A2A4278F8D134
:101280002F2AF6D1811C8078E9E69A78991C2AB930
:10129000C4E50131002B3FF4C1AD1A462A2A4B7830
:1012A000F7D12F2BF5D18B1C91F802E003E70C212D
:1012B000984700287FF4BDAE72680020002A7FF4B2
:1012C000BFAE7060C0E62728A5683CD022283AD07F
:1012D00020F02002413AA0F12B01192AC9B212D9FB
:1012E0000E2928FA01F20CD92A46002102F8011B26
:1012F000A5686360A260002D3FF48DAD4FF0010939
:101300007EE6D207F0D505F8010B13F8010FDFE7F1
:101310002046FFF735FD03680546002B3FF47BAD03
:101320004FF006096CE69A78023322B956E601338B
:10133000002A3FF453AE2A2A5A78F8D12F2AF6D140
:101340009A7802331FE65A7803F1010C42B91AE089
:1013500005F8012B9CF8012063460CF1010C92B1B9
:1013600090424FD05C2AF3D19A783249622A03F135
:10137000020C02D115E09A4213D011F8023F002B63
:10138000F9D1002AE4D12B46002203F8012BA568ED
:10139000C4F804C0A360002D3FF43DAD4FF0020936
:1013A0002EE64A78002AD3D1EDE79378023223B9AA
:1013B00057E70132002B3FF454AF2A2B5378F8D172
:1013C0002F2BF6D193780232B0E69A78023322B905
:1013D00041E70133002A3FF43EAF2A2A5A78F8D178
:1013E0002F2AF6D19A780233C0E638461FF0FAFD6C
:1013F00000283FF475AD104E3846356075601FF01B
:10140000F7FDDAE403F1020CBDE70130FFF7DEF887
:10141000606009E59A78023322B925E50133002A94
:101420003FF422AD2A2A5A78F8D12F2AF6D19A7899
:10143000023300E510A502000C9AFF1FF8B5037BEC
:101440000BB91846F8BD5A1E436802731A78093A58
:10145000262A26D8DFE802F0222225252225252566
:10146000252525252525252525252525252525222F
:101470002525252525252525252525252525140052
:101480005A782A2A46D02F2A0BD19A7802331AB9D1
:1014900007E013F8012F22B10A2AFAD15A78013352
:1014A000D5E74360054618785B280E4648D07B2870
:1014B00022D02728AF6851D022284FD047F6ED74AC
:1014C00020F02002413AA0F12B01192AC9B232D9E9
:1014D0000E2924FA01F22CD9002207F8012BAA6860
:1014E0006B60AF60002A66D00123726033701846CB
:1014F0002B7B01332B73F8BD2846FFF7A3F8036855
:10150000002B58D00723706033702B7B01332B7373
:101510000120F8BD9A7802331AB9C2E70133002AD4
:10152000BFD02A2A5A78F9D12F2AF7D19A780233D4
:101530008DE7D207D0D507F8010B13F8010FBFE7ED
:101540002846FFF71DFC0368002B34D0062370608B
:1015500033702B7B01332B730120F8BD5A78591C53
:1015600032B918E007F8012B4A780B46013192B1E5
:10157000904222D05C2AF5D19A78114C622A03F16C
:10158000020102D113E09A4211D014F8023F002B5D
:10159000F9D1002AE6D1002307F8013BAB68696066
:1015A000AF6043B10222736032700120A0E762781D
:1015B000002AD7D1EFE700209AE7991CEBE700BF9C
:1015C00010A502002DE9F04F077889B006460C46B9
:1015D000072F09D8DFE817F03400A000B10062003F
:1015E0003F00370074009A004668A7F108093146A9
:1015F00030465FFA89F924F065F9002840F011823D
:101600000021304624F036F9002840F0D78126F03A
:10161000004528468F4924F055F9002840F0D18034
:1016200028468C4924F030F9002840F0CA80206810
:101630008949036808225B689847636818446060BA
:1016400009B0BDE8F08F086803682D211B68984732
:1016500063681844606008AD0022736805F8032DC4
:101660007E48A0FB0312D20802EB8201A3EB4103E8
:10167000303305F8013D1346002AF2D1266828468A
:1016800025F0BEFB3368024629465B683046984722
:1016900063681844606009B0BDE8F08F0868756839
:1016A0006F4A03686F495B68002D16BF114605221B
:1016B0000422984763681844606009B0BDE8F08F61
:1016C0000868756803685B211B68984763686D68E4
:1016D000184460603DB90EE0206803681B689847B5
:1016E0006368184460602146281DFFF76BFF2D6872
:1016F0002C21002DF0D1206803685D211B689847DC
:1017000063681844606009B0BDE8F08F406800F07D
:10171000BDF909B0BDE8F08F46680D68304625F088
:101720006FFB2B68024631465B6828469847636822
:101730001844606009B0BDE8F08F46680868002E64
:1017400000F04781036822211B68984763681844AA
:10175000013E606016F8011FA9B122291ED0424B3C
:1017600002E05A788A421AD09D780233002DF8D1CF
:10177000206803681B68984763681844606016F81F
:10178000011F0029E9D12068036822211B689847BE
:1017900063681844606009B0BDE8F08F0D462068AA
:1017A00003685C211B68984794E80C00176818448C
:1017B00060603B682946104698476368184460603B
:1017C000C8E72A49304624F073F8002839D00021B0
:1017D000304624F045F80546002840F020814FF0BF
:1017E0007E51304624F046F820B918E1304624F006
:1017F00041F868B130461E4923F09EFE002106469E
:1018000024F02EF8013D2DB24FF07E510028EDD08E
:101810001749304624F04CF858B13046144923F0AB
:101820003FFF013512492DB2064624F041F8002849
:10183000F3D1B9F1030F00F2B080DFE809F0731DB6
:1018400078760C49304624F015F80028BFD10546BB
:10185000EFE700BFFFFF7F7F3CA50200CDCCCCCCE3
:101860001CA5020024A502000CA5020000007A4479
:10187000000020416F12833A7749304623F054FD2F
:101880000DF12008019024F059F8002308F8033DD9
:10189000724A834641460646A2FB0603DB0803EB79
:1018A0008300A6EB4006303601F8016D1E46002B82
:1018B000F2D1D4F800A00091084625F0A1FADAF898
:1018C000003000995B6802465046984763681844A8
:1018D0006060B9F1000F2CD1002DC0F283803FF47D
:1018E000AFAE2068036865211B68984763685B4951
:1018F0001844002260608DF81D20A1FB0523DB0841
:1019000003EB8302A5EB4205303508F8015D1D4667
:10191000002BF2D1404625F073FA256802462B6869
:10192000414601E74FF07C51A7E74D49A5E74D49F6
:10193000A3E7584623F0A8FD0146019823F0F2FCE6
:101940008146206803682E211B6898476368A7F1C9
:10195000090A5FFA8AFA18440AF1010A60604249EA
:10196000484623F0E9FD814623F0E8FFC7B2384638
:1019700023F08AFD0146484623F0D4FC81462068C6
:10198000036807F130011B68C9B2984763680136E4
:10199000184456456060E2D19EE7A7F10C03DBB224
:1019A000032B48D8DFE803F0040208062F4964E758
:1019B0002F4962E72F4960E72F495EE720680368F7
:1019C0002D211B6898476368184406F10046606043
:1019D0001DE6036829495B68042298476368184438
:1019E00060602DE620682649036802225B689847FC
:1019F00063681A49184400226D4260608DF81D200A
:101A0000A1FB0532D20802EB8203A5EB430505F1E9
:101A1000300308F8013D1546002AF1D17AE7002588
:101A2000F6E620681749036803225B6898476368F5
:101A30001844606004E6A7F11000C0B2FEF78CFD08
:101A4000114923F079FD104923F076FD4FF07C51C8
:101A500023F072FD014610E7CDCC4C3DCDCCCCCC73
:101A60006F12033A0AD7A33B00002041ACC5A7364A
:101A700017B7513895BF5633BD3706352CA5020030
:101A800038A5020034A5020017B7D138F8B50446CE
:101A9000086803680D461B687B2198476B68676878
:101AA00018446860002F64D07E682868002E44D0F7
:101AB000036822211B6898476B681844013E6860E0
:101AC00016F8011FA9B1222940D02E4B02E05A7806
:101AD0008A423CD09C780233002CF8D128680368F5
:101AE0001B6898476B681844686016F8011F002946
:101AF000E9D12868036822211B6898476B6818445D
:101B00006860286803683A211B6898476B68184426
:101B10006860294607F10800FFF754FD3F68002F71
:101B200027D0286803682C211B6898476B687E685B
:101B3000184468602868002EBAD1036812495B68AF
:101B4000042298476B6818446860DAE70C462868F6
:101B500003685C211B6898472A6869681368084411
:101B600068601B682146104698476B681844686097
:101B7000A6E7286803687D211B6898476B681844AE
:101B80006860F8BD0CA502002CA5020038B504461B
:101B90001FF074FBC4F80C021FF070FBC4F81802AD
:101BA0001FF06CFB0023C4F82832C4F81C024FF469
:101BB0008A701FF03FFA04F50A71054618F0CEFD51
:101BC000C4F83C5204F511701AF0BCFF04F519700A
:101BD0001AF0B8FF204638BD2DE9F0471E218EB01F
:101BE0000446794821F0BEF878481EF037FE64209C
:101BF0001FF066FB764AF7231288ADF804208DF8B3
:101C0000003005E0734821F0ADF870481EF026FE64
:101C10001AF092FB12210028F4D04FF000095FFA6D
:101C200089F800266C49F7B206A81EF0FFFE394677
:101C300002A81EF02DFF02A906A81EF0C1FF6749E9
:101C40001EF0C6FF414605460AA81EF021FF0AA95C
:101C500028461EF0B5FF01465C481EF0D9FD5B48E2
:101C60001EF0FCFD0AA81EF0A1FE02A81EF09EFEBA
:101C700006A81EF09BFE0022022101A820F072FDA2
:101C8000574825F089F882461AF0E4FD002800F054
:101C9000948051460AA81AF037FD0AAB07CB04F529
:101CA0000A75B3F800E0C4F828025046A5F80CE025
:101CB0006960AA6024F0B8F8D4F8283253B94D21ED
:101CC000484821F04FF841481EF0C8FD02200EB0F0
:101CD000BDE8F0874FF4805024F09EF84A46054650
:101CE0003146204606F07AF9D4F82C22000300F59C
:101CF00080539342C4F830025CD990420DD2C0EBBD
:101D0000020AD4F8283252461844294619F05AFDDE
:101D1000D4F830225244C4F8302200224FF48051CB
:101D2000284620F01FFD284624F07EF800220121DD
:101D3000684620F017FD64201FF0C2FA2A4906A861
:101D40001EF074FE394602A81EF0A2FE02A906A8E3
:101D50001EF036FF21491EF03BFF414605460AA80A
:101D60001EF096FE0AA928461EF02AFF1F491EF003
:101D70002FFF014615481EF04BFD14481EF06EFD66
:101D80000AA81EF013FE02A81EF010FE013606A8D7
:101D90001EF00CFE042E7FF445AF09F10109B9F1E4
:101DA000800F7FF43CAF12490848FEF7C3FB0EB02A
:101DB000BDE8F0874FF4805AA3E7504624F034F88A
:101DC00001200EB0BDE8F08748A50200448FFF1F38
:101DD00008A5020068A502007CA50200C83D03001A
:101DE00090A50200CCA5020098A50200A4A50200BF
:101DF000ACA502000803704708037047002270B5C5
:101E00001146044606F0DCFC02260025D4F82032F8
:101E100003EB45033146B3F8A6200135204606F012
:101E2000CFFC042D06F10206F0D10A260025D4F8D5
:101E3000203203EB45033146B3F8AE20013520468E
:101E400006F0BEFC042D06F10206F0D11226002594
:101E5000D4F8203203EB45033146B3F8B620013500
:101E6000204606F0ADFC042D06F10206F0D11A263C
:101E70000025D4F8203203EB45033146B3F8862021
:101E80000135204606F09CFC082D06F10206F0D133
:101E90002A260025D4F8203203EB45033146B3F857
:101EA00096200135204606F08BFC082D06F102062F
:101EB000F0D12921034820F055FF0348BDE87040C8
:101EC0001EF0CCBC1CA60200448FFF1FF8B50021F9
:101ED000044606F08FFC4FF6FF73984256D0022757
:101EE0000025D4F820623946204606F083FC06EB34
:101EF00045060135042D07F10207A6F8A600F0D12A
:101F00000A270025D4F820623946204606F072FCE4
:101F100006EB45060135042D07F10207A6F8AE00D1
:101F2000F0D112270025D4F820623946204606F069
:101F300061FC06EB45060135042D07F10207A6F802
:101F4000B600F0D11A270025D4F820623946204681
:101F500006F050FC06EB45060135082D07F1020797
:101F6000A6F88600F0D12A270025D4F82062394649
:101F7000204606F03FFC06EB45060135082D07F12B
:101F80000207A6F89600F0D10020F8BD2A211548D6
:101F900020F0E8FE14481EF061FC2A21114820F0D0
:101FA000E1FE11481EF05AFC2A210E4820F0DAFE0C
:101FB0000D481EF053FC2A210A4820F0D3FE0A489F
:101FC0001EF04CFC2A21074820F0CCFE06481EF0EB
:101FD00045FC2A21034820F0C5FE03481EF03EFCC4
:101FE0000120F8BD48A60200448FFF1FF0B5ADF5F3
:101FF000804D87B006ABA3F1080443F8184D234A7F
:102000002348049044F20405002918BF0A461846E4
:102010000A27002699605A601F736651FEF712FB6B
:1020200004461C49FEF752FA646814B90FE02468AC
:102030006CB16168184824F0E7FC0028F7D1237AD6
:10204000052B1ED8DFE803F0030E0E080808012058
:102050000DF5804D07B0F0BDE068B0F1BE3FF6D1A0
:102060000020F5E7E468002CF1D021460B4824F06D
:10207000CBFC0028EBD020460A22002125F0F6F800
:10208000EBE7E06823F05AFCE7E700BF20B402006A
:10209000ECA40200E4D8020074A602001CA5020011
:1020A0002DE9F043044689B04A4824F075FE814684
:1020B00005E0494820F056FE48481EF0CFFB1AF0D4
:1020C0003BF912210028F4D048461AF0C3FB00283F
:1020D00053D004A849461AF017FB04AB07CB04F50C
:1020E0000A751E88C4F82802AE816960AA60D4F817
:1020F0002832002B48D04FF0000800264FF48050C3
:1021000023F08AFE424607463146204605F066FF28
:10211000D4F82C22000300F580539342C4F8300217
:1021200055D990420CD2151AD4F828322A461844B0
:10213000394619F047FBD4F830222A44C4F830223B
:10214000D4F8205239462046FFF750FF05EBC6155C
:102150004544013685F82B01384623F065FE042EF0
:10216000CCD108F10108B8F1800FC6D1484623F060
:102170005BFE002009B0BDE8F083484623F054FE22
:10218000012009B0BDE8F083154904A81EF04EFCFB
:10219000494668461EF04AFC694604A81EF010FD38
:1021A00010491EF015FD01460C481EF031FB0B488E
:1021B0001EF054FB68461EF0F9FB04A81EF0F6FB67
:1021C000484623F031FE022009B0BDE8F0834FF409
:1021D0008055A9E790A5020068A50200448FFF1F63
:1021E0007CA60200BCA60200012901D10020704794
:1021F000704700BF2DE9F04F97B004460D461646D4
:10220000B9499DF88020019206A89B461EF00EFC5D
:10221000314602A81EF03CFC02A906A81EF0D0FC24
:10222000B2491EF0D5FC294607460AA81EF030FC2C
:102230000AA938461EF0C4FCAD491EF0C9FCDDF801
:102240000480074641460EA81EF022FC0EA938461F
:102250001EF0B6FCA5491EF0BBFC5946074612A865
:102260001EF016FC12A938461EF0AAFC0146A14831
:102270001EF0CEFA9F481EF0F1FA12A81EF096FB4F
:102280000EA81EF093FB0AA81EF090FB02A81EF0F9
:102290008DFB06A81EF08AFB974824F07DFD814641
:1022A000964824F079FD82464FF4805023F0B4FD27
:1022B000324629460090204605F090FE42460746E9
:1022C0005946204605F08AFEE5198046261801E0A9
:1022D00005F07EFFAB792046002BF9D1B379002BB6
:1022E000F6D10123E37086490EA81EF09FFB0A2257
:1022F00039460AA81EF0E0FB0AA90EA81EF060FCF1
:1023000080491EF065FC0A220546414612A81EF0CF
:10231000D3FB12A928461EF053FC014675481EF057
:1023200077FA74481EF09AFA12A81EF03FFB0AA82A
:102330001EF03CFB0EA81EF039FB3F0372490EA8AD
:102340001EF074FB0A2239460AA81EF0B5FB0AA942
:102350000EA81EF035FC6D491EF03AFC4FEA083518
:102360000A220646294612A81EF0A6FB12A93046EC
:102370001EF026FC01465F481EF04AFA5D481EF03A
:102380006DFA12A81EF012FB0AA81EF00FFB0EA891
:102390001EF00CFB05E05E4820F0E4FC55481EF002
:1023A0005DFA19F0C9FF13210028F4D048461AF04D
:1023B00051FA002800F08F80494612A81AF0A4F9BB
:1023C00012AB07CB04F50A76B3F800E0C4F8280294
:1023D000A6F80CE07160B260D4F82802002800F082
:1023E000E080D4F82C62C4F8307207F58053B34211
:1023F00040F2E280B7420AD2F61B384432460099D6
:1024000019F0E0F9D4F830323344C4F8303200998E
:1024100012A81EF00BFB12A93648FEF781F812A88D
:102420001EF0C4FA19F088FF1321002876D0504618
:102430001AF010FA002800F08280514612A81AF013
:1024400063F912AB07CB04F50A761F88C4F828029B
:10245000B7817160B260D4F82802002800F099803A
:10246000D4F82C62C4F8305205F58053B34240F2E0
:10247000A080B5420AD2761B28443246009919F052
:10248000CFFBD4F830323344C4F83032009E12A867
:1024900031461EF0CBFA12A91648FEF741F812A8F1
:1024A0001EF084FA41460122204605F093FDD4F83F
:1024B000205231462046FFF799FD019A05EBCB13D8
:1024C00013440F2183F82B01124820F04BFC0948DC
:1024D0001EF0C4F93AE01E210F4820F043FC0548E5
:1024E0001EF0BCF920E000BF10A702002CA70200DC
:1024F00034A70200448FFF1F90A5020044A70200EA
:1025000050A7020060A7020070A7020084A7020083
:1025100094A70200DCA70200A8A70200284820F028
:1025200021FC28481EF09AF919F006FF1321002813
:10253000F4D050461AF08EF900287FF47EAF1A21AD
:10254000214820F00FFC1F481EF088F9651D04F19A
:10255000450615F8011F1B4800230A221EF08EF9BC
:10256000B542F6D10521194820F0FCFB15481EF0B4
:1025700075F9504623F058FC484623F055FC009866
:1025800023F052FC00220123E270237017B0BDE853
:10259000F08F19210E4820F0E5FB0A481EF05EF985
:1025A000D4E71D210B4820F0DDFB06481EF056F94C
:1025B000BAE74FF480565FE74FF480561DE700BF3F
:1025C000C8A70200448FFF1FECA7020008A8020062
:1025D00030A8020010A8020070B504460120D4F80B
:1025E000203283F8390383F838030E4615461EF06F
:1025F00045FE002384F8076284F8085284F81032FC
:10260000C4F80C0270BD00BFF0B589B004460D4699
:1026100004A81B491E4617461EF008FA29466846BC
:102620001EF036FA694604A81EF0CAFA014615489B
:102630001EF0EEF813481EF011F968461EF0B6F9C8
:1026400004A81EF0B3F9D4F820321EB183F820514B
:1026500009B0F0BD012283F8392383F838231EF036
:102660000DFED4F82032C4F80C0284F8075284F826
:10267000106284F80872A3F83C6309B0F0BD00BF93
:102680004CA80200448FFF1F026838B5044602B30D
:10269000136813491B688B4216D144F20401535846
:1026A00003F10C05B5F5804F13D813445550181D90
:1026B00062680023036003710AB90EE01A461368CA
:1026C000002BFBD1106038BD10460C219847002824
:1026D000EED162680020002AF1D1606038BD00BFF1
:1026E00099040000026838B5044602B31368134920
:1026F0001B688B4216D144F20401535803F11005B4
:10270000B5F5804F13D813445550181D6268002347
:10271000036003720AB90EE01A461368002BFBD15E
:10272000106038BD1046102198470028EED162682D
:102730000020002AF1D1606038BD00BF990400007C
:10274000F0B5ADF5804D8BB008AD954B089344F2D4
:10275000040200230446102709A86D60ED60AB60F9
:102760002B610E46AF50FFF7BDFF48B18D4B436064
:10277000EB68002B0CBF002206220BAB0272C36079
:102780000BA8FFF781FF18B10422122302718360A6
:102790000BA8D4F82072FFF777FF20B197F84130EB
:1027A0008360042303710BA8D4F82072FFF76CFF39
:1027B00020B197F842308360042303710BA8D4F84A
:1027C0002072FFF761FF20B197F843308360042344
:1027D00003710BA8D4F82072FFF756FF20B197F8C9
:1027E00044308360042303710BA8D4F82072FFF7F0
:1027F0004BFF20B197F845308360042303710BA889
:10280000D4F82072FFF740FF20B197F8463083607C
:10281000042303710BA8D4F82072FFF735FF20B111
:1028200097F865308360042303710BA8D4F82072F5
:10283000FFF72AFF18B1BB6E8360042303710BA856
:10284000D4F82072FFF720FF20B197F8233183607E
:10285000042303710BA8D4F82072FFF715FF20B1F1
:1028600097F824318360042303710BA8D4F82072F5
:10287000FFF70AFF20B197F8253183600423037125
:102880000BA8D4F82042FFF7FFFE20B194F82631C0
:1028900083600423037103AB002240F6FF71D9600B
:1028A000327018461A71404C9E607B2101931A6168
:1028B00002920394FDF7DEFD029BAE68184402907D
:1028C000002E64D075680198002D44D00368222141
:1028D0001B689847029B1844013D029015F8011FA0
:1028E000A9B1222940D0314B02E05A788A423CD02B
:1028F0009C780233002CF8D1019803681B68984734
:10290000029B1844029015F8011F0029E9D1019893
:10291000036822211B689847029B18440290019883
:1029200003683A211B689847029B01A9034406F1FA
:1029300008000293FEF746FE3668002E27D0019865
:1029400003682C211B689847029B75681844029005
:102950000198002DBAD1036815495B680422984795
:10296000029B18440290DAE70C46019803685C2148
:102970001B689847019A029B1768184402903B68AD
:10298000214610469847029B18440290A6E70198FA
:1029900003687D211B6898470DF5804D0BB0F0BD95
:1029A000ECA402005CA80200D4A402000CA5020062
:1029B0002CA50200F0B5044689B0394824F0ECF9A2
:1029C000012107464FF4805023F09CF9064601464A
:1029D0002046FFF7B5FE19F0AFFC0028FBD004A895
:1029E000394619F091FE04AB07CB04F50A751B8834
:1029F000C4F82802AB816960AA60D4F82832FBB120
:102A000000272846C4F830721AF032F8D4F82C5255
:102A1000C4F83072B5F5805F3FD2002D37D02A461A
:102A2000D4F82802314619F0FBF8D4F83032304699
:102A30001D44C4F8305209B0BDE8F04023F0F4B9A9
:102A40000E21184820F08EF917481DF007FF17498E
:102A500004A81DF0EBFF394668461DF0E7FF694604
:102A600004A81EF0ADF801460F481DF0D1FE0E4837
:102A70001DF0F4FE68461DF099FF04A81DF096FFB6
:102A80000E21084820F06EF907481DF0E7FE304699
:102A900009B0BDE8F04023F0C7B94FF48055BEE758
:102AA00068A8020074A80200448FFF1F84A80200D7
:102AB000F0B5212189B004463B4820F053F93B484A
:102AC0001DF0CCFE3A4824F067F9064619F0C2FE24
:102AD00000284CD01A21374820F044F933481DF023
:102AE000BDFE19F029FC0028FBD004A8314619F0DE
:102AF0000BFE04AB07CB04F50A751F88C4F8280247
:102B0000AF816960AA60D4F8283263B935212A48B8
:102B100020F028F925481DF0A1FE304609B0BDE897
:102B2000F04023F081B9254904A81DF07FFF0A2257
:102B3000D4F82C1268461DF0E7FF694604A81EF081
:102B40003FF8014619481DF063FE18481DF086FE47
:102B500068461DF02BFF04A81DF028FF0A201EF078
:102B6000AFFB304609B0BDE8F04023F05DB933213A
:102B7000134820F0F7F80D481DF070FE19F08AFD9B
:102B80004FF480310246304619F072FED4F820022C
:102B90001DF068FA2046FFF70DFF304609B0BDE88A
:102BA000F04023F041B900BFA0A80200448FFF1FEE
:102BB00068A80200F8A8020030A9020014A90200C7
:102BC000C4A802002DE9F04FADF5804D8DB0A54BA6
:102BD000019144F204020AA907460A93082400233B
:102BE0000BA80B918C500C93FFF77CFD28B19E4BEA
:102BF0004360042212230272C3600B9D002D00F07B
:102C000002852B68994A1B68934240F0E28444F2A3
:102C10000402AB5803F10801B1F5804F00F2DF84E4
:102C2000EC18A950201D00230560436004460C9D4C
:102C30002DB900F0DEBC2D68002D00F0DA84696843
:102C40008B4823F0E1FE0028F5D12668002E15BF41
:102C500006220022234600232A72EB60002E00F099
:102C600050843368814D1B68AB4240F0668444F267
:102C70000402B35803F10801B1F5804F00F26384F8
:102C800006EB0308B15008F104000023066043601E
:102C900006462068002800F0628403681B68AB4287
:102CA00040F0658444F20402835803F10C05B5F545
:102CB000804F00F2548403448550191D626800233C
:102CC0000B600B7112B900F04FBC1A461368002B51
:102CD000FBD11160326839B1002A15BF06200020EF
:102CE0003346002308718B60B046002A00F013843D
:102CF00013685E491B688B4240F0168444F204005E
:102D0000135803F10C04B4F5804F00F2048413440B
:102D10001450191DD8F8042000230B600B710AB958
:102D2000FFE31A461368002BFBD1116019B104228E
:102D300000230A718B604D4EDFF838A100254C4608
:102D4000D8F80020002A00F0918213681B68B34273
:102D500040F0618302F5804104310B6803F1080003
:102D6000B0F5804F00F2608302EB030909F104091A
:102D70000860002389E80C00D8F80000002800F063
:102D8000618303681B68B34240F0658300F58043AC
:102D900004331A6802F10C01B1F5804F00F252833E
:102DA000104404301960D8F8042000230360037134
:102DB0000AB94DE31A461368002BFBD11060D9F80D
:102DC000003030B1002B1ABF4C460622002284602E
:102DD0000271D7F820B2002B00F059821A681268ED
:102DE000B24240F0A08203F580420432106800F144
:102DF0000C01B1F5804F00F2638318440430116078
:102E0000002202600271D9F8041009B945E21146A6
:102E10000A68002AFBD1086028B1AB4403229BF862
:102E2000721381600271D7F820B2002B00F0638327
:102E30001A681268B24240F0668203F5804204329A
:102E4000106800F10C01B1F5804F00F22B8318449B
:102E500004301160002202600271D9F8041061B9D7
:102E60005EE200BFECA4020068A902009904000021
:102E700070A902000C9AFF1F11460A68002AFBD1B4
:102E8000086028B1AB4403229BF882138160027171
:102E9000D7F820B2002B00F02C831A681268B242D7
:102EA00040F0218203F580420432106800F10C01E9
:102EB000B1F5804F00F2F88218440430116000220E
:102EC00002600271D9F8041009B919E211460A68C2
:102ED000002AFBD1086028B1AB4403229BF892136F
:102EE00081600271D7F820B2002B00F008831A68C5
:102EF0001268B24240F0E78103F580420432106864
:102F000000F10C01B1F5804F00F2D082184404307A
:102F10001160002202600271D9F8041009B9DFE1E2
:102F200011460A68002AFBD1086028B1AB4403228D
:102F30009BF8A21381600271D7F820B2002B00F039
:102F4000D4821A681268B24240F0268203F58042A9
:102F50000432106800F10C01B1F5804F00F29E823E
:102F6000184404301160002202600271D9F8041084
:102F700009B91EE211460A68002AFBD1086028B18F
:102F8000AB4404229BF8F21381600271D7F820B29F
:102F9000002B00F0A6821A681268B24240F0EC8161
:102FA00003F580420432106800F10C01B1F5804F46
:102FB00000F27E8218440430116000220260027127
:102FC000D9F8041009B9E4E111460A68002AFBD1D6
:102FD000086048B1AB449BF90224002AAEBF04212B
:102FE0005242052101718260D7F820B2002B00F017
:102FF00076821A681268B24240F0AE8103F58042D0
:103000000432106800F10C01B1F5804F00F25282D9
:10301000184404301160002202600271D9F80410D3
:1030200009B9A6E111460A68002AFBD1086028B157
:10303000AB4404229BF83F1381600271D7F820B2A1
:10304000002B00F050821A681268B24240F074817E
:1030500003F580420432106800F10C01B1F5804F95
:1030600000F22A82184404301160002202600271CA
:10307000D9F8041009B96CE111460A68002AFBD19D
:10308000086028B1AB4403229BF8B213816002713F
:10309000D7F820B2002B00F030821A681268B242D2
:1030A00040F09A8103F580420432106800F10C016F
:1030B000B1F5804F00F2F481184404301160002211
:1030C00002600271D9F8041009B992E111460A6848
:1030D000002AFBD1086028B1AB4403229BF8C2133D
:1030E00081600271D7F820B2002B00F000821A68CC
:1030F0001268B24240F0608103F5804204321068E9
:1031000000F10C01B1F5804F00F2D8811844043071
:103110001160002202600271D9F8041009B958E167
:1031200011460A68002AFBD1086028B1AB4403228B
:103130009BF8D21381600271D7F820B2002B00F007
:1031400061811A681268B24240F0568103F58042EC
:103150000432106800F10C01B1F5804F00F2528189
:10316000184404301160D9F804100023036003717F
:1031700009B94DE119460B68002BFBD1086028B155
:10318000AB4403239BF8E223826003710135102DC9
:103190007FF4D6AD05AB019C9C60002240F6FF7128
:1031A000D960227018461A71AE4C03937B211A61C4
:1031B00004920594FDF75EF9049B0C9E184404905C
:1031C000002E00F0DC8175680398002D45D003685F
:1031D00022211B689847049B1844013D049015F870
:1031E000011FA9B122295BD09F4B02E05A788A4285
:1031F00057D09C780233002CF8D1039803681B68E1
:103200009847049B1844049015F8011F0029E9D140
:103210000398036822211B689847049B1844049074
:10322000039803683A211B689847049B03A9034449
:1032300006F108000493FEF7C5F93668002E00F089
:103240009E81039803682C211B689847049B75682E
:10325000184404900398002DB9D1036883495B6832
:1032600004229847049B18440490D9E7DFF800B281
:10327000DBF8003013F0010900F0FE80DAF80030CE
:10328000DFF8F091D7F820B2002B7FF4A7ADD9F882
:103290000410184600297FF4BBADC9F80400BBE553
:1032A0000C46039803685C211B689847039A049BAB
:1032B0001768184404903B68214610469847049BC1
:1032C000184404908BE718460C219047D9F8003039
:1032D00000287FF41EAED9F8041000297FF421AE37
:1032E000C9F8040021E618460C219047D9F80030AF
:1032F00000287FF4E4ADD9F8041000297FF4E7AD8D
:10330000C9F80400E7E518460C219047D9F80030C9
:1033100000287FF49FADD9F8041000297FF4ADADEB
:10332000C9F80400ADE518460C219047D9F80030E3
:1033300000287FF465AD66E518460C219047D9F862
:10334000003000287FF491AED9F8041000297FF4F2
:1033500094AEC9F8040094E618460C219047D9F8B9
:10336000003000287FF457AED9F8041000297FF40C
:103370005AAEC9F804005AE618460C219047D9F80D
:10338000003000287FF419AED9F8041000297FF42A
:103390001CAEC9F804001CE618460C219047D9F869
:1033A000003000287FF4DFADD9F8041000297FF445
:1033B000E2ADC9F80400E2E518460C219047D9F8BF
:1033C000003000287FF4A5AED9F8041000297FF45E
:1033D000A8AEC9F80400A8E618460C219047D9F811
:1033E000003000287FF46BAED9F8041000297FF478
:1033F0006EAEC9F804006EE618460C21904700280E
:103400007FF4B1AED9F80410002000297FF4B3AEE8
:10341000C9F80400B3E61046009208219847009AC4
:10342000814600287FF4A5ACDFF844B0DBF800301B
:1034300013F0010946D0D8F80000DFF838900028D2
:103440007FF49FAC0020D8F80420002A7FF4B3ACAE
:10345000C8F80400B3E40C21984700287FF4A3AC1B
:103460000020F0E7D4A402000CA502002CA5020065
:10347000089AFF1F0C9AFF1F58461DF0B3FD002845
:103480003FF4FCAECAF80090CAF8049058461DF00C
:10349000AFFDDFF8D491DAF800309AE4002065E55A
:1034A00000200FE60020D8E400200BE5002033E5E3
:1034B000002085E50020B1E50020D9E500202BE6BD
:1034C0000020A0E458461DF08DFD0028B3D05846DA
:1034D000CAF80090CAF804901DF08AFDABE71846C0
:1034E0009CE518466CE51846C2E518463EE51846C8
:1034F00012E61846E6E41846AFE41846E2E5184638
:103500000AE5584C2368DB0743D5574B1A689846A1
:10351000002A7FF4EDAB0021D8F80420002A7FF4C4
:1035200001ACC8F8041001E40C211046984701468C
:1035300000287FF4EFAB0021EEE7082130469847E2
:1035400000287FF4A2ABDFF81CA1DAF8003013F0FA
:1035500001062DD02068444E00287FF49EAB002148
:103560006268002A7FF4B2AB6160FFF7B3BB0C2145
:103570009847014600287FF4A1AB0021F0E70398AB
:1035800003687D211B6898470DF5804D0DB0BDE89F
:10359000F08F20461DF026FD0028B6D0324D204683
:1035A0002E606E601DF024FDA8462A68FFF79DBBC3
:1035B00050461DF017FD0028CCD0DFF8AC805046F7
:1035C000C8F80060C8F804601DF012FD4646FFF719
:1035D00060BB08212846984700287FF424AB214E81
:1035E000336813F001052DD00C9D1F4C002D7FF486
:1035F00026AB0BA8FFF776F8054600282FD01B4B0B
:103600006B60FFF722BB174E336813F0010407D03D
:10361000154C2668002E7FF424ABA04600217BE7E2
:1036200030461DF0DFFC18B90F4C2668FFF716BBBB
:103630000D4D30462C606C601DF0DAFC2C462E6877
:10364000FFF70CBB30461DF0CDFC0028CCD0064C5B
:103650003046256065601DF0CBFCFFF7E8BA2668B0
:10366000FFF7FCBA089AFF1F0C9AFF1F70A902000F
:10367000F0B5044689B0394823F08EFB0121074696
:103680004FF4805022F03EFB064601462046FFF7ED
:1036900099FA18F051FE0028FBD004A8394619F019
:1036A00033F804AB07CB04F50A751B88C4F828026D
:1036B000AB816960AA60D4F82832FBB100272846A4
:1036C000C4F8307219F0D4F9D4F82C52C4F830721E
:1036D000B5F5805F3FD2002D37D02A46D4F82802B6
:1036E000314618F09DFAD4F8303230461D44C4F803
:1036F000305209B0BDE8F04022F096BB0E211848C8
:103700001FF030FB17481DF0A9F8174904A81DF059
:103710008DF9394668461DF089F9694604A81DF0FF
:103720004FFA01460F481DF073F80E481DF096F849
:1037300068461DF03BF904A81DF038F90E21084831
:103740001FF010FB07481DF089F8304609B0BDE8AE
:10375000F04022F069BB4FF48055BEE778A9020023
:1037600074A80200448FFF1F84A80200F0B51B213B
:1037700089B0044639481FF0F5FA39481DF06EF853
:10378000384823F009FB064619F064F8002849D0B0
:10379000142135481FF0E6FA31481DF05FF818F0A3
:1037A000CBFD0028FBD004A8314618F0ADFF04ABD8
:1037B00007CB04F50A751F88C4F82802AF81696039
:1037C000AA60D4F8283263B92F2128481FF0CAFA1A
:1037D00023481DF043F8304609B0BDE8F04022F020
:1037E00023BB234904A81DF021F90A22D4F82C1286
:1037F00068461DF089F9694604A81DF0E1F9014603
:1038000017481DF005F816481DF028F868461DF009
:10381000CDF804A81DF0CAF8304609B0BDE8F04064
:1038200022F002BB332113481FF09CFA0C481DF014
:1038300015F818F02FFF4FF480310246304619F08A
:1038400017F8D4F820021CF0B5FB2046FFF710FF54
:10385000304609B0BDE8F04022F0E6BA84A9020083
:10386000448FFF1F78A90200D4A9020004AA020015
:10387000ECA90200A0A902002DE9F04FADF5804DA2
:1038800093B00DF140089B460DF58043002544F2AE
:10389000040604467033634810904FF0080EC8F8D1
:1038A000085011A8C8F804800091924648F806E034
:1038B0001D78FEF717FF28B15B4B436004221423E9
:1038C0000272C360002D30D00BAD07AED8F80840AF
:1038D00024BB11A8FEF706FF044630B1534B6360CA
:1038E00004224FF0BE332272E3600098A8600023E8
:1038F000037040F6FF722B7131464D4C079511A8AD
:103900002B6173600B94EA60FEF7C0F80DF5804DF3
:1039100013B0BDE8F08F2468002CDAD0616843480A
:1039200023F072F80028F6D1DAE74FF43265D4F8C4
:10393000240205FB0AF5284416F09AFBF0B1D8F8EA
:1039400008601EB945E03668002E42D071683748DD
:1039500023F05AF80028F6D10422364B3272F36075
:10396000D8F80430002B3DD1DFF8E490D9F80030CE
:1039700013F0010600F013872F4E83E007AE3046A8
:103980002E491DF053F8594603A81DF081F803A9EC
:1039900030461DF015F92A491DF01AF90BAD044601
:1039A000514628461DF074F8294620461DF008F9B6
:1039B00024491DF00DF901462348FCF7B1FD2846C6
:1039C0001CF0F4FF03A81CF0F1FF30461CF0EEFFE2
:1039D0007CE711A8FEF786FE06460028C0D0134BF0
:1039E0007360B9E71A68194912688A4240F0E6869E
:1039F00044F204015A5802F10800B0F5804F00F279
:103A0000E6869E1858500436002233607260D8F85B
:103A10000890B9F1000F00F0A38623464C46994662
:103A20001CE000BFECA4020068A9020074A602001A
:103A3000D4A402004ADA4ADA0C9AFF1F34AA020020
:103A400040AA02004CAA0200448FFF1F9904000004
:103A5000089AFF1F2468002C00F081866168B14835
:103A600022F0D2FF0028F5D14B46A1461C46336810
:103A7000002B13BF3246002200230623C9F80C2076
:103A800089F80830D4F82432304603EB0509FEF7F4
:103A9000FBFD20B199F8073A836004230371D4F841
:103AA0002432304603EB0509FEF7EEFD20B199F80C
:103AB0001D3A836004230371D4F82432304603EBAB
:103AC0000509FEF7E1FD20B199F80D3A8360042362
:103AD0000371D4F82432304603EB0509FEF7D4FD18
:103AE00020B1D9F8103A8360042303713046FEF701
:103AF000CBFD18B10423C0F808A003713046FEF7CF
:103B0000C3FD18B10423C0F808B00371D4F82432FF
:103B1000304603EB0509FEF7B7FD40B199F9F33ADA
:103B2000002BAEBF04225B42052202718360D4F8F1
:103B30002432304603EB0509FEF7A6FD40B199F9A2
:103B40001E3A002BAEBF04225B4205220271836045
:103B5000D4F82432304603EB0509FEF795FD40B159
:103B600099F91F3A002BAEBF04225B420522027175
:103B70008360D4F82432304603EB0509FEF784FD58
:103B800040B199F9203A002BAEBF04225B420522D6
:103B900002718360D4F82432304603EB0509FEF746
:103BA00073FD40B199F9213A002BAEBF04225B426C
:103BB000052202718360D4F82432304603EB0509F4
:103BC000FEF762FD20B199F8223A83600423037165
:103BD000D4F82432304603EB0509FEF755FD20B139
:103BE00099F8233A836004230371D4F824323046D1
:103BF00003EB0509FEF748FD20B199F8243A8360EC
:103C000004230371D4F82432304603EB0509FEF790
:103C10003BFD20B199F8253A836004230371D4F861
:103C20002432304603EB0509FEF72EFD20B199F84A
:103C3000263A836004230371D4F82432304603EB20
:103C40000509FEF721FD20B199F8273A8360042386
:103C50000371D4F82432304603EB0509FEF714FD56
:103C600020B199F8283A836004230371D4F82432F0
:103C7000304603EB0509FEF707FD20B199F8063A37
:103C8000836004230371D4F82432304603EB050922
:103C9000FEF7FAFC20B199F8083A83600423037117
:103CA000D4F82432304603EB0509FEF7EDFC20B1D1
:103CB00099F8093A836004230371D4F8243230461A
:103CC00003EB0509FEF7E0FC20B199F80A3A83609E
:103CD00004230371D4F82432304603EB0509FEF7C0
:103CE000D3FC20B199F80B3A836004230371D4F814
:103CF0002432304603EB0509FEF7C6FC20B199F8E3
:103D00000C3A836004230371D4F82432304603EB69
:103D10000509FEF7B9FC38B199F8193A8360042314
:103D2000037101E05CA80200D4F8243230465E1929
:103D3000FEF7AAFC40B196F9293A002BAEBF042247
:103D40005B42052202718360D8F80460002E40F0C7
:103D50005C83DFF8B882D8F8003013F0010600F079
:103D60000B85A94ADFF8A892136892460026A04660
:103D7000002B00F038831A6812684A4540F05184DD
:103D800003F580420432146804F10801B1F5804F54
:103D900000F24F841C44201D116000220360426029
:103DA00004465046FEF770FC236830B1002B1ABF62
:103DB00027460622002287600271002B00F01E8336
:103DC0001A6812684A4540F0168403F580420432AE
:103DD000106800F10C01B1F5804F00F26F841844B7
:103DE00004301160002202600271616809B90AE3BF
:103DF00011460A68002AFBD1086010B104228660CF
:103E00000271D8F8242202EB050B002B00F09784F6
:103E10001A6812684A4540F0D48303F580420432A0
:103E2000106800F10C01B1F5804F00F25384184482
:103E300004301160002202600271616809B9CBE3AD
:103E400011460A68002AFBD1086030B106EB8602F1
:103E500004213BF8322082600171D8F8242202EB61
:103E6000050B002B00F064841A6812684A4540F084
:103E70009B8303F580420432106800F10C01B1F518
:103E8000804F00F21E84184404301160002202604A
:103E90000271616809B992E311460A68002AFBD1F0
:103EA000086040B106EB86020BEBC20B0422BBF8A4
:103EB000021081600271D8F8242202EB050B002B5E
:103EC00000F033841A6812684A4540F0608303F5B5
:103ED00080420432106800F10C01B1F5804F00F20D
:103EE000F38318440430116000220260027161689B
:103EF00009B957E311460A68002AFBD1086040B1AE
:103F000006EB86020BEBC20B0422BBF804108160A7
:103F10000271D8F8242202EB050B002B00F0038479
:103F20001A6812684A4540F0258303F5804204323E
:103F3000106800F10C01B1F5804F00F2BB8318440A
:103F400004301160002202600271616809B91CE34B
:103F500011460A68002AFBD1086040B106EB8602D0
:103F60000BEBC20B0422BBF8061081600271D8F87B
:103F7000242202EB050B002B00F0D3831A68126891
:103F80004A4540F0EA8203F580420432106800F1AD
:103F90000C01B1F5804F00F29B831844043011608E
:103FA000002202600271616809B9E1E211460A6803
:103FB000002AFBD1086040B106EB86020BEBC20B76
:103FC00004229BF8081081600271D8F8242202EBC9
:103FD000050B002B00F0B6831A6812684A4540F0C2
:103FE000FD8203F580420432106800F10C01B1F546
:103FF000804F00F27C83184404301160002202607C
:104000000271616839B9F4E20C9AFF1F089AFF1F28
:104010009904000011460A68002AFBD1086060B1CB
:1040200006EB86020BEBC20B9BF91020002AAEBFF9
:1040300004215242052101718260D8F8242202EB4A
:10404000050B002B00F067831A6812684A4540F0A0
:10405000778203F580420432106800F10C01B1F55B
:10406000804F00F225831844043011600022026062
:104070000271616809B96EE211460A68002AFBD133
:10408000086040B106EB86020BEBC20B04229BF8E2
:10409000091081600271D8F8242202EB050B002B75
:1040A00000F037831A6812684A4540F03C8203F5F5
:1040B00080420432106800F10C01B1F5804F00F22B
:1040C000FB821844043011600022026002716168B2
:1040D00009B933E211460A68002AFBD1086040B1F1
:1040E00006EB86020BEBC20B04229BF80A108160E0
:1040F0000271D8F8242202EB050B002B00F00F838D
:104100001A6812684A4540F0018203F58042043281
:10411000106800F10C01B1F5804F00F2C78218441D
:1041200004301160002202600271616809B9F8E18F
:1041300011460A68002AFBD1086040B106EB8602EE
:104140000BEBC20B04229BF80B1081600271D8F8B4
:10415000242202EB050B002B00F0DF821A681268A4
:104160004A4540F0C68103F580420432106800F1F0
:104170000C01B1F5804F00F2B48218440430116094
:10418000002202600271616809B9BDE111460A6846
:10419000002AFBD1086040B106EB86020BEBC20B94
:1041A00004229BF80C1081600271D8F8242202EBE3
:1041B000050B002B00F0AB821A6812684A4540F0EC
:1041C0008B8103F580420432106800F10C01B1F5D7
:1041D000804F00F28A82184404301160002202608D
:1041E0000271616809B982E111460A68002AFBD1AF
:1041F000086040B106EB86020BEBC20B04229BF871
:104200000D1081600271D8F8242202EB050B002BFF
:1042100000F07B821A6812684A4540F0508103F52D
:1042200080420432106800F10C01B1F5804F00F2B9
:1042300054821844043011600022026002716168E7
:1042400009B947E111460A68002AFBD1086040B16C
:1042500006EB86020BEBC20B04229BF80E1081606A
:104260000271D8F8242202EB050B002B00F06C82BF
:104270001A6812684A4540F0C78103F5804204324B
:10428000106800F10C01B1F5804F00F2288218444B
:1042900004301160002202600271616809B9BEE158
:1042A00011460A68002AFBD1086060B106EB86025D
:1042B0000BEBC20B9BF91120002AAEBF0421524226
:1042C000052101718260D8F8242202EB050B002B36
:1042D00000F033821A6812684A4540F0E38003F523
:1042E00080420432106800F10C01B1F5804F00F2F9
:1042F000FA81184404301160002202600271616882
:1043000009B9DAE011460A68002AFBD1086040B119
:1043100006EB86020BEBC20B04229BF812108160A5
:104320000271D8F8242202EB050B002B00F0038267
:104330001A6812684A4540F0A88003F580420432AA
:10434000106800F10C01B1F5804F00F2BF811844F4
:1043500004301160002202600271616809B99FE0B7
:1043600011460A68002AFBD1086040B106EB8602BC
:104370000BEBC20B04229BF8141081600271D8F879
:10438000242202EB050B002B79D01A6812684A45EB
:1043900070D103F580420432106800F10C01B1F5D0
:1043A000804F6CD8184404301160616800230360AA
:1043B000037109B967E019460B68002BFBD108604F
:1043C00040B106EB86030BEBC30B04239BF80F20D5
:1043D000826003710136402E00F03581DAF800303A
:1043E000002B7FF4C8ACA34C2268D20740F14C816B
:1043F000A14BA14C1B68002B7FF4E2AC616818460E
:1044000000297FF4F6AC6060F7E433689B4A1B68D0
:10441000934240F0E48144F20402B35803F10801EE
:10442000B1F5804F00F2E18106EB030AB1500AF1C9
:1044300004000023066043608246D8F8086026B96D
:1044400084E13668002E00F0818171688C4822F08A
:10445000DBFA0028F5D1DAF80030002B15BF062171
:104460000021524600223172F260DFF810920026DD
:10447000A0467DE418460C219047002895D161683C
:104480000020002998D160609AE718460C219047D7
:10449000236800287FF45EAF616800297FF461AF74
:1044A000606062E718460C219047236800287FF47B
:1044B00023AF616800297FF426AF606027E71846C4
:1044C0000C219047236800287FF4B6AE616800296C
:1044D0007FF4B9AE6060BAE618460C2190472368B5
:1044E00000287FF47BAE616800297FF47EAE6060B7
:1044F0007FE618460C219047236800287FF440AEE1
:10450000616800297FF443AE606044E618460C21E0
:104510009047236800287FF405AE616800297FF486
:1045200008AE606009E618460C2190472368002811
:104530007FF4CAAD616800297FF4CDAD6060CEE53F
:1045400018460C219047236800287FF48FAD6168DE
:1045500000297FF492AD606093E518460C219047E6
:10456000236800287FF41CAD616800297FF41FAD2B
:10457000606020E518460C219047236800287FF4EE
:10458000E1AC616800297FF4E4AC6060E5E41846C2
:104590000C219047236800287FF4A6AC61680029AD
:1045A0007FF4A9AC6060AAE418460C219047236808
:1045B00000287FF46BAC616800297FF46EAC60600A
:1045C0006FE418460C219047236800287FF432AC32
:1045D000616800297FF435AC606036E418460C2130
:1045E0009047236800287FF409AD616800297FF4B3
:1045F00012AD606013E518460C219047236800282F
:104600007FF4F0ABFFF7F1BB18460C21904723680D
:1046100000287FF43FAE616800297FF442AE6060FD
:1046200043E61846019308219047019B00287FF438
:10463000B4ABDFF840B0DBF8003013F0010458D021
:104640000D4CFFF7AEBB0BAB00980D900022027033
:104650001A7140F6FF7507A90A4C079311A8DD608F
:104660001A6108920B94FDF711FA0DF5804D13B005
:10467000BDE8F08F089AFF1F0C9AFF1F99040000F5
:10468000E4D80200D4A40200204601931CF0AAFC46
:10469000019B00283FF4ACAE6B4A204614461360E1
:1046A00053601CF0A5FC2368FFF787BB00203CE5A6
:1046B0000020DEE4002048E4002008E50020FFF7A9
:1046C00094BB0020FFF7E5BB002010E4002044E687
:1046D000002068E40020FFF7B0BB0020AFE5002019
:1046E000DBE500204FE5002009E6002079E5002009
:1046F00087E458461CF076FC0028A1D0524B58465F
:104700001C605C601CF074FC9AE7184697E518463C
:1047100067E51846DBE41846ABE4184633E518466F
:1047200003E518463FE418460FE41846FFF7DFBBE1
:104730001846FFF7AEBB18460FE61846DFE51846E9
:10474000FFF77BBB18465CE41846A6E511A8FDF709
:10475000C9FF0646002852D03C4B73607BE64C46AE
:1047600011A8FDF7BFFF814600283FF48BA9384B05
:10477000C9F80430FFF77BB940461CF033FC002831
:104780003FF4EFAADFF8C0904046C9F80060C9F8CE
:1047900004601CF02DFCCA46D9F8003065E6484696
:1047A0001CF020FC00283FF4E7A8274B48461E6079
:1047B0005E601E461CF01CFCFFF764B918460193AE
:1047C00008219047019B064600287FF41DA9214E31
:1047D000336813F0010924D01B4EFFF718B90821E4
:1047E0003046984700287FF424AEDFF86890D9F867
:1047F000003013F0010605D0DFF84CA01DE6DAF812
:10480000003032E648461CF0EDFB0028F4D0DFF81B
:1048100038A04846CAF80060CAF804601CF0E8FBFB
:104820000BE630461CF0DEFB0028D5D0064B01938A
:104830003046C3F80090C3F804901CF0D9FB019BEC
:104840001E46FFF7E4B800BF0C9AFF1FE4D8020031
:104850005CA80200089AFF1F2DE9F04F9BB00746A5
:10486000039104920593002B00F02481D0F82032AC
:1048700003EBC1131344002283F82B21049A0399FC
:10488000384603F0ABFB07EB0008824698F8063089
:10489000002B00F02481D7F8203293F80B31032B42
:1048A00012AD0EAE16AC07D1CBE0D7F8203293F89C
:1048B0000B31032B00F0C580384603F089FC894991
:1048C00083460AA81CF0B2F80A22514606A81CF03A
:1048D000F3F806A90AA81CF073F983491CF078F9CB
:1048E000824B98F806108146194428461CF09EF821
:1048F0000A22594630461CF0DFF8314628461CF0A3
:104900005FF9014620461CF0A5F8214648461CF0F8
:1049100057F9014676481BF07BFF75481BF09EFF58
:1049200020461CF043F830461CF040F828461CF0A6
:104930003DF806A81CF03AF80AA81CF037F898F8D9
:104940000630002BB1D10126FE706A4822F024FA0D
:10495000314605464FF4805021F0D4F9059B009371
:1049600006460146049B039A3846FEF785FF17F07A
:10497000E3FC0028FBD02946204617F0C5FE23465D
:1049800007CB07F50A7EB3F800C0C7F82802AEF8D7
:104990000CC0CEF80410CEF80820D7F8280298BB37
:1049A0000E2155481EF0DEF951481BF057FF5349C0
:1049B00020461CF03BF8294612A81CF037F812A933
:1049C00020461CF0FDF8014649481BF021FF4848ED
:1049D0001BF044FF12A81BF0E9FF20461BF0E6FF86
:1049E0000E2145481EF0BEF941481BF037FF304606
:1049F00021F01AFA284621F017FA00220123FA7052
:104A00003B701BB0BDE8F08F4FEA0A32D7F82C326A
:104A1000C7F8302202F5805199425DD99A420AD2F4
:104A20009C1A10443146224617F0FAF8D7F8303273
:104A30002344C7F8303251460122384603F0CAFAFF
:104A4000D5E73C212E481EF08DF929481BF006FFC2
:104A50002C4928461BF0EAFF0A22514630461CF03A
:104A60002BF8314628461CF0ABF827491CF0B0F86B
:104A700098F80610814620461CF00AF82146484660
:104A80001CF09EF801461A481BF0C2FE18481BF0A5
:104A9000E5FE20461BF08AFF30461BF087FF2846C4
:104AA0001BF084FFD7F82032062283F80B211BB0BD
:104AB000BDE8F08FD0F82432039DD0F820424FF4A7
:104AC000326000FB053015F0D3FA049B04EBC514EB
:104AD0001C4484F82B01D1E64FF48054A1E716ACB6
:104AE00031E700BFF0AA020024AB020030AB0200A5
:104AF000448FFF1F44A7020074A8020084A802008C
:104B000074AA0200B4AA0200E4A602002DE9F04152
:104B100004468CB0524822F03FF98046204603F00C
:104B2000B3FD204603F076FA4E4904A81BF07EFF41
:104B3000414668461BF07AFF694604A81CF040F81D
:104B400049491CF045F80A2205464FF4001108A80F
:104B50001BF0B2FF08A928461CF032F80146434872
:104B60001BF056FE41481BF079FE08A81BF01EFF03
:104B700068461BF01BFF04A81BF018FF17F08AFD06
:104B80004FF400110246404617F072FE00263849E5
:104B900008A81BF04BFF0A22314604A81BF08CFF2B
:104BA00004A908A81CF00CF832491CF011F80146C1
:104BB0002E481BF02DFE2D481BF050FE04A81BF0C4
:104BC000F5FE08A81BF0F2FEF7B200250123E9B2BA
:104BD0003A461D442046FFF73FFE042DF6D12378C8
:104BE0002BB1204603F0F4FA2378002BF9D12249A7
:104BF00008A81BF01BFF0A22314604A81BF05CFF2B
:104C000004A908A81BF0DCFF1A491BF0E1FF0146CC
:104C100016481BF0FDFD15481BF020FE04A81BF0F4
:104C2000C5FE013608A81BF0C1FE802EAFD1237847
:104C30002BB1204603F0CCFA2378002BF9D1642065
:104C40001CF03EFB404621F0EFF822210B481EF0FD
:104C500089F806481BF002FE0CB0BDE8F08100BFE9
:104C600090A5020048AB020060AB0200448FFF1F1A
:104C700068AB02009CAB0200BCAB0200E8AB0200D8
:104C8000F0B5162189B0054633481EF06BF833485D
:104C90001BF0E4FD324822F07FF8064617F0DAFDFB
:104CA000002848D017F048FB0028FBD004A8314664
:104CB00017F02AFD04AB07CB05F50A741F88C5F869
:104CC0002802A7816160A260D5F828327BB9332120
:104CD00024481EF047F821481BF0C0FD0A201CF0B4
:104CE000EFFA304609B0BDE8F04021F09DB81E490A
:104CF00004A81BF09BFE0A22D5F82C1268461BF074
:104D000003FF694604A81BF05BFF014613481BF034
:104D10007FFD12481BF0A2FD68461BF047FE04A869
:104D20001BF044FE0A201CF0CBFA304609B0BDE867
:104D3000F04021F079B81F210C481EF013F8074805
:104D40001BF08CFD2846FFF7E1FE304609B0BDE8B8
:104D5000F04021F069B800BF0CAC0200448FFF1F87
:104D600090A5020060AC020044AC020024AC02003A
:104D700070B5054616460024D5F8203293F81E314A
:104D80002341DB0703D40134042CF5D170BD00238B
:104D9000325DE1B22846FFF75FFDF4E7406810B5E9
:104DA00078B119B1006858B10139FBD10379052BED
:104DB00013D8DFE803F0030909070707002010BD37
:104DC00010BD10BD007A10BD846894B121460A4818
:104DD00021F01AFE30B9012010BD806820F0AEFD30
:104DE000C0B210BD20460A22002122F03FFAC0B214
:104DF00010BD204610BD00BF1CA502002DE9F041EA
:104E0000ADF5814D20AEA6F1080246F8182DBD4C37
:104E1000BD4B1E9444F20404002918BF0B46B16038
:104E2000054600210A273046115173603773FBF79E
:104E300009FC0468002C00F08681B4490746FBF7A2
:104E400045FB43688BB11A79052A00F27881DFE8C7
:104E500002F00C03038282189C6834B12146AC48EE
:104E600021F0D2FD002840F0BC81D5F820021BF0D3
:104E7000F9F82846FDF79EFD01200DF5814DBDE8AE
:104E8000F081986840421228EFD1A049D5F820421D
:104E90003846FBF71BFB0121FFF780FF9B4984F895
:104EA00041003846D5F82042FBF710FB0221FFF7FE
:104EB00075FF964984F842003846D5F82042FBF742
:104EC00005FB0321FFF76AFF904984F84300384649
:104ED000D5F82042FBF7FAFA0421FFF75FFF8B4970
:104EE00084F844003846D5F82042FBF7EFFA052154
:104EF000FFF754FF854984F845003846D5F820422D
:104F0000FBF7E4FA0621FFF749FF804984F84600E1
:104F10003846D5F82042FBF7D9FA0721FFF73EFFC4
:104F20007A4984F865003846D5F82082FBF7CEFA36
:104F3000406898B10823006880B1013BFBD1037938
:104F4000052B00F24A81DFE813F00800EF00EF00C4
:104F5000DA00DA00DA00986895E70020C8F86800FF
:104F60006A493846FBF7B2FA4368002B00F04781E4
:104F70004FF000081B6808F10108002BFAD17C688B
:104F800014B90BE024684CB16168604821F03CFD25
:104F90000028F7D1237A072B00F01D815D4B1B6899
:104FA000DB0740F1DC805C4B5B68002B00F0258167
:104FB00000221B680132002BFBD14244092A00F277
:104FC000DD80D5F82032012283F82321D5F8203264
:104FD000022283F82421D5F82032032283F82521E8
:104FE000D5F82032042283F82621D5F8200290F843
:104FF0006530072B0CBF002101211BF05BF806A8D0
:1050000046491BF013FDD5F8203202A893F8411051
:105010001BF03EFD02A906A81BF0D2FD40491BF083
:10502000D7FDD5F82032044693F842100AA81BF0A9
:105030002FFD0AA920461BF0C3FD39491BF0C8FD0E
:10504000D5F82032044693F843100EA81BF020FD3B
:105050000EA920461BF0B4FD31491BF0B9FDD5F86F
:105060002032044693F8441012A81BF011FD12A937
:1050700020461BF0A5FD2A491BF0AAFDD5F82032D9
:1050800016AA93F845100192044610461BF000FD45
:10509000019920461BF094FD21491BF099FDD5F89C
:1050A0002032044693F8461030461BF0F1FC31469E
:1050B00020461BF085FD1A491BF08AFD0146194860
:1050C0001BF0A6FB17481BF0C9FB30461BF06EFC1B
:1050D00001981BF06BFC12A81BF068FC0EA81BF0DB
:1050E00065FC0AA81BF062FC02A81BF05FFC06A886
:1050F0001BF05CFC01200DF5814DBDE8F08180685E
:105100002CE700BFECA4020020B402005CA802005F
:105110001CA50200FC99FF1F009AFF1FC4AC0200EF
:1051200028B40200448FFF1F8468002C69D02146F8
:10513000354821F069FC002859D101200EE7986814
:1051400020F0D6FB9FE605201CF0BAF82F49304826
:10515000FBF7F0F920460DF5814DBDE8F0812D48B3
:105160001BF040FF00283FF41EAF2B4C29480023C2
:10517000236063601BF03CFF234615E72749D5F801
:1051800020423846FBF7A2F90921FFF707FE234921
:1051900084F823013846D5F82042FBF797F90A2115
:1051A000FFF7FCFD1D4984F824013846D5F820425C
:1051B000FBF78CF90B21FFF7F1FD184984F8250165
:1051C0003846D5F82042FBF781F90C21FFF7E6FDC0
:1051D00084F8260109E7E368E6E6806820F0AEFB84
:1051E000BCE620460A22002121F076FF4BE620464D
:1051F0000A22002122F03AF8B0E61A46DDE6984687
:10520000BDE62046AAE600BF1CA5020094AC020041
:10521000448FFF1FFC99FF1F009AFF1F5CA802002C
:105220002DE9F043054689B05F4821F0B5FD0446FD
:1052300005E05E481DF096FD5D481BF00FFB17F082
:105240007BF812210028F4D0204617F003FB002839
:105250003ED004A8214617F057FA04AB07CB05F55A
:105260000A761B88C5F82802B3817160B260D5F850
:105270002882B8F1000F32D04FF4805020F0CCFDDE
:10528000D5F82C720023B7F5805F8146C5F830321F
:1052900048D24FB13A464046494616F093FAD5F8FF
:1052A00030321F44C5F8307249462846FFF7A6FD44
:1052B0000746002839D00A201CF002F8484620F0A2
:1052C000B3FD204620F0B0FD002009B0BDE8F0831A
:1052D000204620F0A9FD012009B0BDE8F083354942
:1052E00004A81BF0A3FB214668461BF09FFB694600
:1052F00004A81BF065FC30491BF06AFC01462C48F1
:105300001BF086FA2A481BF0A9FA68461BF04EFBF0
:1053100004A81BF04BFB204620F086FD022009B0BC
:10532000BDE8F0834FF48057B4E7484620F07CFD99
:10533000214604A817F0E8F904AB07CB1B88C5F891
:1053400028027160B381B2601C491948FBF7F2F87A
:10535000D5F82C62C5F83072B6F5805F21D256B10F
:1053600032464946D5F8280216F02CFAD5F83032E4
:105370001E44C5F8306249462846FFF73FFD002825
:1053800099D149460A48FBF7D5F80D490848FBF77B
:10539000D1F8D5F820021AF065FE2846FDF70AFB81
:1053A00089E74FF48056DBE768A8020068A5020091
:1053B000448FFF1F7CA60200BCA60200E4AC0200E2
:1053C00030AD0200406810B578B119B1006858B12D
:1053D0000139FBD10379052B18D8DFE803F0030B63
:1053E0000B141407002010BD10BD10BD8068404292
:1053F00040B210BD8468ACB121460B4821F004FBDB
:1054000048B9012010BD90F9080010BD806820F057
:105410006FFA40B210BD20460A22002121F05CFE46
:1054200040B210BD204610BD1CA502002DE9F04F72
:10543000ADF5814D89B028AEA6F1080546F8185D96
:10544000484C494F0D9044F2040E002A18BF1446F0
:10545000B26098460A2200233046269774600F46B1
:10546000327345F80E30FBF7EDF80C90B8F1000FF1
:1054700041F083810C9B5D6845B32C4601E02468B4
:1054800014B36168394821F0BFFA0028F7D1237AB4
:10549000052B01F2F482DFE813F00F00130A130A60
:1054A000DF09DF09580AE068B0F1BE3F01F0FB8276
:1054B0002F4B984241F01B8269682C4821F0A4FAD6
:1054C000002801F01C812D68002DF5D10D9BDDF821
:1054D0003080D3F8243227494FF4326202FB07F2BE
:1054E000404615469C180B92FAF7F0FF0021FFF793
:1054F00055FC0D9B84F8070AD3F824321D49404619
:105500005C19FAF7E3FF0121FFF748FC0D9B84F8D3
:105510001D0AD3F82432174940465C19FAF7D6FF22
:105520000221FFF73BFC0D9B84F80D0A1149D3F8CB
:1055300024424046FAF7CAFF40682C4440B3006852
:1055400030B3006820B3006810B30379052B01F273
:105550009A82DFE813F0EC08110011007E097E0941
:105560007E0900BF20B40200ECA4020068A902007A
:105570004ADA4ADA5CA802008568002D01F0DA8276
:105580002946BC4821F040FA002841F0A8820120B9
:105590000D9DDDF83080D5F824320B9AC4F8100A3E
:1055A000B54940469C18FAF791FF0421FFF7F6FB36
:1055B00084F81C0AD5F824320B9AAF4940469C184F
:1055C000FAF784FF0521FFF7E9FB84F81B0AD5F8F9
:1055D00024320B9AA84940469C18FAF777FF062117
:1055E000FFF7F0FE84F8F30AD5F824320B9AA249AB
:1055F00040469C18FAF76AFF0721FFF7E3FE84F89C
:105600001E0AD5F824320B9A9B4940469C18FAF79B
:105610005DFF0821FFF7D6FE84F81F0AD5F8243273
:105620000B9A954940469C18FAF750FF0921FFF75D
:10563000C9FE84F8200AD5F824320B9A8E494046D8
:105640009C18FAF743FF0A21FFF7BCFE84F8210AF1
:10565000D5F824320B9A884940469C18FAF736FF51
:105660000B21FFF79BFB84F8220AD5F824320B9A12
:10567000814940469C18FAF729FF0C21FFF78EFB61
:1056800084F8230AD5F824320B9A7B4940469C18AB
:10569000FAF71CFF0D21FFF781FB84F8240AD5F8E7
:1056A00024320B9A744940469C18FAF70FFF0E21DA
:1056B000FFF774FB84F8250AD5F824320B9A6E495B
:1056C00040469C18FAF702FF0F21FFF767FB84F8AA
:1056D000260AD5F824320B9A674940469C18FAF7F7
:1056E000F5FE1021FFF75AFB84F8270AD5F824327B
:1056F0000B9A614940469C18FAF7E8FE1121FFF722
:105700004DFB84F8280AD5F824320B9A5A494046B2
:105710009C18FAF7DBFE1221FFF740FB84F8060A1B
:10572000D5F824320B9A544940469C18FAF7CEFE1D
:105730001321FFF733FB84F8080AD5F824320B9ABB
:105740004D4940469C18FAF7C1FE1421FFF726FB8D
:1057500084F8090AD5F824320B9A474940469C1828
:10576000FAF7B4FE1521FFF719FB84F80A0AD5F8F9
:1057700024320B9A404940469C18FAF7A7FE16219E
:10578000FFF70CFB84F80B0AD5F824320B9A3A4940
:1057900040469C18FAF79AFE1721FFF7FFFA84F8A3
:1057A0000C0AD5F824320B9A334940469C18FAF774
:1057B0008DFE1821FFF7F2FA84F8190AD8F8044090
:1057C00014B913E024688CB161682C4821F01CF9ED
:1057D0000028F7D1237A052B01F25A81DFE813F074
:1057E0000600CD08CD08DE08DE08B8080D9B0B9A30
:1057F000D3F824321344002283F8292A20490C9834
:10580000FAF764FE0D9B0B9AD3F8243213448346B7
:10581000D3F8102A002A00F08D8793F8073A002B5E
:1058200000F09187DFF860904FF00008DBF804206B
:1058300013465AB1B8F1000F04D041461B682BB192
:105840000139FBD11979062900F0B185D9F800306A
:10585000DB0740F1C6840B4D6868C0B10068B0B189
:105860000379052B00F26486DFE803F010626260C2
:10587000606000BF1CA502005CA8020068A90200CD
:10588000E4D802000C9AFF1F089AFF1F0020DBF8E3
:105890000420089013465AB1B8F1000F04D04146D5
:1058A0001B682BB10139FBD11979062900F09185CC
:1058B000D9F80030DF0740F1D884804D686868B1BE
:1058C000006858B1006848B10379052B00F2DD8506
:1058D000DFE803F0033D3D3B3B3B0020DBF80420C9
:1058E0000A9013465AB1B8F1000F04D041461B6824
:1058F0002BB10139FBD11979062900F06185D9F85E
:105900000030DE0740F1EE846C4D686868B30068D3
:1059100058B3006848B3006838B30379052B00F228
:105920000186DFE803F0214B4B4949490089AEE786
:105930008468002C00F0CF862146614821F064F88D
:10594000002840F060860120A1E70089C6E784684E
:10595000002C00F0A4862146594821F055F8002873
:1059600040F059860120B9E70020DBF804200990B7
:1059700013465AB1B8F1000F04D041461B682BB151
:105980000139FBD11979062900F04585D9F8003095
:10599000DD0740F1C784494D6868E8B10423006819
:1059A000D0B1013BFBD10379052B00F27A85DFE80A
:1059B00003F01278786767670089D6E78468002C5F
:1059C00000F0948621463E4821F01EF8002840F061
:1059D00009860120C9E70020DBF804200790134660
:1059E0005AB1B8F1000F04D041461B682BB1013900
:1059F000FBD11979062900F00585D9F80030DC07BC
:105A000040F10E842D4D686870B10523006858B1CF
:105A1000013BFBD10379052B00F24985DFE803F058
:105A20000334343232320020DBF804200590134670
:105A30005AB1B8F1000F04D041461B682BB10139AF
:105A4000FBD11979062900F0CD84D9F80030D807A8
:105A500040F1D783194D6868002834D006230068C8
:105A6000002830D0013BFAD10379052B00F26A857A
:105A7000DFE813F0280076017601730173016F01EE
:105A80000089A9E7007ACFE78468002C00F0268619
:105A900021460B4820F0B8FF002840F08B850120FC
:105AA000C2E78468002C00F000862146044820F0FC
:105AB000ABFF002840F0678501208DE70C9AFF1F9F
:105AC0001CA502000020DBF80420049013465AB104
:105AD000B8F1000F04D041461B682BB10139FBD14E
