:1000000000800020BD01000061BE00002DBE000088
:100010002DBE00002DBE00002DBE00002DBE000034
:100020002DBE00002DBE00002DBE000061BE0000F0
:1000300061BE00002DBE000061BE00001DBE0000BC
:1000400061BE000061BE000061BE000061BE000034
:1000500061BE000061BE000061BE000061BE000024
:1000600061BE000061BE000061BE000061BE000014
:1000700061BE000061BE000061BE000061BE000004
:1000800061BE000061BE000061BE000061BE0000F4
:1000900061BE000061BE000061BE000061BE0000E4
:1000A00061BE000061BE000061BE000061BE0000D4
:1000B00061BE000061BE000061BE000061BE0000C4
:1000C00061BE000061BE000061BE000061BE0000B4
:1000D00061BE000061BE000061BE000061BE0000A4
:1000E00061BE000061BE000061BE000061BE000094
:1000F00061BE0000E1C7000061BE0000A9E200008F
:1001000061BE0000E1CC000061BE000061BE0000E5
:1001100061BE000061BE000061BE000061BE000063
:1001200061BE000061BE000061BE000061BE000053
:1001300061BE000061BE000061BE000061BE000043
:1001400061BE000061BE000061BE000061BE000033
:100150004DB4000065B400007DB4000095B400000B
:1001600061BE000045CF000061BE000061BE00001E
:1001700061BE000061BE000061BE000061BE000003
:1001800061BE000061BE000061BE000061BE0000F3
:1001900061BE000061BE000061BE000061BE0000E3
:1001A00061BE000061BE000061BE000061BE0000D3
:1001B00061BE000061BE000015B10000564B4CF25C
:1001C000205210B51A804DF628121A8000BF00BFC9
:1001D0000BF04AFE514B4FF010621A60504A9A6081
:1001E000504ADA60A3F53043203B1A6812F480725B
:1001F00004D14D490A604FF4A8521A604B4B1A784B
:10020000110703D51A7842F008021A70484B2A22C7
:100210001A700023474A48499818884204D247492F
:10022000595899500433F5E7454A464B9A424FF0E6
:10023000000302D242F8043BF7E74349434A5958C6
:1002400099500433B3F5DE7FF7D1414B802103F899
:10025000011B40498B42F9D13F4B1A603F4B8A2228
:100260001A70A3F5805324225A70A0221A709A792A
:100270009207FCD59A79D406FCD4394B9A7902F0CE
:100280000C02082AF9D103221A7146225A719A796E
:100290009006FCD5324B9A795106FBD5314A4FF086
:1002A000827111600921516020221A702C4B9B79B8
:1002B00003F00C030C2BF9D12B4B2C4A1A602C4B5E
:1002C0002C4A1A6000225A60072243F8042C2A4A5A
:1002D000C3F80C2D62B60BF053FF134B1B68DA0703
:1002E00005D526480BF066FE254B264A1A60264B9C
:1002F0001B785B0609D5224C224A2368934204D11D
:100300001E480BF057FE0023236014F0D7FA0BF0C1
:10031000B1FD0BF0BFFCFEE70E200540308004402D
:10032000823F04000100002B14D0034002D007409C
:1003300000E00740708DFF1F5091FF1F7CCE010031
:100340005091FF1FACDEFF1F000000000082FF1F66
:1003500000E400E05FE400E008ED00E0005006404B
:10036000004006404480044004800440C010050062
:1003700014E000E0BFD401000000202038AA125988
:100380001CE00340A5C3945A00F00740FFFFFFFFA5
:10039000FFFFFFFFFFFFFFFFFFFFFFFFFFFFFFFF6D
:1003A000FFFFFFFFFFFFFFFFFFFFFFFFFFFFFFFF5D
:1003B000FFFFFFFFFFFFFFFFFFFFFFFFFFFFFFFF4D
:1003C000FFFFFFFFFFFFFFFFFFFFFFFFFFFFFFFF3D
:1003D000FFFFFFFFFFFFFFFFFFFFFFFFFFFFFFFF2D
:1003E000FFFFFFFFFFFFFFFFFFFFFFFFFFFFFFFF1D
:1003F000FFFFFFFFFFFFFFFFFFFFFFFFFFFFFFFF0D
:10040000FFFFFFFFFFFFFFFFFFFFFFFFDEF9FFFF23
:1004100010B5054C237833B9044B13B10448AFF33E
:1004200000800123237010BD5091FF1F00000000C9
:100430007CCE010008B5064B1BB106480649AFF358
:1004400000800648036813B1054B03B1984708BD07
:10045000000000007CCE01005491FF1F5091FF1F4F
:10046000000000000369C268934210B509D2826897
:100470005C1C0461D154826803690021D1540120BD
:1004800010BD002010BD44F2040210B58358CC18F2
:10049000B4F5804F07D8033121F00301194481508E
:1004A0001844043010BD002010BD18B111B101393D
:1004B0000068FAE7704738B504460D4634B128465F
:1004C000616814F031FB08B12468F7E7204638BDB5
:1004D00038B5044608460D4614F053FB236802461F
:1004E0005B6820462946984738BD38B504460AF06F
:1004F000EEFF054620460BF00BF8284438BD38B512
:100500000446FFF7E5FF054620460BF001F82844B6
:1005100038BD38B58368144642680546E0189042F5
:1005200002D993420AD2D41A2868224618440FF0FE
:10053000FBF9AB682344AB60204638BD002038BDD2
:1005400010B504460068FFF7C3FF63681844606095
:1005500010BD30B587B000228DF815200B4605AAD6
:100560000A25B3FBF5F405FB14333033114602F8CA
:1005700001392346002CF3D1FFF7E2FF07B030BD6D
:1005800010B50446006803681B6898476368184400
:10059000606010BD70B504460D4619B91249FFF7E9
:1005A000CFFF70BD2221FFF7EBFF013D15F8012FB2
:1005B0007AB10E4B13F8026C86B1023313F8031CA8
:1005C0009142F7D120465C21FFF7DAFF2046314601
:1005D00006E020462221FFF7D3FF70BD20461146DA
:1005E000FFF7CEFFE2E700BF2054010027540100CF
:1005F00008B503280AD8DFE800F0021105074FF01C
:100600007E5008BD064808BD064808BD0438C0B283
:10061000FFF7EEFF04490EF0ABFC08BD034808BD30
:100620000AD7233C6F12833A17B7D138CDCCCC3DD3
:100630002DE9F041054608460C46174613F092F89E
:1006400010B92846494911E0204600210EF02EFE3F
:1006500028B128462D21FFF793FF04F100442046DE
:1006600013F080F8012805D141492846FFF768FFBB
:10067000BDE8F08120463F490EF036FE20B9204605
:100680003D490EF013FE00B30026204600210EF077
:1006900003FE68B920464FF07E510EF007FE38B1D8
:1006A000204636490EF064FC013EB6B20446ECE743
:1006B000204632490EF018FE40B120462F490EF078
:1006C0000BFD0136B6B20446F2E706463846FFF7A0
:1006D0008FFF4FF07C510EF04BFC014620460EF090
:1006E0003FFB04460EF030FE80460EF0E9FB01466B
:1006F00020460EF033FB414604462846FFF729FF0B
:100700001FB128462E21FFF73BFFCFB11B492046E2
:100710000EF02EFC04460EF017FE5FFA80F84046FD
:100720000EF0CEFB014620460EF018FB08F130011A
:100730000446C9B22846013FFFF722FFFFB2E4E7B3
:1007400034B2002C06DA28460D49FFF7F9FE284698
:10075000614206E03EB128466521FFF711FF2846B9
:100760002146FFF7F6FEBDE8F08100BF34540100DA
:100770003854010000007A446F12833A000020418F
:1007800041540100024608B5084619B10B681146EC
:100790001B68984708BDFFFF38B5084C236813F065
:1007A000010509D120460BF07EFB28B1044B204601
:1007B0001D605D600BF07DFB014838BD8091FF1F1F
:1007C0006C91FF1F08B54068FFF775FE20B1037AF2
:1007D000062B01D1C06808BDFFF7DEFF08BDFFFF93
:1007E00038B5084C236813F0010509D120460BF0F9
:1007F0005AFB28B1044B20461D605D600BF059FB8D
:10080000014838BD7C91FF1F7491FF1F03780D2BA9
:1008100009D003D8093B012B23D804E0202B02D0B8
:100820002F2B02D070470130F0E743782A2B02D0FB
:100830002F2B0DD07047831C1A7818460133002ADD
:10084000E4D02A2AF8D11A782F2AF5D10230DDE730
:10085000831C184613F8012B002AD7D00A2AF8D196
:10086000D4E7704738B5044600680D46FFF7CEFF61
:100870000378AB4205D10130FFF7C8FF20600120AB
:1008800038BD002038BDFFFF70B54268846813781A
:10089000272B01D0222B27D15178551C51B39942D7
:1008A00001D1951C26E05C290BD1951C9178154A45
:1008B00016782EB18E4201D1517801E00232F7E76D
:1008C000C1B104F8011B2A46E6E723F020014139B3
:1008D000192905D92B2B03D0A3F12D01012909D802
:1008E00004F8013B12F8013FA3F130010929154634
:1008F000F6D9EAE7002304F8013B83684560846089
:10090000184670BD29540100027838B505460C46DA
:10091000072A3CD8DFE802F041241F302B27041BB4
:10092000456808465B21FFF72BFE6D682DB1281D39
:100930002146FFF7E9FF2D6825B920465D21FFF725
:100940001FFE38BD20462C21FFF71AFEEFE7406856
:1009500000F028F838BD08466968FFF71BFE38BD6F
:100960000846696810E008462D21FFF709FE204679
:100970006968FFF7EEFD38BD4168084B084A20461C
:1009800000290CBF11461946FFF7DAFD38BD083AB9
:100990000846D2B26968FFF74BFE38BD44540100E7
:1009A0004954010070B505460C4608467B21FFF707
:1009B000E7FD6D687DB12E46204656F8041FFFF70F
:1009C000E9FD20463A21FFF7DBFD301D2146FFF708
:1009D0009BFF2D6825B920467D21FFF7D1FD70BD15
:1009E00020462C21FFF7CCFDE5E710B50446214653
:1009F0000820FFF7C7FE18B100230460436010BD54
:100A0000FFF7CAFE10BD10B5044621460820FFF7C7
:100A1000B9FE18B100230460436010BDFFF7E0FE8B
:100A200010BDFFFF037810B5052B1BD8DFE803F0DE
:100A30001E0808030305406810BD4068404210BD11
:100A400044685CB10A48214614F06EF840B1204673
:100A500000210A22BDE8104014F030B9204610BD34
:100A6000012010BD40680EF049FC10BD002010BDF3
:100A700044540100037810B5052B14D8DFE803F0C7
:100A8000170505030303406810BD44688CB10B488B
:100A9000214614F049F870B1204600210A22BDE831
:100AA000104014F091B940680EF04EFC10BD0020CB
:100AB00010BD204610BD012010BD00BF44540100F0
:100AC00070B504460BF028FBE0640BF025FB2546CF
:100AD0000023206545F8583F4FF48A700BF00AFA5E
:100AE000294606460AF004FAE66604F174000FF09F
:100AF0001BFD04F194000FF017FD204670BDFFFFB1
:100B0000F8B504460D46114811491F461646FFF731
:100B1000F6FC069BA5646665A766236716200FF0A2
:100B200021FA18B909480B49FFF7E9FC0023637063
:100B3000A370E370E21801330021402B9171F9D1C9
:100B400005490248FFF7DBFCF8BD00BFDCD9FF1FF9
:100B50004F5401007D540100A3540100002138B519
:100B60000A46054601F0CCFA02241E4B23442146D6
:100B7000284633F8022C023401F0C2FA0A2CF4D1D0
:100B8000194B23442146284633F80A2C023401F03D
:100B9000B7FA122CF4D1154B23442146284633F8DA
:100BA000122C023401F0ACFA1A2CF4D1104B23446D
:100BB0002146284633F81A2C023401F0A1FA2A2CD7
:100BC000F4D10C4B23442146284633F82A2C023416
:100BD00001F096FA3A2CF4D107490848FFF78FFC48
:100BE00038BD00BF6A8EFF1F948EFF1F748EFF1FDB
:100BF000848EFF1F5A8EFF1FDE540100DCD9FF1FB9
:100C000038B50021054601F08DFA4FF6FF73984282
:100C100018BF022418D128492848FFF770FC26493C
:100C20002648FFF76CFC24492448FFF768FC22495A
:100C30002248FFF764FC20492048FFF760FC1E496A
:100C40001E48FFF75CFC38BD2146284601F06AFAD1
:100C50001B4B234402340A2C23F8020CF4D1214606
:100C6000284601F05FFA174B23440234122C23F874
:100C70000A0CF4D12146284601F054FA124B2344C1
:100C800002341A2C23F8120CF4D12146284601F024
:100C900049FA0E4B234402342A2C23F81A0CF4D1BF
:100CA0002146284601F03EFA094B234402343A2CEF
:100CB00023F82A0CF4D138BD08550100DCD9FF1FF8
:100CC0006A8EFF1F948EFF1F748EFF1F848EFF1F7E
:100CD0005A8EFF1F0803704710B588B00023013AF1
:100CE000059106920B7003AA064C8DF8103001A9ED
:100CF0000394079301920293FFF754FE029808B001
:100D000010BD00BF0854010010B504460C20216836
:100D1000FFF738FD10B100230360037163682BB146
:100D20001A680AB11346FBE7186010BD606010BD79
:100D300010B50C46FFF7E8FF20B12378836004224A
:100D40000271012010BD10B50C46FFF7DDFF48B160
:100D500094F90030002BAEBF04225B4205220271E1
:100D60008360012010BD10B5044610202168FFF7F4
:100D700009FD10B100230360037263682BB11A6888
:100D80000AB11346FBE7186010BD606010BD2DE985
:100D9000F3410446074654F8040BFFF734FE7B2169
:100DA00006462046FFF75EFD002833D020467D2111
:100DB000FFF758FD88BB3846FFF766FD804648B30D
:100DC00020463A21FFF74EFD20B302AD00233846FE
:100DD000694605F8083D00F024F8D8B1706841462E
:100DE000FFF769FB28B93046FFF7BDFF90B1C0F8A7
:100DF000048000F1080395E8030083E8030020461F
:100E00007D21FFF72FFD40B920462C21FFF72AFD59
:100E10000028D0D1FFF7E4FC00E0304602B0BDE886
:100E2000F08170B50446007B0D46002834D00138AF
:100E300020736068FFF7EAFC606003785B2B02D0E8
:100E40007B2B07D012E0204600F027F803685BB147
:100E5000062305E02046FFF79AFF036823B1072326
:100E600068602B70012014E0184612E0272B03D095
:100E7000223B5E425E4100E001262046FFF704FD72
:100E800038B1012216B102232B7000E02A7068608D
:100E90001046237B0133237370BDF7B50446074624
:100EA00054F8040BFFF7A1FD5B2106462046FFF72F
:100EB000D9FC08B320465D21FFF7D4FCF8B902AD98
:100EC00000233846694605F8083DFFF7AAFF98B1A8
:100ED0003046FFF719FF78B1031D95E8030083E85A
:100EE000030020465D21FFF7BDFC40B920462C21C0
:100EF000FFF7B8FC0028E2D1FFF74EFC00E03046D7
:100F000003B0F0BD70B5054640680E461446FFF7C5
:100F1000D2FA20B92846FFF726FF50B14660236871
:100F2000002B08BF00240CBF002306230372C460FB
:100F3000012070BD70B5054600680E4610B9FFF778
:100F40002BFC70BDFFF751FD044631462846224672
:100F5000FFF7D8FF204670BD2DE9F04FADF5804D6D
:100F600085B0A74B0191029302A944F20403054600
:100F7000144608460022CA50FFF745FDA1498246A3
:100F8000FFF7D8FF40F60813696D5C43214401F672
:100F900002010646FFF7CCFE696D214401F60A0105
:100FA0003046FFF7C5FE696D214401F60601304663
:100FB000FFF7BEFE696D214401F607013046FFF7D9
:100FC000B7FE696D214401F609013046FFF7B0FE16
:100FD000696D214401F608013046FFF7A9FE696DED
:100FE000214401F6DB013046FFF7ADFE696D214477
:100FF00001F60B013046FFF79BFE696D214401F6B7
:101000000C013046FFF794FE696D214401F60D0195
:101010003046FFF78DFE696D214401F60E01304622
:10102000FFF786FE696D214401F60F013046FFF798
:101030007FFE696D214401F501613046FFF778FEBE
:10104000696D214401F611013046FFF771FE696DAB
:10105000214401F612013046FFF76AFE696D214412
:1010600001F613013046FFF763FE696D214401F676
:1010700014013046FFF75CFE696D2144304601F6ED
:101080001501FFF755FEDAF8000018B9FFF784FBE9
:10109000834607E0FFF7A9FC83465B4950465A4662
:1010A000FFF730FF4FF00009DBF8000018B9FFF739
:1010B00073FB064612E0FFF798FC06465846FFF71A
:1010C00023FE58B13368002B009B18BF33460093B2
:1010D0000CBF002306230371009B83603046FFF79B
:1010E00013FE18B104230371C0F80890696D4FEA2C
:1010F0004917214439443046FFF71AFE696D7B1CBD
:10110000214419443046FFF713FE696DBB1C21448E
:1011100019443046FFF70CFE696DFB1C214419444D
:101120003046FFF705FE6B6D2344D9190431304674
:10113000FFF7FEFD6B6D07F10808234403EB080180
:1011400004313046FFF7FFFD6B6D2344D91905319B
:101150003046FFF7EDFD6B6D2344D919063130465B
:10116000FFF7E6FD6B6D2344D91907313046FFF7D1
:10117000DFFD696D214441443046FFF7D9FD6B6DB9
:10118000234403EB080101313046FFF7D1FD6B6DBD
:10119000234403EB080102313046FFF7C9FD6B6DB4
:1011A000234403EB080105313046FFF7C1FD6B6DA9
:1011B000234403EB080106313046FFF7B9FD6B6DA0
:1011C000234403EB080107313046FFF7B1FD6B6D97
:1011D000234403EB08013046033109F10109FFF70D
:1011E000A7FDB9F1400F7FF45FAF504601994FF46E
:1011F0008052FFF771FD0DF5804D05B0BDE8F08F11
:10120000185401009E550100A75501002DE9F04733
:1012100088B004468A46914600F0C1FB0546EEB20E
:10122000A3199B791BB1204600F05AFCF7E7012572
:10123000E5700AF071FF2065384813F087FC2946F5
:1012400007464FF4805013F019FB80464146204674
:1012500052464B46FFF780FE0EF012FE0028FBD0F0
:1012600004A839460EF028FF04AA04F158030DF132
:10127000180E154603CD7545186059602A4603F1CE
:101280000803F6D128681860AA889A80A06D50BB20
:1012900023492448FFF733F9234904A80AF001FA47
:1012A000394668460AF0FDF9694604A80AF096FA3C
:1012B00001461C48FFF719F968460AF0B2F904A87C
:1012C0000AF0AFF917481649FFF719F9404613F02D
:1012D00023FB384613F020FB0023E3700123237027
:1012E00008B0BDE8F0873303E56D236603F580524F
:1012F000AA4210D9AB4208D2ED1A18442A464146F8
:101300000EF0FEFB236E1D44256620463146012269
:1013100000F042FBDAE74FF48055EEE7AC550100F0
:10132000B5550100DCD9FF1FC455010008B5406860
:10133000FFF7BBF818B10430FFF79CFBC0B208BD43
:1013400008B54068FFF7B1F818B10430FFF76AFB41
:10135000C0B240B208BD08B54068FFF7A6F820B19A
:101360000379062B01D1806808BDFFF715FA08BD87
:101370002DE9F04FADF5804D99B0934B169318AE13
:101380008A4644F2040316A94FF0000846F8181DD7
:1013900041F803808D4BB260424518BF13460546A5
:1013A0004FF00A093046736086F80C90FFF7EFFCA7
:1013B00040F608146B6D864904FB0AF4074603EBFC
:1013C000040BFFF7FFF94146FFF7B0FF8BF8020867
:1013D0006B6D7F49384603EB0408FFF7F3F90121F1
:1013E000FFF7A4FF88F80A086B6D7949384603EBCC
:1013F0000408FFF7E7F90221FFF798FF88F80608CD
:101400006B6D7349384603EB0408FFF7DBF90321E2
:10141000FFF78CFF88F807086B6D6D49384603EBC2
:101420000408FFF7CFF90421FFF780FF88F80908C7
:101430006B6D6749384603EB0408FFF7C3F90521D4
:10144000FFF774FF88F808086B6D6149384603EBB5
:101450000408FFF7B7F90621FFF772FF88F8DB08E9
:101460006B6D5B49384603EB0408FFF7ABF90721C6
:10147000FFF75CFF88F80B086B6D5549384603EBA6
:101480000408FFF79FF90821FFF750FF88F80C08C0
:101490006B6D4F49384603EB0408FFF793F90921B8
:1014A000FFF744FF88F80D086B6D4949384603EB98
:1014B0000408FFF787F94946FFF738FF88F80E0858
:1014C0006B6D4349384603EB0408FFF77BF90B21AA
:1014D000FFF72CFF88F80F086B6D3D49384603EB8A
:1014E0000408FFF76FF90C21FFF720FF88F81008B8
:1014F0006B6D3749384603EB0408FFF763F90D219C
:10150000FFF714FF88F811086B6D3149384603EB7B
:101510000408FFF757F90E21FFF708FF88F81208B3
:101520006B6D2B49384603EB0408FFF74BF90F218D
:10153000FFF7FCFE88F813086B6D2549384603EB6E
:101540000408FFF73FF91021FFF7F0FE88F81408B0
:101550006B6D1F49384603EB0408FFF733F911217F
:10156000FFF7E4FE1B4988F815083846FFF72AF90B
:101570006B6D2344804693F8023813BB4FF0030988
:10158000154930460AF08DF851460EA80AF0ACF81D
:101590000EA930460AF022F910490AF028F901464E
:1015A0000F48FEF7A2FF0EA80AF03BF830460AF0FB
:1015B00038F8B9F10109E3D16B6D2344102283F8A7
:1015C000022800260EE000BF185401002359010034
:1015D0009E550100A7550100DF550100E8550100A7
:1015E000DCD9FF1F31464046FFF7B5FE0121FFF76A
:1015F0009DFE314603904046FFF7ADFE0221FFF706
:1016000095FE314604904046FFF7A5FE0321FFF703
:101610008DFE314605904046FFF79DFE0421FFF701
:1016200085FE314606904046FFF795FE0521FFF7FF
:101630007DFE314607904046FFF78DFE0621FFF7FD
:101640007FFE314608904046FFF785FE0721FFF7F1
:101650006DFE314609904046FFF77DFE0821FFF7F9
:1016600065FE31460A904046FFF775FE0921FFF7F7
:101670005DFE31460B904046FFF76DFE0A21FFF7F5
:1016800055FE31460C904046FFF765FE0B21FFF7F3
:101690004DFE31460D904046FFF75DFE0C21FFF7F1
:1016A00045FE314684464046CDF808C0FFF753FE5C
:1016B0000D21FFF73BFE314683464046FFF74BFEC8
:1016C0000E21FFF733FE314682464046FFF743FEC8
:1016D0000F21FFF72BFE314681464046FFF73BFEC8
:1016E0001021FFF723FE314600904046FFF733FEFE
:1016F0000021FFF71BFE696D039A214440010B187E
:101700000A54049A5A70059A9A70069ADA70079ADF
:101710001A71099A5A710A9A9A710B9ADA710C9A8B
:101720001A720D9A5A720136009ADDF808C0DA7200
:10173000402E089A83F80AC01A7383F80DB083F814
:101740000EA083F80F907FF44DAF3868003018BFBB
:1017500001200DF5804D19B0BDE8F08F2DE9F0475F
:10176000044688B054480F46914613F0EFF90546F9
:101770000EF086FB20B951495148FEF7C0FEF7E74D
:1017800028460EF019FDC8B104A829460EF094FCB5
:1017900004F1580304AA0DF1180A9846164603CE20
:1017A000564518605960324603F10803F6D1306897
:1017B0001860B2889A80A36D2BB95DE0284613F0BB
:1017C000ABF8012075E04FF4805013F09DF83946D6
:1017D00006464A46204600F0E2F8C0B20003206602
:1017E00031464FF480524046FEF793FE204639467C
:1017F0003246FFF7BDFD002836D1304613F08CF895
:1018000004A829460EF058FC04AA43469646BEE8B2
:101810000300D64518605960724603F10803F5D1FC
:101820001068186092889A8026492548FEF767FE5E
:1018300039464A46204600F0B2F8C0B2000320669E
:1018400031464FF480524046FEF763FE204639464B
:101850003246FFF78DFD38B931461948FEF74FFE85
:1018600017481949FEF74BFE304613F055F8284645
:1018700013F052F800201CE0144904A809F011FFED
:101880002946684609F00DFF694604A809F0A6FF3D
:101890000F4909F0ACFF01460948FEF726FE6846ED
:1018A00009F0BFFE04A809F0BCFE284613F034F886
:1018B000022008B0BDE8F087025601000A56010078
:1018C000DCD9FF1F1D56010088560100F8560100A3
:1018D000355701002DE9F04106460D46904600249B
:1018E00048FA04F3DB0710D5E7B2304639462A46FA
:1018F000FFF734FF012808D1736D40F6081000FB94
:10190000043029463A4602F00DFC0134042CE7D19C
:10191000014B1D70BDE8F0815CD7FF1F2DE9F04140
:1019200005460E4690469DF818700BB987B112E037
:1019300000246B6D40F6081202FB0433E1B2284626
:1019400093F808280134FFF761FC042CF1D1EDE78E
:10195000064B1B7833B9284631464246BDE8F04174
:10196000FFF7B8BF024B1E70BDE8F08148D7FF1FDC
:101970002FD7FF1F044A054B1360054A1360054A21
:1019800013600AF00DB900BF8C91FF1F03200038CF
:101990008891FF1F8491FF1F01448A71704701EBFA
:1019A00082007047F0B504468DB0474813F0CEF87A
:1019B00005460EF001FC00282ED1444904A809F088
:1019C00070FE2946684609F06CFE694604A809F0D5
:1019D00005FF3F4909F00BFF0A2206464FF480211C
:1019E00008A809F094FE08A9304609F0F7FE014660
:1019F0003848FEF77AFD08A809F013FE684609F09A
:101A000010FE04A809F00DFE0EF020FB4FF480211B
:101A1000024628460EF0DCFB284612F07DFF2E48D9
:101A200013F094F806460EF0C7FBF0B908A82B494E
:101A300009F037FE314604A809F033FE04A908A8CE
:101A400009F0CCFE01462348FEF74FFD04A809F03B
:101A5000E8FD08A809F0E5FD0EF0F8FA4FF4802142
:101A6000024630460EF0B4FB18E008A831460EF0EE
:101A700023FB04F1580308AA0DF1280E1F46154652
:101A800003CD7545186059602A4603F10803F6D165
:101A900028681860AA889A80A36D7BB9304612F036
:101AA0003BFF0EF0EDF90028FBD0002384F8463010
:101AB0006370204600F0E8FA0DB0F0BD0023236605
:101AC00038460EF0C7FCE9E70256010067570100EF
:101AD0007C570100DCD9FF1FAC5501008457010081
:101AE0002DE9F04FC6788DB004462EB10320DEE11B
:101AF000731C402B04D01E46A519AB79002BF7D0E0
:101B00000AF00AFBE36C4CF25032C01A904240F2E9
:101B100002819A4813F01AF88046994813F016F893
:101B200007460EF0ADF9002800F0C7804FF4805052
:101B3000012112F0A3FEAB79F6B2013B06F0030AD5
:101B40008146032B00F2B680DFE803F0022C89B255
:101B500008A839460EF0B0FA04F1580308AA0DF1AE
:101B6000280C9A469646BEE80300E6451860596080
:101B7000724603F10803F5D11068186092889A80C4
:101B8000A36D002B00F0C88031462046FFF7A2F875
:101B9000206650460EF074FC0223AB710AF0BCFACA
:101BA000E06487E008A841460EF086FA08AA04F12E
:101BB00058030DF1280C9646BEE80300E645186070
:101BC0005960724603F10803F5D1106818609288D5
:101BD0009A80A36D002B40F0B5806A4904A809F0F3
:101BE00060FD94F84610684609F07EFD694604A839
:101BF00009F0F4FD644909F0FAFD5146834608A84E
:101C000009F072FD08A9584609F0E8FD01465F4851
:101C1000FEF76BFC08A809F004FD684609F001FD19
:101C200004A809F0FEFC08A839460EF045FA08AAF7
:101C300004F158030DF1280C9646BEE80300E64572
:101C400018605960724603F10803F5D110681860F6
:101C500092889A80A36D002B40F09E80E6E008A851
:101C600041460EF029FA04F1580308AA0DF1280C98
:101C70009B469646BEE80300E645186059607246EA
:101C800003F10803F5D11068186092889A80A36D5B
:101C9000002B00F0E58031462046FFF71BF8206658
:101CA00058460EF0EDFB0AF037FA0423E06400E03A
:101CB0000023AB71484612F02FFE384612F02CFE7E
:101CC000404612F029FE00231D46E21892790AB11F
:101CD0000135EDB20133402BF7D12378DBB1D5B913
:101CE0002B4908A809F0DDFC0AF016FA216D0A223A
:101CF000411A04A809F031FD04A908A809F06EFDF5
:101D000001462248FEF7F1FB04A809F08AFC08A866
:101D100009F087FC2570CAE004A81A4909F0C1FC43
:101D200094F84610684609F0DFFC694604A809F0FB
:101D300055FD184909F05BFD3946054608A809F02C
:101D4000B0FCA2E020463146FEF7C4FFE36D2066FA
:101D500000F580529A420ED99842BFF464AFC0EBAE
:101D6000030BA36D494618445A460DF0DDFD236E62
:101D70005B44236657E74FF4805BF2E7AC55010004
:101D800002560100C457010015580100DCD9FF1F9D
:101D9000AB570100E757010020463146FEF79AFF96
:101DA000E36D206600F580529A423CD998420AD2EF
:101DB000C0EB030BA36D494618445A460DF0A0FE34
:101DC000236E5B4423660AF0A7F93A49E06404A84D
:101DD00009F067FC5146684609F086FC694604A88C
:101DE00009F0FCFC344909F002FDB108824608A85C
:101DF00009F07AFC08A9504609F0F0FC2F4909F0D7
:101E0000F6FC01462E48FEF770FB08A809F009FC15
:101E1000684609F006FC04A809F003FC0323AB7133
:101E20000023637046E74FF4805BC3E704A82549AD
:101E300009F037FC94F84610684609F055FC6946ED
:101E400004A809F0CBFC204909F0D1FC5146064614
:101E500008A809F049FC304608A909F0BFFCD0E702
:101E6000184904A809F01DFC94F84610684609F0CA
:101E70003BFC694604A809F0B1FC144909F0B7FC21
:101E80005146054608A809F02FFC08A9284609F084
:101E9000A5FC01460A48FEF728FB08A809F0C1FB8B
:101EA000684609F0BEFB04A809F0BBFB02E70DB0D1
:101EB000BDE8F08F9A570100A65701002259010092
:101EC000DCD9FF1FC4570100475801007A580100B0
:101ED000044A054B1360054A1360054A136009F074
:101EE0005FBE00BF9891FF1F032000389491FF1F31
:101EF0009091FF1F08B5FEF7EBFA08BD0A220023F8
:101F000009F016BB70B50668044630460D4609F068
:101F10008BFE854203D03046294609F099FE2046C3
:101F200070BDFFFFF0B5054685B0184812F00EFEF3
:101F300004460DF0A5FF0028FBD020460EF03CF92A
:101F4000B8B9684621460EF0B7F805F158036A465D
:101F500002AF1E46144603CCBC42186059602246AC
:101F600003F10803F6D120681860A2889A80AB6D4F
:101F700023B90DF085FF0028FBD005E000232B6678
:101F800030460EF067FAF4E705B0F0BD02560100E6
:101F90002DE9F04186B004A80DF0B0FE304D04A844
:101FA0000DF0BEFF2B680093DDF80080044600288A
:101FB0004FD02C492C48FFF79DFF21462A48FFF7B8
:101FC0009DFF2A492848FEF79AFA29492648FEF734
:101FD00096FA28492448FEF792FA0DF0CBFE2B68BA
:101FE0000193019E00240DF04BFF0746A8B92B6812
:101FF0000293029B9B1BB3F57A7FF4D901341A48F4
:102000001D49E4B2FFF776FF3B2C06F57A76EAD954
:10201000154809F07DFA3C46E5E714B1124809F08D
:1020200077FA16491048FEF76AFA2B680393039B68
:1020300013490D48C8EB0308FFF75CFF4FF47A71B2
:10204000B8FBF1F10848FFF759FF07480D49FEF7C3
:1020500056FA4FF47A700AF07DF806B0BDE8F081C8
:10206000D4D7FF1FAD580100DCD9FF1FBF580100B6
:10207000C7580100E158010086560100F7580100D9
:10208000075901001759010070B51A4B002292B090
:1020900006461A8002A8402101AA0EF07DF930B34D
:1020A000002402A812F06DFDC0F11400844205D294
:1020B00011481249FFF71EFF0134F2E700244FF4E4
:1020C000805012F021FC0546346629465A2206F15A
:1020D0005800FEF71EFA04F580540023284685F8C0
:1020E0005B3012F019FCB4F5802FE8D1D2E712B0C2
:1020F00070BD00BF6EDBFF1FDCD9FF1FF45901006C
:1021000073B502AC164644F8041D0D462046D1B204
:10211000FFF7F8FE01352046310A0195FFF7F2FE80
:1021200002B070BD38B508460C4609F07DFD054685
:10213000601C09F079FD05EB002080B238BD13B5B5
:10214000002402A8FF2140F8044D0134FFF7DAFE15
:10215000B4F5006FF5D14FF4FA7009F0FBFF02B04F
:1021600010BDFFFF044A054B1360054A1360054A82
:10217000136009F015BD00BFA491FF1F03200038B4
:10218000A091FF1F9C91FF1F38B5044609F0C4FFC2
:10219000D22360601721052204F108000FF0ADFA88
:1021A0000021172204F11C0009F016FE01232377F9
:1021B000022363770323A3770423E377062384F8BA
:1021C0002030072384F82130082384F822300923A3
:1021D00084F823300B2384F824300C2384F8253032
:1021E0000D2384F826300E2384F82730102384F83A
:1021F0002830112384F82930122384F82A3013233D
:1022000084F82B30052384F82D300A2384F82E30EF
:102210000F2384F82F300C4B03F1100204F133012B
:10222000104653F8045B41F8045B9342F9D103680C
:10223000C4F84330054B1A889B78A4F8472084F8EB
:102240004930204638BD00BF365C01004A5C0100C1
:10225000C943CAB2542A09D8A2EB8200013802EB62
:1022600042020021C0B2D2B20B4618E0A92A0BD814
:10227000553AD2B202EB4201A2EB8202013A0020AF
:10228000C9B2D2B203460AE05632D2B202EB4200E1
:10229000A2EB8202511E0022C0B2C9B213460FF057
:1022A00098BAFFFF2DE9F043044685B000F110080D
:1022B00006463A4F2368387840F6081909FB003083
:1022C00001F0D3FD2546311B01EB0010C1B255F8DA
:1022D000083B387809FB003090F800388B4203D176
:1022E00096F83310FF2206E000EB41135B794BB9FF
:1022F00096F83310012200920192284613460FF0FF
:1023000012FA0DE0002296F8339001F0D5FF014655
:102310002046FFF79DFF4946024628460FF02BFA5C
:1023200001364645C5D11E4B1E78204636B14021A8
:10233000FFF78EFF00210246284605E0FF21FFF748
:1023400087FF3146024628460FF015FA00263B78F3
:10235000B34204EB060312D193F84380114B1B6880
:10236000039303996423B1FBF3F12046C9B2FFF74D
:102370006FFF4146024628460FF0FDF908E00022B3
:1023800093F8431000920192284613460FF0CBF9C0
:102390000136042EDBD105B0BDE8F08330D7FF1F36
:1023A00048D7FF1FD4D7FF1F2DE9F04F044685B053
:1023B00000F1100B0646371BFFB2DFF8A881254657
:1023C000384606F06FFC98F8002055F8083B40F6B8
:1023D000081A0AFB023393F80038834203D196F8B7
:1023E0003310FF222AE0384606F05CFC594B1B787C
:1023F000834214D1584B96F833701B680393039AA9
:102400000523B2FBF3F3FF2293FBF2F29918C9B252
:102410002046FFF71DFF3946024628462BE0236879
:1024200098F8002038460AFB023906F03BFC09EB1D
:10243000401043794BB996F8331001220092019273
:10244000284613460FF06FF917E0236898F800202C
:1024500096F8339038460AFB023A06F023FC002235
:102460000146504601F028FF01462046FFF7F0FEE6
:102470004946024628460FF07EF901365E459AD15C
:10248000364B1E78204636B14021FFF7E1FE002191
:102490000246284605E0FF21FFF7DAFE31460246F4
:1024A00028460FF068F92E4B1B78032B30D8DFE855
:1024B00003F00205111D2046FF2101E02046BF2147
:1024C000FFF7C6FE1521024628460FF054F92046B4
:1024D0007F2116E07F212046FFF7BAFE1521024634
:1024E00028460FF048F92046BF210AE07F21204608
:1024F000FFF7AEFE1521024628460FF03CF92046B4
:10250000FF21FFF7A5FE1621024628460FF033F9FA
:102510000026144A1378B34204EB06030BD120467D
:10252000002193F84370FFF793FE39460246284690
:102530000FF021F908E0002293F843100092019275
:10254000284613460FF0EFF80136042EE1D105B00E
:10255000BDE8F08F05D7FF1FD4D7FF1F48D7FF1F57
:1025600014D7FF1F30D7FF1F2DE9F04F044685B069
:102570000025724B1A78AA4204EB050304F1080601
:102580000BD12046402193F84370FFF761FE394696
:10259000024630460FF0EFF808E0002293F84310AF
:1025A00000920192304613460FF0BDF80135042D1C
:1025B000DFD104F1100B25462F1BFFB2DFF87C9111
:1025C000384606F06FFB4B4640F608181A78236829
:1025D00008FB023A9AF80028824238463DD106F0BC
:1025E00061FB0AEB40104379012B08D1FF228023C5
:1025F00095F8331030468DE80C0000222BE023685C
:1026000099F80020384608FB023A06F04BFB0AEB2B
:1026100040104379022B06D10023802295F8331015
:10262000009301926AE0236899F80020384608FB7D
:10263000023806F037FB08EB401095F83310437969
:10264000032B04D1002280238DE80C006BE0FF22D5
:10265000009201923046134667E006F023FB384BA8
:102660001B78834216D1374B95F833701B68039360
:10267000039A0523B2FBF3F3FF2293FBF2F29918BE
:102680002046C9B2FFF7E4FD3946024630460FF056
:1026900072F84CE099F800202368384608FB023AAB
:1026A00006F000FB0AEB4010427912B995F833109E
:1026B000CEE7236899F80020384608FB023A06F076
:1026C000F1FA0AEB40104379012B05D1FF2395F86D
:1026D000331000930022BCE7236899F800203846A5
:1026E00008FB023A06F0DEFA0AEB40104379022BAF
:1026F00007D1002395F83310009301933046FF2251
:1027000013E0236899F80020384608FB023806F0E9
:10271000C9FA08EB40104379032B08D1002295F841
:102720003310009201923046FF230EF0FCFF01357A
:102730005D457FF441AF05B0BDE8F08F30D7FF1F96
:1027400005D7FF1FD4D7FF1FF7B505460024114B4F
:102750001B78A34205F1080605EB04030BD12846BC
:10276000C42193F84370FFF773FD394602463046A3
:102770000FF001F808E0002293F843100092019254
:10278000304613460EF0CFFF0134042CDFD103B0E6
:10279000F0BD00BF30D7FF1FF0B5044685B00D4631
:1027A00009F0BAFC6368C01AA84269D909F0B4FC00
:1027B000344B60601B78092B04F1080620D00ED83A
:1027C000032B19D005D8002B52D02046FFF7ECFD83
:1027D0004EE0062B4CD12046FFF7C6FE48E07D2B8D
:1027E0000ED003D80B3B012B06D941E0F12B3FD192
:1027F0002046FFF7A9FF3BE02046FFF753FD37E0F7
:1028000000256319204693F833701F4B1B68039310
:10281000039A0523B2FBF3F3122202FB0533FF22D6
:1028200093FBF2F29918C9B2FFF712FD0135024687
:10283000394630460EF09FFF102DE2D10025134B94
:102840001B782B4113F0010004EB050393F84310B0
:1028500004D00022FF238DE80C0002E04022009209
:1028600001903046134601350EF05DFF042DE6D190
:10287000074B02241C6030460EF08AFE054B1C609C
:1028800005B0F0BD728EFF1FD4D7FF1F7C8EFF1FD7
:1028900004F10F4008F10F4001EB81012DE9F047F1
:1028A00005464FEAC1080026002406EB04192B193F
:1028B0005FFA89F94946284693F833A0FFF7C8FC28
:1028C00005F108070246514638460EF054FF04F061
:1028D00003032B444946284693F843A0FFF7B8FC6E
:1028E00001340246514638460EF045FF102CDCD12B
:1028F00038460EF04DFEB8F1000F03D04346013BC1
:102900007FF4FDAF0136B6B2B6F5807FCCD1BDE81D
:10291000F087FFFFF7B52C4C236816225B6805464D
:102920000E4620462949984720462C4608F0F0FDDF
:1029300044F8086B0520012109F06CFBC8212046F2
:102940000EF04EFF20460EF0D1FD20460EF020FE88
:1029500000270026AB19FAB293F8331000920192C7
:102960002046134601360EF0DEFE102EF2D1204630
:102970000EF00EFE4FF47A63013B7FF4FDAF01379A
:10298000B7F5807FE5D1FF270026AB19FAB293F89F
:102990003310009201922046134601360EF0C3FE1A
:1029A000102EF2D120460EF0F3FD4FF47A63013B76
:1029B0007FF4FDAF013FE7D12846642103B0BDE8B5
:1029C000F040FFF769BF00BFDCD9FF1F4D5C01007D
:1029D000044A054B1360054A1360054A136009F069
:1029E000DFB800BFB091FF1F03200038AC91FF1F7C
:1029F000A891FF1F2DE9F04705468CB00C461646FE
:102A00001F46BE49BE48FDF77AFDEE626F620126A1
:102A10000027BC492F736F73AF73EF732E746E74FE
:102A2000AE74EE742F756F75AF75EF752E766E768A
:102A3000AE76EE76B248FDF762FD20462121AC620B
:102A400002F046FB204639460822334602F086F95A
:102A5000204631460422334602F080F92046022106
:102A60000922334602F07AF9204603210522334633
:102A700002F074F9204611210622334602F06EF965
:102A8000204604210A22022302F068F9204605218B
:102A90000722022302F062F9204606210B220223BC
:102AA00002F05CF9204607210C22022302F056F9BD
:102AB000204608211B22334602F050F92046092106
:102AC0001222334602F04AF920460A2113223346E5
:102AD00002F044F920460B211422334602F03EF95D
:102AE00020460C211522334602F038F920460D21EC
:102AF0001622334602F032F920460E2117223346C1
:102B000002F02CF920460F210322334602F026F969
:102B1000204610211822334602F020F920461621C3
:102B20000E22022302F01AF9204612210222334615
:102B300002F014F92046132132463B4602F00EF90A
:102B4000204614211A223B4602F008F9204615219E
:102B50000D223B4602F002F9204617210F223B4688
:102B600002F0FCF82046182110223B4602F0F6F84D
:102B70002046192111223B4602F0F0F820461A2186
:102B800019223B4602F0EAF83A463B461B21204612
:102B900002F0E4F8204602F021FA5B495848FDF7BC
:102BA000AEFC022105F11D0002F070F805F11F09CD
:102BB0000A2009F0CFFA1321484602F021FB05F163
:102BC00020080A2009F0C6FA4046122102F018FB3C
:102BD0000A2009F0BFFA4D4904A808F062FD0A2254
:102BE0003946684608F093FD694604A808F0F6FDEA
:102BF000474908F0FCFDFEB282463146484602F0E5
:102C000073FB014608A808F06FFD504608A908F0BC
:102C1000E5FD01463A48FDF768FC08A808F001FD0B
:102C2000684608F0FEFC04A808F0FBFC012009F04F
:102C300091FA384904A808F034FD0A22394668465A
:102C400008F065FD694604A808F0C8FD304908F0A1
:102C5000CEFD31468246404602F046FB014608A8BA
:102C600008F042FD504608A908F0B8FD0146244886
:102C7000FDF73BFC08A808F0D4FC684608F0D1FC3E
:102C800004A808F0CEFC012009F064FA012009F044
:102C900061FA31460122484602F0EEFA012009F0BD
:102CA00059FA01223146404602F0E6FA012009F0C5
:102CB00051FA012009F04EFA144904A808F0F1FC79
:102CC0000A223946684608F022FD694604A808F041
:102CD00085FD0F4908F08BFD31468246484602F0DB
:102CE00003FB014608A808F0FFFC504608A908F0BD
:102CF00075FD01460248FDF7F8FB0DE0645C01003C
:102D0000DCD9FF1F765C0100905C0100A15C010032
:102D100012580100B05C010008A808F082FC684667
:102D200008F07FFC04A808F07CFC012009F012FAEE
:102D30007E4904A808F0B5FC0A223946684608F026
:102D4000E6FC694604A808F049FD794908F04FFD02
:102D500031468246404602F0C7FA014608A808F00C
:102D6000C3FC504608A908F039FD01467148FDF73B
:102D7000BCFB08A808F055FC684608F052FC04A803
:102D800008F04FFC012009F0E5F9012009F0E2F913
:102D90003146FF22484602F06FFA012009F0DAF9C5
:102DA000FF223146404602F067FA012009F0D2F9CD
:102DB000012009F0CFF9604904A808F072FC0A224A
:102DC0003946684608F0A3FC694604A808F006FDE9
:102DD000574908F00CFD31468246484602F084FA15
:102DE000014608A808F080FC504608A908F0F6FC47
:102DF00001465048FDF779FB08A808F012FC684628
:102E000008F00FFC04A808F00CFC012009F0A2F95E
:102E1000464904A808F045FC0A223946684608F0ED
:102E200076FC694604A808F0D9FC414908F0DFFCAB
:102E300031468246404602F057FA014608A808F09B
:102E400053FC08A9504608F0C9FC01463948FDF773
:102E50004CFB08A808F0E5FB684608F0E2FB04A874
:102E600008F0DFFB0137012009F074F9042F7FF42B
:102E7000B2AE2E462F1D96F834302B44204693F8E0
:102E80003C10012202F019F996F838302B44204604
:102E900093F83C100122013602F00FF9BE42EAD14C
:102EA00026492448FDF72BFB1F20012109F0B2F829
:102EB0000420012109F0AEF821491E48FDF71FFB4F
:102EC000204602F0C1F800251E4904A808F0E9FBDD
:102ED0000A222946684608F01AFC694604A808F048
:102EE0007DFC194908F083FCE9B20646204601F052
:102EF000F7FF0A22014608A808F009FC08A9304695
:102F000008F06CFC01460B48FDF7EFFA08A808F042
:102F100088FB684608F085FB013504A808F081FBB2
:102F20001C2DD1D10CB0BDE8F08700BFB05C010012
:102F300012580100DCD9FF1FA15C0100BF5C010039
:102F4000D45C0100FE5C0100225901002DE9FF471D
:102F5000B34B1A680292029A1B680393039BB14B0E
:102F60001B78283B0446232B00F27D83DFE813F017
:102F700024005300840024005300840024005300E4
:102F80008400240053008400B300CE00EA00050151
:102F900020013C01680183019F01BA01D501F101C3
:102FA0000C02270243025E0279029502B002CB02B4
:102FB000F2020D032E0351039B4D05F1080A6E78B2
:102FC000DFF87082DFF8709238F8162039F8163082
:102FD000009296494FF48042002008F018FB04F15B
:102FE0001D0782B23146384601F06CFE15F8016FBC
:102FF0008E4938F8162039F81630009200204FF428
:10300000804208F004FB314682B2384601F05AFE95
:103010005545D4D127E3844D05F1080A6E78DFF8D1
:103020001482DFF8149238F8162039F8163000921E
:103030007E494FF480424FF4005008F0E8FA04F162
:103040001D0782B23146384601F03CFE15F8016F8B
:10305000764938F8162039F8163000924FF40050AF
:103060004FF4804208F0D3FA314682B2384601F07C
:1030700029FE5545D2D1F6E26B4D05F1080A6E786E
:10308000DFF8B081DFF8B09138F8162039F8163043
:103090000092664966484FF4804208F0B8FA04F19D
:1030A0001D0782B23146384601F00CFE15F8016F5B
:1030B0005E4938F8162039F8163000925C484FF413
:1030C000804208F0A4FA314682B2384601F0FAFD97
:1030D0005545D4D1C7E2DFF86481564E98F80050C8
:1030E000554F36F8152037F815305049009200F149
:1030F0001D044FF480424E4808F089FA294682B2F6
:10310000204601F0DFFD98F8005058E2DFF82C81EE
:10311000484E98F80050484F36F8152037F81530CB
:103120004249009200F11D044FF480424FF40050D8
:1031300008F06DFA294682B2204601F0C3FD98F8E6
:1031400000505EE2DFF8F4803A4E98F800503A4FB3
:1031500036F8152037F815303449009200F11D0477
:103160004FF48042002008F052FA294682B22046ED
:1031700001F0A8FD98F8005065E2DFF8C0802D4E00
:1031800098F801502C4F36F8152037F8153027499C
:10319000009200F11D044FF48042254808F037FAF0
:1031A000294682B2204601F08DFD98F8015006E2D2
:1031B000DFF888801F4E98F801501F4F36F8152011
:1031C00037F815301949009200F11D044FF4804280
:1031D0004FF4005008F01BFA294682B2204601F055
:1031E00071FD98F801500CE2DFF85080114E98F80C
:1031F0000150114F36F8152037F815300B49009261
:1032000000F11D044FF48042002008F000FA294626
:1032100082B2204601F056FD98F8015013E200BF3B
:10322000D4D7FF1F15D7FF1F508EFF1F00C0FFFF11
:1032300000E0FFFF5A8EFF1F848EFF1F518EFF1F7D
:10324000DFF80C83BE4E98F80250BE4F36F81520BA
:1032500037F81530BC49009200F11D044FF480424C
:10326000BA4808F0D4F9294682B2204601F02AFD76
:1032700098F80250A3E1DFF8D882B14E98F80250D6
:10328000B04F36F8152037F81530AF49009200F1ED
:103290001D044FF480424FF4005008F0B8F929465D
:1032A00082B2204601F00EFD98F80250A9E1DFF845
:1032B000A082A34E98F80250A24F36F8152037F896
:1032C0001530A149009200F11D044FF48042002006
:1032D00008F09DF9294682B2204601F0F3FC98F8E7
:1032E0000250B0E1DFF86882954E98F80350954F90
:1032F00036F8152037F815309349009200F11D0477
:103300004FF48042914808F082F9294682B2204663
:1033100001F0D8FC98F8035051E1DFF83482884E70
:1033200098F80350874F36F8152037F8153086493E
:10333000009200F11D044FF480424FF4005008F059
:1033400066F9294682B2204601F0BCFC98F8035089
:1033500057E1DFF8FC817A4E98F80350794F36F840
:10336000152037F815307849009200F11D044FF40C
:103370008042002008F04BF9294682B2204601F035
:10338000A1FC98F803505EE1DFF8C4816C4E98F818
:1033900004506C4F36F8152037F815306A49009202
:1033A00000F11D044FF48042684808F030F92946C6
:1033B00082B2204601F086FC98F80450FFE0DFF866
:1033C00090815F4E98F804505E4F36F8152037F81C
:1033D00015305D49009200F11D044FF480424FF416
:1033E000005008F014F9294682B2204601F06AFC28
:1033F00098F8045005E1DFF85881514E98F80450D0
:10340000504F36F8152037F815304F49009200F12B
:103410001D044FF48042002008F0F9F8294682B2DA
:10342000204601F04FFC98F804500CE1DFF82081B1
:10343000434E98F80550434F36F8152037F81530AD
:103440004149009200F11D044FF480423F4808F0CA
:10345000DEF8294682B2204601F034FC98F8055087
:10346000ADE0DFF8EC80364E98F80550354F36F871
:10347000152037F815303449009200F11D044FF43F
:1034800080424FF4005008F0C2F8294682B220462C
:1034900001F018FC98F80550B3E0DFF8B480284E2E
:1034A00098F80550274F36F8152037F8153026497B
:1034B000009200F11D044FF48042002008F0A7F8AC
:1034C000294682B2204601F0FDFB98F80550BAE08B
:1034D000DFF87C801A4E98F806501A4F36F81520FF
:1034E00037F815301849009200F11D044FF480425E
:1034F000164808F08CF8294682B2204601F0E2FB1B
:1035000098F806505BE0DFF848800D4E98F80650BA
:103510000C4F36F8152037F815300B49009200F1A2
:103520001D044FF480424FF4005008F070F8294613
:1035300082B2204601F0C6FB98F8065061E000BF59
:103540005A8EFF1F848EFF1F00C0FFFF00E0FFFFA9
:10355000518EFF1FDFF82481444E98F80650444FE7
:1035600036F8152037F815304249009200F11D0455
:103570004FF48042002008F04AF8294682B22046E3
:1035800001F0A0FB98F806505DE0DFF8F080374EC0
:1035900098F80750364F36F8152037F8153035496A
:1035A000009200F11D044FF48042334808F02FF8D8
:1035B000294682B2204601F085FB98F8075036F87C
:1035C000152037F815302C48009242E0DFF8AC8027
:1035D000264E98F80750264F36F8152037F8153044
:1035E0002449009200F11D044FF480424FF4005032
:1035F00008F00DF8294682B2204601F063FB98F8E6
:10360000075036F8152037F8153000924FF4005067
:103610001FE0DFF86880154E98F80750144F36F811
:10362000152037F815301349009200F11D044FF4AE
:103630008042002007F0EBFF294682B2204601F0CD
:1036400041FB98F8075036F8152037F815300092EE
:10365000002008494FF4804207F0D9FF294682B282
:10366000204601F02FFB04B0BDE8F0875A8EFF1F03
:10367000848EFF1F00C0FFFF00E0FFFF518EFF1F81
:103680002DE9F3410446806A414EDFF8248101F0C0
:10369000DBFC11210122606A0FF058FB24213080ED
:1036A0000122606A0FF052FB252170800122606ABE
:1036B0000FF04CFB2221B0800122606A0FF046FB24
:1036C0000025F080334B705BEB5A334F984207D2A2
:1036D000324AA95A002200921A464FF4806305E04C
:1036E0002F4A3049AA5A00911946002307F08FFF4C
:1036F00078534023785F2B4900934FF480626FF03A
:103700003F0307F084FF0235082D08F8010FD9D1D7
:10371000A06A254E042101F04CFD80F001003070BC
:103720000521A06A01F045FD80F0010070700621BE
:10373000A06A01F03EFD80F00100B0700721A06A90
:1037400001F037FD80F00100F0700421A06A174EEF
:1037500001F019FD05213070A06A01F014FD062169
:103760007070A06A01F00FFD0721B070A06A01F02F
:103770000AFD2946F0700122A06A01F09EFCA06AB1
:103780002946002202B0BDE8F04101F096BC00BF1E
:103790000CD7FF1F748EFF1F20D7FF1F6A8EFF1FDD
:1037A000948EFF1F00FCFFFF3CD7FF1F49D7FF1F70
:1037B00029D7FF1F10B50144094A91F83410094870
:1037C00032F8112030F8111050188A1A92B253436F
:1037D000142493FBF4F2C2EB500080B210BD00BF82
:1037E000848EFF1F5A8EFF1F0144084A91F834103F
:1037F000074832F8112030F81110511A89B24B43A2
:10380000142093FBF0F1501A80B270475A8EFF1FBC
:10381000848EFF1F2DE9F04F85B090469DF84490AF
:103820009DF838B09DF840609DF8482004460F464A
:103830009A464518B9F1000F01D15EB19AE0806A4D
:10384000039201F0C0FC039A0028F6D0002A40F051
:10385000BA8086E0002A40F08C8095F83430A06A67
:103860002344012293F83C1001F027FCBBF1010F27
:1038700016D195F83830234493F844100A0908BF4C
:1038800004F11F0001F00F011CBF04F12000002211
:1038900001F0F2FC01232B762B7385F814A009E0CC
:1038A00008D99DF83C302B74012385F814A02B76A1
:1038B00085F80CB095F83430234493F844100A0985
:1038C00008BF04F11F0001F00F011CBF04F120002C
:1038D000002201F0D1FC95F83460394632460223CB
:1038E0002046FFF767FF32468346394602232046CB
:1038F000FFF77AFF5B46009000217822404607F0F0
:1039000086FE04F11D0A82B23146504601F0DAF912
:1039100095F8345039462A4602232046FFF74AFFDD
:10392000394606462A4602232046FFF75DFF00215E
:10393000009078224046334607F069FE294682B25D
:10394000504601F0BFF9B9F1000F04D0A06A394622
:10395000012201F0B2FB08F0DFFBA06005B0BDE87A
:10396000F08FA06A394601F0A8FB002E3FF475AF36
:1039700000E0032695F83430A06A2344002293F82F
:103980003C1001F09AFB95F834302344FF2293F861
:103990004430190903F00F0A09D1009230467F2202
:1039A0000B4607F034FEC2B204F11F0009E000210B
:1039B000009230467F220B4607F029FEC2B204F186
:1039C0002000514685E7002E08BF0326D2E7FFFFFF
:1039D0002DE9F74346180746337B002B00F0E180C2
:1039E000013B032B00F29F80DFE803F002053C6DF2
:1039F000347DE40165E06C4A337C106858430BF079
:103A00005FFA6A490BF0B4FA69490BF0B1FA694BF5
:103A10000446186800010BF053FA014620460BF0EB
:103A20005BFB0AF061FE0FF023FE0446307D0D467D
:103A30000AF048FE02460B46204629460AF0A8FE38
:103A400000225D4B0AF0A4FE0BF03CF996F83830EA
:103A50003B44002284B293F83C10B86A01F02DFB7D
:103A6000022260E0504A337C106858430BF028FA79
:103A70004E490BF07DFA4E490BF07AFA4D4B044655
:103A8000186800010BF01CFA014620460BF024FBDD
:103A90000AF02AFE0FF0ECFD002200230BF008F9DB
:103AA000347D08B1E40103E0C4EB4424E401A4B292
:103AB00096F83830B86A3B44012293F83C1001F084
:103AC000FCFA00222FE0384A337C106858430BF090
:103AD000F7F936490BF04CFA35490BF049FA354BFA
:103AE0000446186800010BF0EBF9014620460BF084
:103AF000F3FA0AF0F9FD0FF0BBFD002200230BF0F2
:103B0000D7F8347D08B1E40103E0C4EB4424E401B8
:103B1000A4B296F83830B86A3B44002293F83C10BF
:103B200001F0CBFA282296F83830DFF89480DFF8DD
:103B300094903B4424B293F844100B090CBF07F156
:103B40001F0007F1200001F00F0101F095FB96F82E
:103B500038501A4938F8152000233376204639F8B2
:103B6000153000924FF4804207F051FD1D3782B2AC
:103B70002946384601F0A6F896F838500F4938F82B
:103B80001520009239F8153020464FF4804207F096
:103B90003EFD294682B2384603B0BDE8F04301F04D
:103BA00091B803B0BDE8F08354D7FF1FD00F494050
:103BB0000000C84200D7FF1F0000604000C0FFFFA8
:103BC0005A8EFF1F848EFF1F70B504460E461546A1
:103BD0001BB1806A002201F070FA711EC9B20F2970
:103BE000E46A0DD894F84A3041F080018B420BD042
:103BF000D4F8E00084F84A1003681B68984703E093
:103C0000002384F84A3070BDD4F8E000036805F062
:103C10007F011B689847D4F8E000036840211B68C7
:103C2000984770BD38B5002204460D46806A01F001
:103C300044FA60190023037303750123037638BD2A
:103C400037B54FF4007305460C4609B1084A00E049
:103C5000084A13601720214608F0BCF92C7724B1DC
:103C6000054B1B680193019B2B6003B030BD00BF67
:103C700084F00F4088F00F40D4D7FF1F044A054B53
:103C80001360054A1360054A136007F089BF00BF3F
:103C9000BC91FF1F03200038B891FF1FB491FF1F94
:103CA0004379032B09D8DFE803F0090B0B02407CB2
:103CB000D0F1010038BF00207047704700207047E6
:103CC0000120704710B5044608F026FAC4F8000930
:103CD00010BDD0F8F438013370B5C0F8F43890F85E
:103CE000016890F8023800221E440346B2420DDA01
:103CF0009969002907DDD0F8EC58D0F8F848B5FBF1
:103D0000F4F4091B996101322033EFE770BDFFFF26
:103D1000264B80F8E2181B78F0B5002B45D090F8C0
:103D2000DB3890F80268B0F8E0585CB2002CD8BFDD
:103D3000C3F1020211FB06F6D4BFD2B20122DBB2FC
:103D4000002CCCBF1C46012402FB06F205F1010544
:103D5000ADB292FBF4F295FBF2F602FB1652C3F100
:103D60000203A0F8E0284FF48005D0F8F428C0F84A
:103D7000F82895FBF1F5D4BF1E4601260022C0F8B5
:103D8000EC58C0F8F428E5B2F6B201238B420CDA05
:103D90000A44B6FBF5F492FBF4F704FB172414B9BC
:103DA00080F80438F0BD0133F0E7F0BD48D7FF1FBD
:103DB00090F8DB385AB2002ADABFC3F10200C0B271
:103DC0000120002ACCBFDBB20123800590FBF3F079
:103DD000704710B50446FFF7EBFF94F802385843DC
:103DE00010BDF8B5D0F8F458D0F8F848B0F8E0684D
:103DF000AC4234BF27462F46D0F8EC58FFF7E9FF16
:103E00006E43B6FBF0F37D4303FB1060B5FBF4F4A7
:103E10002044F8BD38B590F80338012B044611D181
:103E2000FFF7DFFF05462046FFF7C2FF94F80128A1
:103E300094F802381344013BB5FBF0F01B1A84F8E8
:103E400000380DE063B9FFF7CCFF05462046FFF7C9
:103E5000AFFF94F80138B5FBF0F0C51884F80058AE
:103E600094F8003884F8DF3838BD90F8000800096D
:103E700070472DE9F04190F8017890F8023890F8F9
:103E800000481F4407EB0408054608F1FF380026E8
:103E900044450CDA94FBF7F307FB134305EB43139C
:103EA00028465E61FFF784FF01340644F0E73046A0
:103EB000BDE8F08110B5044651B10023A0F8E03808
:103EC000C0F8F438FFF78DFF01462046FFF7A2FF48
:103ED00094F8023894F801082246184400238342DB
:103EE0000CDA94F800188B4202F1200206D000216F
:103EF00002F8101C02F80F1C0133F0E72046BDE861
:103F00001040FFF7B6BFFFFF2DE9F74F0446FFF75C
:103F100068FF804641462046FFF77CFF94F816383C
:103F2000002B40F0B080594B1B78002B00F0AB8089
:103F300094F8006804EB461303F11002197C002981
:103F400043D15879002840D05170D879504D94F819
:103F50000F38EB56142793FBF7F31844052204F0AF
:103F600091FE2644012186F81B0894F8006804EBB2
:103F700046130522187A94F81138EB5693FBF7F79D
:103F8000384404F07FFE264494F8103886F85B0825
:103F900094F80068EA56A7190F2392FBF3F387F809
:103FA0009B3804EB4610FFF77BFE97F85B1897F8F9
:103FB0001B38009102463146204600F017FA94F86B
:103FC000003804EB431301221A74254627460026C5
:103FD00094F8021894F801380B449E4253DC6B7934
:103FE000002B48D02A7C042A04D0062A31D0012A8A
:103FF00041D10CE094F800389E4240D101293AD1D9
:104000002046FFF7D5FEB8EB900F38D333E0A9690F
:10401000EA6991422FDA5FFA86FA032B08D8DFE8C3
:1040200003F0020205024FF0010901E04FF0000920
:10403000204651464A4600F050FB06232B7420468A
:10404000514695F811B000F02FFB834513D9042396
:1040500010E0AB69002B0EDC2846FFF721FE97F835
:104060005B1897F81B3800910246F1B2204600F029
:10407000BDF901232B74013620350137A8E7002351
:104080002B746B74F7E703B0BDE8F08F48D7FF1FC0
:104090002AD7FF1F024B1B780BB1FFF735BF7047C4
:1040A00048D7FF1F044A054B1360054A1360054AB1
:1040B000136007F075BD00BFC891FF1F03200038D3
:1040C000C491FF1FC091FF1F2DE9F041134D04461D
:1040D00028680F46164612491D229846436828460E
:1040E0009847284607F014FA002384F80838042378
:1040F00084F8DB38069BC4F8FC3884F8097884F827
:10410000026884F80A882046FFF7B3FE012384F88A
:10411000DC38079BC4F80439BDE8F081DCD9FF1F07
:10412000285D0100F0B58DB004460E4604A8424952
:10413000154607F0B6FA3146684607F0D5FA6946E3
:1041400004A807F04BFB3D4907F051FB2946074601
:1041500008A807F0C9FA08A9384607F03FFB01464E
:10416000374807F0B4F9364807F0D2F908A807F045
:1041700058FA684607F055FA04A807F052FA1023D7
:1041800084F802380423002084F80A3844F62062B8
:1041900084F8DB380523C4F8E82884F8010884F89B
:1041A000060884F8070884F8086884F8095884F831
:1041B0000B3884F80C3884F80F3884F80D3884F8FC
:1041C0000E3884F8103884F8113884F8123884F8DE
:1041D000133884F8143884F8153884F8160884F8ED
:1041E000170884F8180884F81A08402201340321BB
:1041F00061710121E1712172042118236172E17260
:10420000432104F8013C217300231021013A23705B
:104210006370A370E3702371A371A3726373A173BE
:10422000C4F81330E37323746374C4F8173004F1D3
:104230002004DCD10DB0F0BD465D0100665D0100DB
:10424000DCD9FF1FC0F8FC18FFF713BE03EB4113C6
:10425000C254704730B5023BDBB20C2B98BF1548F7
:104260009DF80C4094BF30F8133040F6FF730020E7
:10427000904206DA03F001055B1043EAC5230130E2
:10428000F6E70D200C22B1FBF2F502FB1512D2B2BB
:104290004FF4006545FA02F29A4308D00CB101319F
:1042A00000E00139013810F0FF00C9B2EAD1084638
:1042B00030BD00BF725D010002EB4112805C7047AF
:1042C00070B590F8E25890F9DB3890F80228B0F811
:1042D000E048694391FBF3F115FB02F595FBF3F31D
:1042E000214491FBF3F503FB1515A0F8E0580023DA
:1042F000934200F1200008DA50F8081CAEB2A61B69
:10430000314440F8081C0133F2E770BD38B590F82D
:104310000B388B4204460D4602D10121FFF7CAFD3E
:1043200094F80C38AB4208D1044B1B782BB12046D3
:104330000421BDE83840FFF7C3BF38BD48D7FF1F91
:10434000F0B5044687B01E464D012AB390F80738F1
:104350005BB14FF0010E415D90F80628CDF800E00A
:104360004719FFF777FFB87402E04319425D9A746A
:10437000254494F80918A87BAA7C6B7B0090E87B05
:104380000190E87A0290002004900396D4F8040982
:10439000FFF740FA07B0F0BD054494F80918D0F8CB
:1043A0000409AA7C012307B0BDE8F040FFF70CBC6C
:1043B00008B54318490193F99B380844002B407A0B
:1043C00006DA18440121402204F05CFCC0B208BDAA
:1043D00008BD4318490193F89B3808445AB2807AC3
:1043E000002AC4BF5843C0B27047FFFF2DE9F04F09
:1043F00017464A0100EB020889464E014146825C9D
:10440000044648788DB010448DF819008878C97832
:104410008DF8182010440A448DF81B2094F81828B1
:104420009DF858C08DF81A001AB1002384F8183886
:1044300033E10122042518F80210FF2908BF05F115
:10444000FF3502F1010208BFEDB2042AF3D128467C
:1044500005EB850188420ADA06AAC5EB020E1EF8B2
:1044600000E00EF10C0E00F802E00130F2E7BCF1C2
:10447000000F02D00CFB05F5EDB2013B042B4BD82D
:10448000DFE803F0030D182B4000A3195B7CB3FB9E
:10449000F5F205FB12330CAA52FA83F31AE0A319C2
:1044A0005B7CB3FBF5F205FB1233ED1A0CAB53FA50
:1044B00085F524E0A3195B7CB3FBF5F212F0010F44
:1044C00005FB02F2C2EB030308BFC3EB0503DBB23B
:1044D0000CAA134413F8185C20E0A319691E5B7C36
:1044E00093FBF1F2D0074BBFB3FBF5F201FB1233A4
:1044F00005FB1235C3EB0505EDB20CAB1D4415F8F9
:10450000185C0BE02946002007F077F80CAA52FA55
:1045100080F010F8185C01E09DF8185094F8073806
:1045200053B1012194F80628009120462946FFF74F
:1045300091FEA319987401E0A3199D74584B94F847
:104540000E289A5C9B462AB100207F2107F055F87F
:10455000A319987494F81318DFF848A1A3191AF94D
:104560000100042190FBF1F1987C01449974D87A00
:1045700094F815381AF9033000211844FF2204F08A
:1045800081FB94F80D381BF80330C5B20BB187F0EE
:10459000010798F80730002B33D194F8143898F8B5
:1045A00006001AF903300130012103EB40004022DC
:1045B00004F068FB94F8DB385AB2002ADABFC3F182
:1045C0000201C9B201218005002A01FB00FCCCBF19
:1045D000D9B20121A0194FEAC10E9CFBFEF1002ABD
:1045E0008161DABFC3F10201C9B20121002ACCBF47
:1045F000DBB201238905A219DB0091FBF3F3D36140
:104600002AE094F8DBA84FFA8AF3002BD8BFCAF14E
:10461000020A49462046D4BF5FFA8AFA4FF0010ADF
:10462000FFF7C6FE4FEA8A5A00FB0AFB94F8DBA8A4
:104630004FFA8AF3002B20464946CCBF5FFA8AFA2C
:104640004FF0010AFFF7C5FEA3191AFB00F09BFB10
:10465000F0F098614010D861A01900F11006437B7A
:10466000827C90F80EE0CDF800E0083094F809184C
:10467000C079019094F81A08039704900295D4F831
:104680000409FFF7C7F898F80530022B18BF002778
:1046900084F81A787378013373700DB0BDE8F08F29
:1046A0003CD7FF1F2AD7FF1F70B54318054693F864
:1046B0001B380C467BB100EB41139E79FFF789FE56
:1046C000214616FB00F62846FFF772FE96FBF0F037
:1046D000C0F3870070BD184670BD10B500EB4111E6
:1046E000134601F11002097C0129044608D194F80F
:1046F0000918D0F804099278BDE81040FFF764BAB1
:1047000010BDFFFF531A002BB8BF5B42013380F886
:1047100002380A4B91421B7805D201EB031180F855
:104720000118002304E002EB031280F801280123A2
:1047300080F80338012380F81838704714D7FF1F1A
:10474000044A054B1360054A1360054A136007F0DD
:1047500027BA00BFD491FF1F03200038D091FF1F5C
:10476000CC91FF1F10B5044607F0D6FC2060204610
:1047700010BD10B5044607F0CFFC2368C01A10BD69
:1047800013B5194B1A680092009A02601B680193D6
:10479000019B436004460830FFF7E4FF04F11D006D
:1047A00000F072FA04F11F0000F028FD04F120006F
:1047B00000F024FD0D4A1346114653F8040B206304
:1047C000186860639068A06351F80C0F496804F1A1
:1047D0003C0303C352F8140F516804F1440303C3AC
:1047E000204602B010BD00BFD4D7FF1F8C5D010072
:1047F00013B504460C30FFF7B5FF04F12400FFF7B2
:10480000B1FF04F12800FFF7ADFF144B1B680193C3
:10481000019B236504F15400FFF7B2FF04F1A000EF
:1048200004F0DCFA04F1F40000F06CFD04F2444002
:10483000FDF7AAFC04F59260FCF742F904F244503B
:1048400000F084FA04F5B56000F080FA04F21C6010
:10485000FFF788FF204602B010BD00BFD4D7FF1F6E
:104860002DE9F04F8DB004468A4689488949DFF822
:1048700048921E4604F15407934604F5B568FBF7C9
:104880003EFE169BC4F81836384641465246C4F8D8
:1048900010A6C4F81466FEF7ADF8D9F80030642508
:1048A000B3FBF5F38DE88800304600211022042385
:1048B000FFF70AFCD9F80030B3FBF5F38DE8880068
:1048C00006F60810012110220423FFF7FDFBD9F89A
:1048D000003006F59050B3FBF5F38DE888001030FA
:1048E000022110220423FFF7EFFBD9F8003006F570
:1048F000D850B3FBF5F58DE8A00018300321102245
:10490000042304F5926504F1A009FFF7DDFB43469B
:104910004846394604F244528DE86000029404F09F
:10492000B9FA224604F1F400314600F00FFD04F21A
:1049300044403146FDF7EEFF2046394632465346A5
:10494000CDF800B005F020FD169B00932846524B91
:1049500039463246FCF7D4F8504B1B78002B00F058
:1049600084804F494A48FBF7CAFD2846FDF7E7FB1C
:104970002846FDF70DFB2846FDF714F800274949A6
:1049800008A806F08EFE0A22394604A806F0BFFEEB
:1049900004A908A806F022FF434906F028FF0146B3
:1049A0003B48FBF7A2FD04A806F03BFE08A806F072
:1049B00038FE4FF000085FFA87FA40F6081000FB57
:1049C00008605FFA88F2514608F10108FFF7AAFB78
:1049D000B8F1040FEFD12E483449FBF790FD4FF0AA
:1049E00000085FFA88F12846524608F10108FCF7F2
:1049F0000DFCB8F1040FF4D125482D49FBF77FFDDC
:104A000094F890341BB12846FDF76AF8F8E7294975
:104A100008A806F046FE0A22394604A806F077FEEA
:104A200004A908A806F0DAFE1F4906F0E0FE0146D8
:104A30001748FBF75AFD04A806F0F3FD08A806F096
:104A4000F0FD01374FF4FA7007F084FB102F96D178
:104A500094F890341BB12846FDF742F8F8E764203B
:104A600007F078FB2846FDF70FFB2846FCF79AFF76
:104A70000F2228460021FCF72DFF2846FCF7C0F83E
:104A80004846012104F00EFB0DB0BDE8F08F00BFD9
:104A9000DCD9FF1FA85D01006DDBFF1F5DD7FF1F85
:104AA000C45D0100125E01003F5E0100665E010010
:104AB0007B5E01008F5E0100808EFF1F13B50446F0
:104AC00007F02AFB94F82D3001902BB104F24440FA
:104AD00048F2A061FDF760FE01A8FFF74AFE07F06B
:104AE0001BFB44F62061019004F1A00005F05CFB83
:104AF00001A8FFF73EFE07F00FFB019004F21C60D7
:104B0000FFF737FE42F21073984202D994F89034BE
:104B10003BB904F1F40044F6206103F093FA02B0CB
:104B200010BD04F59260FCF7DBFF07F0F5FAC4F85E
:104B30001C0601A8FFF71DFE07F0EEFA0190E8E75A
:104B400005F070BC05F0D4BD0346D0F80C06D3F8D0
:104B5000101606F054B8FFFF064B10B5064C1C604B
:104B6000064B1C60064B1C6007F01AF8054B1C60D6
:104B700010BD00BFE491FF1F03200038DC91FF1F30
:104B8000D891FF1FE091FF1F054BDA6A12F0F00F7A
:104B900018BF9B6B4FF2F0031340002BF4D170470A
:104BA00000C0024010B5184B1A7802B372B61B78D9
:104BB000D90707D5154A1649146809682140154CCC
:104BC000216011609A0707D5134A11491468496892
:104BD0002140104C616011605B0707D50F4B0C4AF8
:104BE000196892680A400B498A601A6062B60C4BD9
:104BF000DA68824207D00B4A1A60D8600A4A40F04D
:104C0000804018611A6010BD6CDBFF1F80E100E07E
:104C100054DBFF1F60DBFF1F84E100E088E100E060
:104C200000C0024001401F0000001F80054B4FF0F4
:104C30000042DA625863DA6A002AFCDA014B986BA8
:104C4000C0B2704700C002400A4B1B788BB1D90735
:104C500003D5094A1168094A11609A0703D5064A23
:104C60005168074A11605B0703D5034B9A68054BEF
:104C70001A6070476CDBFF1F60DBFF1F00E100E084
:104C800004E100E008E100E07047FFFF10B50023F9
:104C90000446017043700846012107F0BBF92278F1
:104CA000064B53F83230012283F88020044B4FF03A
:104CB00038421A60BDE810400AF084BB4CBD0100C8
:104CC000E891FF1F2DE9F341174604468846FFF798
:104CD0005BFF114B114E1868FFF764FF23788DF8C6
:104CE000067056F83330012583F8005101A83B0ABD
:104CF000032108F130088DF805308DF804800AF0A2
:104D000035FD237856F8333083F88050FFF79CFF49
:104D100002B0BDE8F08100BFE891FF1F4CBD01006B
:104D2000014B024A1A607047E891FF1F03200038C8
:104D3000054BDA6A12F0F00F18BF9B6B4FF2F003CD
:104D40001340002BF4D1704700C0024010B5044658
:104D500007F0E2F9A065204610BDFFFF2DE9F04FF6
:104D600081469FB0900890469A468B4609F0AAFC6F
:104D70000EF0EEFB044640460D4609F0A3FC00226F
:104D800006460F464E4B2046294609F001FD0B46CC
:104D900002463946304609F047FB09F0BBFF294679
:104DA000C6B2204609F0B6FFC3B2BAF1000F05D073
:104DB000BAF1010F0CBF0124032400E0022409EB27
:104DC0000B02002109EB030582F8108082F83010F5
:104DD00003277200974095F85010FF43FFB2394007
:104DE00004FA02F20A4385F8502006A835490193D7
:104DF00006F057FC019B02A8194606F075FC02A9B3
:104E000006A806F0EBFC304906F0F1FC214680468E
:104E10000AA806F069FC0AA9404606F0DFFC2B4907
:104E200006F0E5FC1022804695F850100EA806F01A
:104E30006EFC0EA9404606F0D1FC254906F0D7FCD1
:104E40003146054612A806F04FFC12A9284606F086
:104E5000C5FC204906F0CBFC02220546394616A8BF
:104E600006F055FC16A9284606F0B8FC1A4906F0CB
:104E7000BEFC1022054604FA06F11AA806F047FC0B
:104E80001AA9284606F0AAFC01461448FBF72DFB98
:104E90001AA806F0C6FB16A806F0C3FB12A806F077
:104EA000C0FB0EA806F0BDFB0AA806F0BAFB02A8DC
:104EB00006F0B7FB06A806F0B4FB1FB0BDE8F08F04
:104EC00000001040BB5E0100CF5E0100DA5E010011
:104ED000E35E0100ED5E0100F85E0100DCD9FF1F1A
:104EE0002DE9F0410F460446FFF722FF194B1A4EF9
:104EF0001868FFF757FE94F8603056F833300125F4
:104F000083F8005147F08000FFF790FE0020FFF784
:104F10008DFE94F8603056F8333083F8805094F862
:104F2000603056F83330002083F80051FFF77EFEE2
:104F300007460020FFF77AFE94F8603056F83330C9
:104F4000804683F88050FFF77FFE47EA082080B252
:104F5000BDE8F081EC91FF1F4CBD01002DE9F0414F
:104F60000F4690460446FFF7E3FE1A4B1A4E1868A8
:104F7000FFF718FE94F8603056F83330012583F8B7
:104F8000005107F07F00FFF751FE4046FFF74EFE4D
:104F900094F8603056F8333083F8805094F86030DD
:104FA00056F83330002083F80051FFF73FFE00022F
:104FB00087B20020FFF73AFE94F8603056F833309D
:104FC000384387B283F88050FFF73EFE3846BDE88D
:104FD000F08100BFEC91FF1F4CBD010070B5164978
:104FE00005461648FBF774FA144806F091FA0924AE
:104FF0002E19E1B296F847202846FFF7AFFF104977
:105000000E48FBF765FA2146102200230B4806F0F4
:105010008FFA0C490948FBF75BFA96F847100748E6
:105020001022002306F084FA0134044806F070FAD6
:10503000102CDDD170BD00BF085F0100DCD9FF1F5F
:10504000285F0100345F010070B50446456807F031
:1050500063F8A36DC01AB0F5FA7F2DD9442120461C
:10506000FFF73EFF4C2106462046FFF739FF00F4CC
:105070007F4040EA262654212046FFF731FF00F406
:105080007F4046EA00265C212046FFF729FF00F416
:105090007F4046EA0043DB43A268636023EA0501E0
:1050A0000A43A260E26825EA03010A439D42E260E6
:1050B00002D007F031F8A06570BD38B54418154628
:1050C000217C2431C9B2FFF749FF84F8305038BD44
:1050D00030B589B004460D4604A81E4906F0E1FA31
:1050E0002946684606F000FB694604A806F076FBF0
:1050F00001461948FBF7F9F9684606F092FA04A848
:1051000006F08FFA154BE365154B164A84F860508C
:1051100000251A6025700AF055F901200AF0B2F94D
:1051200028460AF0C3F994F86000012106F072FFE6
:1051300094F8601020460122FFF7BFFF642007F0BB
:1051400009F8A560E560204604210122FFF706FF6B
:1051500009B030BD3D5F0100DCD9FF1F00512502C1
:10516000EC91FF1F000001B810B5014483680A7C70
:10517000012101FA02F212EA03041DBF9343836086
:105180000846204610BD10B50278012312B1013A3D
:1051900002700AE00144C268097C03FA01F111EAD5
:1051A000020404D022EA0102C260184610BD204663
:1051B00010BD014401220B7C9A4043681A420CBF87
:1051C000002001207047014491F830007047FFFF34
:1051D000014B024A1A607047EC91FF1F0320003810
:1051E000054BDA6A12F0F00F18BF9B6B4FF2F00319
:1051F0001340002BF4D1704700C002407047FFFFFE
:1052000010B5084B084A017004461A600AF0DAF833
:105210002078012106F0FEFE20780121BDE8104033
:1052200006F0D8BEF091FF1F000001382DE9F041D3
:105230000F4690460446FFF7D3FF0D4B0D4E1868FE
:10524000FFF7B0FC237856F83330012583F800517E
:105250003846FFF7EBFC4046FFF7E8FC237856F8AA
:10526000333083F88050FFF7EFFCBDE8F08100BFDA
:10527000F091FF1F4CBD01000139C9B202299ABF4C
:10528000034B595C0021090101F0F001FFF7CEBF8B
:10529000775F01002DE9F0410F460446FFF7A0FFBC
:1052A0000F4B104E1868FFF77DFC237856F833300B
:1052B000012583F8005147F08000FFF7B7FC07464F
:1052C0000020FFF7B3FC237856F83330804683F88C
:1052D0008050FFF7B9FC47EA082080B2BDE8F081B2
:1052E000F091FF1F4CBD010008B50021FFF7D2FF70
:1052F00008BDFFFF014B024A1A607047F091FF1F83
:105300000320003813B5002304460360332006F061
:10531000F3FD0B220D238DE80C00C4F8F8000923DF
:1053200006210A2204F580700CF0A6FA06F0F4FEBD
:105330000549C4F840014FF4007204F5A87006F066
:10534000B1FC204602B010BD7C5F0100F8B56C4D89
:10535000044617460E4628466A4904F58074FBF752
:10536000CEF8694BA664E764FF22204600211A703C
:105370000DF06CF9642006F0EDFE204610210CF0D3
:10538000A5FA204600210CF0F1FA204600210DF08C
:105390003FF90A2006F0DEFE20464FF478410DF07A
:1053A00037F90A2006F0D6FE20464FF620510DF0C0
:1053B0002FF90A2006F0CEFE20464FF6E0710DF0E0
:1053C00027F90A2006F0C6FE20464FF4FC610DF0D6
:1053D0001FF90A2006F0BEFE20461F210DF018F925
:1053E0000A2006F0B7FE20460F210DF011F90A2021
:1053F00006F0B0FE204647F60F010DF009F90A202D
:1054000006F0A8FE20464FF478410DF001F93F4E1A
:105410000A2006F09FFE4FF6E07220464FF620511C
:105420000DF0EAFA204631460CF0F6FA38492046EB
:10543000FBF765F8322006F08DFE4FF6205220462D
:105440004FF4FC610DF0D8FA32492046FBF757F8CB
:10545000322006F07FFE20461F214FF4FC620DF043
:10546000CBFA642006F076FE204647F60F010F22A5
:105470000DF0C2FA642006F06DFE20460F214FF4B5
:1054800078420DF0B9FA08220023204642F20E714C
:105490000DF058F820464FF620510CF064FA2046E3
:1054A0001D490CF0B9FA204602210CF049FA1B49BB
:1054B0002046FBF724F8642006F04CFE204601212C
:1054C0000CF03EFA30220023204642F20E710DF01D
:1054D00039F820464FF620510CF045FA2046314667
:1054E0000CF09AFA0E492046FBF709F84FF47A704F
:1054F00006F030FE28460B49FBF701F8F8BD00BF67
:10550000DCD9FF1F2FA00100728EFF1F7C9B0100C2
:1055100044A001004BA001007C7C010052A00100CE
:105520005AA0010060A0010070B504461E25A068C5
:1055300000260FF0F1F9A660D4F880000FF0ECF926
:10554000013DC4F8806004F10404F0D170BDFFFF98
:10555000F8B504461E25D4F8803023B90C480FF066
:10556000F5FAC4F88000A0680FF0D6F9D4F880707E
:105570000026A66038460FF0E9FAA06038460FF022
:10558000CBF9013DC4F8806004F10404E3D1F8BD17
:105590008EB001002DE9F04F87B000EB81081E4668
:1055A0009DF84C30D8F8081005938446BDF8583063
:1055B000D8F8800003931446CDF810C00FF0B4FA69
:1055C000DDF810C0BDF940509CF8FF20BDF94490B3
:1055D000BDF948A09DF850B0BDF85470039B003051
:1055E00018BF0120A242384A117866D0A14201D0EA
:1055F000002865D01278A24202D03A461F461346D0
:105600000CF580740193204631462A464B46CDF86E
:1056100000A00DF01DFA0023204631462A460CF06A
:1056200091FFBBF1080F31D8DFE80BF00505280C1E
:10563000303030112000204624490CF0EDF920468E
:10564000012121E06A1C204642F20E7112E06A1C20
:10565000204642F20E7112B200230CF073FF204676
:105660001A490CF0D9F9204604210DE0711C6A1C7E
:10567000204609B212B200230CF064FF2046134901
:105680000CF0CAF9204602210CF05AF9204639469E
:105690000CF069F92046D8F88010FAF719FF059B3D
:1056A00073B1204631462A464B46CDF840A01197AB
:1056B00007B0BDE8F04F0DF023BAA1429AD197E7A9
:1056C00007B0BDE8F08F00BF15D7FF1F149601008B
:1056D0002DE9F04700EB81070446B968D7F8800050
:1056E000BDF920509DF828A0BDF82C80164699469B
:1056F0000FF01AFA94F8FF30003018BF0120B342BF
:105700002D4B1A7852D0B24201D0002851D01A78CD
:10571000BDF8303004F58074B24218BF9846204678
:10572000002349462A460CF00DFFBAF1080F32D883
:10573000DFE80AF00505290C31313111200020463F
:105740001E490CF069F92046012122E06A1C20461E
:1057500042F20E7113E06A1C204642F20E7112B240
:1057600000230CF0EFFE204614490CF055F92046BA
:1057700004210EE009F101016A1C204609B212B2AF
:1057800000230CF0DFFE20460C490CF045F92046C2
:1057900002210CF0D5F8204641460CF0E4F82046F2
:1057A000D7F88010FAF794FEBDE8F087B242AED188
:1057B000ABE7BDE8F08700BF15D7FF1F14960100C7
:1057C0002DE9F04FA94ED0F848313278DFF8D08279
:1057D00040F6081707FB0233044693F808389BB0DD
:1057E0000D46013201330846A1490FF079F92846E8
:1057F0000FF0ACF996F80090D4F8483198F80020F2
:10580000C4F88000520107FB09339B5C543354F801
:1058100023000FF09BF909F10102C4F884009549B7
:1058200028460FF05DF928460FF090F9D4F848317A
:105830003278C4F8900007FB023798F8003007EB85
:1058400043177B790BB98C480BE0BA798B4901324D
:1058500002F003031927284692087B430FF040F912
:1058600028460FF073F9C4F8940085480FF06EF9DC
:105870003278D4F84831C4F8980040F6081101FB9A
:10588000023398F8002003EB42132846DA7A1AB95B
:105890007C490FF053F902E07B490FF021F92846CB
:1058A0000FF054F9C4F8A40078480FF04FF90DF147
:1058B0002809C4F8A0007649484605F0F2FE0EA873
:1058C000744905F0EEFE12A8734905F0EAFE16A829
:1058D000724905F0E6FE654B1A78D4F8483140F677
:1058E000081101FB02336E4A127803EB42130025C4
:1058F0005B791B01082659F803000FF027F9B4F86B
:10590000463105938027B4F84431C4F89C004FF029
:105910000F088DE8A0010693204629462B460395E3
:105920000496FF22FFF736FE1D230293B4F846319A
:1059300005934FF0070AB4F84431CDF800800121F7
:105940000197069320460A462B460395CDF810A0F2
:10595000FFF720FEB4F84631059310274FF02F0CC7
:105960004FF04008B4F84431CDF800C0CDF80480C1
:10597000069320462B460297039504960421FF22A6
:10598000CDF824C0FFF706FEB4F8463105934FF07A
:105990003F0BB4F84431CDF80480069320463146DD
:1059A0002B46CDF800B0029703950496FF22FFF72F
:1059B000F1FD4F238DE80801B4F846310593B4F8A2
:1059C0004431069320462B46029703950496062100
:1059D000FF22FFF7DFFDB4F84631DDF824C0059360
:1059E0004FF04408B4F84431CDF800C00693204687
:1059F000CDF80480029703950496052102223C23EA
:105A0000FFF7C8FDB4F846310593B4F84431069366
:105A100020465146CDF800B0CDF80480029703959A
:105A2000049603223C23FFF7B5FD4F238DE80801C0
:105A3000B4F846310593B4F84431069309210422A1
:105A40003C232046029703950496FFF7A3FD16A872
:105A500005F0E7FD12A805F0E4FD0EA805F0E1FD54
:105A6000484605F0DEFD1BB0BDE8F08F30D7FF1FC4
:105A700080A0010093A001009AA0010036B10100AE
:105A80009FA00100A5A0010049A3010029A20100D7
:105A9000A9A40100A9A00100ACA00100B0A00100D0
:105AA00005D7FF1F2DE9F047DFF8EC92D0F8483119
:105AB00099F80020DFF8E4A240F6081808FB02334A
:105AC000AAB093F8083804460D460132013308465F
:105AD000A8490FF005F828460FF038F8C4F8800000
