:1000000000800020BD01000015FD0000E1FC0000A3
:10001000E1FC0000E1FC0000E1FC0000E1FC00006C
:10002000E1FC0000E1FC0000E1FC000015FD000027
:1000300015FD0000E1FC0000B51401007915010078
:1000400015FD000015FD000015FD000015FD000068
:1000500015FD000015FD000015FD000015FD000058
:1000600015FD000015FD000015FD000015FD000048
:1000700015FD000015FD000015FD000015FD000038
:1000800015FD000015FD000015FD000015FD000028
:1000900015FD000015FD000015FD000015FD000018
:1000A00015FD000015FD000015FD000015FD000008
:1000B00015FD000015FD000015FD000015FD0000F8
:1000C00015FD000015FD000015FD000015FD0000E8
:1000D00015FD000015FD000015FD000015FD0000D8
:1000E00015FD000015FD000015FD000015FD0000C8
:1000F00015FD0000AD15010015FD0000C916010039
:1001000015FD0000D504010015FD000015FD0000DF
:1001100015FD000015FD000015FD000015FD000097
:1001200015FD000015FD000015FD000015FD000087
:1001300015FD000015FD000015FD000015FD000077
:1001400015FD000015FD000015FD000015FD000067
:1001500079F500008DF50000A1F50000B5F500006F
:1001600015FD00003507010015FD000015FD00001C
:1001700015FD000015FD000015FD000015FD000037
:1001800015FD000015FD000015FD000015FD000027
:1001900015FD000015FD000015FD000015FD000017
:1001A00015FD000015FD000015FD000015FD000007
:1001B00015FD000015FD000015FD0000564B4CF22A
:1001C000205210B51A804DF628121A8000BF00BFC9
:1001D0000FF0A4FD514B4FF010621A60504A9A6024
:1001E000504ADA60504A136813F4807301BF4F49D4
:1001F0000B604FF4A85313604D4B4E491A7810070B
:1002000042BF1A7842F008021A704B4B2A221A7029
:100210004A4A4B4B8B4204D252F8040F43F8040B6A
:10022000F8E7484B484A0021934202D243F8041BA6
:10023000FAE7464A4648002350F8231042F82310B4
:1002400001336F2BF8D1434B434A802103F8011B44
:100250009342FBD1414B3D4A1A60414B8A221A70AE
:10026000A3F5805324225A70A0221A709A7991071C
:10027000FCD59A79D206FCD43A4A937903F00C0360
:10028000082B384BF9D103221A7146225A719A79F8
:100290009406FCD533498A79324B5006FBD5324A55
:1002A0004FF0827111600921516020221A709A79F1
:1002B00002F00C020C2AFAD12C4B2D4A1A602D4B5D
:1002C0002D4A1A6000225A60072243F8042C2B4A58
:1002D000C3F80C2D62B60FF0A9FE144B1B68DA07A9
:1002E00005D527480FF094FD264B274A1A60274B67
:1002F0001B785B0609D5234C234B22689A4204D114
:100300001F480FF085FD0023236017F0C9FA0FF096
:100310000BFD0FF021FCFEE70E200540308004406D
:10032000823F04000100002B10D0034014D0034092
:1003300002D007400092FF1F00E007400C27020098
:100340002C8CFF1F0092FF1F34C8FF1F0082FF1F6D
:100350000000000000E400E05FE400E008ED00E0E1
:1003600000500640004006404480044004800440A1
:10037000C010050014E000E0BFD401000000202000
:100380003563515A1CE00340A5C3945A00F007405E
:10039000FFFFFFFFFFFFFFFFFFFFFFFFFFFFFFFF6D
:1003A000FFFFFFFFFFFFFFFFFFFFFFFFFFFFFFFF5D
:1003B000FFFFFFFFFFFFFFFFFFFFFFFFFFFFFFFF4D
:1003C000FFFFFFFFFFFFFFFFFFFFFFFFFFFFFFFF3D
:1003D000FFFFFFFFFFFFFFFFFFFFFFFFFFFFFFFF2D
:1003E000FFFFFFFFFFFFFFFFFFFFFFFFFFFFFFFF1D
:1003F000FFFFFFFFFFFFFFFFFFFFFFFFFFFFFFFF0D
:10040000FFFFFFFFFFFFFFFFFFFFFFFFDEF9FFFF23
:1004100010B5054C237833B9044B13B10448AFF33E
:1004200000800123237010BD0092FF1F0000000018
:1004300008270200084B10B51BB108490848AFF364
:1004400000800848036803B910BD074B002BFBD0A0
:10045000BDE81040184700BF000000000492FF1FD5
:10046000082702000092FF1F0000000000207047D4
:1004700070470369C268934210B509D282685C1C58
:100480000461D154826803690021D154012010BD58
:10049000002010BD10B544F2040403595A18B2F5F7
:1004A000804F9FBF033121F00301C218C9189ABFC2
:1004B0000151101D002010BD18B111B100680139A3
:1004C000FAE7704738B504460D4634B161682846EE
:1004D00017F05CFB08B12468F7E7204638BD70B51B
:1004E000044608460D4617F07EFB2368024629465F
:1004F00020465B68BDE87040184738B505460FF0E8
:1005000074F8044628460FF091F8204438BD38B5F9
:100510000546FFF7E4FF044628460FF087F820441D
:1005200038BD38B5836814464268054618199042AC
:1005300002D993420AD2D41A28682246184411F0EC
:1005400097FCAB682344AB60204638BD002038BD23
:1005500038B583681446426805461819904202D996
:1005600093420AD2D41A28682246184411F086FD14
:10057000AB682344AB60204638BD002038BD10B5C1
:1005800004460068FFF7ABFF63681844606010BD65
:1005900010B586B00B4606A9002201F8032D0A24E7
:1005A000B3FBF4F204FB1233303301F8013D134680
:1005B000002AF5D1FFF7E3FF06B010BD10B50446E1
:1005C000006803681B68984763681844606010BD42
:1005D00070B505460C4619B91149FFF7D0FF70BD3B
:1005E0002221FFF7EBFF013C14F8011F71B10D4B05
:1005F00013F8026C7EB1023313F8032C8A42F7D150
:100600005C212846FFF7DAFF314604E02221284624
:10061000FFF7D4FF70BD2846FFF7D0FFE4E700BF27
:10062000188601001F86010008B5032809D8DFE8F5
:1006300000F010020406084808BD084808BD084834
:1006400008BD0438C0B2FFF7EFFF064916F026FDDB
:1006500008BD4FF07E5008BDCDCCCC3D0AD7233C21
:100660006F12833A17B7D1382DE9F0410646084694
:100670000C46174616F0D8FE08B14E4917E0002187
:10068000204616F0A9FE28B12D213046FFF796FF2F
:1006900004F1004424F000454749284616F0C4FE02
:1006A00050B94549284616F0A1FE28B943493046BD
:1006B000FFF765FFBDE8F0814149204616F0AAFE2C
:1006C0000546002872D13F49204616F085FE70B9D4
:1006D00005461FE04FF07E51204616F07DFE60B1CA
:1006E0002046394916F0DAFC013D2DB204460021BE
:1006F000204616F067FE0028ECD03349204616F05D
:1007000089FE38B12046304916F07CFD01352DB206
:100710000446F2E73846FFF787FF4FF07C5116F0AA
:10072000BDFC214616F0B2FB804616F0B9FE044629
:1007300001463046FFF72CFF2FB3204616F056FC3B
:100740000146404616F0A0FB2E2180463046FFF7BA
:1007500035FF1D49404616F0A1FC804616F0A0FE6C
:10076000C4B2204616F042FC0146404616F08CFB0F
:1007700004F130018046C9B23046013FFFF71EFF49
:1007800017F0FF07E5D1002D05DA10493046FFF7D5
:10079000F6FE694205E00BD065213046FFF70EFFFB
:1007A00029463046FFF7F4FEBDE8F08100259EE7BC
:1007B000BDE8F0812C860100FFFF7F7F33860100BA
:1007C00000007A446F12833A000020413086010015
:1007D0000246084619B10B6811461B681847704756
:1007E00038B5084D2B6813F0010409D128460FF0E5
:1007F000B3FA28B1044B28461C605C600FF0B1FAD4
:10080000014838BD2892FF1F2C92FF1F08B5406891
:10081000FFF758FE20B1037A062B01D1C06808BD4E
:10082000FFF7DEFF08BDFFFF38B5084D2B6813F05A
:10083000010409D128460FF08FFA28B1044B28464D
:100840001C605C600FF08DFA014838BD1C92FF1FE0
:100850002092FF1F03780D2B09D003D8093B012BF1
:1008600023D804E0202B02D02F2B02D07047013078
:10087000F0E743782A2B02D02F2B0DD07047831C32
:100880001A7818460133002AE4D02A2AF8D11A78B7
:100890002F2AF5D10230DDE7831C184613F8012B0F
:1008A000002AD7D00A2AF8D1D4E7704738B50446D1
:1008B00000680D46FFF7CEFF0378AB4205D101304B
:1008C000FFF7C8FF2060012038BD002038BDFFFFC2
:1008D00070B5436882681C78272C0ED0222C0CD06F
:1008E00047F6ED7524E05C2905D1AB1CA978174DBE
:1008F0002E7856B911B302F8011B1D4601336978F1
:10090000E1B18C42EFD1AB1C18E0B14201D1697862
:10091000F0E70235ECE7A4F12B01C9B20E290DD89E
:1009200025FA01F1C90709D502F8014B13F8014F67
:1009300024F0200141391929EDD8F5E7002102F80A
:10094000011B816843608260084670BD21860100FA
:10095000027838B505460C46072A3BD8DFE802F096
:1009600040241F2F2A26041B45685B212046FFF7E1
:1009700025FE6D6855B1281D2146FFF7E9FF2D685A
:1009800025B12C212046FFF719FEF3E75D21204613
:10099000FFF714FE38BD406800F028F838BD416804
:1009A0002046FFF715FE38BD41680FE02D21204697
:1009B000FFF704FE69682046FFF7EAFD38BD41688D
:1009C000084B094A002914BF114619462046FFF773
:1009D000D6FD38BD083A4168D2B22046FFF744FE42
:1009E00038BD00BF418601003C86010070B5054658
:1009F0000C4620467B21FFF7E1FD6D68A5B12E4630
:100A0000204656F8041FFFF7E3FD3A212046FFF782
:100A1000D5FD2146301DFFF79BFF2D6825B12C2108
:100A20002046FFF7CBFDE9E77D212046FFF7C6FD15
:100A300070BD10B5014604460820FFF7C9FE18B185
:100A400000230460436010BDFFF7CAFE10BD10B55F
:100A5000014604460820FFF7BBFE18B100230460DE
:100A6000436010BDFFF7E0FE10BDFFFF037810B537
:100A7000052B17D8DFE803F01A08080303054068C0
:100A800010BD4068404210BD44688CB121460A4800
:100A900017F07CF870B120460A220021BDE8104012
:100AA00017F044B9406816F0D5FC10BD002010BD09
:100AB000204610BD012010BD3C86010070B50446E3
:100AC0000FF080FAE0640FF07DFA254600232065E0
:100AD00045F85C3F4FF48A700FF064F929460646EA
:100AE0000EF00CFC266704F1780011F0A9FF04F168
:100AF000980011F0A5FF204670BD08037047FFFF66
:100B0000002238B51146044602F04AF80023626D0F
:100B100002EB43025D1CB2F89C206900204602F003
:100B20003FF8042D2B46F2D10025636D03EB4503FE
:100B3000691DB3F8A42049002046013502F030F8C1
:100B4000042DF2D10025636D03EB450305F1090186
:100B5000B3F8AC2049002046013502F021F8042DFD
:100B6000F1D10025636D03EB450305F10D01B3F8E9
:100B70007C2049002046013502F012F8082DF1D101
:100B80000025636D03EB450305F11501B3F88C20D7
:100B900049002046013502F003F8082DF1D1024941
:100BA0000248FFF7B4FC38BD47860100EC8EFF1FFA
:100BB000F8B50021044602F005F84FF6FF7398429D
:100BC00019D132493248FFF7A2FC30493048FFF7CB
:100BD0009EFC2E492E48FFF79AFC2C492C48FFF723
:100BE00096FC2A492A48FFF792FC28492848FFF733
:100BF0008EFC0120F8BD00256F1C666D7900204633
:100C000001F0E0FF06EB4505042FA5F89C003D46EA
:100C1000F2D10025691D666D4900204601F0D2FF22
:100C200006EB45060135042DA6F8A400F2D10025F7
:100C300005F10901666D4900204601F0C3FF06EB8E
:100C400045060135042DA6F8AC00F1D1002505F1CB
:100C50000D01666D4900204601F0B4FF06EB450624
:100C60000135082DA6F87C00F1D1002505F115010C
:100C7000666D4900204601F0A5FF06EB45060135EB
:100C8000082DA6F88C00F1D10020F8BD7186010076
:100C9000EC8EFF1F10B588B00023013A0591069233
:100CA0000B7003AA064C8DF8103001A9039407932A
:100CB00001920293FFF79AFE029808B010BD00BFA0
:100CC000FC85010010B5016804460C20FFF780FD8B
:100CD00010B100230360037163682BB11A680AB175
:100CE0001346FBE7186010BD606010BD10B50C46E0
:100CF000FFF7E8FF40B12368002BAEBF04225B4240
:100D0000052202718360012010BD10B50C46FFF76B
:100D1000D9FF20B12378836004220271012010BD25
:100D200010B50C46FFF7CEFF48B194F90030002B08
:100D3000AEBF04225B42052202718360012010BD18
:100D400010B5016804461020FFF742FD10B10023E2
:100D50000360037263682BB11A680AB11346FBE79C
:100D6000186010BD606010BD2DE9F74305460746C9
:100D700055F8040BFFF76BFE7B2104462846FFF76E
:100D800095FD98B37D212846FFF790FD88BB064668
:100D9000E8463846FFF79CFD814638B33A2128469D
:100DA000FFF784FD10B3414638468DF8006000F02F
:100DB00024F8D8B149466068FFF784FB28B920467B
:100DC000FFF7BEFF90B1C0F8049000F1080398E867
:100DD000030083E803007D212846FFF767FD40B943
:100DE0002C212846FFF762FD0028D2D1FFF71CFD19
:100DF00000E0204603B0BDE8F08370B5047B0546F3
:100E00000E46002C36D0013C04734068FFF722FDEB
:100E1000686004785B2C02D07B2C09D013E0284654
:100E200000F02AF803680BB9002420E0062306E04E
:100E30002846FFF799FF0368002BF5D0072333708E
:100E40007060012413E0272C04D0A4F122035C423B
:100E50005C4100E001242846FFF73AFD0028E3D07A
:100E600014B10223337001E00124347070602B7BD5
:100E700001332B73204670BD2DE9F34105468046B2
:100E800055F8040BFFF7D5FD5B2104462846FFF714
:100E90000DFD08B35D212846FFF708FDF8B90646A9
:100EA0006F46394640468DF80060FFF7A6FF98B1BF
:100EB0002046FFF707FF78B1031D97E8030083E89A
:100EC00003005D212846FFF7F1FC40B92C2128469C
:100ED000FFF7ECFC0028E4D1FFF782FC00E020469D
:100EE00002B0BDE8F08170B5054600680E4610B945
:100EF000FFF776FC70BDFFF79CFD3146044668683D
:100F0000FFF7E0FA20B92846FFF71AFF48B146601C
:100F10002368002B15BF06220022234600230272FD
:100F2000C360204670BDFFFF2DE9F04FADF5804D49
:100F300087B006468DF806308B4B049304A844F224
:100F400004034FF0000B8DF8072040F803B08A46E9
:100F5000FFF77DFD85490746FFF7C5FF9DF8073080
:100F6000B16D4FF4116505FB031101F6070104464D
:100F7000FFF7CBFE9DF80730B16D05FB031101F6BD
:100F800013012046FFF7C1FE9DF80730B16D05FB48
:100F9000031101F60E012046FFF7B7FE9DF807305A
:100FA000B16D05FB031101F60F012046FFF7ADFE01
:100FB0000DF107012046FFF7A8FE0DF106012046BE
:100FC000FFF7A3FE9DF80730B16D05FB031101F695
:100FD000E6012046FFF7A4FE9DF80730B16D05FB42
:100FE000031101F614012046FFF79AFE9DF8073021
:100FF000B16D05FB031101F615012046FFF790FEC8
:101000009DF80730B16D05FB031101F6160120466E
:10101000FFF786FE9DF80730B16D05FB031101F661
:1010200017012046FFF77CFE9DF80730B16D05FBE8
:10103000031101F618012046FFF767FE9DF80730FF
:10104000B16D05FB031101F619012046FFF75DFEA6
:101050009DF80730B16D05FB031101F61A0120461A
:10106000FFF753FE9DF80730B16D05FB031101F644
:101070001B012046FFF749FE9DF80730B16D05FBC7
:10108000031101F61C012046FFF73FFE9DF80730D3
:10109000B16D05FB031101F61D012046FFF735FE7A
:1010A0009DF80730B16D05FB031101F61E012046C6
:1010B000FFF72BFE9DF80730B16D05FB031101F61C
:1010C00006012046FFF721FE9DF80730B16D05FBB4
:1010D000031101F609012046FFF717FE9DF80730BE
:1010E000B16D05FB031101F60A012046FFF70DFE65
:1010F0009DF80730B16D05FB031101F60B01204689
:10110000FFF703FE9DF80730B16D05FB031101F6F3
:101110000C012046FFF7F9FD9DF80730B16D05FB86
:10112000031101F60D012046FFF7EFFD9DF8073092
:10113000B16D05FB031101F501612046FFF7E5FDE7
:101140000B493846FFF7CFFE06AC804644F80CBD8D
:1011500023683F2B00F3E680D8F8000050B9FFF772
:101160003FFB834617E000BF148601002DB5010048
:10117000348A0100FFF75DFC83464046FFF7A2FD7D
:1011800048B1DBF80030002B16BF06230023D946F8
:101190000371C0F8089021465846FFF7A7FDB16DCE
:1011A0009DF8073005FB03132168584603EB4111F6
:1011B000FFF7ABFD9DF80730B16D05FB0311236808
:1011C00001EB431101315846FFF79FFD9DF80730B1
:1011D000B16D05FB0311236801EB43110231584641
:1011E000FFF793FD9DF80730B16D05FB03112368F0
:1011F00001EB431103315846FFF787FD9DF8073097
:10120000B16D05FB0311236801EB4311043158460E
:10121000FFF77BFD9DF80730B16D05FB03112368D7
:1012200001EB43110C315846FFF77AFD9DF807306A
:10123000B16D05FB0311236801EB431105315846DD
:10124000FFF763FD9DF80730B16D05FB03112368BF
:1012500001EB431106315846FFF757FD9DF8073063
:10126000B16D05FB0311236801EB431107315846AB
:10127000FFF74BFD9DF80730B16D05FB03112368A7
:1012800001EB431108315846FFF73FFD9DF8073049
:10129000B16D05FB0311236801EB43110931584679
:1012A000FFF733FD9DF80730B16D05FB031123688F
:1012B00001EB43110A315846FFF727FD9DF807302F
:1012C000B16D05FB0311236801EB43110D31584645
:1012D000FFF726FD9DF80730B16D05FB031123686C
:1012E00001EB43110E315846FFF70FFD9DF8073013
:1012F000B16D05FB0311236801EB43111031584612
:10130000FFF703FD9DF80730B16D05FB031123685E
:1013100001EB43110B315846FFF7F7FC236801330B
:10132000236015E74FF4805251463846FFF7B2FC70
:101330000DF5804D07B0BDE8F08F00BF2DE9F047F7
:1013400088B004468946924601F025F95FFA80F894
:1013500004EB0805AB791BB1204601F09FF9F9E7D2
:101360000125E5700EF02EFE2065334816F020FCB6
:10137000294606464FF4805016F076FA5346074643
:1013800001464A462046FFF7CFFD11F061F80028DC
:10139000FBD0314604A811F087F904F15C0304AADC
:1013A0000DF1180C9E46154603CD65451860596031
:1013B0002A4603F10803F6D128681860AA889A80A3
:1013C000E36DD3B14FEA08334FF480523946636678
:1013D0007046FFF7BDF801224146204601F0D8F8DB
:1013E000384616F0A7FA304616F0A4FA0023E37048
:1013F0000123237008B0BDE8F08710491048FFF7BB
:1014000086F8104904A80EF0D6F9314668460EF069
:10141000D2F9694604A80EF08DFA01460848FFF794
:101420006CF868460EF087F904A80EF084F90349B9
:101430000348FFF76CF8D3E79C860100A5860100FE
:10144000EC8EFF1FB48601002DE9F04304468DB0F9
:10145000564816F0ADFB0746204601F029FB204612
:1014600001F0A6F8524904A80EF0A5F939466846DD
:101470000EF0A1F9694604A80EF05CFA4D490EF091
:1014800061FA0A2205464FF4802108A80EF0C6F939
:1014900008A928460EF04EFA01464748FFF72DF8F6
:1014A00008A80EF048F968460EF045F904A80EF0B9
:1014B00042F911F0C3F84FF480210246384611F08A
:1014C0007BF900253D4908A80EF075F90A22294646
:1014D00004A80EF0A3F904A908A80EF02BFA3849C5
:1014E0000EF030FA01463448FFF707F804A80EF072
:1014F00022F908A80EF01FF900265FFA85F84FF4CC
:101500001169A06DF2B209FB06004146013603F0F5
:1015100005FC042EF5D12B492748FEF7F8FF0026DD
:10152000F1B2424620460136FFF708FF042EF7D1FC
:1015300025492148FEF7EBFF23781BB1204601F037
:10154000ADF8F9E7214908A80EF035F90A22294635
:1015500004A80EF063F904A908A80EF0EBF91849E5
:101560000EF0F0F901461448FEF7C7FF04A80EF08C
:10157000E2F808A80EF0DFF801354FF4FA700EF02B
:101580003FFD102D9ED123781BB1204601F086F837
:10159000F9E764200EF034FD384616F0CBF90C491B
:1015A0000548FEF7B4FF0DB0BDE8F083CF8601001B
:1015B000D7860100EC860100EC8EFF1FF486010047
:1015C00027870100458701005A8701006E870100C7
:1015D0009A870100F0B52A4989B005462948FEF7E7
:1015E00096FF294816F0E4FA064611F0D9F838B902
:1015F00026492448FEF78BFF2846FFF725FF39E0F0
:1016000010F026FF0028FBD0314604A811F04CF85A
:1016100006AF04AA05F15C03144603CCBC42186073
:101620005960224603F10803F6D120681860A288A9
:101630009A80EB6DBBB1164904A80EF0BCF80A22E3
:10164000296E68460EF010F9694604A80EF072F98A
:1016500001460C48FEF751FF68460EF06CF804A8EE
:101660000EF069F803E00B490648FEF750FF0A2028
:101670000EF0C6FC304609B0BDE8F04016F05AB98D
:10168000BD870100EC8EFF1FCF860100D4870100CB
:10169000F48701000E880100F8B5084F054616468C
:1016A00000243B782341DB0704D5325DE1B22846B4
:1016B000FFF744FE0134042CF3D1F8BD8C8DFF1FDD
:1016C0002DE9F041ADF5814D574B1E93044644F290
:1016D00004031EA80022C2500F46FFF7B8F9534971
:1016E0000646FFF700FC11231AA91A930546FFF7D7
:1016F000FDFA616D28464131FFF707FB616D284611
:101700004231FFF702FB616D28464331FFF7FDFAD6
:10171000616D28464431FFF7F8FA616D284645317E
:10172000FFF7F3FA616D28464631FFF7EEFA4049BC
:10173000404D06A80EF03FF8636D02A893F84110E3
:101740000EF059F802A906A80EF0F4F829460EF09A
:10175000F9F8636D804693F842100AA80EF04BF832
:101760000AA940460EF0E6F829460EF0EBF8636D44
:10177000804693F843100EA80EF03DF80EA940469F
:101780000EF0D8F829460EF0DDF8636D804693F828
:10179000441012A80EF02FF812A940460EF0CAF815
:1017A00029460EF0CFF8636D16AA93F84510019202
:1017B000804610460EF01FF8019940460EF0BAF828
:1017C00029460EF0BFF8636D804693F846101AA8BC
:1017D0000EF011F81AA940460EF0ACF829460EF0AA
:1017E000B1F801461448FEF788FE1AA80DF0A3FFD1
:1017F00001980DF0A0FF12A80DF09DFF0EA80DF0AE
:101800009AFF0AA80DF097FF02A80DF094FF06A812
:101810000DF091FF4FF4805239463046FFF73AFA07
:101820000DF5814DBDE8F081148601002DB5010054
:1018300042880100688E0100EC8EFF1F2DE9F04107
:10184000044688B0384816F0B3F9012107464FF432
:10185000805016F009F8064601462046FFF730FF93
:1018600010F0F6FD0028FBD0304904A80DF0A3FFCE
:10187000314668460DF09FFF694604A80EF05AF8FD
:1018800001462B48FEF739FE68460DF054FF04A8C8
:101890000DF051FF394604A810F006FF04F15C0377
:1018A00004AA0DF1180E9846154603CD754518602B
:1018B00059602A4603F10803F6D128681860AA88FF
:1018C0009A80E36D8BB100254046656611F068F89B
:1018D00065664FF4805231464046FEF739FE304689
:1018E00008B0BDE8F04116F025B812491048FEF7DF
:1018F0000EFE114904A80DF05EFF394668460DF052
:101900005AFF694604A80EF015F801460848FEF78C
:10191000F4FD68460DF00FFF04A80DF00CFF05491B
:101920000348FEF7F4FDDAE75B8801003E8A010018
:10193000EC8EFF1FA5860100B4860100F0B5324988
:1019400089B004463148FEF7E2FD314816F030F91F
:10195000064610F025FF90B92E492C48FEF7D7FD1A
:1019600010F06CFE4FF480310246304610F024FF38
:10197000606D0AF063FA2046FFF760FF38E0264901
:101980002248FEF7C4FD10F063FD0028FBD031466D
:1019900004A810F089FE06AF04AA04F15C03154602
:1019A00003CDBD42186059602A4603F10803F6D101
:1019B00028681860AA889A80E36DFBB1174904A8CB
:1019C0000DF0F9FE0A22216E68460DF04DFF6946C2
:1019D00004A80DF0AFFF01460C48FEF78EFD6846E7
:1019E0000DF0A9FE04A80DF0A6FE0A200EF008FBDB
:1019F000304609B0BDE8F04015F09CBF08490348E7
:101A0000FEF785FDF4E700BF64880100EC8EFF1F40
:101A10005B88010086880100BA880100D588010032
:101A2000F188010010B54068FEF746FD00B3037968
:101A3000052B13D8DFE803F01605050303038068C0
:101A400015E0846884B121460A4816F09FF868B111
:101A50000A220021204616F001FA08E0806815F0FD
:101A60001FFD04E0002002E0204600E00120C0B29B
:101A700010BD00BF3C8601002DE9F041ADF5814D60
:101A8000754B1E931EAA44F2040320AD4FF00008CC
:101A900042F80380714B45F8182D414518BF0B469D
:101AA0006B6004460A232846A9602B73FFF75CF994
:101AB0000768064647B905200EF0A2FA684969484A
:101AC000FEF725FD3846C2E06749FEF79FFE414616
:101AD0004068FEF7F1FC20B10430FEF7C7FF112883
:101AE00006D0606D0AF0AAF92046FFF7A7FEADE028
:101AF0005D49676D3046FEF789FE0121FFF792FFD1
:101B0000594987F841003046676DFEF77FFE022194
:101B1000FFF788FF544987F842003046676DFEF7AB
:101B200075FE0321FFF77EFF4F4987F843003046DB
:101B3000676DFEF76BFE0421FFF774FF4A4987F8D3
:101B400044003046676DFEF761FE0521FFF76AFF2E
:101B5000454987F845003046676DFEF757FE062178
:101B6000FFF760FF414987F8460006A80DF023FE05
:101B7000636D02A893F841100DF03DFE02A906A87E
:101B80000DF0D8FE3A490DF0DDFE636D064693F880
:101B900042100AA80DF02FFE0AA930460DF0CAFE29
:101BA00033490DF0CFFE636D064693F843100EA83F
:101BB0000DF021FE0EA930460DF0BCFE2C490DF0B3
:101BC000C1FE636D064693F8441012A80DF013FE93
:101BD00012A930460DF0AEFE25490DF0B3FE636D3F
:101BE00016AA93F845100192064610460DF003FE22
:101BF000019930460DF09EFE1D490DF0A3FE636D68
:101C0000064693F8461028460DF0F5FD2946304665
:101C10000DF090FE16490DF095FE01461148FEF7B5
:101C20006CFC28460DF087FD01980DF084FD12A88C
:101C30000DF081FD0EA80DF07EFD0AA80DF07BFDD4
:101C400002A80DF078FD06A80DF075FD01200DF538
:101C5000814DBDE8F08100BF14860100698E01004E
:101C600027890100EC8EFF1F2DB501005589010069
:101C7000688E01002DE9F041054688B05D4815F0F9
:101C800097FF064610F0E4FB20B95B495B48FEF77E
:101C90003EFCF7E7304610F083FDC8B1314604A89A
:101CA00010F002FD05F15C0304AA0DF118081F46AF
:101CB000144603CC444518605960224603F10803DA
:101CC000F6D120681860A2889A80EB6D2BB970E07D
:101CD000304615F02FFE012088E04FF4805015F0BB
:101CE00021FE0023014604466B664FF480523846BD
:101CF000FEF717FC21462846FFF7BEFE002837D125
:101D0000204615F017FE314604A810F0CDFC04AAB9
:101D10003B469646BEE80300C645186059607246C9
:101D200003F10803F5D1DEF800001860BEF80420C6
:101D30009A8033493148FEF7EAFB002321466B665F
:101D40004FF480523846FEF7ECFB21462846FFF759
:101D500093FE68B921462948FEF7D9FB294927484F
:101D6000FEF7D5FB686D0AF069F82846FFF766FDB7
:101D7000254904A80DF01FFD214668460DF01BFD06
:101D8000694604A80DF0D6FD01461C48FEF7B5FBD8
:101D900068460DF0D0FC04A80DF0CDFC0A200EF032
:101DA0002FF9204615F0C6FD304615F0C3FD002082
:101DB0001CE0164904A80DF0FEFC314668460DF003
:101DC000FAFC694604A80DF0B5FD11490DF0BAFD05
:101DD00001460A48FEF791FB68460DF0ACFC04A8EA
:101DE0000DF0A9FC304615F0A5FD022008B0BDE8B5
:101DF000F08100BF5B88010072890100EC8EFF1F3B
:101E000085890100CF890100398A01004B8A0100D0
:101E1000888A0100F0B589B004460F462748284952
:101E20001D461646FEF773FB0E9B63670F9BA76468
:101E3000A665E5666365162010F08AFB18B921498E
:101E40001E48FEF764FB00236370A370E370621DFD
:101E500004F1450102F8013F8A42FBD172B62046E7
:101E6000FFF7B8FB2046FFF769FD62B62046FFF793
:101E700001FF0446B8B1144904A80DF09CFC0A22E5
:101E8000214668460DF0CAFC694604A80DF052FDD3
:101E900001460A48FEF731FB68460DF04CFC04A8E9
:101EA0000DF049FC03E009490448FEF730FB0849FE
:101EB0000248FEF72CFB09B0F0BD00BFEC8EFF1FFF
:101EC0009B8A0100C98A0100EF8A0100138B01007F
:101ED000268B010008B54068FEF7EEFA18B1043011
:101EE000FEF7C4FD40B208BD08B54068FEF7E4FA4D
:101EF00020B10379062B01D1806808BDFEF770FC84
:101F000008BDFFFF2DE9F04FADF5804D99B0BD4BF9
:101F1000169318AF8A4644F2040316A94FF0000B3B
:101F200047F8181D41F803B0B74BBA605A4518BFBF
:101F3000134605464FF00A0938467B6087F80C9037
:101F4000FEF712FF4FF41164AB6DB04904FB0AF4C5
:101F5000064603EB0408FEF759FC5946FFF762FDFD
:101F600088F80708AB6DA949304603EB0408FEF773
:101F70004DFC0121FFF756FD88F81308AB6DA3490E
:101F8000304603EB0408FEF741FC0221FFF74AFD4F
:101F900088F80E08AB6D9D49304603EB0408FEF748
:101FA00035FC0321FFF73EFD88F80F08AB6D97491C
:101FB000304603EB0408FEF729FC0421FFF732FD4D
:101FC00088F81208AB6D9149304603EB0408FEF720
:101FD0001DFC0521FFF726FD88F81108AB6D8B4924
:101FE000304603EB0408FEF711FC0621FFF772FFF1
:101FF00088F8E608AB6D8549304603EB0408FEF728
:1020000005FC0721FFF766FF88F81408AB6D7F49D0
:10201000304603EB0408FEF7F9FB0821FFF75AFFEF
:1020200088F81508AB6D7949304603EB0408FEF7D4
:10203000EDFB0921FFF74EFF88F81608AB6D7349D9
:10204000304603EB0408FEF7E1FB4946FFF742FF89
:1020500088F81708AB6D6D49304603EB0408FEF7AE
:10206000D5FB0B21FFF7DEFC88F81808AB6D67493C
:10207000304603EB0408FEF7C9FB0C21FFF7D2FC46
:1020800088F81908AB6D6149304603EB0408FEF788
:10209000BDFB0D21FFF7C6FC88F81A08AB6D5B4944
:1020A000304603EB0408FEF7B1FB0E21FFF7BAFC44
:1020B00088F81B08AB6D5549304603EB0408FEF762
:1020C000A5FB0F21FFF7AEFC88F81C08AB6D4F494C
:1020D000304603EB0408FEF799FB1021FFF7A2FC42
:1020E00088F81D08AB6D4949304603EB0408FEF73C
:1020F0008DFB1121FFF796FC88F81E08AB6D434954
:10210000304603EB0408FEF781FB1221FFF78AFC3F
:1021100088F80608AB6D3D49304603EB0408FEF72E
:1021200075FB1321FFF77EFC88F80908AB6D374972
:10213000304603EB0408FEF769FB1421FFF772FC3D
:1021400088F80A08AB6D3149304603EB0408FEF706
:102150005DFB1521FFF766FC88F80B08AB6D2B497A
:10216000304603EB0408FEF751FB1621FFF75AFC3B
:1021700088F80C08AB6D2549304603EB0408FEF7E0
:1021800045FB1721FFF74EFC88F80D08AB6D1F4982
:10219000304603EB0408FEF739FB1821FFF742FC39
:1021A0001B4988F810083046FEF730FBAB6D23441E
:1021B000804693F8073813BB4FF00309154938469A
:1021C0000DF0F9FA51460EA80DF015FB0EA9384690
:1021D0000DF0B0FB10490DF0B5FB01460F48FEF7BE
:1021E0008CF90EA80DF0A7FA38460DF0A4FAB9F153
:1021F0000109E3D1AB6D2344102283F8072800279F
:102200000EE000BF14860100698E01002DB50100AB
:10221000348A0100618B01006A8B0100EC8EFF1F84
:1022200039464046FFF760FE0121FFF7FBFB3946C8
:1022300001904046FFF758FE0221FFF7F3FB3946B5
:1022400002904046FFF750FE0321FFF7EBFB3946B3
:1022500003904046FFF748FE0421FFF7E3FB3946B1
:1022600004904046FFF740FE0521FFF7DBFB3946AF
:1022700005904046FFF738FE0621FFF72BFE394652
:1022800006904046FFF730FE0721FFF7CBFB3946AB
:1022900007904046FFF728FE0821FFF7C3FB3946A9
:1022A00008904046FFF720FE0921FFF7BBFB3946A7
:1022B00009904046FFF718FE0A21FFF7B3FB3946A5
:1022C0000A904046FFF710FE0B21FFF7ABFB3946A3
:1022D0000B904046FFF708FE0C21FFF7A3FB3946A1
:1022E0000D904046FFF700FE0D21FFF7F3FD394644
:1022F00083464046FFF7F8FD0E21FFF793FB394672
:1023000082464046FFF7F0FD0F21FFF78BFB394671
:1023100081464046FFF7E8FD1021FFF783FB394671
:102320000C904046FFF7E0FD0021FFF77BFBA96D15
:102330009DF804300D9A01EB040E40010EEB0001F4
:102340000EF800309DF808304B709DF80C308B7003
:102350009DF81030CB709DF814300B719DF81C3037
:102360004B719DF820308B719DF82430CB719DF816
:1023700028300B729DF82C304B7201370C9BCB72BE
:10238000402F9DF818308A720B7381F80DB081F8D8
:102390000EA081F810907FF443AF3068003018BF72
:1023A00001200DF5804D19B0BDE8F08F2DE9F04703
:1023B000044688B055480F46914615F0F9FB05468E
:1023C00010F046F820B952495248FEF7A0F8F7E756
:1023D000284610F0E5F9C8B1294604A810F064F9C0
:1023E00004F15C0304AA0DF1180A9846164603CEC0
:1023F000564518605960324603F10803F6D130683B
:102400001860B2889A80E36D2BB95FE0284615F01A
:1024100091FA012077E04FF4805015F083FA4A4694
:1024200006463946204600F0B6F8C0B200036066A2
:102430004FF4805231464046FEF773F83246394633
:102440002046FFF75FFD002838D1304615F072FABC
:10245000294604A810F028F904AA43469646BEE887
:102460000300D64518605960724603F10803F5D1A0
:10247000DEF800001860BEF804209A80264925483E
:10248000FEF745F84A463946204600F084F8C0B2C7
:10249000000360664FF4805231464046FEF741F833
:1024A000324639462046FFF72DFD38B931461948E6
:1024B000FEF72DF819491748FEF729F8304615F0B0
:1024C00039FA284615F036FA00201CE0144904A811
:1024D0000DF071F9294668460DF06DF9694604A8BA
:1024E0000DF028FA0F490DF02DFA01460948FEF7C4
:1024F00004F868460DF01FF904A80DF01CF92846F1
:1025000015F018FA022008B0BDE8F087CF86010068
:1025100072890100EC8EFF1F848B0100EF8B01009C
:102520004B8A0100888A01002DE9F84306460D46D2
:10253000904600244FF4116948FA04F3DB070ED5E6
:10254000E7B22A4639463046FFF730FF012806D168
:10255000B06D3A46294609FB040002F0DFFB013466
:10256000042CE9D1014B1D70BDE8F883E1C1FF1FC8
:1025700013B9044B1B780BB9FFF7D6BF024B197088
:10258000704700BFD6C1FF1FD9C1FF1F0DF06ABA47
:1025900001448A71704701EB8200704708B5034817
:1025A00015F006FBBDE8084010F0FAB8CF86010030
:1025B000F0B5334989B004463248FDF7A8FF3248E8
:1025C00015F0F6FA064610F0EBF8F0B92F4904A81A
:1025D0000DF0F1F8314668460DF0EDF8694604A8B3
:1025E0000DF0A8F901462748FDF787FF68460DF072
:1025F000A2F804A80DF09FF810F020F84FF4802105
:102600000246304610F0D8F81CE021491D48FDF77D
:102610007EFF314604A810F047F804F15C0204ABD9
:102620000DF1180E17461D4603CD7545106051601B
:102630002B4602F10802F6D128681060AB8893801F
:10264000E36DBBB9304615F075F90FF001FF38B9ED
:1026500010490C48FDF75BFF64200DF0D1FCF4E756
:10266000002384F8463063700B490648FDF74FFF9E
:1026700009B0F0BD00236366384610F07BF9E1E74E
:102680005F8C0100EC8EFF1F9C860100808C010096
:10269000968C0100B58C0100C98C01002DE9F04F2A
:1026A000C5788FB004460DB10320DBE1471D3A46E3
:1026B00012F8013F4BB10DF085FCE36CC01A4CF2EF
:1026C0005033984240F2CE8104E06B1C402BF2D094
:1026D0001D46EDE7B54815F06BFA8246B44815F093
:1026E00067FA80460FF0B4FE002800F0DD8001217B
:1026F0004FF4805015F0B8F86219EEB29379013BAF
:1027000006F003098346032B00F2CB80DFE803F0D9
:1027100002389AC741460AA801920FF0C5FF04F19A
:102720005C03019A0AAD0DF1300C9946AE46BEE845
:102730000300E64518605960754603F10803F5D1BA
:10274000DEF800001860BEF804109980E36D002BDD
:1027500040F0DD80974906A80DF02DF894F846105A
:1027600002A80DF048F802A906A80DF0E3F8924976
:102770000DF0E8F8414605460AA80DF01CF85FE1A7
:1027800051460AA80FF090FF0AAB04F15C020DF16C
:10279000300C9E46BEE80300E6451060516073466B
:1027A00002F10802F5D1DEF800001060BEF8043036
:1027B0009380E36D002B40F0BA807E4906A80CF0B0
:1027C000FAFF94F8461002A80DF015F802A906A821
:1027D0000DF0B0F879490DF0B5F8494601900AA816
:1027E0000DF009F8019B0AA918460DF0A3F801465F
:1027F0007348FDF782FE0AA80CF09DFF02A80CF0BA
:102800009AFF06A80CF097FF41460AA80FF04CFF6C
:102810000AAA04F15C030DF1300C9646BEE80300F1
:10282000E64518605960724603F10803F5D1DEF8F9
:1028300000001860BEF804209A80E36D002B40F081
:102840009380C1E051460AA80FF02EFF04F15C030B
:102850000AAA0DF1300C01939646BEE80300E64546
:1028600018605960724603F10803F5D1DEF80000E4
:102870001860BEF804209A80E36D002B00F0CB8036
:1028800031462046FEF739F96066019810F088F865
:102890000DF098FB25440423E064AB7101E00023B4
:1028A0009371584615F046F8404615F043F85046E7
:1028B00015F040F8002504F1450317F8012F0AB17F
:1028C0000135EDB29F42F8D12378002B00F0CA8089
:1028D000002D40F0C7803B490AA80CF06CFF0DF0BA
:1028E00071FB216D0A22411A06A80CF0BDFF06A952
:1028F0000AA80DF01FF801463148FDF7FEFD06A8B5
:102900000CF019FF0AA80CF016FF2570AAE031465A
:1029100020460192FEF7F1F86066484610F040F854
:10292000019A022393710DF04DFBE064B9E7314643
:102930002046FEF7E2F8236E606600F580529A4268
:102940000FD99842BFF460AF1B1A1A460193E36D8A
:10295000594618440FF08CFA626E019B134463666B
:1029600052E74FF48053F0E731462046FEF7C5F8B2
:10297000266E606600F58053B34214D9B04209D286
:10298000361AE36D3246184459460FF077FB636EF2
:102990001E4466660DF016FBE06425440323AB710C
:1029A000002363707DE74FF48056EAE79C860100C0
:1029B000CF8601000A8D01002D8D01005B8D010085
:1029C000EC8EFF1FF18C0100284906A80CF0F3FEE5
:1029D00094F8461002A80CF00EFF02A906A80CF00D
:1029E000A9FF23490CF0AEFF494606460AA80CF0A1
:1029F00002FF0AA930460CF09DFF01461D48FDF775
:102A00007CFD0AA80CF097FE02A80CF094FE06A824
:102A10000CF091FEC1E7154906A80CF0CCFE94F825
:102A2000461002A80CF0E7FE02A906A80CF082FFEF
:102A300011490CF087FF494605460AA80CF0DBFE59
:102A40000AA928460CF076FF01460A48FDF755FD15
:102A50000AA80CF070FE02A80CF06DFE06A80CF09F
:102A60006AFE1EE70FB0BDE8F08F00BF0A8D0100BF
:102A70008D8D0100EC8EFF1FC08D01000CF0F2BFA8
:102A800008B5FDF72CFD08BD00230A220CF0DEBDC1
:102A900070B50568044628460E460DF027F88642B4
:102AA00003D0314628460DF035F8204670BDFFFFB3
:102AB0002DE9F04186B004A80FF0F6FB2E4D04A8D6
:102AC0000FF020FD2B680093009F044600284CD097
:102AD0002A492B48FFF7D4FF21462948FFF7D4FFA6
:102AE00028492748FDF713FD27492548FDF70FFD25
:102AF00026492348FDF70BFD0FF01CFC2B680193C2
:102B0000019E00240FF0A4FCA0B92B680293029B45
:102B10009B1BB3F57A7FF5D901341D491848E4B2FF
:102B2000FFF7AEFF3B2C06F57A76EBD914480CF094
:102B30007DFDE6E714B112480CF078FD1549104808
:102B4000FDF7E5FC2B680393039B13490C48DC1B42
:102B5000FFF796FF4FF47A710948B4FBF1F1FFF7E4
:102B600093FF0E490648FDF7D2FC4FF47A700DF042
:102B700047FA06B0BDE8F081ECC1FF1FF38D0100FC
:102B8000EC8EFF1F058E01000D8E0100278E0100C7
:102B9000011402003D8E01004D8E01005D8E01008A
:102BA00073B502AC164644F8041D0D462046D1B25A
:102BB000FFF76EFF0135310A20460195FFF768FFE8
:102BC00002B070BD38B508460D460CF08FFF0446C4
:102BD000681C0CF08BFF04EB002080B238BD0CF0B9
:102BE00041BFFFFF37B504460DF0ECF9324BA06052
:102BF0001B680193019BE3600522D223172104F196
:102C0000100011F0CCFE1722002104F124000DF079
:102C100045F8012384F82430022384F82530032367
:102C200084F82630042384F82730062384F82830DB
:102C3000072384F82930082384F82A30092384F8EC
:102C40002B300B2384F82C300C2384F82D300D23EB
:102C500084F82E300E2384F82F30102384F830307F
:102C6000112384F83130122384F83230132384F88E
:102C70003330052384F835300A2384F836300F23A7
:102C800084F837300D4B03F1100204F13B0110467C
:102C900053F8045B41F8045B9342F9D10368C4F82C
:102CA0004B30074B1A889B78A4F84F20204684F8B5
:102CB000513003B030BD00BFECC1FF1F799101005E
:102CC0008D91010070B504460E460E48162115463A
:102CD0000EF090FA0C480CF0A9FC103444F8106C7B
:102CE00044F80C5C012105200DF0C2F82046C821F3
:102CF00011F0CCFE204611F049FD2046BDE87040A1
:102D000011F098BD90910100EC8EFF1F2DE9F74363
:102D1000DFF86890074600F14B0500244FF4116876
:102D200000F1100699F80030A3423B6808FB043319
:102D30000DD193F81F3829781BB12023019300236C
:102D40000BE040227F208DE805001A460BE093F847
:102D50001F28297822B10023019300937F2202E0EB
:102D6000019200927F233046013411F02EFE042C94
:102D700005F10105D6D103B0BDE8F083CCC1FF1F3A
:102D80002DE9F7430024054600F13B0600F110074A
:102D9000A046E0B2D5F8049009F01CF819F800300C
:102DA000317833B1FF2301930023CDF800801A4618
:102DB00002E00193009340223846013411F005FEF1
:102DC000102C06F10106E4D1284603B0BDE8F0431B
:102DD000FFF79CBFC943C9B2542908D801EB41028F
:102DE0000023A1EB8101481ED2B2194617E0A929A0
:102DF0000BD85539C9B2A1EB8102013A01EB41016F
:102E00000023D2B2C9B218460AE05631C8B2A0EBCC
:102E100080010139002300EB40001A46C9B2C0B25C
:102E200011F02DBE2DE9F347DFF8B480044600F120
:102E30003B0600274FF4116900F11005236898F84C
:102E4000000009FB003001F029FE07EB0010C1B2C1
:102E500098F80030206809FB030090F805388B4291
:102E600002D13178FF2305E000EB41135B7943B9D0
:102E700031780123019300931A46284611F0A5FDED
:102E80000DE0002296F800A002F00DF80146204661
:102E9000FFF7A0FF51460246284611F0BEFD01375C
:102EA000102F06F10106C9D10C4B1E7836B1402116
:102EB0002046FFF78FFF0021024605E0FF21204654
:102EC000FFF788FF31460246284611F0A6FD20464E
:102ED00002B0BDE8F047FFF719BF00BFD6C1FF1F22
:102EE000CCC1FF1F2DE9F04F0446644864490368D4
:102EF0000D68644AB2FBF5F289B0E5680593059B5D
:102F00005B1B9A423FBF03680693069BE3608346C0
:102F1000884604F13B0600275FFA87F9484608F027
:102F200059FF2546584B55F8101B1B784FF411627A
:102F300002FB031A9AF80538834204D1FF23317843
:102F400001937F230BE04846039208F043FF0AEB0E
:102F50004010039A437943B90123317801930093D8
:102F60001A46284611F031FD19E033780393464B99
:102F7000216893F800A0484602FB0A1A08F02AFFCD
:102F800000220146504601F08EFF01462046FFF721
:102F900021FF039B02461946284611F03EFD484694
:102FA00008F018FF394B1B7883420CD1DBF8003056
:102FB00007933749079BD8F80020B1FBF2F2E1688C
:102FC0005B1A9A424FD80137102F06F10106A3D1A0
:102FD000304B1E7836B140212046FFF7FBFE002122
:102FE000024605E0FF212046FFF7F4FE3146024687
:102FF000284611F012FD284B1B78032B2DD8DFE853
:1030000003F002040F1AFF2100E0BF212046FFF762
:10301000E1FE15210246284611F0FFFC7F2114E055
:103020007F212046FFF7D6FE15210246284611F0E3
:10303000F4FCBF2109E07F212046FFF7CBFE1521DC
:103040000246284611F0E9FCFF212046FFF7C2FEA8
:1030500016210246284611F0E0FC2046FFF756FEF6
:1030600009B0BDE8F08F002331780193FF2300936E
:103070001A46284611F0A9FCA5E700BFECC1FF1FC6
:10308000888DFF1F808D5B00CCC1FF1FE0C1FF1F3B
:10309000C0C62D00D6C1FF1FD4C1FF1F2DE9F04FC0
:1030A000DFF8C48185B0044600F14B07002500F12C
:1030B000100698F80030AB420BD14021204697F81B
:1030C0000090FFF787FE49460246304611F0A5FC06
:1030D00007E000233978019300931A46304611F037
:1030E00074FC0135042D07F10107E2D1DFF8789176
:1030F00004F13B054FF0000A5FFA8AF7384608F002
:1031000069FE594B22681B784FF4116808FB032BAA
:103110009BF805288242384636D108F05BFE0BEB5F
:1031200040104379012B06D18023FF2229788DE8B6
:103130000C00002326E099F80030206808FB030B00
:10314000384608F047FE0BEB40104379022B04D1C0
:10315000802329780193002363E099F800302068E8
:1031600008FB0308384608F035FE08EB40102978C4
:103170004379032B03D180230193002264E0FF23D2
:10318000019300931A4661E008F024FE374B1B7848
:10319000834215D1364B2F781B680393039B05217F
:1031A000B3FBF1F1FF2391FBF3F31944C9B22046BD
:1031B000FFF710FE39460246304611F02EFC48E07B
:1031C00099F80030206808FB030B384608F002FE2F
:1031D0000BEB401043790BB92978D1E799F800300F
:1031E000206808FB030B384608F0F4FD0BEB401099
:1031F0004379012B05D1FF22002329788DE80C00AB
:10320000C0E799F80030206808FB030B384608F047
:10321000E1FD0BEB40104379022B05D10023297807
:1032200001930093FF2211E099F80030206808FB19
:103230000308384608F0CEFD08EB40104379032B15
:1032400007D10022297801920092FF23304611F025
:10325000BCFB0AF1010ABAF1100F05F101057FF478
:103260004BAF05B0BDE8F08FCCC1FF1FE0C1FF1F21
:10327000ECC1FF1F2DE9F3470024DFF85490064608
:1032800000F14B0500F11007A04699F80030A34269
:103290000BD1C421304695F800A0FFF79BFD5146A5
:1032A0000246384611F0B9FB09E000232978CDF831
:1032B0000480CDF800801A46384611F086FB0134B0
:1032C000042C05F10105E0D102B0BDE8F08700BF94
:1032D000CCC1FF1F2DE9F04F044685B00D460CF020
:1032E00071FEA368C01A854280F08C800CF06AFEE3
:1032F000464BA0601B78092B04F1100516D008D8A6
:10330000042B03D8032B11D2A3B972E0072B1DD0D5
:103310006FE00E2B03D80D2B08D20A2B04E07D2B77
:1033200026D0F12B1BD0112B63D121E02046FFF7D3
:1033300079FD5EE0636893F840301BB12046FFF7EB
:103340001FFD56E02046FFF7CDFD52E0636893F87D
:103350004030002BF2D12046FFF7A0FE49E0636821
:1033600093F84030002BE9D12046FFF783FF40E07F
:10337000DFF8A8B004F13A0700264FF0050A4FF035
:10338000FF09DBF800300393039BB3FBFAF33344EC
:1033900093FBF9F11944C9B2204617F8018FFFF7E2
:1033A00019FD123602464146284611F036FBB6F5A5
:1033B000907FE6D1164F4B3400264FF040084FF077
:1033C000C8093B782178334113F0010313BF002370
:1033D00001934023CDF8049014BF0093CDF80080F2
:1033E0001A462846013611F0F0FA042E04F10104C1
:1033F000E7D1084B4FF480641C60284611F01AFA9C
:10340000054B1C6005B0BDE8F08F00BF8D8DFF1F20
:103410008C8DFF1F84F00F4088F00F40ECC1FF1F20
:103420000CF020BB521AB2F5004F00F58040B5BF3A
:1034300002FB0002424348F201004FF4004092FBBD
:10344000F0F250187047521AB2F5004F00F5804064
:10345000B5BF02FB0002424348F201004FF40040B6
:1034600092FBF0F2501870472DE9F84304460D46E0
:1034700017461E46AC49AD48DDF82080FDF747F8F9
:103480006764A66300270126C4F84080A849277214
:103490006772A772E77226736673A673E673277462
:1034A0006774A774E77484F82C6084F82D6084F83E
:1034B0002E6084F82F60A761E7612762676284F855
:1034C000286084F8296084F82A6084F82B60974883
:1034D000FDF71DF821212846E56303F025F8334662
:1034E00008223946284602F0CDFE334604223146F2
:1034F000284602F0C7FE334609220221284602F080
:10350000C1FE334605220321284602F0BBFE3346A6
:1035100006221121284602F0B5FE02230A220421C8
:10352000284602F0AFFE022307220521284602F0BA
:10353000A9FE02230B220621284602F0A3FE022345
:103540000C220721284602F09DFE33461B2208214B
:10355000284602F097FE334612220921284602F03F
:1035600091FE334613220A21284602F08BFE334691
:1035700014220B21284602F085FE334615220C2129
:10358000284602F07FFE334616220D21284602F01F
:1035900079FE334617220E21284602F073FE334689
:1035A00003220F21284602F06DFE33461822102117
:1035B000284602F067FE02230E221621284602F05A
:1035C00061FE02231A461221284602F05BFE022306
:1035D00032461321284602F055FE02231A221421F6
:1035E000284602F04FFE02230D221521284602F044
:1035F00049FE02230F221721284602F043FE022330
:1036000010221821284602F03DFE02231122192122
:10361000284602F037FE022319221A21284602F01A
:1036200031FE02233A461B21284602F02BFE284693
:1036300002F000FF3F493D48FCF769FF022104F119
:10364000310002F0ABFD04F133090A200CF0D8FC84
:103650001321484603F004F804F134080A200CF062
:10366000CFFC4046122102F0FBFF0A200CF0C8FC00
:10367000FEB201200CF0C4FC01223146484603F0A2
:1036800035F801200CF0BCFC01223146404603F025
:103690002DF801200CF0B4FC01200CF0B1FC01204D
:1036A0000CF0AEFCFF223146484603F01FF8012023
:1036B0000CF0A6FCFF223146404603F017F801202B
:1036C0000CF09EFC013701200CF09AFC042FCFD1A6
:1036D00004F14B0604F14F0716F8013F2344012281
:1036E00093F85410284602F014FF33792344012242
:1036F00093F85410284602F00CFFBE42ECD10E495C
:103700000A48FCF704FF01211F200CF0B1FB012146
:1037100004200CF0ADFB09490448FCF7F8FE2846EC
:10372000BDE8F84302F0BCBEA7910100EC8EFF1F7C
:10373000B9910100D3910100E4910100F9910100D8
:1037400070B500F131040D461646204602F046FDE4
:10375000324629462046BDE8704002F03FBDFFFFDB
:103760002DE9F8430446C06B02F09AFE01221121B4
:10377000A06B266C11F01AFA0225012290FBF5F0DD
:103780002421A6F8B400A06B266C11F00FFA0122D8
:1037900090FBF5F02521A6F8B600A06B266C11F081
:1037A00005FA222190FBF5F00122A6F8B800A06BE3
:1037B000266C11F0FBF990FBF5F0A6F8BA00734EF9
:1037C000002140F60107256C05EB4100B0F8B4205C
:1037D000B0F8ACE0724516D2B0F89C30C3EB0E0ED8
:1037E000B645A2EB0303B5BFC3EB8353A3EB832220
:1037F0009B020EF10103B4BF93FBFEF392FBF3F3C4
:1038000003F5806313E0B0F8A430CEEB030CB445AD
:10381000CEEB0203B5BFC3EB8353A3EB83229A0223
:103820000CF10103B4BF92FBFCF392FBF3F3A0F89D
:103830007030B0F970300D4403F58063013103EB53
:10384000C313042993FBF7F3A3F1400385F8623017
:10385000B9D1012248F201000C291ED002FA01F36D
:1038600013F42A6F0AD113F4AA6F16D0236C5D18D3
:1038700003EB410393F8B430183B0CE0236C5D1864
:1038800003EB4103B3F8B43003F5804303EBC313F8
:1038900093FBF0F3403B85F8623001310D29DBD119
:1038A0000421E06B256C02F0B4FE80F0010085F885
:1038B000D5000521E06B256C02F0ABFE80F0010025
:1038C00085F8D6000621E06B256C02F0A2FE80F0A0
:1038D000010085F8D7000721E06B256C02F099FE06
:1038E00080F0010085F8D8000421E06B256C02F01F
:1038F0007CFE85F8CC000521E06B256C02F075FE9E
:1039000085F8CD000621E06B256C02F06EFE85F88F
:10391000CE000721E06B256C02F067FE002785F8DA
:10392000CF004FF0010804252E1FF6B23146E06BA0
:1039300002F079FE28B3236CE06B2B44314693F8F8
:10394000D59002F070FE81451BD0236C2B4483F888
:10395000CC80D4F84090E06B314602F064FEA9447C
:103960000135082D89F8D500DED12946E06B01220A
:1039700002F0CFFD2946E06B0022BDE8F84302F0DB
:10398000C8BD236C2B4483F8CC70E2E701FCFFFF39
:103990002DE9F0419E4D90B02B680193019B2B685F
:1039A0000093009B9B4B1B78353B04461E2B00F27B
:1039B0000F82DFE813F01F00480073001F0048006B
:1039C00073001F00480073001F00480073000D02C1
:1039D0000D020D020D020D020D020D020D020D026F
:1039E0000D020D020D020D020D020D020D020D025F
:1039F0009C003B01884D00F1310605F1080815F8DF
:103A0000017F236C03EB47030020B3F88C20B3F84D
:103A10007C10FFF718FD394682B2304602F0DEFB1B
:103A20002F78236C03EB47030020B3F88C20B3F806
:103A30007C10FFF708FD394682B2304602F0CEFB1B
:103A4000A845DCD1C4E1744D00F1310605F1080848
:103A500015F8017F236C03EB47034FF40050B3F8D4
:103A60008C20B3F87C10FFF7EEFC394682B230466A
:103A700002F0B4FB2F78236C03EB47034FF40050A4
:103A8000B3F88C20B3F87C10FFF7DDFC394682B226
:103A9000304602F0A3FBA845DAD199E15E4D00F172
:103AA000310605F1080815F8017F236C5B4803EB2C
:103AB0004703B3F88C20B3F87C10FFF7C4FC3946F9
:103AC00082B2304602F08AFB2F78236C534803EB16
:103AD0004703B3F88C20B3F87C10FFF7B4FC3946E9
:103AE00082B2304602F07AFBA845DCD170E1FFF7E4
:103AF00037FE2B68226C0293029BD2F808219B1A96
:103B0000642B75D900263346216C8A1992F8D5703A
:103B1000012F2CD191F8FC3082F8F830404908A8E8
:103B20000BF049FE236C04A893F8FC100BF063FE25
:103B300004A908A80BF0FEFE3A490BF003FF0A2285
:103B4000804631460CA80BF069FE0CA940460BF0EC
:103B5000F1FE01463448FCF7D0FC0CA80BF0EBFD5D
:103B600004A80BF0E8FD08A80BF0E5FD3B46013684
:103B7000042EC9D173BB226C294992F8FC3013443E
:103B8000FF2683F8F86008A80BF015FE236C04A844
:103B900093F8FC100BF02FFE04A908A80BF0CAFE46
:103BA00020490BF0CFFE0A22074631460CA80BF045
:103BB00035FE0CA938460BF0BDFE01461A48FCF74D
:103BC0009CFC0CA80BF0B7FD04A80BF0B4FD08A8F2
:103BD0000BF0B1FD226C92F8FC30013303F00303CB
:103BE00082F8FC302A68236C0392039AC3F80821F8
:103BF0000025236CE06B93F8FC309D42E9B20CBFCA
:103C000001220022013502F084FC042DF1D1DFE015
:103C1000ECC1FF1FD5C1FF1F0B8DFF1F00E0FFFF91
:103C20003E92010050920100EC8EFF1F2A68036C47
:103C300004920499D3F80801091A962903D993F834
:103C4000FC20012A6BD12A680892089A121AB2F550
:103C5000967F40F2BD80604A12680C9200250C9A53
:103C600083F8FC50C3F80821226C92F8FD30103321
:103C700003F07F0382F8FD30264604F1340796F8FE
:103C80005030E06B2344012293F8541002F041FCC1
:103C900096F84C30E06B2344012293F8541002F064
:103CA00038FC96F84C302344013593F85C100A1127
:103CB0000CBF04F13300384601F00F0118BF002299
:103CC00002F014FD96F850302344013693F85C104E
:103CD0000A110EBF04F133000022384601F00F0133
:103CE00002F004FD042DCAD13C4D04F1310605F16A
:103CF000080715F8011F236C03EB41033046B3F8A6
:103D00007C2002F06BFA2978236C03EB41033046E8
:103D1000B3F87C2002F062FAAF42EAD158E0012207
:103D200083F8FC202546002604F1340804F133070B
:103D300095F85030E06B2344002293F8541002F0C1
:103D4000E8FB95F84C30E06B2344002293F85410C4
:103D500002F0DFFB95F84C302344013693F85C10F9
:103D60000B09236C0CBF3846404693F8FD2001F048
:103D70000F0102F0BBFC95F850302344013593F855
:103D80005C100B09236C0CBF3846404601F00F0154
:103D900093F8FD2002F0AAFC042EC9D10F4D04F1C6
:103DA000310605F1080715F8011F236C03EB4103E9
:103DB0003046B3F88C2002F011FA2978236C03EB1B
:103DC00041033046B3F88C2002F008FAAF42EAD142
:103DD00010B0BDE8F08100BFECC1FF1F0B8DFF1FCD
:103DE00029B1006C014491F9611088B2704708460E
:103DF0007047093108B5092936D8DFE801F0302BC2
:103E000026211C17120A053664200BF07FFC5A2865
:103E100003E064200BF07AFC502894BF00200120BE
:103E200008BD64200BF072FC4628F6E764200BF016
:103E30006DFC3C28F1E764200BF068FC3228ECE7CD
:103E400064200BF063FC2828E7E764200BF05EFC9D
:103E50001E28E2E764200BF059FC1428DDE76420FB
:103E60000BF054FC0A28D8E708BD002008BD036CFD
:103E700003EB4202B2F88C30B2F87C00181A80B220
:103E80004143142091FBF0F080B27047036C03EBC8
:103E90004101B1F87C00B1F88C301844C0F34F00F8
:103EA000704770B501441E4691F84C2011460546F6
:103EB000FFF7ECFF314604462846FFF7D8FF201AEB
:103EC00080B270BD10B5014491F84C20016C01EB3B
:103ED0004201B1F88C401946FFF7C9FF201A80B2A1
:103EE00010BDFFFF2DE9F7431C46012C1646054681
:103EF0000F469DF828209DF82C3047D022D3022C65
:103F00007CD1431893F84C80036C0B44424693F8E1
:103F100043904B46FFF7C5FF4B46044642463946A1
:103F20002846FFF7CFFF374B001B33F81630B0F5AC
:103F30007D7FB5BF00FB0330584340F2F5334FF4AB
:103F40007D7356E000210091006CF1B208F018F882
:103F5000EB19064693F84C802B6C3B44424693F891
:103F6000439039464B462846FFF79BFF4B46044695
:103F7000424639462846FFF7A5FF001B7728D9BFE0
:103F800000FB066079237043782332E00021009122
:103F9000006CF1B207F0F4FF95F8972190FBF2F373
:103FA00002FB130305EB43033946B3F86C6142F699
:103FB000E0635843EB1990FBF2F093F84C802B6CC4
:103FC0003B44064493F8439042464B462846FFF74D
:103FD00068FF4B460446424639462846FFF772FFC3
:103FE000001B00FB0666084896FBF0F0204480B2F8
:103FF00005E090FBF3F00444A0B200E0002003B021
:10400000BDE8F083148DFF1FC1D401002DE9F04FEE
:104010008BB098469DF8543005939DF85830069320
:104020009DF8603002939DF86C3003939DF87030DA
:1040300004939DF8743007931E9B08939DF87C3081
:104040000993036C9DF850A09DF85C709DF864B0D6
:104050009DF8689003EB81030446A3F8BC20029B03
:104060000D4616460BB957B128E0C06B02F0DBFADB
:104070000028F8D0BBF1000F40F0AC8017E0BBF196
:10408000000F40F09F806719012297F84C30E06BD9
:10409000234493F8541002F03CFA97F84C30234430
:1040A00093F85C100A1101F00F0122D024E05A4667
:1040B0002946E06B02F02DFA002FE4D004EB050B4B
:1040C00000229BF84C30E06B23443FB293F854102D
:1040D00002F01FFA9BF84C3023447F2293F85C10C7
:1040E0000B0901F00F016FD1C7EB072797FBF2F225
:1040F000D2B204F1330002E0002204F1340002F0F5
:10410000F5FABAF1000F13D063199DF814201A7351
:104110009DF818201A75099A83F808A083F8108072
:1041200032B9012283F82C20AB1D089A44F82320D1
:10413000079B002B3CD104EB050A049B9AF84CB07A
:104140000193039B009332464B4629462046FFF7D6
:10415000C9FE04F1310702465946384602F03EF8DE
:10416000049B9AF84CA00193039B009332464B4664
:1041700029462046FFF7B6FE51460246384602F071
:104180002DF8691EC9B20F2912D8676CB86C036884
:1041900041F090011B689847B86C036806F07F01F6
:1041A0001B689847B86C036808F07F011B68984744
:1041B000029B9BB1E06B012229460BB0BDE8F04F9A
:1041C00002F0A7B9032779E7C7EB072797FBF2F2BD
:1041D000D2B292E7002F08BF03276FE70BB0BDE80C
:1041E000F08F0022F8B50446034600F11406154688
:1041F00001200132042A1D7218731D7483F82C00EB
:1042000046F8045F03F1010383F82700F1D1651834
:10421000236C95F8507003EB47030020B3F88C2013
:10422000B3F87C10FFF7FEF804F1310682B239468C
:10423000304601F0D3FF95F85050236C03EB450353
:104240000020B3F88C20B3F87C10FFF7EBF8294678
:1042500082B23046BDE8F84001F0C0BF2DE9F84F0A
:1042600098469DF8283006460F46002B40F0008205
:104270004518C74B297A1B68002900F0F981BB1D3E
:1042800095F80CA050F82330C3EB02090AFB09F0A3
:10429000013980080C2900F2E881DFE811F00D00F7
:1042A000EE006D00810013003900F2009000230140
:1042B0004C01A000AD00B90003EB18139A42C0F006
:1042C0006F81D2E14FEA88114FEA4A0CB1FBFCFC46
:1042D000E14528BFCCEB090C95F9100028BF4FEA47
:1042E000CC1CC0EB40614FEA081338BF4FEAC91E2F
:1042F000B3FBFAFA35BFBEFBFAFCBCFBFAFCACF12F
:10430000800CCCF1800CC201C90100FB0CF019E05B
:104310004FEA88100AEB4A0AB0FBFAFEF1454FEA71
:104320004A0AB0FBFAF811D295F910004FEAC91EFB
:10433000C0EB4061BEFBF8F8A8F18008C201C901DA
:1043400000FB08F007F012FD04B22BE14FEA4E0E1D
:10435000F145C0F0928095F91000CEEB090EC0EB4C
:1043600040614FEACE1EBEFBF8FECEF1800EC201C8
:10437000C90100FB0EF0E5E795F910B04FEAC91E40
:10438000CBEB4B614FEA0813B3FBFAFCBEFBFCFC22
:10439000CCF180004FF48042C9010BFB00F0D1E763
:1043A00095F910007B494FEAC9124FEA8813B3FB15
:1043B000FAF3B2FBF3F3803BC2015843C2E795F92D
:1043C00010204FEA1813B0FBF3F0C4B2803C544302
:1043D000002CB8BF6442A4EB821464000AE04FEAE8
:1043E0001814B0FBF4F0C4B2A4F1800095F91040A9
:1043F00014FB00F424B2D5E095F910404FEA1813ED
:10440000B0FBF3F0C0B28038644210FB04F09BE7CD
:1044100012F0F0FD604912F041FE04464FEAC80078
:1044200012F0E4FD0146204612F0ECFE12F0F2F923
:1044300010F0C6FF0022002312F0D0FCB0B195F8B6
:104440002880B8F1000F09D095F91010C1EB416038
:10445000C001C9010BF065F904B200E044464FF019
:10446000000988F0010885F828909EE04FF00108C7
:1044700085F828800446A14697E095F91040E401AC
:1044800090E012F0B7FD444912F008FE04464FEAEE
:10449000C80012F0ABFD0146204612F0B3FE12F048
:1044A000B9F910F08DFF8046894695F9100012F099
:1044B0009FF942464B4612F001FA0022374B12F0A8
:1044C000FDF912F095FC95F85030334404B2002207
:1044D00093F85410F06B02F01CF84FF000084FF006
:1044E00001096BE012F086FD2B4912F0D7FD04465E
:1044F0004FEAC80012F07AFD0146204612F082FE13
:1045000012F088F910F05CFF0022002312F066FC24
:1045100095F9104008B1E40103E0C4EB4424E40140
:1045200024B295F85030F06B3344012293F85410C4
:1045300001F0EFFF36E012F05DFD174912F0AEFD1D
:1045400004464FEAC80012F051FD0146204612F021
:1045500059FE12F05FF910F033FF0022002312F031
:104560003DFC95F9104008B1E40103E0C4EB44249C
:10457000E40124B295F85030F06B3344002293F8F4
:10458000541001F0C6FF4FF000084FF028090CE06E
:10459000041000E000C0FFFFDB0F49400000604056
:1045A0004FF480444FF00008C14695F85030F06B4E
:1045B0003344012293F8541001F0ABFF95F9140035
:1045C00004EBC014A4B20FFA84FABAF5804F02DDEE
:1045D000C4F5004406E01AF5804F05DACAF100047C
:1045E000A4F500440FFA84FAB8F1000F40D1336CFF
:1045F00003EB87074A46A7F8BEA095F8503033442E
:1046000006F1310493F85C100B090CBF06F133007E
:1046100006F1340001F00F0102F068F8002385F87C
:104620002C3095F85070336C03EB47035046B3F8C9
:104630008C20B3F87C10FEF7F5FE394682B2204696
:1046400001F0CCFD95F85050336C03EB4503504618
:10465000B3F88C20B3F87C10FEF7E4FE294682B252
:104660002046BDE8F84F01F0B9BD0024A04602E79E
:10467000BDE8F88F70B505460C4616461BB1002202
:10468000C06B01F046FF611EC9B20F2913D86C6CD4
:10469000A06C036841F080011B689847A06C036818
:1046A00006F07F011B689847A06C036840211B68D7
:1046B000BDE87040184770BD38B5002204460D466D
:1046C000C06B01F026FF631900221A721A740122CE
:1046D00083F82C2029462046BDE83840FFF781BDED
:1046E00037B54FF4007305460C4609B1084A00E09F
:1046F000084A1360214617200BF09AFB85F83040DA
:1047000024B1054B1B680193019B2B6003B030BDA6
:1047100084F00F4088F00F40ECC1FF1F0BF0A2B9EE
:104720004379032B0AD8DFE803F00A0202040120D0
:104730007047808AB0FA80F04009704770470020C7
:104740007047FFFF002380F80038024B1B68C0F859
:1047500000397047041000E0144BD0F8F81870B519
:104760001D68D0F804390446E81AD4F8FC28002360
:10477000A1FB000112F0B4FE94F8061894F8072883
:104780000A44234604EB4212002693420AD0597C85
:10479000012905D19969884236BF091A9E6199613C
:1047A0002033F2E7C4F8045970BD00BF041000E0E4
:1047B000F8B504461D4B1D6884F8F118D0F80C09B3
:1047C0000E4607F0D5FB10B1012384F8023894F8A7
:1047D000EE381749E3B9D4F80079B4F8F20894F840
:1047E000072894F9E638EF1BC4F8FC780F78A7B1D6
:1047F0000130002B80B212FB06F2CCBFDBB20123EA
:1048000092FBF3F390FBF3F203FB1203A4F8F238EC
:104810000B7813B1002384F8EE384FF08071C4F8A0
:104820000059B1FBF6F1C4F8F818F8BD041000E027
:10483000D6C1FF1F4FF08070704790F8F138B0F884
:10484000F22880F8071813FB01F192FBF1F301FB4A
:104850001321A0F8F218704790F9E638002BDABF60
:10486000C3F10200C0B20120002BCCBFDBB2012398
:104870000006B0FBF3F0704708B50246FFF7ECFF07
:1048800092F80738584308BD154B2DE9704306468A
:104890001B68D0F80009D6F8FC28B6F8F248181AB8
:1048A0009042D6F8F83828BF02F1FF304FEAE0799D
:1048B000A3FB000103FB09115C43002312F010FE6F
:1048C0000025241830464D41FFF7D6FF2946024601
:1048D0000023204612F004FE1046BDE8708300BF9E
:1048E000041000E0F7B5044690F80568FFF7CCFF28
:1048F0000746C4F8E8082046FFF7AEFF94F80928F9
:10490000B7FBF0F3322A1DB20ED999B211F0010FA4
:104910000FD0323A00FB1373520050436422B0FBB5
:10492000F2F0834271D904E003D099B211F0010F83
:104930006FD194F8F0389D4255D094F80A38032B83
:104940004FD8DFE803F0161F023394F8052894F8D7
:1049500006389A4201D1012306E094F807180B4467
:10496000013B9A4202D1002384F8033894F80338BB
:1049700043B194F8050894F8072894F806184023E2
:1049800001302AE094F8072894F80638294994F869
:1049900005081344013B19400029BEBF01F1FF3156
:1049A00061F03F0101314023013816E094F8060818
:1049B00094F8071801440AF0B4FE94F8072894F814
:1049C00006381C491344013B19400029BEBF01F1C0
:1049D000FF3161F03F010131402307F0E6F984F82F
:1049E000050884F8F05894F81238012B01BF124BD7
:1049F0001B680193019B94F80538B34218D094F8D2
:104A00000438013384F8043812E04D1E2DB200231F
:104A10000BE000FB1373520050436422B0FBF2F032
:104A2000834286D34D1C2DB2012384F8013880E7E0
:104A300003B0F0BD3F000080ECC1FF1F002310B5A4
:104A40000446A0F8F23891B1012280F8EE28124A0B
:104A500080F800381268C0F8002990F8062880F81D
:104A6000023880F8F03880F8052880F803382046AE
:104A7000FFF738FF234604F5006100225A749A823A
:104A80009A6120338B42F9D194F81218D4F80809AE
:104A9000BDE81040FFF710BE041000E090F80508D4
:104AA000000970472DE9F04F90F81F6885B0044663
:104AB000002E40F0D3806B4B93F80090B9F1000FBB
:104AC00000F0CC80FFF70EFF254604F62607B0461F
:104AD00094F8071894F806380B44B3425EDB6B7900
:104AE000002B57D06A7C042A04D0062A36D0012A2B
:104AF00050D110E094F805389E4240F0AA80012978
:104B000048D12046FFF7A8FED4F8E838B3EB900F61
:104B1000C0F09F803EE0A969EA6991423AD25FFA0B
:104B200086FB032B07D8DFE803F002020402CA4623
:104B300001E04FF0000A52465946204600F0ACFC16
:104B40004FF006036B745946AB8A0393204600F07E
:104B50008FFC039B83421DD904231AE05FFA86FB76
:104B6000D4F8E838AA8A03935946204600F0FCFBA3
:104B7000039B83420ED92846FFF7D2FD97F84020C9
:104B80003B78009259460246204600F02BFA4FF03F
:104B900001036B7401362035013799E794F8055805
:104BA00004EB4512577C002F58D15179002955D07C
:104BB000978294F81818D4F8080992F80780FFF73C
:104BC0000FF9142605223946B0FBF6F018FA80F0EA
:104BD00007F0CCF8254485F8260894F8055894F891
:104BE0001A18D4F8080904EB451325441F7AFFF777
:104BF000F7F805220121B0FBF6F017FA80F007F074
:104C0000B5F885F8660894F8191894F80558D4F89A
:104C10000809FFF7E5F825440F23B0FBF3F085F80A
:104C2000A60894F8055804EB4510FFF779FD6219C2
:104C3000294692F8263892F86628009202462046C5
:104C400000F0D0F994F8053804EB431401236374A1
:104C500004E085F81180A5F814809BE705B0BDE855
:104C6000F08F00BFD6C1FF1F024B1B780BB1FFF7BF
:104C700019BF7047D6C1FF1F0AF0F4BEF8B504464D
:104C80000F4611481D211D4616460CF0B3FA0F4879
:104C90000AF0CCFC002384F81138042384F8E638A9
:104CA000322384F80938012384F8EC38069BC4F8D1
:104CB000083984F81278079B84F8076884F8135839
:104CC000C4F80C39F8BD00BF55920100EC8EFF1FEF
:104CD000402910B520D84B01C21800EB411118240F
:104CE000C454002303204B708B70CB70137153712D
:104CF0009071D37101220A724A7202228A720422CE
:104D00000A7343224A734022CB728B730A74CB73AB
:104D10004B748B828B748B6110BDFFFFF0B58DB02F
:104D200004460D4604A83C4916460AF044FD2946AF
:104D300068460AF060FD694604A80AF0FBFD3749A1
:104D40000AF000FE3146074608A80AF054FD08A9FB
:104D500038460AF0EFFD014631480AF046FC30487B
:104D60000AF064FC08A80AF0E6FC68460AF0E3FCD6
:104D700004A80AF0E0FC0422102384F8073884F821
:104D800013280023322184F8E62884F80B28062211
:104D900084F8115884F8063884F8091884F80E3815
:104DA00084F80F3884F8103884F8126884F81438BE
:104DB00084F8153884F8183884F8163884F81738C9
:104DC00084F80D2884F80C2884F8193884F81A38E7
:104DD00084F81B3884F81C3884F81D3884F81E3891
:104DE00084F81F3884F8203884F8213884F8223871
:104DF00084F8233884F825381D46E9B22046013569
:104E0000FFF766FF402DF8D13146D4F80809FFF7C7
:104E1000E8F90DB0F0BD00BF73920100939201005C
:104E2000EC8EFF1F012938B5044630D008D3022983
:104E300034D190F8210880F0010084F8210838BDB1
:104E400090F81F3883F0010380F81F38E3B190F821
:104E5000073890F806181944002300F1110218468B
:104E60008B420BD094F80558AB4202F1200205D0DA
:104E700002F8200C22F81D0C0133F1E794F8121807
:104E8000D4F80809FFF718FC94F81F0838BD90F80B
:104E9000200880F0010084F8200838BD38BD00EB00
:104EA0004111CA54704700EB4111885C704738B516
:104EB00004460D4621B9102101200AF032FCC5B28A
:104EC00094F80A2894F80538012A04D0022A04D15B
:104ED00094F803280AB95B1B00E02B4484F80538DA
:104EE0002046FFF7B9FC94F8072894F806184543C4
:104EF000402394F8050806F058FF04F5006284F892
:104F000005080021A3699D4236BF5B1BA161A36117
:104F100020349442F6D138BD38B590F812380533B4
:104F2000994204460D4614D090F91438994202D1A2
:104F30000121FFF783FD94F915389D4209D1054BF6
:104F40001B7833B194F80B182046BDE83840FFF7C2
:104F5000AEBF38BDD6C1FF1F70B549018CB01D462C
:104F60003AB34418425CA2740126637B90F812188D
:104F70000B96D0F8E8680A9690F82068099690F8A1
:104F80000E68089690F80F68079690F810680696D5
:104F9000002605960495E57A0395E57B0295257C28
:104FA0000195A47B0094D0F80809FFF72FF80CB006
:104FB00070BD014401238A7C90F81218D0F80809CA
:104FC0000CB0BDE87040FFF755BB431849010144E0
:104FD00093F9A638887A002BC4BF10FB03F0C0B247
:104FE0007047FFFF2DE9F04F99464B01C7188846DF
:104FF000C35C4D01797893B0194416468DF8311091
:10500000FA78B9788DF83030194413448DF833307C
:1050100090F823389DF870A08DF8321004461BB12B
:10502000002380F823389AE1D0F80C0906F0A0FF9D
:1050300020B194F80238002B00F091810122042164
:10504000BB5CFF2B08BF01F1FF3102F1010208BF79
:10505000C9B2042AF4D10CA80A4601EB810CC1EBB9
:10506000000E624505DA1EF802300C33135401328B
:10507000F7E7BAF1000F02D011FB0AF1C9B209F14A
:10508000FF33042B46D8DFE803F0030A17293C005E
:1050900063199A8A92FBF1F301FB132106E063196D
:1050A0009A8A92FBF1F301FB1323C91A12AB53FA4C
:1050B00081F111F9183C2FE063199B8A93FBF1F2FF
:1050C00012F0010F01FB02F2A3EB020308BFCB1A9F
:1050D000DBB212AA134413F9183C1DE063194A1EEF
:1050E000988A90FBF2F313F0010F0BBF02FB13033E
:1050F00090FBF1F2C91A01FB1201C9B212AB1944BB
:10510000D7E700200AF00DFB12AB53FA80F010F93C
:10511000183C01E09DF9303004EB050989F81230A4
:1051200094F91718D4F80809FEF763FE68B199F8E6
:10513000123094F80D1894F80C081944181A0AF053
:10514000F0FA80F3070089F8120004EB050A94F8DE
:105150001C18D4F80809FEF743FE9AF812309AF8A2
:105160000B9018448AF8120094F81E18D4F8080915
:10517000FEF736FEFF220021484406F0F7FD94F9C1
:1051800016185FFA80F9D4F80809FEF732FEBAF86B
:105190001430002818BF00260BB9CAF81830FB7964
:1051A000DFF8C0A1002B56D194F81D18D4F80809D7
:1051B00097F80680FEF714FEDAF8001083462046C2
:1051C000FFF738FB08F1010894F9E6384FEA480880
:1051D000002BD84400FB08F8DABFC3F10200C0B2CC
:1051E00001206219002BCCBFDBB2012308FB00F8C1
:1051F000D8009369B8FBF0F01844906194F809382E
:10520000322B10D094F801E86421BEF1000F05D1D3
:10521000CB1A5B004343B3FBF1F003E05B00584360
:10522000B0FBF1F0906104EB050A2046FFF714FB98
:105230004FF00508DAF81830B3FBF8F82046CAF842
:105240001C80FFF709FBB8EB901F55D22046FFF7F3
:1052500003FB80094EE0DAF800102046FFF7EAFA77
:1052600094F9E6A8BAF1000FDCBFCAF10201CBB293
:1052700004EB0501C8BF01238A6900FB03234A7AB6
:105280005A438A6120464146FFF79FFEB2FBF0F089
:105290006219BAF1000FCCBF5FFA8AFA4FF0010A27
:1052A000B0FBFAF0906194F80938322B10D094F8E2
:1052B00001E86421BEF1000F05D1CB1A5B00434326
:1052C000B3FBF1F003E05B005843B0FBF1F09061F9
:1052D00004EB050A2046DAF818304FEA9308CAF8BA
:1052E0001C80FFF7B9FAB8EB101F05D22046FFF774
:1052F000B3FA0009CAF81C00254494F81218A88AC9
:105300006B7BAA7C0496003018BF01200B90D4F868
:10531000E8080A9094F82008099094F80E0808907C
:1053200094F80F08079094F81008069094F8250850
:105330000590CDF80C90E87B0290287C0190A87B2A
:105340000090D4F80809FEF761FE7B79022B14BFA8
:105350000023334684F82538AB8A0133AB8213B07F
:10536000BDE8F08F888DFF1F2DE9F84F90F8066893
:105370000446884691468E1B04EB481AFFF76CFAE8
:105380009AF8095046434146204605FB09F2FFF7CB
:105390001CFE92FBF0F394F809289FB27843322A5E
:1053A00090FBF5F5C5EB0905ADB20FD12046FFF72F
:1053B00053FA9AF8093009FB03F900FB09F9414651
:1053C0002046FFF702FEB9FBF0F04EE094F800280B
:1053D00003F001034244DA4220462ED0FFF73CFAA4
:1053E00047432046FFF738FA8146204694F809B82B
:1053F000FFF732FA381A30444FEA4B0309FB03F344
:105400004FF06409B3FBF9F31F182046FFF724FAA5
:105410009AF809305D43454341462046FFF7D5FDE4
:1054200094F80968B5FBF0F0C6EB09067600704306
:10543000B0FBF9F03844BDE8F88FFFF70DFA00FB38
:1054400007662046FFF708FA9AF809305D4345439E
:1054500041462046FFF7B9FDB5FBF0F594F8090881
:10546000400045436420B5FBF0F03044BDE8F88FC0
:1054700010B5431893F8263863B100EB41129479C4
:10548000FFF7A3FD14FB00F0537A90FBF3F0C0F399
:105490008F0010BD184610BD00EB411113464A7C29
:1054A000012A06D18A7C90F81218D0F80809FFF773
:1054B000E1B87047531A002BB8BF5B42013380F844
:1054C00007380B4B1B788A428BBF01EB031102EBB1
:1054D00003120023012380F80A384FF001038CBF28
:1054E00080F8061880F8062880F82338704700BF37
:1054F000D4C1FF1F0AF0B6BA01F10803DBB2072BD3
:1055000009D8012202FA03F313F0DD0F03D000687B
:1055100003681B68184770472DE9F743BB4B1A68AF
:105520000192019A02601B680093009B436004464D
:10553000313000F031FE04F1330001F08FF804F156
:10554000340001F08BF8B24B1A46194652F8040B9E
:10555000A0641068E0649868206551F80C0F4968F1
:1055600004F1540203C2194604F15C0251F8140F0D
:10557000496804F1640603C203F11C023433106865
:105580005168354603C508329A422E46F7D1A14BE1
:1055900004F17C0203F1080618685968154603C532
:1055A0000833B3422A46F7D118689B88AB809A4BE0
:1055B000286004F18A0203F10C0153F8040B42F84D
:1055C000040B8B42F9D11B881380944B04F1980291
:1055D00003F1080618685968154603C50833B34235
:1055E0002A46F7D118689B88AB808D4B286004F160
:1055F000A60203F10C0153F8040B42F8040B8B4292
:10560000F9D11B881380874B04F1B40203F108061B
:1056100018685968154603C50833B3422A46F7D1BE
:1056200018689B88AB80804B286004F1C20203F1AC
:105630000C0153F8040B42F8040B8B42F9D11B8880
:1056400013807A4B04F1D00203F1080618685968F8
:10565000154603C50833B3422A46F7D118689B881C
:105660002860AB800E22002104F1DE000AF016FB58
:105670004FF47A636E4DA4F8E23040F6B83841F644
:10568000583742F2283342F21076A4F8E6300E2260
:105690000021A4F8E080A4F8E470A4F8E86004F124
:1056A000EC000AF0FBFA2A68C4F8FA206A68C4F829
:1056B000FE2041F270732A89A4F8F23041F2883951
:1056C000A4F8022100210E22A4F8EE80A4F8F090A4
:1056D000A4F8F470A4F8F66004F582700AF0DEFA1B
:1056E00005F10A031A35A4F80681A4F80891A4F874
:1056F0000A71A4F80C6104F589712A4653F8040B69
:1057000041F8040BAB42F9D14A4B1168C4F822119D
:105710005168C4F82611128959681868A4F82A211A
:1057200004F5967203C21989118003F10A0204F587
:105730009B71163352F8040B41F8040B9A42F9D1CD
:1057400013880B803C4B04F5A27203F1080618681D
:105750005968154603C50833B3422A46F7D118687D
:105760009B88AB80354B286004F5A97203F10C01CE
:1057700053F8040B42F8040B8B42F9D11B881380B9
:105780002F4B1868596804F5B07203C2986810600E
:1057900004F5B67603F10C022433106851683546DF
:1057A00003C508329A422E46F7D107230820052266
:1057B0000C2184F8853184F8863184F8873184F8A7
:1057C000883184F8893184F88A3184F88B3184F8FF
:1057D0008C3184F88D3184F88F3184F8900184F80D
:1057E000933184F8943184F895312046062384F867
:1057F000841184F88E2184F8912184F8922184F810
:10580000963184F8971103B0BDE8F083ECC1FF1F17
:105810009E920100D2920100E0920100EE920100FE
:10582000FC9201000A9301001893010026930100E5
:105830003493010058930100709301007E9301009E
:105840008C93010013B504460AF0BCFBE0610AF03A
:10585000B9FB144BE0631B680193019B636604F181
:105860006800FFF759FE04F5007006F01FFC04F510
:10587000187000F051FF04F2AC60FDF7B3F904F5C5
:10588000E060FBF71BF904F5F76000F0F3FC04F6A9
:105890001C0000F0EFFC0AF095FBC4F890082046CD
:1058A00002B010BDECC1FF1F2DE9F04F8BB00446D4
:1058B0008B465F485F49159E09921D46FAF727FE01
:1058C000149BC4F88C3804F61C0304F16807079392
:1058D0005A46149B0799C4F884B83846C4F88858C7
:1058E00066600096FDF7C0FD0423102200212846C3
:1058F00001960097FFF7C2F904231022012105F554
:10590000116001960097FFF7B9F9042310220221D4
:1059100005F5915001960097FFF7B0F9102205F5B3
:10592000D95010440423032101960097FFF7A6F9EC
:1059300004F1080A099B009304F51879334652468E
:105940002946484600F01EFF04F50073089304F54D
:10595000E068079B0898049604F5F7623946CDF88D
:105960000C90CDF808A00195CDF8008006F0FEFB64
:105970003246294604F2AC60FDF7A4F9099B009376
:105980002A465B4639465046019609F003F8149BB7
:1059900000930196284B2A4639464046FCF73AFACE
:1059A000264B1B7853B126492148FAF7B0FD4046F3
:1059B000FBF74AFD23491E48FAF7A9FD4046FCF7CC
:1059C000F7FD214B00261E701F464FF4116AF2B2FC
:1059D0000AFB065039780136FFF7A0F9042EF6D1FC
:1059E0004046FBF7E5F818B1484601F03BF803E004
:1059F00016490F48FAF78BFD4046FCF7CFFD38B942
:105A0000484601F087F812490948FAF780FD06E098
:105A100010490748FAF77BFD05200AF0F1FA012149
:105A2000089806F085FC002323700BB0BDE8F08FCA
:105A3000EC8EFF1FB0930100CDC4FF1FE2C1FF1F1A
:105A4000CC9301001A940100E1C1FF1F539401009F
:105A50006A94010087940100002100F2AC60FDF718
:105A600039BC083008F0E8BF083009F05DB9D0F85B
:105A70008418D0F8800809F0FFBA2DE9F0419DF8AC
:105A80001840013CE4B20F2C06460D4690461F46D6
:105A900024D84BB2002B21DAE02918D8806C43EAD5
:105AA00004010368C9B21B689847B06C036808F02A
:105AB0007F011B6805F0EF059847C02D0ED0B06C34
:105AC000036807F07F011B68BDE8F0411847F7291C
:105AD00004D94830BDE8F041FFF70EBDBDE8F081C4
