:1000000000800020BD01000079C0000045C0000054
:1000100045C0000045C0000045C0000045C00000CC
:1000200045C0000045C0000045C0000079C0000088
:1000300079C0000045C0000079C0000035C0000054
:1000400079C0000079C0000079C0000079C00000CC
:1000500079C0000079C0000079C0000079C00000BC
:1000600079C0000079C0000079C0000079C00000AC
:1000700079C0000079C0000079C0000079C000009C
:1000800079C0000079C0000079C0000079C000008C
:1000900079C0000079C0000079C0000079C000007C
:1000A00079C0000079C0000079C0000079C000006C
:1000B00079C0000079C0000079C0000079C000005C
:1000C00079C0000079C0000079C0000079C000004C
:1000D00079C0000079C0000079C0000079C000003C
:1000E00079C0000079C0000079C0000079C000002C
:1000F00079C00000F9C9000079C00000C1E4000027
:1001000079C00000F9CE000079C0000079C000007D
:1001100079C0000079C0000079C0000079C00000FB
:1001200079C0000079C0000079C0000079C00000EB
:1001300079C0000079C0000079C0000079C00000DB
:1001400079C0000079C0000079C0000079C00000CB
:1001500065B600007DB6000095B60000ADB60000A3
:1001600079C000005DD1000079C0000079C00000B6
:1001700079C0000079C0000079C0000079C000009B
:1001800079C0000079C0000079C0000079C000008B
:1001900079C0000079C0000079C0000079C000007B
:1001A00079C0000079C0000079C0000079C000006B
:1001B00079C0000079C000002DB30000564B4CF20E
:1001C000205210B51A804DF628121A8000BF00BFC9
:1001D0000BF056FF514B4FF010621A60504A9A6074
:1001E000504ADA60A3F53043203B1A6812F480725B
:1001F00004D14D490A604FF4A8521A604B4B1A784B
:10020000110703D51A7842F008021A70484B2A22C7
:100210001A700023474A48499818884204D247492F
:10022000595899500433F5E7454A464B9A424FF0E6
:10023000000302D242F8043BF7E74349434A5958C6
:1002400099500433B3F5DE7FF7D1414B802103F899
:10025000011B40498B42F9D13F4B1A603F4B8A2228
:100260001A70A3F5805324225A70A0221A709A792A
:100270009207FCD59A79D406FCD4394B9A7902F0CE
:100280000C02082AF9D103221A7146225A719A796E
:100290009006FCD5324B9A795106FBD5314A4FF086
:1002A000827111600921516020221A702C4B9B79B8
:1002B00003F00C030C2BF9D12B4B2C4A1A602C4B5E
:1002C0002C4A1A6000225A60072243F8042C2A4A5A
:1002D000C3F80C2D62B60CF05FF8134B1B68DA07FD
:1002E00005D526480BF072FF254B264A1A60264B8F
:1002F0001B785B0609D5224C224A2368934204D11D
:100300001E480BF063FF0023236014F0E7FB0BF0A3
:10031000BDFE0BF0CBFDFEE70E2005403080044013
:10032000823F04000100002B14D0034002D007409C
:1003300000E00740708DFF1F5091FF1FBCDA0100E5
:100340005091FF1FBCDEFF1F000000000082FF1F56
:1003500000E400E05FE400E008ED00E0005006404B
:10036000004006404480044004800440C010050062
:1003700014E000E0BFD4010000002020AEA7135914
:100380001CE00340A5C3945A00F00740FFFFFFFFA5
:10039000FFFFFFFFFFFFFFFFFFFFFFFFFFFFFFFF6D
:1003A000FFFFFFFFFFFFFFFFFFFFFFFFFFFFFFFF5D
:1003B000FFFFFFFFFFFFFFFFFFFFFFFFFFFFFFFF4D
:1003C000FFFFFFFFFFFFFFFFFFFFFFFFFFFFFFFF3D
:1003D000FFFFFFFFFFFFFFFFFFFFFFFFFFFFFFFF2D
:1003E000FFFFFFFFFFFFFFFFFFFFFFFFFFFFFFFF1D
:1003F000FFFFFFFFFFFFFFFFFFFFFFFFFFFFFFFF0D
:10040000FFFFFFFFFFFFFFFFFFFFFFFFDEF9FFFF23
:1004100010B5054C237833B9044B13B10448AFF33E
:1004200000800123237010BD5091FF1F00000000C9
:10043000BCDA010008B5064B1BB106480649AFF30C
:1004400000800648036813B1054B03B1984708BD07
:1004500000000000BCDA01005491FF1F5091FF1F03
:10046000000000000369C268934210B509D2826897
:100470005C1C0461D154826803690021D1540120BD
:1004800010BD002010BD44F2040210B58358CC18F2
:10049000B4F5804F07D8033121F00301194481508E
:1004A0001844043010BD002010BD18B111B101393D
:1004B0000068FAE7704738B504460D4634B128465F
:1004C000616814F041FC08B12468F7E7204638BDA4
:1004D00038B5044608460D4614F063FC236802460E
:1004E0005B6820462946984738BD38B504460BF06E
:1004F000FAF8054620460BF017F9284438BD38B500
:100500000446FFF7E5FF054620460BF00DF92844A9
:1005100038BD38B58368144642680546E0189042F5
:1005200002D993420AD2D41A28682246184411F0FC
:10053000E3FBAB682344AB60204638BD002038BDE8
:1005400010B504460068FFF7C3FF63681844606095
:1005500010BD30B587B000228DF815200B4605AAD6
:100560000A25B3FBF5F405FB14333033114602F8CA
:1005700001392346002CF3D1FFF7E2FF07B030BD6D
:1005800010B50446006803681B6898476368184400
:10059000606010BD70B504460D4619B91249FFF7E9
:1005A000CFFF70BD2221FFF7EBFF013D15F8012FB2
:1005B0007AB10E4B13F8026C86B1023313F8031CA8
:1005C0009142F7D120465C21FFF7DAFF2046314601
:1005D00006E020462221FFF7D3FF70BD20461146DA
:1005E000FFF7CEFFE2E700BF40560100475601008B
:1005F00008B503280AD8DFE800F0021105074FF01C
:100600007E5008BD064808BD064808BD0438C0B283
:10061000FFF7EEFF04490EF0B7FD08BD034808BD23
:100620000AD7233C6F12833A17B7D138CDCCCC3DD3
:100630002DE9F041054608460C46174613F0A2F98D
:1006400010B92846494911E0204600210EF03AFF32
:1006500028B128462D21FFF793FF04F100442046DE
:1006600013F090F9012805D141492846FFF768FFAA
:10067000BDE8F08120463F490EF042FF20B92046F8
:100680003D490EF01FFF00B30026204600210EF06A
:100690000FFF68B920464FF07E510EF013FF38B1BE
:1006A000204636490EF070FD013EB6B20446ECE736
:1006B000204632490EF024FF40B120462F490EF06B
:1006C00017FE0136B6B20446F2E706463846FFF793
:1006D0008FFF4FF07C510EF057FD014620460EF083
:1006E0004BFC04460EF03CFF80460EF0F5FC014644
:1006F00020460EF03FFC414604462846FFF729FFFE
:100700001FB128462E21FFF73BFFCFB11B492046E2
:100710000EF03AFD04460EF023FF5FFA80F84046E3
:100720000EF0DAFC014620460EF024FC08F1300100
:100730000446C9B22846013FFFF722FFFFB2E4E7B3
:1007400034B2002C06DA28460D49FFF7F9FE284698
:10075000614206E03EB128466521FFF711FF2846B9
:100760002146FFF7F6FEBDE8F08100BF54560100B8
:100770005856010000007A446F12833A000020416D
:1007800061560100024608B5084619B10B681146CA
:100790001B68984708BDFFFF38B5084C236813F065
:1007A000010509D120460BF08AFC28B1044B2046F4
:1007B0001D605D600BF089FC014838BD8091FF1F12
:1007C0006C91FF1F08B54068FFF775FE20B1037AF2
:1007D000062B01D1C06808BDFFF7DEFF08BDFFFF93
:1007E00038B5084C236813F0010509D120460BF0F9
:1007F00066FC28B1044B20461D605D600BF065FC73
:10080000014838BD7C91FF1F7491FF1F03780D2BA9
:1008100009D003D8093B012B23D804E0202B02D0B8
:100820002F2B02D070470130F0E743782A2B02D0FB
:100830002F2B0DD07047831C1A7818460133002ADD
:10084000E4D02A2AF8D11A782F2AF5D10230DDE730
:10085000831C184613F8012B002AD7D00A2AF8D196
:10086000D4E7704738B5044600680D46FFF7CEFF61
:100870000378AB4205D10130FFF7C8FF20600120AB
:1008800038BD002038BDFFFF70B54268846813781A
:10089000272B01D0222B27D15178551C51B39942D7
:1008A00001D1951C26E05C290BD1951C9178154A45
:1008B00016782EB18E4201D1517801E00232F7E76D
:1008C000C1B104F8011B2A46E6E723F020014139B3
:1008D000192905D92B2B03D0A3F12D01012909D802
:1008E00004F8013B12F8013FA3F130010929154634
:1008F000F6D9EAE7002304F8013B83684560846089
:10090000184670BD49560100027838B505460C46B8
:10091000072A3CD8DFE802F041241F302B27041BB4
:10092000456808465B21FFF72BFE6D682DB1281D39
:100930002146FFF7E9FF2D6825B920465D21FFF725
:100940001FFE38BD20462C21FFF71AFEEFE7406856
:1009500000F028F838BD08466968FFF71BFE38BD6F
:100960000846696810E008462D21FFF709FE204679
:100970006968FFF7EEFD38BD4168084B084A20461C
:1009800000290CBF11461946FFF7DAFD38BD083AB9
:100990000846D2B26968FFF74BFE38BD64560100C5
:1009A0006956010070B505460C4608467B21FFF7E5
:1009B000E7FD6D687DB12E46204656F8041FFFF70F
:1009C000E9FD20463A21FFF7DBFD301D2146FFF708
:1009D0009BFF2D6825B920467D21FFF7D1FD70BD15
:1009E00020462C21FFF7CCFDE5E710B50446214653
:1009F0000820FFF7C7FE18B100230460436010BD54
:100A0000FFF7CAFE10BD10B5044621460820FFF7C7
:100A1000B9FE18B100230460436010BDFFF7E0FE8B
:100A200010BDFFFF037810B5052B1BD8DFE803F0DE
:100A30001E0808030305406810BD4068404210BD11
:100A400044685CB10A48214614F07EF940B1204662
:100A500000210A22BDE8104014F040BA204610BD23
:100A6000012010BD40680EF055FD10BD002010BDE6
:100A700064560100037810B5052B14D8DFE803F0A5
:100A8000170505030303406810BD44688CB10B488B
:100A9000214614F059F970B1204600210A22BDE820
:100AA000104014F0A1BA40680EF05AFD10BD0020AD
:100AB00010BD204610BD012010BD00BF64560100CE
:100AC00070B504460BF034FCE0640BF031FC2546B5
:100AD0000023206545F8583F4FF48A700BF016FB51
:100AE000294606460AF010FBE66604F174000FF092
:100AF000A1F904F194000FF09DF9204670BDFFFFAD
:100B0000F8B504460D46114811491F461646FFF731
:100B1000F6FC069BA5646665A7662367162011F0A0
:100B200009FC18B909480B49FFF7E9FC0023637079
:100B3000A370E370E21801330021402B9171F9D1C9
:100B400005490248FFF7DBFCF8BD00BFECD9FF1FE9
:100B50006F5601009D560100C3560100002138B5B3
:100B60000A46054601F0CCFA02241E4B23442146D6
:100B7000284633F8022C023401F0C2FA0A2CF4D1D0
:100B8000194B23442146284633F80A2C023401F03D
:100B9000B7FA122CF4D1154B23442146284633F8DA
:100BA000122C023401F0ACFA1A2CF4D1104B23446D
:100BB0002146284633F81A2C023401F0A1FA2A2CD7
:100BC000F4D10C4B23442146284633F82A2C023416
:100BD00001F096FA3A2CF4D107490848FFF78FFC48
:100BE00038BD00BF6A8EFF1F948EFF1F748EFF1FDB
:100BF000848EFF1F5A8EFF1FFE560100ECD9FF1F87
:100C000038B50021054601F08DFA4FF6FF73984282
:100C100018BF022418D128492848FFF770FC26493C
:100C20002648FFF76CFC24492448FFF768FC22495A
:100C30002248FFF764FC20492048FFF760FC1E496A
:100C40001E48FFF75CFC38BD2146284601F06AFAD1
:100C50001B4B234402340A2C23F8020CF4D1214606
:100C6000284601F05FFA174B23440234122C23F874
:100C70000A0CF4D12146284601F054FA124B2344C1
:100C800002341A2C23F8120CF4D12146284601F024
:100C900049FA0E4B234402342A2C23F81A0CF4D1BF
:100CA0002146284601F03EFA094B234402343A2CEF
:100CB00023F82A0CF4D138BD28570100ECD9FF1FC6
:100CC0006A8EFF1F948EFF1F748EFF1F848EFF1F7E
:100CD0005A8EFF1F0803704710B588B00023013AF1
:100CE000059106920B7003AA064C8DF8103001A9ED
:100CF0000394079301920293FFF754FE029808B001
:100D000010BD00BF2856010010B504460C20216814
:100D1000FFF738FD10B100230360037163682BB146
:100D20001A680AB11346FBE7186010BD606010BD79
:100D300010B50C46FFF7E8FF20B12378836004224A
:100D40000271012010BD10B50C46FFF7DDFF48B160
:100D500094F90030002BAEBF04225B4205220271E1
:100D60008360012010BD10B5044610202168FFF7F4
:100D700009FD10B100230360037263682BB11A6888
:100D80000AB11346FBE7186010BD606010BD2DE985
:100D9000F3410446074654F8040BFFF734FE7B2169
:100DA00006462046FFF75EFD002833D020467D2111
:100DB000FFF758FD88BB3846FFF766FD804648B30D
:100DC00020463A21FFF74EFD20B302AD00233846FE
:100DD000694605F8083D00F024F8D8B1706841462E
:100DE000FFF769FB28B93046FFF7BDFF90B1C0F8A7
:100DF000048000F1080395E8030083E8030020461F
:100E00007D21FFF72FFD40B920462C21FFF72AFD59
:100E10000028D0D1FFF7E4FC00E0304602B0BDE886
:100E2000F08170B50446007B0D46002834D00138AF
:100E300020736068FFF7EAFC606003785B2B02D0E8
:100E40007B2B07D012E0204600F027F803685BB147
:100E5000062305E02046FFF79AFF036823B1072326
:100E600068602B70012014E0184612E0272B03D095
:100E7000223B5E425E4100E001262046FFF704FD72
:100E800038B1012216B102232B7000E02A7068608D
:100E90001046237B0133237370BDF7B50446074624
:100EA00054F8040BFFF7A1FD5B2106462046FFF72F
:100EB000D9FC08B320465D21FFF7D4FCF8B902AD98
:100EC00000233846694605F8083DFFF7AAFF98B1A8
:100ED0003046FFF719FF78B1031D95E8030083E85A
:100EE000030020465D21FFF7BDFC40B920462C21C0
:100EF000FFF7B8FC0028E2D1FFF74EFC00E03046D7
:100F000003B0F0BD70B5054640680E461446FFF7C5
:100F1000D2FA20B92846FFF726FF50B14660236871
:100F2000002B08BF00240CBF002306230372C460FB
:100F3000012070BD70B5054600680E4610B9FFF778
:100F40002BFC70BDFFF751FD044631462846224672
:100F5000FFF7D8FF204670BD2DE9F04FADF5804D6D
:100F600085B0A74B0191029302A944F20403054600
:100F7000144608460022CA50FFF745FDA1498246A3
:100F8000FFF7D8FF40F60813696D5C43214401F672
:100F900002010646FFF7CCFE696D214401F60A0105
:100FA0003046FFF7C5FE696D214401F60601304663
:100FB000FFF7BEFE696D214401F607013046FFF7D9
:100FC000B7FE696D214401F609013046FFF7B0FE16
:100FD000696D214401F608013046FFF7A9FE696DED
:100FE000214401F6DB013046FFF7ADFE696D214477
:100FF00001F60B013046FFF79BFE696D214401F6B7
:101000000C013046FFF794FE696D214401F60D0195
:101010003046FFF78DFE696D214401F60E01304622
:10102000FFF786FE696D214401F60F013046FFF798
:101030007FFE696D214401F501613046FFF778FEBE
:10104000696D214401F611013046FFF771FE696DAB
:10105000214401F612013046FFF76AFE696D214412
:1010600001F613013046FFF763FE696D214401F676
:1010700014013046FFF75CFE696D2144304601F6ED
:101080001501FFF755FEDAF8000018B9FFF784FBE9
:10109000834607E0FFF7A9FC83465B4950465A4662
:1010A000FFF730FF4FF00009DBF8000018B9FFF739
:1010B00073FB064612E0FFF798FC06465846FFF71A
:1010C00023FE58B13368002B009B18BF33460093B2
:1010D0000CBF002306230371009B83603046FFF79B
:1010E00013FE18B104230371C0F80890696D4FEA2C
:1010F0004917214439443046FFF71AFE696D7B1CBD
:10110000214419443046FFF713FE696DBB1C21448E
:1011100019443046FFF70CFE696DFB1C214419444D
:101120003046FFF705FE6B6D2344D9190431304674
:10113000FFF7FEFD6B6D07F10808234403EB080180
:1011400004313046FFF7FFFD6B6D2344D91905319B
:101150003046FFF7EDFD6B6D2344D919063130465B
:10116000FFF7E6FD6B6D2344D91907313046FFF7D1
:10117000DFFD696D214441443046FFF7D9FD6B6DB9
:10118000234403EB080101313046FFF7D1FD6B6DBD
:10119000234403EB080102313046FFF7C9FD6B6DB4
:1011A000234403EB080105313046FFF7C1FD6B6DA9
:1011B000234403EB080106313046FFF7B9FD6B6DA0
:1011C000234403EB080107313046FFF7B1FD6B6D97
:1011D000234403EB08013046033109F10109FFF70D
:1011E000A7FDB9F1400F7FF45FAF504601994FF46E
:1011F0008052FFF771FD0DF5804D05B0BDE8F08F11
:1012000038560100BE570100C75701002DE9F047CD
:1012100088B004468A46914600F0C1FB0546EEB20E
:10122000A3199B791BB1204600F05AFCF7E7012572
:10123000E5700BF07DF82065384813F097FD2946DE
:1012400007464FF4805013F029FC80464146204663
:1012500052464B46FFF780FE10F0FAFF0028FBD005
:1012600004A8394611F010F904AA04F158030DF14D
:10127000180E154603CD7545186059602A4603F1CE
:101280000803F6D128681860AA889A80A06D50BB20
:1012900023492448FFF733F9234904A80AF00DFB3A
:1012A000394668460AF009FB694604A80AF0A2FB21
:1012B00001461C48FFF719F968460AF0BEFA04A86F
:1012C0000AF0BBFA17481649FFF719F9404613F020
:1012D00033FC384613F030FC0023E3700123237005
:1012E00008B0BDE8F0873303E56D236603F580524F
:1012F000AA4210D9AB4208D2ED1A18442A464146F8
:1013000010F0E6FD236E1D4425662046314601227D
:1013100000F042FBDAE74FF48055EEE7CC570100CE
:10132000D5570100ECD9FF1FE457010008B540680C
:10133000FFF7BBF818B10430FFF79CFBC0B208BD43
:1013400008B54068FFF7B1F818B10430FFF76AFB41
:10135000C0B240B208BD08B54068FFF7A6F820B19A
:101360000379062B01D1806808BDFFF715FA08BD87
:101370002DE9F04FADF5804D99B0934B169318AE13
:101380008A4644F2040316A94FF0000846F8181DD7
:1013900041F803808D4BB260424518BF13460546A5
:1013A0004FF00A093046736086F80C90FFF7EFFCA7
:1013B00040F608146B6D864904FB0AF4074603EBFC
:1013C000040BFFF7FFF94146FFF7B0FF8BF8020867
:1013D0006B6D7F49384603EB0408FFF7F3F90121F1
:1013E000FFF7A4FF88F80A086B6D7949384603EBCC
:1013F0000408FFF7E7F90221FFF798FF88F80608CD
:101400006B6D7349384603EB0408FFF7DBF90321E2
:10141000FFF78CFF88F807086B6D6D49384603EBC2
:101420000408FFF7CFF90421FFF780FF88F80908C7
:101430006B6D6749384603EB0408FFF7C3F90521D4
:10144000FFF774FF88F808086B6D6149384603EBB5
:101450000408FFF7B7F90621FFF772FF88F8DB08E9
:101460006B6D5B49384603EB0408FFF7ABF90721C6
:10147000FFF75CFF88F80B086B6D5549384603EBA6
:101480000408FFF79FF90821FFF750FF88F80C08C0
:101490006B6D4F49384603EB0408FFF793F90921B8
:1014A000FFF744FF88F80D086B6D4949384603EB98
:1014B0000408FFF787F94946FFF738FF88F80E0858
:1014C0006B6D4349384603EB0408FFF77BF90B21AA
:1014D000FFF72CFF88F80F086B6D3D49384603EB8A
:1014E0000408FFF76FF90C21FFF720FF88F81008B8
:1014F0006B6D3749384603EB0408FFF763F90D219C
:10150000FFF714FF88F811086B6D3149384603EB7B
:101510000408FFF757F90E21FFF708FF88F81208B3
:101520006B6D2B49384603EB0408FFF74BF90F218D
:10153000FFF7FCFE88F813086B6D2549384603EB6E
:101540000408FFF73FF91021FFF7F0FE88F81408B0
:101550006B6D1F49384603EB0408FFF733F911217F
:10156000FFF7E4FE1B4988F815083846FFF72AF90B
:101570006B6D2344804693F8023813BB4FF0030988
:10158000154930460AF099F951460EA80AF0B8F903
:101590000EA930460AF02EFA10490AF034FA014634
:1015A0000F48FEF7A2FF0EA80AF047F930460AF0EE
:1015B00044F9B9F10109E3D16B6D2344102283F89A
:1015C000022800260EE000BF38560100435B0100F0
:1015D000BE570100C7570100FF570100085801001E
:1015E000ECD9FF1F31464046FFF7B5FE0121FFF75A
:1015F0009DFE314603904046FFF7ADFE0221FFF706
:1016000095FE314604904046FFF7A5FE0321FFF703
:101610008DFE314605904046FFF79DFE0421FFF701
:1016200085FE314606904046FFF795FE0521FFF7FF
:101630007DFE314607904046FFF78DFE0621FFF7FD
:101640007FFE314608904046FFF785FE0721FFF7F1
:101650006DFE314609904046FFF77DFE0821FFF7F9
:1016600065FE31460A904046FFF775FE0921FFF7F7
:101670005DFE31460B904046FFF76DFE0A21FFF7F5
:1016800055FE31460C904046FFF765FE0B21FFF7F3
:101690004DFE31460D904046FFF75DFE0C21FFF7F1
:1016A00045FE314684464046CDF808C0FFF753FE5C
:1016B0000D21FFF73BFE314683464046FFF74BFEC8
:1016C0000E21FFF733FE314682464046FFF743FEC8
:1016D0000F21FFF72BFE314681464046FFF73BFEC8
:1016E0001021FFF723FE314600904046FFF733FEFE
:1016F0000021FFF71BFE696D039A214440010B187E
:101700000A54049A5A70059A9A70069ADA70079ADF
:101710001A71099A5A710A9A9A710B9ADA710C9A8B
:101720001A720D9A5A720136009ADDF808C0DA7200
:10173000402E089A83F80AC01A7383F80DB083F814
:101740000EA083F80F907FF44DAF3868003018BFBB
:1017500001200DF5804D19B0BDE8F08F2DE9F0475F
:10176000044688B054480F46914613F0FFFA0546E8
:1017700010F06EFD20B951495148FEF7C0FEF7E761
:10178000284610F001FFC8B104A8294610F07CFEDD
:1017900004F1580304AA0DF1180A9846164603CE20
:1017A000564518605960324603F10803F6D1306897
:1017B0001860B2889A80A36D2BB95DE0284613F0BB
:1017C000BBF9012075E04FF4805013F0ADF93946B4
:1017D00006464A46204600F0E2F8C0B20003206602
:1017E00031464FF480524046FEF793FE204639467C
:1017F0003246FFF7BDFD002836D1304613F09CF984
:1018000004A8294610F040FE04AA43469646BEE8C6
:101810000300D64518605960724603F10803F5D1FC
:101820001068186092889A8026492548FEF767FE5E
:1018300039464A46204600F0B2F8C0B2000320669E
:1018400031464FF480524046FEF763FE204639464B
:101850003246FFF78DFD38B931461948FEF74FFE85
:1018600017481949FEF74BFE304613F065F9284634
:1018700013F062F900201CE0144904A80AF01DF8D6
:10188000294668460AF019F8694604A80AF0B2F831
:101890000F490AF0B8F801460948FEF726FE6846E7
:1018A00009F0CBFF04A809F0C8FF284613F044F95B
:1018B000022008B0BDE8F087225801002A58010034
:1018C000ECD9FF1F3D580100A8580100185901002C
:1018D000555901002DE9F04106460D469046002479
:1018E00048FA04F3DB0710D5E7B2304639462A46FA
:1018F000FFF734FF012808D1736D40F6081000FB94
:10190000043029463A4602F00DFC0134042CE7D19C
:10191000014B1D70BDE8F0816CD7FF1F2DE9F04130
:1019200005460E4690469DF818700BB987B112E037
:1019300000246B6D40F6081202FB0433E1B2284626
:1019400093F808280134FFF761FC042CF1D1EDE78E
:10195000064B1B7833B9284631464246BDE8F04174
:10196000FFF7B8BF024B1E70BDE8F08158D7FF1FCC
:101970003FD7FF1F044A054B1360054A1360054A11
:1019800013600AF019BA00BF8C91FF1F03200038C2
:101990008891FF1F8491FF1F01448A71704701EBFA
:1019A00082007047F0B504468DB0474813F0DEF969
:1019B000054610F0E9FD00282ED1444904A809F09D
:1019C0007CFF2946684609F078FF694604A80AF0BA
:1019D00011F83F490AF017F80A2206464FF4802111
:1019E00008A809F0A0FF08A930460AF003F801464C
:1019F0003848FEF77AFD08A809F01FFF684609F08D
:101A00001CFF04A809F019FF10F008FD4FF4802115
:101A10000246284610F0C4FD284613F08DF82E48E3
:101A200013F0A4F9064610F0AFFDF0B908A82B4951
:101A300009F043FF314604A809F03FFF04A908A8B4
:101A400009F0D8FF01462348FEF74FFD04A809F02E
:101A5000F4FE08A809F0F1FE10F0E0FC4FF480213C
:101A60000246304610F09CFD18E008A8314610F000
:101A70000BFD04F1580308AA0DF1280E1F46154668
:101A800003CD7545186059602A4603F10803F6D165
:101A900028681860AA889A80A36D7BB9304613F035
:101AA0004BF810F0D5FB0028FBD0002384F846301B
:101AB0006370204600F0E8FA0DB0F0BD0023236605
:101AC000384610F0AFFEE9E72258010087590100BF
:101AD0009C590100ECD9FF1FCC570100A45901000B
:101AE0002DE9F04FC6788DB004462EB10320DEE11B
:101AF000731C402B04D01E46A519AB79002BF7D0E0
:101B00000AF016FCE36C4CF25032C01A904240F2DC
:101B100002819A4813F02AF98046994813F026F971
:101B2000074610F095FB002800F0C7804FF4805066
:101B3000012112F0B3FFAB79F6B2013B06F0030AC4
:101B40008146032B00F2B680DFE803F0022C89B255
:101B500008A8394610F098FC04F1580308AA0DF1C2
:101B6000280C9A469646BEE80300E6451860596080
:101B7000724603F10803F5D11068186092889A80C4
:101B8000A36D002B00F0C88031462046FFF7A2F875
:101B90002066504610F05CFE0223AB710AF0C8FBD1
:101BA000E06487E008A8414610F06EFC08AA04F142
:101BB00058030DF1280C9646BEE80300E645186070
:101BC0005960724603F10803F5D1106818609288D5
:101BD0009A80A36D002B40F0B5806A4904A809F0F3
:101BE0006CFE94F84610684609F08AFE694604A81F
:101BF00009F000FF644909F006FF5146834608A832
:101C000009F07EFE08A9584609F0F4FE01465F4837
:101C1000FEF76BFC08A809F010FE684609F00DFEFF
:101C200004A809F00AFE08A8394610F02DFC08AAFD
:101C300004F158030DF1280C9646BEE80300E64572
:101C400018605960724603F10803F5D110681860F6
:101C500092889A80A36D002B40F09E80E6E008A851
:101C6000414610F011FC04F1580308AA0DF1280CAC
:101C70009B469646BEE80300E645186059607246EA
:101C800003F10803F5D11068186092889A80A36D5B
:101C9000002B00F0E58031462046FFF71BF8206658
:101CA000584610F0D5FD0AF043FB0423E06400E041
:101CB0000023AB71484612F03FFF384612F03CFF5C
:101CC000404612F039FF00231D46E21892790AB10E
:101CD0000135EDB20133402BF7D12378DBB1D5B913
:101CE0002B4908A809F0E9FD0AF022FB216D0A2220
:101CF000411A04A809F03DFE04A908A809F07AFEDB
:101D000001462248FEF7F1FB04A809F096FD08A859
:101D100009F093FD2570CAE004A81A4909F0CDFD29
:101D200094F84610684609F0EBFD694604A809F0EE
:101D300061FE184909F067FE3946054608A809F012
:101D4000BCFDA2E020463146FEF7C4FFE36D2066ED
:101D500000F580529A420ED99842BFF464AFC0EBAE
:101D6000030BA36D494618445A460FF0C5FF236E76
:101D70005B44236657E74FF4805BF2E7CC570100E2
:101D800022580100E4590100355A0100ECD9FF1F27
:101D9000CB590100075A010020463146FEF79AFF51
:101DA000E36D206600F580529A423CD998420AD2EF
:101DB000C0EB030BA36D494618445A4610F088F84F
:101DC000236E5B4423660AF0B3FA3A49E06404A840
:101DD00009F073FD5146684609F092FD694604A872
:101DE00009F008FE344909F00EFEB108824608A841
:101DF00009F086FD08A9504609F0FCFD2F4909F0BD
:101E000002FE01462E48FEF770FB08A809F015FDFA
:101E1000684609F012FD04A809F00FFD0323AB7119
:101E20000023637046E74FF4805BC3E704A82549AD
:101E300009F043FD94F84610684609F061FD6946D3
:101E400004A809F0D7FD204909F0DDFD51460646FA
:101E500008A809F055FD304608A909F0CBFDD0E7E8
:101E6000184904A809F029FD94F84610684609F0BD
:101E700047FD694604A809F0BDFD144909F0C3FDFA
:101E80005146054608A809F03BFD08A9284609F077
:101E9000B1FD01460A48FEF728FB08A809F0CDFC71
:101EA000684609F0CAFC04A809F0C7FC02E70DB0B7
:101EB000BDE8F08FBA590100C6590100425B01002C
:101EC000ECD9FF1FE4590100675A01009A5A01003A
:101ED000044A054B1360054A1360054A136009F074
:101EE0006BBF00BF9891FF1F032000389491FF1F24
:101EF0009091FF1F08B5FEF7EBFA08BD0A220023F8
:101F000009F022BC70B50668044630460D4609F05B
:101F100097FF854203D03046294609F0A5FF2046A9
:101F200070BDFFFFF0B5054685B0184812F01EFFE2
:101F3000044610F08DF90028FBD0204610F024FB59
:101F4000B8B96846214610F09FFA05F158036A4671
:101F500002AF1E46144603CCBC42186059602246AC
:101F600003F10803F6D120681860A2889A80AB6D4F
:101F700023B910F06DF90028FBD005E000232B6693
:101F8000304610F04FFCF4E705B0F0BD22580100D8
:101F90002DE9F04186B004A810F098F8304D04A85F
:101FA00010F0A6F92B680093DDF8008004460028A5
:101FB0004FD02C492C48FFF79DFF21462A48FFF7B8
:101FC0009DFF2A492848FEF79AFA29492648FEF734
:101FD00096FA28492448FEF792FA10F0B3F82B68D5
:101FE0000193019E002410F033F90746A8B92B682D
:101FF0000293029B9B1BB3F57A7FF4D901341A48F4
:102000001D49E4B2FFF776FF3B2C06F57A76EAD954
:10201000154809F089FB3C46E5E714B1124809F080
:1020200083FB16491048FEF76AFA2B680393039B5B
:1020300013490D48C8EB0308FFF75CFF4FF47A71B2
:10204000B8FBF1F10848FFF759FF07480D49FEF7C3
:1020500056FA4FF47A700AF089F906B0BDE8F081BB
:10206000E4D7FF1FCD5A0100ECD9FF1FDF5A010052
:10207000E75A0100015B0100A6580100175B01004F
:10208000275B0100375B010070B51A4B002292B04C
:1020900006461A8002A8402101AA10F065FB30B361
:1020A000002402A812F07DFEC0F11400844205D283
:1020B00011481249FFF71EFF0134F2E700244FF4E4
:1020C000805012F031FD0546346629465A2206F149
:1020D0005800FEF71EFA04F580540023284685F8C0
:1020E0005B3012F029FDB4F5802FE8D1D2E712B0B1
:1020F00070BD00BFF6DDFF1FECD9FF1F145C0100AF
:1021000073B502AC164644F8041D0D462046D1B204
:10211000FFF7F8FE01352046310A0195FFF7F2FE80
:1021200002B070BD38B508460C4609F089FE054678
:10213000601C09F085FE05EB002080B238BD13B5A8
:10214000002402A8FF2140F8044D0134FFF7DAFE15
:10215000B4F5006FF5D14FF4FA700AF007F902B048
:1021600010BDFFFF044A054B1360054A1360054A82
:10217000136009F021BE00BFA491FF1F03200038A7
:10218000A091FF1F9C91FF1F38B504460AF0D0F8BC
:10219000D22360601721052204F108000DF061FDD3
:1021A0000021172204F11C0009F022FF01232377EC
:1021B000022363770323A3770423E377062384F8BA
:1021C0002030072384F82130082384F822300923A3
:1021D00084F823300B2384F824300C2384F8253032
:1021E0000D2384F826300E2384F82730102384F83A
:1021F0002830112384F82930122384F82A3013233D
:1022000084F82B30052384F82D300A2384F82E30EF
:102210000F2384F82F300C4B03F1100204F133012B
:10222000104653F8045B41F8045B9342F9D103680C
:10223000C4F84330054B1A889B78A4F8472084F8EB
:102240004930204638BD00BF565E01006A5E01007D
:10225000C943CAB2542A09D8A2EB8200013802EB62
:1022600042020021C0B2D2B20B4618E0A92A0BD814
:10227000553AD2B202EB4201A2EB8202013A0020AF
:10228000C9B2D2B203460AE05632D2B202EB4200E1
:10229000A2EB8202511E0022C0B2C9B213460DF059
:1022A0004CBDFFFF2DE9F043044685B000F1100856
:1022B00006463A4F2368387840F6081909FB003083
:1022C00001F0D3FD2546311B01EB0010C1B255F8DA
:1022D000083B387809FB003090F800388B4203D176
:1022E00096F83310FF2206E000EB41135B794BB9FF
:1022F00096F83310012200920192284613460DF001
:10230000C6FC0DE0002296F8339001F0FDFF014677
:102310002046FFF79DFF4946024628460DF0DFFCA8
:1023200001364645C5D11E4B1E78204636B14021A8
:10233000FFF78EFF00210246284605E0FF21FFF748
:1023400087FF3146024628460DF0C9FC00263B783F
:10235000B34204EB060312D193F84380114B1B6880
:10236000039303996423B1FBF3F12046C9B2FFF74D
:102370006FFF4146024628460DF0B1FC08E00022FE
:1023800093F8431000920192284613460DF07FFC0B
:102390000136042EDBD105B0BDE8F08340D7FF1F26
:1023A00058D7FF1FE4D7FF1F2DE9F04F044685B033
:1023B00000F1100B0646371BFFB2DFF8A881254657
:1023C000384606F033FD98F8002055F8083B40F6F3
:1023D000081A0AFB023393F80038834203D196F8B7
:1023E0003310FF222AE0384606F020FD594B1B78B7
:1023F000834214D1584B96F833701B680393039AA9
:102400000523B2FBF3F3FF2293FBF2F29918C9B252
:102410002046FFF71DFF3946024628462BE0236879
:1024200098F8002038460AFB023906F0FFFC09EB59
:10243000401043794BB996F8331001220092019273
:10244000284613460DF023FC17E0236898F8002077
:1024500096F8339038460AFB023A06F0E7FC002271
:102460000146504601F050FF01462046FFF7F0FEBE
:102470004946024628460DF032FC01365E459AD1A7
:10248000364B1E78204636B14021FFF7E1FE002191
:102490000246284605E0FF21FFF7DAFE31460246F4
:1024A00028460DF01CFC2E4B1B78032B30D8DFE8A0
:1024B00003F00205111D2046FF2101E02046BF2147
:1024C000FFF7C6FE1521024628460DF008FC2046FF
:1024D0007F2116E07F212046FFF7BAFE1521024634
:1024E00028460DF0FCFB2046BF210AE07F21204654
:1024F000FFF7AEFE1521024628460DF0F0FB204600
:10250000FF21FFF7A5FE1621024628460DF0E7FB46
:102510000026144A1378B34204EB06030BD120467D
:10252000002193F84370FFF793FE39460246284690
:102530000DF0D5FB08E0002293F8431000920192C1
:10254000284613460DF0A3FB0136042EE1D105B059
:10255000BDE8F08F15D7FF1FE4D7FF1F58D7FF1F27
:1025600024D7FF1F40D7FF1F2DE9F04F044685B049
:102570000025724B1A78AA4204EB050304F1080601
:102580000BD12046402193F84370FFF761FE394696
:10259000024630460DF0A3FB08E0002293F84310FA
:1025A00000920192304613460DF071FB0135042D67
:1025B000DFD104F1100B25462F1BFFB2DFF87C9111
:1025C000384606F033FC4B4640F608181A78236864
:1025D00008FB023A9AF80028824238463DD106F0BC
:1025E00025FC0AEB40104379012B08D1FF22802300
:1025F00095F8331030468DE80C0000222BE023685C
:1026000099F80020384608FB023A06F00FFC0AEB66
:1026100040104379022B06D10023802295F8331015
:10262000009301926AE0236899F80020384608FB7D
:10263000023806F0FBFB08EB401095F833104379A5
:10264000032B04D1002280238DE80C006BE0FF22D5
:10265000009201923046134667E006F0E7FB384BE4
:102660001B78834216D1374B95F833701B68039360
:10267000039A0523B2FBF3F3FF2293FBF2F29918BE
:102680002046C9B2FFF7E4FD3946024630460DF058
:1026900026FB4CE099F800202368384608FB023AF4
:1026A00006F0C4FB0AEB4010427912B995F83310DA
:1026B000CEE7236899F80020384608FB023A06F076
:1026C000B5FB0AEB40104379012B05D1FF2395F8A8
:1026D000331000930022BCE7236899F800203846A5
:1026E00008FB023A06F0A2FB0AEB40104379022BEA
:1026F00007D1002395F83310009301933046FF2251
:1027000013E0236899F80020384608FB023806F0E9
:102710008DFB08EB40104379032B08D1002295F87C
:102720003310009201923046FF230DF0B0FA0135CC
:102730005D457FF441AF05B0BDE8F08F40D7FF1F86
:1027400015D7FF1FE4D7FF1FF7B505460024114B2F
:102750001B78A34205F1080605EB04030BD12846BC
:10276000C42193F84370FFF773FD394602463046A3
:102770000DF0B5FA08E0002293F8431000920192A0
:10278000304613460DF083FA0134042CDFD103B038
:10279000F0BD00BF40D7FF1FF0B5044685B00D4621
:1027A00009F0C6FD6368C01AA84269D909F0C0FDE6
:1027B000344B60601B78092B04F1080620D00ED83A
:1027C000032B19D005D8002B52D02046FFF7ECFD83
:1027D0004EE0062B4CD12046FFF7C6FE48E07D2B8D
:1027E0000ED003D80B3B012B06D941E0F12B3FD192
:1027F0002046FFF7A9FF3BE02046FFF753FD37E0F7
:1028000000256319204693F833701F4B1B68039310
:10281000039A0523B2FBF3F3122202FB0533FF22D6
:1028200093FBF2F29918C9B2FFF712FD0135024687
:10283000394630460DF053FA102DE2D10025134BE6
:102840001B782B4113F0010004EB050393F84310B0
:1028500004D00022FF238DE80C0002E04022009209
:1028600001903046134601350DF011FA042DE6D1E2
:10287000074B02241C6030460DF03EF9054B1C60EE
:1028800005B0F0BD728EFF1FE4D7FF1F7C8EFF1FC7
:1028900004F10F4008F10F4001EB81012DE9F047F1
:1028A00005464FEAC1080026002406EB04192B193F
:1028B0005FFA89F94946284693F833A0FFF7C8FC28
:1028C00005F108070246514638460DF008FA04F0B3
:1028D00003032B444946284693F843A0FFF7B8FC6E
:1028E00001340246514638460DF0F9F9102CDCD17E
:1028F00038460DF001F9B8F1000F03D04346013B13
:102900007FF4FDAF0136B6B2B6F5807FCCD1BDE81D
:10291000F087FFFFF7B52C4C236816225B6805464D
:102920000E4620462949984720462C4608F0FCFED2
:1029300044F8086B0520012109F078FCC8212046E5
:102940000DF002FA20460DF085F820460DF0D4F87F
:1029500000270026AB19FAB293F8331000920192C7
:102960002046134601360DF092F9102EF2D1204682
:102970000DF0C2F84FF47A63013B7FF4FDAF0137ED
:10298000B7F5807FE5D1FF270026AB19FAB293F89F
:102990003310009201922046134601360DF077F96C
:1029A000102EF2D120460DF0A7F84FF47A63013BC8
:1029B0007FF4FDAF013FE7D12846642103B0BDE8B5
:1029C000F040FFF769BF00BFECD9FF1F6D5E01004B
:1029D000044A054B1360054A1360054A136009F069
:1029E000EBB900BFB091FF1F03200038AC91FF1F6F
:1029F000A891FF1F2DE9F04705468CB00C461646FE
:102A00001F46BE49BE48FDF77AFDEE626F620126A1
:102A10000027BC492F736F73AF73EF732E746E74FE
:102A2000AE74EE742F756F75AF75EF752E766E768A
:102A3000AE76EE76B248FDF762FD20462121AC620B
:102A400002F072FB204639460822334602F0B2F902
:102A5000204631460422334602F0ACF920460221DA
:102A60000922334602F0A6F9204603210522334607
:102A700002F0A0F9204611210622334602F09AF90D
:102A8000204604210A22022302F094F9204605215F
:102A90000722022302F08EF9204606210B22022390
:102AA00002F088F9204607210C22022302F082F965
:102AB000204608211B22334602F07CF920460921DA
:102AC0001222334602F076F920460A2113223346B9
:102AD00002F070F920460B211422334602F06AF905
:102AE00020460C211522334602F064F920460D21C0
:102AF0001622334602F05EF920460E211722334695
:102B000002F058F920460F210322334602F052F911
:102B1000204610211822334602F04CF92046162197
:102B20000E22022302F046F92046122102223346E9
:102B300002F040F92046132132463B4602F03AF9B2
:102B4000204614211A223B4602F034F92046152172
:102B50000D223B4602F02EF9204617210F223B465C
:102B600002F028F92046182110223B4602F022F9F3
:102B70002046192111223B4602F01CF920461A2159
:102B800019223B4602F016F93A463B461B212046E5
:102B900002F010F9204602F04DFA5B495848FDF763
:102BA000AEFC022105F11D0002F09CF805F11F09A1
:102BB0000A2009F0DBFB1321484602F04DFB05F12A
:102BC00020080A2009F0D2FB4046122102F044FB03
:102BD0000A2009F0CBFB4D4904A808F06EFE0A223A
:102BE0003946684608F09FFE694604A808F002FFCF
:102BF000474908F008FFFEB282463146484602F0D7
:102C00009FFB014608A808F07BFE504608A908F083
:102C1000F1FE01463A48FDF768FC08A808F00DFEF1
:102C2000684608F00AFE04A808F007FE012009F033
:102C30009DFB384904A808F040FE0A223946684640
:102C400008F071FE694604A808F0D4FE304908F087
:102C5000DAFE31468246404602F072FB014608A881
:102C600008F04EFE504608A908F0C4FE014624486C
:102C7000FDF73BFC08A808F0E0FD684608F0DDFD24
:102C800004A808F0DAFD012009F070FB012009F02A
:102C90006DFB31460122484602F01AFB012009F083
:102CA00065FB01223146404602F012FB012009F08B
:102CB0005DFB012009F05AFB144904A808F0FDFD52
:102CC0000A223946684608F02EFE694604A808F034
:102CD00091FE0F4908F097FE31468246484602F0C1
:102CE0002FFB014608A808F00BFE504608A908F083
:102CF00081FE01460248FDF7F8FB0DE0845E01000D
:102D0000ECD9FF1F965E0100B05E0100C15E0100BC
:102D1000325A0100D05E010008A808F08EFD684616
:102D200008F08BFD04A808F088FD012009F01EFBC7
:102D30007E4904A808F0C1FD0A223946684608F019
:102D4000F2FD694604A808F055FE794908F05BFEDB
:102D500031468246404602F0F3FA014608A808F0E0
:102D6000CFFD504608A908F045FE01467148FDF721
:102D7000BCFB08A808F061FD684608F05EFD04A8E9
:102D800008F05BFD012009F0F1FA012009F0EEFAEC
:102D90003146FF22484602F09BFA012009F0E6FA8C
:102DA000FF223146404602F093FA012009F0DEFA94
:102DB000012009F0DBFA604904A808F07EFD0A2230
:102DC0003946684608F0AFFD694604A808F012FECF
:102DD000574908F018FE31468246484602F0B0FADC
:102DE000014608A808F08CFD504608A908F002FE2C
:102DF00001465048FDF779FB08A808F01EFD68461B
:102E000008F01BFD04A808F018FD012009F0AEFA37
:102E1000464904A808F051FD0A223946684608F0E0
:102E200082FD694604A808F0E5FD414908F0EBFD84
:102E300031468246404602F083FA014608A808F06F
:102E40005FFD08A9504608F0D5FD01463948FDF759
:102E50004CFB08A808F0F1FC684608F0EEFC04A85A
:102E600008F0EBFC0137012009F080FA042F7FF411
:102E7000B2AE2E462F1D96F834302B44204693F8E0
:102E80003C10012202F045F996F838302B442046D8
:102E900093F83C100122013602F03BF9BE42EAD120
:102EA00026492448FDF72BFB1F20012109F0BEF91C
:102EB0000420012109F0BAF921491E48FDF71FFB42
:102EC000204602F0EDF800251E4904A808F0F5FCA4
:102ED0000A222946684608F026FD694604A808F03B
:102EE00089FD194908F08FFDE9B20646204602F037
:102EF00023F80A22014608A808F015FD08A9304663
:102F000008F078FD01460B48FDF7EFFA08A808F035
:102F100094FC684608F091FC013504A808F08DFC8B
:102F20001C2DD1D10CB0BDE8F08700BFD05E0100F0
:102F3000325A0100ECD9FF1FC15E0100DF5E0100C3
:102F4000F45E01001E5F0100425B01002DE9FF47B6
:102F5000B34B1A680292029A1B680393039BB14B0E
:102F60001B78283B0446232B00F27D83DFE813F017
:102F700024005300840024005300840024005300E4
:102F80008400240053008400B300CE00EA00050151
:102F900020013C01680183019F01BA01D501F101C3
:102FA0000C02270243025E0279029502B002CB02B4
:102FB000F2020D032E0351039B4D05F1080A6E78B2
:102FC000DFF87082DFF8709238F8162039F8163082
:102FD000009296494FF48042002008F024FC04F14E
:102FE0001D0782B23146384601F098FE15F8016F90
:102FF0008E4938F8162039F81630009200204FF428
:10300000804208F010FC314682B2384601F086FE5C
:103010005545D4D127E3844D05F1080A6E78DFF8D1
:103020001482DFF8149238F8162039F8163000921E
:103030007E494FF480424FF4005008F0F4FB04F155
:103040001D0782B23146384601F068FE15F8016F5F
:10305000764938F8162039F8163000924FF40050AF
:103060004FF4804208F0DFFB314682B2384601F06F
:1030700055FE5545D2D1F6E26B4D05F1080A6E7842
:10308000DFF8B081DFF8B09138F8162039F8163043
:103090000092664966484FF4804208F0C4FB04F190
:1030A0001D0782B23146384601F038FE15F8016F2F
:1030B0005E4938F8162039F8163000925C484FF413
:1030C000804208F0B0FB314682B2384601F026FE5D
:1030D0005545D4D1C7E2DFF86481564E98F80050C8
:1030E000554F36F8152037F815305049009200F149
:1030F0001D044FF480424E4808F095FB294682B2E9
:10310000204601F00BFE98F8005058E2DFF82C81C1
:10311000484E98F80050484F36F8152037F81530CB
:103120004249009200F11D044FF480424FF40050D8
:1031300008F079FB294682B2204601F0EFFD98F8AD
:1031400000505EE2DFF8F4803A4E98F800503A4FB3
:1031500036F8152037F815303449009200F11D0477
:103160004FF48042002008F05EFB294682B22046E0
:1031700001F0D4FD98F8005065E2DFF8C0802D4ED4
:1031800098F801502C4F36F8152037F8153027499C
:10319000009200F11D044FF48042254808F043FBE3
:1031A000294682B2204601F0B9FD98F8015006E2A6
:1031B000DFF888801F4E98F801501F4F36F8152011
:1031C00037F815301949009200F11D044FF4804280
:1031D0004FF4005008F027FB294682B2204601F048
:1031E0009DFD98F801500CE2DFF85080114E98F8E0
:1031F0000150114F36F8152037F815300B49009261
:1032000000F11D044FF48042002008F00CFB294619
:1032100082B2204601F082FD98F8015013E200BF0F
:10322000E4D7FF1F25D7FF1F508EFF1F00C0FFFFF1
:1032300000E0FFFF5A8EFF1F848EFF1F518EFF1F7D
:10324000DFF80C83BE4E98F80250BE4F36F81520BA
:1032500037F81530BC49009200F11D044FF480424C
:10326000BA4808F0E0FA294682B2204601F056FD3D
:1032700098F80250A3E1DFF8D882B14E98F80250D6
:10328000B04F36F8152037F81530AF49009200F1ED
:103290001D044FF480424FF4005008F0C4FA294650
:1032A00082B2204601F03AFD98F80250A9E1DFF819
:1032B000A082A34E98F80250A24F36F8152037F896
:1032C0001530A149009200F11D044FF48042002006
:1032D00008F0A9FA294682B2204601F01FFD98F8AD
:1032E0000250B0E1DFF86882954E98F80350954F90
:1032F00036F8152037F815309349009200F11D0477
:103300004FF48042914808F08EFA294682B2204656
:1033100001F004FD98F8035051E1DFF83482884E43
:1033200098F80350874F36F8152037F8153086493E
:10333000009200F11D044FF480424FF4005008F059
:1033400072FA294682B2204601F0E8FC98F8035050
:1033500057E1DFF8FC817A4E98F80350794F36F840
:10336000152037F815307849009200F11D044FF40C
:103370008042002008F057FA294682B2204601F028
:10338000CDFC98F803505EE1DFF8C4816C4E98F8EC
:1033900004506C4F36F8152037F815306A49009202
:1033A00000F11D044FF48042684808F03CFA2946B9
:1033B00082B2204601F0B2FC98F80450FFE0DFF83A
:1033C00090815F4E98F804505E4F36F8152037F81C
:1033D00015305D49009200F11D044FF480424FF416
:1033E000005008F020FA294682B2204601F096FCEF
:1033F00098F8045005E1DFF85881514E98F80450D0
:10340000504F36F8152037F815304F49009200F12B
:103410001D044FF48042002008F005FA294682B2CC
:10342000204601F07BFC98F804500CE1DFF8208185
:10343000434E98F80550434F36F8152037F81530AD
:103440004149009200F11D044FF480423F4808F0CA
:10345000EAF9294682B2204601F060FC98F805504E
:10346000ADE0DFF8EC80364E98F80550354F36F871
:10347000152037F815303449009200F11D044FF43F
:1034800080424FF4005008F0CEF9294682B220461F
:1034900001F044FC98F80550B3E0DFF8B480284E02
:1034A00098F80550274F36F8152037F8153026497B
:1034B000009200F11D044FF48042002008F0B3F99F
:1034C000294682B2204601F029FC98F80550BAE05E
:1034D000DFF87C801A4E98F806501A4F36F81520FF
:1034E00037F815301849009200F11D044FF480425E
:1034F000164808F098F9294682B2204601F00EFCE1
:1035000098F806505BE0DFF848800D4E98F80650BA
:103510000C4F36F8152037F815300B49009200F1A2
:103520001D044FF480424FF4005008F07CF9294606
:1035300082B2204601F0F2FB98F8065061E000BF2D
:103540005A8EFF1F848EFF1F00C0FFFF00E0FFFFA9
:10355000518EFF1FDFF82481444E98F80650444FE7
:1035600036F8152037F815304249009200F11D0455
:103570004FF48042002008F056F9294682B22046D6
:1035800001F0CCFB98F806505DE0DFF8F080374E94
:1035900098F80750364F36F8152037F8153035496A
:1035A000009200F11D044FF48042334808F03BF9CB
:1035B000294682B2204601F0B1FB98F8075036F850
:1035C000152037F815302C48009242E0DFF8AC8027
:1035D000264E98F80750264F36F8152037F8153044
:1035E0002449009200F11D044FF480424FF4005032
:1035F00008F019F9294682B2204601F08FFB98F8AD
:10360000075036F8152037F8153000924FF4005067
:103610001FE0DFF86880154E98F80750144F36F811
:10362000152037F815301349009200F11D044FF4AE
:103630008042002008F0F7F8294682B2204601F0C7
:103640006DFB98F8075036F8152037F815300092C2
:10365000002008494FF4804208F0E5F8294682B27C
:10366000204601F05BFB04B0BDE8F0875A8EFF1FD7
:10367000848EFF1F00C0FFFF00E0FFFF518EFF1F81
:103680002DE9F3410446806A414EDFF8248101F0C0
:1036900007FD11210122606A0FF066FC24213080B1
:1036A0000122606A0FF060FC252170800122606AAF
:1036B0000FF05AFC2221B0800122606A0FF054FC06
:1036C0000025F080334B705BEB5A334F984207D2A2
:1036D000324AA95A002200921A464FF4806305E04C
:1036E0002F4A3049AA5A00911946002308F09BF846
:1036F00078534023785F2B4900934FF480626FF03A
:103700003F0308F090F80235082D08F8010FD9D1D1
:10371000A06A254E042101F078FD80F00100307090
:103720000521A06A01F071FD80F001007070062192
:10373000A06A01F06AFD80F00100B0700721A06A64
:1037400001F063FD80F00100F0700421A06A174EC3
:1037500001F045FD05213070A06A01F040FD062111
:103760007070A06A01F03BFD0721B070A06A01F003
:1037700036FD2946F0700122A06A01F0CAFCA06A59
:103780002946002202B0BDE8F04101F0C2BC00BFF2
:103790001CD7FF1F748EFF1F30D7FF1F6A8EFF1FBD
:1037A000948EFF1F00FCFFFF4CD7FF1F59D7FF1F50
:1037B00039D7FF1F10B50144094A91F83410094860
:1037C00032F8112030F8111050188A1A92B253436F
:1037D000142493FBF4F2C2EB500080B210BD00BF82
:1037E000848EFF1F5A8EFF1F0144084A91F834103F
:1037F000074832F8112030F81110511A89B24B43A2
:10380000142093FBF0F1501A80B270475A8EFF1FBC
:10381000848EFF1F2DE9F04F85B090469DF84490AF
:103820009DF838B09DF840609DF8482004460F464A
:103830009A464518B9F1000F01D15EB19AE0806A4D
:10384000039201F0ECFC039A0028F6D0002A40F025
:10385000BA8086E0002A40F08C8095F83430A06A67
:103860002344012293F83C1001F053FCBBF1010FFB
:1038700016D195F83830234493F844100A0908BF4C
:1038800004F11F0001F00F011CBF04F12000002211
:1038900001F01EFD01232B762B7385F814A009E09F
:1038A00008D99DF83C302B74012385F814A02B76A1
:1038B00085F80CB095F83430234493F844100A0985
:1038C00008BF04F11F0001F00F011CBF04F120002C
:1038D000002201F0FDFC95F834603946324602239F
:1038E0002046FFF767FF32468346394602232046CB
:1038F000FFF77AFF5B46009000217822404607F0F0
:1039000092FF04F11D0A82B23146504601F006FAD8
:1039100095F8345039462A4602232046FFF74AFFDD
:10392000394606462A4602232046FFF75DFF00215E
:10393000009078224046334607F075FF294682B250
:10394000504601F0EBF9B9F1000F04D0A06A3946F6
:10395000012201F0DEFB08F0EBFCA06005B0BDE841
:10396000F08FA06A394601F0D4FB002E3FF475AF0A
:1039700000E0032695F83430A06A2344002293F82F
:103980003C1001F0C6FB95F834302344FF2293F835
:103990004430190903F00F0A09D1009230467F2202
:1039A0000B4607F040FFC2B204F11F0009E00021FE
:1039B000009230467F220B4607F035FFC2B204F179
:1039C0002000514685E7002E08BF0326D2E7FFFFFF
:1039D0002DE9F74346180746337B002B00F0E180C2
:1039E000013B032B00F29F80DFE803F002053C6DF2
:1039F000347DE40165E06C4A337C106858430BF079
:103A00006BFB6A490BF0C0FB69490BF0BDFB694BCE
:103A10000446186800010BF05FFB014620460BF0DE
:103A200067FC0AF06DFF0FF033FF0446307D0D4652
:103A30000AF054FF02460B46204629460AF0B4FF1E
:103A400000225D4B0AF0B0FF0BF048FA96F83830D0
:103A50003B44002284B293F83C10B86A01F059FB51
:103A6000022260E0504A337C106858430BF034FB6C
:103A70004E490BF089FB4E490BF086FB4D4B04463B
:103A8000186800010BF028FB014620460BF030FCC3
:103A90000AF036FF0FF0FCFE002200230BF014FAB0
:103AA000347D08B1E40103E0C4EB4424E401A4B292
:103AB00096F83830B86A3B44012293F83C1001F084
:103AC00028FB00222FE0384A337C106858430BF063
:103AD00003FB36490BF058FB35490BF055FB354BD2
:103AE0000446186800010BF0F7FA014620460BF077
:103AF000FFFB0AF005FF0FF0CBFE002200230BF0C6
:103B0000E3F9347D08B1E40103E0C4EB4424E401AB
:103B1000A4B296F83830B86A3B44002293F83C10BF
:103B200001F0F7FA282296F83830DFF89480DFF8B1
:103B300094903B4424B293F844100B090CBF07F156
:103B40001F0007F1200001F00F0101F0C1FB96F802
:103B500038501A4938F8152000233376204639F8B2
:103B6000153000924FF4804207F05DFE1D3782B29F
:103B70002946384601F0D2F896F838500F4938F8FF
:103B80001520009239F8153020464FF4804207F096
:103B90004AFE294682B2384603B0BDE8F04301F040
:103BA000BDB803B0BDE8F08364D7FF1FD00F494014
:103BB0000000C84210D7FF1F0000604000C0FFFF98
:103BC0005A8EFF1F848EFF1F70B504460E461546A1
:103BD0001BB1806A002201F09CFA711EC9B20F2944
:103BE000E46A0DD894F84A3041F080018B420BD042
:103BF000D4F8E00084F84A1003681B68984703E093
:103C0000002384F84A3070BDD4F8E000036805F062
:103C10007F011B689847D4F8E000036840211B68C7
:103C2000984770BD38B5002204460D46806A01F001
:103C300070FA60190023037303750123037638BDFE
:103C400037B54FF4007305460C4609B1084A00E049
:103C5000084A13601720214608F0C8FA2C7724B1CF
:103C6000054B1B680193019B2B6003B030BD00BF67
:103C700084F00F4088F00F40E4D7FF1F044A054B43
:103C80001360054A1360054A136008F095B800BF39
:103C9000BC91FF1F03200038B891FF1FB491FF1F94
:103CA0004379032B09D8DFE803F0090B0B02407CB2
:103CB000D0F1010038BF00207047704700207047E6
:103CC0000120704710B5044608F032FBC4F8000923
:103CD00010BDD0F8F438013370B5C0F8F43890F85E
:103CE000016890F8023800221E440346B2420DDA01
:103CF0009969002907DDD0F8EC58D0F8F848B5FBF1
:103D0000F4F4091B996101322033EFE770BDFFFF26
:103D1000264B80F8E2181B78F0B5002B45D090F8C0
:103D2000DB3890F80268B0F8E0585CB2002CD8BFDD
:103D3000C3F1020211FB06F6D4BFD2B20122DBB2FC
:103D4000002CCCBF1C46012402FB06F205F1010544
:103D5000ADB292FBF4F295FBF2F602FB1652C3F100
:103D60000203A0F8E0284FF48005D0F8F428C0F84A
:103D7000F82895FBF1F5D4BF1E4601260022C0F8B5
:103D8000EC58C0F8F428E5B2F6B201238B420CDA05
:103D90000A44B6FBF5F492FBF4F704FB172414B9BC
:103DA00080F80438F0BD0133F0E7F0BD58D7FF1FAD
:103DB00090F8DB385AB2002ADABFC3F10200C0B271
:103DC0000120002ACCBFDBB20123800590FBF3F079
:103DD000704710B50446FFF7EBFF94F802385843DC
:103DE00010BDF8B5D0F8F458D0F8F848B0F8E0684D
:103DF000AC4234BF27462F46D0F8EC58FFF7E9FF16
:103E00006E43B6FBF0F37D4303FB1060B5FBF4F4A7
:103E10002044F8BD38B590F80338012B044611D181
:103E2000FFF7DFFF05462046FFF7C2FF94F80128A1
:103E300094F802381344013BB5FBF0F01B1A84F8E8
:103E400000380DE063B9FFF7CCFF05462046FFF7C9
:103E5000AFFF94F80138B5FBF0F0C51884F80058AE
:103E600094F8003884F8DF3838BD90F8000800096D
:103E700070472DE9F04190F8017890F8023890F8F9
:103E800000481F4407EB0408054608F1FF380026E8
:103E900044450CDA94FBF7F307FB134305EB43139C
:103EA00028465E61FFF784FF01340644F0E73046A0
:103EB000BDE8F08110B5044651B10023A0F8E03808
:103EC000C0F8F438FFF78DFF01462046FFF7A2FF48
:103ED00094F8023894F801082246184400238342DB
:103EE0000CDA94F800188B4202F1200206D000216F
:103EF00002F8101C02F80F1C0133F0E72046BDE861
:103F00001040FFF7B6BFFFFF2DE9F74F0446FFF75C
:103F100068FF804641462046FFF77CFF94F816383C
:103F2000002B40F0B080594B1B78002B00F0AB8089
:103F300094F8006804EB461303F11002197C002981
:103F400043D15879002840D05170D879504D94F819
:103F50000F38EB56142793FBF7F31844052204F0AF
:103F600055FF2644012186F81B0894F8006804EBED
:103F700046130522187A94F81138EB5693FBF7F79D
:103F8000384404F043FF264494F8103886F85B0860
:103F900094F80068EA56A7190F2392FBF3F387F809
:103FA0009B3804EB4610FFF77BFE97F85B1897F8F9
:103FB0001B38009102463146204600F03FFA94F843
:103FC000003804EB431301221A74254627460026C5
:103FD00094F8021894F801380B449E4253DC6B7934
:103FE000002B48D02A7C042A04D0062A31D0012A8A
:103FF00041D10CE094F800389E4240D101293AD1D9
:104000002046FFF7D5FEB8EB900F38D333E0A9690F
:10401000EA6991422FDA5FFA86FA032B08D8DFE8C3
:1040200003F0020205024FF0010901E04FF0000920
:10403000204651464A4600F078FB06232B74204662
:10404000514695F811B000F057FB834513D904236E
:1040500010E0AB69002B0EDC2846FFF721FE97F835
:104060005B1897F81B3800910246F1B2204600F029
:10407000E5F901232B74013620350137A8E7002329
:104080002B746B74F7E703B0BDE8F08F58D7FF1FB0
:104090003AD7FF1F024B1B780BB1FFF735BF7047B4
:1040A00058D7FF1F044A054B1360054A1360054AA1
:1040B000136007F081BE00BFC891FF1F03200038C6
:1040C000C491FF1FC091FF1F2DE9F041134D04461D
:1040D00028680F46164612491D229846436828460E
:1040E0009847284607F020FB002384F8083804236B
:1040F00084F8DB38069BC4F8FC3884F8097884F827
:10410000026884F80A882046FFF7B3FE012384F88A
:10411000DC38079BC4F80439BDE8F081ECD9FF1FF7
:10412000485F0100F0B58DB004460E4604A8424930
:10413000154607F0C2FB3146684607F0E1FB6946C9
:1041400004A807F057FC3D4907F05DFC29460746E7
:1041500008A807F0D5FB08A9384607F04BFC014634
:10416000374807F0C0FA364807F0DEFA08A807F02B
:1041700064FB684607F061FB04A807F05EFB1023B0
:1041800084F802380423002084F80A3844F62062B8
:1041900084F8DB380523C4F8E82884F8010884F89B
:1041A000060884F8070884F8086884F8095884F831
:1041B0000B3884F80C3884F80F3884F80D3884F8FC
:1041C0000E3884F8103884F8113884F8123884F8DE
:1041D000133884F8143884F8153884F8160884F8ED
:1041E000170884F8180884F81A08402201340321BB
:1041F00061710121E1712172042118236172E17260
:10420000432104F8013C217300231021013A23705B
:104210006370A370E3702371A371A3726373A173BE
:10422000C4F81330E37323746374C4F8173004F1D3
:104230002004DCD10DB0F0BD665F0100865F010097
:10424000ECD9FF1F90F8162882F0010210B5034642
:1042500080F81628EAB190F8022890F80148014643
:1042600014440022A2420CDA93F80008824201F1C1
:10427000200106D0002001F8100C01F80F0C0132CB
:10428000F0E7D3F8040993F80918BDE81040FFF7E8
:10429000C9BC10BDC0F8FC18FFF7EBBD03EB411320
:1042A000C254704730B5023BDBB20C2B98BF1548A7
:1042B0009DF80C4094BF30F8133040F6FF73002097
:1042C000904206DA03F001055B1043EAC523013092
:1042D000F6E70D200C22B1FBF2F502FB1512D2B26B
:1042E0004FF4006545FA02F29A4308D00CB101314F
:1042F00000E00139013810F0FF00C9B2EAD10846E8
:1043000030BD00BF925F010002EB4112805C70473C
:1043100070B590F8E25890F9DB3890F80228B0F8C0
:10432000E048694391FBF3F115FB02F595FBF3F3CC
:10433000214491FBF3F503FB1515A0F8E058002389
:10434000934200F1200008DA50F8081CAEB2A61B18
:10435000314440F8081C0133F2E770BD38B590F8DD
:104360000B388B4204460D4602D10121FFF7A2FD16
:1043700094F80C38AB4208D1044B1B782BB1204683
:104380000421BDE83840FFF7C3BF38BD58D7FF1F31
:10439000F0B5044687B01E464D012AB390F80738A1
:1043A0005BB14FF0010E415D90F80628CDF800E0BA
:1043B0004719FFF777FFB87402E04319425D9A741A
:1043C000254494F80918A87BAA7C6B7B0090E87BB5
:1043D0000190E87A0290002004900396D4F8040932
:1043E000FFF718FA07B0F0BD054494F80918D0F8A3
:1043F0000409AA7C012307B0BDE8F040FFF7E4BB45
:1044000008B54318490193F99B380844002B407ABA
:1044100006DA18440121402204F0F8FCC0B208BDBD
:1044200008BD4318490193F89B3808445AB2807A72
:10443000002AC4BF5843C0B27047FFFF2DE9F04FB8
:1044400017464A0100EB020889464E014146825C4C
:10445000044648788DB010448DF819008878C978E2
:104460008DF8182010440A448DF81B2094F8182861
:104470009DF858C08DF81A001AB1002384F8183836
:1044800033E10122042518F80210FF2908BF05F1C5
:10449000FF3502F1010208BFEDB2042AF3D128462C
:1044A00005EB850188420ADA06AAC5EB020E1EF862
:1044B00000E00EF10C0E00F802E00130F2E7BCF172
:1044C000000F02D00CFB05F5EDB2013B042B4BD8DD
:1044D000DFE803F0030D182B4000A3195B7CB3FB4E
:1044E000F5F205FB12330CAA52FA83F31AE0A31972
:1044F0005B7CB3FBF5F205FB1233ED1A0CAB53FA00
:1045000085F524E0A3195B7CB3FBF5F212F0010FF3
:1045100005FB02F2C2EB030308BFC3EB0503DBB2EA
:104520000CAA134413F8185C20E0A319691E5B7CE5
:1045300093FBF1F2D0074BBFB3FBF5F201FB123353
:1045400005FB1235C3EB0505EDB20CAB1D4415F8A8
:10455000185C0BE02946002007F05BF90CAA52FA20
:1045600080F010F8185C01E09DF8185094F80738B6
:1045700053B1012194F80628009120462946FFF7FF
:1045800091FEA319987401E0A3199D74584B94F8F7
:104590000E289A5C9B462AB100207F2107F039F94A
:1045A000A319987494F81318DFF848A1A3191AF9FD
:1045B0000100042190FBF1F1987C01449974D87AB0
:1045C00094F815381AF9033000211844FF2204F03A
:1045D0001DFC94F80D381BF80330C5B20BB187F001
:1045E000010798F80730002B33D194F8143898F865
:1045F00006001AF903300130012103EB400040228C
:1046000004F004FC94F8DB385AB2002ADABFC3F194
:104610000201C9B201218005002A01FB00FCCCBFC8
:10462000D9B20121A0194FEAC10E9CFBFEF1002A6C
:104630008161DABFC3F10201C9B20121002ACCBFF6
:10464000DBB201238905A219DB0091FBF3F3D361EF
:104650002AE094F8DBA84FFA8AF3002BD8BFCAF1FE
:10466000020A49462046D4BF5FFA8AFA4FF0010A8F
:10467000FFF7C6FE4FEA8A5A00FB0AFB94F8DBA854
:104680004FFA8AF3002B20464946CCBF5FFA8AFADC
:104690004FF0010AFFF7C5FEA3191AFB00F09BFBC0
:1046A000F0F098614010D861A01900F11006437B2A
:1046B000827C90F80EE0CDF800E0083094F80918FC
:1046C000C079019094F81A08039704900295D4F8E1
:1046D0000409FFF79FF898F80530022B18BF002750
:1046E00084F81A787378013373700DB0BDE8F08FD9
:1046F0004CD7FF1F3AD7FF1F70B54318054693F8F4
:104700001B380C467BB100EB41139E79FFF789FE05
:10471000214616FB00F62846FFF772FE96FBF0F0E6
:10472000C0F3870070BD184670BD10B500EB411195
:10473000134601F11002097C0129044608D194F8BE
:104740000918D0F804099278BDE81040FFF73CBA88
:1047500010BDFFFF531A002BB8BF5B42013380F836
:1047600002380A4B91421B7805D201EB031180F805
:104770000118002304E002EB031280F80128012352
:1047800080F80338012380F81838704724D7FF1FBA
:10479000044A054B1360054A1360054A136007F08D
:1047A0000BBB00BFD491FF1F03200038D091FF1F27
:1047B000CC91FF1F10B5044607F0BAFD20602046DB
:1047C00010BD10B5044607F0B3FD2368C01A10BD34
:1047D00013B5194B1A680092009A02601B68019386
:1047E000019B436004460830FFF7E4FF04F11D001D
:1047F00000F076FA04F11F0000F02CFD04F1200017
:1048000000F028FD0D4A1346114653F8040B2063AF
:10481000186860639068A06351F80C0F496804F150
:104820003C0303C352F8140F516804F1440303C35B
:10483000204602B010BD00BFE4D7FF1FAC5F0100EF
:1048400013B504460C30FFF7B5FF04F12400FFF761
:10485000B1FF04F12800FFF7ADFF144B1B68019373
:10486000019B236504F15400FFF7B2FF04F1A0009F
:1048700004F078FB04F1F80000F070FD04F25440FD
:10488000FDF782FC04F59460FCF71AF904F2545029
:1048900000F088FA04F5B76000F084FA04F22C60A6
:1048A000FFF788FF204602B010BD00BFE4D7FF1F0E
:1048B0002DE9F04F8FB004468A468B488B49DFF8CC
:1048C00050921E4604F15407934604F5B768FBF76F
:1048D00016FE189BC4F82836384641465246C4F89E
:1048E00020A6C4F82466FEF785F8D9F800306425C0
:1048F000B3FBF5F38DE88800304600211022042335
:10490000FFF7E2FBD9F80030B3FBF5F38DE8880040
:1049100006F60810012110220423FFF7D5FBD9F871
:10492000003006F59050B3FBF5F38DE888001030A9
:10493000022110220423FFF7C7FBD9F8003006F547
:10494000D850B3FBF5F58DE8A000183003211022F4
:104950000423FFF7B9FB04F1F80318463146224659
:10496000059304F5946500F025FD04F1A009059B6D
:10497000039304F254524346484639468DE860009A
:10498000029404F04BFB04F254403146FDF7C2FFA1
:104990002046394632465346CDF800B005F000FEB9
:1049A000189B00932846524B39463246FCF7A8F82C
:1049B000504B1B78002B00F084804F494A48FBF78E
:1049C0009EFD2846FDF7BBFB2846FDF7E1FA284689
:1049D000FCF7E8FF002749490AA806F06EFF0A2203
:1049E000394606A806F09FFF06A90AA807F002F8B4
:1049F000434907F008F801463B48FBF776FD06A857
:104A000006F01BFF0AA806F018FF4FF000085FFA37
:104A100087FA40F6081000FB08605FFA88F25146FA
:104A200008F10108FFF77EFBB8F1040FEFD12E4823
:104A30003449FBF764FD4FF000085FFA88F128461F
:104A4000524608F10108FCF7E1FBB8F1040FF4D17C
:104A500025482D49FBF753FD94F8A0341BB1284697
:104A6000FDF73EF8F8E729490AA806F026FF0A22D2
:104A7000394606A806F057FF06A90AA806F0BAFFAD
:104A80001F4906F0C0FF01461748FBF72EFD06A898
:104A900006F0D3FE0AA806F0D0FE01374FF4FA70F4
:104AA00007F064FC102F96D194F8A0341BB128466F
:104AB000FDF716F8F8E7642007F058FC2846FDF7E4
:104AC000E3FA2846FCF76EFF0F2228460021FCF788
:104AD00001FF2846FCF794F84846012104F0A8FBA2
:104AE0000FB0BDE8F08F00BFECD9FF1FC85F010019
:104AF000F4DDFF1F6DD7FF1FE45F0100326001008E
:104B00005F600100866001009B600100AF600100F2
:104B1000808EFF1F13B5044607F00AFC94F82D3071
:104B200001902BB104F2544048F2A061FDF734FE2D
:104B300001A8FFF746FE07F0FBFB44F62061019059
:104B400004F1A00005F03CFC01A8FFF73AFE07F0D5
:104B5000EFFB019004F22C60FFF733FE42F210737A
:104B6000984202D994F8A0343BB904F1F80044F615
:104B7000206103F013FB02B010BD04F59460FCF754
:104B8000AFFF07F0D5FBC4F82C0601A8FFF719FE0C
:104B900007F0CEFB0190E8E705F050BD05F0B4BE8C
:104BA0000346D0F81C06D3F8201606F034B9FFFFF0
:104BB000064B10B5064C1C60064B1C60064B1C6077
:104BC00007F0FAF8054B1C6010BD00BFE491FF1F11
:104BD00003200038DC91FF1FD891FF1FE091FF1FD9
:104BE000054BDA6A12F0F00F18BF9B6B4FF2F0031F
:104BF0001340002BF4D1704700C0024010B5184B91
:104C00001A7802B372B61B78D90707D5154A164928
:104C1000146809682140154C216011609A0707D576
:104C2000134A1149146849682140104C61601160B1
:104C30005B0707D50F4B0C4A196892680A400B496D
:104C40008A601A6062B60C4BDA68824207D00B4A5F
:104C50001A60D8600A4A40F0804018611A6010BD9E
:104C60007CDBFF1F80E100E064DBFF1F70DBFF1FC8
:104C700084E100E088E100E000C0024001401F0044
:104C800000001F80054B4FF00042DA625863DA6A79
:104C9000002AFCDA014B986BC0B2704700C002409A
:104CA0000A4B1B788BB1D90703D5094A1168094A09
:104CB00011609A0703D5064A5168074A11605B07DD
:104CC00003D5034B9A68054B1A6070477CDBFF1FC6
:104CD00070DBFF1F00E100E004E100E008E100E01C
:104CE0007047FFFF10B5002304460170437008466B
:104CF000012107F09BFA2278064B53F8323001224B
:104D000083F88020044B4FF038421A60BDE8104011
:104D10000AF064BC8CC90100E891FF1F2DE9F34142
:104D2000174604468846FFF75BFF114B114E186883
:104D3000FFF764FF23788DF8067056F833300125AD
:104D400083F8005101A83B0A032108F130088DF8CF
:104D500005308DF804800AF015FE237856F83330BC
:104D600083F88050FFF79CFF02B0BDE8F08100BFE0
:104D7000E891FF1F8CC90100014B024A1A6070477D
:104D8000E891FF1F03200038054BDA6A12F0F00F9C
:104D900018BF9B6B4FF2F0031340002BF4D1704708
:104DA00000C0024010B5044607F0C2FAA0652046D4
:104DB00010BDFFFF2DE9F04F81469FB0900890464F
:104DC0009A468B4609F08AFD0EF0D2FC0446404616
:104DD0000D4609F083FD002206460F464E4B204645
:104DE000294609F0E1FD0B4602463946304609F0F6
:104DF00027FC0AF09BF82946C6B220460AF096F82E
:104E0000C3B2BAF1000F05D0BAF1010F0CBF0124F3
:104E1000032400E0022409EB0B02002109EB030547
:104E200082F8108082F8301003277200974095F8BE
:104E30005010FF43FFB2394004FA02F20A4385F8EA
:104E4000502006A83549019306F037FD019B02A8C2
:104E5000194606F055FD02A906A806F0CBFD30491B
:104E600006F0D1FD214680460AA806F049FD0AA9B0
:104E7000404606F0BFFD2B4906F0C5FD10228046D6
:104E800095F850100EA806F04EFD0EA9404606F00B
:104E9000B1FD254906F0B7FD3146054612A806F0DA
:104EA0002FFD12A9284606F0A5FD204906F0ABFD0E
:104EB00002220546394616A806F035FD16A92846F1
:104EC00006F098FD1A4906F09EFD1022054604FAE8
:104ED00006F11AA806F027FD1AA9284606F08AFD51
:104EE00001461448FBF701FB1AA806F0A6FC16A819
:104EF00006F0A3FC12A806F0A0FC0EA806F09DFC8C
:104F00000AA806F09AFC02A806F097FC06A806F08C
:104F100094FC1FB0BDE8F08F00001040DB60010082
:104F2000EF600100FA600100036101000D61010002
:104F300018610100ECD9FF1F2DE9F0410F4604462E
:104F4000FFF722FF194B1A4E1868FFF757FE94F827
:104F5000603056F83330012583F8005147F0800067
:104F6000FFF790FE0020FFF78DFE94F8603056F8B2
:104F7000333083F8805094F8603056F83330002096
:104F800083F80051FFF77EFE07460020FFF77AFE08
:104F900094F8603056F83330804683F88050FFF73D
:104FA0007FFE47EA082080B2BDE8F081EC91FF1F48
:104FB0008CC901002DE9F0410F4690460446FFF7E9
:104FC000E3FE1A4B1A4E1868FFF718FE94F860308B
:104FD00056F83330012583F8005107F07F00FFF7C2
:104FE00051FE4046FFF74EFE94F8603056F83330DD
:104FF00083F8805094F8603056F83330002083F8FE
:105000000051FFF73FFE000287B20020FFF73AFE93
:1050100094F8603056F83330384387B283F88050C4
:10502000FFF73EFE3846BDE8F08100BFEC91FF1F60
:105030008CC9010070B5164905461648FBF748FAB9
:10504000144806F071FB09242E19E1B296F84720A6
:105050002846FFF7AFFF10490E48FBF739FA214603
:10506000102200230B4806F06FFB0C490948FBF7A0
:105070002FFA96F8471007481022002306F064FB29
:105080000134044806F050FB102CDDD170BD00BF88
:1050900028610100ECD9FF1F486101005461010043
:1050A00070B50446456807F043F9A36DC01AB0F522
:1050B000FA7F2DD944212046FFF73EFF4C210646BA
:1050C0002046FFF739FF00F47F4040EA26265421AE
:1050D0002046FFF731FF00F47F4046EA00265C21BE
:1050E0002046FFF729FF00F47F4046EA0043DB43F8
:1050F000A268636023EA05010A43A260E26825EA28
:1051000003010A439D42E26002D007F011F9A06555
:1051100070BD38B544181546217C2431C9B2FFF75B
:1051200049FF84F8305038BD30B589B004460D468B
:1051300004A81E4906F0C1FB2946684606F0E0FBBC
:10514000694604A806F056FC01461948FBF7CDF95C
:10515000684606F072FB04A806F06FFB154BE3658A
:10516000154B164A84F8605000251A6025700AF025
:1051700035FA01200AF092FA28460AF0A3FA94F8C8
:105180006000012107F052F894F8601020460122D7
:10519000FFF7BFFF642007F0E9F8A560E56020464F
:1051A00004210122FFF706FF09B030BD5D61010057
:1051B000ECD9FF1F00512502EC91FF1F000001B840
:1051C00010B5014483680A7C012101FA02F212EA57
:1051D00003041DBF934383600846204610BD10B5ED
:1051E0000278012312B1013A02700AE00144C26858
:1051F000097C03FA01F111EA020404D022EA010257
:10520000C260184610BD204610BD014401220B7C2F
:105210009A4043681A420CBF0020012070470144A5
:1052200091F830007047FFFF014B024A1A60704747
:10523000EC91FF1F03200038054BDA6A12F0F00FE3
:1052400018BF9B6B4FF2F0031340002BF4D1704753
:1052500000C002407047FFFF10B5084B084A0170BC
:1052600004461A600AF0BAF92078012106F0DEFF40
:1052700020780121BDE8104006F0B8BFF091FF1F73
:10528000000001382DE9F0410F4690460446FFF733
:10529000D3FF0D4B0D4E1868FFF7B0FC237856F87E
:1052A0003330012583F800513846FFF7EBFC4046C8
:1052B000FFF7E8FC237856F8333083F88050FFF787
:1052C000EFFCBDE8F08100BFF091FF1F8CC9010029
:1052D0000139C9B202299ABF034B595C0021090167
:1052E00001F0F001FFF7CEBF976101002DE9F04119
:1052F0000F460446FFF7A0FF0F4B104E1868FFF74C
:105300007DFC237856F83330012583F8005147F0AF
:105310008000FFF7B7FC07460020FFF7B3FC2378B7
:1053200056F83330804683F88050FFF7B9FC47EADF
:10533000082080B2BDE8F081F091FF1F8CC9010008
:1053400008B50021FFF7D2FF08BDFFFF014B024A5D
:105350001A607047F091FF1F032000381FB500232B
:1053600004460360332006F0D3FE0B220D238DE8A4
:105370000C00C4F8F80006210A22092304F5807005
:105380000BF066FA06F0D4FF084BC4F840011B6826
:105390000393039BC4F8483104F5AE7004494FF4FD
:1053A000007206F08BFD204604B010BDE4D7FF1F4D
:1053B0009C610100F8B5774D044617460E46284615
:1053C000754904F58074FBF79AF86665A765734B19
:1053D000734EFF22204600211A700CF023F964203E
:1053E00006F0C4FF204610210BF05CFA2046002195
:1053F0000BF0A8FA204600210CF0F6F80A2006F07F
:10540000B5FF20464FF478410CF0EEF80A2006F084
:10541000ADFF20464FF620510CF0E6F80A2006F0CA
:10542000A5FF20464FF6E0710CF0DEF80A2006F0EA
:105430009DFF20464FF4FC610CF0D6F80A2006F0E0
:1054400095FF20461F210CF0CFF80A2006F08EFFB2
:1054500020460F210CF0C8F80A2006F087FF2046EE
:1054600047F60F010CF0C0F80A2006F07FFF204637
:105470004FF478410CF0B8F80A2006F077FF4FF6A9
:10548000E07220464FF620510CF0A2FA2046314639
:105490000BF0AEFA43492046FBF731F8322006F014
:1054A00065FF4FF6205220464FF4FC610CF090FA55
:1054B0003D492046FBF723F8322006F057FF2046EF
:1054C0001F214FF4FC620CF083FA642006F04EFFBB
:1054D000204647F60F010F220CF07AFA642006F0FE
:1054E00045FF20460F214FF478420CF071FA082254
:1054F0000023204642F20E710CF010F820464FF6C1
:1055000020510BF01CFA204628490BF071FA204676
:1055100002210BF001FA26492046FAF7F0FF642039
:1055200006F024FF204601210BF0F6F92822002383
:10553000204642F20E710BF0F1FF20464FF620514B
:105540000BF0FDF9204631460BF052FA204619497E
:10555000FAF7D5FF64220023204642F20E710BF0C9
:10556000DDFF204601210BF0D7F9204612490BF050
:105570003FFA204600210BF0E2F910492046FAF7E5
:10558000BEFF4FF47A7006F0F1FE28460C49FAF798
:10559000B6FFF8BDECD9FF1F36700100728EFF1FF9
:1055A0001C8901004B70010052700100546C010015
:1055B000597001006170010054840100677001009E
:1055C0007670010070B504461E25A06800260FF015
:1055D000B3FAA660D4F880000FF0AEFA013DC4F82B
:1055E000806004F10404F0D170BDFFFFF8B50446FB
:1055F0001E25D4F8803023B90C480FF0B7FBC4F84F
:105600008000A0680FF098FAD4F880700026A66099
:1056100038460FF0ABFBA06038460FF08DFA013D25
:10562000C4F8806004F10404E3D1F8BDCEBC0100ED
:10563000064BA0F84E1182B01B680193019BC0F885
:105640004831012380F84C3102B07047E4D7FF1F86
:105650002DE9F04F87B000EB81081E469DF84C30D5
:10566000D8F8081005938446BDF85830D8F8800063
:1056700003931446CDF810C00FF066FBDDF810C0A0
:10568000BDF940509CF8FF20BDF94490BDF948A0F9
:105690009DF850B0BDF85470039B003018BF012036
:1056A000A2423C4A11786FD0A14201D000286ED0AE
:1056B0001278A24202D03A461F4613460CF5807477
:1056C0000193204631462A464B46CDF800A00CF007
:1056D000ABF90023204631462A460BF01FFFBBF1F1
:1056E000090F3AD8DFE80BF00505310C39393911CB
:1056F0002026204628490BF07BF9204601212AE08C
:105700006A1C204642F20E7112E06A1C204642F2E8
:105710000E7112B200230BF001FF20461E490BF060
:1057200067F92046042116E0711C6A1C204609B264
:1057300012B207E0204600210BF004F942F20E718C
:1057400020460A4600230BF0E9FE204612490BF0E2
:105750004FF9204602210BF0DFF8204639460BF0C6
:10576000EEF82046D8F88010FAF7B2FE059B73B128
:10577000204631462A464B46CDF840A0119707B047
:10578000BDE8F04F0CF0A8B9A14291D18EE707B067
:10579000BDE8F08F25D7FF1FC8B7010010B590F8FE
:1057A000503188B00446072B2AD8DFE803F00C0EEE
:1057B00010120406080A13480CE013480AE01348C4
:1057C00008E0134806E0134804E0134802E01348D9
:1057D00000E013480FF0CAFA602128220123C4F820
:1057E00080001C208DE80F000923049300214FF650
:1057F000FF73069305912046FF221223FFF728FF2F
:1058000008B010BD967001009F700100A8700100E3
:10581000B1700100BA700100C4700100CE700100C7
:10582000D87001002DE9F04700EB81070446B96804
:10583000D7F88000BDF920509DF828A0BDF82C8035
:10584000164699460FF080FA94F8FF30003018BFE2
:105850000120B3422D4B1A7852D0B24201D0002819
:1058600051D01A78BDF8303004F58074B24218BFB8
:1058700098462046002349462A460BF04FFEBAF1CF
:10588000080F32D8DFE80AF00505290C3131311153
:10589000200020461E490BF0ABF82046012122E0F3
:1058A0006A1C204642F20E7113E06A1C204642F246
:1058B0000E7112B200230BF031FE204614490BF09A
:1058C00097F8204604210EE009F101016A1C2046E8
:1058D00009B212B200230BF021FE20460C490BF056
:1058E00087F8204602210BF017F8204641460BF0BE
:1058F00026F82046D7F88010FAF7EAFDBDE8F087D1
:10590000B242AED1ABE7BDE8F08700BF25D7FF1F9D
:10591000C8B701002DE9F04FAA4ED0F854313278C3
:10592000DFF8D48240F6081707FB0233044693F8E9
:1059300008389BB00D46013201330846A2490FF0EA
:10594000DFF928460FF012FA96F80090D4F8543197
:1059500098F80020C4F88000520107FB09339B5CD3
:1059600004EB8303D3F85C010FF000FA09F10102A4
:10597000C4F88400954928460FF0C2F928460FF074
:10598000F5F9D4F854313278C4F8900007FB0237A7
:1059900098F8003007EB43177B790BB98C480BE084
:1059A000BA798C49013202F003031927284692087C
:1059B0007B430FF0A5F928460FF0D8F9C4F89400FE
:1059C00085480FF0D3F93278D4F85431C4F89800F0
:1059D00040F6081101FB023398F8002003EB421354
:1059E0002846DA7A1AB97D490FF0B8F902E07C4905
:1059F0000FF086F928460FF0B9F9C4F8A4007948E9
:105A00000FF0B4F90DF12809C4F8A0007649484612
:105A100005F053FF0EA8754905F04FFF12A8744911
:105A200005F04BFF16A8734905F047FF654B1A7840
:105A3000D4F8543140F6081101FB02336E4A127853
:105A400003EB421300255B791B01082659F803007C
:105A50000FF08CF9B4F8463105938027B4F844313F
:105A6000C4F89C004FF00F088DE8A0010693204673
:105A700029462B4603950496FF22FFF7E9FD1D23D7
:105A80000293B4F8463105934FF0070AB4F8443155
:105A9000CDF8008001210197069320460A462B4647
:105AA0000395CDF810A0FFF7D3FDB4F84631059368
:105AB00010274FF02F0C4FF04008B4F84431CDF8C8
:105AC00000C0CDF80480069320462B46029703952C
:105AD00004960421FF22CDF824C0FFF7B9FDB4F8E5
