:1000000000800020BD010000E1470100AD47010074
:10001000AD470100AD470100AD470100AD4701000C
:10002000AD470100AD470100AD470100E1470100C8
:10003000E1470100AD470100B53D0100793E0100F7
:10004000E1470100E1470100E1470100E14701000C
:10005000E1470100E1470100E1470100E1470100FC
:10006000E1470100E1470100E1470100E1470100EC
:10007000E1470100E1470100E1470100E1470100DC
:10008000E1470100E1470100E1470100E1470100CC
:10009000E1470100E1470100E1470100E1470100BC
:1000A000E1470100E1470100E1470100E1470100AC
:1000B000E1470100E1470100E1470100E14701009C
:1000C000E1470100E1470100E1470100E14701008C
:1000D000E1470100E1470100E1470100E14701007C
:1000E000E1470100E1470100E1470100E14701006C
:1000F000E147010065600100E14701008161010005
:10010000E1470100A14F0100E1470100E147010083
:10011000E1470100E1470100E1470100E14701003B
:10012000E1470100E1470100E1470100E14701002B
:10013000E1470100E1470100E1470100E14701001B
:10014000E1470100E1470100E1470100E14701000B
:1001500045400100594001006D400100814001000F
:10016000E147010001520100E1470100E1470100C0
:10017000E1470100E1470100E1470100E1470100DB
:10018000E1470100E1470100E1470100E1470100CB
:10019000E1470100E1470100E1470100E1470100BB
:1001A000E1470100E1470100E1470100E1470100AB
:1001B000E1470100E1470100E1470100564B4CF2E5
:1001C000205210B51A804DF628121A8000BF00BFC9
:1001D00014F00AFB514B4FF010621A60504A9A60BB
:1001E000504ADA60504A136813F4807301BF4F49D4
:1001F0000B604FF4A85313604D4B4E491A7810070B
:1002000042BF1A7842F008021A704B4B2A221A7029
:100210004A4A4B4B8B4204D252F8040F43F8040B6A
:10022000F8E7484B484A0021934202D243F8041BA6
:10023000FAE7464A4648002350F8231042F82310B4
:1002400001336F2BF8D1434B434A802103F8011B44
:100250009342FBD1414B3D4A1A60414B8A221A70AE
:10026000A3F5805324225A70A0221A709A7991071C
:10027000FCD59A79D206FCD43A4A937903F00C0360
:10028000082B384BF9D103221A7146225A719A79F8
:100290009406FCD533498A79324B5006FBD5324A55
:1002A0004FF0827111600921516020221A709A79F1
:1002B00002F00C020C2AFAD12C4B2D4A1A602D4B5D
:1002C0002D4A1A6000225A60072243F8042C2B4A58
:1002D000C3F80C2D62B614F00FFC144B1B68DA0740
:1002E00005D5274814F0FAFA264B274A1A60274BFF
:1002F0001B785B0609D5234C234B22689A4204D114
:100300001F4814F0EBFA0023236018F0F1FA14F000
:1003100071FA14F087F9FEE70E20054030800440A2
:10032000823F04000100002B10D0034014D0034092
:1003300002D00740FC91FF1F00E00740602F020041
:100340002C8CFF1FFC91FF1FF4CCFF1F0082FF1FAE
:100350000000000000E400E05FE400E008ED00E0E1
:1003600000500640004006404480044004800440A1
:10037000C010050014E000E0BFD401000000202000
:10038000B31DB25A1CE00340A5C3945A00F00740C5
:10039000FFFFFFFFFFFFFFFFFFFFFFFFFFFFFFFF6D
:1003A000FFFFFFFFFFFFFFFFFFFFFFFFFFFFFFFF5D
:1003B000FFFFFFFFFFFFFFFFFFFFFFFFFFFFFFFF4D
:1003C000FFFFFFFFFFFFFFFFFFFFFFFFFFFFFFFF3D
:1003D000FFFFFFFFFFFFFFFFFFFFFFFFFFFFFFFF2D
:1003E000FFFFFFFFFFFFFFFFFFFFFFFFFFFFFFFF1D
:1003F000FFFFFFFFFFFFFFFFFFFFFFFFFFFFFFFF0D
:10040000FFFFFFFFFFFFFFFFFFFFFFFFDEF9FFFF23
:1004100010B5054C237833B9044B13B10448AFF33E
:1004200000800123237010BDFC91FF1F000000001D
:100430005C2F0200084B10B51BB108490848AFF308
:1004400000800848036803B910BD074B002BFBD0A0
:10045000BDE81040184700BF000000000092FF1FD9
:100460005C2F0200FC91FF1F00000000002070477D
:1004700070470369C268934210B509D282685C1C58
:100480000461D154826803690021D154012010BD58
:10049000002010BD10B544F2040403595A18B2F5F7
:1004A000804F9FBF033121F00301C218C9189ABFC2
:1004B0000151101D002010BD18B111B100680139A3
:1004C000FAE7704738B504460D4634B161682846EE
:1004D00018F0E6FB08B12468F7E7204638BD70B590
:1004E000044608460D4618F008FC236802462946D3
:1004F00020465B68BDE87040184738B5054613F0E4
:10050000DAFD0446284613F0F7FD204438BD38B51F
:100510000546FFF7E4FF0446284613F0EDFD2044AE
:1005200038BD38B5836814464268054618199042AC
:1005300002D993420AD2D41A28682246184410F0ED
:10054000FFF9AB682344AB60204638BD002038BDBE
:1005500038B583681446426805461819904202D996
:1005600093420AD2D41A28682246184410F0EEFAB0
:10057000AB682344AB60204638BD002038BD10B5C1
:1005800004460068FFF7ABFF63681844606010BD65
:1005900010B586B00B4606A9002201F8032D0A24E7
:1005A000B3FBF4F204FB1233303301F8013D134680
:1005B000002AF5D1FFF7E3FF06B010BD10B50446E1
:1005C000006803681B68984763681844606010BD42
:1005D00070B505460C4619B91149FFF7D0FF70BD3B
:1005E0002221FFF7EBFF013C14F8011F71B10D4B05
:1005F00013F8026C7EB1023313F8032C8A42F7D150
:100600005C212846FFF7DAFF314604E02221284624
:10061000FFF7D4FF70BD2846FFF7D0FFE4E700BF27
:100620003A9701004197010008B5032809D8DFE88F
:1006300000F010020406084808BD084808BD084834
:1006400008BD0438C0B2FFF7EFFF064917F04EFDB2
:1006500008BD4FF07E5008BDCDCCCC3D0AD7233C21
:100660006F12833A17B7D1382DE9F0410646084694
:100670000C46174617F000FF08B14E4917E000215D
:10068000204617F0D1FE28B12D213046FFF796FF06
:1006900004F1004424F000454749284617F0ECFED9
:1006A00050B94549284617F0C9FE28B94349304694
:1006B000FFF765FFBDE8F0814149204617F0D2FE03
:1006C0000546002872D13F49204617F0ADFE70B9AB
:1006D00005461FE04FF07E51204617F0A5FE60B1A1
:1006E0002046394917F002FD013D2DB20446002194
:1006F000204617F08FFE0028ECD03349204617F033
:10070000B1FE38B12046304917F0A4FD01352DB2B5
:100710000446F2E73846FFF787FF4FF07C5117F0A9
:10072000E5FC214617F0DAFB804617F0E1FE0446AF
:1007300001463046FFF72CFF2FB3204617F07EFC12
:100740000146404617F0C8FB2E2180463046FFF791
:1007500035FF1D49404617F0C9FC804617F0C8FE1A
:10076000C4B2204617F06AFC0146404617F0B4FBBD
:1007700004F130018046C9B23046013FFFF71EFF49
:1007800017F0FF07E5D1002D05DA10493046FFF7D5
:10079000F6FE694205E00BD065213046FFF70EFFFB
:1007A00029463046FFF7F4FEBDE8F08100259EE7BC
:1007B000BDE8F0814E970100FFFF7F7F5597010054
:1007C00000007A446F12833A0000204152970100E2
:1007D0000246084619B10B6811461B681847704756
:1007E00038B5084D2B6813F0010409D1284614F0E0
:1007F00019F828B1044B28461C605C6014F017F807
:10080000014838BD2492FF1F2892FF1F08B5406899
:10081000FFF758FE20B1037A062B01D1C06808BD4E
:10082000FFF7DEFF08BDFFFF38B5084D2B6813F05A
:10083000010409D1284613F0F5FF28B1044B2846DE
:100840001C605C6013F0F3FF014838BD1892FF1F75
:100850001C92FF1F03780D2B09D003D8093B012BF5
:1008600023D804E0202B02D02F2B02D07047013078
:10087000F0E743782A2B02D02F2B0DD07047831C32
:100880001A7818460133002AE4D02A2AF8D11A78B7
:100890002F2AF5D10230DDE7831C184613F8012B0F
:1008A000002AD7D00A2AF8D1D4E7704738B50446D1
:1008B00000680D46FFF7CEFF0378AB4205D101304B
:1008C000FFF7C8FF2060012038BD002038BDFFFFC2
:1008D00070B5436882681C78272C0ED0222C0CD06F
:1008E00047F6ED7524E05C2905D1AB1CA978174DBE
:1008F0002E7856B911B302F8011B1D4601336978F1
:10090000E1B18C42EFD1AB1C18E0B14201D1697862
:10091000F0E70235ECE7A4F12B01C9B20E290DD89E
:1009200025FA01F1C90709D502F8014B13F8014F67
:1009300024F0200141391929EDD8F5E7002102F80A
:10094000011B816843608260084670BD43970100C7
:10095000027838B505460C46072A3BD8DFE802F096
:1009600040241F2F2A26041B45685B212046FFF7E1
:1009700025FE6D6855B1281D2146FFF7E9FF2D685A
:1009800025B12C212046FFF719FEF3E75D21204613
:10099000FFF714FE38BD406800F028F838BD416804
:1009A0002046FFF715FE38BD41680FE02D21204697
:1009B000FFF704FE69682046FFF7EAFD38BD41688D
:1009C000084B094A002914BF114619462046FFF773
:1009D000D6FD38BD083A4168D2B22046FFF744FE42
:1009E00038BD00BF639701005E97010070B50546F2
:1009F0000C4620467B21FFF7E1FD6D68A5B12E4630
:100A0000204656F8041FFFF7E3FD3A212046FFF782
:100A1000D5FD2146301DFFF79BFF2D6825B12C2108
:100A20002046FFF7CBFDE9E77D212046FFF7C6FD15
:100A300070BD10B5014604460820FFF7C9FE18B185
:100A400000230460436010BDFFF7CAFE10BD10B55F
:100A5000014604460820FFF7BBFE18B100230460DE
:100A6000436010BDFFF7E0FE10BDFFFF037810B537
:100A7000052B17D8DFE803F01A08080303054068C0
:100A800010BD4068404210BD44688CB121460A4800
:100A900018F006F970B120460A220021BDE8104086
:100AA00018F0CEB9406817F0FDFC10BD002010BD55
:100AB000204610BD012010BD5E970100037810B5DF
:100AC000052B14D8DFE803F017050503030340687E
:100AD00010BD44688CB121460A4818F0E1F870B1A5
:100AE00020460A220021BDE8104018F041BA4068B3
:100AF00017F0FEFC10BD002010BD204610BD0120E7
:100B000010BD00BF5E97010070B5044613F0C0FF32
:100B1000E06413F0BDFF25460023206545F85C3FE7
:100B20004FF48A7013F0A4FE294606460FF092FB9C
:100B3000266704F1780010F0EBFC04F1980010F047
:100B4000E7FC204670BDFFFF2DE9F04766498EB0F7
:100B500006466648FFF7DBFC642013F0B7FF644BE2
:100B60001B88ADF80430F7238DF8003010F0D8F969
:100B700020B960495D48FFF7CAFCF7E70024002769
:100B80005D495FFA87F806A813F07BFB414602A88F
:100B900013F097FB02A906A813F032FC574913F093
:100BA00037FC214605460AA813F08BFB0AA9284604
:100BB00013F026FC01464D48FFF79FFC0AA813F0EE
:100BC00020FB02A813F01DFB06A813F01AFB02215C
:100BD00001A814F025FF4A4818F074F8824610F076
:100BE00047FB08B351460AA810F0C6FA06F15C03A9
:100BF0000AAA0DF1300E9946154603CD75451860C9
:100C000059602A4603F10803F6D128681860AA88BB
:100C10009A80504617F0B6FEF36D53B93949334800
:100C2000FFF775FC02205BE0504617F0ABFE012099
:100C300056E04FF4805017F09DFE2246054641468F
:100C4000304601F0BCFEC0B200034FF4805229468A
:100C500070664846FFF765FC4FF48051284614F053
:100C6000DFFE284617F08EFE0121684614F0D8FEFC
:100C7000642013F02BFF244906A813F002FB414621
:100C800002A813F01EFB02A906A813F0B9FB1B492A
:100C900013F0BEFB214605460AA813F012FB0AA971
:100CA000284613F0ADFB194913F0B2FB01460F487B
:100CB000FFF723FC0AA813F0A4FA02A813F0A1FA84
:100CC000013706A813F09DFA042F7FF459AF0134C1
:100CD000E4B2102C7FF453AF0D490448FFF717FC22
:100CE0000EB0BDE8F08700BF69970100248FFF1F99
:100CF00038970100889701009B970100AC9701008D
:100D0000B6970100DB970100299801003298010095
:100D1000BE97010008037047002238B5114604460B
:100D200002F052F90023626D02EB43025D1CB2F83F
:100D3000A2206900204602F047F9042D2B46F2D18B
:100D40000025636D03EB4503691DB3F8AA20490034
:100D50002046013502F038F9042DF2D10025636DEB
:100D600003EB450305F10901B3F8B2204900204621
:100D7000013502F029F9042DF1D10025636D03EB53
:100D8000450305F10D01B3F88220490020460135E5
:100D900002F01AF9082DF1D10025636D03EB45032C
:100DA00005F11501B3F8922049002046013502F003
:100DB0000BF9082DF1D102490248FFF7A8FB38BD15
:100DC00038980100248FFF1FF8B50021044602F077
:100DD0000DF94FF6FF73984219D132493248FFF7A7
:100DE00096FB30493048FFF792FB2E492E48FFF71B
:100DF0008EFB2C492C48FFF78AFB2A492A48FFF72B
:100E000086FB28492848FFF782FB0120F8BD002512
:100E10006F1C666D7900204602F0E8F806EB450588
:100E2000042FA5F8A2003D46F2D10025691D666D8C
:100E30004900204602F0DAF806EB45060135042D9C
:100E4000A6F8AA00F2D1002505F10901666D490056
:100E5000204602F0CBF806EB45060135042DA6F836
:100E6000B200F1D1002505F10D01666D4900204663
:100E700002F0BCF806EB45060135082DA6F8820005
:100E8000F1D1002505F11501666D4900204602F0FB
:100E9000ADF806EB45060135082DA6F89200F1D114
:100EA0000020F8BD62980100248FFF1F10B588B0A4
:100EB0000023013A059106920B7003AA064C8DF8A7
:100EC000103001A90394079301920293FFF78EFD5E
:100ED000029808B010BD00BF1C97010010B5016852
:100EE00004460C20FFF774FC10B10023036003716B
:100EF00063682BB11A680AB11346FBE7186010BD8E
:100F0000606010BD10B50C46FFF7E8FF40B12368E4
:100F1000002BAEBF04225B420522027183600120D8
:100F200010BD10B50C46FFF7D9FF20B123788360C0
:100F300004220271012010BD10B50C46FFF7CEFF50
:100F400048B194F90030002BAEBF04225B42052269
:100F500002718360012010BD10B5016804461020A5
:100F6000FFF736FC10B100230360037263682BB1F6
:100F70001A680AB11346FBE7186010BD606010BD27
:100F80002DE9F7430546074655F8040BFFF75FFDCB
:100F90007B2104462846FFF789FC98B37D2128462B
:100FA000FFF784FC88BB0646E8463846FFF790FC0E
:100FB000814638B33A212846FFF778FC10B3414602
:100FC00038468DF8006000F024F8D8B149466068D2
:100FD000FFF778FA28B92046FFF7BEFF90B1C0F8B6
:100FE000049000F1080398E8030083E803007D21E2
:100FF0002846FFF75BFC40B92C212846FFF756FC3A
:101000000028D2D1FFF710FC00E0204603B0BDE875
:10101000F08370B5047B05460E46002C36D0013CAB
:1010200004734068FFF716FC686004785B2C02D0FC
:101030007B2C09D013E0284600F02AF803680BB98E
:10104000002420E0062306E02846FFF799FF036806
:10105000002BF5D0072333707060012413E0272C98
:1010600004D0A4F122035C425C4100E00124284644
:10107000FFF72EFC0028E3D014B10223337001E007
:101080000124347070602B7B01332B73204670BDBC
:101090002DE9F3410546804655F8040BFFF7C9FCDE
:1010A0005B2104462846FFF701FC08B35D21284672
:1010B000FFF7FCFBF8B906466F46394640468DF807
:1010C0000060FFF7A6FF98B12046FFF707FF78B151
:1010D000031D97E8030083E803005D212846FFF71E
:1010E000E5FB40B92C212846FFF7E0FB0028E4D1BE
:1010F000FFF776FB00E0204602B0BDE8F081FFFF7D
:101100001FB5074B0090002918BF0B466846019396
:1011100002918DF80C20FFF733FF05B05DF804FB5A
:101120003EA0010070B5054600680E4610B9FFF7F5
:1011300057FB70BDFFF77DFC314604466868FFF73A
:10114000C1F920B92846FFF707FF48B14660236878
:10115000002B15BF06220022234600230272C36023
:10116000204670BD2DE9F041ADF5814D5F4B1E93DA
:10117000044644F204031EA80022C2500F46FFF7A3
:1011800066FC5B490646FFF7CDFF12231AA9054608
:101190001A93FFF7B7FE616D28464131FFF7C1FE94
:1011A000616D28464231FFF7BCFE616D2846433130
:1011B000FFF7B7FE616D28464431FFF7B2FE616D5F
:1011C00028464531FFF7ADFE616D28464631FFF7F1
:1011D000A8FE616D28466331FFF7A3FE2846D4F8C8
:1011E0005480FFF77BFE20B1D8F86430836004227E
:1011F0000271404906A813F044F8636D02A893F801
:10120000411013F05EF802A906A813F0F9F83A4964
:1012100013F0FEF8636D054693F842100AA813F028
:1012200050F80AA9284613F0EBF8334913F0F0F808
:10123000636D054693F843100EA813F042F80EA90B
:10124000284613F0DDF82C4913F0E2F8636D0546EB
:1012500093F8441012A813F034F812A9284613F09A
:10126000CFF8254913F0D4F8636D054693F845107F
:1012700016A813F026F816A9284613F0C1F81E493F
:1012800013F0C6F8636D1AAA93F84610019205464A
:10129000104613F016F80199284613F0B1F81649D4
:1012A00013F0B6F801461548FFF727F9019812F038
:1012B000A8FF16A812F0A5FF12A812F0A2FF0EA810
:1012C00012F09FFF0AA812F09CFF02A812F099FFEB
:1012D00006A812F096FF4FF4805239463046FFF7C9
:1012E000E5FD0DF5814DBDE8F08100BF34970100AB
:1012F0001FC901008D9801003DA00100248FFF1F30
:101300002DE9F041044688B0384817F0DBFC012194
:1013100007464FF4805017F0CFFA064601462046A4
:10132000FFF720FF0FF0FCFD0028FBD0304904A898
:1013300012F0A7FF3146684612F0A3FF694604A8E1
:1013400013F05EF801462B48FFF7D7F8684612F015
:1013500058FF04A812F055FF394604A80FF00CFFFF
:1013600004F15C0304AA0DF1180E9846154603CD4E
:101370007545186059602A4603F10803F6D12868BC
:101380001860AA889A80E36D8BB100254046656697
:1013900010F06EF865664FF4805231464046FFF714
:1013A000D7F8304608B0BDE8F04117F0EBBA124963
:1013B0001048FFF7ACF8114904A812F062FF394653
:1013C000684612F05EFF694604A813F019F801465A
:1013D0000848FFF792F8684612F013FF04A812F0CD
:1013E00010FF05490348FFF792F8DAE7A6980100D5
:1013F0001C9C0100248FFF1FAF980100BE980100C4
:10140000F0B5324989B004463148FFF780F83148D9
:1014100017F058FC06460FF02BFF90B92E492C48C8
:10142000FFF775F80FF072FE4FF480310246304638
:101430000FF02AFF606D0BF053F92046FFF760FFB5
:1014400038E026492248FFF762F80FF069FD0028CE
:10145000FBD0314604A80FF08FFE06AF04AA04F1BA
:101460005C03154603CDBD42186059602A4603F15E
:101470000803F6D128681860AA889A80E36DFBB14A
:10148000174904A812F0FDFE0A22216E684612F0E8
:1014900051FF694604A812F0B3FF01460C48FFF75C
:1014A0002CF8684612F0ADFE04A812F0AAFE0A203D
:1014B00013F00CFB304609B0BDE8F04017F062BAFB
:1014C00008490348FFF723F8F4E700BFD998010063
:1014D000248FFF1FA6980100FB9801002F9901009F
:1014E0004A990100669901002DE9F04FADF5804D54
:1014F00087B004468DF80630964B049304A844F256
:1015000004038DF8072000220091C250FFF79FFAD4
:10151000914D804629464068FEF7D4FF20B94046E9
:10152000FFF71AFD20B14560042303721223C36044
:101530008A494046FFF7F6FD9DF80730A16D40F659
:10154000142505FB031101F608110646FFF7E9FC17
:101550009DF80730A16D05FB031101F61611304609
:10156000FFF7DFFC9DF80730A16D05FB031101F6C5
:101570000F113046FFF7D5FC9DF80730A26D3046BD
:1015800005FB0325FFF7AAFC20B1B5F810398360ED
:10159000042202710DF107013046FFF7C2FC0DF184
:1015A00006013046FFF7BDFC9DF80730A16D40F6FF
:1015B000142505FB031101F6E9113046FFF7BCFCC9
:1015C0009DF80730A16D05FB031101F61711304698
:1015D000FFF7B2FC9DF80730A16D05FB031101F682
:1015E00018113046FFF7A8FC9DF80730A16D05FBE8
:1015F000031101F619113046FFF79EFC9DF80730E4
:10160000A16D05FB031101F61A113046FFF794FC9A
:101610009DF80730A16D05FB031101F61B11304643
:10162000FFF77FFC9DF80730A16D05FB031101F664
:101630001C113046FFF775FC9DF80730A16D05FBC6
:10164000031101F61D113046FFF76BFC9DF80730C2
:10165000A16D05FB031101F61E113046FFF761FC79
:101660009DF80730A16D05FB031101F61F113046EF
:10167000FFF757FC9DF80730A16D05FB031101F53D
:1016800012613046FFF74DFC9DF80730A16D05FB58
:10169000031101F621113046FFF743FC9DF8073096
:1016A000A16D05FB031101F607113046FFF739FC68
:1016B0009DF80730A16D05FB031101F60A113046B4
:1016C000FFF72FFC9DF80730A16D05FB031101F614
:1016D0000B113046FFF725FC9DF80730A16D05FB87
:1016E000031101F60C113046FFF71BFC9DF8073083
:1016F000A16D05FB031101F60D113046FFF711FC3A
:101700009DF80730A16D05FB031101F60E1130465F
:10171000FFF707FC9DF80730A16D05FB031101F6EB
:1017200013113046FFF7FDFB0D494046FFF7FAFC69
:101730000DF1180B00224BF80C2D8146DBF8002030
:101740003F2A00F3F980D9F8000058B9FFF748F8AC
:10175000064617E0349701009C9901001FC901005B
:1017600083970100FFF765F906464846FFF7B6FB89
:1017700040B13268002A16BF06220022B24602712A
:10178000C0F808A059463046FFF7BCFBA16D9DF894
:10179000072005FB0212DBF80010242707FB0121BC
:1017A0003046FFF7BEFB9DF80720A16D05FB021137
:1017B000DBF8002007FB021101313046FFF7B1FBD7
:1017C0009DF80720A16D05FB0211DBF8002007FB47
:1017D000021102313046FFF7A4FB9DF80720A16DEE
:1017E00005FB0211DBF8002007FB02110331304634
:1017F000FFF797FB9DF80720A16D05FB0211DBF8B1
:10180000002007FB021104313046FFF78AFB9DF8E8
:101810000720A16D05FB0211DBF8002007FB021178
:101820000C313046FFF788FB9DF80720A16D05FBC2
:101830000211DBF8002007FB021105313046FFF7EB
:1018400070FB9DF80720A16D05FB0211DBF800205D
:1018500007FB021106313046FFF763FB9DF80720B6
:10186000A16D05FB0211DBF8002007FB0211073117
:101870003046FFF756FB9DF80720A16D05FB0211CE
:10188000DBF8002007FB021108313046FFF749FB67
:101890009DF80720A16D05FB0211DBF8002007FB76
:1018A000021109313046FFF73CFB9DF80720A16D7E
:1018B00005FB0211DBF8002007FB02110A3130465C
:1018C000FFF72FFB9DF80720A16D05FB0211DBF848
:1018D000002007FB02110D313046FFF72DFB9DF86C
:1018E0000720A16D05FB0211DBF8002007FB0211A8
:1018F0000E313046FFF715FB9DF80720A16D05FB63
:101900000211DBF8002007FB021110313046FFF70F
:1019100008FB9DF80720A16D05FB0211DBF80020F4
:1019200007FB02110B313046FFF7FBFADBF8002012
:101930000132CBF8002001E74FF480520099404675
:10194000FFF7B4FA0DF5804D07B0BDE8F08F00BF8A
:101950002DE9F043436D03EB01131344012683F893
:10196000106189B004460D46914601F028F85FFAEF
:1019700080F804EB0806B3791BB1204601F0A2F809
:10198000F9E70127E77013F083F82065334817F073
:1019900099F9394606464FF4805016F08DFF4B46B4
:1019A000074601462A462046FFF79EFD0FF0B8FA8B
:1019B0000028FBD0314604A80FF0DEFB04F15C03E5
:1019C00004AA0DF1180C9E46154603CD6545186016
:1019D00059602A4603F10803F6D128681860AA88DE
:1019E0009A80E36DD3B14FEA08334FF48052394601
:1019F00063667046FEF7ACFD01224146204600F0CA
:101A0000DBFF384616F0BEFF304616F0BBFF002362
:101A1000E3700123237009B0BDE8F0831049114839
:101A2000FEF775FD104904A812F02BFC31466846FC
:101A300012F027FC694604A812F0E2FC01460948AE
:101A4000FEF75BFD684612F0DCFB04A812F0D9FB40
:101A500003490448FEF75BFDD3E700BFA4990100EA
:101A6000AF980100248FFF1FBE9801002DE9F043BD
:101A700004468DB0564817F025F90746204601F078
:101A80002BFA204600F0A8FF524904A812F0F9FBF7
:101A90003946684612F0F5FB694604A812F0B0FC1E
:101AA0004D4912F0B5FC0A2205464FF4802108A8E2
:101AB00012F01AFC08A9284612F0A2FC0146474879
:101AC000FEF71BFD08A812F09CFB684612F099FB7C
:101AD00004A812F096FB0FF019FB4FF48021024688
:101AE00038460FF0D1FB00253D4908A812F0C9FB8C
:101AF0000A22294604A812F0F7FB04A908A812F04C
:101B00007FFC384912F084FC01463448FEF7F5FCAE
:101B100004A812F076FB08A812F073FB00265FFA07
:101B200085F840F61429A06DF2B209FB0600414683
:101B3000013603F0A3FC042EF5D12B492748FEF70C
:101B4000E6FC0026F1B2424620460136FFF700FFD0
:101B5000042EF7D125492148FEF7D9FC23781BB183
:101B6000204600F0AFFFF9E7214908A812F089FBF1
:101B70000A22294604A812F0B7FB04A908A812F00B
:101B80003FFC184912F044FC01461448FEF7B5FC2E
:101B900004A812F036FB08A812F033FB01354FF40D
:101BA000FA7012F093FF102D9ED123781BB12046BE
:101BB00000F088FFF9E7642012F088FF384616F03D
:101BC000E1FE0C490548FEF7A2FC0DB0BDE8F0832C
:101BD000B6970100AD990100C2990100248FFF1F43
:101BE000CA990100FD9901001B9A0100309A010079
:101BF000449A0100709A0100F0B52A4989B005465F
:101C00002948FEF784FC294817F05CF806460FF0D7
:101C10002FFB38B926492448FEF779FC2846FFF700
:101C200025FF39E00FF07CF90028FBD0314604A8ED
:101C30000FF0A2FA06AF04AA05F15C03144603CC28
:101C4000BC4218605960224603F10803F6D12068AF
:101C50001860A2889A80EB6DBBB1164904A812F0F7
:101C600010FB0A22296E684612F064FB694604A83C
:101C700012F0C6FB01460C48FEF73FFC684612F026
:101C8000C0FA04A812F0BDFA03E00B490648FEF7BB
:101C90003EFC0A2012F01AFF304609B0BDE8F040C1
:101CA00016F070BE939A0100248FFF1FB6970100B3
:101CB000AA9A0100CA9A0100E49A010070B505468B
:101CC000164600246B6D93F808312341DB0704D5D9
:101CD000325DE1B22846FFF73BFE0134042CF1D11E
:101CE00070BD08B54068FEF7E7FB10B10430FEF7A1
:101CF000BDFE08BD08B54068FEF7DEFB18B1043034
:101D0000FEF7DCFEC0B208BDF0B5ADF5814D81B087
:101D10007C4B1E93044644F204031EA800270A22AB
:101D2000C750FFF7EDF90668054646B9052012F0E1
:101D3000CDFE75497548FEF7EAFB3046DEE0744992
:101D4000FEF764FD3946FFF7CCFF122806D0606D20
:101D50000AF0C6FC2046FFF7D3FACEE06C49666D68
:101D60002846FEF753FD0121FFF7C4FF684986F8B6
:101D700041002846666DFEF749FD0221FFF7BAFFD4
:101D8000634986F842002846666DFEF73FFD032151
:101D9000FFF7B0FF5E4986F843002846666DFEF700
:101DA00035FD0421FFF7A6FF594986F8440028466F
:101DB000666DFEF72BFD0521FFF79CFF544986F861
:101DC00045002846666DFEF721FD0621FFF792FFCC
:101DD0004F4986F846002846666DFEF717FD072135
:101DE000FFF788FF4A4986F863002846666DFEF7CC
:101DF0000DFD08214068FEF75FFB10B10430FEF7CF
:101E00005DFE7066606D90F86330072B0CBF00219B
:101E100001210AF047FD3F4906A812F032FA636D2E
:101E200002A893F8411012F04CFA02A906A812F089
:101E3000E7FA394912F0ECFA636D054693F842105F
:101E40000AA812F03EFA0AA9284612F0D9FA324935
:101E500012F0DEFA636D054693F843100EA812F0F7
:101E600030FA0EA9284612F0CBFA2B4912F0D0FA1C
:101E7000636D054693F8441012A812F022FA12A9D5
:101E8000284612F0BDFA244912F0C2FA636D0546E5
:101E900093F8451016A812F014FA16A9284612F065
:101EA000AFFA1D4912F0B4FA636D1AAA93F84610FE
:101EB00001920546104612F004FA0199284612F0E4
:101EC0009FFA154912F0A4FA01461048FEF715FBD7
:101ED000019812F096F916A812F093F912A812F0D0
:101EE00090F90EA812F08DF90AA812F08AF902A84A
:101EF00012F087F906A812F084F901200DF5814D42
:101F000001B0F0BD34970100189B0100248FFF1F22
:101F10001FC90100469B01003DA001002DE9F041D1
:101F2000054688B05D4816F0CDFE06460EF0F8FF77
:101F300020B95B495B48FEF7EAFAF7E730460FF055
:101F400097F9C8B1314604A80FF016F905F15C0302
:101F500004AA0DF118081F46144603CC4445186026
:101F60005960224603F10803F6D120681860A28860
:101F70009A80EB6D2BB970E0304616F003FD01201E
:101F800088E04FF4805016F0F5FC0023014604462B
:101F90006B664FF480523846FEF7C3FA2146284656
:101FA000FFF7B2FE002837D1204616F0EBFC314691
:101FB00004A80FF0E1F804AA3B469646BEE80300E9
:101FC000C64518605960724603F10803F5D1DEF882
:101FD00000001860BEF804209A8033493148FEF7AB
:101FE00096FA002321466B664FF480523846FEF77E
:101FF00098FA21462846FFF787FE68B92146294806
:10200000FEF785FA29492748FEF781FA686D0AF03C
:1020100067FB2846FFF774F9254904A812F031F947
:102020002146684612F02DF9694604A812F0E8F935
:1020300001461C48FEF761FA684612F0E2F804A86F
:1020400012F0DFF80A2012F041FD204616F09AFC4B
:10205000304616F097FC00201CE0164904A812F048
:1020600010F93146684612F00CF9694604A812F0DE
:10207000C7F9114912F0CCF901460A48FEF73DFABA
:10208000684612F0BEF804A812F0BBF8304616F00D
:1020900079FC022008B0BDE8F08100BFA6980100DD
:1020A00088970100248FFF1F639B0100AD9B0100F7
:1020B000179C0100299C0100669C0100F0B589B0C5
:1020C00004460F46274828491D461646FEF71FFAC4
:1020D0000E9B63670F9BA764A665E5666365162084
:1020E0000EF09EFF18B921491E48FEF710FA002392
:1020F0006370A370E370621D04F1450102F8013FB3
:102100008A42FBD172B62046FFF776FD2046FFF7E4
:1021100077F962B62046FFF701FF0446B8B11449CB
:1021200004A812F0AEF80A222146684612F0DCF844
:10213000694604A812F064F901460A48FEF7DDF981
:10214000684612F05EF804A812F05BF803E0094953
:102150000448FEF7DCF908490248FEF7D8F909B04F
:10216000F0BD00BF248FFF1F799C0100A79C0100D8
:10217000CD9C0100F19C0100049D010008B5406860
:10218000FEF79AF918B10430FEF770FC40B208BDB2
:1021900008B54068FEF790F920B10379062B01D10C
:1021A000806808BDFEF71CFB08BDFFFF70B5ADF5EC
:1021B000804D82B0154B009344F204030A220024A0
:1021C00068464DF80340FEF79BFF1149FEF71EFBE2
:1021D000064621463046FFF7DBFF0721FFF781FD6A
:1021E000054608B101200CE021463046FFF7D0FF3C
:1021F0000121FFF776FD1828F4D10134402CE8D1F5
:1022000028460DF5804D02B070BD00BF3497010027
:10221000839701002DE9F04F054689B03E4816F03E
:1022200051FD04460EF07CFE20B93C493C48FEF7C7
:102230006EF9F7E720460FF01BF8002847D021463B
:1022400004A80EF099FF05F15C0304AA06AF9A46B4
:10225000164603CEBE4218605960324603F10803A9
:10226000F6D130681860B2889A80EB6DA3B300266F
:1022700000275FFA86FB4FF4805016F07BFBF9B223
:1022800081465A46284600F09AFBC0B200034FF43C
:102290008052686649465046FEF743F9D5F85480A7
:1022A00049462846FFF782FF08EB0718B04401377C
:1022B00088F81001484616F065FB042FDBD1013683
:1022C000102ED5D1204616F05DFB002021E02046DF
:1022D00016F058FB01201CE0124904A811F0D1FFB0
:1022E0002146684611F0CDFF694604A812F088F82F
:1022F0000D4912F08DF801460948FEF7FEF86846D0
:1023000011F07FFF04A811F07CFF204616F03AFB85
:10231000022009B0BDE8F08FB69701008897010050
:10232000248FFF1F299C0100669C01002DE9F04FBE
:10233000ADF5804D9BB0AE4B1893054644F20403B7
:1023400018A88A464FF0000811460A2240F8038078
:1023500040F61424FEF7D4FEAF6DA64904FB0AF440
:102360002744064697F814390193FEF74FFA414681
:10237000FFF7C0FC87F80809AB6D9E4930461F196E
:10238000FEF744FA0121FFF7B5FC87F81609AB6D9B
:10239000984930461F19FEF739FA0221FFF7AAFCC7
:1023A000944987F80F093046AF6DFEF72FFA0321E5
:1023B00040682744FEF780F818B10430FEF77EFB32
:1023C00080B2AB6DA7F810098A4930461F19FEF795
:1023D0001DFA0421FFF78EFC87F81509AB6D8549BE
:1023E00030461F19FEF712FA0521FFF783FC87F824
:1023F0001409AB6D7F4930461F19FEF707FA062115
:10240000FFF7BCFE87F8E909AB6D7A4930461F1922
:10241000FEF7FCF90721FFF7B1FE87F81709AB6D4E
:10242000744930461F19FEF7F1F90821FFF7A6FE9F
:1024300087F81809AB6D6F4930461F19FEF7E6F9AA
:102440000921FFF79BFE87F81909AB6D69493046F2
:102450001F19FEF7DBF90A21FFF790FE87F81A092A
:10246000AB6D644930461F19FEF7D0F90B21FFF719
:1024700041FC87F81B09AB6D5E4930461F19FEF71A
:10248000C5F90C21FFF736FC87F81C09AB6D5949DB
:1024900030461F19FEF7BAF90D21FFF72BFC87F81C
:1024A0001D09AB6D534930461F19FEF7AFF90E21D8
:1024B000FFF720FC87F81E09AB6D4E4930461F1907
:1024C000FEF7A4F90F21FFF715FC87F81F09AB6D84
:1024D000484930461F19FEF799F91021FFF70AFC09
:1024E00087F82009AB6D434930461F19FEF78EF976
:1024F0001121FFF7FFFB87F82109AB6D3D493046FD
:102500001F19FEF783F91221FFF7F4FB87F807097B
:10251000AB6D384930461F19FEF778F91321FFF7E4
:10252000E9FB87F80A09AB6D324930461F19FEF7FF
:102530006DF91421FFF7DEFB87F80B09AB6D2D4910
:1025400030461F19FEF762F91521FFF7D3FB87F814
:102550000C09AB6D274930461F19FEF757F91621B4
:10256000FFF7C8FB87F80D09AB6D224930461F19EC
:10257000FEF74CF91721FFF7BDFB87F80E09AB6D8D
:102580001C4930461F19FEF741F91821FFF7B2FB2D
:10259000194987F813093046FEF738F9AB6D234423
:1025A000804693F8083903BB0327144914A811F097
:1025B00068FE514610A811F084FE10A914A811F06D
:1025C0001FFF0F4911F024FF01460E48FDF795FF4C
:1025D00010A811F016FE14A811F013FE013FE4D16B
:1025E000AB6D2344102283F8082900270CE000BFBC
:1025F000349701001FC90100839701002998010049
:102600003F9D0100248FFF1F39464046FFF7C0FD64
:102610000121FFF76FFB39460D904046FFF7B8FDEB
:102620000221FFF767FB39460C904046FFF7B0FDEB
:102630000321FFF75FFB39460B904046FFF7A8FDEB
:102640000421FFF757FB39460A904046FFF7A0FDEB
:102650000521FFF74FFB394609904046FFF798FDEB
:102660000621FFF78BFD394608904046FFF790FDA5
:102670000721FFF73FFB394607904046FFF788FDEB
:102680000821FFF737FB394606904046FFF780FDEB
:102690000921FFF72FFB394605904046FFF778FDEB
:1026A0000A21FFF727FB394604904046FFF770FDEB
:1026B0000B21FFF71FFB394603904046FFF768FDEB
:1026C0000C21FFF717FB394602904046FFF760FDEB
:1026D0000D21FFF753FD394683464046FFF758FD6D
:1026E0000E21FFF707FB3C4981467068FDF7EAFEC3
:1026F00020B10830FEF7BAF911280CDC3946404603
:10270000FFF746FD0E21FFF7ECFA0128C4BF09F1DF
:1027100001095FFA89F939464046FFF739FD0F2173
:10272000FFF7E8FA39460F904046FFF731FD1021D8
:10273000FFF7E0FA39460E904046FFF729FD0021E9
:10274000FFF7D8FAA96D9DF834300E9A01EB040E0C
:10275000242148430EEB00010EF800309DF8303084
:102760004B709DF82C308B709DF82830CB709DF805
:1027700024300B719DF81C304B719DF818308B7113
:102780009DF81430CB719DF810300B729DF80C3011
:102790004B729DF808308B7201379DF820300B7317
:1027A000402F0F9BCA7281F80DB081F80E900B7408
:1027B0007FF42AAF3368002B14BF0126002605D111
:1027C000A86D01995246204402F058FE30460DF59E
:1027D000804D1BB0BDE8F08F9C9901002DE9F047BA
:1027E000044688B055480F46914616F06BFA0546E8
:1027F0000EF096FB20B952495248FDF788FEF7E7E4
:1028000028460EF035FDC8B1294604A80EF0B4FCE8
:1028100004F15C0304AA0DF1180A9846164603CE8B
:10282000564518605960324603F10803F6D1306806
:102830001860B2889A80E36D2BB95FE0284616F0E5
:10284000A1F8012077E04FF4805016F093F84A4643
:1028500006463946204600F0B2F8C0B20003606672
:102860004FF4805231464046FDF75BFE3246394612
:102870002046FFF75BFD002838D1304616F082F87D
:10288000294604A80EF078FC04AA43469646BEE802
:102890000300D64518605960724603F10803F5D16C
:1028A000DEF800001860BEF804209A80264925480A
:1028B000FDF72DFE4A463946204600F080F8C0B2AA
:1028C000000360664FF4805231464046FDF729FE12
:1028D000324639462046FFF729FD38B931461948B6
:1028E000FDF715FE19491748FDF711FE304616F0A1
:1028F00049F8284616F046F800201CE0144904A8C0
:1029000011F0BFFC2946684611F0BBFC694604A8DB
:1029100011F076FD0F4911F07BFD01460948FDF7E6
:10292000ECFD684611F06DFC04A811F06AFC284625
:1029300016F028F8022008B0BDE8F087B69701002D
:1029400088970100248FFF1F599D0100C49D01003D
:10295000299C0100669C01002DE9F84306460D46BE
:102960009046002440F6142948FA04F3DB070ED5FC
:10297000E7B22A4639463046FFF730FF012806D134
:10298000B06D3A46294609FB040002F077FD013498
:10299000042CE9D1014B1D70BDE8F88395C6FF1FDB
:1029A00030B413B930BCFFF7D7BF436D83F80A11B9
:1029B00030BC704711F0BCBD01448A71704701EB17
:1029C0008200704708B5034816F07CF9BDE808405E
:1029D0000EF04EBCB6970100F0B5334989B00446FD
:1029E0003248FDF794FD324816F06CF906460EF0B9
:1029F0003FFCF0B92F4904A811F043FC314668466A
:102A000011F03FFC694604A811F0FAFC0146274882
:102A1000FDF773FD684611F0F4FB04A811F0F1FB1B
:102A20000EF074FB4FF48021024630460EF02CFC71
:102A30001CE021491D48FDF76AFD314604A80EF04F
:102A40009BFB04F15C0204AB0DF1180E17461D460A
:102A500003CD7545106051602B4602F10802F6D196
:102A600028681060AB889380E36DBBB9304615F0E1
:102A700089FF0EF055FA38B910490C48FDF747FDAB
:102A8000642012F023F8F4E7002384F846306370E2
:102A90000B490648FDF73BFD09B0F0BD0023636616
:102AA00038460EF0CFFCE1E7349E0100248FFF1F73
:102AB000A4990100559E01006B9E01008A9E0100B1
:102AC0009E9E01002DE9F04FC5788FB004460DB1F0
:102AD0000320DBE1471D3A4612F8013F4BB111F0EC
:102AE000D7FFE36CC01A4CF25033984240F2CE81CB
:102AF00004E06B1C402BF2D01D46EDE7B54816F004
:102B0000E1F88246B44816F0DDF880460EF008FA87
:102B1000002800F0DD8001214FF4805015F0CCFE3C
:102B20006219EEB29379013B06F003098346032B49
:102B300000F2CB80DFE803F002389AC741460AA8CA
:102B400001920EF019FB04F15C03019A0AAD0DF13C
:102B5000300C9946AE46BEE80300E6451860596061
:102B6000754603F10803F5D1DEF800001860BEF8E1
:102B700004109980E36D002B40F0DD80974906A892
:102B800011F07FFB94F8461002A811F09AFB02A9FD
:102B900006A811F035FC924911F03AFC4146054671
:102BA0000AA811F06EFB5FE151460AA80EF0E4FAA4
:102BB0000AAB04F15C020DF1300C9E46BEE8030046
:102BC000E64510605160734602F10802F5D1DEF867
:102BD00000001060BEF804309380E36D002B40F0DD
:102BE000BA807E4906A811F04CFB94F8461002A862
:102BF00011F067FB02A906A811F002FC794911F057
:102C000007FC494601900AA811F05BFB019B0AA949
:102C1000184611F0F5FB01467348FDF76EFC0AA853
:102C200011F0EFFA02A811F0ECFA06A811F0E9FA97
:102C300041460AA80EF0A0FA0AAA04F15C030DF1BD
:102C4000300C9646BEE80300E645186059607246AF
:102C500003F10803F5D1DEF800001860BEF8042087
:102C60009A80E36D002B40F09380C1E051460AA8A2
:102C70000EF082FA04F15C030AAA0DF1300C019304
:102C80009646BEE80300E64518605960724603F1B7
:102C90000803F5D1DEF800001860BEF804209A8021
:102CA000E36D002B00F0CB8031462046FEF732F872
:102CB000606601980EF0DCFB11F0EAFE2544042367
:102CC000E064AB7101E000239371584615F05AFEA1
:102CD000404615F057FE504615F054FE002504F10D
:102CE000450317F8012F0AB10135EDB29F42F8D123
:102CF0002378002B00F0CA80002D40F0C7803B49AC
:102D00000AA811F0BEFA11F0C3FE216D0A22411A81
:102D100006A811F00FFB06A90AA811F071FB0146E5
:102D20003148FDF7EAFB06A811F06BFA0AA811F08A
:102D300068FA2570AAE0314620460192FDF7EAFFC5
:102D4000606648460EF094FB019A0223937111F0DD
:102D50009FFEE064B9E731462046FDF7DBFF236EB6
:102D6000606600F580529A420FD99842BFF460AF76
:102D70001B1A1A460193E36D594618440DF0E0FD05
:102D8000626E019B1344636652E74FF48053F0E791
:102D900031462046FDF7BEFF266E606600F5805383
:102DA000B34214D9B04209D2361AE36D3246184400
:102DB00059460DF0CBFE636E1E44666611F068FE48
:102DC000E06425440323AB71002363707DE74FF477
:102DD0008056EAE7A4990100B6970100DF9E010042
:102DE000029F0100309F0100248FFF1FC69E01003B
:102DF000284906A811F045FA94F8461002A811F0E7
:102E000060FA02A906A811F0FBFA234911F000FBB1
:102E1000494606460AA811F054FA0AA9304611F0AC
:102E2000EFFA01461D48FDF768FB0AA811F0E9F921
:102E300002A811F0E6F906A811F0E3F9C1E7154977
:102E400006A811F01EFA94F8461002A811F039FAFB
:102E500002A906A811F0D4FA114911F0D9FA49468D
:102E600005460AA811F02DFA0AA9284611F0C8FA59
:102E700001460A48FDF741FB0AA811F0C2F902A871
:102E800011F0BFF906A811F0BCF91EE70FB0BDE8BC
:102E9000F08F00BFDF9E0100629F0100248FFF1FA3
:102EA000959F010011F044BB08B5FDF718FB08BD64
:102EB00000230A2211F030B970B50568044628468F
:102EC0000E4611F079FB864203D03146284611F0B8
:102ED00087FB204670BDFFFF2DE9F04186B004A8B6
:102EE0000DF04AFF2E4D04A80EF074F82B680093E5
:102EF000009F044600284CD02A492B48FFF7D4FFF6
:102F000021462948FFF7D4FF28492748FDF7FFFA53
:102F100027492548FDF7FBFA26492348FDF7F7FA2C
:102F20000DF070FF2B680193019E00240DF0F8FF57
:102F3000A0B92B680293029B9B1BB3F57A7FF5D94E
:102F400001341D491848E4B2FFF7AEFF3B2C06F5EB
:102F50007A76EBD9144811F0CFF8E6E714B11248AD
:102F600011F0CAF815491048FDF7D1FA2B68039300
:102F7000039B13490C48DC1BFFF796FF4FF47A7153
:102F80000948B4FBF1F1FFF793FF0E490648FDF73E
:102F9000BEFA4FF47A7011F099FD06B0BDE8F081E9
:102FA000C4C9FF1FC89F0100248FFF1FDA9F0100C3
:102FB000E29F0100FC9F0100551C020012A00100CD
:102FC00022A0010032A0010073B502AC164644F8FD
:102FD000041D0D462046D1B2FFF76EFF0135310AC0
:102FE00020460195FFF768FF02B070BD38B508466E
:102FF0000D4611F0E1FA0446681C11F0DDFA04EB0D
:10300000002080B238BD11F093BAFFFF37B50446F7
:1030100011F03EFD324BA0601B680193019BE36001
:103020000522D223172104F110000FF03EF81722D9
:10303000002104F1240011F097FB012384F82430CF
:10304000022384F82530032384F82630042384F8EF
:103050002730062384F82830072384F829300823F2
:1030600084F82A30092384F82B300B2384F82C3081
:103070000C2384F82D300D2384F82E300E2384F891
:103080002F30102384F83030112384F8313012238C
:1030900084F83230132384F83330052384F8353034
:1030A0000A2384F836300F2384F837300D4B03F1B0
:1030B000100204F13B01104653F8045B41F8045B35
:1030C0009342F9D10368C4F84B30074B1A889B78B8
:1030D000A4F84F20204684F8513003B030BD00BF23
:1030E000C4C9FF1F4EA3010062A3010070B50446CE
:1030F0000E460E481621154612F06AFE0C4810F0D6
:10310000FBFF103444F8106C44F80C5C01210520DE
:1031100011F014FC2046C8210FF03EF820460EF0B6
:10312000BBFE2046BDE870400EF00ABF65A301005B
:10313000248FFF1F2DE9F743DFF86890074600F161
:103140004B05002440F6142800F1100699F80030D1
:10315000A3423B6808FB04330DD193F82239297848
:103160001BB12023019300230BE040227F208DE838
:1031700005001A460BE093F82229297822B1002392
:10318000019300937F2202E0019200927F23304658
:1031900001340EF0A0FF042C05F10105D6D103B0D7
:1031A000BDE8F08391C6FF1FC943C9B2542908D8AE
:1031B00001EB41020023A1EB8101481ED2B2194666
:1031C00017E0A9290BD85539C9B2A1EB8102013A00
:1031D00001EB41010023D2B2C9B218460AE05631D0
:1031E000C8B2A0EB80010139002300EB40001A4671
:1031F000C9B2C0B20EF0C9BF38B50A4B1D7800F194
:1032000010042DB14021FFF7CFFF0021024604E05A
:10321000FF21FFF7C9FF294602462046BDE8384096
:103220000EF081BF89C6FF1F2DE9F743DFF87C80D0
:10323000044600F13B06002540F6142900F1100772
:10324000226898F80030317809FB03233846B3F838
:1032500010392B4113F001030DBF01220022FF237F
:10326000019212BF8DE80C000093FF2201350EF091
:1032700032FF0C2D06F10106E2D104F1460504F1FE
:103280004A08002615F8011F0196002300961A46E9
:1032900038460EF020FFA845F4D12046FFF7ACFFDA
:1032A000204603B0BDE8F043FFF744BF91C6FF1FBF
:1032B0002DE9F347DFF89080044600F13B05002636
:1032C00040F6142900F11007236898F8000009FB64
:1032D000003001F084FF06EB0010C1B2236898F8BB
:1032E000000009FB003090F806398B4202D12978A2
:1032F000FF2306E0242303FB01035B7943B929780C
:103300000123019300931A4638460EF0E4FE0DE0C7
:10331000002295F800A002F082F901462046FFF74E
:1033200043FF5146024638460EF0FDFE0136102E90
:1033300005F10105C8D12046FFF75EFF204602B027
:10334000BDE8F047FFF7F6BE91C6FF1F2DE9F04F2D
:10335000DFF8C88085B0044600F13B0500265FFA1F
:1033600086FA5046676809F097F93B5C04F110074C
:103370001BB3284BE0681B680393039B6168264AD4
:10338000496EB2FBF1F11B1A994216D2FF2329783C
:103390000193002300931A4638460EF09CFE013636
:1033A000102E05F10105DAD12046FFF725FF204652
:1033B000FFF7C0FE05B0BDE8F08F98F80030206838
:1033C00040F6142B0BFB0309504609F065F9242342
:1033D00003FB00904379C3B198F80000216895F889
:1033E00000900BFB001B504609F056F900220146E5
:1033F000584602F014F901462046FFF7D5FE49462B
:10340000024638460EF08FFEC9E710222978019354
:103410000092C1E7C4C9FF1FC0C62D0091C6FF1F9F
:103420002DE9F04FDFF858A187B004468B4600F134
:103430003B0600275FFA87F82546404609F02CF93D
:1034400055F8103B9AF8009040F6142202FB093917
:1034500099F80639834204D1FF23317801937F2301
:103460000CE04046039209F017F9242303FB009077
:10347000039A437943B901233178019300931A46A3
:1034800028460EF028FE18E021689AF8009033785C
:103490000393404602FB091909F0FEF80022014699
:1034A000484602F0BCF801462046FFF77DFE039B2C
:1034B0000246194628460EF036FE404609F0ECF862
:1034C00058450CD12B4B62681B6805932A49059B14
:1034D000526EB1FBF2F2E1685B1A9A423FD80137B3
:1034E000102F06F10106A5D1244B1B78032B2DD8F4
:1034F000DFE803F002040F1AFF2100E0BF2120469D
:10350000FFF752FE1521024628460EF00CFE7F21E1
:1035100014E07F212046FFF747FE1521024628468A
:103520000EF001FEBF2109E07F212046FFF73CFE9F
:103530001521024628460EF0F6FDFF212046FFF732
:1035400033FE1621024628460EF0EDFD2046FFF719
:1035500053FE2046FFF7EEFD07B0BDE8F08F0023D5
:1035600031780193FF2300931A4628460EF0B3FDED
:10357000B5E700BFC4C9FF1FC0C62D0088C6FF1F26
:1035800091C6FF1F2DE9F04F044687B0FFF7D2FD2B
:103590002046FFF731FE644F04F13B054FF0000A6F
:1035A0005FFA8AF6304609F077F8236897F80090BA
:1035B00040F6142808FB093999F806398342304649
:1035C0003FD109F069F84FF0240B0BFB009004F198
:1035D00010094279012A06D18023FF2029788DE83D
:1035E000090000232BE020683A7808FB02023046ED
:1035F000039209F051F8039A0BFB00204279022A4A
:1036000006D180232978019300230093FF2211E043
:1036100020683A7808FB0208304609F03DF80BFBB9
:10362000008029784379032B06D1802300228DE87E
:103630000C00FF2348466AE0FF23019300931A46DB
:10364000F8E709F029F8394B1B78834216D1384B3B
:103650002E781B680593059B0521B3FBF1F1FF2331
:1036600091FBF3F31944C9B22046FFF79DFD3146A3
:10367000024604F110000EF056FD4AE03B78206847
:1036800008FB030B304609F007F84FF0240909FB4B
:1036900000B043791BB929780193009310E03B787F
:1036A000206808FB030B304608F0F6FF09FB00B06A
:1036B0004379012B06D1FF22002329788DE80C00E5
:1036C0001A4622E03B78206808FB030B304608F0DE
:1036D000E3FF09FB00B04379022B05D100232978D1
:1036E00001930093FF2210E03B78206808FB030859
:1036F000304608F0D1FF09FB00804379032B08D145
:103700000022297801920092FF2304F110000EF0AC
:10371000E2FC0AF1010ABAF1100F05F101057FF48C
:103720003FAF07B0BDE8F08F91C6FF1F90C6FF1FE7
:10373000C4C9FF1FC943C9B25429134607D801EBB6
:103740004102A1EB8101481ED2B2002115E0A92956
:103750000AD85539C9B2A1EB8102013A01EB410106
:10376000D2B2C9B2002009E05631C8B2A0EB800144
:10377000013900EB40000022C9B2C0B20EF005BD15
:103780002DE9F04F85B00546FFF736FD394F05F1BD
:103790003B06002405F110084FF005096B6823442F
:1037A00093F8102142B993F820212AB993F83021D7
:1037B00012B993F84031BBB13B68029312230299CE
:1037C000B1FBF9F103FB0411FF2391FBF3F319445F
:1037D000C9B2284696F800A0FFF7E6FC514602461B
:1037E00040460EF0A0FC07E00A22317801920093D7
:1037F0001A4640460EF06FFC0134102C06F101060B
:10380000CCD1DFF8709005F14B0700264FF00A0A83
:103810006B6893F80831334113F0010319D0D9F8DC
:103820000030039312230399B1FBFAF103FB061155
:10383000FF2391FBF3F31944C822C9B2284697F835
:1038400000B0FFF777FF5946024640460EF06BFC8A
:1038500007E039780193102300941A4640460EF091
:103860003AFC0136042E07F10107D1D105B0BDE8BD
:10387000F08F00BFC4C9FF1F37B504460D4611F0D5
:1038800007F9A368C01A85424CD211F001F9A06073
:103890002548626803680093009B556E2349B1FB7D
:1038A000F5F1E5685B1B99423FBF03680193019BFB
:1038B000E3601F4B1B78013B142B2FD8DFE803F08C
:1038C00016160B0B2E2E232E0B2B0B0B0B0B0B2E6E
:1038D0002E2B2E2B1600174B1B78162B204602D1B1
:1038E000FFF7A2FC1AE0FFF7E3FC17E092F8403084
:1038F0001BB12046FFF72AFD10E00F4B2046197838
:10390000FFF78EFD0AE092F84030002BF1D12046FF
:10391000FFF738FE02E02046FFF732FF04F1100007
:103920000EF00EFB03B030BDC4C9FF1F808D5B00DD
:103930000D8DFF1F94C6FF1F90C6FF1F10F0F8BD2E
:1039400010B5BDF80840521AE41AA242A0EB0100DB
:10395000C6BF04FB00000132604390FBF2F0184444
:1039600010BD521AB2F5004F00F58040B5BF02FB02
:103970000002424348F201004FF4004092FBF0F293
:10398000501870472DE9F04704460D461E460A9F21
:10399000B049B148DDF82090DDF824A09046FCF74E
:1039A000B6FD2766E66400270126C4F85490C4F8E3
:1039B0005880AA49C4F85CA027736773A773E7739C
:1039C00026746674A674E67427756775A775E7751F
:1039D00084F83C6084F83D6084F83E6084F83F6081
:1039E000A762E7622763676384F8386084F8396008
:1039F00084F83A6084F83B609748FCF788FD212101
:103A00002846256503F0ECF9334608223946284656
:103A100003F094F8334604223146284603F08EF82A
:103A2000334609220221284603F088F8334605224E
:103A30000321284603F082F8334606221121284646
:103A400003F07CF802230A220421284603F076F8CA
:103A5000022307220521284603F070F802230B22D7
:103A60000621284603F06AF802230C220721284683
:103A700003F064F833461B220821284603F05EF861
:103A8000334612220921284603F058F83346132200
:103A90000A21284603F052F8334614220B21284607
:103AA00003F04CF8334615220C21284603F046F863
:103AB000334616220D21284603F040F833461722DC
:103AC0000E21284603F03AF8334603220F212846F8
:103AD00003F034F8334618221021284603F02EF85C
:103AE00002230E221621284603F028F802231A4644
:103AF0001221284603F022F80223324613212846D9
:103B000003F01CF802231A221421284603F016F8A9
:103B100002230D221521284603F010F802230F225C
:103B20001721284603F00AF80223102218212846FC
:103B300003F004F8022311221921284602F0FEFFA7
:103B4000022319221A21284602F0F8FF02233A46DE
:103B50001B21284602F0F2FF284603F0C7F840492F
:103B60003D48FCF7D4FC022104F1480002F072FF4A
:103B700004F14A090A2010F0A9FF1321484603F076
:103B8000DBF904F14B080A2010F0A0FF4046122197
:103B900003F0D2F90A2010F099FFFEB2012010F0D4
:103BA00095FF01223146484603F00CFA012010F03F
:103BB0008DFF01223146404603F004FA012010F047
:103BC00085FF012010F082FF012010F07FFFFF220F
:103BD0003146484603F0F6F9012010F077FFFF2246
:103BE0003146404603F0EEF9012010F06FFF013737
:103BF000012010F06BFF042FCFD104F1670604F110
:103C00006B0716F8013F2344012293F870102846F1
:103C100003F0DBF833792344012293F8701028462F
:103C200003F0D3F8BE42ECD10E490B48FCF76FFC11
:103C300001211F2010F082FE0121042010F07EFEE1
:103C400009490548FCF763FC2846BDE8F04703F046
:103C500083B800BF7CA30100248FFF1F8EA3010047
:103C6000A8A30100B9A30100CEA30100006EFEF7D6
:103C700073BE70B500F148040D461646204602F0AA
:103C800009FF324629462046BDE8704002F002BFD7
:103C90002DE9F8430446006D03F05EF8012211217E
:103CA000E06C666D0EF008FB0225012290FBF5F03A
:103CB0002421A6F8BA00E06C666D0EF0FDFA012230
:103CC00090FBF5F02521A6F8BC00E06C666D0EF0C7
:103CD000F3FA222190FBF5F00122A6F8BE00E06C79
:103CE000666D0EF0E9FA90FBF5F0A6F8C000734E91
:103CF000002140F60107656D05EB4100B0F8BA20E0
:103D0000B0F8B2E0724516D2B0F8A230C3EB0E0E96
:103D1000B645A2EB0303B5BFC3EB8353A3EB8322EA
:103D20009B020EF10103B4BF93FBFEF392FBF3F38E
:103D300003F5806313E0B0F8AA30CEEB030CB44572
:103D4000CEEB0203B5BFC3EB8353A3EB83229A02EE
:103D50000CF10103B4BF92FBFCF392FBF3F3A0F868
:103D60007630B0F976300D4403F58063013103EB12
:103D7000C313042993FBF7F3A3F1400385F86830DC
:103D8000B9D1012248F201000C291ED002FA01F338
:103D900013F42A6F0AD113F4AA6F16D0636D5D185D
:103DA00003EB410393F8BA30183B0CE0636D5D18E8
:103DB00003EB4103B3F8BA3003F5804303EBC313BD
:103DC00093FBF0F3403B85F8683001310D29DBD1DE
:103DD0000421206D656D03F088F880F0010085F8FE
:103DE000DB000521206D656D03F07FF880F0010098
:103DF00085F8DC000621206D656D03F076F880F013
:103E0000010085F8DD000721206D656D03F06DF878
:103E100080F0010085F8DE000421206D656D03F05F
:103E200040F885F8D2000521206D656D03F039F862
:103E300085F8D3000621206D656D03F032F885F812
:103E4000D4000721206D656D03F02BF8002785F85D
:103E5000D5004FF0010804252E1FF6B23146206D23
:103E600003F04DF828B3636D206D2B44314693F871
:103E7000DB9003F044F881451BD0636D2B4483F83D
:103E8000D280D4F85490206D314603F038F8A9441C
:103E90000135082D89F8DB00DED12946206D01228D
:103EA00002F093FF2946206D0022BDE8F84302F09E
:103EB0008CBF636D2B4483F8D270E2E701FCFFFFF7
:103EC0002DE9F0419E4D90B02B680193019B2B682A
:103ED0000093009B9B4B1B78393B04461E2B00F242
:103EE0000F82DFE813F01F00480073001F00480036
:103EF00073001F00480073001F00480073000D028C
:103F00000D020D020D020D020D020D020D020D0239
:103F10000D020D020D020D020D020D020D020D0229
:103F20009C003B01884D00F1480605F1080815F892
:103F3000017F636D03EB47030020B3F89220B3F8D1
:103F40008210FFF70EFD394682B2304602F0A2FD24
:103F50002F78636D03EB47030020B3F89220B3F88A
:103F60008210FFF7FEFC394682B2304602F092FD25
:103F7000A845DCD1C4E1744D00F1480605F10808FC
:103F800015F8017F636D03EB47034FF40050B3F85E
:103F90009220B3F88210FFF7E4FC394682B2304633
:103FA00002F078FD2F78636D03EB47034FF4005068
:103FB000B3F89220B3F88210FFF7D3FC394682B2EF
:103FC000304602F067FDA845DAD199E15E4D00F177
:103FD000480605F1080815F8017F636D5B4803EB9F
:103FE0004703B3F89220B3F88210FFF7BAFC3946C2
:103FF00082B2304602F04EFD2F78636D534803EBDA
:104000004703B3F89220B3F88210FFF7AAFC3946B1
:1040100082B2304602F03EFDA845DCD170E1FFF7E8
:1040200037FE2B68626D0293029BD2F858219B1ACF
:10403000642B75D900263346616D8A1992F8DB70BE
:10404000012F2CD191F8003182F8FC30404908A8AA
:1040500010F017F9636D04A893F8001110F031F90E
:1040600004A908A810F0CCF93A4910F0D1F90A22B5
:10407000804631460CA810F037F90CA9404610F0E4
:10408000BFF901463448FCF738FA0CA810F0B9F82B
:1040900004A810F0B6F808A810F0B3F83B460136B3
:1040A000042EC9D173BB626D294992F800311344C3
:1040B000FF2683F8FC6008A810F0E3F8636D04A8FD
:1040C00093F8001110F0FDF804A908A810F098F971
:1040D000204910F09DF90A22074631460CA810F03D
:1040E00003F90CA9384610F08BF901461A48FCF781
:1040F00004FA0CA810F085F804A810F082F808A8BB
:1041000010F07FF8626D92F80031013303F0030381
:1041100082F800312A68636D0392039AC3F858212C
:104120000025636D206D93F800319D42E9B20CBF0C
:1041300001220022013502F048FE042DF1D1DFE01A
:10414000C4C9FF1F94C6FF1FD08DFF1F00E0FFFFF3
:1041500013A4010025A40100248FFF1F2A68436DCA
:1041600004920499D3F85801091A962903D993F8AF
:104170000021012A6BD12A680892089A121AB2F516
:10418000967F40F2BD80604A12680C9200250C9A1E
:1041900083F80051C3F85821626D92F80131103351
:1041A00003F07F0382F80131264604F14B0796F8AD
:1041B0006C30206D2344012293F8701002F005FE4C
:1041C00096F86830206D2344012293F8701002F0B5
:1041D000FCFD96F868302344013593F878100A11F5
:1041E0000CBF04F14A00384601F00F0118BF00224D
:1041F00002F0E8FE96F86C302344013693F878100C
:104200000A110EBF04F14A000022384601F00F01E6
:1042100002F0D8FE042DCAD13C4D04F1480605F148
:10422000080715F8011F636D03EB41033046B3F82F
:10423000822002F02FFC2978636D03EB41033046A6
:10424000B3F8822002F026FCAF42EAD158E0012206
:1042500083F800212546002604F14B0804F14A07A3
:1042600095F86C30206D2344002293F8701002F012
:10427000ACFD95F86830206D2344002293F870104F
:1042800002F0A3FD95F868302344013693F87810C6
:104290000B09636D0CBF3846404693F8012101F0CD
:1042A0000F0102F08FFE95F86C302344013593F82E
:1042B00078100B09636D0CBF3846404601F00F01C2
:1042C00093F8012102F07EFE042EC9D10F4D04F1B6
:1042D000480605F1080715F8011F636D03EB41035C
:1042E0003046B3F8922002F0D5FB2978636D03EBDA
:1042F00041033046B3F8922002F0CCFBAF42EAD142
:1043000010B0BDE8F08100BFC4C9FF1FD08DFF1FF2
:1043100029B1406D014491F9671088B27047084691
:104320007047093108B511295DD8DFE801F0544F15
:104330004A45403B36312C5D090D14181C202428B9
:10434000436D93F8DB0002E0436D93F8DC0000302E
:1043500018BF012008BD436D93F8DD00F7E7436DFA
:1043600093F8DE00F3E7436D93F8DF00EFE7436D6A
:1043700093F8E000EBE7436D93F8E100E7E7436D66
:1043800093F8E200E3E764200FF026FF5A2826E0C6
:1043900064200FF021FF502821E064200FF01CFF63
:1043A00046281CE064200FF017FF3C2817E064202B
:1043B0000FF012FF322812E064200FF00DFF2828C2
:1043C0000DE064200FF008FF1E2808E064200FF0C5
:1043D00003FF142803E064200FF0FEFE0A2894BFB8
:1043E0000020012008BD08BD002008BD436D03EB7F
:1043F0004202B2F89230B2F88200181A80B24143F9
:10440000142091FBF0F080B27047436D03EB410143
:10441000B1F88200B1F892301844C0F34F007047F1
:1044200070B511461E460546FFF7EFFF31460446BC
:104430002846FFF7DBFF201A80B270BD416D01EB0B
:10444000420110B5B1F892401946FFF7CFFF201A8C
:1044500080B210BD2DE9F3479DF8289007460E461F
:1044600090469A46B9F1000F0ED0421892F8685063
:104470002A46FFF7D5FF2A460446534631463846BA
:10448000FFF7DCFF054603E04FF480454FF440445E
:10449000FB6D40F6142101FB063191F81339012B15
:1044A0002BD012D3022B4BD1274B2D1B33F81800E6
:1044B000B5F57D7FB5BF05FB0005454340F2F530FE
:1044C0004FF47D7095FBF0F037E00026B1F810391D
:1044D00091F80F2900964146786D08F073FA00951F
:1044E00023467822B9F1000F01D0314601E06FF088
:1044F0007701FFF725FA00B223E0B1F8103991F8FF
:104500000F2900210091786D414608F05BFA97F879
:10451000B31190FBF1F201FB1202C43242F6E063E8
:1045200037F812202D1B10FB03F393FBF1F010441E
:1045300005FB0000054D90FBF5F0044420B200E0BF
:10454000002002B0BDE8F087608DFF1FC1D40100DC
:104550002DE9F04F89B098469DF8483003939DF8B7
:10456000543005939DF85C3004939DF870300693A9
:104570001D9B0793436D9DF84C709DF850B09DF8BE
:1045800058609DF860A003EB81030446A3F8C28045
:10459000049B0D4691460BB956B128E0006D02F020
:1045A000AEFC0028F8D0BAF1000F40F0AE8017E062
:1045B000BAF1000F40F0A1806619012296F8683028
:1045C000206D234493F8701002F0FFFB96F86830DA
:1045D000234493F878100A1101F00F0122D024E04F
:1045E00052462946206D02F0F0FB002EE4D004EB89
:1045F000050A00229AF86830206D234436B293F8F9
:10460000701002F0E2FB9AF8683023447F2293F89E
:1046100078100B0901F00F0171D1C6EB062696FB4D
:10462000F2F2D2B204F14A0002E0002204F14B009F
:1046300002F0C8FC87B163199DF80C201A759DF82B
:1046400014201A7683F808901F7383F810B005F1D0
:104650000A03079A44F82320069B002B43D1636D7D
:1046600004EB050A2B440FFA88F74FF001099AF87A
:1046700068B093F84330CDF800903A46294620467A
:10468000FFF7E8FE04F1480682B25946304602F0D0
:1046900001FA636D9AF868A02B443A4693F84330C8
:1046A000CDF8009029462046FFF7D4FE514682B24D
:1046B000304602F0EFF9691EC9B20F2913D8A66D72
:1046C000B06C036841F090011B689847B06C0368B8
:1046D00008F07F011B689847B06C039A036802F0EA
:1046E0007F011B689847049B9BB1206D01222946DE
:1046F00009B0BDE8F04F02F068BB032677E7C6EBD0
:10470000062696FBF2F2D2B290E7002E08BF0326EF
:104710006DE709B0BDE8F08FF7B500220446034607
:1047200000F12406154601200132042A1D73187475
:104730001D7583F83C0046F8045F03F1010383F81C
:104740003700F1D16518626D95F86C70154902EB70
:1047500047020020B2F88230B2F8922000924FF463
:104760008042FFF7EDF804F1480682B23946304640
:1047700002F090F995F86C50626D0A4902EB45021F
:104780000020B2F88230B2F8922000924FF48042BA
:10479000FFF7D6F8294682B2304603B0BDE8F040B4
:1047A00002F078B900C0FFFF10B501449DF8084041
:1047B000087A904208D13CB10B759DF80C300B740F
:1047C0009DF810300C730B7610BDFFFF2DE9F04FF4
:1047D00085B09A469DF83C30DDF8388006460F4695
:1047E0001546002B40F05D8200EB8109D34B1B681E
:1047F000D9F82830934200EB01042BBF02EB0A00EA
:10480000D01AC01A514628BF514607F007FF237C33
:104810005843736C4FEA580B5B454FEA900004D93C
:104820005D453CBF05EB0B037364237B002B00F05D
:104830003882013B0D2B00F2B681DFE813F00E0049
:1048400018001C0184009E00220048002101B400D1
:1048500052018501CC00D900EB00D9F8283003EBD8
:1048600018139D4280F09F814FF48049CEE00023D1
:1048700094F91420009339463046FFF7EBFD81464A
:10488000C4E0D9F828309D42C0F08D81207C08FB1F
:1048900000F003EB9002954200F28581C208D11826
:1048A0008D42A5EB030324BF9B1A23F07F0394F9E9
:1048B00014904FEA902027BFB3FBF0F3C3F18003BD
:1048C00023F07F02B2FBF0F313FB09F980E0D9F883
:1048D00028309D42C0F06781207C08FB00F003EB8C
:1048E0009002954200F25F814FF00C0EB0FBFEFE8D
:1048F0000EEB030C654594F914100CD2C3EB050EB6
:104900002EF07F0E4FF4C068B0FBF8F8BEFBF8F84D
:1049100018FB01F95CE04FEA4E08E644754502D207
:104920004FEAC11972E0EA1AC8EB020323F07F02D2
:104930004FF4C063B0FBF3F3B2FBF3F3C3F18003B6
:1049400013FB01F944E0D9F828209542C0F02B81EF
:10495000237C08FB03F302EB93018D4200F22381D9
:10496000AA1A94F9149022F07F015A0AB1FBF2F2CC
:10497000C2F1800212FB09F92AE0D9F828108D4211
:10498000C0F01181237C08FB03F301EB93029542F5
:1049900000F20981691A21F07F015B0A94F91490F1
:1049A000B1FBF3F390E794F914204FEA1813B0FB2E
:1049B000F3F05FFA80F9A9F1800902FB09F9B9F176
:1049C000000FB8BFC9F10009A9EB82194FEA4909E4
:1049D0000FFA89F91AE04FEA1813B0FBF3F05FFA07
:1049E00080F9A9F1800094F9149019FB00F9EFE720
:1049F00094F914904FEA1813B0FBF3F0C0B2C9F168
:104A00000009803810FB09F00FFA80F94FF0000818
:104A10004346CCE013F012FB494913F067FB814693
:104A20004FEAC80013F00AFB0146484613F012FC97
:104A300012F018FF11F0ECFC0022002313F0F6F93D
:104A400098B194F83800002800F0278194F91410E8
:104A5000C1EB4160C001C9010FF0C9FB4FF0000874
:104A60000FFA80F984F83880D2E74FF0010884F813
:104A7000388081469AE094F914904FEAC919C5E745
:104A800013F0DCFA2E4913F031FB81464FEAC800DF
:104A900013F0D4FA0146484613F0DCFB12F0E2FEB4
:104AA00011F0B6FC8046894694F9140012F0C8FE55
:104AB00042464B4612F02AFF0022224B12F026FFFC
:104AC00013F0BEF994F86C3033440FFA80F993F880
:104AD0007010306D002202F078F94FF000080123C9
:104AE00070E013F0ABFA164913F000FB81464FEA71
:104AF000C80013F0A3FA0146484613F0ABFB12F0CE
:104B0000B1FE11F085FC0022002313F08FF994F917
:104B1000149010B14FEAC91905E0C9EB49294FEAD1
:104B2000C9190FFA89F994F86C30306D33440122B9
:104B300093F8701002F049F968E700BF041000E034
:104B4000DB0F49400000604013F078FA564913F03B
:104B5000CDFA81464FEAC80013F070FA0146484684
:104B600013F078FB12F07EFE11F052FC00220023BD
:104B700013F05CF994F9149010B14FEAC91905E0EB
:104B8000C9EB49294FEAC9190FFA89F994F86C3031
:104B9000306D3344002293F8701002F016F94FF094
:104BA0000008282303E04FF00009C8464B4694F85C
:104BB0006C10306D03933144012291F8701002F0B3
:104BC00004F9039B94F9180009EBC0191FFA89F046
:104BD0000FFA80F9B9F5804F02DDC0F5004906E013
:104BE00019F5804F05DAC9F10009A9F500490FFA56
:104BF00089F947B9726C954281BF9344BBFBFAF2C5
:104C00000AFB12B27264B8F1000F4AD1726D02EB66
:104C1000870706F14805A7F8C49094F86C20324441
:104C200092F878100A090CBF06F14A0006F14B0011
:104C30001A4601F00F0102F0C5F994F86C70726D1C
:104C40001A4902EB4702002384F83C30B2F8823064
:104C5000B2F89220009248464FF48042FEF770FE70
:104C6000394682B2284601F015FF94F86C40726D07
:104C70000E4902EB44024846B2F88230B2F8922064
:104C800000924FF48042FEF75BFE214682B2284636
:104C900005B0BDE8F04F01F0FDBE81464FF00108C0
:104CA00084E705B0BDE8F08FDB0F494000C0FFFF8F
:104CB00070B505460C4616461BB10022006D02F089
:104CC00084F8611EC9B20F2913D8AC6DA06C0368BB
:104CD00041F080011B689847A06C036806F07F01D3
:104CE0001B689847A06C036840211B68BDE87040B2
:104CF000184770BD0022006D02F067B808B5406D1E
:104D000007F0C8FD20B9034B1868C0F3800008BD48
:104D1000002008BD90F00F4037B50446406D0D46A9
:104D200007F0B8FD28B104230DB1074A00E0074A97
:104D3000136084F8405025B1054B1B680193019B1B
:104D4000236003B030BD00BF84F00F4088F00F40F7
:104D5000C4C9FF1F0FF0ECBB4379032B0AD8DFE86F
:104D600003F00A02020401207047808AB0FA80F042
:104D700040097047704700207047FFFF002380F80C
:104D80000039024B1B68C0F8043A7047041000E079
:104D9000144BD0F8FC1970B51D68D0F8083A0446D9
:104DA000E81AD4F8002A0023A1FB000113F0C0FB8D
:104DB00094F8071994F808290A442421234601FB92
:104DC0000242002693420AD0597C012905D19969F3
:104DD000884236BF091A9E6199612433F2E7C4F80C
:104DE000085A70BD041000E070B5164B04461D68EB
:104DF00084F8F519D0F8100A0E4607F043FD10B1FB
:104E0000012384F8023994F8F2390F4A5BB9D4F8D7
:104E1000043AEB1AC4F8003A13784BB1B4F8F639F7
:104E20000133A4F8F639137813B1002384F8F2396A
:104E30004FF08073C4F8045AB3FBF6F1C4F8FC19C0
:104E400070BD00BF041000E089C6FF1F4FF08070E6
:104E5000704790F8F539B0F8F62980F8081913FB77
:104E600001F192FBF1F301FB1321A0F8F619704751
:104E700090F9E939002BDABFC3F10200C0B201207A
:104E8000002BCCBFDBB201230006B0FBF3F0704770
:104E900008B50246FFF7ECFF92F80839584308BD01
:104EA000F7B5044690F8066900F0DEF80746C4F846
:104EB000EC092046FFF7DCFF94F80A29B7FBF0F372
:104EC000322A1DB20ED999B211F0010F0FD0323A29
:104ED00000FB1373520050436422B0FBF2F0834294
:104EE00071D904E003D099B211F0010F6FD194F899
:104EF000F4399D4255D094F80B39032B4FD8DFE895
:104F000003F0161F023394F8062994F807399A42E1
:104F100001D1012306E094F808190B44013B9A42A1
:104F200002D1002384F8033994F8033943B194F88B
:104F3000060994F8082994F80719402301302AE05B
:104F400094F8082994F80739294994F80609134474
:104F5000013B19400029BEBF01F1FF3161F03F0163
:104F600001314023013816E094F8070994F8081934
:104F700001440FF03CF994F8082994F807391C49CA
:104F80001344013B19400029BEBF01F1FF3161F01C
:104F90003F010131402307F06AFB84F8060984F8D9
:104FA000F45994F81539012B01BF124B1B6801937A
:104FB000019B94F80639B34218D094F805390133AF
:104FC00084F8053912E04D1E2DB200230BE000FBE2
:104FD0001373520050436422B0FBF2F0834286D335
:104FE0004D1C2DB2012384F8013980E703B0F0BDD8
:104FF0003F000080C4C9FF1F10B5D0F8102A90F8F8
:1050000015391344012283F80C2100230446A0F82B
:10501000F63989B180F8F229124A80F8003912680D
:10502000C0F8042A90F8072980F8023980F8F4398A
:1050300080F8062980F803392046FFF731FF234620
:1050400004F5106100225A749A829A6124338B42CB
:10505000F9D194F81519D4F80C0ABDE81040FFF7FF
:1050600049BE00BF041000E02DE97043364B1E68B6
:1050700088B00446D4F8040AD4F8002AD4F8FC39DD
:10508000B4F8F659301A904228BF02F1FF304FEAC7
:10509000E079A3FB00015D4303FB0911002313F03A
:1050A00047FA05442046FFF7F3FE02462046FFF785
:1050B000DFFE0323B0FBF3F0121A954235D3D4F888
:1050C000102A94F8153992F80B11013399422CD11A
:1050D00092F80A31FF2B28D01C4904A80FF0D1F810
:1050E00094F8151968460FF0ECF8694604A80FF01B
:1050F00087F9014616480EF0DEFF15480EF0FCFF5A
:1051000068460FF07EF804A80FF07BF8D4F8103A48
:10511000D4F80C0A93F8082193F80A11FEF7A6FDBB
:10512000D4F8103AFF2283F80A212046FFF7B0FE98
:10513000854204D300212046FFF75EFF9AE7284608
:1051400008B0BDE8708300BF041000E02AA401008D
:10515000248FFF1F2DE9F8430C460546D0F8EC7963
:10516000FFF796FE95F8083995F8F56985F8E9197D
:10517000002916FB03F6DABFC1F10203DBB20123FB
:1051800000290246CCBFC9B20121734393FBF1F35E
:105190004FEAE379A7FB030107FB0911002313F092
:1051A000C7F9002CD8BFC4F102028946D4BFD2B2DD
:1051B00001228046002CCCBFE1B20121724340465F
:1051C00092FBF1F24946D31713F0B2F92846A5F83D
:1051D000F629FFF749FFC5F8EC09BDE8F88390F818
:1051E000060900097047FFFF2DE9F04F90F822698A
:1051F00085B00446002E40F0E080714B93F800909B
:10520000B9F1000F00F0D980FFF74AFE254604F6F9
:105210002917B04694F8081994F807390B44B3429B
:105220005EDB6B79002B57D06A7C042A04D0062AF7
:1052300036D0012A50D110E094F806399E4240F051
:10524000B780012948D12046FFF712FED4F8EC3987
:10525000B3EB900FC0F0AC803EE0A9692A6A91429E
:105260003AD25FFA86FB032B07D8DFE803F002028D
:105270000402CA4601E04FF0000A52465946204651
:1052800000F02EFD4FF006036B745946AB8A039372
:10529000204600F010FD039B83421DD904231AE031
:1052A0005FFA86FBD4F8EC39AA8A03935946204664
:1052B00000F081FC039B83420ED92846FFF74CFD8A
:1052C00097F840203B78009259460246204600F06D
:1052D000A9FA4FF001036B7401362435013799E7C1
:1052E00094F80659242606FB054292F81180B8F17D
:1052F000000F58D105EBC50304EB8303597900294E
:1053000051D0A2F8148094F81B19D4F80C0A93F821
:105310000790FEF7FDFF142705224146B0FBF7F08A
:1053200019FA80F007F084F9254485F8290994F8E2
:10533000065994F81D19D4F80C0A06FB05432544B8
:1053400093F80880FEF7E4FF05220121B0FBF7F097
:1053500018FA80F007F06CF985F8690994F81C19BF
:1053600094F80659D4F80C0AFEF7D2FF25440F230F
:10537000B0FBF3F085F8A90994F8065906FB05403F
:10538000FFF7EAFC6219294692F8293992F869294F
:1053900000920246204600F045FA94F8063906FBD2
:1053A00003460123737494F8063984F8043904E041
:1053B00085F81180A5F814808EE705B0BDE8F08F60
:1053C00089C6FF1F024B1B780BB1FFF70DBF70475B
:1053D00089C6FF1F0FF0ACB8F8B504460F46114858
:1053E0001D211D46164610F0F3FC0F480EF084FEFA
:1053F000002384F81439042384F8E939322384F82B
:105400000A39012384F8F039069BC4F80C3A84F871
:105410001579079B84F8086984F81659C4F8103A7E
:10542000F8BD00BF43A40100248FFF1F402910B521
:1054300023D801EBC1039B001824C454C2182423B1
:1054400003FB01000023032143708370C3701371B9
:1054500053719171D37101220272427202228272DF
:1054600004220273432242734022C3728373027484
:10547000C373437483828374836110BDF0B58DB0B0
:1054800004460D4604A83D4916460EF0FAFE29468C
:1054900068460EF016FF694604A80EF0B1FF3849C1
:1054A0000EF0B6FF3146074608A80EF00AFF08A91D
:1054B00038460EF0A5FF014632480EF0FCFD31489B
:1054C0000EF01AFE08A80EF09CFE68460EF099FE3B
:1054D00004A80EF096FE04221023322184F8083925
:1054E00084F81629002384F80A1984F8E92940F67B
:1054F000FF7184F80C29062284F8145984F80739BE
:1055000084F80F39A4F8101984F8133984F8156950
:1055100084F8173984F8183984F81B3984F8193954
:1055200084F81A3984F80E2984F80D2984F81C3976
:1055300084F81D3984F81E3984F81F3984F820391D
:1055400084F8213984F8223984F8233984F82439FD
:1055500084F8253984F8263984F828391D46E9B2BB
:1055600020460135FFF762FF402DF8D13146D4F8CF
:105570000C0AFFF7D1F80DB0F0BD00BF61A4010027
:1055800081A40100248FFF1F012938B5044638D0BB
:1055900010D302293CD190F8243990F8151983F0E2
:1055A000010380F82439D0F80C0AFFF7B5F894F815
:1055B000240938BD90F8223983F0010380F822399C
:1055C000E3B190F8083990F807191944002300F165
:1055D000110218468B420BD094F80659AB4202F1E7
:1055E000240205D002F8240C22F8210C0133F1E743
:1055F00094F81519D4F80C0AFFF77CFB94F82209EB
:1056000038BD90F8230980F0010084F8230938BDE3
:1056100038BD10B5242404FB0101CA5410BD242355
:1056200003FB0101885C704701292DE9F041044624
:1056300016462BD003D302293ED0BDE8F0810C20C2
:105640007F22002100FB036006F0F2FF254604F5EF
:1056500010675FFA80F842463146D4F8100A07F026
:1056600035F9287002220021D4F8100A07F02EF92B
:1056700068710A220121D4F8100A07F027F92435AD
:1056800005F81E0CBD42E6D1BDE8F0810C207F225A
:10569000002100FB036006F0CBFF0025C7B23A46AD
:1056A0003146D4F8100A07F011F960552435B5F5E4
:1056B000106FF4D1BDE8F081054600F510660222B6
:1056C0000021D4F8100A07F001F968710A220121BB
:1056D000D4F8100A07F0FAF8243505F81E0CB54284
:1056E000EDD1BDE8F08138B504460D4621B9102151
:1056F00001200EF07CFDC5B294F80B2994F8063910
:10570000012A04D0022A04D194F803290AB95B1BA8
:1057100000E02B4484F806392046FFF7A9FB94F8F3
:10572000082994F807194543402394F8060906F020
:105730009EFF04F5106284F806090021A3699D42CA
:1057400036BF5B1BA161A36124349442F6D138BDFE
:1057500038B590F815390533994204460D4614D0F2
:1057600090F91739994202D10121FFF745FC94F9CC
:1057700018399D4209D1054B1B7833B194F80C19A7
:105780002046BDE83840FFF7AEBF38BD89C6FF1FD1
:1057900070B50C468EB01D4624214AB361434218B1
:1057A000435C9374012690F815190C96D6690B96F4
:1057B00090F823690A9690F80F690996B0F8106975
:1057C000089690F813690796002606960595D57AEF
:1057D0000495D57B0395157C0295957B0195527BAD
:1057E0000092D0F80C0A2246FEF7B2FE0EB070BD51
:1057F00001FB040490F81519A27CD0F80C0A0123CF
:105800000EB0BDE87040FFF753BA4318242202FBE4
:10581000010193F9A939887A002BC4BF10FB03F06A
:10582000C0B270472DE9F04F17461D46242201EB08
:10583000C10302FB01029B000E4600EB03085178F6
:10584000C35C95B019448DF839109178D2788DF8F1
:105850003830194413448DF83B3090F826399DF8C0
:1058600078908DF83A1004461BB1002380F8263951
:105870009EE1D0F8100A07F005F820B194F802393B
:10588000002B00F095810122042118F80230FF2B33
:1058900008BF01F1FF3102F1010208BFC9B2042AB9
:1058A000F3D10EA80A4601EB810CC1EB000E624554
:1058B00005DA1EF802300C3313540132F7E7B9F160
:1058C000000F02D011FB09F1C9B26B1E2422042B78
:1058D00049D8DFE803F0030B192C3F0002FB064216
:1058E000928A92FBF1F301FB132107E002FB0642CF
:1058F000928A92FBF1F301FB1323C91A14AB53FAFA
:1059000081F111F9183C30E002FB0642938A93FBC7
:10591000F1F212F0010F01FB02F2A3EB020308BF48
:10592000CB1ADBB214AA134413F9183C1DE002FB96
:105930000642908A4A1E90FBF2F3DD0755BF02FB38
:10594000130390FBF1F2C91A01FB1201C9B214ABA7
:105950001944D6E700200EF04AFC14AB53FA80F04D
:1059600010F9183C01E09DF93830242505FB064567
:10597000AB7494F91A19D4F80C0AFEF7D2FC58B19A
:10598000AB7C94F80E1994F80D091944181A0EF00E
:105990002EFC80F30700A874242505FB064594F827
:1059A0001F19D4F80C0AFEF7B3FCAB7C95F80B90EA
:1059B0001844A87494F82119D4F80C0AFEF7A8FC2E
:1059C000FF220021484406F033FE94F919195FFACA
:1059D00080F9D4F80C0AFEF7A4FCAB8A002818BFA3
:1059E00000271BB9AB61D4F8EC39EB6198F80730AC
:1059F000002B52D194F82019D4F80C0A98F80650CC
:105A0000FEF786FCD4F8103A8246596E2046FFF71E
:105A10001DFA013594F9E9396D00002B554400FB5E
:105A200005F54FF02402DABFC3F10200C0B2012035
:105A300002FB0642002BCCBFDBB201234543D8005A
:105A40009369B5FBF0F01844906194F80A39322B51
:105A50000ED094F8015964212DB9CB1A5B00434351
:105A6000B3FBF1F003E05B005843B0FBF1F0906151
:105A7000242505FB06454FF0050AAB69B3FBFAFA8E
:105A80002046C5F820A0FFF7F3F9BAEB901F58D2D3
:105A90002046FFF7EDF9800952E0D4F8103A20468D
:105AA000596EFFF7D3F994F9E9B94FF0240ABBF125
:105AB000000F0AFB0641DCBFCBF10202D3B28A69B8
:105AC0004D7AC8BF012300FB03235D438D6120464F
:105AD0003146FFF79AFE0AFB064ABBF1000FCCBF26
