:1000000000800020BD01000025690100F1680100A9
:10001000F1680100F1680100F1680100F168010078
:10002000F1680100F1680100F16801002569010033
:1000300025690100F16801004D5F010011600100B8
:100040002569010025690100256901002569010074
:100050002569010025690100256901002569010064
:100060002569010025690100256901002569010054
:100070002569010025690100256901002569010044
:100080002569010025690100256901002569010034
:100090002569010025690100256901002569010024
:1000A0002569010025690100256901002569010014
:1000B0002569010025690100256901002569010004
:1000C00025690100256901002569010025690100F4
:1000D00025690100256901002569010025690100E4
:1000E00025690100256901002569010025690100D4
:1000F00025690100E182010025690100FD830100FD
:1001000025690100C9700100256901002569010008
:1001100025690100256901002569010025690100A3
:100120002569010025690100256901002569010093
:100130002569010025690100256901002569010083
:100140002569010025690100256901002569010073
:10015000DD610100F1610100056201001962010029
:100160002569010029730100256901002569010045
:100170002569010025690100256901002569010043
:100180002569010025690100256901002569010033
:100190002569010025690100256901002569010023
:1001A0002569010025690100256901002569010013
:1001B000256901002569010025690100564B4CF2B3
:1001C000205210B51A804DF628121A8000BF00BFC9
:1001D00016F0ACFB514B4FF010621A60504A9A6017
:1001E000504ADA60504A136813F4807301BF4F49D4
:1001F0000B604FF4A85313604D4B4E491A7810070B
:1002000042BF1A7842F008021A704B4B2A221A7029
:100210004A4A4B4B8B4204D252F8040F43F8040B6A
:10022000F8E7484B484A0021934202D243F8041BA6
:10023000FAE7464A4648002350F8231042F82310B4
:1002400001336F2BF8D1434B434A802103F8011B44
:100250009342FBD1414B3D4A1A60414B8A221A70AE
:10026000A3F5805324225A70A0221A709A7991071C
:10027000FCD59A79D206FCD43A4A937903F00C0360
:10028000082B384BF9D103221A7146225A719A79F8
:100290009406FCD533498A79324B5006FBD5324A55
:1002A0004FF0827111600921516020221A709A79F1
:1002B00002F00C020C2AFAD12C4B2D4A1A602D4B5D
:1002C0002D4A1A6000225A60072243F8042C2B4A58
:1002D000C3F80C2D62B616F0A1FC144B1B68DA07AC
:1002E00005D5274816F08CFB264B274A1A60274B6A
:1002F0001B785B0609D5234C234B22689A4204D114
:100300001F4816F07DFB002323601AF06BFC16F0EB
:1003100013FB16F029FAFEE70E200540308004405A
:10032000823F04000100002B10D0034014D0034092
:1003300002D00740D899FF1F00E00740C48F020099
:10034000308CFF1FD899FF1F20D7FF1F0082FF1F8F
:100350000000000000E400E05FE400E008ED00E0E1
:1003600000500640004006404480044004800440A1
:10037000C010050014E000E0BFD401000000202000
:1003800087C29A5B1CE00340A5C3945A00F0074063
:10039000FFFFFFFFFFFFFFFFFFFFFFFFFFFFFFFF6D
:1003A000FFFFFFFFFFFFFFFFFFFFFFFFFFFFFFFF5D
:1003B000FFFFFFFFFFFFFFFFFFFFFFFFFFFFFFFF4D
:1003C000FFFFFFFFFFFFFFFFFFFFFFFFFFFFFFFF3D
:1003D000FFFFFFFFFFFFFFFFFFFFFFFFFFFFFFFF2D
:1003E000FFFFFFFFFFFFFFFFFFFFFFFFFFFFFFFF1D
:1003F000FFFFFFFFFFFFFFFFFFFFFFFFFFFFFFFF0D
:10040000FFFFFFFFFFFFFFFFFFFFFFFFDEF9FFFF23
:1004100010B5054C237833B9044B13B10448AFF33E
:1004200000800123237010BDD899FF1F0000000039
:10043000C08F0200084B10B51BB108490848AFF344
:1004400000800848036803B910BD074B002BFBD0A0
:10045000BDE81040184700BF00000000DC99FF1FF6
:10046000C08F0200D899FF1F0000000000207047D5
:1004700070470369C268934210B509D282685C1C58
:100480000461D154826803690021D154012010BD58
:10049000002010BD10B544F2040403595A18B2F5F7
:1004A000804F9FBF033121F00301C218C9189ABFC2
:1004B0000151101D002010BD18B111B100680139A3
:1004C000FAE7704738B504460D4634B161682846EE
:1004D0001BF07AF908B12468F7E7204638BD70B5FB
:1004E000044608460D461BF06BFB2368024629466E
:1004F00020465B68BDE87040184738B5054615F0E2
:10050000A6FE0446284615F0C3FE204438BD38B583
:100510000546FFF7E4FF0446284615F0B9FE2044DF
:1005200038BD38B504460D4612F0C2FE29460246D3
:100530002046BDE8384012F079BF38B583681446CC
:10054000426805461819904202D993420AD2D41A39
:1005500028682246184412F0C5FAAB682344AB6001
:10056000204638BD002038BD38B58368144642683F
:1005700005461819904202D993420AD2D41A286823
:100580002246184412F0B4FBAB682344AB6020460B
:1005900038BD002038BD10B504460068FFF79FFF46
:1005A00063681844606010BD10B586B00B4606A99C
:1005B000002201F8032D0A24B3FBF4F204FB1233EA
:1005C000303301F8013D1346002AF5D1FFF7E3FF70
:1005D00006B010BD10B50446006803681B68984754
:1005E00063681844606010BD70B505460C4619B9C3
:1005F0001149FFF7D0FF70BD2221FFF7EBFF013C4F
:1006000014F8011F71B10D4B13F8026C7EB1023367
:1006100013F8032C8A42F7D15C212846FFF7DAFF52
:10062000314604E022212846FFF7D4FF70BD28465A
:10063000FFF7D0FFE4E700BF52F2010059F20100DA
:1006400008B5032809D8DFE800F0100204060848BE
:1006500008BD084808BD084808BD0438C0B2FFF707
:10066000EFFF064919F094FE08BD4FF07E5008BD1B
:10067000CDCCCC3D0AD7233C6F12833A17B7D13883
:100680002DE9F041064608460C4617461AF046F892
:1006900008B14E4917E0002120461AF017F828B19A
:1006A0002D213046FFF796FF04F1004424F0004569
:1006B000474928461AF032F850B9454928461AF0F9
:1006C0000FF828B943493046FFF765FFBDE8F081D0
:1006D000414920461AF018F80546002872D13F49D2
:1006E000204619F0F3FF70B905461FE04FF07E5128
:1006F000204619F0EBFF60B12046394919F048FE59
:10070000013D2DB204460021204619F0D5FF0028F6
:10071000ECD03349204619F0F7FF38B12046304974
:1007200019F0EAFE01352DB20446F2E73846FFF72C
:1007300087FF4FF07C5119F02BFE214619F020FD68
:1007400080461AF027F8044601463046FFF72CFF92
:100750002FB3204619F0C4FD0146404619F00EFDA6
:100760002E2180463046FFF735FF1D49404619F0DF
:100770000FFE80461AF00EF8C4B2204619F0B0FD04
:100780000146404619F0FAFC04F130018046C9B236
:100790003046013FFFF71EFF17F0FF07E5D1002DA0
:1007A00005DA10493046FFF7F6FE694205E00BD046
:1007B00065213046FFF70EFF29463046FFF7F4FE6D
:1007C000BDE8F08100259EE7BDE8F08166F20100FA
:1007D000FFFF7F7F6DF2010000007A446F12833AC1
:1007E000000020416AF201000246084619B10B6878
:1007F00011461B681847704738B5084D2B6813F031
:10080000010409D1284616F0AFF828B1044B284658
:100810001C605C6016F0ADF8014838BD009AFF1FFF
:10082000049AFF1F08B54068FFF74CFE20B1037A19
:10083000062B01D1C06808BDFFF7DEFF08BDFFFF32
:1008400038B5084D2B6813F0010409D1284616F07D
:100850008BF828B1044B28461C605C6016F089F8C0
:10086000014838BDF499FF1FF899FF1F03780D2B3D
:1008700009D003D8093B012B23D804E0202B02D058
:100880002F2B02D070470130F0E743782A2B02D09B
:100890002F2B0DD07047831C1A7818460133002A7D
:1008A000E4D02A2AF8D11A782F2AF5D10230DDE7D0
:1008B000831C184613F8012B002AD7D00A2AF8D136
:1008C000D4E7704738B5044600680D46FFF7CEFF01
:1008D0000378AB4205D10130FFF7C8FF206001204B
:1008E00038BD002038BDFFFF70B5436882681C78B2
:1008F000272C0ED0222C0CD047F6ED7524E05C2975
:1009000005D1AB1CA978174D2E7856B911B302F852
:10091000011B1D4601336978E1B18C42EFD1AB1C5C
:1009200018E0B14201D16978F0E70235ECE7A4F1B3
:100930002B01C9B20E290DD825FA01F1C90709D535
:1009400002F8014B13F8014F24F020014139192915
:10095000EDD8F5E7002102F8011B81684360826051
:10096000084670BD5BF20100027838B505460C46BA
:10097000072A3BD8DFE802F040241F2F2A26041B59
:1009800045685B212046FFF725FE6D6855B1281D9F
:100990002146FFF7E9FF2D6825B12C212046FFF7FE
:1009A00019FEF3E75D212046FFF714FE38BD4068CD
:1009B00000F028F838BD41682046FFF715FE38BD25
:1009C00041680FE02D212046FFF704FE69682046AC
:1009D000FFF7EAFD38BD4168084B094A002914BFFA
:1009E000114619462046FFF7D6FD38BD083A416842
:1009F000D2B22046FFF744FE38BD00BF7BF20100B3
:100A000076F2010070B505460C4620467B21FFF7C3
:100A1000E1FD6D68A5B12E46204656F8041FFFF78C
:100A2000E3FD3A212046FFF7D5FD2146301DFFF7B3
:100A30009BFF2D6825B12C212046FFF7CBFDE9E770
:100A40007D212046FFF7C6FD70BD10B50146044666
:100A50000820FFF7C9FE18B100230460436010BDF1
:100A6000FFF7CAFE10BD10B5014604460820FFF787
:100A7000BBFE18B100230460436010BDFFF7E0FE29
:100A800010BDFFFF037810B5052B17D8DFE803F082
:100A90001A0808030305406810BD4068404210BDB5
:100AA00044688CB121460A481AF08EFE70B1204687
:100AB0000A220021BDE810401BF0C0B9406819F0BF
:100AC00043FE10BD002010BD204610BD012010BD0A
:100AD00076F20100037810B5052B14D8DFE803F097
:100AE000170505030303406810BD44688CB1214617
:100AF0000A481AF069FE70B120460A220021BDE8BA
:100B000010401BF065BA406819F044FE10BD00208B
:100B100010BD204610BD012010BD00BF76F20100BF
:100B200070B5044616F046F8E06416F043F8A06588
:100B300016F040F825460023E06545F8683F4FF47D
:100B40008A7015F037FF2946064611F02BFCE66740
:100B500004F1840013F082FF04F1A40013F07EFF7F
:100B6000204670BD2DE9F04767498EB006466748BC
:100B7000FFF7CDFC642016F03BF8654B1B88ADF801
:100B80000430F7238DF8003012F09CFA20B9614947
:100B90005E48FFF7BCFCF7E7002400275E495FFAD8
:100BA00087F806A815F039FC414602A815F055FC57
:100BB00002A906A815F0CCFC584915F0D1FC214635
:100BC00005460AA815F049FC0AA9284615F0C0FCFC
:100BD00001464E48FFF791FC0AA815F0DEFB02A87B
:100BE00015F0DBFB06A815F0D8FB0022022101A8B6
:100BF00016F0ACFF4A481AF0AFFF824612F00AFC2A
:100C000008B351460AA812F089FB06F168030AAA44
:100C10000DF1300E9946154603CD754518605960A3
:100C20002A4603F10803F6D128681860AA889A803A
:100C300050461AF025F8B36E53B93A493348FFF7D6
:100C400066FC02205DE050461AF01AF8012058E0D8
:100C50004FF480501AF00CF82246054641463046C3
:100C600002F079FAC0B20003294630674FF480528F
:100C70004846FFF762FC00224FF48051284616F0E8
:100C800065FF284619F0FCFF00220121684616F096
:100C90005DFF642015F0ACFF234906A815F0BDFBED
:100CA000414602A815F0D9FB02A906A815F050FC90
:100CB0001A4915F055FC214605460AA815F0CDFB4A
:100CC0000AA9284615F044FC184915F049FC0146CC
:100CD0000E48FFF712FC0AA815F05FFB02A815F0FA
:100CE0005CFB013706A815F058FB042F7FF456AFC4
:100CF0000134E4B2102C7FF450AF0D490348FFF7E4
:100D000006FC0EB0BDE8F08781F20100248FFF1FC2
:100D100050F20100A0F20100B3F20100207D0200B8
:100D2000C4F20100E9F2010037F3010040F30100D1
:100D3000CCF2010008037047002238B51146044682
:100D400002F00EFD0023226E02EB43025D1CB2F89E
:100D5000A2206900204602F003FD042D2B46F2D1AB
:100D60000025236E03EB4503691DB3F8AA20490053
:100D70002046013502F0F4FC042DF2D10025236E4B
:100D800003EB450305F10901B3F8B2204900204601
:100D9000013502F0E5FC042DF1D10025236E03EBB3
:100DA000450305F10D01B3F88220490020460135C5
:100DB00002F0D6FC082DF1D10025236E03EB45038C
:100DC00005F11501B3F8922049002046013502F0E3
:100DD000C7FC082DF1D102490248FFF798FB38BD46
:100DE00046F30100248FFF1FF8B50021044602F0EE
:100DF000C9FC4FF6FF73984219D132493248FFF7C8
:100E000086FB30493048FFF782FB2E492E48FFF71A
:100E10007EFB2C492C48FFF77AFB2A492A48FFF72A
:100E200076FB28492848FFF772FB0120F8BD002512
:100E30006F1C266E7900204602F0A4FC06EB4505E7
:100E4000042FA5F8A2003D46F2D10025691D266EAB
:100E50004900204602F096FC06EB45060135042DBC
:100E6000A6F8AA00F2D1002505F10901266E490075
:100E7000204602F087FC06EB45060135042DA6F856
:100E8000B200F1D1002505F10D01266E4900204682
:100E900002F078FC06EB45060135082DA6F8820025
:100EA000F1D1002505F11501266E4900204602F01A
:100EB00069FC06EB45060135082DA6F89200F1D134
:100EC0000020F8BD70F30100248FFF1F036E70B582
:100ED0000446012083F8610183F860010E4615463F
:100EE00015F068FE002384F8476084F8503084F8D9
:100EF0004850E06470BD70B504461D462BB9FFF73D
:100F0000E5FF236EA3F8645170BD036E83F80C11E6
:100F100070BDFFFF10B588B00023013A059106921D
:100F20000B7003AA064C8DF8103001A903940793A7
:100F300001920293FFF766FD029808B010BD00BF52
:100F400034F2010010B5016804460C20FFF74CFC98
:100F500010B100230360037163682BB11A680AB1F2
:100F60001346FBE7186010BD606010BD38B505463C
:100F7000006810B9FFF740FC38BDFFF766FD044676
:100F80002846FFF7DFFF40B12368002B15BF06227C
:100F900000222346002302718360204638BD10B52D
:100FA0000C46FFF7CFFF20B1237883600322027144
:100FB000012010BD10B50C46FFF7C4FF40B12368F7
:100FC000002BAEBF04225B42052202718360012028
:100FD00010BD10B50C46FFF7B5FF20B12378836034
:100FE00004220271012010BD10B50C46FFF7AAFFC4
:100FF00048B194F90030002BAEBF04225B420522B9
:1010000002718360012010BD10B5016804461020F4
:10101000FFF7EAFB10B100230360037263682BB192
:101020001A680AB11346FBE7186010BD606010BD76
:101030002DE9F7430546074655F8040BFFF713FD66
:101040007B2104462846FFF73DFC98B37D212846C6
:10105000FFF738FC88BB0646E8463846FFF744FCF5
:10106000814638B33A212846FFF72CFC10B341469D
:1010700038468DF8006000F024F8D8B14946606821
:10108000FFF720FA28B92046FFF7BEFF90B1C0F85D
:10109000049000F1080398E8030083E803007D2131
:1010A0002846FFF70FFC40B92C212846FFF70AFC21
:1010B0000028D2D1FFF7C4FB00E0204603B0BDE812
:1010C000F08370B5047B05460E46002C36D0013CFB
:1010D00004734068FFF7CAFB686004785B2C02D099
:1010E0007B2C09D013E0284600F02AF803680BB9DE
:1010F000002420E0062306E02846FFF799FF036856
:10110000002BF5D0072333707060012413E0272CE7
:1011100004D0A4F122035C425C4100E00124284693
:10112000FFF7E2FB0028E3D014B10223337001E0A3
:101130000124347070602B7B01332B73204670BD0B
:101140002DE9F3410546804655F8040BFFF77DFC79
:101150005B2104462846FFF7B5FB08B35D2128460E
:10116000FFF7B0FBF8B906466F46394640468DF8A2
:101170000060FFF7A6FF98B12046FFF7E3FE78B1C5
:10118000031D97E8030083E803005D212846FFF76D
:1011900099FB40B92C212846FFF794FB0028E4D1A5
:1011A000FFF72AFB00E0204602B0BDE8F081FFFF18
:1011B0001FB5074B0090002918BF0B4668460193E6
:1011C00002918DF80C20FFF733FF05B05DF804FBAA
:1011D000DBFC010070B5054600680E4610B9FFF74C
:1011E0000BFB70BDFFF731FC314604466868FFF722
:1011F00069F920B92846FFF707FF48B14660236820
:10120000002B15BF06220022234600230272C36072
:10121000204670BD2DE9F041ADF5804D84B0334BD3
:101220000293054644F2040302A80022C2500F466E
:10123000FFF719FC2E490646FFF7CCFF122301A940
:1012400004460193FFF7B6FE296E20464131FFF7B1
:10125000C0FE296E20464231FFF7BBFE296E2046B4
:101260004331FFF7B6FE296E20464431FFF7B1FE49
:10127000296E20464531FFF7ACFE296E20464631E7
:10128000FFF7A7FE296E20466331FFF7A2FE204636
:10129000D5F86080FFF756FE20B1D8F8643083603F
:1012A00004220271296E204601F20F11FFF791FE10
:1012B000296E204601F58871FFF78BFE296E2046C6
:1012C00001F21111FFF785FE296E204601F58971A3
:1012D000FFF77FFE4FF4805239463046FFF71AFE83
:1012E0000DF5804D04B0BDE8F08100BF4CF2010067
:1012F000612602002DE9F041044688B02D481AF01D
:101300002BFC012107464FF4805019F027FC0646BC
:1013100001462046FFF77EFF11F0D4FE0028FBD0E7
:10132000394604A811F0FAFF04F1680304AA0DF18C
:10133000180E9846154603CD7545186059602A4623
:1013400003F10803F6D128681860AA889A80A36E72
:101350008BB100254046256712F05CF925674FF4F4
:10136000805231464046FFF7FFF8304608B0BDE8EE
:10137000F04119F085BC10491048FFF7C8F8104932
:1013800004A815F04AF83946684615F046F869464B
:1013900004A815F0DDF801460848FFF7AEF86846E6
:1013A00014F0FBFF04A814F0F8FF03490348FFF70B
:1013B000AEF8DAE79BF30100A4F30100248FFF1FCE
:1013C000B3F30100F0B5304989B004462F48FFF768
:1013D0009EF82F481AF0C0FB064612F01BF878B9A9
:1013E0002C492A48FFF793F84FF480313046FFF735
:1013F00098F8206E0CF072FC2046FFF77BFF38E077
:1014000025492248FFF783F811F05CFE0028FBD045
:10141000314604A811F082FF06AF04AA04F1680364
:10142000154603CDBD42186059602A4603F10803F2
:10143000F6D128681860AA889A80A36EFBB1174974
:1014400004A814F0EAFF0A22E16E684615F03EF89F
:10145000694604A815F07CF801460C48FFF74DF8E2
:10146000684614F09AFF04A814F097FF0A2015F0BC
:10147000BFFB304609B0BDE8F04019F001BC084997
:101480000248FFF744F8F4E7CEF30100248FFF1F72
:101490009BF30100F0F3010024F401003FF401008C
:1014A0005BF4010070B5044640680E461546FFF730
:1014B00009F820B92046FFF7A7FD48B146602B6820
:1014C000002BAEBF04225B4205220272C3600120E2
:1014D00070BDFFFF2DE9F047ADF5804D86B00446A5
:1014E0008DF806308B4B049304A844F204038DF866
:1014F00007200022C2508946FFF7B5FA03AA12233B
:10150000804685490393FFF7CDFF84494046FFF7A6
:1015100061FE9DF80730616E40F6182606FB031148
:1015200001F609110546FFF754FD9DF80730616E7D
:1015300006FB031101F618112846FFF74AFD9DF836
:101540000730616E06FB031101F511612846FFF7B4
:1015500040FD9DF80730626E284606FB0326FFF724
:10156000F1FC20B1B6F812398360042202710DF14A
:1015700007012846FFF72DFD0DF106012846FFF76C
:1015800028FD9DF80730616E40F6182606FB031112
:1015900001F6EB112846FFF727FD9DF80730616E35
:1015A00006FB031101F619112846FFF71DFD9DF8F2
:1015B0000730616E06FB031101F61A112846FFF78A
:1015C00013FD9DF80730616E06FB031101F61B1138
:1015D0002846FFF709FD9DF80730616E06FB0311F1
:1015E00001F61C112846FFF7FFFC9DF80730616EDD
:1015F00006FB031101F61D112846FFF7EAFC9DF8D2
:101600000730616E06FB031101F61E112846FFF735
:10161000E0FC9DF80730616E06FB031101F61F1117
:101620002846FFF7D6FC9DF80730616E06FB0311D4
:1016300001F512612846FFF7CCFC9DF80730616E7A
:1016400006FB031101F621112846FFF7C2FC9DF8A5
:101650000730616E06FB031101F622112846FFF7E1
:10166000B8FC9DF80730616E06FB031101F62311EB
:101670002846FFF7AEFC9DF80730616E06FB0311AC
:1016800001F608112846FFF7A4FC9DF80730616EAB
:1016900006FB031101F60B112846FFF79AFC9DF893
:1016A0000730616E06FB031101F60C112846FFF7A7
:1016B00090FC9DF80730616E06FB031101F60D11D9
:1016C0002846FFF786FC9DF80730616E06FB031184
:1016D00001F60E112846FFF77CFC9DF80730616E7D
:1016E00006FB031101F60F112846FFF772FC9DF867
:1016F0000730616E06FB031101F615112846FFF74E
:1017000068FC07494046FFF765FD002382460393C6
:10171000242707E04CF2010091F401006126020049
:101720009BF20100039B3F2B00F3CA805046FFF75A
:101730001DFC03A90546FFF73DFC616E9DF80730CF
:1017400006FB03130399284607FB0131FFF741FC11
:101750009DF80730616E06FB0311039B07FB031125
:1017600001312846FFF735FC9DF80730616E06FB16
:101770000311039B07FB031102312846FFF729FCE5
:101780009DF80730616E06FB0311039B07FB0311F5
:1017900003312846FFF71DFC9DF80730616E06FBFC
:1017A0000311039B07FB031104312846FFF711FCCB
:1017B0009DF80730616E06FB0311039B07FB0311C5
:1017C0000C312846FFF710FC9DF80730616E06FBD0
:1017D0000311039B07FB031105312846FFF7F9FBB3
:1017E0009DF80730616E06FB0311039B07FB031195
:1017F00006312846FFF7EDFB9DF80730616E06FBCA
:101800000311039B07FB031107312846FFF7E1FB98
:101810009DF80730616E06FB0311039B07FB031164
:1018200008312846FFF7D5FB9DF80730616E06FBAF
:101830000311039B07FB031109312846FFF7C9FB7E
:101840009DF80730616E06FB0311039B07FB031134
:101850000A312846FFF7BDFB9DF80730616E06FB95
:101860000311039B07FB03110D312846FFF7BCFB57
:101870009DF80730616E06FB0311039B07FB031104
:101880000E312846FFF7A5FB9DF80730616E06FB79
:101890000311039B07FB031110312846FFF799FB47
:1018A0009DF80730616E06FB0311039B07FB0311D4
:1018B0000B312846FFF78DFB039B0133039331E780
:1018C0004FF4805249464046FFF724FB0DF5804D0A
:1018D00006B0BDE8F08700BF2DE9F043036E03EBCF
:1018E00001131344012683F8176189B004460D469D
:1018F000914601F030FC5FFA80F804EB0806B379FA
:101900001BB1204601F0AAFCF9E70127E77015F0AA
:1019100051F9E06533481AF01FF9394606464FF48D
:10192000805019F01BF94B46074601462A462046CF
:10193000FFF7D0FD11F0C6FB0028FBD0314604A80C
:1019400011F0ECFC04F1680304AA0DF1180C9E469A
:10195000154603CD6545186059602A4603F1080312
:10196000F6D128681860AA889A80A36ED3B14FEA8E
:1019700008334FF48052394623677046FEF7F4FD72
:1019800001224146204601F0E3FB384619F078F980
:10199000304619F075F90023E3700123237009B074
:1019A000BDE8F08310491148FEF7B1FD104904A8C5
:1019B00014F033FD3146684614F02FFD694604A843
:1019C00014F0C6FD01460948FEF797FD684614F07D
:1019D000E4FC04A814F0E1FC03490448FEF797FD79
:1019E000D3E700BF99F40100A4F30100248FFF1F87
:1019F000B3F301002DE9F04304468DB055481AF0C9
:101A0000ABF80746204601F033FE204601F0B0FB5C
:101A1000514904A814F001FD3946684614F0FDFC54
:101A2000694604A814F094FD4C4914F099FD0A226B
:101A300005464FF4802108A814F022FD08A9284685
:101A400014F086FD01464648FEF757FD08A814F03D
:101A5000A4FC684614F0A1FC04A814F09EFC4FF40A
:101A600080213846FEF75DFD00253E4908A814F0A8
:101A7000D4FC0A22294604A814F002FD04A908A8EF
:101A800014F066FD384914F06BFD01463448FEF74A
:101A900034FD04A814F081FC08A814F07EFC002694
:101AA0005FFA85F840F61829606EF2B209FB06006D
:101AB0004146013604F0F4F9042EF5D12B492848AB
:101AC000FEF725FD0026F1B2424620460136FFF71B
:101AD00003FF042EF7D126492148FEF718FD23788D
:101AE0001BB1204601F0BAFBF9E7224908A814F01F
:101AF00094FC0A22294604A814F0C2FC04A908A8F0
:101B000014F026FD184914F02BFD01461448FEF789
:101B1000F4FC04A814F041FC08A814F03EFC0135C4
:101B20004FF4FA7015F064F8102D9ED123781BB194
:101B3000204601F093FBF9E7642015F059F8384688
:101B400019F09EF80C490648FEF7E1FC0DB0BDE81F
:101B5000F08300BFC4F20100A2F40100B7F4010059
:101B6000248FFF1FBFF40100F2F4010010F5010003
:101B700025F5010039F5010065F50100F0B52A49A8
:101B800089B005462948FEF7C2FC294819F0E4FF50
:101B9000064611F03FFC38B926492448FEF7B7FC49
:101BA0002846FFF727FF39E011F08CFA0028FBD018
:101BB000314604A811F0B2FB06AF04AA05F1680390
:101BC000144603CCBC4218605960224603F1080356
:101BD000F6D120681860A2889A80AB6EBBB1164916
:101BE00004A814F01AFC0A22E96E684614F06EFC90
:101BF000694604A814F0ACFC01460C48FEF77DFCD5
:101C0000684614F0CAFB04A814F0C7FB03E00B49B4
:101C10000648FEF77CFC0A2014F0EAFF304609B0C3
:101C2000BDE8F04019F02CB888F50100248FFF1FA3
:101C3000C4F201009FF50100BFF50100D9F50100D4
:101C400070B50546164600242B6E93F80A312341E1
:101C5000DB0704D5325DE1B22846FFF73DFE0134D3
:101C6000042CF1D170BDFFFF2DE9F047ADF5804D9B
:101C700084B0424B0293054644F2040302A80024B8
:101C80008846C450FEF7EFFE1223074601AA3C49DE
:101C90000193FFF707FC3B493846FFF79BFA019495
:101CA0008146019B002B5EDC4846FFF75FF901A9E6
:101CB0008246FFF77FF900245046FFF757F9296E57
:101CC000214401F5CD710646FFF769F9296E2144DB
:101CD00001F5D5713046FFF762F9296E214401F50F
:101CE000DD713046FFF75BF9296E214401F5E5719E
:101CF0003046FFF754F9296E214401F21A2130468B
:101D0000FFF767F9296E214401F22A213046FFF7D7
:101D10006BF9296E214401F267113046FFF759F93A
:101D2000296E214401F5ED713046FFF738F9296E2F
:101D3000214401F5F5713046FFF731F9296E214450
:101D400001F5FD713046FFF72AF9296E214401F2B1
:101D50000A2130460134FFF722F9102CACD1019B47
:101D6000013301939DE74FF4805241463846FFF717
:101D7000D1F80DF5804D04B0BDE8F0874CF20100BC
:101D800091F401000DF601002DE9F041044688B000
:101D90002D4819F0E1FE012107464FF4805018F05C
:101DA000DDFE064601462046FFF75EFF11F08AF988
:101DB0000028FBD0394604A811F0B0FA04F16803FA
:101DC00004AA0DF1180E9846154603CD7545186006
:101DD00059602A4603F10803F6D128681860AA88DA
:101DE0009A80A36E8BB100254046256711F012FC46
:101DF00025674FF4805231464046FEF7B5FB30462A
:101E000008B0BDE8F04118F03BBF10491048FEF79C
:101E10007EFB104904A814F000FB3946684614F014
:101E2000FCFA694604A814F093FB01460848FEF743
:101E300064FB684614F0B1FA04A814F0AEFA034942
:101E40000348FEF764FBDAE713F60100A4F3010090
:101E5000248FFF1FB3F30100F0B52F4989B004466A
:101E60002E48FEF754FB2E4819F076FE064611F078
:101E7000D1FA78B92B492948FEF749FB4FF4803154
:101E80003046FEF74EFB206E0BF0ECFE2046FFF7CF
:101E90007BFF35E024492148FEF739FB11F012F9A8
:101EA0000028FBD0314604A811F038FA06AF04AA86
:101EB00004F16803154603CDBD42186059602A46F7
:101EC00003F10803F6D128681860AA889A80A36EE7
:101ED000E3B1164904A814F0A0FA0A22E16E68469C
:101EE00014F0F4FA694604A814F032FB01460B48DA
:101EF000FEF703FB684614F050FA04A814F04DFAFC
:101F0000304609B0BDE8F04018F0BABE08490348B1
:101F1000FEF7FDFAF4E700BF1CF60100248FFF1F57
:101F200013F6010038F601006CF6010081F601009D
:101F300097F6010008B54068FEF7BEFA10B104300C
:101F4000FEF7A0FD08BD08B54068FEF7B5FA18B168
:101F50000430FEF7BFFDC0B208BDFFFFF0B5ADF520
:101F6000814D81B0A84B1E93044644F204031EA881
:101F700000270A22C750FFF71BF90668054646B935
:101F8000052014F035FEA149A148FEF7C0FA3046FD
:101F900035E1A049FEF746FC3946FFF7CBFF122892
:101FA00006D0206E0BF09AFE2046FFF7A3F925E13C
:101FB0009849266E2846FEF735FC0121FFF7C3FF3E
:101FC000944986F841002846266EFEF72BFC022134
:101FD000FFF7B9FF8F4986F842002846266EFEF7C4
:101FE00021FC0321FFF7AFFF8A4986F8430028460A
:101FF000266EFEF717FC0421FFF7A5FF854986F83A
:1020000044002846266EFEF70DFC0521FFF79BFFD6
:10201000804986F845002846266EFEF703FC062117
:10202000FFF791FF7B4986F846002846266EFEF7AB
:10203000F9FB0721FFF787FF764986F863002846FA
:10204000266EFEF7EFFB08214068FEF735FA10B167
:102050000430FEF73FFD70666E492846FEF7E2FB4E
:102060004368002613B101361B68FBE769496868BD
:10207000FEF728FA20B1037A072B01D1C06801E0EE
:10208000FEF7DEFB4268002312B101331268FBE762
:102090001E44092E266E27D95E492846FEF7C2FB4C
:1020A0000921FFF750FF5B4986F80F012846266E8D
:1020B000FEF7B8FB0A21FFF746FF564986F81001E4
:1020C0002846266EFEF7AEFB0B21FFF73CFF514979
:1020D00086F811012846266EFEF7A4FB0C21FFF7B7
:1020E00032FF86F812010EE0012386F80F31236ECD
:1020F000022283F81021236E032283F81121236E1C
:10210000042283F81221206E90F86330072B0CBF55
:10211000002101210BF0E2FE3F4906A814F07DF9F1
:10212000236E02A893F8411014F097F902A906A8AB
:1021300014F00EFA394914F013FA236E054693F899
:1021400042100AA814F089F90AA9284614F000FAE6
:10215000324914F005FA236E054693F843100EA891
:1021600014F07BF90EA9284614F0F2F92B4914F06B
:10217000F7F9236E054693F8441012A814F06DF990
:1021800012A9284614F0E4F9244914F0E9F9236E61
:10219000054693F8451016A814F05FF916A92846CD
:1021A00014F0D6F91D4914F0DBF9236E1AAA93F83E
:1021B000461001920546104614F04FF90199284641
:1021C00014F0C6F9154914F0CBF901461048FEF792
:1021D00094F9019814F0E1F816A814F0DEF812A8AA
:1021E00014F0DBF80EA814F0D8F80AA814F0D5F80B
:1021F00002A814F0D2F806A814F0CFF801200DF5CB
:10220000814D01B0F0BD00BF4CF20100C7F60100E6
:10221000248FFF1F61260200F5F60100DAFC0100A1
:102220002DE9F041044688B0524819F095FC054666
:1022300010F048FF20B950495048FEF768F9F7E719
:10224000284611F0E7F8C8B1294604A811F066F84D
:1022500004F1680304AA0DF118081F46164603CEC0
:10226000464518605960324603F10803F6D13068DC
:102270001860B2889A80A36E2BB95AE0284618F0ED
:10228000FFFC012072E04FF4805018F0F1FC0023B5
:102290000146064623674FF480523846FEF74DF953
:1022A00031462046FFF75AFE002837D1304618F055
:1022B000E7FC294604A811F031F804AA3B469646EB
:1022C000BEE80300C64518605960724603F1080372
:1022D000F5D1DEF800001860BEF804209A80284985
:1022E0002648FEF714F90023314623674FF4805245
:1022F0003846FEF722F931462046FFF72FFE68B92F
:1023000031461E48FEF703F91E491C48FEF7FFF848
:10231000206E0BF0E3FC2046FEF7ECFF0A2014F0E1
:1023200067FC304618F0ACFC284618F0A9FC0020E9
:102330001CE0154904A814F070F82946684614F00A
:102340006CF8694604A814F003F9104914F008F970
:1023500001460A48FEF7D1F8684614F01EF804A8B2
:1023600014F01BF8284618F08BFC022008B0BDE8DA
:10237000F08100BF9BF30100A0F20100248FFF1F3A
:1023800012F701005CF70100C6F7010003F8010035
:1023900008B54068FEF790F818B10430FEF772FBFC
:1023A00040B208BD08B54068FEF786F828B1043091
:1023B000FEF768FB003018BF012008BD08B5406873
:1023C000FEF77AF820B10379062B01D1806808BDA9
:1023D000FEF712FA08BDFFFF70B5ADF5804D82B073
:1023E000154B009344F204030A22002468464DF87A
:1023F0000340FEF7DDFE1149FEF714FA06462146BA
:102400003046FFF7DBFF0721FFF794FD054608B1D3
:1024100001200CE021463046FFF7D0FF0121FFF7F5
:1024200089FD1828F4D10134402CE8D128460DF557
:10243000804D02B070BD00BF4CF201009BF2010064
:102440002DE9F04F054689B03E4819F085FB04465A
:1024500010F038FE20B93C493C48FEF758F8F7E741
:10246000204610F0D7FF002847D0214604A810F0DE
:1024700055FF05F1680304AA06AF9A46164603CE37
:10248000BE4218605960324603F10803F6D1306845
:102490001860B2889A80AB6EA3B3002600275FFA5B
:1024A00086FB4FF4805018F0E3FBF9B281465A46A0
:1024B000284600F050FEC0B200034FF48052286757
:1024C00049465046FEF739F8D5F860804946284617
:1024D000FFF782FF08EB0718B044013788F81701AF
:1024E000484618F0CDFB042FDBD10136102ED5D194
:1024F000204618F0C5FB002021E0204618F0C0FB64
:1025000001201CE0124904A813F087FF2146684609
:1025100013F083FF694604A814F01AF80D4914F06B
:102520001FF801460948FDF7E8FF684613F035FF3C
:1025300004A813F032FF204618F0A2FB022009B0D5
:10254000BDE8F08FC4F20100A0F20100248FFF1F4C
:10255000C6F7010003F801002DE9F04FADF5804DFD
:102560009BB0B14B1893054644F2040318A88A4661
:102570004FF0000811460A2240F8038040F6182464
:10258000FEF716FE6F6EA94904FB0AF427440646BF
:1025900097F816390193FEF745F94146FFF7D3FC4A
:1025A00087F809096B6EA14930461F19FEF73AF901
:1025B0000121FFF7C8FC87F818096B6E9B4930466C
:1025C0001F19FEF72FF90221FFF7BDFC974987F885
:1025D000100930466F6EFEF725F903214068274445
:1025E000FDF76AFF18B10430FEF774FA80B26B6E23
:1025F000A7F812098D4930461F19FEF713F9042177
:10260000FFF7A1FC87F817096B6E884930461F1940
:10261000FEF708F90521FFF796FC87F816096B6E9F
:10262000824930461F19FEF7FDF80621FFF7B0FE7C
:1026300087F8EB096B6E7D4930461F19FEF7F2F8FB
:102640000721FFF7A5FE87F819096B6E7749304619
:102650001F19FEF7E7F80821FFF79AFE87F81A0915
:102660006B6E724930461F19FEF7DCF80921FFF73F
:102670008FFE87F81B096B6E6C4930461F19FEF7F9
:10268000D1F80A21FFF784FE87F81C096B6E6749B1
:1026900030461F19FEF7C6F80B21FFF754FC87F8E8
:1026A0001D096B6E614930461F19FEF7BBF80C21FE
:1026B000FFF749FC87F81E096B6E5C4930461F190D
:1026C000FEF7B0F80D21FFF73EFC87F81F096B6E8F
:1026D000564930461F19FEF7A5F80E21FFF733FCC7
:1026E00087F820096B6E514930461F19FEF79AF89A
:1026F0000F21FFF728FC87F821096B6E4B49304604
:102700001F19FEF78FF81021FFF71DFC87F822092B
:102710006B6E464930461F19FEF784F81121FFF70A
:1027200012FC87F823096B6E404930461F19FEF7EB
:1027300079F81221FFF707FC87F808096B6E3B490F
:1027400030461F19FEF76EF81321FFF7FCFB87F8E0
:102750000B096B6E354930461F19FEF763F81421DB
:10276000FFF7F1FB87F80C096B6E304930461F19F3
:10277000FEF758F81521FFF7E6FB87F80D096B6E99
:102780002A4930461F19FEF74DF81621FFF7DBFBEB
:1027900087F80E096B6E254930461F19FEF742F87F
:1027A0001721FFF7D0FB87F80F096B6E1F493046E2
:1027B0001F19FEF737F81821FFF7C5FB1C4987F8EA
:1027C00015093046FEF72EF86B6E23448046B3F8A9
:1027D00012291AB94FF6FF72A3F8122993F8093992
:1027E00003BB0327134914A813F017FE514610A882
:1027F00013F033FE10A914A813F0AAFE0E4913F02B
:10280000AFFE01460D48FDF778FE10A813F0C5FD98
:1028100014A813F0C2FD013FE4D16B6E23441022D3
:1028200083F8092900270BE04CF201006126020021
:102830009BF2010037F3010016F80100248FFF1FFF
:1028400039464046FFF7BAFD0121FFF77CFB3946C8
:102850000D904046FFF7B2FD0221FFF774FB3946A9
:102860000C904046FFF7AAFD0321FFF76CFB3946A9
:102870000B904046FFF7A2FD0421FFF764FB3946A9
:102880000A904046FFF79AFD0521FFF75CFB3946A9
:1028900009904046FFF792FD0621FFF779FD394682
:1028A00008904046FFF78AFD0721FFF74CFB3946A9
:1028B00007904046FFF782FD0821FFF744FB3946A9
:1028C00006904046FFF77AFD0921FFF73CFB3946A9
:1028D00005904046FFF772FD0A21FFF734FB3946A9
:1028E00004904046FFF76AFD0B21FFF72CFB3946A9
:1028F00003904046FFF762FD0C21FFF724FB3946A9
:1029000002904046FFF75AFD0D21FFF741FD394681
:1029100083464046FFF752FD0E21FFF714FB3C496A
:1029200081467068FDF7CEFD20B10830FEF7AAF8A9
:1029300011280CDC39464046FFF740FD0E21FFF719
:10294000F9FA0128C4BF09F101095FFA89F939468A
:102950004046FFF733FD0F21FFF7F5FA39460F9098
:102960004046FFF72BFD1021FFF7EDFA39460E9098
:102970004046FFF723FD0021FFF7E5FA696E9DF859
:1029800034300E9A01EB040E242148430EEB000173
:102990000EF800309DF830304B709DF82C308B7065
:1029A0009DF82830CB709DF824300B719DF81C30B9
:1029B0004B719DF818308B719DF81430CB719DF8D8
:1029C00010300B729DF80C304B729DF808308B72F2
:1029D00001379DF820300B73402F0F9BCA7281F88E
:1029E0000DB081F80E900B747FF42AAF3368002B82
:1029F00014BF0126002605D1686E01995246204475
:102A000003F04EFA30460DF5804D1BB0BDE8F08F57
:102A100091F401002DE9F047044688B055480F466F
:102A2000914619F099F8054610F04CFB20B952492F
:102A30005248FDF76CFDF7E7284610F0EBFCC8B1F3
:102A4000294604A810F06AFC04F1680304AA0DF1F9
:102A5000180A9846164603CE564518605960324605
:102A600003F10803F6D130681860B2889A80A36E2B
:102A70002BB95FE0284618F003F9012077E04FF406
:102A8000805018F0F5F84A4606463946204600F0D0
:102A900062FBC0B2000320674FF4805231464046CB
:102AA000FDF74BFD324639462046FFF755FD00281D
:102AB00038D1304618F0E4F8294604A810F02EFC6E
:102AC00004AA43469646BEE80300D64518605960FE
:102AD000724603F10803F5D1DEF800001860BEF875
:102AE00004209A8026492548FDF711FD4A463946BB
:102AF000204600F030FBC0B2000320674FF4805244
:102B000031464046FDF719FD324639462046FFF76B
:102B100023FD38B931461948FDF7F9FC1949174822
:102B2000FDF7F5FC304618F0ABF8284618F0A8F889
:102B300000201CE0144904A813F06FFC29466846E5
:102B400013F06BFC694604A813F002FD0F4913F063
:102B500007FD01460948FDF7D0FC684613F01DFC4F
:102B600004A813F01AFC284618F08AF8022008B0CE
:102B7000BDE8F087C4F20100A0F20100248FFF1F1E
:102B800030F801009BF80100C6F7010003F80100CE
:102B900070B506460D461446FFF73CFF01280AD1E2
:102BA000736E40F618202A46214600FB0530BDE82A
:102BB000704003F075B970BD026E38B592F861319E
:102BC0000446ABB390F84800042194F8503040FA22
:102BD00003F5ED0702D50139F7D106E00133DBB289
:102BE000032B84F85030F6D926E092F85E3194F841
:102BF000501094F847508BB192F8663102EB0112F5
:102C00001A4492F8DA314BB1636E0A4640F6182046
:102C1000294600FB023003F043F904E001232A4671
:102C20002046FFF7B5FF94F85030013384F8503058
:102C300094F85030032B09D9226E002382F86131B9
:102C400084F85030024B94F847201A7038BD00BF0A
:102C500088CFFF1F2DE9F043ADF5804D83B0974B32
:102C6000009344F20403074600240A2268464DF804
:102C70000340FEF79DFA0668054626B9052013F0C5
:102C8000B7FF8F490AE08F494068FDF71BFC20B170
:102C90000830FDF7F7FE122805D08B498B48FDF769
:102CA00036FC002004E18A493E6E2846FDF7BAFD55
:102CB0002146FFF783FB2146FFF745F986F86201BD
:102CC0008349D7F860802846661CFDF7ABFD0021DC
:102CD000FFF774FB3146FFF771FB0021FFF762FB42
:102CE000A0447B4988F89A012846D7F86080FDF710
:102CF00099FD0021FFF762FB3146FFF75FFB0121E1
:102D0000FFF750FBA044724988F8AA012846D7F87B
:102D10006080FDF787FD0021FFF750FB3146FFF78C
:102D20004DFB0221FFF73EFBA044694988F8BA0138
:102D30002846D7F86080FDF775FD0021FFF73EFBC0
:102D40003146FFF73BFB0321FFF72CFBA044604912
:102D500088F8CA012846D7F86080FDF763FD002196
:102D6000FFF72CFB3146FFF729FB0421FFF7EBF8B7
:102D7000A044574988F81A022846D7F86080FDF722
:102D800051FD0021FFF71AFB3146FFF717FB052124
:102D9000FFF7FEFAA0444E4988F82A022846FDF7BC
:102DA00041FD00218046FFF709FB41684FF0000913
:102DB00019B109F101090968FAE7D8F80400FDF72B
:102DC0007BFB20B10379072B01D1806801E0FDF77F
:102DD00037FDD0F804800023B8F1000F03D0013391
:102DE000D8F80080F8E79944B9F1060F05D8102EFD
:102DF00034467FF465AF01205AE03549D7F860903A
:102E00002846FDF70FFD4146FFF7D8FA3146FFF798
:102E1000D5FA0621FFF797F8A1442D4989F86701F3
:102E20002846D7F86090FDF7FDFC4146FFF7C6FA4B
:102E30003146FFF7C3FA0721FFF7B4FAA14424494A
:102E400089F8DA012846D7F86090FDF7EBFC414697
:102E5000FFF7B4FA3146FFF7B1FA0821FFF7A2FAFB
:102E6000A1441B4989F8EA012846D7F86090FDF78C
:102E7000D9FC4146FFF7A2FA3146FFF79FFA092134
:102E8000FFF790FAA144124989F8FA012846D7F8C9
:102E90006090FDF7C7FC4146FFF790FA3146FFF717
:102EA0008DFA0A21FFF77EFA4C4484F80A029EE765
:102EB0000DF5804D03B0BDE8F08300BF4CF201007A
:102EC000C7F6010091F401000BF90100248FFF1FE8
:102ED0000DF601002DE9F041044688B0504818F085
:102EE0003BFE054610F0EEF820B94E494E48FDF77E
:102EF0000EFBF7E7284610F08DFAC8B1294604A862
:102F000010F00CFA04F1680304AA0DF118081F462A
:102F1000164603CE464518605960324603F1080351
:102F2000F6D130681860B2889A80A36E2BB957E04A
:102F3000284617F0A5FE01206FE04FF4805017F0EF
:102F400097FE00230146064623674FF48052384619
:102F5000FDF7F3FA31462046FFF77CFE002837D113
:102F6000304617F08DFE294604A810F0D7F904AAC0
:102F70003B469646BEE80300C64518605960724657
:102F800003F10803F5D1DEF800001860BEF8042054
:102F90009A8026492448FDF7BAFA00233146236770
:102FA0004FF480523846FDF7C8FA31462046FFF705
:102FB00051FE68B931461C48FDF7A9FA1C491A4868
:102FC000FDF7A5FA206E0AF04DFE2046FEF7DCFE66
:102FD000304617F055FE284617F052FE00201CE040
:102FE000144904A813F019FA2946684613F015FA93
:102FF000694604A813F0ACFA0F4913F0B1FA014680
:103000000948FDF77AFA684613F0C7F904A813F0E7
:10301000C4F9284617F034FE022008B0BDE8F0815C
:1030200013F60100A0F20100248FFF1F28F9010010
:1030300070F90100C6F7010003F80100F0B589B08E
:1030400004460F4639483A491D461646FDF75FFAD1
:103050000E9BC4F880300F9B67656666A567236684
:10306000162010F0AFF818B932493048FDF74FFA82
:1030700000236370A370E370621D04F1450102F840
:10308000013F8A42FBD172B62046FEF777FD20460B
:10309000FEF798F92046FEF7DFFE62B62046FFF7FE
:1030A000BFF80546B8B1244904A813F0B6F90A22BE
:1030B0002946684613F0E4F9694604A813F048FA73
:1030C00001461A48FDF719FA684613F066F904A894
:1030D00013F063F903E019491448FDF718FA204684
:1030E000FFF7F8FE0446B8B1154904A813F095F9A6
:1030F0000A222146684613F0C3F9694604A813F072
:1031000027FA01460948FDF7F8F9684613F045F932
:1031100004A813F042F903E00A490448FDF7F7F95F
:1031200009490248FDF7F3F909B0F0BD248FFF1FEC
:10313000D8F9010006FA01002CFA010050FA01004A
:1031400063FA010085FA010096FA010013F092BAC1
:1031500001448A71704701EB8200704708B503484B
:1031600018F0FAFCBDE8084010F054B9C4F20100B0
:10317000F0B5334989B004463248FDF7C8F9324802
:1031800018F0EAFC064610F045F9F0B92F4904A8FA
:1031900013F043F93146684613F03FF9694604A835
:1031A00013F0D6F901462748FDF7A7F9684613F052
:1031B000F4F804A813F0F1F810F07AF84FF4802135
:1031C0000246304610F032F91CE021491D48FDF757
:1031D0009EF9314604A810F0A1F804F1680204AB8E
:1031E0000DF1180E17461D4603CD75451060516050
:1031F0002B4602F10802F6D128681060AB88938054
:10320000A36EBBB9304617F03BFD0FF05BFF38B93A
:1032100010490C48FDF77BF9642013F0E9FCF4E752
:10322000002384F8463063700B490648FDF76FF9B8
:1032300009B0F0BD00232367384610F0D5F9E1E767
:10324000D1FA0100248FFF1F99F40100F2FA010066
:1032500008FB010027FB01003BFB01002DE9F04FBB
:10326000C5788FB004460DB10320DBE1471D3A4617
:1032700012F8013F4BB113F09DFCA36DC01A4CF244
:103280005033984240F2CE8104E06B1C402BF2D0C8
:103290001D46EDE7B54818F05FFC8246B44818F0CB
:1032A0005BFC80460FF00EFF002800F0DD8001215E
:1032B0004FF4805017F052FC6219EEB29379013B43
:1032C00006F003098346032B00F2CB80DFE803F00E
:1032D00002389AC741460AA8019210F01FF804F17B
:1032E0006803019A0AAD0DF1300C9946AE46BEE86E
:1032F0000300E64518605960754603F10803F5D1EF
:10330000DEF800001860BEF804109980A36E002B50
:1033100040F0DD80974906A813F07FF894F8461036
:1033200002A813F09AF802A906A813F011F992491D
:1033300013F016F9414605460AA813F06EF85FE14E
:1033400051460AA80FF0EAFF0AAB04F168020DF13A
:10335000300C9E46BEE80300E6451060516073469F
:1033600002F10802F5D1DEF800001060BEF804306A
:103370009380A36E002B40F0BA807E4906A813F01C
:103380004CF894F8461002A813F067F802A906A8B2
:1033900013F0DEF8794913F0E3F8494601900AA8E2
:1033A00013F05BF8019B0AA9184613F0D1F8014607
:1033B0007348FDF7A2F80AA812F0EFFF02A812F076
:1033C000ECFF06A812F0E9FF41460AA80FF0A6FF9D
:1033D0000AAA04F168030DF1300C9646BEE803001A
:1033E000E64518605960724603F10803F5D1DEF82E
:1033F00000001860BEF804209A80A36E002B40F0F5
:103400009380C1E051460AA80FF088FF04F16803D9
:103410000AAA0DF1300C01939646BEE80300E6457A
:1034200018605960724603F10803F5D1DEF8000018
:103430001860BEF804209A80A36E002B00F0CB80A9
:1034400031462046FDF776FC2067019810F0E2F83F
:1034500013F0B0FB25440423A065AB7101E0002309
:103460009371584617F00CFC404617F009FC504683
:1034700017F006FC002504F1450317F8012F0AB1E7
:103480000135EDB29F42F8D12378002B00F0CA80BD
:10349000002D40F0C7803B490AA812F0BEFF13F090
:1034A00089FBE16D0A22411A06A813F00FF806A95C
:1034B0000AA813F04DF801463148FDF71EF806A89A
:1034C00012F06BFF0AA812F068FF2570AAE03146DF
:1034D00020460192FDF72EFC2067484610F09AF82E
:1034E000019A0223937113F065FBA065B9E7314699
:1034F0002046FDF71FFCE36E206700F580529A42DC
:103500000FD99842BFF460AF1B1A1A460193A36EFD
:10351000594618440FF0E6FA226F019B13442367C3
:1035200052E74FF48053F0E731462046FDF702FCA6
:10353000E66E206700F58053B34214D9B04209D239
:10354000361AA36E3246184459460FF0D1FB236F4A
:103550001E44266713F02EFBA06525440323AB71A0
:10356000002363707DE74FF48056EAE799F4010089
:10357000C4F201007CFB01009FFB0100CDFB0100B8
:10358000248FFF1F63FB0100284906A812F045FFA6
:1035900094F8461002A812F060FF02A906A812F0E3
:1035A000D7FF234912F0DCFF494606460AA812F06D
:1035B00054FF0AA9304612F0CBFF01461D48FCF724
:1035C0009CFF0AA812F0E9FE02A812F0E6FE06A887
:1035D00012F0E3FEC1E7154906A812F01EFF94F8A9
:1035E000461002A812F039FF02A906A812F0B0FF97
:1035F000114912F0B5FF494605460AA812F02DFF01
:103600000AA9284612F0A4FF01460A48FCF775FFF4
:103610000AA812F0C2FE02A812F0BFFE06A812F01D
:10362000BCFE1EE70FB0BDE8F08F00BF7CFB0100C1
:10363000FFFB0100248FFF1F32FC010013F01AB8BA
:1036400008B5FCF74CFF08BD00230A2212F030BE7B
:1036500070B50568044628460E4613F04FF88642BA
:1036600003D03146284613F05DF8204670BDFFFFB9
:103670002DE9F04186B004A80FF050FC2E4D04A8AF
:103680000FF07AFD2B680093009F044600284CD071
:103690002A492B48FFF7D4FF21462948FFF7D4FFDA
:1036A00028492748FCF733FF27492548FCF72FFF17
:1036B00026492348FCF72BFF0FF076FC2B6801937B
:1036C000019E00240FF0FEFCA0B92B680293029B20
:1036D0009B1BB3F57A7FF5D901341D491848E4B234
:1036E000FFF7AEFF3B2C06F57A76EBD9144812F0C3
:1036F000CFFDE6E714B1124812F0CAFD1549104893
:10370000FCF705FF2B680393039B13490C48DC1B54
:10371000FFF796FF4FF47A710948B4FBF1F1FFF718
:1037200093FF0E490648FCF7F2FE4FF47A7013F04F
:103730005FFA06B0BDE8F081B8D2FF1F65FC01005A
:10374000248FFF1F77FC01007FFC010099FC010022
:10375000FD7B0200AFFC0100BFFC0100CFFC0100BB
:1037600073B502AC164644F8041D0D462046D1B28E
:10377000FFF76EFF0135310A20460195FFF768FF1C
:1037800002B070BD38B508460D4612F0B7FF0446CA
:10379000681C12F0B3FF04EB002080B238BD12F0B9
:1037A00069BFFFFF37B5044613F004FA324BA0603F
:1037B0001B680193019BE3600522D223172104F1CA
:1037C000100011F014FF1722002104F1240013F05F
:1037D0006DF8012384F82430022384F82530032374
:1037E00084F82630042384F82730062384F8283010
:1037F000072384F82930082384F82A30092384F821
:103800002B300B2384F82C300C2384F82D300D231F
:1038100084F82E300E2384F82F30102384F83030B3
:10382000112384F83130122384F83230132384F8C2
:103830003330052384F835300A2384F836300F23DB
:1038400084F837300D4B03F1100204F13B011046B0
:1038500053F8045B41F8045B9342F9D10368C4F860
:103860004B30074B1A889B78A4F84F20204684F8E9
:10387000513003B030BD00BFB8D2FF1FEBFF0100D5
:10388000FFFF010070B504460E460E48162115468E
:1038900014F0DCFB0C4812F0FBFC103444F8106C04
:1038A00044F80C5C0121052013F0DAF82046C82109
:1038B00011F014FF204611F091FD2046BDE8704044
:1038C00011F0E0BD02000200248FFF1F2DE9F74335
:1038D000DFF86890074600F14B05002440F61828F1
:1038E00000F1100699F80030A3423B6808FB04334E
:1038F0000DD193F8243929781BB12023019300239B
:103900000BE040227F208DE805001A460BE093F87B
:103910002429297822B10023019300937F2202E019
:10392000019200927F233046013411F076FE042C80
:1039300005F10105D6D103B0BDE8F08385CFFF1FA7
:10394000C943C9B2542908D801EB41020023A1EBB5
:103950008101481ED2B2194617E0A9290BD8553962
:10396000C9B2A1EB8102013A01EB41010023D2B2BD
:10397000C9B218460AE05631C8B2A0EB800101393D
:10398000002300EB40001A46C9B2C0B211F09FBE3E
:1039900030B500242046FF2505FA04F30B40E34030
:1039A00053431B0AA3400834202C40EA0300F3D100
:1039B00030BDC943C9B25429134607D801EB4102AF
:1039C000A1EB8101481ED2B2002115E0A9290AD835
:1039D0005539C9B2A1EB8102013A01EB4101D2B2E2
:1039E000C9B2002009E05631C8B2A0EB800101390C
:1039F00000EB40000022C9B2C0B211F068BE4368BB
:103A000070B593F85C6193F85E510446103446B18A
:103A10002DB1C021FFF794FF002102460EE04021A6
:103A200008E035B12022FF21FFF7C3FF31460246EF
:103A300004E0FF21FFF784FF294602462046BDE847
:103A4000704011F012BEFFFF2DE9F743DFF87C80D4
:103A5000044600F13B06002540F6182900F1100746
:103A6000226898F80030317809FB03233846B3F810
:103A700012392B4113F001030DBF01220022FF2355
:103A8000019212BF8DE80C000093FF22013511F066
:103A9000C4FD0C2D06F10106E2D104F1460504F146
:103AA0004A08002615F8011F0196002300961A46C1
:103AB000384611F0B2FDA845F4D12046FFF79FFF2C
:103AC000204603B0BDE8F043FFF700BF85CFFF1FDE
:103AD0002DE9F347DFF89080044600F13B0500260E
:103AE00040F6182900F11007236898F8000009FB38
:103AF000003002F08BF806EB0010C1B2236898F892
:103B0000000009FB003090F807398B4202D1297878
:103B1000FF2306E0242303FB01035B7943B92978E3
:103B20000123019300931A46384611F076FD0DE00B
:103B3000002295F800A002F053FA01462046FFF754
:103B4000FFFE51460246384611F08FFD0136102E19
:103B500005F10105C8D12046FFF751FF204602B00C
:103B6000BDE8F047FFF7B2BE85CFFF1F2DE9F04F4C
:103B7000DFF8C88085B0044600F13B0500265FFAF7
:103B800086FA504667680AF049F83B5C04F1100772
:103B90001BB3284BE0681B680393039B6168264AAC
:103BA000496EB2FBF1F11B1A994216D9FF2329780D
:103BB0000193002300931A46384611F02EFD01367A
:103BC000102E05F10105DAD12046FFF718FF204637
:103BD000FFF77CFE05B0BDE8F08F98F80030206854
:103BE00040F6182B0BFB030950460AF017F8242364
:103BF00003FB00904379C3B198F80000216895F861
:103C000000900BFB001B50460AF008F8002201460A
:103C1000584602F0E5F901462046FFF791FE494675
:103C20000246384611F021FDC9E710222978019398
:103C30000092C1E7B8D2FF1FC0C62D0085CFFF1F7D
:103C40002DE9F04FDFF858A187B004468B4600F10C
:103C50003B0600275FFA87F82546404609F0DEFF5D
:103C600055F8103B9AF8009040F6182202FB0939EB
:103C700099F80739834204D1FF23317801937F23D8
:103C80000CE04046039209F0C9FF242303FB009097
:103C9000039A437943B901233178019300931A467B
:103CA000284611F0BAFC18E021689AF800903378A1
:103CB0000393404602FB091909F0B0FF00220146B8
:103CC000484602F08DF901462046FFF739FE039B76
:103CD00002461946284611F0C8FC404609F09EFFEE
:103CE00058450CD12B4B62681B6805932A49059BEC
:103CF000526EB1FBF2F2E1685B1A9A423FD801378B
:103D0000102F06F10106A5D1244B1B78032B2DD8CB
:103D1000DFE803F002040F1AFF2100E0BF21204674
:103D2000FFF70EFE15210246284611F09EFC7F216A
:103D300014E07F212046FFF703FE152102462846A6
:103D400011F093FCBF2109E07F212046FFF7F8FD29
:103D500015210246284611F088FCFF212046FFF776
:103D6000EFFD16210246284611F07FFC2046FFF7A2
:103D700046FE2046FFF7AAFD07B0BDE8F08F0023FE
:103D800031780193FF2300931A46284611F045FC31
:103D9000B5E700BFB8D2FF1FC0C62D007CCFFF1F04
:103DA00085CFFF1F2DE9F04F044687B0FFF78EFD4A
:103DB0002046FFF724FE664F04F13B054FF0000A52
:103DC00040F618285FFA8AF6304609F027FF236884
:103DD00097F8009008FB093999F807398342304673
:103DE00041D109F01BFF4FF0240B0BFB009004F1B5
:103DF00010094279012A06D18023FF2029788DE815
:103E0000090000232DE020683A7808FB02023046C2
:103E1000039209F003FF039A0BFB00204279022A68
:103E200006D180232978019300230093FF2213E019
:103E300020683A7808FB02033046039309F0EEFE4F
:103E4000039B29780BFB00304379032B06D1802399
:103E500000228DE80C00FF2348466BE0FF2301930E
:103E600000931A46F8E709F0D9FE636893F80E311B
:103E7000834216D1374B2E781B680593059B05218D
:103E8000B3FBF1F1FF2391FBF3F31944C9B22046D0
:103E9000FFF756FD3146024604F1100011F0E5FB34
:103EA0004AE03B78206808FB030B304609F0B6FE79
:103EB0004FF0240909FB00B043791BB9297801931D
:103EC000009310E03B78206808FB030B304609F0B4
:103ED000A5FE09FB00B04379012B06D1FF22002388
:103EE00029788DE80C001A4622E03B78206808FB10
:103EF000030B304609F092FE09FB00B04379022B18
:103F000005D10023297801930093FF2210E03B782C
:103F1000206808FB030B304609F080FE09FB00B067
:103F20004379032B08D10022297801920092FF23C4
:103F300004F1100011F071FB0AF1010ABAF1100F3F
:103F400005F101057FF43EAF07B0BDE8F08F00BF7B
:103F500085CFFF1FB8D2FF1F2DE9F04F87B0044671
:103F6000FFF74DFDDFF83C8104F13B07002504F12C
:103F700010064FF00509636893F83A221A4492F844
:103F80001A22AA4213D1D8F800300393039BB3FB43
:103F9000F9F1122303FB0513FF2293FBF2F11944FD
:103FA000C9B2204697F800A0FFF703FD25E02B4497
:103FB00093F8172142B993F827212AB993F83721AA
:103FC00012B993F84731F3B1D8F8003004931223B3
:103FD0000499B1FBF9F103FB0511FF2391FBF3F306
:103FE00019440022C9B2204697F800A0FFF7E1FC6F
:103FF000402201462046FFF7CBFC024651463046A0
:1040000011F033FB07E00A223978019200931A4637
:10401000304611F002FB0135102D07F10107AAD13E
:104020000025DFF880A004F14B074FF00A08A946ED
:10403000636893F83A22991891F86711A94215D14B
:10404000DAF800300593059BB3FBF8F3FF2293FBEE
:10405000F2F11944C9B2204697F800B0FFF7A9FC65
:1040600059460246304611F000FB12E003EB0513FF
:104070001344397893F89A312BB1C8230193CDF8C2
:104080000090002301E08DE808011A46304611F047
:10409000C4FA0135042D07F10107C9D107B0BDE805
:1040A000F08F00BFB8D2FF1F2DE9F04F85B0054655
:1040B000FFF7A5FC394F05F13B06002405F1100878
:1040C0004FF005096B68234493F8172142B993F820
:1040D00027212AB993F8372112B993F84731BBB198
:1040E0003B68029312230299B1FBF9F103FB04111F
:1040F000FF2391FBF3F31944C9B2284696F800A0B8
:10410000FFF71EFC51460246404611F0AEFA07E0AA
:104110000A223178019200931A46404611F07DFA46
:104120000134102C06F10106CCD1DFF8709005F1B6
:104130004B0700264FF00A0A6B6893F80A313341A7
:1041400013F0010319D0D9F8003003931223039917
:10415000B1FBFAF103FB0611FF2391FBF3F31944C2
:10416000C822C9B2284697F800B0FFF722FC59468A
:104170000246404611F079FA07E03978019310239E
:1041800000941A46404611F048FA0136042E07F111
:104190000107D1D105B0BDE8F08F00BFB8D2FF1F35
:1041A00037B504460D4612F005FDA368C01A8542D6
:1041B00051D212F0FFFCA0602848294903680093FF
:1041C0006368009A5D6EB1FBF5F1E568521B9142A0
:1041D0003FBF02680192019AE260224A1278013AD6
:1041E000162A34D8DFE802F017170C0C33332433C7
:1041F0000C2C0C0C330C0C0C33332C332C173000E0
:10420000194B1B78162B204602D1FFF71DFC1EE030
:10421000FFF75EFC1BE093F840201AB12046FFF741
:10422000A5FC14E093F80E112046FFF709FD0EE0FF
:1042300093F84030002BF1D12046FFF7B3FD06E0A4
:104240002046FFF731FF02E02046FFF785FE04F12C
:10425000100011F017F903B030BD00BFB8D2FF1F36
:10426000808D5B00108DFF1F87CFFF1F12F002BAF9
:1042700010B5BDF80840521AE41AA242A0EB0100A2
:10428000C6BF04FB00000132604390FBF2F018440B
:1042900010BD521AB2F5004F00F58040B5BF02FBC9
:1042A0000002424348F201004FF4004092FBF0F25A
:1042B00050187047006EFEF77FBC006EFCF706BE1C
:1042C00070B500F148040D461646204603F0CAF8C2
:1042D000324629462046BDE8704003F0C3B8FFFFD0
:1042E0002DE9F8430446006D03F01EFA0122112166
:1042F000E06C666D11F082FA0225012290FBF5F068
:104300002421A6F8BA00E06C666D11F077FA01225C
:1043100090FBF5F02521A6F8BC00E06C666D11F06D
:104320006DFA222190FBF5F00122A6F8BE00E06CA8
:10433000666D11F063FA90FBF5F0A6F8C000734EBD
:10434000002140F60107656D05EB4100B0F8BA2089
:10435000B0F8B2E0724516D2B0F8A230C3EB0E0E40
:10436000B645A2EB0303B5BFC3EB8353A3EB832294
:104370009B020EF10103B4BF93FBFEF392FBF3F338
:1043800003F5806313E0B0F8AA30CEEB030CB4451C
:10439000CEEB0203B5BFC3EB8353A3EB83229A0298
:1043A0000CF10103B4BF92FBFCF392FBF3F3A0F812
:1043B0007630B0F976300D4403F58063013103EBBC
:1043C000C313042993FBF7F3A3F1400385F8683086
:1043D000B9D1012248F201000C291ED002FA01F3E2
:1043E00013F42A6F0AD113F4AA6F16D0636D5D1807
:1043F00003EB410393F8BA30183B0CE0636D5D1892
:1044000003EB4103B3F8BA3003F5804303EBC31366
:1044100093FBF0F3403B85F8683001310D29DBD187
:104420000421206D656D03F048FA80F0010085F8E5
:10443000DB000521206D656D03F03FFA80F001007F
:1044400085F8DC000621206D656D03F036FA80F0FA
:10445000010085F8DD000721206D656D03F02DFA60
:1044600080F0010085F8DE000421206D656D03F009
:1044700000FA85F8D2000521206D656D03F0F9F989
:1044800085F8D3000621206D656D03F0F2F985F8FB
:10449000D4000721206D656D03F0EBF9002785F846
:1044A000D5004FF0010804252E1FF6B23146206DCD
:1044B00003F00DFA28B3636D206D2B44314693F859
:1044C000DB9003F004FA81451BD0636D2B4483F825
:1044D000D280D4F85490206D314603F0F8F9A94405
:1044E0000135082D89F8DB00DED12946206D012237
:1044F00003F053F92946206D0022BDE8F84303F08C
:104500004CB9636D2B4483F8D270E2E701FCFFFFE6
:104510002DE9F0419E4D90B02B680193019B2B68D3
:104520000093009B9B4B1B783F3B04461E2B00F2E5
:104530000F82DFE813F01F00480073001F004800DF
:1045400073001F00480073001F00480073000D0235
:104550000D020D020D020D020D020D020D020D02E3
:104560000D020D020D020D020D020D020D020D02D3
:104570009C003B01884D00F1480605F1080815F83C
:10458000017F636D03EB47030020B3F89220B3F87B
:104590008210FFF77EFE394682B2304602F062FF9B
:1045A0002F78636D03EB47030020B3F89220B3F834
:1045B0008210FFF76EFE394682B2304602F052FF9B
:1045C000A845DCD1C4E1744D00F1480605F10808A6
:1045D00015F8017F636D03EB47034FF40050B3F808
:1045E0009220B3F88210FFF754FE394682B230466B
:1045F00002F038FF2F78636D03EB47034FF4005050
:10460000B3F89220B3F88210FFF743FE394682B226
:10461000304602F027FFA845DAD199E15E4D00F15E
:10462000480605F1080815F8017F636D5B4803EB48
:104630004703B3F89220B3F88210FFF72AFE3946F9
:1046400082B2304602F00EFF2F78636D534803EBC1
:104650004703B3F89220B3F88210FFF71AFE3946E9
:1046600082B2304602F0FEFEA845DCD170E1FFF7D1
:1046700037FE2B68626D0293029BD2F840229B1A90
:10468000642B75D900263346616D8A1992F8DB7068
:10469000012F2CD191F8003182F8FC30404908A854
:1046A00011F0BBFE636D04A893F8001111F0D5FE64
:1046B00004A908A811F04CFF3A4911F051FF0A2251
:1046C000804631460CA811F0DBFE0CA9404611F0E3
:1046D0003FFF01463448FBF710FF0CA811F05DFEC8
:1046E00004A811F05AFE08A811F057FE3B46013607
:1046F000042EC9D173BB626D294992F8003113446D
:10470000FF2683F8FC6008A811F087FE636D04A8FB
:1047100093F8001111F0A1FE04A908A811F018FFE8
:10472000204911F01DFF0A22074631460CA811F05E
:10473000A7FE0CA9384611F00BFF01461A48FBF7FB
:10474000DCFE0CA811F029FE04A811F026FE08A832
:1047500011F023FE626D92F80031013303F0030380
:1047600082F800312A68636D0392039AC3F84022ED
:104770000025636D206D93F800319D42E9B20CBFB6
:1047800001220022013503F008F8042DF1D1DFE009
:10479000B8D2FF1F87CFFF1FD38DFF1F00E0FFFFA1
:1047A0003400020046000200248FFF1F2A68436D78
:1047B00004920499D3F84002091A962903D993F870
:1047C0000021012A6BD12A680892089A121AB2F5C0
:1047D000967F40F2BD80604A12680C9200250C9AC8
:1047E00083F80051C3F84022626D92F80131103312
:1047F00003F07F0382F80131264604F14B0796F857
:104800006C30206D2344012293F8701002F0C5FF34
:1048100096F86830206D2344012293F8701002F05E
:10482000BCFF96F868302344013593F878100A11DC
:104830000CBF04F14A00384601F00F0118BF0022F6
:1048400003F0A8F896F86C302344013693F87810FA
:104850000A110EBF04F14A000022384601F00F0190
:1048600003F098F8042DCAD13C4D04F1480605F137
:10487000080715F8011F636D03EB41033046B3F8D9
:10488000822002F0EFFD2978636D03EB410330468F
:10489000B3F8822002F0E6FDAF42EAD158E00122EF
:1048A00083F800212546002604F14B0804F14A074D
:1048B00095F86C30206D2344002293F8701002F0BC
:1048C0006CFF95F86830206D2344002293F8701037
:1048D00002F063FF95F868302344013693F87810AE
:1048E0000B09636D0CBF3846404693F8012101F077
:1048F0000F0103F04FF895F86C302344013593F81D
:1049000078100B09636D0CBF3846404601F00F016B
:1049100093F8012103F03EF8042EC9D10F4D04F1A4
:10492000480605F1080715F8011F636D03EB410305
:104930003046B3F8922002F095FD2978636D03EBC1
:1049400041033046B3F8922002F08CFDAF42EAD129
:1049500010B0BDE8F08100BFB8D2FF1FD38DFF1F9C
:1049600029B1406D014491F9671088B2704708463B
:104970007047093108B511295DD8DFE801F0544FBF
:104980004A45403B36312C5D090D14181C20242863
:10499000436D93F8DB0002E0436D93F8DC000030D8
:1049A00018BF012008BD436D93F8DD00F7E7436DA4
:1049B00093F8DE00F3E7436D93F8DF00EFE7436D14
:1049C00093F8E000EBE7436D93F8E100E7E7436D10
:1049D00093F8E200E3E7642011F0CAFC5A2826E0CD
:1049E000642011F0C5FC502821E0642011F0C0FCC7
:1049F00046281CE0642011F0BBFC3C2817E0642032
:104A000011F0B6FC322812E0642011F0B1FC282825
:104A10000DE0642011F0ACFC1E2808E0642011F0C9
:104A2000A7FC142803E0642011F0A2FC0A2894BF1C
:104A30000020012008BD08BD002008BD436D03EB28
:104A40004202B2F89230B2F88200181A80B24143A2
:104A5000142091FBF0F080B27047436D03EB4101ED
:104A6000B1F88200B1F892301844C0F34F0070479B
:104A700070B511461E460546FFF7EFFF3146044666
:104A80002846FFF7DBFF201A80B270BD416D01EBB5
:104A9000420110B5B1F892401946FFF7CFFF201A36
:104AA00080B210BD2DE9F3479DF8289007460E46C9
:104AB00090469A46B9F1000F0ED0421892F868500D
:104AC0002A46FFF7D5FF2A46044653463146384664
:104AD000FFF7DCFF054603E04FF480454FF4404408
:104AE000FB6D40F6182101FB063191F81539012BB9
:104AF0002BD012D3022B4BD1274B2D1B33F8180090
:104B0000B5F57D7FB5BF05FB0005454340F2F530A7
:104B10004FF47D7095FBF0F037E00026B1F81239C4
:104B200091F8102900964146786D09F071FA0095C8
:104B300023467822B9F1000F01D0314601E06FF031
:104B40007701FFF795FB00B223E0B1F8123991F835
:104B5000102900210091786D414609F059FA97F823
:104B6000B31190FBF1F201FB1202C43242F6E06392
:104B700037F812202D1B10FB03F393FBF1F01044C8
:104B800005FB0000054D90FBF5F0044420B200E069
:104B9000002002B0BDE8F087648DFF1FC1D4010082
:104BA0002DE9F04F89B01E469DF8503004939DF8D2
:104BB000543005939DF85C3003939DF87030069354
:104BC0001D9B0793436D9DF848B09DF84C809DF860
:104BD00058709DF860A003EB81030446A3F8C260FF
:104BE000039B0D4691460BB957B128E0006D02F0CA
:104BF0006EFE0028F8D0BAF1000F40F0CE8017E02A
:104C0000BAF1000F40F0C1806719012297F86830AF
:104C1000206D234493F8701002F0BFFD97F86830C0
:104C2000234493F878100A1101F00F0123D025E0F6
:104C300052462946206D02F0B0FD002FE4D004EB6F
:104C4000050A00229AF86830206D23443FB293F899
:104C5000701002F0A2FD9AF8683023447F2293F886
:104C600078100B0901F00F0140F09180C7EB072786
:104C700097FBF2F2D2B204F14A0002E0002204F102
:104C80004B0002F087FEB8F1000F11D063199DF8B8
:104C900010201A749DF814201A7683F8089083F86F
:104CA0000C8083F814B005F10A03079A44F8232016
:104CB000069B002B5FD104EB050A0FFA86F89AF8E1
:104CC00068300493636D2B444FF0010993F843302F
:104CD000CDF80090424629462046FFF7E3FE04F156
:104CE000480782B20499384602F0BCFB636D9AF81B
:104CF00068A02B44424693F84330CDF800902946F3
:104D00002046FFF7CFFE514682B2384602F0AAFB9A
:104D1000636D2B44F6B293F80F110139C9B20F2914
:104D200012D8A76DB86C036841F090011B689847D2
:104D3000B86C036806F07F011B689847B86C03687D
:104D40000BF07F011B6898474FEA0B60636D00F022
:104D5000FE4040F4104036042B4440F0090006F4B5
:104D6000FE06064393F80F010138000200F470605C
:104D7000304312F09DFE039B9BB1206D012229461A
:104D800009B0BDE8F04F02F008BD032757E7C7EBB5
:104D9000072797FBF2F2D2B271E7002F08BF032773
:104DA0004DE709B0BDE8F08FF7B500220446034691
:104DB00000F12406154601200132042A1D731874DF
:104DC0001D7583F83C0046F8045F03F1010383F886
:104DD0003700F1D16518626D95F86C70154902EBDA
:104DE00047020020B2F88230B2F8922000924FF4CD
:104DF0008042FFF73DFA04F1480682B23946304658
:104E000002F030FB95F86C50626D0A4902EB4502E6
:104E10000020B2F88230B2F8922000924FF4804223
:104E2000FFF726FA294682B2304603B0BDE8F040CB
:104E300002F018BB00C0FFFF10B501449DF8084008
:104E4000087A904208D13CB10B759DF80C300B7478
:104E50009DF810300C730B7610BDFFFF2DE9F04F5D
:104E600085B09A469DF83C30DDF8388006460F46FE
:104E70001546002B40F05D8200EB8109D34B1B6887
:104E8000D9F82830934200EB01042BBF02EB0A0053
:104E9000D01AC01A514628BF514608F081FE237C23
:104EA0005843736C4FEA580B5B454FEA900004D9A6
:104EB0005D453CBF05EB0B037364237B002B00F0C7
:104EC0003882013B0D2B00F2B681DFE813F00E00B3
:104ED00018001C0184009E00220048002101B4003B
:104EE00052018501CC00D900EB00D9F8283003EB42
:104EF00018139D4280F09F814FF48049CEE000233B
:104F000094F91420009339463046FFF7CBFD8146D3
:104F1000C4E0D9F828309D42C0F08D81207C08FB88
:104F200000F003EB9002954200F28581C208D1188F
:104F30008D42A5EB030324BF9B1A23F07F0394F952
:104F400014904FEA902027BFB3FBF0F3C3F1800326
:104F500023F07F02B2FBF0F313FB09F980E0D9F8EC
:104F600028309D42C0F06781207C08FB00F003EBF5
:104F70009002954200F25F814FF00C0EB0FBFEFEF6
:104F80000EEB030C654594F914100CD2C3EB050E1F
:104F90002EF07F0E4FF4C068B0FBF8F8BEFBF8F8B7
:104FA00018FB01F95CE04FEA4E08E644754502D271
:104FB0004FEAC11972E0EA1AC8EB020323F07F023C
:104FC0004FF4C063B0FBF3F3B2FBF3F3C3F1800320
:104FD00013FB01F944E0D9F828209542C0F02B8159
:104FE000237C08FB03F302EB93018D4200F2238143
:104FF000AA1A94F9149022F07F015A0AB1FBF2F236
:10500000C2F1800212FB09F92AE0D9F828108D427A
:10501000C0F01181237C08FB03F301EB930295425E
:1050200000F20981691A21F07F015B0A94F914905A
:10503000B1FBF3F390E794F914204FEA1813B0FB97
:10504000F3F05FFA80F9A9F1800902FB09F9B9F1DF
:10505000000FB8BFC9F10009A9EB82194FEA49094D
:105060000FFA89F91AE04FEA1813B0FBF3F05FFA70
:1050700080F9A9F1800094F9149019FB00F9EFE789
:1050800094F914904FEA1813B0FBF3F0C0B2C9F1D1
:105090000009803810FB09F00FFA80F94FF0000882
:1050A0004346CCE015F01CF9494915F071F98146E9
:1050B0004FEAC80015F014F90146484615F01CFAED
:1050C00014F00CFD13F0E0FA0022002314F0EAFFC4
:1050D00098B194F83800002800F0278194F9141052
:1050E000C1EB4160C001C90111F04DF94FF000085A
:1050F0000FFA80F984F83880D2E74FF0010884F87D
:10510000388081469AE094F914904FEAC919C5E7AE
:1051100015F0E6F82E4915F03BF981464FEAC80034
:1051200015F0DEF80146484615F0E6F914F0D6FC15
:1051300013F0AAFA8046894694F9140014F0BCFCD6
:1051400042464B4614F01EFD0022224B14F01AFD7D
:1051500014F0C8FF94F86C3033440FFA80F993F8D8
:105160007010306D002202F018FB4FF00008012390
:1051700070E015F0B5F8164915F00AF981464FEAC6
:10518000C80015F0ADF80146484615F0B5F914F021
:10519000A5FC13F079FA0022002314F083FF94F9A0
:1051A000149010B14FEAC91905E0C9EB49294FEA3B
:1051B000C9190FFA89F994F86C30306D3344012223
:1051C00093F8701002F0E9FA68E700BF041000E0FD
:1051D000DB0F49400000604015F082F8564915F099
:1051E000D7F881464FEAC80015F07AF801464846DC
:1051F00015F082F914F072FC13F046FA0022002335
:1052000014F050FF94F9149010B14FEAC91905E059
:10521000C9EB49294FEAC9190FFA89F994F86C309A
:10522000306D3344002293F8701002F0B6FA4FF05C
:105230000008282303E04FF00009C8464B4694F8C5
:105240006C10306D03933144012291F8701002F01C
:10525000A4FA039B94F9180009EBC0191FFA89F00E
:105260000FFA80F9B9F5804F02DDC0F5004906E07C
:1052700019F5804F05DAC9F10009A9F500490FFABF
:1052800089F947B9726C954281BF9344BBFBFAF22E
:105290000AFB12B27264B8F1000F4AD1726D02EBD0
:1052A000870706F14805A7F8C49094F86C203244AB
:1052B00092F878100A090CBF06F14A0006F14B007B
:1052C0001A4601F00F0102F065FB94F86C70726DE4
:1052D0001A4902EB4702002384F83C30B2F88230CE
:1052E000B2F89220009248464FF48042FEF7C0FF89
:1052F000394682B2284602F0B5F894F86C40726DD7
:105300000E4902EB44024846B2F88230B2F89220CD
:1053100000924FF48042FEF7ABFF214682B228464E
:1053200005B0BDE8F04F02F09DB881464FF001088E
:1053300084E705B0BDE8F08FDB0F494000C0FFFFF8
:10534000F8B506460D4614461BB10022006D02F06A
:1053500024FA736D2B4493F80F110139C9B20F2948
:1053600011D8B76DB86C036841F080011B6898478D
:10537000B86C036804F07F011B689847B86C036839
:1053800040211B689847736D08481D44240495F814
:105390000F31013B04F4FE041B0203F4706320434D
:1053A0001843BDE8F84012F083BB00BF08800040FE
:1053B0000022006D02F0F1B908B5406D08F086FDDD
:1053C00020B9034B1868C0F3800008BD002008BD59
:1053D00090F00F4037B50446406D0D4608F076FD5D
:1053E00028B104230DB1074A00E0074A136084F88E
:1053F000405025B1054B1B680193019B236003B00E
:1054000030BD00BF84F00F4088F00F40B8D2FF1FBE
:105410002DE9F04704460D461E460A9FB249B3489F
:10542000DDF82090DDF824A09046FBF770F82766A1
:10543000E66400270126C4F85490C4F85880AC49AB
:10544000C4F85CA027736773A773E7732674667448
:10545000A674E67427756775A775E77584F83C60D0
:1054600084F83D6084F83E6084F83F60A762E7629C
:105470002763676384F8386084F8396084F83A6099
:1054800084F83B609948FBF742F8212128462565BE
:1054900002F08EF9334608223946284602F036F8E3
:1054A000334604223146284602F030F833460922BA
:1054B0000221284602F02AF8334605220321284615
:1054C00002F024F8334606221121284602F01EF885
:1054D00002230A220421284602F018F80223072298
:1054E0000521284602F012F802230B220621284645
:1054F00002F00CF802230C220721284602F006F8DD
:1055000033461B220821284602F000F833461222B7
:105510000921284601F0FAFF334613220A212846C2
:1055200001F0F4FF334614220B21284601F0EEFF70
:10553000334615220C21284601F0E8FF3346162297
:105540000D21284601F0E2FF334617220E2128469E
:1055500001F0DCFF334603220F21284601F0D6FF7D
:10556000334618221021284601F0D0FF02230E22D4
:105570001621284601F0CAFF02231A4612212846A6
:1055800001F0C4FF022332461321284601F0BEFF7A
:1055900002231A221421284601F0B8FF02230D220B
:1055A0001521284601F0B2FF02230F2217212846B9
:1055B00001F0ACFF022310221821284601F0A6FFBB
:1055C000022311221921284601F0A0FF02231922EB
:1055D0001A21284601F09AFF02233A461B21284649
:1055E00001F094FF284602F069F842493F48FAF773
:1055F0008EFF022104F1480001F014FF04F14A0972
:105600000A2011F0F5FA1321484602F07DF904F161
:105610004B080A2011F0ECFA4046122102F074F90E
:105620000A2011F0E5FAFEB2012011F0E1FA0122A0
:105630003146484602F0AEF9012011F0D9FA0122B4
:105640003146404602F0A6F9012011F0D1FA0120BE
:1056500011F0CEFA012011F0CBFAFF223146484674
:1056600002F098F9012011F0C3FAFF2231464046BA
:1056700002F090F9012011F0BBFA0137012011F07E
:10568000B7FA042FCFD104F1670604F16B0716F8BF
:10569000013F2344012293F87010284602F07DF860
:1056A00033792344012293F87010284602F075F8EC
:1056B000BE42ECD110490D48FAF729FF01211F2005
:1056C00011F0CEF90121042011F0CAF90B49074865
:1056D000FAF71DFF284602F027F820460021BDE812
:1056E000F047FFF777BE00BF4B000200248FFF1F7B
:1056F0005D00020077000200880002009D000200A9
:1057000010F0B8BF08B54379082B3CD8DFE803F0A8
:105710003C050507050C1E282F00012008BD808AC6
:10572000B0FA80F0400908BDC37943B18279837A29
:1057300012FB03F3427A93FBF2F3C3F38F03828AE3
:10574000B2EB530F34BF0120002008BD15F0E0FD7F
:10575000032390FBF3F303EB4303C01A02280EE08C
:1057600015F0D6FD00F0010080F0010008BD15F035
:10577000CFFD032390FBF3F303EB4303984214BFE5
:105780000020012008BD08BD002008BD08B54379F0
:10579000082B4ED8DFE803F04E4E054E07182A3688
:1057A0003F00002008BDC27942B1837A827912FBA2
:1057B00003F2437A92FBF3F2C2F38F02838A93429D
:1057C00094BF0020012008BDC37943B18279837A58
:1057D00012FB03F3427A93FBF2F3C3F38F03828A43
:1057E000B2EB530F2CBF0120002008BD838A0BBBF6
:1057F00015F08EFD032390FBF3F303EB4303C01A74
:10580000022812E0838AABB915F082FD00F0010096
:1058100080F0010008BD838A63B915F079FD032388
:1058200090FBF3F303EB4303984214BF00200120E5
:1058300008BD08BD012008BD002380F80139024BD6
:105840001B68C0F8083A7047041000E0144BD0F809
:10585000001A70B51D68D0F80C3A0446E81AD4F85E
:10586000042A0023A1FB000114F0B4FF94F80819E6
:1058700094F809290A442421234601FB0242002608
:1058800093420AD0597C012905D19969884236BFD3
:10589000091A9E6199612433F2E7C4F80C5A70BD6D
:1058A000041000E04FF08070704790F8F739B0F8BE
:1058B000F82980F8091913FB01F192FBF1F301FBC0
:1058C0001321A0F8F8197047F8B50E4B05461B6870
:1058D000D0F8080AD5F8042AB5F8F849181A904201
:1058E000D5F8003A28BF02F1FF30C717A3FB00012B
:1058F0005C4303FB0711002314F06CFF2044C5F840
:10590000EC09F8BD041000E038B50023D0F8142AE3
:1059100080F80039044690F817091044012580F8F2
:10592000135192F86601104490F8675194F81709E2
:10593000854208BF82F85F310022A4F8F83991B19E
:10594000012384F8F439124B84F801291B68C4F848
:10595000083A94F8083984F8032984F8F62984F879
:10596000073984F804292046FFF7AEFF234604F5E3
:10597000106100225A749A829A6124338B42F9D1C1
:1059800094F81719D4F8100ABDE83840FFF710BD95
:10599000041000E090F9EB39002BDABFC3F10200EC
:1059A000C0B20120002BCCBFDBB201230006B0FB4C
:1059B000F3F0704708B50246FFF7ECFF92F809399B
:1059C000584308BD70B51C4B04461D6884F8F71990
:1059D000D0F8140A0E4608F072FA10B1012384F8C8
:1059E000033994F8F429D4F8143A62B9D4F8082A9F
:1059F000AA1AC4F8042A93F85C2152B1B4F8F82921
:105A00000132A4F8F82993F85C3113B1002384F82B
:105A1000F4394FF08070B0FBF6F12046C4F8001A5C
:105A2000FFF7C8FFD4F8EC39C4F8085AC01AB0FB25
:105A3000F1F0A4F8F00970BD041000E02DE9F8437E
:105A400006460C46D0F8EC79FFF7B4FF96F8093912
:105A500096F8F75986F8EB19002915FB03F5DABF1C
:105A6000C1F10203DBB20123002905FB03F5024665
:105A7000CCBFCBB2012395FBF3F3A7FB03014FEAA5
:105A8000E37907FB0911002314F0A4FE002CCCBF1E
:105A9000E4B2012495FBF4F2D31714F09BFE3046D8
:105AA000A6F8F829BDE8F843FFF70EBFF8B504469D
:105AB00090F80769FFF708FF0146C4F8EC09204693
:105AC000FFF778FF814206D320460021FFF71CFF35
:105AD0002046FFF7F9FE2046FFF75CFF94F80B29FC
