:1000000000800020BD010000B13701007D370100F4
:100010007D3701007D3701007D3701007D3701000C
:100020007D3701007D3701007D370100B1370100C8
:10003000B13701007D370100852D0100492E0100F7
:10004000B1370100B1370100B1370100B13701000C
:10005000B1370100B1370100B1370100B1370100FC
:10006000B1370100B1370100B1370100B1370100EC
:10007000B1370100B1370100B1370100B1370100DC
:10008000B1370100B1370100B1370100B1370100CC
:10009000B1370100B1370100B1370100B1370100BC
:1000A000B1370100B1370100B1370100B1370100AC
:1000B000B1370100B1370100B1370100B13701009C
:1000C000B1370100B1370100B1370100B13701008C
:1000D000B1370100B1370100B1370100B13701007C
:1000E000B1370100B1370100B1370100B13701006C
:1000F000B1370100254F0100B13701004150010027
:10010000B1370100713F0100B1370100B137010083
:10011000B1370100B1370100B1370100B13701003B
:10012000B1370100B1370100B1370100B13701002B
:10013000B1370100B1370100B1370100B13701001B
:10014000B1370100B1370100B1370100B13701000B
:1001500015300100293001003D300100513001000F
:10016000B1370100D1410100B1370100B1370100C1
:10017000B1370100B1370100B1370100B1370100DB
:10018000B1370100B1370100B1370100B1370100CB
:10019000B1370100B1370100B1370100B1370100BB
:1001A000B1370100B1370100B1370100B1370100AB
:1001B000B1370100B1370100B1370100564B4CF2A5
:1001C000205210B51A804DF628121A8000BF00BFC9
:1001D00013F0F2FA514B4FF010621A60504A9A60D5
:1001E000504ADA60504A136813F4807301BF4F49D4
:1001F0000B604FF4A85313604D4B4E491A7810070B
:1002000042BF1A7842F008021A704B4B2A221A7029
:100210004A4A4B4B8B4204D252F8040F43F8040B6A
:10022000F8E7484B484A0021934202D243F8041BA6
:10023000FAE7464A4648002350F8231042F82310B4
:1002400001336F2BF8D1434B434A802103F8011B44
:100250009342FBD1414B3D4A1A60414B8A221A70AE
:10026000A3F5805324225A70A0221A709A7991071C
:10027000FCD59A79D206FCD43A4A937903F00C0360
:10028000082B384BF9D103221A7146225A719A79F8
:100290009406FCD533498A79324B5006FBD5324A55
:1002A0004FF0827111600921516020221A709A79F1
:1002B00002F00C020C2AFAD12C4B2D4A1A602D4B5D
:1002C0002D4A1A6000225A60072243F8042C2B4A58
:1002D000C3F80C2D62B613F0F7FB144B1B68DA075A
:1002E00005D5274813F0E2FA264B274A1A60274B18
:1002F0001B785B0609D5234C234B22689A4204D114
:100300001F4813F0D3FA0023236017F051FA13F0BB
:1003100059FA13F06FF9FEE70E20054030800440D3
:10032000823F04000100002B10D0034014D0034092
:1003300002D007400092FF1F00E00740EC1A0200C5
:100340002C8CFF1F0092FF1F54CCFF1F0082FF1F49
:100350000000000000E400E05FE400E008ED00E0E1
:1003600000500640004006404480044004800440A1
:10037000C010050014E000E0BFD401000000202000
:10038000E868975A1CE00340A5C3945A00F0074060
:10039000FFFFFFFFFFFFFFFFFFFFFFFFFFFFFFFF6D
:1003A000FFFFFFFFFFFFFFFFFFFFFFFFFFFFFFFF5D
:1003B000FFFFFFFFFFFFFFFFFFFFFFFFFFFFFFFF4D
:1003C000FFFFFFFFFFFFFFFFFFFFFFFFFFFFFFFF3D
:1003D000FFFFFFFFFFFFFFFFFFFFFFFFFFFFFFFF2D
:1003E000FFFFFFFFFFFFFFFFFFFFFFFFFFFFFFFF1D
:1003F000FFFFFFFFFFFFFFFFFFFFFFFFFFFFFFFF0D
:10040000FFFFFFFFFFFFFFFFFFFFFFFFDEF9FFFF23
:1004100010B5054C237833B9044B13B10448AFF33E
:1004200000800123237010BD0092FF1F0000000018
:10043000E81A0200084B10B51BB108490848AFF391
:1004400000800848036803B910BD074B002BFBD0A0
:10045000BDE81040184700BF000000000492FF1FD5
:10046000E81A02000092FF1F000000000020704701
:1004700070470369C268934210B509D282685C1C58
:100480000461D154826803690021D154012010BD58
:10049000002010BD10B544F2040403595A18B2F5F7
:1004A000804F9FBF033121F00301C218C9189ABFC2
:1004B0000151101D002010BD18B111B100680139A3
:1004C000FAE7704738B504460D4634B161682846EE
:1004D00017F01EFB08B12468F7E7204638BD70B559
:1004E000044608460D4617F040FB2368024629469D
:1004F00020465B68BDE87040184738B5054612F0E5
:10050000C2FD0446284612F0DFFD204438BD38B550
:100510000546FFF7E4FF0446284612F0D5FD2044C7
:1005200038BD38B5836814464268054618199042AC
:1005300002D993420AD2D41A28682246184410F0ED
:1005400073FDAB682344AB60204638BD002038BD46
:1005500038B583681446426805461819904202D996
:1005600093420AD2D41A28682246184410F062FE38
:10057000AB682344AB60204638BD002038BD10B5C1
:1005800004460068FFF7ABFF63681844606010BD65
:1005900010B586B00B4606A9002201F8032D0A24E7
:1005A000B3FBF4F204FB1233303301F8013D134680
:1005B000002AF5D1FFF7E3FF06B010BD10B50446E1
:1005C000006803681B68984763681844606010BD42
:1005D00070B505460C4619B91149FFF7D0FF70BD3B
:1005E0002221FFF7EBFF013C14F8011F71B10D4B05
:1005F00013F8026C7EB1023313F8032C8A42F7D150
:100600005C212846FFF7DAFF314604E02221284624
:10061000FFF7D4FF70BD2846FFF7D0FFE4E700BF27
:10062000A8850100AF85010008B5032809D8DFE8D7
:1006300000F010020406084808BD084808BD084834
:1006400008BD0438C0B2FFF7EFFF064916F0AEFC54
:1006500008BD4FF07E5008BDCDCCCC3D0AD7233C21
:100660006F12833A17B7D1382DE9F0410646084694
:100670000C46174616F060FE08B14E4917E00021FF
:10068000204616F031FE28B12D213046FFF796FFA7
:1006900004F1004424F000454749284616F04CFE7A
:1006A00050B94549284616F029FE28B94349304635
:1006B000FFF765FFBDE8F0814149204616F032FEA4
:1006C0000546002872D13F49204616F00DFE70B94C
:1006D00005461FE04FF07E51204616F005FE60B142
:1006E0002046394916F062FC013D2DB20446002136
:1006F000204616F0EFFD0028ECD03349204616F0D6
:1007000011FE38B12046304916F004FD01352DB2F6
:100710000446F2E73846FFF787FF4FF07C5116F0AA
:1007200045FC214616F03AFB804616F041FE044691
:1007300001463046FFF72CFF2FB3204616F0DEFBB4
:100740000146404616F028FB2E2180463046FFF732
:1007500035FF1D49404616F029FC804616F028FE5C
:10076000C4B2204616F0CAFB0146404616F014FB00
:1007700004F130018046C9B23046013FFFF71EFF49
:1007800017F0FF07E5D1002D05DA10493046FFF7D5
:10079000F6FE694205E00BD065213046FFF70EFFFB
:1007A00029463046FFF7F4FEBDE8F08100259EE7BC
:1007B000BDE8F081BC850100FFFF7F7FC38501009C
:1007C00000007A446F12833A00002041C085010086
:1007D0000246084619B10B6811461B681847704756
:1007E00038B5084D2B6813F0010409D1284613F0E1
:1007F00001F828B1044B28461C605C6012F0FFFF32
:10080000014838BD2892FF1F2C92FF1F08B5406891
:10081000FFF758FE20B1037A062B01D1C06808BD4E
:10082000FFF7DEFF08BDFFFF38B5084D2B6813F05A
:10083000010409D1284612F0DDFF28B1044B2846F7
:100840001C605C6012F0DBFF014838BD1C92FF1F8A
:100850002092FF1F03780D2B09D003D8093B012BF1
:1008600023D804E0202B02D02F2B02D07047013078
:10087000F0E743782A2B02D02F2B0DD07047831C32
:100880001A7818460133002AE4D02A2AF8D11A78B7
:100890002F2AF5D10230DDE7831C184613F8012B0F
:1008A000002AD7D00A2AF8D1D4E7704738B50446D1
:1008B00000680D46FFF7CEFF0378AB4205D101304B
:1008C000FFF7C8FF2060012038BD002038BDFFFFC2
:1008D00070B5436882681C78272C0ED0222C0CD06F
:1008E00047F6ED7524E05C2905D1AB1CA978174DBE
:1008F0002E7856B911B302F8011B1D4601336978F1
:10090000E1B18C42EFD1AB1C18E0B14201D1697862
:10091000F0E70235ECE7A4F12B01C9B20E290DD89E
:1009200025FA01F1C90709D502F8014B13F8014F67
:1009300024F0200141391929EDD8F5E7002102F80A
:10094000011B816843608260084670BDB18501006B
:10095000027838B505460C46072A3BD8DFE802F096
:1009600040241F2F2A26041B45685B212046FFF7E1
:1009700025FE6D6855B1281D2146FFF7E9FF2D685A
:1009800025B12C212046FFF719FEF3E75D21204613
:10099000FFF714FE38BD406800F028F838BD416804
:1009A0002046FFF715FE38BD41680FE02D21204697
:1009B000FFF704FE69682046FFF7EAFD38BD41688D
:1009C000084B094A002914BF114619462046FFF773
:1009D000D6FD38BD083A4168D2B22046FFF744FE42
:1009E00038BD00BFD1850100CC85010070B505463A
:1009F0000C4620467B21FFF7E1FD6D68A5B12E4630
:100A0000204656F8041FFFF7E3FD3A212046FFF782
:100A1000D5FD2146301DFFF79BFF2D6825B12C2108
:100A20002046FFF7CBFDE9E77D212046FFF7C6FD15
:100A300070BD10B5014604460820FFF7C9FE18B185
:100A400000230460436010BDFFF7CAFE10BD10B55F
:100A5000014604460820FFF7BBFE18B100230460DE
:100A6000436010BDFFF7E0FE10BDFFFF037810B537
:100A7000052B17D8DFE803F01A08080303054068C0
:100A800010BD4068404210BD44688CB121460A4800
:100A900017F03EF870B120460A220021BDE8104050
:100AA00017F006B9406816F05DFC10BD002010BDBF
:100AB000204610BD012010BDCC850100037810B583
:100AC000052B14D8DFE803F017050503030340687E
:100AD00010BD44688CB121460A4817F019F870B16E
:100AE00020460A220021BDE8104017F079B940687D
:100AF00016F05EFC10BD002010BD204610BD012088
:100B000010BD00BFCC85010070B5044612F0A8FFEF
:100B1000E06412F0A5FF25460023206545F85C3F00
:100B20004FF48A7012F08CFE294606460EF078FBD0
:100B3000266704F1780011F049FC04F1980011F0E7
:100B400045FC204670BD08037047FFFF002238B502
:100B50001146044602F048F80023626D02EB43029E
:100B60005D1CB2F89C206900204602F03DF8042D7F
:100B70002B46F2D10025636D03EB4503691DB3F8E5
:100B8000A42049002046013502F02EF8042DF2D1B0
:100B90000025636D03EB450305F10901B3F8AC20B3
:100BA00049002046013502F01FF8042DF1D100253F
:100BB000636D03EB450305F10D01B3F87C2049009B
:100BC0002046013502F010F8082DF1D10025636DA3
:100BD00003EB450305F11501B3F88C2049002046CD
:100BE000013502F001F8082DF1D102490248FFF762
:100BF0008EFC38BDD7850100288FFF1FF8B5002176
:100C0000044602F003F84FF6FF73984219D13249B7
:100C10003248FFF77CFC30493048FFF778FC2E491A
:100C20002E48FFF774FC2C492C48FFF770FC2A492A
:100C30002A48FFF76CFC28492848FFF768FC012088
:100C4000F8BD00256F1C666D7900204601F0DEFFBF
:100C500006EB4505042FA5F89C003D46F2D1002582
:100C6000691D666D4900204601F0D0FF06EB450680
:100C70000135042DA6F8A400F2D1002505F10901E3
:100C8000666D4900204601F0C1FF06EB45060135BF
:100C9000042DA6F8AC00F1D1002505F10D01666D1B
:100CA0004900204601F0B2FF06EB45060135082D4C
:100CB000A6F87C00F1D1002505F11501666D49000B
:100CC000204601F0A3FF06EB45060135082DA6F8E6
:100CD0008C00F1D10020F8BD01860100288FFF1F94
:100CE00010B588B00023013A059106920B7003AA53
:100CF000064C8DF8103001A90394079301920293DA
:100D0000FFF774FE029808B010BD00BF8C8501008B
:100D100010B5016804460C20FFF75AFD10B10023FE
:100D20000360037163682BB11A680AB11346FBE7CD
:100D3000186010BD606010BD10B50C46FFF7E8FFED
:100D400040B12368002BAEBF04225B420522027132
:100D50008360012010BD10B50C46FFF7D9FF20B10C
:100D60002378836004220271012010BD10B50C4667
:100D7000FFF7CEFF48B194F90030002BAEBF04223C
:100D80005B42052202718360012010BD10B501682D
:100D900004461020FFF71CFD10B10023036003720E
:100DA00063682BB11A680AB11346FBE7186010BDDF
:100DB000606010BD2DE9F7430546074655F8040B62
:100DC000FFF745FE7B2104462846FFF76FFD98B3E9
:100DD0007D212846FFF76AFD88BB0646E84638466F
:100DE000FFF776FD814638B33A212846FFF75EFDCE
:100DF00010B3414638468DF8006000F024F8D8B1B1
:100E000049466068FFF75EFB28B92046FFF7BEFF42
:100E100090B1C0F8049000F1080398E8030083E85B
:100E200003007D212846FFF741FD40B92C212846CB
:100E3000FFF73CFD0028D2D1FFF7F6FC00E020468A
:100E400003B0BDE8F08370B5047B05460E46002C68
:100E500036D0013C04734068FFF7FCFC68600478FE
:100E60005B2C02D07B2C09D013E0284600F02AF836
:100E700003680BB9002420E0062306E02846FFF7AC
:100E800099FF0368002BF5D00723337070600124AD
:100E900013E0272C04D0A4F122035C425C4100E063
:100EA00001242846FFF714FD0028E3D014B10223E3
:100EB000337001E00124347070602B7B01332B739D
:100EC000204670BD2DE9F3410546804655F8040BD8
:100ED000FFF7AFFD5B2104462846FFF7E7FC08B3A8
:100EE0005D212846FFF7E2FCF8B906466F46394611
:100EF00040468DF80060FFF7A6FF98B12046FFF747
:100F000007FF78B1031D97E8030083E803005D2124
:100F10002846FFF7CBFC40B92C212846FFF7C6FC3A
:100F20000028E4D1FFF75CFC00E0204602B0BDE8F9
:100F3000F08170B5054600680E4610B9FFF750FC09
:100F400070BDFFF776FD314604466868FFF7BAFAD0
:100F500020B92846FFF71AFF48B146602368002BE6
:100F600015BF06220022234600230272C3602046DA
:100F700070BDFFFF2DE9F04FADF5804D87B0044601
:100F80008DF806308E4B049304A844F204038DF8C8
:100F900007200022C2500091FFF759FD8949804681
:100FA000FFF7C7FF9DF80730A16D40F6142505FB3C
:100FB000031101F608110646FFF7CDFE9DF8073034
:100FC000A16D05FB031101F616113046FFF7C3FEB4
:100FD0009DF80730A16D05FB031101F60F11304696
:100FE000FFF7B9FE9DF80730A26D304605FB0325DB
:100FF000FFF78EFE20B1B5F810398360042202712C
:101000000DF107013046FFF7A6FE0DF1060130464F
:10101000FFF7A1FE9DF80730A16D40F6142505FBF2
:10102000031101F6E9113046FFF7A0FE9DF80730E5
:10103000A16D05FB031101F617113046FFF796FE6F
:101040009DF80730A16D05FB031101F6181130461C
:10105000FFF78CFE9DF80730A16D05FB031101F62B
:1010600019113046FFF782FE9DF80730A16D05FB90
:10107000031101F61A113046FFF778FE9DF807308C
:10108000A16D05FB031101F61B113046FFF763FE4E
:101090009DF80730A16D05FB031101F61C113046C8
:1010A000FFF759FE9DF80730A16D05FB031101F60E
:1010B0001D113046FFF74FFE9DF80730A16D05FB6F
:1010C000031101F61E113046FFF745FE9DF807306B
:1010D000A16D05FB031101F61F113046FFF73BFE22
:1010E0009DF80730A16D05FB031101F51261304633
:1010F000FFF731FE9DF80730A16D05FB031101F6E6
:1011000021113046FFF727FE9DF80730A16D05FB42
:10111000031101F607113046FFF71DFE9DF8073059
:10112000A16D05FB031101F60A113046FFF713FE0E
:101130009DF80730A16D05FB031101F60B11304638
:10114000FFF709FE9DF80730A16D05FB031101F6BD
:101150000C113046FFF7FFFD9DF80730A16D05FB30
:10116000031101F60D113046FFF7F5FD9DF807302C
:10117000A16D05FB031101F60E113046FFF7EBFDE3
:101180009DF80730A16D05FB031101F613113046E0
:10119000FFF7E1FD0C494046FFF7CBFE0DF1180BC0
:1011A00000224BF80C2D8146DBF800203F2A00F38B
:1011B000F780D9F8000048B9FFF712FB064615E0A2
:1011C000A4850100E2B50100C4890100FFF731FCEC
:1011D00006464846FFF79CFD40B13268002A16BF1C
:1011E00006220022B2460271C0F808A059463046D5
:1011F000FFF7A2FDA16D9DF8072005FB0212DBF8A9
:101200000010242707FB01213046FFF7A4FD9DF8BD
:101210000720A16D05FB0211DBF8002007FB02117E
:1012200001313046FFF797FD9DF80720A16D05FBC2
:101230000211DBF8002007FB021102313046FFF7F4
:101240008AFD9DF80720A16D05FB0211DBF8002047
:1012500007FB021103313046FFF77DFD9DF80720A3
:10126000A16D05FB0211DBF8002007FB0211043120
:101270003046FFF770FD9DF80720A16D05FB0211B8
:10128000DBF8002007FB02110C313046FFF76EFD42
:101290009DF80720A16D05FB0211DBF8002007FB7C
:1012A000021105313046FFF756FD9DF80720A16D6C
:1012B00005FB0211DBF8002007FB02110631304666
:1012C000FFF749FD9DF80720A16D05FB0211DBF832
:1012D000002007FB021107313046FFF73CFD9DF867
:1012E0000720A16D05FB0211DBF8002007FB0211AE
:1012F00008313046FFF72FFD9DF80720A16D05FB53
:101300000211DBF8002007FB021109313046FFF71C
:1013100022FD9DF80720A16D05FB0211DBF80020DE
:1013200007FB02110A313046FFF715FD9DF8072033
:10133000A16D05FB0211DBF8002007FB02110D3146
:101340003046FFF713FD9DF80720A16D05FB021144
:10135000DBF8002007FB02110E313046FFF7FBFCE3
:101360009DF80720A16D05FB0211DBF8002007FBAB
:10137000021110313046FFF7EEFC9DF80720A16DF9
:1013800005FB0211DBF8002007FB02110B31304690
:10139000FFF7E1FCDBF800200132CBF8002003E787
:1013A0004FF4805200994046FFF79AFC0DF5804DAE
:1013B00007B0BDE8F08F00BF2DE9F04788B00446C4
:1013C0008946924601F00BF95FFA80F804EB0805B4
:1013D000AB791BB1204601F085F9F9E70125E570ED
:1013E00012F03EFB2065334816F0A4FB2946064662
:1013F0004FF4805016F0C0F95346074601464A465E
:101400002046FFF7B7FD10F0FFF80028FBD031466B
:1014100004A810F025FA04F15C0304AA0DF1180CDD
:101420009E46154603CD6545186059602A4603F16E
:101430000803F6D128681860AA889A80E36DD3B1B2
:101440004FEA08334FF48052394663667046FFF71F
:101450007FF801224146204601F0BEF8384616F0DA
:10146000F1F9304616F0EEF90023E3700123237002
:1014700008B0BDE8F08710491048FFF748F8104958
:1014800004A811F0E6FE3146684611F0E2FE694616
:1014900004A811F09DFF01460848FFF72EF86846A2
:1014A00011F097FE04A811F094FE03490348FFF7DA
:1014B0002EF8D3E72C86010035860100288FFF1F08
:1014C000448601002DE9F04304468DB0564816F0DD
:1014D00031FB0746204601F00FFB204601F08CF857
:1014E000524904A811F0B5FE3946684611F0B1FE24
:1014F000694604A811F06CFF4D4911F071FF0A22F2
:1015000005464FF4802108A811F0D6FE08A9284608
:1015100011F05EFF01464748FEF7EFFF08A811F003
:1015200058FE684611F055FE04A811F052FE10F066
:1015300061F94FF480210246384610F019FA00256F
:101540003D4908A811F085FE0A22294604A811F099
:10155000B3FE04A908A811F03BFF384911F040FF81
:1015600001463448FEF7C9FF04A811F032FE08A86E
:1015700011F02FFE00265FFA85F840F61429A06DC1
:10158000F2B209FB06004146013603F04FFD042E7E
:10159000F5D12B492748FEF7BAFF0026F1B24246A3
:1015A00020460136FFF708FF042EF7D125492148D0
:1015B000FEF7ADFF23781BB1204601F093F8F9E761
:1015C000214908A811F045FE0A22294604A811F075
:1015D00073FE04A908A811F0FBFE184911F000FFE2
:1015E00001461448FEF789FF04A811F0F2FD08A88F
:1015F00011F0EFFD01354FF4FA7012F04FFA102D93
:101600009ED123781BB1204601F06CF8F9E76420E5
:1016100012F044FA384616F015F90C490548FEF761
:1016200076FF0DB0BDE8F0835F860100678601009C
:101630007C860100288FFF1F84860100B786010089
:10164000D5860100EA860100FE8601002A87010096
:10165000F0B52A4989B005462948FEF758FF2948C0
:1016600016F068FA064610F077F938B9264924488A
:10167000FEF74DFF2846FFF725FF39E00FF0C4FFC6
:101680000028FBD0314604A810F0EAF806AF04AAFF
:1016900005F15C03144603CCBC4218605960224635
:1016A00003F10803F6D120681860A2889A80EB6DD8
:1016B000BBB1164904A811F0CCFD0A22296E684678
:1016C00011F020FE694604A811F082FE01460C4884
:1016D000FEF713FF684611F07CFD04A811F079FDB8
:1016E00003E00B490648FEF712FF0A2012F0D6F974
:1016F000304609B0BDE8F04016F0A4B84D870100AF
:10170000288FFF1F5F860100648701008487010026
:101710009E870100F8B5084F0546164600243B7821
:101720002341DB0704D5325DE1B22846FFF744FED2
:101730000134042CF3D1F8BD8C8DFF1F2DE9F0414D
:10174000ADF5814D574B1E93044644F204031EA889
:101750000022C2500F46FFF77AF953490646FFF7B9
:10176000E8FB11231AA91A930546FFF7E5FA616D04
:1017700028464131FFF7EFFA616D28464231FFF705
:10178000EAFA616D28464331FFF7E5FA616D2846B4
:101790004431FFF7E0FA616D28464531FFF7DBFA87
:1017A000616D28464631FFF7D6FA4049404D06A8FC
:1017B00011F04FFD636D02A893F8411011F069FD1F
:1017C00002A906A811F004FE294611F009FE636D76
:1017D000804693F842100AA811F05BFD0AA9404622
:1017E00011F0F6FD294611F0FBFD636D804693F87C
:1017F00043100EA811F04DFD0EA9404611F0E8FD72
:10180000294611F0EDFD636D804693F8441012A84F
:1018100011F03FFD12A9404611F0DAFD294611F002
:10182000DFFD636D16AA93F84510019280461046BD
:1018300011F02FFD0199404611F0CAFD294611F023
:10184000CFFD636D804693F846101AA811F021FD74
:101850001AA9404611F0BCFD294611F0C1FD014610
:101860001448FEF74AFE1AA811F0B3FC019811F0D3
:10187000B0FC12A811F0ADFC0EA811F0AAFC0AA849
:1018800011F0A7FC02A811F0A4FC06A811F0A1FC1D
:101890004FF4805239463046FFF722FA0DF5814D5C
:1018A000BDE8F081A4850100E2B50100D287010006
:1018B000F88D0100288FFF1F2DE9F041044688B004
:1018C000384816F037F9012107464FF4805015F0DB
:1018D00053FF064601462046FFF730FF0FF094FE07
:1018E0000028FBD0304904A811F0B3FC314668460B
:1018F00011F0AFFC694604A811F06AFD01462B48BF
:10190000FEF7FBFD684611F064FC04A811F061FCD1
:10191000394604A80FF0A4FF04F15C0304AA0DF1FA
:10192000180E9846154603CD7545186059602A462D
:1019300003F10803F6D128681860AA889A80E36D3D
:101940008BB100254046656610F006F965664FF4D8
:10195000805231464046FEF7FBFD304608B0BDE8F8
:10196000F04115F06FBF12491048FEF7D0FD114944
:1019700004A811F06EFC3946684611F06AFC69460D
:1019800004A811F025FD01460848FEF7B6FD68469B
:1019900011F01FFC04A811F01CFC05490348FEF7D8
:1019A000B6FDDAE7EB870100CE890100288FFF1F23
:1019B0003586010044860100F0B5324989B00446FD
:1019C0003148FEF7A4FD314816F0B4F806460FF092
:1019D000C3FF90B92E492C48FEF799FD0FF00AFF7E
:1019E0004FF48031024630460FF0C2FF606D0AF0BE
:1019F000BBF82046FFF760FF38E026492248FEF793
:101A000086FD0FF001FE0028FBD0314604A80FF040
:101A100027FF06AF04AA04F15C03154603CDBD42BF
:101A2000186059602A4603F10803F6D12868186047
:101A3000AA889A80E36DFBB1174904A811F009FC4C
:101A40000A22216E684611F05DFC694604A811F077
:101A5000BFFC01460C48FEF750FD684611F0B9FB8B
:101A600004A811F0B6FB0A2012F018F8304609B0AD
:101A7000BDE8F04015F0E6BE08490348FEF747FD13
:101A8000F4E700BFF4870100288FFF1FEB870100F8
:101A9000168801004A8801006588010081880100DC
:101AA00008B54068FEF708FD18B10430FFF706F8E6
:101AB000C0B208BD2DE9F041ADF5814D754B1E93C7
:101AC0001EAA44F2040320AD4FF0000842F8038040
:101AD000714B45F8182D414518BF0B466B60044605
:101AE0000A232846A9602B73FFF764F907680646A6
:101AF00047B9052011F0D2FF68496948FEF707FD94
:101B00003846C2E06749FEF781FE41464068FEF76D
:101B1000D3FC20B10430FEF7A9FF112806D0606D78
:101B20000AF022F82046FFF7C7FEADE05D49676D79
:101B30003046FEF76BFE0121FFF7B2FF594987F8E7
:101B400041003046676DFEF761FE0221FFF7A8FFF6
:101B5000544987F842003046676DFEF757FE03216F
:101B6000FFF79EFF4F4987F843003046676DFEF749
:101B70004DFE0421FFF794FF4A4987F844003046A0
:101B8000676DFEF743FE0521FFF78AFF454987F899
:101B900045003046676DFEF739FE0621FFF780FFEE
:101BA000414987F8460006A811F053FB636D02A86F
:101BB00093F8411011F06DFB02A906A811F008FC82
:101BC0003A4911F00DFC636D064693F842100AA8DD
:101BD00011F05FFB0AA9304611F0FAFB334911F00E
:101BE000FFFB636D064693F843100EA811F051FBFE
:101BF0000EA9304611F0ECFB2C4911F0F1FB636D9E
:101C0000064693F8441012A811F043FB12A930467F
:101C100011F0DEFB254911F0E3FB636D16AA93F882
:101C2000451001920646104611F033FB01993046EB
:101C300011F0CEFB1D4911F0D3FB636D064693F8FE
:101C40004610284611F025FB2946304611F0C0FB0E
:101C5000164911F0C5FB01461148FEF74EFC284617
:101C600011F0B7FA019811F0B4FA12A811F0B1FA14
:101C70000EA811F0AEFA0AA811F0ABFA02A811F002
:101C8000A8FA06A811F0A5FA01200DF5814DBDE8CE
:101C9000F08100BFA4850100F98D0100B788010023
:101CA000288FFF1FE2B50100E5880100F88D0100D3
:101CB0002DE9F041054688B05D4815F03BFF06462A
:101CC0000FF0A2FC20B95B495B48FEF720FCF7E768
:101CD00030460FF041FEC8B1314604A80FF0C0FDF8
:101CE00005F15C0304AA0DF118081F46144603CC45
:101CF000444518605960224603F10803F6D1206874
:101D00001860A2889A80EB6D2BB970E0304615F010
:101D100099FD012088E04FF4805015F08BFD0023E1
:101D2000014604466B664FF480523846FEF7F9FBD5
:101D300021462846FFF7BEFE002837D1204615F081
:101D400081FD314604A80FF08BFD04AA3B46964660
:101D5000BEE80300C64518605960724603F10803E7
:101D6000F5D1DEF800001860BEF804209A803349EF
:101D70003148FEF7CCFB002321466B664FF48052BE
:101D80003846FEF7CEFB21462846FFF793FE68B99A
:101D900021462948FEF7BBFB29492748FEF7B7FB38
:101DA000686D09F0E1FE2846FFF786FD254904A885
:101DB00011F04FFA2146684611F04BFA694604A823
:101DC00011F006FB01461C48FEF797FB684611F030
:101DD00000FA04A811F0FDF90A2011F05FFE204678
:101DE00015F030FD304615F02DFD00201CE01649A1
:101DF00004A811F02EFA3146684611F02AFA694615
:101E000004A811F0E5FA114911F0EAFA01460A486E
:101E1000FEF773FB684611F0DCF904A811F0D9F95C
:101E2000304615F00FFD022008B0BDE8F08100BF7C
:101E3000EB87010002890100288FFF1F158901002F
:101E40005F890100C9890100DB890100188A01004E
:101E5000F0B589B004460F46274828491D46164666
:101E6000FEF755FB0E9B63670F9BA764A665E566AF
:101E7000636516200FF048FC18B921491E48FEF78B
:101E800046FB00236370A370E370621D04F14501FB
:101E900002F8013F8A42FBD172B62046FFF7D8FB19
:101EA0002046FFF789FD62B62046FFF701FF044692
:101EB000B8B1144904A811F0CCF90A2221466846A9
:101EC00011F0FAF9694604A811F082FA01460A48AD
:101ED000FEF713FB684611F07CF904A811F079F9BC
:101EE00003E009490448FEF712FB08490248FEF7DF
:101EF0000EFB09B0F0BD00BF288FFF1F2B8A010029
:101F0000598A01007F8A0100A38A0100B68A010074
:101F100008B54068FEF7D0FA18B10430FEF7A6FD08
:101F200040B208BD08B54068FEF7C6FA20B1037993
:101F3000062B01D1806808BDFEF752FC08BDFFFFEB
:101F40002DE9F04FADF5804D99B0BF4B1693894602
:101F500044F2040316A918AF4FF0000A41F803A099
:101F6000BA4B47F8181D524518BF134605467B600B
:101F700038460A23BA603B73FEF71CFF40F6142470
:101F8000AB6DB34904FB09F403EB04080646FEF706
:101F90003DFC5146FFF784FD88F80809AB6DAC495C
:101FA000304603EB0408FEF731FC0121FFF778FD12
:101FB00088F81609AB6DA649304603EB0408FEF716
:101FC00025FC0221FFF76CFD88F80F09AB6DA049D5
:101FD000304603EB0408FEF719FC03214068FEF7C6
:101FE0006BFA18B10430FEF769FD80B2AB6DA8F84A
:101FF00010099749304603EB0408FEF707FC04215B
:10200000FFF74EFD88F81509AB6D9149304603EB9B
:102010000408FEF7FBFB0521FFF742FD88F81409D1
:10202000AB6D8B49304603EB0408FEF7EFFB06214E
:10203000FFF76EFF88F8E909AB6D8549304603EB81
:102040000408FEF7E3FB0721FFF762FF88F8170992
:10205000AB6D7F49304603EB0408FEF7D7FB082140
:10206000FFF756FF88F81809AB6D7949304603EB46
:102070000408FEF7CBFB0921FFF74AFF88F819098E
:10208000AB6D7349304603EB0408FEF7BFFB0A2132
:10209000FFF73EFF88F81A09AB6D6D49304603EB38
:1020A0000408FEF7B3FB0B21FFF7FAFC88F81B09C5
:1020B000AB6D6749304603EB0408FEF7A7FB0C2124
:1020C000FFF7EEFC88F81C09AB6D6149304603EB65
:1020D0000408FEF79BFB0D21FFF7E2FC88F81D09C1
:1020E000AB6D5B49304603EB0408FEF78FFB0E2116
:1020F000FFF7D6FC88F81E09AB6D5549304603EB57
:102100000408FEF783FB0F21FFF7CAFC88F81F09BC
:10211000AB6D4F49304603EB0408FEF777FB102107
:10212000FFF7BEFC88F82009AB6D4949304603EB48
:102130000408FEF76BFB1121FFF7B2FC88F82109B8
:10214000AB6D4349304603EB0408FEF75FFB1221F9
:10215000FFF7A6FC88F80709AB6D3D49304603EB55
:102160000408FEF753FB1321FFF79AFC88F80A09CD
:10217000AB6D3749304603EB0408FEF747FB1421EB
:10218000FFF78EFC88F80B09AB6D3149304603EB45
:102190000408FEF73BFB1521FFF782FC88F80C09C9
:1021A000AB6D2B49304603EB0408FEF72FFB1621DD
:1021B000FFF776FC88F80D09AB6D2549304603EB37
:1021C0000408FEF723FB1721FFF76AFC88F80E09C5
:1021D000AB6D1F49304603EB0408FEF717FB1821CF
:1021E000FFF75EFC1B4988F813093046FEF70EFB2B
:1021F000AB6D2344804693F8083913BB4FF0030AB4
:102200001549384611F025F849460EA811F041F855
:102210000EA9384611F0DCF8104911F0E1F801463A
:102220000F48FEF76AF90EA810F0D3FF384610F0F9
:10223000D0FFBAF1010AE3D1AB6D2344102283F839
:10224000082900270EE000BFA4850100F98D0100D8
:10225000E2B50100C4890100F18A0100FA8A010097
:10226000288FFF1F39464046FFF75CFE0121FFF72C
:1022700017FC394601904046FFF754FE0221FFF754
:102280000FFC394602904046FFF74CFE0321FFF752
:1022900007FC394603904046FFF744FE0421FFF750
:1022A000FFFB394604904046FFF73CFE0521FFF74F
:1022B000F7FB394605904046FFF734FE0621FFF74D
:1022C00027FE394606904046FFF72CFE0721FFF710
:1022D000E7FB394607904046FFF724FE0821FFF749
:1022E000DFFB394608904046FFF71CFE0921FFF747
:1022F000D7FB394609904046FFF714FE0A21FFF745
:10230000CFFB39460A904046FFF70CFE0B21FFF742
:10231000C7FB39460B904046FFF704FE0C21FFF740
:10232000BFFB39460D904046FFF7FCFD0D21FFF73E
:10233000EFFD394683464046FFF7F4FD0E21FFF7D7
:10234000AFFB394682464046FFF7ECFD0F21FFF711
:10235000A7FB394681464046FFF7E4FD1021FFF711
:102360009FFB39460C904046FFF7DCFD0021FFF74C
:1023700097FBA96D9DF804300D9A01EB040E242102
:1023800048430EEB00010EF800309DF808304B700A
:102390009DF80C308B709DF81030CB709DF8143088
:1023A0000B719DF81C304B719DF820308B719DF89E
:1023B0002430CB719DF828300B729DF82C304B7275
:1023C00001370C9BCB72402F9DF818308A720B732B
:1023D00081F80DB081F80EA081F810907FF442AF23
:1023E0003068003018BF01200DF5804D19B0BDE8F0
:1023F000F08F00BF2DE9F047044688B055480F46DE
:10240000914615F097FB05460FF0FEF820B95249AA
:102410005248FEF77CF8F7E728460FF09DFAC8B15E
:10242000294604A80FF01CFA04F15C0304AA0DF17C
:10243000180A9846164603CE56451860596032462B
:1024400003F10803F6D130681860B2889A80E36D12
:102450002BB95FE0284615F0F5F9012077E04FF43D
:10246000805015F0E7F94A4606463946204600F006
:10247000B6F8C0B2000360664FF480523146404661
:10248000FEF74FF8324639462046FFF759FD00283F
:1024900038D1304615F0D6F9294604A80FF0E0F9F6
:1024A00004AA43469646BEE80300D6451860596024
:1024B000724603F10803F5D1DEF800001860BEF89B
:1024C00004209A8026492548FEF721F84A463946D5
:1024D000204600F084F8C0B2000360664FF48052DA
:1024E00031464046FEF71DF8324639462046FFF792
:1024F00027FD38B931461948FEF709F81949174838
:10250000FEF705F8304615F09DF9284615F09AF9C2
:1025100000201CE0144904A810F09BFE29466846E0
:1025200010F097FE694604A810F052FF0F4910F012
:1025300057FF01460948FDF7E0FF684610F049FEE5
:1025400004A810F046FE284615F07CF9022008B0D9
:10255000BDE8F0875F86010002890100288FFF1F18
:10256000148B01007F8B0100DB890100188A0100B8
:102570002DE9F84306460D469046002440F61429FE
:1025800048FA04F3DB070ED5E7B22A46394630464F
:10259000FFF730FF012806D1B06D3A46294609FB06
:1025A000040002F043FD0134042CE9D1014B1D70FD
:1025B000BDE8F883FDC5FF1F13B9044B1B780BB9A9
:1025C000FFF7D6BF024B1970704700BFF2C5FF1F5F
:1025D000F5C5FF1F10F094BF01448A71704701EBED
:1025E0008200704708B5034815F0A4FABDE808401A
:1025F0000FF0B2B95F860100F0B5334989B00446E7
:102600003248FDF784FF324815F094FA06460FF081
:10261000A3F9F0B92F4904A810F01BFE3146684613
:1026200010F017FE694604A810F0D2FE01462748B4
:10263000FDF763FF684610F0CCFD04A810F0C9FD5B
:102640000FF0D8F84FF48021024630460FF090F991
:102650001CE021491D48FDF75AFF314604A80FF040
:10266000FFF804F15C0204AB0DF1180E17461D468D
:1026700003CD7545106051602B4602F10802F6D17A
:1026800028681060AB889380E36DBBB9304615F0C5
:10269000D9F80EF0B9FF38B910490C48FDF737FFEB
:1026A000642011F0FBF9F4E7002384F846306370EE
:1026B0000B490648FDF72BFF09B0F0BD0023636608
:1026C00038460FF033FAE1E7EF8B0100288FFF1F48
:1026D0002C860100108C0100268C0100458C010025
:1026E000598C01002DE9F04FC5788FB004460DB12B
:1026F0000320DBE1471D3A4612F8013F4BB111F0D0
:10270000AFF9E36CC01A4CF25033984240F2CE81DC
:1027100004E06B1C402BF2D01D46EDE7B54815F0E8
:1027200009FA8246B44815F005FA80460EF06CFFAF
:10273000002800F0DD8001214FF4805015F01CF8D6
:102740006219EEB29379013B06F003098346032B2D
:1027500000F2CB80DFE803F002389AC741460AA8AE
:1027600001920FF07DF804F15C03019A0AAD0DF1BE
:10277000300C9946AE46BEE80300E6451860596045
:10278000754603F10803F5D1DEF800001860BEF8C5
:1027900004109980E36D002B40F0DD80974906A876
:1027A00010F057FD94F8461002A810F072FD02A92F
:1027B00006A810F00DFE924910F012FE41460546A3
:1027C0000AA810F046FD5FE151460AA80FF048F84C
:1027D0000AAB04F15C020DF1300C9E46BEE803002A
:1027E000E64510605160734602F10802F5D1DEF84B
:1027F00000001060BEF804309380E36D002B40F0C1
:10280000BA807E4906A810F024FD94F8461002A86C
:1028100010F03FFD02A906A810F0DAFD794910F08A
:10282000DFFD494601900AA810F033FD019B0AA97B
:10283000184610F0CDFD01467348FDF75EFE0AA86C
:1028400010F0C7FC02A810F0C4FC06A810F0C1FCF0
:1028500041460AA80FF004F80AAA04F15C030DF13E
:10286000300C9646BEE80300E64518605960724693
:1028700003F10803F5D1DEF800001860BEF804206B
:102880009A80E36D002B40F09380C1E051460AA886
:102890000EF0E6FF04F15C030AAA0DF1300C01937F
:1028A0009646BEE80300E64518605960724603F19B
:1028B0000803F5D1DEF800001860BEF804209A8005
:1028C000E36D002B00F0CB8031462046FEF73BF94C
:1028D000606601980FF040F911F0C2F82544042316
:1028E000E064AB7101E000239371584614F0AAFF35
:1028F000404614F0A7FF504614F0A4FF002504F151
:10290000450317F8012F0AB10135EDB29F42F8D106
:102910002378002B00F0CA80002D40F0C7803B498F
:102920000AA810F096FC11F09BF8216D0A22411ABA
:1029300006A810F0E7FC06A90AA810F049FD014618
:102940003148FDF7DAFD06A810F043FC0AA810F0A4
:1029500040FC2570AAE0314620460192FEF7F3F8CC
:10296000606648460FF0F8F8019A0223937111F05F
:1029700077F8E064B9E731462046FEF7E4F8236EC5
:10298000606600F580529A420FD99842BFF460AF5A
:102990001B1A1A460193E36D594618440EF044FB86
:1029A000626E019B1344636652E74FF48053F0E775
:1029B00031462046FEF7C7F8266E606600F5805364
:1029C000B34214D9B04209D2361AE36D32461844E4
:1029D00059460EF02FFC636E1E44666611F040F8F7
:1029E000E06425440323AB71002363707DE74FF45B
:1029F0008056EAE72C8601005F8601009A8C010070
:102A0000BD8C0100EB8C0100288FFF1F818C010021
:102A1000284906A810F01DFC94F8461002A810F0F2
:102A200038FC02A906A810F0D3FC234910F0D8FC0A
:102A3000494606460AA810F02CFC0AA9304610F0B8
:102A4000C7FC01461D48FDF758FD0AA810F0C1FB60
:102A500002A810F0BEFB06A810F0BBFBC1E71549A9
:102A600006A810F0F6FB94F8461002A810F011FC2E
:102A700002A906A810F0ACFC114910F0B1FC4946BF
:102A800005460AA810F005FC0AA9284610F0A0FC8B
:102A900001460A48FDF731FD0AA810F09AFB02A88A
:102AA00010F097FB06A810F094FB1EE70FB0BDE8EE
:102AB000F08F00BF9A8C01001D8D0100288FFF1F31
:102AC000508D010010F01CBD08B5FDF708FD08BDD4
:102AD00000230A2210F008BB70B50568044628469A
:102AE0000E4610F051FD864203D03146284610F0C4
:102AF0005FFD204670BDFFFF2DE9F04186B004A8C0
:102B00000EF0AEFC2E4D04A80EF0D8FD2B680093FD
:102B1000009F044600284CD02A492B48FFF7D4FFD9
:102B200021462948FFF7D4FF28492748FDF7EFFC45
:102B300027492548FDF7EBFC26492348FDF7E7FC2C
:102B40000EF0D4FC2B680193019E00240EF05CFD76
:102B5000A0B92B680293029B9B1BB3F57A7FF5D932
:102B600001341D491848E4B2FFF7AEFF3B2C06F5CF
:102B70007A76EBD9144810F0A7FAE6E714B11248B8
:102B800010F0A2FA15491048FDF7C1FC2B68039319
:102B9000039B13490C48DC1BFFF796FF4FF47A7137
:102BA0000948B4FBF1F1FFF793FF0E490648FDF722
:102BB000AEFC4FF47A7010F071FF06B0BDE8F08102
:102BC00028C9FF1F838D0100288FFF1F958D0100ED
:102BD0009D8D0100B78D0100DD070200CD8D010044
:102BE000DD8D0100ED8D010073B502AC164644F891
:102BF000041D0D462046D1B2FFF76EFF0135310AA4
:102C000020460195FFF768FF02B070BD38B5084651
:102C10000D4610F0B9FC0446681C10F0B5FC04EB3E
:102C2000002080B238BD10F06BBCFFFF37B5044602
:102C300010F016FF324BA0601B680193019BE3600C
:102C40000522D223172104F110000CF062FC172298
:102C5000002104F1240010F06FFD012384F82430DA
:102C6000022384F82530032384F82630042384F8D3
:102C70002730062384F82830072384F829300823D6
:102C800084F82A30092384F82B300B2384F82C3065
:102C90000C2384F82D300D2384F82E300E2384F875
:102CA0002F30102384F83030112384F83130122370
:102CB00084F83230132384F83330052384F8353018
:102CC0000A2384F836300F2384F837300D4B03F194
:102CD000100204F13B01104653F8045B41F8045B19
:102CE0009342F9D10368C4F84B30074B1A889B789C
:102CF000A4F84F20204684F8513003B030BD00BF07
:102D000028C9FF1F099101001D91010070B50446FB
:102D10000E460E481621154611F0BAFF0C4810F069
:102D2000D3F9103444F8106C44F80C5C01210520F0
:102D300010F0ECFD2046C8210CF062FC20460CF09F
:102D4000DEFA2046BDE870400CF02EBB2091010059
:102D5000288FFF1F2DE9F743DFF86890074600F141
:102D60004B05002440F6142800F1100699F80030B5
:102D7000A3423B6808FB04330DD193F8223929782C
:102D80001BB12023019300230BE040227F208DE81C
:102D900005001A460BE093F82229297822B1002376
:102DA000019300937F2202E0019200927F2330463C
:102DB00001340CF0C4FB042C05F10105D6D103B09D
:102DC000BDE8F083E8C5FF1FC943C9B2542908D83C
:102DD00001EB41020023A1EB8101481ED2B219464A
:102DE00017E0A9290BD85539C9B2A1EB8102013AE4
:102DF00001EB41010023D2B2C9B218460AE05631B4
:102E0000C8B2A0EB80010139002300EB40001A4654
:102E1000C9B2C0B20CF0EDBB38B50A4B1D7800F159
:102E200010042DB14021FFF7CFFF0021024604E03E
:102E3000FF21FFF7C9FF294602462046BDE838407A
:102E40000CF0A5BBF2C5FF1F2DE9F743DFF87C802E
:102E5000044600F13B06002540F6142900F1100756
:102E6000226898F80030317809FB03233846B3F81C
:102E700010392B4113F001030DBF01220022FF2363
:102E8000019212BF8DE80C000093FF2201350CF077
:102E900056FB0C2D06F10106E2D104F1460504F1C2
:102EA0004A08002615F8011F0196002300961A46CD
:102EB00038460CF044FBA845F4D12046FFF7ACFFA0
:102EC000204603B0BDE8F043FFF744BFE8C5FF1F4D
:102ED0002DE9F7430025044600F13B0600F11007F9
:102EE000A846E8B2D4F8049008F00AFE19F80030B9
:102EF000317833B1FF2301930023CDF800801A46C7
:102F000002E0019300934022384601350CF017FB94
:102F1000102D06F10106E4D12046FFF77DFF204683
:102F200003B0BDE8F043FFF715BFFFFF2DE9F347FE
:102F3000DFF89080044600F13B05002640F6142996
:102F400000F11007236898F8000009FB003001F039
:102F50001FFF06EB0010C1B2236898F8000009FBC0
:102F6000003090F806398B4202D12978FF2306E021
:102F7000242303FB01035B7943B9297801230193DF
:102F800000931A4638460CF0DAFA0DE0002295F864
:102F900000A002F01CF901462046FFF715FF51463C
:102FA000024638460CF0F3FA0136102E05F1010501
:102FB000C8D12046FFF730FF204602B0BDE8F047F9
:102FC000FFF7C8BEE8C5FF1F2DE9F04F04465D4876
:102FD0005D4903680D685D4AB2FBF5F289B0E568AA
:102FE0000593059B5B1B9A423FBF03680693069BB4
:102FF000E3608346884604F13B0600275FFA87F9C1
:10300000484608F07DFD2546514B93F800A055F841
:10301000103B40F6142202FB0A3A9AF80639834222
:1030200004D1FF23317801937F230CE048460392BB
:1030300008F066FD242303FB00A0039A437943B9FB
:1030400001233178019300931A4628460CF077FA51
:1030500019E0337803933E4B216893F800A048466B
:1030600002FB0A1A08F04CFD00220146504602F00D
:10307000AEF801462046FFF7A7FE039B024619461D
:1030800028460CF084FA484608F03AFD314B1B788C
:1030900083420CD1DBF8003007932F49079BD8F807
:1030A0000020B1FBF2F2E1685B1A9A423FD8013787
:1030B000102F06F10106A1D1284B1B78032B2DD828
:1030C000DFE803F002040F1AFF2100E0BF212046D1
:1030D000FFF77AFE1521024628460CF058FA7F21A8
:1030E00014E07F212046FFF76FFE15210246284697
:1030F0000CF04DFABF2109E07F212046FFF764FE66
:103100001521024628460CF042FAFF212046FFF71F
:103110005BFE1621024628460CF039FA2046FFF7DE
:103120007BFE2046FFF716FE09B0BDE8F08F0023B6
:1031300031780193FF2300931A4628460CF0FFF9DB
:10314000B5E700BF28C9FF1F888DFF1F808D5B007A
:10315000E8C5FF1FFCC5FF1FC0C62D00F0C5FF1F3F
:103160002DE9F04F044687B0FFF7F4FD2046FFF746
:1031700053FE644F04F13B054FF0000A5FFA8AF6F4
:10318000304608F0BDFC236897F8009040F61428FC
:1031900008FB093999F80639834230463FD108F0D7
:1031A000AFFC4FF0240B0BFB009004F110094279A7
:1031B000012A06D18023FF2029788DE80900002309
:1031C0002BE020683A7808FB02023046039208F0B0
:1031D00097FC039A0BFB00204279022A06D1802338
:1031E0002978019300230093FF2211E020683A78A8
:1031F00008FB0208304608F083FC0BFB00802978AE
:103200004379032B06D1802300228DE80C00FF2395
:1032100048466AE0FF23019300931A46F8E708F056
:103220006FFC394B1B78834216D1384B2E781B68C4
:103230000593059B0521B3FBF1F1FF2391FBF3F30C
:103240001944C9B22046FFF7BFFD3146024604F1DA
:1032500010000CF09CF94AE03B78206808FB030B57
:10326000304608F04DFC4FF0240909FB00B04379CB
:103270001BB929780193009310E03B78206808FB84
:10328000030B304608F03CFC09FB00B04379012BEE
:1032900006D1FF22002329788DE80C001A4622E08F
:1032A0003B78206808FB030B304608F029FC09FB3B
:1032B00000B04379022B05D10023297801930093B4
:1032C000FF2210E03B78206808FB0308304608F036
:1032D00017FC09FB00804379032B08D100222978D1
:1032E00001920092FF2304F110000CF028F90AF17A
:1032F000010ABAF1100F05F101057FF43FAF07B0E5
:10330000BDE8F08FE8C5FF1FFCC5FF1F28C9FF1FE0
:103310002DE9F04F044685B00D4610F0A1FBA368DF
:10332000C01A854279D210F09BFB3D4BA0601B7800
:10333000013B04F11005122B6CD8DFE803F01515E2
:103340000A0A6B6B216B0A2A6B6B0A0A6B6B2A6B7E
:103350002A00344B1B78172B204602D1FFF774FD4F
:1033600058E0FFF7E3FD55E0636893F840301BB188
:103370002046FFF7ADFD4DE02046FFF725FE49E072
:10338000636893F84030002BF2D12046FFF7E8FE47
:1033900040E0DFF898B004F13A0700264FF0050A44
:1033A0004FF0FF09DBF800300393039BB3FBFAF304
:1033B000334493FBF9F11944C9B2204617F8018F41
:1033C000FFF702FD12360246414628460CF0DFF8B0
:1033D000B6F5907FE6D1144F4B3400264FF04008ED
:1033E0004FF0C8093B782178334113F0010313BF34
:1033F000002301934023CDF8049014BF0093CDF82F
:1034000000801A46284601360CF099F8042E04F183
:103410000104E7D128460BF0C7FF05B0BDE8F08FE7
:103420008D8DFF1FF1C5FF1F8C8DFF1F28C9FF1F4A
:1034300010F066B8521AB2F5004F00F58040B5BFE3
:1034400002FB0002424348F201004FF4004092FBAD
:10345000F0F250187047521AB2F5004F00F5804054
:10346000B5BF02FB0002424348F201004FF40040A6
:1034700092FBF0F2501870472DE9F84304460D46D0
:1034800017461E46AC49AD48DDF82080FDF73FF8F1
:10349000A764E66300270126C4F84480A849277280
:1034A0006772A772E77226736673A673E673277452
:1034B0006774A774E77484F82C6084F82D6084F82E
:1034C0002E6084F82F60A761E7612762676284F845
:1034D000286084F8296084F82A6084F82B60974873
:1034E000FDF715F821212846256403F0EFF933464E
:1034F00008223946284603F091F833460422314623
:10350000284603F08BF8334609220221284603F0AF
:1035100085F8334605220321284603F07FF8334619
:1035200006221121284603F079F802230A220421F9
:10353000284603F073F8022307220521284603F0EA
:103540006DF802230B220621284603F067F80223B8
:103550000C220721284603F061F833461B2208217C
:10356000284603F05BF8334612220921284603F06F
:1035700055F8334613220A21284603F04FF8334604
:1035800014220B21284603F049F8334615220C215A
:10359000284603F043F8334616220D21284603F04F
:1035A0003DF8334617220E21284603F037F83346FC
:1035B00003220F21284603F031F833461822102148
:1035C000284603F02BF802230E221621284603F08A
:1035D00025F802231A461221284603F01FF8022379
:1035E00032461321284603F019F802231A22142127
:1035F000284603F013F802230D221521284603F074
:103600000DF802230F221721284603F007F80223A2
:1036100010221821284603F001F802231122192153
:10362000284602F0FBFF022319221A21284602F045
:10363000F5FF02233A461B21284602F0EFFF2846F9
:1036400003F0C4F83F493D48FCF761FF022104F153
:10365000380002F06FFF04F13A090A2010F01EFA58
:103660001321484603F0CEF904F13B080A2010F07C
:1036700015FA4046122103F0C5F90A2010F00EFA9F
:10368000FEB2012010F00AFA01223146484603F04A
:10369000FFF9012010F002FA01223146404603F002
:1036A000F7F9012010F0FAF9012010F0F7F90120E4
:1036B00010F0F4F9FF223146484603F0E9F9012001
:1036C00010F0ECF9FF223146404603F0E1F9012009
:1036D00010F0E4F90137012010F0E0F9042FCFD108
:1036E00004F14F0604F1530716F8013F2344012269
:1036F00093F85810284603F0DDF83379234401226B
:1037000093F85810284603F0D5F8BE42ECD10E4984
:103710000A48FCF7FCFE01211F2010F0F7F80121F8
:10372000042010F0F3F809490448FCF7F0FE28469D
:10373000BDE8F84303F080B837910100288FFF1FE0
:103740004991010063910100749101008991010088
:1037500070B500F138040D461646204602F00AFF07
:10376000324629462046BDE8704002F003BFFFFF05
:103770002DE9F8430446006C03F05EF801221121A4
:10378000E06B666C0EF058FA0225012290FBF5F012
:103790002421A6F8B400E06B666C0EF04DFA01220D
:1037A00090FBF5F02521A6F8B600E06B666C0EF0F4
:1037B00043FA222190FBF5F00122A6F8B800E06B55
:1037C000666C0EF039FA90FBF5F0A6F8BA00734E6D
:1037D000002140F60107656C05EB4100B0F8B4200C
:1037E000B0F8ACE0724516D2B0F89C30C3EB0E0EC8
:1037F000B645A2EB0303B5BFC3EB8353A3EB832210
:103800009B020EF10103B4BF93FBFEF392FBF3F3B3
:1038100003F5806313E0B0F8A430CEEB030CB4459D
:10382000CEEB0203B5BFC3EB8353A3EB83229A0213
:103830000CF10103B4BF92FBFCF392FBF3F3A0F88D
:103840007030B0F970300D4403F58063013103EB43
:10385000C313042993FBF7F3A3F1400385F8623007
:10386000B9D1012248F201000C291ED002FA01F35D
:1038700013F42A6F0AD113F4AA6F16D0636C5D1883
:1038800003EB410393F8B430183B0CE0636C5D1814
:1038900003EB4103B3F8B43003F5804303EBC313E8
:1038A00093FBF0F3403B85F8623001310D29DBD109
:1038B0000421206C656C03F07EF880F0010085F82F
:1038C000D5000521206C656C03F075F880F00100CF
:1038D00085F8D6000621206C656C03F06CF880F04A
:1038E000010085F8D7000721206C656C03F063F8B0
:1038F00080F0010085F8D8000421206C656C03F08D
:1039000046F885F8CC000521206C656C03F03FF883
:1039100085F8CD000621206C656C03F038F885F839
:10392000CE000721206C656C03F031F8002785F884
:10393000CF004FF0010804252E1FF6B23146206C4F
:1039400003F043F828B3636C206C2B44314693F8A2
:10395000D59003F03AF881451BD0636C2B4483F873
:10396000CC80D4F84490206C314603F02EF8A94462
:103970000135082D89F8D500DED12946206C0122B9
:1039800002F098FF2946206C0022BDE8F84302F0BF
:1039900091BF636C2B4483F8CC70E2E701FCFFFF1E
:1039A0002DE9F0419E4D90B02B680193019B2B684F
:1039B0000093009B9B4B1B78363B04461E2B00F26A
:1039C0000F82DFE813F01F00480073001F0048005B
:1039D00073001F00480073001F00480073000D02B1
:1039E0000D020D020D020D020D020D020D020D025F
:1039F0000D020D020D020D020D020D020D020D024F
:103A00009C003B01884D00F1380605F1080815F8C7
:103A1000017F636C03EB47030020B3F88C20B3F8FD
:103A20007C10FFF718FD394682B2304602F0A2FD45
:103A30002F78636C03EB47030020B3F88C20B3F8B6
:103A40007C10FFF708FD394682B2304602F092FD45
:103A5000A845DCD1C4E1744D00F1380605F1080831
:103A600015F8017F636C03EB47034FF40050B3F884
:103A70008C20B3F87C10FFF7EEFC394682B230465A
:103A800002F078FD2F78636C03EB47034FF400508E
:103A9000B3F88C20B3F87C10FFF7DDFC394682B216
:103AA000304602F067FDA845DAD199E15E4D00F19C
:103AB000380605F1080815F8017F636C5B4803EBD5
:103AC0004703B3F88C20B3F87C10FFF7C4FC3946E9
:103AD00082B2304602F04EFD2F78636C534803EB00
:103AE0004703B3F88C20B3F87C10FFF7B4FC3946D9
:103AF00082B2304602F03EFDA845DCD170E1FFF70E
:103B000037FE2B68626C0293029BD2F808219B1A45
:103B1000642B75D900263346616C8A1992F8D570EA
:103B2000012F2CD191F8FC3082F8F830404908A8D8
:103B30000FF08FFB636C04A893F8FC100FF0A9FB47
:103B400004A908A80FF044FC3A490FF049FC0A22E6
:103B5000804631460CA80FF0AFFB0CA940460FF091
:103B600037FC01463448FCF7C8FC0CA80FF031FBC9
:103B700004A80FF02EFB08A80FF02BFB3B460136E4
:103B8000042EC9D173BB626C294992F8FC301344EE
:103B9000FF2683F8F86008A80FF05BFB636C04A8AD
:103BA00093F8FC100FF075FB04A908A80FF010FCA7
:103BB00020490FF015FC0A22074631460CA80FF0E9
:103BC0007BFB0CA938460FF003FC01461A48FCF7B2
:103BD00094FC0CA80FF0FDFA04A80FF0FAFA08A85C
:103BE0000FF0F7FA626C92F8FC30013303F0030334
:103BF00082F8FC302A68636C0392039AC3F80821A8
:103C00000025636C206C93F8FC309D42E9B20CBF38
:103C100001220022013502F04DFE042DF1D1DFE03A
:103C200028C9FF1FF1C5FF1F0B8DFF1F00E0FFFF1D
:103C3000CE910100E0910100288FFF1F2A68436C9C
:103C400004920499D3F80801091A962903D993F824
:103C5000FC20012A6BD12A680892089A121AB2F540
:103C6000967F40F2BD80604A12680C9200250C9A43
:103C700083F8FC50C3F80821626C92F8FD301033D1
:103C800003F07F0382F8FD30264604F13B0796F8E7
:103C90005430206C2344012293F8581002F00AFE9D
:103CA00096F85030206C2344012293F8581002F00B
:103CB00001FE96F850302344013593F860100A1144
:103CC0000CBF04F13A00384601F00F0118BF002282
:103CD00002F0DEFE96F854302344013693F860106B
:103CE0000A110EBF04F13A000022384601F00F011C
:103CF00002F0CEFE042DCAD13C4D04F1380605F188
:103D0000080715F8011F636C03EB41033046B3F855
:103D10007C2002F02FFC2978636C03EB41033046D2
:103D2000B3F87C2002F026FCAF42EAD158E0012231
:103D300083F8FC202546002604F13B0804F13A07ED
:103D400095F85430206C2344002293F8581002F068
:103D5000B1FD95F85030206C2344002293F85810A0
:103D600002F0A8FD95F850302344013693F8601016
:103D70000B09636C0CBF3846404693F8FD2001F0F8
:103D80000F0102F085FE95F854302344013593F875
:103D900060100B09636C0CBF3846404601F00F0100
:103DA00093F8FD2002F074FE042EC9D10F4D04F1EA
:103DB000380605F1080715F8011F636C03EB410392
:103DC0003046B3F88C2002F0D5FB2978636C03EB06
:103DD00041033046B3F88C2002F0CCFBAF42EAD16D
:103DE00010B0BDE8F08100BF28C9FF1F0B8DFF1F79
:103DF00029B1406C014491F9611088B270470846BE
:103E00007047093108B5092936D8DFE801F0302BB1
:103E100026211C17120A053664200FF0C5F95A280E
:103E200003E064200FF0C0F9502894BF0020012067
:103E300008BD64200FF0B8F94628F6E764200FF0BB
:103E4000B3F93C28F1E764200FF0AEF93228ECE733
:103E500064200FF0A9F92828E7E764200FF0A4F9FF
:103E60001E28E2E764200FF09FF91428DDE76420A4
:103E70000FF09AF90A28D8E708BD002008BD436C66
:103E800003EB4202B2F88C30B2F87C00181A80B210
:103E90004143142091FBF0F080B27047436C03EB78
:103EA0004101B1F87C00B1F88C301844C0F34F00E8
:103EB000704770B501441E4691F8502011460546E2
:103EC000FFF7ECFF314604462846FFF7D8FF201ADB
:103ED00080B270BD10B5014491F85020416C01EBE7
:103EE0004201B1F88C401946FFF7C9FF201A80B291
:103EF00010BDFFFF2DE9F7431C46012C1646054671
:103F00000F46BDF828309DF82C2047D022D3022C34
:103F10007BD1431893F85080436C0B44424693F88E
:103F200043904B46FFF7C5FF4B4604464246394691
:103F30002846FFF7CFFF374B001B33F81630B0F59C
:103F40007D7FB5BF00FB0330584340F2F5334FF49B
:103F50007D7355E000210091406CF1B207F0A5FEA1
:103F6000EB19064693F850806B6C3B44424693F83D
:103F7000439039464B462846FFF79BFF4B46044685
:103F8000424639462846FFF7A5FF001B7728D9BFD0
:103F900000FB066079237043782331E00021009113
:103FA000406CF1B207F081FE95F89B2190FBF2F393
:103FB00002FB1303B833394635F8136042F6E06369
:103FC0005843EB1990FBF2F093F850806B6C3B4434
:103FD000064493F8439042464B462846FFF769FF54
:103FE0004B460446424639462846FFF773FF001BFE
:103FF00000FB0666084896FBF0F0204480B205E01E
:1040000090FBF3F00444A0B200E0002003B0BDE850
:10401000F08300BF148DFF1FC1D401002DE9F04FC4
:104020008BB098469DF8543006939DF8583007930E
:104030009DF860300393BDF86C3004939DF87030A8
:1040400005939DF8743008931E9B0993436C9DF86B
:1040500050A09DF85C709DF864B09DF8689003EBEB
:1040600081030446A3F8BC20039B0D4616460BB9FA
:1040700057B128E0006C02F0A8FC0028F8D0BBF192
:10408000000F40F0A78017E0BBF1000F40F09A80CE
:104090006719012297F85030206C234493F8581088
:1040A00002F008FC97F85030234493F860100A118E
:1040B00001F00F0122D024E05A462946206C02F07C
:1040C000F9FB002FE4D004EB050B00229BF85030E5
:1040D000206C23443FB293F8581002F0EBFB9BF89E
:1040E000503023447F2293F860100B0901F00F0138
:1040F0006AD1C7EB072797FBF2F2D2B204F13A007C
:1041000002E0002204F13B0002F0C2FCBAF1000F11
:104110000ED063199DF818201A739DF81C201A758B
:1041200083F808A083F81080AB1D099A44F8232077
:10413000089B002B3CD104EB050A059B9AF850B074
:104140000193049B009332464B4629462046FFF7D5
:10415000D1FE04F1380702465946384602F00AFA01
:10416000059B9AF850A00193049B009332464B465E
:1041700029462046FFF7BEFE51460246384602F069
:10418000F9F9691EC9B20F2912D8A76CB86C036877
:1041900041F090011B689847B86C036806F07F01F6
:1041A0001B689847B86C036808F07F011B68984744
:1041B000039B9BB1206C012229460BB0BDE8F04F58
:1041C00002F078BB03277EE7C7EB072797FBF2F2E5
:1041D000D2B297E7002F08BF032774E70BB0BDE802
:1041E000F08F0022F8B50446034600F11406154688
:1041F00001200132042A1D7218731D7483F82C00EB
:1042000046F8045F03F1010383F82700F1D1651834
:10421000636C95F8547003EB47030020B3F88C20CF
:10422000B3F87C10FFF706F904F1380682B239467C
:10423000304602F09FF995F85450636C03EB450348
:104240000020B3F88C20B3F87C10FFF7F3F8294670
:1042500082B23046BDE8F84002F08CB92DE9F04753
:1042600014469DF82420DDF8208006460F46002ADB
:1042700040F0188200EB8109CF4AD9F81800126883
:104280001946201A07F0FEFB736BF5194FEA580226
:10429000934295F80CE002D9944238BF74632A7AAD
:1042A000002A00F0FF8100FB0EF3042093FBF0F0E6
:1042B000531E0C2B00F2EF81DFE813F00D00F2002B
:1042C0006000730015003000F600830027015001E4
:1042D0009B00AC00C200D9F8180000EB1810844213
:1042E000C0F07481D7E14FEA88134FEA4E02B3FB66
:1042F000F2FCD9F81830E21A95F9103094454FEADB
:104300000810C3EB4361B0FBFEF01AD8CCEB0202FD
:10431000D201B2FBF0F0C0F1800016E0D9F81830FD
:10432000E21A4FEA88100EEB4E0EB0FBFEF19142FE
:104330004FEA4E0EB0FBFEF00ED995F91030C3EBEC
:104340004361D201B2FBF0F08038DA01C901584371
:1043500007F0A2FB04B23BE14B009A4295F91040F2
:10436000C0F0A080D21AD201C4EB4461B2FBF0F0DD
:10437000C0F18000E201C9016043E9E7D9F81820E3
:1043800095F91030A21AD2014FEA0810C3EB43612D
:10439000B0FBFEFEB2FBFEFE4FF48042CEF1800089
:1043A000D4E7D9F8182095F910308449A21AD2011F
:1043B0004FEA8810B0FBFEF0B2FBF0F0DA01803873
:1043C000C5E77F4B95F910404FEA1818B0FBF8F09D
:1043D0000340002BBEBF03F1FF3363F0FF03013343
:1043E000803B6343002BB8BF5B42A3EB84146400A3
:1043F00024E0734C4FEA1818B0FBF8F00440002C8E
:10440000BEBF04F1FF3464F0FF040134803C95F931
:10441000100011E06A4C4FEA1818B0FBF8F00440A5
:10442000002CBCBF04F1FF3464F0FF0495F91000C8
:10443000B8BF0134803C404214FB00F424B2C7E012
:1044400012F05CFD5F4912F0B1FD04464FEAC8006E
:1044500012F054FD0146204612F05CFE12F062F9A3
:1044600010F036FF0022002312F040FC90B195F8C6
:104470002840002C00F0128195F91010C1EB41602A
:10448000C001C9010EF09BFE4FF0000804B285F890
:1044900028809FE04FF0010885F828800446FFE05F
:1044A00095F91040E40193E012F028FD454912F01F
:1044B0007DFD04464FEAC80012F020FD014620466B
:1044C00012F028FE12F02EF910F002FF8046894605
:1044D00095F9100012F014F942464B4612F076F9A5
:1044E0000022394B12F072F912F00AFC95F85430A0
:1044F000334404B2002293F85810306C02F0DAF919
:104500004FF000084FF001096EE012F0F7FC2D4962
:1045100012F04CFD04464FEAC80012F0EFFC0146D1
:10452000204612F0F7FD12F0FDF810F0D1FE002247
:10453000002312F0DBFB95F9104008B1E40103E021
:10454000C4EB4424E40124B295F85430306C334475
:10455000012293F8581002F0ADF939E012F0CEFCC8
:10456000184912F023FD04464FEAC80012F0C6FCB9
:104570000146204612F0CEFD12F0D4F810F0A8FE4D
:104580000022002312F0B2FB95F9104008B1E401BB
:1045900003E0C4EB4424E40124B295F85430306CB9
:1045A0003344002293F8581002F084F94FF00008C9
:1045B0004FF028090FE000BF041000E000C0FFFF2B
:1045C000FF000080DB0F4940000060404FF4804452
:1045D0004FF00008C14695F85430306C3344012246
:1045E00093F8581002F066F995F9140004EBC01422
:1045F000A4B20FFA84FABAF5804F02DDC4F5004484
:1046000006E01AF5804F05DACAF10004A4F500446B
:104610000FFA84FAB8F1000F44D1736C03EB8707EB
:104620004A46A7F8BEA095F85430334406F1380442
:1046300093F860100B090CBF06F13A0006F13B003D
:1046400001F00F0102F024FA002385F82C3095F8D0
:104650005470736C03EB47035046B3F88C20B3F8E7
:104660007C10FEF7E7FE394682B2204601F082FF59
:1046700095F85450736C03EB45035046B3F88C2007
:10468000B3F87C10FEF7D6FE294682B22046BDE87C
:10469000F04701F06FBF0024A04601E04FF0010891
:1046A000A14698E7BDE8F08770B505460C4616466A
:1046B0001BB10022006C02F0FDF8611EC9B20F2987
:1046C00013D8AC6CA06C036841F080011B6898475C
:1046D000A06C036806F07F011B689847A06C036814
:1046E00040211B68BDE87040184770BD38B50022F6
:1046F00005460C46006C02F0DDF828190023037211
:104700000374012380F82C3038BDFFFF37B54FF418
:10471000007305460C4609B1084A00E0084A1360D8
:10472000214617200FF0D2F885F8304024B1054B10
:104730001B680193019B2B6003B030BD84F00F40D8
:1047400088F00F4028C9FF1F0EF0DABE4379032B13
:104750000AD8DFE803F00A02020401207047808AC9
:10476000B0FA80F040097047704700207047FFFFA3
:10477000002380F80039024B1B68C0F8043A7047E8
:10478000041000E0144BD0F8FC1970B51D68D0F887
:10479000083A0446E81AD4F8002A0023A1FB0001D5
:1047A00012F026FE94F8071994F808290A442421E7
:1047B000234601FB0242002693420AD0597C01297C
:1047C00005D19969884236BF091A9E6199612433DF
:1047D000F2E7C4F8085A70BD041000E070B5164B3B
:1047E00004461D6884F8F519D0F8100A0E4607F043
:1047F00055FA10B1012384F8023994F8F2390F4ABE
:104800005BB9D4F8043AEB1AC4F8003A13784BB108
:10481000B4F8F6390133A4F8F639137813B100234C
:1048200084F8F2394FF08073C4F8045AB3FBF6F100
:10483000C4F8FC1970BD00BF041000E0F2C5FF1FF2
:104840004FF08070704790F8F539B0F8F62980F88D
:10485000081913FB01F192FBF1F301FB1321A0F8FE
:10486000F619704790F9E939002BDABFC3F102005D
:10487000C0B20120002BCCBFDBB201230006B0FB8D
:10488000F3F0704708B50246FFF7ECFF92F80839DD
:10489000584308BDF7B5044690F8066900F0E6F8FD
:1048A0000746C4F8EC092046FFF7DCFF94F80A2914
:1048B000B7FBF0F3322A1DB20ED999B211F0010FF5
:1048C0000FD0323A00FB1373520050436422B0FB06
:1048D000F2F0834271D904E003D099B211F0010FD4
:1048E0006FD194F8F4399D4255D094F80B39032BCD
:1048F0004FD8DFE803F0161F023394F8062994F826
:1049000007399A4201D1012306E094F808190B44B3
:10491000013B9A4202D1002384F8033994F8033909
:1049200043B194F8060994F8082994F8071940232C
:1049300001302AE094F8082994F80739294994F8B5
:1049400006091344013B19400029BEBF01F1FF31A4
:1049500061F03F0101314023013816E094F8070966
:1049600094F8081901440EF02AFC94F8082994F8E8
:1049700007391C491344013B19400029BEBF01F10E
:10498000FF3161F03F010131402307F0A4F884F8C2
:10499000060984F8F45994F81539012B01BF124B1C
:1049A0001B680193019B94F80639B34218D094F820
:1049B0000539013384F8053912E04D1E2DB200236C
:1049C0000BE000FB1373520050436422B0FBF2F083
:1049D000834286D34D1C2DB2012384F8013980E730
:1049E00003B0F0BD3F00008028C9FF1F002310B5B1
:1049F0000446A0F8F63991B1012280F8F229184A4C
:104A000080F800391268C0F8042A90F8072980F865
:104A1000023980F8F43980F8062980F803392046F5
:104A2000FFF738FF234604F5106100225A749A827A
:104A30009A6124338B42F9D194F81519D4F80C0AF1
:104A4000FFF754FE94F8153943B93221054810F0A8
:104A50001FF90548BDE810400EF036BB10BD00BF81
:104A6000041000E0E5910100288FFF1F154B2DE990
:104A700070431D680446D4F8040AD4F8002AD4F818
:104A8000FC39B4F8F619281A904228BF02F1FF3019
:104A900003FB01F64FEAE079A3FB000103FB0911D8
:104AA000002312F0A5FC31182046FFF7EBFE8142EF
:104AB00004D300212046FFF799FFDCE70846BDE854
:104AC000708300BF041000E02DE9F04390F9E9592C
:104AD000002DA1B0044600F33D81C5F10205EDB201
:104AE00001262046FFF7CEFE804684F8E91904A887
:104AF0009A49D4F8EC790EF0ACFB0A22B4F8F61916
:104B000068460EF0D9FB694604A80EF061FC944992
:104B10000EF066FC2946814608A80EF0BAFB08A9EB
:104B200048460EF055FC8F490EF05AFC314681463E
:104B30000CA80EF0AEFB0CA948460EF049FC8A49C1
:104B40000EF04EFC94F8083994F8F51911FB03F1B6
:104B50000A228146694310A891FBF6F10EF0ACFBE6
:104B600010A948460EF034FC80490EF039FC94F848
:104B7000F51994F8083911FB03F294F9E939002B7F
:104B8000DABFC3F10201C9B20121002BCCBFDBB2F5
:104B900001230546514314A891FBF3F10A220EF0BC
:104BA0008BFB14A928460EF013FC71490EF018FC7B
:104BB0000A220546D4F8EC1918A80EF0A3FB18A990
:104BC00028460EF005FC6B490EF00AFC054620460F
:104BD000FFF758FE0A2201461CA80EF093FB1CA901
:104BE00028460EF0F5FB01466348FBF786FC1CA83F
:104BF0000EF0EFFA18A80EF0ECFA14A80EF0E9FA8D
:104C000010A80EF0E6FA0CA80EF0E3FA08A80EF0D1
:104C1000E0FA68460EF0DDFA04A80EF0DAFA94F92C
:104C2000E95994F8083994F8F569002DD8BFC5F111
:104C3000020016FB03F6D4BFC0B20120002DCCBF8A
:104C4000EBB20123704390FBF3F0C317A7FB000105
:104C5000424607FB0311002312F0CAFB002DDABF06
:104C6000C5F10202D2B20122002DCCBFEDB2012566
:104C7000564396FBF5F2D31712F0BAFB2046A4F880
:104C8000F629FFF7F3FE3D49C4F8EC090CA80EF035
:104C9000E0FA0A22B4F8F61908A80EF00DFB08A9EC
:104CA0000CA80EF095FB36490EF09AFB94F9E91921
:104CB0000029DABFC1F10201C9B20121054610A8DD
:104CC0000EF0E7FA10A928460EF082FB2D490EF0EF
:104CD00087FB94F9E9190029CCBFC9B20121054627
:104CE00014A80EF0D6FA14A928460EF071FB264936
:104CF0000EF076FB0A220446394618A80EF002FB95
:104D000018A920460EF064FB20490EF069FB0A2228
:104D1000044641461CA80EF0F5FA1CA920460EF0E8
:104D200057FB01461448FBF7E8FB1CA80EF051FAAC
:104D300018A80EF04EFA14A80EF04BFA10A80EF0B8
:104D400048FA08A80EF045FA0CA80EF042FA21B075
:104D5000BDE8F083EEB20125C3E600BF1892010062
:104D600028920100329201003C9201004A92010017
:104D7000589201005E920100288FFF1F659201008A
:104D8000759201007F9201008992010092920100C8
:104D900090F80609000970472DE9F04F90F8226954
:104DA00085B00446002E40F0E080714B93F80090EF
:104DB000B9F1000F00F0D980FFF76CFD254604F62D
:104DC0002917B04694F8081994F807390B44B342F0
:104DD0005EDB6B79002B57D06A7C042A04D0062A4C
:104DE00036D0012A50D110E094F806399E4240F0A6
:104DF000B780012948D12046FFF734FDD4F8EC39BB
:104E0000B3EB900FC0F0AC803EE0A9692A6A9142F2
:104E10003AD25FFA86FB032B07D8DFE803F00202E1
:104E20000402CA4601E04FF0000A524659462046A5
:104E300000F0F7FC4FF006036B745946AB8A0393FE
:104E4000204600F0D9FC039B83421DD904231AE0BD
:104E50005FFA86FBD4F8EC39AA8A039359462046B8
:104E600000F04AFC039B83420ED92846FFF76EFCF4
:104E700097F840203B78009259460246204600F0C1
:104E800071FA4FF001036B7401362435013799E74D
:104E900094F80659242606FB054292F81180B8F1D1
:104EA000000F58D105EBC50304EB830359790029A2
:104EB00051D0A2F8148094F81B19D4F80C0A93F876
:104EC0000790FEF795FF142705224146B0FBF7F047
:104ED00019FA80F006F0E0FD254485F8290994F8D8
:104EE000065994F81D19D4F80C0A06FB054325440D
:104EF00093F80880FEF77CFF05220121B0FBF7F054
:104F000018FA80F006F0C8FD85F8690994F81C19B4
:104F100094F80659D4F80C0AFEF76AFF25440F23CB
:104F2000B0FBF3F085F8A90994F8065906FB054093
:104F3000FFF70CFC6219294692F8293992F8692981
:104F400000920246204600F00DFA94F8063906FB5E
:104F500003460123737494F8063984F8043904E095
:104F600085F81180A5F814808EE705B0BDE8F08FB4
:104F7000F2C5FF1F024B1B780BB1FFF70DBF704747
:104F8000F2C5FF1F0EF0BCBAF8B504460F46114833
:104F90001D211D4616460FF07BFE0F480EF094F8BB
:104FA000002384F81439042384F8E939322384F87F
:104FB0000A39012384F8F039069BC4F80C3A84F8C6
:104FC0001579079B84F8086984F81659C4F8103AD3
:104FD000F8BD00BF9C920100288FFF1F402910B52B
:104FE00023D801EBC1039B001824C454C218242306
:104FF00003FB01000023032143708370C37013710E
:1050000053719171D3710122027242720222827233
:1050100004220273432242734022C37283730274D8
:10502000C373437483828374836110BDF0B58DB004
:1050300004460D4604A83D4916460EF00AF92946D5
:1050400068460EF026F9694604A80EF0C1F9384901
:105050000EF0C6F93146074608A80EF01AF908A95D
:1050600038460EF0B5F9014632480EF00CF83148DA
:105070000EF02AF808A80EF0ACF868460EF0A9F871
:1050800004A80EF0A6F804221023322184F808396F
:1050900084F81629002384F80A1984F8E92940F6CF
:1050A000FF7184F80C29062284F8145984F8073912
:1050B00084F80F39A4F8101984F8133984F81569A5
:1050C00084F8173984F8183984F81B3984F81939A9
:1050D00084F81A3984F80E2984F80D2984F81C39CB
:1050E00084F81D3984F81E3984F81F3984F8203972
:1050F00084F8213984F8223984F8233984F8243952
:1051000084F8253984F8263984F828391D46E9B20F
:1051100020460135FFF762FF402DF8D13146D4F823
:105120000C0AFFF75EF80DB0F0BD00BFBA920100A7
:10513000DA920100288FFF1F012938B5044638D0C4
:1051400010D302293CD190F8243990F8151983F036
:10515000010380F82439D0F80C0AFFF742F894F8DC
:10516000240938BD90F8223983F0010380F82239F0
:10517000E3B190F8083990F807191944002300F1B9
:10518000110218468B420BD094F80659AB4202F13B
:10519000240205D002F8240C22F8210C0133F1E797
:1051A00094F81519D4F80C0AFFF7A0FA94F822091C
:1051B00038BD90F8230980F0010084F8230938BD38
:1051C00038BD10B5242404FB0101CA5410BD2423AA
:1051D00003FB0101885C7047F8B5044600F51067D1
:1051E0003C260A2512F01EFC90FBF6F303FB16008A
:1051F0000C30207012F016FC0A4B0340002BBEBF8F
:1052000003F1FF3363F001030133637112F00AFC11
:1052100090FBF5F303FB1500A0712434BC42E1D1EF
:10522000F8BD00BF0100008038B504460D4621B925
:10523000102101200DF0C3FFC5B294F80B2994F89A
:105240000639012A04D0022A04D194F803290AB9A4
:105250005B1B00E02B4484F806392046FFF702FB75
:1052600094F8082994F807194543402394F806094F
:1052700006F031FC04F5106284F806090021A369E8
:105280009D4236BF5B1BA161A36124349442F6D1D9
:1052900038BDFFFF38B590F81539053399420446FB
:1052A0000D4614D090F91739994202D10121FFF728
:1052B0009DFB94F918399D4209D1054B1B7833B1F8
:1052C00094F80C192046BDE83840FFF7ADBF38BD53
:1052D000F2C5FF1F70B51D468CB024243AB361435C
:1052E0004418425CA2740126637B90F815190B9652
:1052F000E6690A9690F82369099690F80F6908966E
:10530000B0F81069079690F813690696002605967E
:105310000495E57A0395E57B0295257C0195A47BB0
:105320000094D0F80C0AFEF779FE0CB070BD04FBB7
:10533000010101238A7C90F81519D0F80C0A0CB0F1
:10534000BDE87040FFF7B0B94318242202FB010109
:1053500093F9A939887A002BC4BF10FB03F0C0B2BF
:105360007047FFFF2DE9F04F17461D46242201EB41
:10537000C10302FB01029B000E4600EB03085178BB
:10538000C35C93B019448DF831109178D2788DF8C0
:105390003030194413448DF8333090F826399DF895
:1053A00070908DF8321004461BB1002380F8263926
:1053B0009CE1D0F8100A06F071FC20B194F8023993
:1053C000002B00F093810122042118F80230FF2BFA
:1053D00008BF01F1FF3102F1010208BFC9B2042A7E
:1053E000F3D10CA80A4601EB810CC1EB000E62451B
:1053F00005DA1EF802300C3313540132F7E7B9F125
:10540000000F02D011FB09F1C9B26B1E2422042B3C
:1054100049D8DFE803F0030B192C3F0002FB0642DA
:10542000928A92FBF1F301FB132107E002FB064293
:10543000928A92FBF1F301FB1323C91A12AB53FAC0
:1054400081F111F9183C30E002FB0642938A93FB8C
:10545000F1F212F0010F01FB02F2A3EB020308BF0D
:10546000CB1ADBB212AA134413F9183C1DE002FB5D
:105470000642908A4A1E90FBF2F3DD0755BF02FBFD
:10548000130390FBF1F2C91A01FB1201C9B212AB6E
:105490001944D6E700200DF092FE12AB53FA80F0CB
:1054A00010F9183C01E09DF93030242505FB064534
:1054B000AB7494F91A19D4F80C0AFEF7A2FC58B18F
:1054C000AB7C94F80E1994F80D091944181A0DF0D4
:1054D00076FE80F30700A874242505FB064594F8A2
:1054E0001F19D4F80C0AFEF783FCAB7C95F80B90DF
:1054F0001844A87494F82119D4F80C0AFEF778FC23
:10550000FF220021484406F0C7FA94F919195FFAFE
:1055100080F9D4F80C0AFEF774FCAB8A002818BF97
:1055200000271BB9AB61D4F8EC39EB6198F8073070
:10553000DFF8C0A1002B51D194F82019D4F80C0A3F
:1055400098F80650FEF754FCDAF80010834620461F
:10555000FFF776F9013594F9E9396D00002B5D44C8
:1055600000FB05F54FF02402DABFC3F10200C0B220
:10557000012002FB0642002BCCBFDBB201234543D6
:10558000D8009369B5FBF0F01844906194F80A399B
:10559000322B0ED094F8015964212DB9CB1A5B003F
:1055A0004343B3FBF1F003E05B005843B0FBF1F081
:1055B0009061242505FB06454FF0050AAB69B3FB56
:1055C000FAFA2046C5F820A0FFF74CF9BAEB901F75
:1055D00057D22046FFF746F9800951E0DAF800106B
:1055E0002046FFF72DF994F9E9B94FF0240ABBF1F1
:1055F000000F0AFB0641DCBFCBF10202D3B28A697D
:105600004D7AC8BF012300FB03235D438D61204613
:105610003146FFF799FE0AFB064ABBF1000FCCBFEB
:105620005FFA8BFB4FF0010BB5FBF0F0B0FBFBF02A
:10563000CAF8180094F80A39322B0FD094F80119DF
:10564000642229B9D31A5B004343B3FBF2F003E0B1
:105650005B005843B0FBF2F0CAF81800242505FBA4
:1056600006452046AB694FEA930AC5F820A0FFF72C
:10567000F9F8BAEB101F04D22046FFF7F3F800093F
:105680002862242303FB064694F81519B08A737B1D
:10569000B27C003018BF01200B90F0690A9094F89A
:1056A0002309099094F80F090890B4F8100907909D
:1056B00094F81309069094F8280905900497CDF8FA
:1056C0000C90F07B0290307C0190B07B0090D4F87D
:1056D0000C0AFEF7A3FC98F80530022B14BF002338
:1056E0003B4684F82839B38A0133B38213B0BDE84E
:1056F000F08F00BF888DFF1F2DE9F84F4FF0240A6F
:105700000AFB010A91469AF80940DAF81C6004FB8A
:1057100002F705468846FFF717FE95F80A2997FB1A
:10572000F0F39FB27843322A90FBF4F4C4EB0904FF
:10573000A4B20FD12846FFF795F89AF8092009FB83
:1057400002F900FB09F941462846FFF7FDFDB9FBC8
:10575000F0F04EE095F8002903F001034244DA42EC
:1057600028462ED0FFF77EF847432846FFF77AF801
:105770008146284695F80AB9FFF774F8381A0644A6
:105780004FEA4B0009FB00F04FF06409B0FBF9F061
:1057900087192846FFF766F89AF809305C434443B6
:1057A00041462846FFF7D0FD95F80A69B4FBF0F0B2
:1057B000C6EB090676007043B0FBF9F03844BDE84B
:1057C000F88FFFF74FF800FB07662846FFF74AF807
:1057D0009AF809305C43444341462846FFF7B4FD3C
:1057E000B4FBF0F495F80A09400044436420B4FB8C
:1057F000F0F03044BDE8F88F38B5431893F82939F4
:105800006BB1242303FB0104FFF79EFDA579637AA6
:1058100015FB00F090FBF3F0C0F38F0038BD184685
:1058200038BD10B4242404FB010113464A7C012A2C
:1058300007D18A7C10BC90F81519D0F80C0AFEF735
:1058400033BF10BC7047FFFF531A002BB8BF5B4239
:10585000013380F808390B4B1B788A428BBF01EB70
:10586000031102EB03120023012380F80B394FF0E0
:1058700001038CBF80F8071980F8072980F82639C2
:10588000704700BFF0C5FF1F0DF03ABE01F10803DD
:10589000DBB2072B09D8012202FA03F313F0DD0F64
:1058A00003D0006803681B68184770472DE9F74369
:1058B000BB4B1A680192019A02601B680093009B1F
:1058C00043600446383000F033FE04F13A0001F042
:1058D00097F804F13B0001F093F8B24B1A461946D1
:1058E00052F8040BE064106820659868606551F810
:1058F0000C0F496804F1580203C2194604F1600212
:1059000051F8140F496804F1680603C203F11C0240
:10591000343310685168354603C508329A422E4622
:10592000F7D1A14B04F1800203F108061868596809
:10593000154603C50833B3422A46F7D118689B8839
:10594000AB809A4B286004F18E0203F10C0153F8EE
:10595000040B42F8040B8B42F9D11B881380944B43
:1059600004F19C0203F1080618685968154603C53E
:105970000833B3422A46F7D118689B88AB808D4B19
:10598000286004F1AA0203F10C0153F8040B42F859
:10599000040B8B42F9D11B881380874B04F1B802AA
:1059A00003F1080618685968154603C50833B34261
:1059B0002A46F7D118689B88AB80804B286004F199
:1059C000C60203F10C0153F8040B42F8040B8B429E
:1059D000F9D11B8813807A4B04F1D40203F1080635
:1059E00018685968154603C50833B3422A46F7D1EB
:1059F00018689B882860AB800E22002104F1E20029
:105A00000DF09AFE4FF47A636E4DA4F8E63040F63E
:105A1000B83841F6583742F2283342F21076A4F8EB
:105A2000EA300E220021A4F8E480A4F8E870A4F87B
:105A3000EC6004F1F0000DF07FFE2A68C4F8FE204F
:105A40006A68C4F8022141F270732A89A4F8F6301A
:105A500041F28839A4F8062100210E22A4F8F28030
:105A6000A4F8F490A4F8F870A4F8FA6004F584702F
:105A70000DF062FE05F10A031A35A4F80A81A4F8B4
:105A80000C91A4F80E71A4F8106104F58B712A46EC
:105A900053F8040B41F8040BAB42F9D14A4B11689F
:105AA000C4F826115168C4F82A1112895968186877
:105AB000A4F82E2104F5987203C21989118003F10C
:105AC0000A0204F59D71163352F8040B41F8040BD9
:105AD0009A42F9D113880B803C4B04F5A47203F170
