:1000000000800020BD010000A5FB000071FB000086
:1000100071FB000071FB000071FB000071FB000030
:1000200071FB000071FB000071FB0000A5FB0000EC
:10003000A5FB000071FB0000A5FB000061FB0000B8
:10004000A5FB0000A5FB0000A5FB0000A5FB000030
:10005000A5FB0000A5FB0000A5FB0000A5FB000020
:10006000A5FB0000A5FB0000A5FB0000A5FB000010
:10007000A5FB0000A5FB0000A5FB0000A5FB000000
:10008000A5FB0000A5FB0000A5FB0000A5FB0000F0
:10009000A5FB0000A5FB0000A5FB0000A5FB0000E0
:1000A000A5FB0000A5FB0000A5FB0000A5FB0000D0
:1000B000A5FB0000A5FB0000A5FB0000A5FB0000C0
:1000C000A5FB0000A5FB0000A5FB0000A5FB0000B0
:1000D000A5FB0000A5FB0000A5FB0000A5FB0000A0
:1000E000A5FB0000A5FB0000A5FB0000A5FB000090
:1000F000A5FB000025050100A5FB0000ED1F010088
:10010000A5FB0000250A0100A5FB0000A5FB0000DF
:10011000A5FB0000A5FB0000A5FB0000A5FB00005F
:10012000A5FB0000A5FB0000A5FB0000A5FB00004F
:10013000A5FB0000A5FB0000A5FB0000A5FB00003F
:10014000A5FB0000A5FB0000A5FB0000A5FB00002F
:10015000D9F30000F1F3000009F4000021F40000DD
:10016000A5FB0000890C0100A5FB0000A5FB000019
:10017000A5FB0000A5FB0000A5FB0000A5FB0000FF
:10018000A5FB0000A5FB0000A5FB0000A5FB0000EF
:10019000A5FB0000A5FB0000A5FB0000A5FB0000DF
:1001A000A5FB0000A5FB0000A5FB0000A5FB0000CF
:1001B000A5FB0000A5FB0000A5FB0000564B4CF280
:1001C000205210B51A804DF628121A8000BF00BFC9
:1001D0000FF0ECFC514B4FF010621A60504A9A60DD
:1001E000504ADA60A3F53043203B1A6812F480725B
:1001F00004D14D490A604FF4A8521A604B4B1A784B
:10020000110703D51A7842F008021A70484B2A22C7
:100210001A700023474A48499818884204D247492F
:10022000595899500433F5E7454A464B9A424FF0E6
:10023000000302D242F8043BF7E74349434A5958C6
:1002400099500433B3F5DE7FF7D1414B802103F899
:10025000011B40498B42F9D13F4B1A603F4B8A2228
:100260001A70A3F5805324225A70A0221A709A792A
:100270009207FCD59A79D406FCD4394B9A7902F0CE
:100280000C02082AF9D103221A7146225A719A796E
:100290009006FCD5324B9A795106FBD5314A4FF086
:1002A000827111600921516020221A702C4B9B79B8
:1002B00003F00C030C2BF9D12B4B2C4A1A602C4B5E
:1002C0002C4A1A6000225A60072243F8042C2A4A5A
:1002D000C3F80C2D62B60FF0F5FD134B1B68DA075F
:1002E00005D526480FF008FD254B264A1A60264BF7
:1002F0001B785B0609D5224C224A2368934204D11D
:100300001E480FF0F9FC0023236018F01FF80FF0CF
:1003100053FC0FF061FBFEE70E20054030800440E7
:10032000823F04000100002B14D0034002D007409C
:1003300000E00740708CFF1F8490FF1F402F0200D9
:100340008490FF1FACC3FF1F000000000082FF1F4E
:1003500000E400E05FE400E008ED00E0005006404B
:10036000004006404480044004800440C010050062
:1003700014E000E0BFD4010000002020003C065A39
:100380001CE00340A5C3945A00F00740FFFFFFFFA5
:10039000FFFFFFFFFFFFFFFFFFFFFFFFFFFFFFFF6D
:1003A000FFFFFFFFFFFFFFFFFFFFFFFFFFFFFFFF5D
:1003B000FFFFFFFFFFFFFFFFFFFFFFFFFFFFFFFF4D
:1003C000FFFFFFFFFFFFFFFFFFFFFFFFFFFFFFFF3D
:1003D000FFFFFFFFFFFFFFFFFFFFFFFFFFFFFFFF2D
:1003E000FFFFFFFFFFFFFFFFFFFFFFFFFFFFFFFF1D
:1003F000FFFFFFFFFFFFFFFFFFFFFFFFFFFFFFFF0D
:10040000FFFFFFFFFFFFFFFFFFFFFFFFDEF9FFFF23
:1004100010B5054C237833B9044B13B10448AFF33E
:1004200000800123237010BD8490FF1F0000000096
:10043000402F020008B5064B1BB106480649AFF332
:1004400000800648036813B1054B03B1984708BD07
:1004500000000000402F02008890FF1F8490FF1FC3
:10046000000000000369C268934210B509D2826897
:100470005C1C0461D154826803690021D1540120BD
:1004800010BD002010BD44F2040210B58358CC18F2
:10049000B4F5804F07D8033121F00301194481508E
:1004A0001844043010BD002010BD18B111B101393D
:1004B0000068FAE7704738B504460D4634B128465F
:1004C000616818F079F808B12468F7E7204638BD6C
:1004D00038B5044608460D4618F09BF823680246D6
:1004E0005B6820462946984738BD38B504460EF06B
:1004F000B4FF054620460EF0D1FF284438BD38B57C
:100500000446FFF7E5FF054620460EF0C7FF2844E6
:1005100038BD38B58368144642680546E0189042F5
:1005200002D993420AD2D41A28682246184412F0FB
:10053000EBFDAB682344AB60204638BD002038BDDE
:1005400038B58368144642680546E018904202D9DF
:1005500093420AD2D41A28682246184412F0C0FEE8
:10056000AB682344AB60204638BD002038BD10B5D1
:1005700004460068FFF7ACFF63681844606010BD74
:1005800030B587B000228DF815200B4605AA0A2544
:10059000B3FBF5F405FB14333033114602F801398F
:1005A0002346002CF3D1FFF7E2FF07B030BD10B5B2
:1005B0000446006803681B689847636818446060D5
:1005C00010BDFFFF70B504460D4619B91249FFF77B
:1005D000CEFF70BD2221FFF7EAFF013D15F8012F84
:1005E0007AB10E4B13F8026C86B1023313F8031C78
:1005F0009142F7D120465C21FFF7D9FF20463146D2
:1006000006E020462221FFF7D2FF70BD20461146AA
:10061000FFF7CDFFE2E700BFB08E0100B78E01000B
:1006200008B503280AD8DFE800F0021105074FF0EB
:100630007E5008BD064808BD064808BD0438C0B253
:10064000FFF7EEFF044917F079F908BD034808BD2C
:100650000AD7233C6F12833A17B7D138CDCCCC3DA3
:100660002DE9F041054608460C46174615F032FBC9
:1006700010B92846494911E02046002117F0FCFA3C
:1006800028B128462D21FFF792FF04F100442046AF
:1006900015F020FB012805D141492846FFF767FFE7
:1006A000BDE8F08120463F4917F004FB20B9204601
:1006B0003D4917F0E1FA00B300262046002117F06B
:1006C000D1FA68B920464FF07E5117F0D5FA38B10B
:1006D0002046364917F032F9013EB6B20446ECE73F
:1006E0002046324917F0E6FA40B120462F4917F06C
:1006F000D9F90136B6B20446F2E706463846FFF7A6
:100700008FFF4FF07C5117F019F90146204617F082
:100710000DF8044617F0FEFA804617F0B7F80146C8
:10072000204617F001F8414604462846FFF728FF07
:100730001FB128462E21FFF73AFFCFB11B492046B3
:1007400017F0FCF8044617F0E5FA5FFA80F8404627
:1007500017F09CF80146204616F0E6FF08F130013C
:100760000446C9B22846013FFFF721FFFFB2E4E784
:1007700034B2002C06DA28460D49FFF7F8FE284669
:10078000614206E03EB128466521FFF710FF28468A
:100790002146FFF7F5FEBDE8F08100BFC48E0100E1
:1007A000C88E010000007A446F12833A0000204195
:1007B000D18E0100024608B5084619B10B681146F2
:1007C0001B68984708BDFFFF38B5084C236813F035
:1007D000010509D120460FF007FA28B1044B204645
:1007E0001D605D600FF006FA014838BDB490FF1F30
:1007F000A890FF1F08B54068FFF75DFE20B1037A9F
:10080000062B01D1C06808BDFFF7DEFF08BDFFFF62
:1008100038B5084C236813F0010509D120460FF0C4
:10082000E3F928B1044B20461D605D600FF0E2F94A
:10083000014838BDB090FF1FA090FF1F03780D2B1B
:1008400009D003D8093B012B23D804E0202B02D088
:100850002F2B02D070470130F0E743782A2B02D0CB
:100860002F2B0DD07047831C1A7818460133002AAD
:10087000E4D02A2AF8D11A782F2AF5D10230DDE700
:10088000831C184613F8012B002AD7D00A2AF8D166
:10089000D4E7704738B5044600680D46FFF7CEFF31
:1008A0000378AB4205D10130FFF7C8FF206001207B
:1008B00038BD002038BDFFFF70B5426884681378EA
:1008C000272B01D0222B27D15178551C51B39942A7
:1008D00001D1951C26E05C290BD1951C9178154A15
:1008E00016782EB18E4201D1517801E00232F7E73D
:1008F000C1B104F8011B2A46E6E723F02001413983
:10090000192905D92B2B03D0A3F12D01012909D8D1
:1009100004F8013B12F8013FA3F130010929154603
:10092000F6D9EAE7002304F8013B83684560846058
:10093000184670BDB98E0100027838B505460C46E0
:10094000072A3CD8DFE802F041241F302B27041B84
:10095000456808465B21FFF72AFE6D682DB1281D0A
:100960002146FFF7E9FF2D6825B920465D21FFF7F5
:100970001EFE38BD20462C21FFF719FEEFE7406828
:1009800000F028F838BD08466968FFF71BFE38BD3F
:100990000846696810E008462D21FFF708FE20464A
:1009A0006968FFF7EDFD38BD4168084B084A2046ED
:1009B00000290CBF11461946FFF7D9FD38BD083A8A
:1009C0000846D2B26968FFF74BFE38BDD48E0100ED
:1009D000D98E010070B505460C4608467B21FFF70D
:1009E000E6FD6D687DB12E46204656F8041FFFF7E0
:1009F000E9FD20463A21FFF7DAFD301D2146FFF7D9
:100A00009BFF2D6825B920467D21FFF7D0FD70BDE5
:100A100020462C21FFF7CBFDE5E710B50446214623
:100A20000820FFF7C7FE18B100230460436010BD23
:100A3000FFF7CAFE10BD10B5044621460820FFF797
:100A4000B9FE18B100230460436010BDFFF7E0FE5B
:100A500010BDFFFF037810B5052B1BD8DFE803F0AE
:100A60001E0808030305406810BD4068404210BDE1
:100A700044685CB10A48214617F09EFD40B120460B
:100A800000210A22BDE8104017F060BE204610BDCC
:100A9000012010BD406817F017F910BD002010BDEF
:100AA000D48E010070B504460FF0D8F9E0640FF061
:100AB000D5F925460023206545F85C3F4FF48A7040
:100AC0000FF0BAF8294606460EF0C4FA266704F17C
:100AD000780011F0E1FD04F1980011F0DDFD2046F1
:100AE00070BD08037047FFFF002138B50A46044671
:100AF00002F05AF80023626D5D1C02EB43032046AE
:100B0000B3F89C20690002F04FF8042D2B46F2D177
:100B10000025636D03EB4503691D20464900B3F8CA
:100B2000A420013502F040F8042DF2D10025636DB8
:100B300003EB450305F1090120464900B3F8AC2059
:100B4000013502F031F8042DF1D10025636D03EB7E
:100B5000450305F10D0120464900B3F87C2001351D
:100B600002F022F8082DF1D10025636D03EB450357
:100B700005F1150120464900B3F88C20013502F03B
:100B800013F8082DF1D102490248FFF7B8FC38BD2F
:100B9000DF8E010038BFFF1FF8B50021044602F0C8
:100BA00015F84FF6FF73984218BF002519D1324946
:100BB0003248FFF7A4FC30493048FFF7A0FC2E492B
:100BC0002E48FFF79CFC2C492C48FFF798FC2A493B
:100BD0002A48FFF794FC28492848FFF790FC012099
:100BE000F8BD6E1C676D2046710001F0EFFF07EB4A
:100BF0004505042EA5F89C003546F2D10025691D57
:100C0000666D2046490001F0E1FF06EB450601351F
:100C1000042DA6F8A400F2D1002505F10901666DA6
:100C20002046490001F0D2FF06EB45060135042DB0
:100C3000A6F8AC00F1D1002505F10D01666D204646
:100C4000490001F0C3FF06EB45060135082DA6F863
:100C50007C00F1D1002505F11501666D20464900A3
:100C600001F0B4FF06EB45060135082DA6F88C000F
:100C7000F1D10020F8BD00BF098F010038BFFF1F70
:100C800010B588B00023013A059106920B7003AAB3
:100C9000064C8DF8103001A903940793019202933A
:100CA000FFF798FE029808B010BD00BF988E0100B3
:100CB00010B504460C202168FFF77CFD10B100231D
:100CC0000360037163682BB11A680AB11346FBE72E
:100CD000186010BD606010BD10B50C46FFF7E8FF4E
:100CE00040B12368002BAEBF04225B420522027193
:100CF0008360012010BD10B50C46FFF7D9FF20B16D
:100D00002378836004220271012010BD10B50C46C7
:100D1000FFF7CEFF48B194F90030002BAEBF04229C
:100D20005B42052202718360012010BD10B50446AC
:100D300010202168FFF73EFD10B10023036003720D
:100D400063682BB11A680AB11346FBE7186010BD3F
:100D5000606010BD2DE9F3410446074654F8040BCA
:100D6000FFF769FE7B2106462046FFF793FD00282A
:100D700033D020467D21FFF78DFD88BB3846FFF735
:100D80009BFD804648B320463A21FFF783FD20B300
:100D900002AD00233846694605F8083D00F024F806
:100DA000D8B170684146FFF786FB28B93046FFF797
:100DB000BDFF90B1C0F8048000F1080395E803007E
:100DC00083E8030020467D21FFF764FD40B92046FB
:100DD0002C21FFF75FFD0028D0D1FFF719FD00E0BF
:100DE000304602B0BDE8F08170B50446007B0D4688
:100DF000002834D0013820736068FFF71FFD606061
:100E000003785B2B02D07B2B07D012E0204600F04A
:100E100027F803685BB1062305E02046FFF79AFF39
:100E2000036823B1072368602B70012014E0184683
:100E300012E0272B03D0223B5E425E4100E00126F8
:100E40002046FFF739FD38B1012216B102232B707D
:100E500000E02A7068601046237B0133237370BD65
:100E6000F7B50446074654F8040BFFF7D6FD5B219F
:100E700006462046FFF70EFD08B320465D21FFF72A
:100E800009FDF8B902AD00233846694605F8083D6A
:100E9000FFF7AAFF98B13046FFF70AFF78B1031DAC
:100EA00095E8030083E8030020465D21FFF7F2FC8C
:100EB00040B920462C21FFF7EDFC0028E2D1FFF7D6
:100EC00083FC00E0304603B0F0BD70B505464068D5
:100ED0000E461446FFF7EFFA20B92846FFF726FF23
:100EE00050B146602368002B08BF00240CBF0023CC
:100EF00006230372C460012070BD70B5054600680A
:100F00000E4610B9FFF760FC70BDFFF786FD044682
:100F1000314628462246FFF7D8FF204670BDFFFF26
:100F20002DE9F041ADF5804D9EB0574B1C93044622
:100F300044F204031CA80022C2500E46FFF77BFDBA
:100F400052490746FFF7D9FF112318A91893054600
:100F5000FFF7C2FE616D28464131FFF7CCFE616D9F
:100F600028464231FFF7C7FE616D28464331FFF73F
:100F7000C2FE616D28464431FFF7BDFE616D284613
:100F80004531FFF7B8FE616D28464631FFF7B3FEE5
:100F900004A83F493F4D0EF04AFB636D684693F845
:100FA00041100EF07AFB694604A80EF002FC2946B7
:100FB0000EF008FC636D804693F8421008A80EF00E
:100FC0006CFB08A940460EF0F4FB29460EF0FAFB34
:100FD000636D804693F843100CA80EF05EFB0CA9DD
:100FE00040460EF0E6FB29460EF0ECFB636D8046B2
:100FF00093F8441010A80EF050FB10A940460EF0D4
:10100000D8FB29460EF0DEFB636D804693F8451051
:1010100014A80EF042FB14A940460EF0CAFB294664
:101020000EF0D0FB636D804693F8461018A80EF0C2
:1010300034FB18A940460EF0BCFB29460EF0C2FB5B
:1010400001461548FFF751FA18A80EF0B0FA14A897
:101050000EF0ADFA10A80EF0AAFA0CA80EF0A7FA3E
:1010600008A80EF0A4FA68460EF0A1FA04A80EF043
:101070009EFA384631464FF48052FFF701FE0DF5D7
:10108000804D1EB0BDE8F081A88E0100F9BC0100C2
:10109000348F01000097010038BFFF1F2DE9F04198
:1010A000044688B0384817F099FA012107464FF4F2
:1010B000805017F02BF9064631462046FFF730FFE7
:1010C00012F0CEFA0028FBD0304904A80EF0AFFA97
:1010D000314668460EF0ABFA694604A80EF069FB8B
:1010E00001462B48FFF701FA68460EF060FA04A8A3
:1010F0000EF05DFA04A8394612F0CEFB04F15C0351
:1011000004AA0DF1180E9846154603CD75451860D2
:1011100059602A4603F10803F6D128681860AA88A6
:101120009A80E36D8BB100254046656612F03AFD6A
:101130006566404631464FF48052FFF701FA30466B
:1011400008B0BDE8F04117F02FB912491048FFF779
:10115000D6F904A810490EF06AFA394668460EF02E
:1011600066FA694604A80EF024FB01460848FFF71A
:10117000BCF968460EF01BFA04A80EF018FA0549EF
:101180000348FFF7BCF9DAE74D8F0100D692010062
:1011900038BFFF1F568F0100658F0100F0B532493F
:1011A00089B004463148FFF7AAF9314817F016FA1A
:1011B000064612F0F1FB90B92E492C48FFF79FF933
:1011C00012F034FB4FF480310246304612F0F0FB4F
:1011D000606D0AF0F3FD2046FFF760FF38E023481A
:1011E0002549FFF78CF912F03BFA0028FBD004A840
:1011F000314612F051FB06AF04AA04F15C03154618
:1012000003CDBD42186059602A4603F10803F6D1A8
:1012100028681860AA889A80E36DFBB1174904A872
:101220000EF005FA0A22216E68460EF06FFA694642
:1012300004A80EF0BEFA01460C48FFF756F96846BE
:101240000EF0B5F904A80EF0B2F90A200EF024FE53
:10125000304609B0BDE8F04017F0A6B80849034889
:10126000FFF74DF9F4E700BF808F010038BFFF1F83
:101270004D8F0100A28F0100D68F0100F18F010078
:101280000D9001002DE9F04FADF5804D87B004467B
:101290008DF806308E4B049304A844F204038DF8B5
:1012A00007200022C2508946FFF7C5FB894907463F
:1012B000FFF723FE9DF80720A36D40F60C0606FB02
:1012C000023101F205710546FFF715FD9DF8072073
:1012D000A36D06FB023101F211712846FFF70BFDE9
:1012E0009DF80720A36D06FB023101F20C71284620
:1012F000FFF701FD9DF80720A36D06FB023101F207
:101300000D712846FFF7F7FC0DF107012846FFF79E
:10131000F2FC0DF106012846FFF7EDFC9DF80720D1
:10132000A36D06FB023101F2E4712846FFF7EEFCE3
:101330009DF80720A36D06FB023101F212712846C9
:10134000FFF7E4FC9DF80720A36D06FB023101F2D4
:1013500013712846FFF7DAFC9DF80720A36D06FB02
:10136000023101F214712846FFF7D0FC9DF80720E6
:10137000A36D06FB023101F215712846FFF7C6FC8A
:101380009DF80720A36D06FB023101F21671284675
:10139000FFF7B1FC9DF80720A36D06FB023101F2B7
:1013A00017712846FFF7A7FC9DF80720A36D06FBE1
:1013B000023101F5E3612846FFF79DFC9DF8072007
:1013C000A36D06FB023101F219712846FFF793FC69
:1013D0009DF80720A36D06FB023101F21A71284621
:1013E000FFF789FC9DF80720A36D06FB023101F28F
:1013F0001B712846FFF77FFC9DF80720A36D06FBB5
:10140000023101F21C712846FFF775FC9DF8072098
:10141000A36D06FB023101F204712846FFF76BFC55
:101420009DF80720A36D06FB023101F207712846E3
:10143000FFF761FC9DF80720A36D06FB023101F563
:10144000E1612846FFF757FC9DF80720A36D06FBD6
:10145000023101F209712846FFF74DFC9DF8072083
:10146000A36D06FB023101F20A712846FFF743FC27
:101470009DF80720A36D06FB023101F20B7128468F
:10148000FFF739FC9DF80720A36D06FB02312846C3
:1014900001F20E71FFF72FFC386818B9FFF794F9C5
:1014A000834607E0FFF7B9FA83460B4938465A46A8
:1014B000FFF70BFD00230393039B3F2B00F3E88012
:1014C000DBF8000050B9FFF77FF9054617E000BFD1
:1014D000A88E0100F9BC0100CC920100FFF79DFA33
:1014E00005465846FFF7E4FB48B12B68002B18BFB0
:1014F000A8460CBF002306230371C0F8088003A987
:101500002846FFF7E9FBA36D9DF8071040F60C0A8B
:101510000AFB0131039B1C2606FB03112846FFF73B
:10152000EAFBA36D9DF807200AFB0232039B06FB32
:10153000032101312846FFF7DEFBA36D9DF807204C
:101540000AFB0232039B06FB032102312846FFF708
:10155000D2FBA36D9DF807200AFB0232039B06FB1A
:10156000032103312846FFF7C6FBA36D9DF8072032
:101570000AFB0232039B06FB032104312846FFF7D6
:10158000BAFBA36D9DF807200AFB0232039B06FB02
:1015900003210C312846FFF7B9FBA36D9DF8072006
:1015A0000AFB0232039B06FB032105312846FFF7A5
:1015B000A2FBA36D9DF807200AFB0232039B06FBEA
:1015C000032106312846FFF796FBA36D9DF80720FF
:1015D0000AFB0232039B06FB032107312846FFF773
:1015E0008AFBA36D9DF807200AFB0232039B06FBD2
:1015F000032108312846FFF77EFBA36D9DF80720E5
:101600000AFB0232039B06FB032109312846FFF740
:1016100072FBA36D9DF807200AFB0232039B06FBB9
:1016200003210A312846FFF766FBA36D9DF80720CA
:101630000AFB0232039B06FB03210D312846FFF70C
:1016400065FBA36D9DF807200AFB0232039B06FB96
:1016500003210E312846FFF74EFBA36D9DF80720AE
:101660000AFB0232039B06FB032110312846FFF7D9
:1016700042FBA36D9DF807200AFB023A039B06FB81
:1016800003A128460B31FFF736FB039B013312E71A
:10169000384649464FF48052FFF7F2FA0DF5804D77
:1016A00007B0BDE8F08F00BF2DE9F04788B00446D1
:1016B0008A46914600F077FF05465FFA85F804EB0D
:1016C00008039B791BB1204600F0F0FFF5E70125E8
:1016D000E5700EF0C3FB2065334816F07FFF294606
:1016E00006464FF4805016F011FE07463946204654
:1016F00052464B46FFF7C6FD11F0B2FF0028FBD063
:1017000004A8314612F0C8F804F15C0304AA0DF1F4
:10171000180C9E46154603CD6545186059602A464B
:1017200003F10803F6D128681860AA889A80E36D4F
:10173000D3B14FEA083339464FF48052636670469E
:10174000FEF7FEFE20464146012200F029FF384602
:1017500016F02AFE304616F027FE0023E370012320
:10176000237008B0BDE8F08710491148FEF7C7FEA6
:1017700004A810490DF05BFF314668460DF057FF95
:10178000694604A80EF015F801460948FEF7ADFEBB
:1017900068460DF00CFF04A80DF009FF034904484A
:1017A000FEF7ADFED3E700BF43900100568F010066
:1017B00038BFFF1F658F01002DE9F04104468CB052
:1017C000564816F00BFF0746204601F071F92046F7
:1017D00000F0F6FE524904A80DF029FF394668468C
:1017E0000DF025FF694604A80DF0E3FF4D490DF00B
:1017F000E9FF0A2205464FF4802108A80DF060FF9A
:10180000284608A90DF0D5FF01464748FEF76DFEB2
:1018100008A80DF0CCFE68460DF0C9FE04A80DF036
:10182000C6FE12F003F84FF480210246384612F04B
:10183000BFF800253D4908A80DF0F9FE0A22294607
:1018400004A80DF03DFF04A908A80DF0B2FF384927
:101850000DF0B8FF01463448FEF747FE04A80DF02E
:10186000A6FE08A80DF0A3FE0026A36D5FFA85F87A
:1018700040F60C0000FB0630F2B24146013603F0A0
:10188000D3F9042EF1D128482A49FEF738FE002664
:10189000F1B2204642460136FFF706FF042EF7D18B
:1018A00021482549FEF72BFE23781BB1204600F086
:1018B000FDFEF9E7214908A80DF0B9FE0A222946E4
:1018C00004A80DF0FDFE04A908A80DF072FF184948
:1018D0000DF078FF01461448FEF707FE04A80DF04E
:1018E00066FE08A80DF063FE01354FF4FA700EF0A5
:1018F000D3FA102D9ED123781BB1204600F0D6FEDE
:10190000F9E764200EF0C8FA384616F04DFD0C4990
:101910000548FEF7F4FD0CB0BDE8F0814C900100E5
:10192000549001006990010038BFFF1F71900100C1
:10193000A4900100C2900100D7900100EB9001003B
:1019400017910100F0B52A4989B005462948FEF7EC
:10195000D6FD294816F042FE064612F01DF838B9A9
:1019600026492448FEF7CBFD2846FFF725FF39E03E
:1019700011F076FE0028FBD004A8314611F08CFF50
:1019800006AF04AA05F15C03144603CCBC42186000
:101990005960224603F10803F6D120681860A28836
:1019A0009A80EB6DBBB104A815490DF040FE0A22E8
:1019B000296E68460DF0AAFE694604A80DF0F9FEEE
:1019C00001460C48FEF791FD68460DF0F0FD04A8B5
:1019D0000DF0EDFD03E007480A49FEF790FD0A20EF
:1019E0000EF05AFA304609B0BDE8F04016F0DCBC03
:1019F0003A91010038BFFF1F4C9001005191010046
:101A0000719101008B91010070B5054616460024C6
:101A1000064B1B782341DB0704D52846E1B2325D33
:101A2000FFF742FE0134042CF2D170BDD08DFF1FB0
:101A300010B54068FEF739FD00B30379052B13D8C4
:101A4000DFE803F0160505030303806815E08468EA
:101A500084B10B48214616F0AFFD68B12046002145
:101A60000A2216F0F9FE08E0806816F053F904E047
:101A7000002002E0204600E00120C0B210BD00BFFF
:101A8000D48E01002DE9F041ADF5804D9EB0754B2F
:101A90001C931CAA44F204031EAD0027D750724BBE
:101AA00045F8182DB94218BF0B466B6004460A234F
:101AB0002846A9602B73FFF74DF9D0F80080064641
:101AC000B8F1000F08D105200EF0E6F96748684923
:101AD000FEF715FD4046C0E06649FEF78BFE39462D
:101AE0004068FEF7E2FC20B10430FEF7B3FF112896
:101AF00006D0606D0AF062F92046FFF7CFFAABE03E
:101B000030465C49676DFEF775FE0121FFF790FFD7
:101B1000584987F841003046676DFEF76BFE022199
:101B2000FFF786FF534987F842003046676DFEF79E
:101B300061FE0321FFF77CFF4E4987F843003046E2
:101B4000676DFEF757FE0421FFF772FF494987F8DA
:101B500044003046676DFEF74DFE0521FFF768FF34
:101B6000444987F845003046676DFEF743FE06217D
:101B7000FFF75EFF404987F8460004A80DF057FDC7
:101B8000636D684693F841100DF087FD694604A81F
:101B90000DF00FFE39490DF015FE636D064693F802
:101BA000421008A80DF079FD304608A90DF001FE9D
:101BB00032490DF007FE636D064693F843100CA8FA
:101BC0000DF06BFD30460CA90DF0F3FD2B490DF027
:101BD000F9FD636D064693F8441010A80DF05DFD05
:101BE000304610A90DF0E5FD24490DF0EBFD636DC5
:101BF000064693F8451014A80DF04FFD304614A981
:101C00000DF0D7FD1D490DF0DDFD636D064693F81F
:101C1000461028460DF041FD294630460DF0C9FD1D
:101C200016490DF0CFFD01461048FEF75EFC284630
:101C30000DF0BDFC14A80DF0BAFC10A80DF0B7FC17
:101C40000CA80DF0B4FC08A80DF0B1FC68460DF02E
:101C5000AEFC04A80DF0ABFC01200DF5804D1EB0CC
:101C6000BDE8F081A88E01000197010038BFFF1F79
:101C7000BF910100F9BC0100ED9101000097010046
:101C80002DE9F041054688B05C4816F0A7FC0646F1
:101C900011F0E6FC20B95A495A48FEF730FCF7E744
:101CA000304611F079FEC8B104A8314611F0F4FDB8
:101CB00005F15C0304AA0DF118081F46144603CC75
:101CC000444518605960224603F10803F6D12068A4
:101CD0001860A2889A80EB6D2BB96EE0304616F042
:101CE00063FB012086E04FF4805016F055FB002383
:101CF000044621466B6638464FF48052FEF709FCD5
:101D000028462146FFF7BEFE002835D1204616F0B2
:101D10004BFB04A8314611F0BFFD04AA3B46964692
:101D2000BEE80300C64518605960724603F1080317
:101D3000F5D11068186092889A8033493148FEF7CF
:101D4000DEFB002321466B6638464FF48052FEF7D7
:101D5000E0FB28462146FFF795FE68B92146294851
:101D6000FEF7CDFB29492748FEF7C9FB686D0AF04D
:101D700025F82846FFF792F9254904A80DF057FCED
:101D8000214668460DF053FC694604A80DF011FD8C
:101D900001461C48FEF7A9FB68460DF008FC04A8A4
:101DA0000DF005FC0A200EF077F8204616F0FCFA3C
:101DB000304616F0F9FA00201CE0164904A80DF090
:101DC00036FC314668460DF032FC694604A80DF039
:101DD000F0FC11490DF0F6FC01460A48FEF785FBC0
:101DE00068460DF0E4FB04A80DF0E1FB304616F068
:101DF000DBFA022008B0BDE8F08100BF4D8F010082
:101E00000A92010038BFFF1F1D9201006792010076
:101E1000D1920100E392010020930100F0B589B056
:101E200004460D46264827491F461646FEF767FB1F
:101E30000E9B63670F9BA564A665E7666365162026
:101E400011F080FC18B91E481F49FEF758FB00230B
:101E50006370A370E370E21801330021402B91718D
:101E6000F9D172B62046FFF76DFD2046FFF796F9CF
:101E700062B62046FFF704FF0446B8B104A8134930
:101E80000DF0D5FB0A22214668460DF019FC694683
:101E900004A80DF08EFC01460948FEF726FB6846B3
:101EA0000DF085FB04A80DF082FB03E0044808490F
:101EB000FEF725FB07490248FEF721FB09B0F0BDFC
:101EC00038BFFF1F33930100619301008793010026
:101ED000AB930100BE93010008B54068FEF7E5FA38
:101EE00018B10430FEF7B6FDC0B240B208BD08B567
:101EF0004068FEF7DAFA20B10379062B01D1806839
:101F000008BDFEF761FC08BD2DE9F04FADF5804D31
:101F100099B0BD4B169318AF8A4644F2040316A934
:101F20004FF0000847F8181D41F80380B74BBA601E
:101F3000424518BF134605464FF00A0938467B60F4
:101F400087F80C90FEF706FF40F60C04AB6DB04925
:101F500004FB0AF4064603EB040BFEF74BFC414678
:101F6000FFF766FD8BF80507AB6DA949304603EB1B
:101F70000408FEF73FFC0121FFF75AFD88F811071E
:101F8000AB6DA349304603EB0408FEF733FC022196
:101F9000FFF74EFD88F80C07AB6D9D49304603EB0B
:101FA0000408FEF727FC0321FFF742FD88F80D0720
:101FB000AB6D9749304603EB0408FEF71BFC042188
:101FC000FFF736FD88F81007AB6D9149304603EBFB
:101FD0000408FEF70FFC0521FFF72AFD88F80F071C
:101FE000AB6D8B49304603EB0408FEF703FC06217A
:101FF000FFF772FF88F8E407AB6D8549304603EBC5
:102000000408FEF7F7FB0721FFF766FF88F81207C1
:10201000AB6D7F49304603EB0408FEF7EBFB08216C
:10202000FFF75AFF88F81307AB6D7949304603EB89
:102030000408FEF7DFFB0921FFF74EFF88F81407BD
:10204000AB6D7349304603EB0408FEF7D3FB4946FA
:10205000FFF742FF88F81507AB6D6D49304603EB7B
:102060000408FEF7C7FB0B21FFF7E2FC88F8160710
:10207000AB6D6749304603EB0408FEF7BBFB0C2150
:10208000FFF7D6FC88F81707AB6D6149304603EBC4
:102090000408FEF7AFFB0D21FFF7CAFC88F818070C
:1020A000AB6D5B49304603EB0408FEF7A3FB0E2142
:1020B000FFF7BEFC88F81907AB6D5549304603EBB6
:1020C0000408FEF797FB0F21FFF7B2FC88F81A0708
:1020D000AB6D4F49304603EB0408FEF78BFB102134
:1020E000FFF7A6FC88F81B07AB6D4949304603EBA8
:1020F0000408FEF77FFB1121FFF79AFC88F81C0704
:10210000AB6D4349304603EB0408FEF773FB122125
:10211000FFF78EFC88F80407AB6D3D49304603EBB2
:102120000408FEF767FB1321FFF782FC88F8070716
:10213000AB6D3749304603EB0408FEF75BFB142117
:10214000FFF776FC88F80807AB6D3149304603EBA2
:102150000408FEF74FFB1521FFF76AFC88F8090712
:10216000AB6D2B49304603EB0408FEF743FB162109
:10217000FFF75EFC88F80A07AB6D2549304603EB94
:102180000408FEF737FB1721FFF752FC88F80B070E
:10219000AB6D1F49304603EB0408FEF72BFB1821FB
:1021A000FFF746FC1B4988F80E073046FEF722FB76
:1021B000AB6D2344804693F8053713BB4FF00309FA
:1021C000154938460DF033FA51460EA80DF065FA60
:1021D0000EA938460DF0EDFA10490DF0F3FA01465C
:1021E0000F48FEF782F90EA80DF0E1F938460DF020
:1021F000DEF9B9F10109E3D1AB6D2344102283F874
:10220000052700270EE000BFA88E010001970100FE
:10221000F9BC0100CC920100F99301000294010085
:1022200038BFFF1F39464046FFF761FE0121FFF727
:10223000FFFB394603904046FFF759FE0221FFF7A6
:10224000F7FB394604904046FFF751FE0321FFF7A4
:10225000EFFB394605904046FFF749FE0421FFF7A2
:10226000E7FB394606904046FFF741FE0521FFF7A0
:10227000DFFB394607904046FFF739FE0621FFF79E
:102280002BFE394608904046FFF731FE0721FFF745
:10229000CFFB394609904046FFF729FE0821FFF79A
:1022A000C7FB39460A904046FFF721FE0921FFF798
:1022B000BFFB39460B904046FFF719FE0A21FFF796
:1022C000B7FB39460C904046FFF711FE0B21FFF794
:1022D000AFFB39460D904046FFF709FE0C21FFF792
:1022E000A7FB394684464046CDF808C0FFF7FFFDFE
:1022F0000D21FFF7F1FD394683464046FFF7F7FD14
:102300000E21FFF795FB394682464046FFF7EFFD69
:102310000F21FFF78DFB394681464046FFF7E7FD69
:102320001021FFF785FB394600904046FFF7DFFD9F
:102330000021FFF77DFBA96D039A1C23214458431C
:102340000B180A54049A5A70059A9A70069ADA7011
:10235000079A1A71099A5A710A9A9A710B9ADA7144
:102360000C9A1A720D9A5A720137009ADDF808C059
:10237000DA72402F089A83F80AC01A7383F80DB0F6
:1023800083F80EA083F810907FF44CAF30680030D3
:1023900018BF01200DF5804D19B0BDE8F08F00BFCA
:1023A0002DE9F047044688B054480F46914616F090
:1023B00015F9054611F054F920B951495148FEF775
:1023C0009EF8F7E7284611F0E7FAC8B104A82946B5
:1023D00011F062FA04F15C0304AA0DF1180A9846A0
:1023E000164603CE564518605960324603F108037D
:1023F000F6D130681860B2889A80E36D2BB95DE041
:10240000284615F0D1FF012075E04FF4805015F0FB
:10241000C3FF394606464A46204600F0C4F8C0B21B
:102420000003606631464FF480524046FEF771F873
:10243000204639463246FFF767FD002836D1304640
:1024400015F0B2FF04A8294611F026FA04AA434663
:102450009646BEE80300D64518605960724603F1FF
:102460000803F5D11068186092889A80264925489B
:10247000FEF745F839464A46204600F094F8C0B2C7
:102480000003606631464FF480524046FEF741F843
:10249000204639463246FFF737FD38B931461948EC
:1024A000FEF72DF817481949FEF729F8304615F0C0
:1024B0007BFF284615F078FF00201CE0144904A893
:1024C0000DF0B5F8294668460DF0B1F8694604A844
:1024D0000DF06FF90F490DF075F901460948FEF747
:1024E00004F868460DF063F804A80DF060F828467B
:1024F00015F05AFF022008B0BDE8F0874C900100AB
:102500000A92010038BFFF1F1C940100879401004C
:10251000E3920100209301002DE9F04106460D46AB
:102520009046002448FA04F3DB0710D5E7B23046A2
:1025300039462A46FFF734FF012808D1B36D40F62B
:102540000C0000FB043029463A4602F06DFB0134D2
:10255000042CE7D1014B1D70BDE8F081ECBCFF1FDE
:1025600013B9044B1B780BB9FFF7D6BF024B197098
:10257000704700BFDABCFF1FDDBCFF1F044A054BDC
:102580001360054A1360054A13600DF0ABB900BF34
:10259000C090FF1F03200038BC90FF1FB890FF1FA2
:1025A00001448A71704701EB8200704708B5034807
:1025B00016F014F8BDE8084011F0EEB94C90010097
:1025C000F0B5334989B004463248FDF798FF3248E8
:1025D00016F004F8064611F0DFF9F0B904A82F4907
:1025E0000DF025F8314668460DF021F8694604A83B
:1025F0000DF0DFF801462748FDF777FF68460CF03D
:10260000D6FF04A80CF0D3FF11F010F94FF480218D
:102610000246304611F0CCF91CE021491D48FDF777
:102620006EFF04A8314611F037F904F15C0304AAE7
:102630000DF1180E1F46154603CD754518605960FB
:102640002A4603F10803F6D128681860AA889A8000
:10265000E36DBBB9304615F0A7FE11F001F838B9AB
:1026600010490C48FDF74BFF64200DF015FCF4E712
:10267000002384F8463063700B490648FDF73FFF9E
:1026800009B0F0BD00236366384611F075FAE1E742
:10269000F794010038BFFF1F439001001895010017
:1026A0002E9501004D950100619501002DE9F04F37
:1026B000C6788DB004462EB10320C3E1731C402BB5
:1026C00004D01E46A519AB79002BF7D00DF0C6FB40
:1026D000E36C4CF25032C01A904240F20281AB4897
:1026E00015F07CFF8046AA4815F078FF074610F0E9
:1026F000B7FF002800F0C7804FF48050012115F08B
:1027000005FEAB79F6B2013B06F0030A8146032BC6
:1027100000F2B680DFE803F0022C89B208A839463F
:1027200011F0BAF804F15C0308AA0DF1280C9A46DE
:102730009646BEE80300E64518605960724603F10C
:102740000803F5D11068186092889A80E36D002B19
:1027500000F0C88031462046FEF7C3F96066504657
:1027600011F020FA0223AB710DF078FBE06487E0F2
:1027700008A8414611F090F808AA04F15C030DF195
:10278000280C9646BEE80300E6451860596072467C
:1027900003F10803F5D11068186092889A80E36D00
:1027A000002B40F0B5807B4904A80CF040FF94F862
:1027B000461068460CF071FF694604A80CF0F9FF5A
:1027C00075490CF0FFFF5146834608A80CF065FFE1
:1027D00008A958460CF0EDFF01467048FDF785FE4C
:1027E00008A80CF0E4FE68460CF0E1FE04A80CF02A
:1027F000DEFE08A8394611F04FF808AA04F15C0380
:102800000DF1280C9646BEE80300E64518605960B5
:10281000724603F10803F5D11068186092889A8017
:10282000E36D002B40F09080BEE008A8414611F017
:1028300033F804F15C0308AA0DF1280C9B46964678
:10284000BEE80300E64518605960724603F10803CC
:10285000F5D11068186092889A80E36D002B00F023
:10286000CA8031462046FEF73CF96066584611F0B2
:1028700099F90DF0F3FA0423E06400E00023AB7152
:10288000484615F091FD384615F08EFD404615F08E
:102890008BFD00231D46E21892790AB10135EDB295
:1028A0000133402BF7D12378DBB1D5B93C4908A8D7
:1028B0000CF0BDFE0DF0D2FA216D0A22411A04A8D7
:1028C0000CF024FF04A908A80CF073FF014633485C
:1028D000FDF70BFE04A80CF06AFE08A80CF067FEDA
:1028E0002570AFE004A82B490CF0A1FE94F8461027
:1028F00068460CF0D2FE694604A80CF05AFF29493C
:102900000CF060FF3946054608A80CF090FE87E001
:1029100020463146FEF7E5F8236E606600F58052EA
:102920009A420ED99842BFF464AFC0EB030BE36D3B
:10293000494618445A4610F0E7FB636E5B446366F1
:1029400057E74FF4805BF2E731462046FEF7C9F8BF
:10295000266E606600F58053B34213D9B04209D2A7
:10296000361AE36D32461844494610F0B9FC636EDE
:102970001E4466660DF072FAE0640323AB71002317
:1029800063707DE74FF48056EBE700BF4390010092
:102990004C900100A2950100F395010038BFFF1F84
:1029A00089950100C595010004A828490CF03FFE57
:1029B00094F8461068460CF070FE694604A80CF0C6
:1029C000F8FE23490CF0FEFE5146064608A80CF01E
:1029D00064FE08A930460CF0ECFE01461D48FDF7E8
:1029E00084FD08A80CF0E3FD68460CF0E0FD04A8A7
:1029F0000CF0DDFDC1E7154904A80CF018FE94F8B1
:102A0000461068460CF049FE694604A80CF0D1FE59
:102A100011490CF0D7FE5146054608A80CF03DFEC2
:102A200008A928460CF0C5FE01460A48FDF75DFDE1
:102A300008A80CF0BCFD68460CF0B9FD04A80CF029
:102A4000B6FD1DE70DB0BDE8F08F00BFA2950100F7
:102A50002596010038BFFF1F58960100044A054B18
:102A60001360054A1360054A13600CF03BBF00BFBA
:102A7000CC90FF1F03200038C890FF1FC490FF1F99
:102A800008B5FDF725FD08BD0A2200230CF016BD90
:102A900070B50668044630460D460CF067FF854267
:102AA00003D0304629460CF075FF204670BDFFFF6D
:102AB0002DE9F04186B004A810F010FD304D04A8B7
:102AC00010F01EFE2B680093DDF8008004460028FD
:102AD0004FD02C492C48FFF7D3FF21462A48FFF757
:102AE000D3FF2A492848FDF70AFD29492648FDF762
:102AF00006FD28492448FDF702FD10F02BFD2B6848
:102B00000193019E002410F0ABFD0746A8B92B6885
:102B10000293029B9B1BB3F57A7FF4D901341A48C8
:102B20001D49E4B2FFF7ACFF3B2C06F57A76EAD9F3
:102B300015480CF0B3FC3C46E5E714B112480CF024
:102B4000ADFC16491048FDF7DAFC2B680393039B94
:102B500013490D48C8EB0308FFF792FF4FF47A7151
:102B6000B8FBF1F10848FFF78FFF07480D49FDF763
:102B7000C6FC4FF47A700DF08FF906B0BDE8F08115
:102B800030BDFF1F8B96010038BFFF1F9D960100CF
:102B9000A5960100BF960100011C0200D596010018
:102BA000E5960100F596010073B502AC164644F8AF
:102BB000041D0D462046D1B2FFF76AFF01352046BD
:102BC000310A0195FFF764FF02B070BD38B50846C1
:102BD0000C460CF0CBFE0546601C0CF0C7FE05EB66
:102BE000002080B238BDFFFF044A054B1360054A40
:102BF0001360054A13600CF075BE00BFD890FF1F2C
:102C000003200038D490FF1FD090FF1F37B5044633
:102C10000DF024F9324BA0601B680193019BE36027
:102C20001721D223052204F1100012F0DCFE00214E
:102C3000172204F124000CF071FF012384F82430E2
:102C4000022384F82530032384F82630042384F8F3
:102C50002730062384F82830072384F829300823F6
:102C600084F82A30092384F82B300B2384F82C3085
:102C70000C2384F82D300D2384F82E300E2384F895
:102C80002F30102384F83030112384F83130122390
:102C900084F83230132384F83330052384F8353038
:102CA0000A2384F836300F2384F837300D4B03F1B4
:102CB000100204F13B01104653F8045B41F8045B39
:102CC0009342F9D10368C4F84B30074B1A889B78BC
:102CD000A4F84F20204684F8513003B030BD00BF27
:102CE00030BDFF1F119A0100259A0100F8B5114D62
:102CF0002B6804465B680F4616460F491622284685
:102D0000984728460CF0CAFB103444F8107C44F86D
:102D10000C6C052001210DF01FF82046C82112F08F
:102D2000D5FE204612F05AFD2046BDE8F84012F0CC
:102D3000A7BD00BF38BFFF1F289A010037B5054661
:102D40000024174B28461B7850F8102B40F60C0136
:102D500001FB0422A34205EB040392F81D2793F81C
:102D60004B100CD122B100232022009301920AE0E3
:102D70007F234FF0400E8DE80840134608E022B153
:102D80000023009301937F2202E0009201927F23AF
:102D9000013412F03EFE042CD3D103B030BD00BF8D
:102DA000D0BCFF1FF7B5054600F110060446601BB6
:102DB000C0B26F6808F0CEFF3B5C94F83B1033B1B3
:102DC0000022FF238DE80C003046134603E00093F9
:102DD000019330464022013412F01BFEB442E6D18A
:102DE000284603B0BDE8F040FFF7A8BFC943CAB208
:102DF000542A09D8A2EB8200013802EB42020021DA
:102E0000C0B2D2B20B4618E0A92A0BD8553AD2B2BA
:102E100002EB4201A2EB8202013A0020C9B2D2B217
:102E200003460AE05632D2B202EB4200A2EB820223
:102E3000511E0022C0B2C9B2134612F040BEFFFFBD
:102E40002DE9F341044600F110060546DFF8AC8099
:102E5000236898F8000040F60C0707FB003001F0EB
:102E60008AFD291B01EB0010C1B2236898F800000D
:102E700007FB003090F803378B4203D195F83B10E5
:102E8000FF2207E01C2303FB01035B794BB995F894
:102E90003B100122009201923046134612F0B9FD18
:102EA0000DE0002295F83B7001F084FF01462046BA
:102EB000FFF79CFF39460246304612F0D2FD01353D
:102EC000B542C3D10C4B1E78204636B14021FFF7E6
:102ED0008DFF00210246284605E0FF21FFF786FF0F
:102EE00031460246284612F0BCFD204602B0BDE83D
:102EF000F041FFF723BF00BFDABCFF1FD0BCFF1FAC
:102F00002DE9F04F684A694D136889B0044605936E
:102F10000598E368C01A664B1968B5FBF1F1884261
:102F20009046994603D913680693069BE36004F123
:102F300010052646371BFFB2DFF888B1384608F087
:102F400009FF9BF80020236840F60C0A0AFB0233B5
:102F500093F80327824206D17F22FF2396F83B1085
:102F60008DE80C000EE03846039308F0F3FE039B57
:102F70001C2202FB003043794BB9012296F83B102A
:102F8000009201922846134612F043FD1BE023688D
:102F90009BF8002096F83BC0CDF80CC038460AFBE1
:102FA000023A08F0D7FE00220146504601F002FF27
:102FB00001462046FFF71AFFDDF80CC002466146C5
:102FC000284612F04EFD384608F0C4FE394B1B78F7
:102FD00083420CD1D8F800300793079AE36836494A
:102FE000D21AD9F80030B1FBF3F39A4250D301362C
:102FF000AE429FD1314B1E78204636B14021FFF7BB
:10300000F5FE00210246284605E0FF21FFF7EEFE0F
:1030100031460246284612F024FD294B1B78032B2B
:1030200030D8DFE803F00205111D2046FF2101E042
:103030002046BF21FFF7DAFE15210246284612F08E
:1030400010FD20467F2116E07F212046FFF7CEFEAF
:1030500015210246284612F004FD2046BF210AE051
:103060007F212046FFF7C2FE15210246284612F0B6
:10307000F8FC2046FF21FFF7B9FE1621024628463C
:1030800012F0EFFC2046FFF759FE09B0BDE8F08FC3
:10309000FF22002396F83B1028468DE80C001346CB
:1030A00012F0B7FCA3E700BF30BDFF1F808D5B00AF
:1030B000CC8DFF1FE4BCFF1FC0C62D00DABCFF1F74
:1030C000D8BCFF1FD0BCFF1F2DE9F04F054685B0CF
:1030D0000024734B1A78A24205EB040305F1100695
:1030E0000BD12846402193F84B70FFF77FFE3946FD
:1030F0000246304612F0B5FC08E0002293F84B106F
:10310000009201923046134612F083FC0134042CE5
:10311000DFD12C46671BFFB2DFF88491384608F0F8
:1031200019FE4B4640F60C081A782B6808FB023A49
:103130009AF80327824238463FD108F00BFE4FF041
:103140001C0B0BFB00A04379012B08D1FF2280232D
:1031500094F83B1030468DE80C0000222BE02B68E1
:1031600099F80020384608FB023A08F0F3FD0BFB03
:1031700000A04379022B06D10023802294F83B1053
:10318000009301926CE02B6899F80020384608FB08
:10319000023808F0DFFD0BFB008094F83B10437908
:1031A000032B04D1002280238DE80C006DE0FF2268
:1031B000009201923046134669E008F0CBFD394B8E
:1031C0001B78834216D1384B94F83B701B680393ED
:1031D000039A0523B2FBF3F3FF2293FBF2F2991853
:1031E0002846C9B2FFF702FE39460246304612F0C1
:1031F00038FC4EE099F800202B68384608FB023A6C
:1032000008F0A8FD4FF01C0B0BFB00A0427912B98F
:1032100094F83B10CCE72B6899F80020384608FB5F
:10322000023A08F097FD0BFB00A04379012B05D172
:10323000FF2394F83B1000930022BAE72B6899F81B
:103240000020384608FB023A08F084FD0BFB00A082
:103250004379022B07D1002394F83B10009301938C
:103260003046FF2213E02B6899F80020384608FB0F
:10327000023808F06FFD0BFB00804379032B08D167
:10328000002294F83B10009201923046FF2312F086
:10329000C0FB0134B4427FF43DAF05B0BDE8F08F10
:1032A000D0BCFF1FE4BCFF1F30BDFF1FF7B50546B4
:1032B0000024114B1B78A34205F1100605EB040313
:1032C0000BD12846C42193F84B70FFF78FFD394688
:1032D0000246304612F0C5FB08E0002293F84B107E
:1032E000009201923046134612F093FB0134042CF5
:1032F000DFD103B0F0BD00BFD0BCFF1FF0B5044666
:1033000085B00D460CF0AAFDA368C01AA84240F291
:1033100083800CF0A3FD414BA0601B78092B04F1C6
:10332000100616D008D8042B03D8032B11D2A3B94A
:1033300069E0072B1DD066E00E2B03D80D2B08D2B9
:103340000A2B04E07D2B26D0F12B1BD0112B5AD158
:1033500021E02046FFF774FD55E0636893F84030A4
:103360001BB12046FFF71EFD4DE02046FFF7C8FDCC
:1033700049E0636893F84030002BF2D12046FFF714
:10338000A3FE40E0636893F84030002BE9D120466B
:10339000FFF78CFF37E000256319204693F83B7058
:1033A0001F4B1B680393039A0523B2FBF3F312220E
:1033B00002FB0533FF2293FBF2F29918C9B2FFF723
:1033C00015FD013502463946304612F04AFB102DF4
:1033D000E2D10025134B1B782B4113F0010004EBC5
:1033E000050393F84B1004D00022C8238DE80C008D
:1033F00002E040220092019030461346013512F05F
:1034000008FB042DE6D1084B4FF480641C60304665
:1034100012F036FA054B1C6005B0F0BD508DFF1F51
:1034200030BDFF1FD08DFF1F84F00F4088F00F408C
:10343000044A054B1360054A1360054A13600CF0FB
:1034400051BA00BFE490FF1F03200038E090FF1F37
:10345000DC90FF1F2DE9F84304460D4616461F4633
:10346000AC49AD48DDF82080FDF749F86664A763F4
:1034700001260027C4F84080A84927726772A77206
:10348000E77226736673A673E67327746774A7746E
:10349000E77484F82C6084F82D6084F82E6084F83A
:1034A0002F60A761E7612762676284F8286084F86B
:1034B000296084F82A6084F82B609748FDF71FF88C
:1034C00028462121E56303F021F8284639460822E1
:1034D000334602F0D9FE284631460422334602F034
:1034E000D3FE284602210922334602F0CDFE2846AB
:1034F00003210522334602F0C7FE28461121062289
:10350000334602F0C1FE284604210A22022302F0BB
:10351000BBFE284605210722022302F0B5FE2846FD
:1035200006210B22022302F0AFFE284607210C22BF
:10353000022302F0A9FE284608211B22334602F08E
:10354000A3FE284609211222334602F09DFE28469A
:103550000A211322334602F097FE28460B2114223B
:10356000334602F091FE28460C211522334602F024
:103570008BFE28460D211622334602F085FE284692
:103580000E211722334602F07FFE28460F21032228
:10359000334602F079FE284610211822334602F005
:1035A00073FE284616210E22022302F06DFE02222F
:1035B00013462846122102F067FE284613213246A0
:1035C000022302F061FE284614211A22022302F08F
:1035D0005BFE284615210D22022302F055FE2846E7
:1035E00017210F22022302F04FFE28461821102235
:1035F000022302F049FE284619211122022302F07B
:1036000043FE28461A211922022302F03DFE3A46C3
:1036100002231B21284602F037FE284602F0FCFE5A
:103620003F493D48FCF76BFF022104F1310002F0F5
:10363000C3FD04F133090A200CF02EFC1321484687
:1036400002F0FCFF04F134080A200CF025FC40468F
:10365000122102F0F3FF0A200CF01EFCFEB2012042
:103660000CF01AFC31460122484603F023F80120F1
:103670000CF012FC31460122404603F01BF80120F9
:103680000CF00AFC01200CF007FC01200CF004FCFB
:103690003146FF22484603F00DF801200CF0FCFBF8
:1036A0003146FF22404603F005F801200CF0F4FB00
:1036B000013701200CF0F0FB042FCFD12646271D47
:1036C00096F84C302344284693F85410012202F017
:1036D00012FF96F850302344284693F854100122E4
:1036E000013602F008FFBE42EAD10E490A48FCF753
:1036F00006FF1F2001210CF02FFB042001210CF0FC
:103700002BFB05480849FCF7FAFE2846BDE8F843BC
:1037100002F0B8BE3F9A010038BFFF1F519A010066
:103720006B9A01007C9A0100919A010070B500F13A
:1037300031040E461546204602F05AFD2046314619
:103740002A46BDE8704002F053BDFFFFF7B50446BE
:10375000C06B02F097FE11210122A06B266C11F0C4
:10376000B5FC022590FBF5F0A6F8B4002421012257
:10377000A06B266C11F0AAFC90FBF5F0A6F8B60041
:1037800025210122A06B266C11F0A0FC90FBF5F026
:10379000A6F8B8002221A06B266C012211F096FC3D
:1037A00090FBF5F0A6F8BA000025266C06EB45065E
:1037B000B6F8B400B6F8AC30984207D20022B6F89A
:1037C0009C1000921A464FF4806305E05D49B6F8FC
:1037D000A4200091194600230BF0DFFEA6F870002C
:1037E000266C584905F138034FF4806236F913000E
:1037F000402300936FF03F030BF0CFFE2E440135C2
:10380000042D86F86200D0D10025082D05F10406AC
:1038100022D00123AB4013F0AA0F0CD113F0550FA7
:103820001AD0236C1E4403EB450393F8BC30183BBD
:1038300086F8623010E0276C434907EB45034FF4EC
:103840008042B3F8BC00402300936FF03F030BF0BD
:10385000A4FE3E4486F862000135092DD5D104212D
:10386000E06B256C02F0C3FE80F0010085F8D50006
:103870000521E06B256C02F0BAFE80F0010085F8AE
:10388000D6000621E06B256C02F0B1FE80F001004D
:1038900085F8D7000721E06B256C02F0A8FE80F0C8
:1038A000010085F8D8000421E06B256C02F089FE48
:1038B00085F8CC000521E06B256C02F082FE85F8CE
:1038C000CD000621E06B256C02F07BFE85F8CE0072
:1038D000E06B256C072102F074FE85F8CF0004250B
:1038E0002E1FF6B2E06B314602F08BFE48B1236C1E
:1038F000E06B2B44314693F8D57002F082FE87428C
:1039000003D1236C00222B4402E0236C01222B44C0
:1039100083F8CC20276CE06B314602F072FE2F4416
:103920000135082D87F8D500DAD1E06B2946012250
:1039300002F0E1FDE06B2946002203B0BDE8F04053
:1039400002F0D9BD00FCFFFF00C0FFFF2DE9F041F0
:10395000AB4E92B033680293029B33680393039B90
:10396000A84B1B78343B04461E2B00F22B82DFE869
:1039700013F01F00500083001F00500083001F0041
:10398000500083001F0050008300290229022902F1
:1039900029022902290229022902290229022902CF
:1039A000290229022902290229022902B400570109
:1039B000954D05F108086E78226C944902EB460299
:1039C0000020B2F87C30B2F88C2000924FF4804294
:1039D0000BF0E3FD04F1310782B23146384602F0C4
:1039E00007FC15F8016F226C884902EB46020020A3
:1039F000B2F87C30B2F88C2000924FF480420BF089
:103A0000CCFD314682B2384602F0F2FB4545D2D1B8
:103A1000D8E17D4D05F108086E78226C7B4902EBF8
:103A200046024FF40050B2F87C30B2F88C2000927D
:103A30004FF480420BF0B1FD04F1310782B2314600
:103A4000384602F0D5FB15F8016F226C6F4902EB86
:103A500046024FF40050B2F87C30B2F88C2000924D
:103A60004FF480420BF099FD314682B2384602F0A5
:103A7000BFFB4545D0D1A5E1634D05F108086E783F
:103A8000226C6249624802EB460204F13107B2F847
:103A90007C30B2F88C2000924FF480420BF07DFD18
:103AA000314682B2384602F0A3FB15F8016F226C52
:103AB0005649574802EB4602B2F87C30B2F88C20E7
:103AC00000924FF480420BF068FD314682B23846D6
:103AD00002F08EFB4545D2D174E1FFF737FE326824
:103AE000236C0492049AD3F80431D31A642B76D948
:103AF00000252B46216C4A1992F8D570012F2CD144
:103B000091F8FC3082F8F83042490AA80BF08FFD9A
:103B1000236C06A893F8FC100BF0BFFD06A90AA8B9
:103B20000BF047FE3C490BF04DFE0A228046294629
:103B30000EA80BF0C5FD0EA940460BF03AFE01465B
:103B40003648FCF7D2FC0EA80BF031FD06A80BF0AE
:103B50002EFD0AA80BF02BFD3B460135042DC9D1E3
:103B6000002B2ED1236C2B4993F8FC201344FF2506
:103B700083F8F8500AA80BF05AFD236C06A893F8B6
:103B8000FC100BF08AFD06A90AA80BF012FE2249D0
:103B90000BF018FE0A22074629460EA80BF090FDEE
:103BA0000EA938460BF005FE01461C48FCF79DFCAB
:103BB0000EA80BF0FCFC06A80BF0F9FC0AA80BF011
:103BC000F6FC236C93F8FC20013202F0030283F828
:103BD000FC203268236C0592059AC3F80421002565
:103BE000236CE06B93F8FC309D42E9B20CBF0122DC
:103BF0000022013502F07FFC042DF1D1E2E000BF8C
:103C000030BDFF1FD9BCFF1F508DFF1F00C0FFFF3D
:103C100000E0FFFFD69A0100E89A010038BFFF1FBD
:103C20003268036C06920699D3F80421891A962902
:103C300003D993F8FC1001296BD131680A910A99D4
:103C40008A1AB2F5967F40F2BD80604A12680E92E1
:103C500000260E9A83F8FC60C3F80421236C93F8C5
:103C6000FD20103202F07F0283F8FD20254695F8F2
:103C70005030E06B2344012293F8541002F03BFCD7
:103C800095F84C30E06B2344012293F8541002F075
:103C900032FC95F84C302344013693F85C100A0945
:103CA0000CBF04F1330004F1340001F00F0118BF20
:103CB000002202F0FFFC95F850302344013593F8C0
:103CC0005C100A090EBF04F1330004F13400002235
:103CD00001F00F0102F0EEFC042EC8D13C4D05F1BD
:103CE00008076978236C03EB410304F13106B3F84C
:103CF0007C20304602F07CFA15F8011F236C03EBA0
:103D000041033046B3F87C2002F072FABD42E8D19C
:103D100058E0012283F8FC200546002695F8503033
:103D2000E06B2344002293F8541002F0E4FB95F872
:103D30004C30E06B2344002293F8541002F0DBFB7C
:103D400095F84C302344013693F85C100B09236C32
:103D50000CBF04F1330004F1340093F8FD2001F0AE
:103D60000F0102F0A7FC95F850302344013593F879
:103D70005C10236C0A090CBF04F1330004F1340019
:103D800001F00F0193F8FD2002F094FC042EC5D140
:103D90000F4D05F108076978236C03EB410304F12B
:103DA0003106B3F88C20304602F022FA15F8011FD4
:103DB000236C03EB41033046B3F88C2002F018FA71
:103DC000BD42E8D112B0BDE8F08100BF30BDFF1F99
:103DD000508DFF1F29B1036C194491F9610080B225
:103DE000704708467047093108B5092936D8DFE819
:103DF00001F0302B26211C17120A053664200BF027
:103E0000B7FB5A2803E064200BF0B2FB502894BFA4
:103E10000020012008BD64200BF0AAFB4628F6E72D
:103E200064200BF0A5FB3C28F1E764200BF0A0FB1D
:103E30003228ECE764200BF09BFB2828E7E764209E
:103E40000BF096FB1E28E2E764200BF091FB142890
:103E5000DDE764200BF08CFB0A28D8E708BD0020C2
:103E600008BD036C03EB4202B2F88C00B2F87C3060
:103E7000C31A9BB25943142291FBF2F080B27047EF
:103E8000036C03EB4101B1F87C00B1F88C301844AD
:103E900040087047F8B501441F4691F84C50294638
:103EA0000446FFF7EDFF394606462A462046FFF74F
:103EB000D8FF301A80B2F8BD10B5014491F84C20FB
:103EC000016C01EB4201B1F88C401946FFF7C9FFC4
:103ED000201A80B210BDFFFF2DE9F3471F46012FC6
:103EE000164604460D469DF828209DF82C303DD0FE
:103EF0001CD3022F6DD1431893F84C80036C0B44F4
:103F0000424693F843703B46FFF7C4FF29464246BA
:103F10003B4681462046FFF7CFFF304B33F8163043
:103F20000090002118464FF47D724DE00027009765
:103F3000F1B2006C07F0D2FF6319824693F84C800F
:103F4000236C2B44294693F843604246334620466F
:103F5000FFF7A0FF29464246814633462046FFF739
:103F6000ABFF39460090782250462DE0002700979D
:103F7000F1B2006C07F0B2FF94F8973190FBF3F2C6
:103F800003FB120204EB42022946B2F86CA142F68E
:103F9000E0625043226C90FBF3F39A442A44631985
:103FA00092F8436093F84C80204642463346FFF730
:103FB00071FF29464246814633462046FFF77CFF83
:103FC000074A0090394650464B460BF0E6FA80B25D
:103FD00000E0002002B0BDE8F08700BF5A8DFF1F4F
:103FE000C0D401002DE9F04F8BB016469DF8542047
:103FF00005929DF8602002929DF8702004921E9A0E
:104000000892026C9DF850809DF85C709DF864B039
:104010009DF8689002EB81029A469DF8583006930D
:104020009DF86C300393A2F8BC609DF87430029A3E
:1040300007939DF87C30099304460D460AB957B1A1
:1040400091E0C06B02F0DDFA0028F8D0BBF1000F60
:1040500040F0B6807DE0BBF1000F40F0838067192F
:10406000012297F84C30E06B234493F8541002F08F
:1040700042FA97F84C30234493F85C100A0901F097
:104080000F0102D104F1330002E004F134000022F8
:1040900002F010FBB8F1000F11D06319059A1A73E2
:1040A000069A1A75099A83F8088083F810A032B925
:1040B000012283F82C20AB1D089A44F82320079B8B
:1040C000002B3BD16719039A049B97F84CB00092E0
:1040D000019329464B4632462046FFF7FDFE04F188
:1040E000310802465946404602F082F8039A049B82
:1040F00097F84CB000920193294632464B46204631
:10410000FFF7EAFE59460246404602F071F8691E82
:10411000C9B20F29676C11D8B86C036841F09001DF
:104120001B689847B86C036806F07F011B689847C6
:10413000B86C03680AF07F011B689847029A002A4E
:1041400042D0E06B294601220BB0BDE8F04F02F0EF
:10415000D2B9E06B29465A4602F0CDF9002F3FF460
:104160007EAF00E0032704EB050BE06B9BF84C20CF
:10417000224492F85410002202F0BDF99BF84C2022
:10418000224492F85CB05FEA1B114FF0FF020BF083
:104190000F0B09D1009238467F220B460BF0FDF938
:1041A000C2B204F1330009E00021009238467F22B8
:1041B0000B460BF0F2F9C2B204F13400594667E73E
:1041C000002F08BF0327CEE70BB0BDE8F08FFFFF3D
:1041D0002DE9F341034604460022A61804320120CB
:1041E0000025102A1D7218731D7483F82C00B56108
:1041F00083F828000344F0D16718226C97F85080A8
:10420000154902EB48022846B2F87C30B2F88C20FF
:1042100000924FF480420BF0C0F904F1310682B2F3
:104220004146304601F0E4FF97F85070226C0A498D
:1042300002EB47022846B2F87C30B2F88C2000929C
:104240004FF480420BF0A9F9394682B2304602B0F1
:10425000BDE8F04101F0CCBF00C0FFFF2DE9F743FE
:1042600099469DF8283007468846002B40F0C981C2
:104270004618B24B357A1B688B1D317B50F82340B2
:10428000002D00F0BE81131B03FB01F0013D8008EF
:104290000C2D00F25B81DFE815F00D00C90056001F
:1042A000680017002F00CE0075000001270185006F
:1042B0008C00970004EB19194A454FF0000480F078
:1042C00046814FF4804543E14FEA89104A00B0FB34
:1042D000F2F24FEA09199342B9FBF1F105D2DB0181
:1042E000B3FBF1F1A1F1800017E09B1ADB01B3FBF6
:1042F000F1F1C1F1800010E04FEA891901EB4101B1
:10430000B9FBF1F293424FEA4101B9FBF1F910D246
:10431000DB01B3FBF9F9A9F1800096F91020C2EB9B
:1043200042615043C901D20107F0F0FC85B200247C
:104330000EE15200934279D39B1ADB01B3FBF9F9EA
:10434000C9F18000E9E74FEA091996F91020B9FB95
:10435000F1F1DB01B3FBF1F0C0F18000C2EB42618F
:104360005043C9014FF48042DEE74FEA8919B9FB97
:10437000F1F1DB01B3FBF1F096F9102070498038C0
:104380005043D0E74FEA1915B0FBF5F596F9103018
:10439000EDB2803D5D43002DB8BF6D42A5EB8315A6
:1043A0006D0046E04FEA1915B0FBF5F5EDB2803D22
:1043B00006E04FEA1915B0FBF5F5EDB2C5F1800541
:1043C00096F910305D4334E013F064FA5D4996F8D5
:1043D000284013F0B3FA05464FEAC90013F056FA25
:1043E0000146284613F05EFB12F064FE11F028FC33
:1043F0000022002313F042F990B14CB196F910104D
:10440000C1EB4160C001C9010BF0BDF885B200E00D
:1044100025464FF0000984F0010486F8289098E0C2
:10442000012486F828400546814692E096F910500E
:10443000ED01ADB27BE713F02DFA424913F07EFA9D
:1044400004464FEAC90013F021FA0146204613F052
:1044500029FB12F02FFE11F0F3FB044696F9100031
:104460000D4612F015FE02460B462046294612F074
:1044700075FE0022344B12F071FE13F009F996F824
:1044800050303B4485B293F85410F86B002202F090
:1044900032F800244FF0010964E013F0FBF92949D8
:1044A00013F04CFA04464FEAC90013F0EFF9014645
:1044B000204613F0F7FA12F0FDFD11F0C1FB0022C7
:1044C000002313F0DBF896F9105008B9C5EB452529
:1044D00096F85030F86B3B44ED0193F854100122EC
:1044E000ADB202F008F822E713F0D4F9154913F041
:1044F00025FA04464FEAC90013F0C8F901462046E0
:1045000013F0D0FA12F0D6FD11F09AFB002200232E
:1045100013F0B4F896F9105008B9C5EB452596F894
:104520005030F86B3B44ED0193F854100022ADB2CB
:1045300001F0E1FF00244FF028090AE0041000E038
:1045400000C0FFFFDB0F494000006040002425460B
:10455000A14696F85030F86B3B44012293F8541072
:1045600001F0C9FF337D002C4BD15BB205EBC315C5
:104570003B6C03EB8803ADB2A3F8BE5096F8503005
:104580003B444A4693F85C100B090CBF07F133001B
:1045900007F1340001F00F0102F08CF896F850801A
:1045A0003A6C194902EB4802002386F82C30B2F825
:1045B0007C30B2F88C2000922DB228464FF4804215
:1045C0000AF0EBFF07F1310482B24146204601F0C8
:1045D0000FFE96F850603A6C0B4902EB46022846F3
:1045E000B2F87C30B2F88C2000924FF480420AF08E
:1045F000D4FF314682B2204603B0BDE8F04301F05B
:10460000F7BD03B0BDE8F08300C0FFFF70B50446FE
:104610000E4615461BB1C06B002201F06CFF711EE7
:10462000C9B20F29646C10D8A06C036841F08001F6
:104630001B689847A06C036805F07F011B689847CA
:10464000A06C036840211B68984770BD38B50022F4
:1046500004460D46C06B01F04EFF631900221A722A
:104660001A74012283F82C2020462946BDE83840E0
:10467000FFF7AEBD37B54FF4007305460C4609B1E0
:10468000084A00E0084A1360172021460BF044FB5B
:1046900085F8304024B1054B1B680193019B2B60CA
:1046A00003B030BD84F00F4088F00F4030BDFF1FD5
:1046B000044A054B1360054A1360054A13600BF06A
:1046C00011B900BFF090FF1F03200038EC90FF1FCE
:1046D000E890FF1F4379032B09D8DFE803F0090BAB
:1046E0000B02807CD0F1010038BF0020704770477A
:1046F000002070470120704710B504460BF0AEFB58
:104700000023C4F8000884F8003710BDD0F8F8374B
:10471000013330B5C0F8F83790F8045790F80537F2
:1047200000221D440346AA4203F11C030CDAD0F810
:10473000FC17D0F8F447B4FBF1F453F8081C091B3C
:1047400043F8081C0132EEE730BDFFFF0E4B80F846
:10475000F2171B78B3B190F8EE3743B9D0F8F837B9
:10476000C0F8FC37B0F8F0370133A0F8F037002379
:1047700080F8EE37C0F8F8374FF4800393FBF1F17F
:10478000C0F8F417704700BFDABCFF1F90F8E43799
:104790005AB2002ADABFC3F10200C0B20120002AD7
:1047A000CCBFDBB20123800590FBF3F0704710B55E
:1047B0000446FFF7EBFF94F80537584310BDFFFFA1
:1047C0002DE9F743D0F8F857D0F8FC67B0F9F07747
:1047D000B5422CBF06F1FF38A8460446D0F8F4577E
:1047E000FFF7E5FF6F4305FB08F5B5FBF6F6B7FBF2
:1047F000F0F505FB107094F8087794F803873518E6
:10480000012FC4F8E85711D12046FFF7BFFF94F8F5
:10481000046794F805773744FFB2B5FBF0F0381A17
:1048200031463F22C0B207F071FA54E0002F54D154
:104830002046FFF7ABFF94F8072794F8046794F835
:104840000017A2F13209B5FBF0FE4FEA490906EB69
:104850000E0300FB1E5500FB09F94FF0640E322ACF
:10486000B9FBFEF994BF4FF0000C4FF0010CDBB226
:104870004D45194488BF4FF0000C1CEA010F05D0CC
:10488000013B84F8033784F801771BE05700784335
:10489000B0FBFEFE754534BF00250125312A88BFD7
:1048A00000252DB1CA0703D4013384F8033706E08D
:1048B00084F8033794F8023713F0010300D0012382
:1048C00084F8013794F8052794F8030732443146F9
:1048D000013A07F037FA84F8030794F81037012BF0
:1048E00003D10E4B1B680193019B94F8033743459A
:1048F00004D094F80237013384F802372046FFF7DA
:1049000056FFD4F8E837834203D92046002100F04F
:1049100007F8D4F8E80703B0BDE8F08330BDFF1F07
:1049200038B500230446A0F8F03721B1012280F801
:10493000003780F8EE27C4F8F8372046FFF740FF2D
:1049400094F8051794F8045723460D440022AA4210
:1049500003F11C0306DA002003F80B0C03F80A0C21
:104960000132F4E7CB0705D594F8003783F0010353
:1049700084F8003738BD90F8030700097047FFFF3F
:1049800090F81D372DE9F3470446002B40F0D68000
:104990006C4B1B78002B00F0D180FFF711FF94F8CF
:1049A0000367C4F8E8071C2505FB06421032577858
:1049B000002F57D1C6EBC60304EB830359790029B6
:1049C00050D0977094F81617D4F8040893F807A0FD
:1049D000FFF700FA4FF01408B0FBF8F03946052253
:1049E0001AFA80F007F092F9264494F8181786F81E
:1049F000240794F80367D4F8040805FB064326440B
:104A00001F7AFFF7E7F9B0FBF8F00522012117FA4A
:104A100080F007F07BF994F8171786F86407D4F84C
:104A2000040894F80367FFF7D5F926440F23B0FB79
:104A3000F3F086F8A40794F8036705FB0640FFF738
:104A400049FEA119024691F8243791F864170091A4
:104A50002046314600F056FA94F8033705FB03452B
:104A600001236B7425462746002694F8052794F801
:104A7000043713449E4261DC6B79002B56D06B7C6B
:104A8000042B04D0062B37D0012B4FD10EE094F825
:104A900003379E424ED1012A48D12046FFF776FEC9
:104AA000D4F8E837B3EB900F44D33FE05FFA86F8D1
:104AB0002046414600F083F9AB69984236DA6B79BB
:104AC000032B08D8DFE803F0020205024FF00109CA
:104AD00001E04FF00009204641464A4600F08CFCB8
:104AE00006236B742046414695F812A000F06FFC37
:104AF00082451BD9042318E05FFA86F82046414618
:104B0000AA7CD4F8E8A700F0D6FB82450ED9284647
:104B1000FFF7E0FD97F8641797F8243700910246F5
:104B20004146204600F0EEF901236B7401361C3536
:104B300001379AE700236B74AB74F7E702B0BDE866
:104B4000F08700BFDABCFF1F024B1B780BB1FFF7E9
:104B500017BF7047DABCFF1F044A054B1360054AB4
:104B60001360054A13600AF0BDBE00BFFC90FF1F32
:104B700003200038F890FF1FF490FF1F2DE9F0414B
:104B8000134D044628680F46164698461149436857
:104B90001D222846984728460AF080FC002384F806
:104BA0000F37042384F8E437322384F807370123CE
:104BB00084F8EC37069BC4F8043884F81077079B18
:104BC00084F8056784F81187C4F80838BDE8F081D7
:104BD00038BFFF1FED9A0100402910B523D8C1EB63
:104BE000C1039B001824C454C2181C2303FB0100FA
:104BF0000023032143708370C370917101211371ED
:104C00005371D371017241720221817204210173C7
:104C100040244321C372417383730474C373437488
:104C20008374C374436110BDF0B58DB004460D4666
:104C300004A83C4916460AF0FAFC294668460AF0E0
:104C40002CFD694604A80AF0B4FD37490AF0BAFD04
:104C50003146074608A80AF020FD08A938460AF0A0
:104C6000A8FD014631480AF0F8FB30480AF016FC6E
:104C700008A80AF09CFC68460AF099FC04A80AF00F
:104C800096FC0422102384F8053784F811270023AA
:104C9000322184F8E42784F80927062284F80F5784
:104CA00084F8043784F8071784F80C3784F80D3734
:104CB00084F80E3784F8106784F8123784F81337B5
:104CC00084F8163784F8143784F8153784F80B27DE
:104CD00084F80A2784F8173784F8183784F81937C6
:104CE00084F81A3784F81B3784F81C3784F81D378A
:104CF00084F81E3784F81F3784F8203784F821376A
:104D000084F823371D46E9B220460135FFF764FFDA
:104D1000402DF8D1D4F804083146FFF759FA0DB008
:104D2000F0BD00BF0B9B01002B9B010038BFFF1F94
:104D3000012910B504462FD008D3022933D190F8A9
:104D40001F0780F0010084F81F0710BD90F81D3781
:104D500083F0010380F81D37DBB194F8053790F834
:104D6000040722461844002383420CDA94F8031700
:104D70008B4202F11C0206D0002102F80B1C02F843
:104D80000A1C0133F0E7D4F8040894F81017FFF771
:104D90005DFC94F81D0710BD90F81E0780F001001F
:104DA00084F81E0710BD10BD10B51C2404FB013390
:104DB000C25410BD1C2303FB0122805C70471C23DE
:104DC00003FB010148697047F8B5044621B9102179
:104DD00001200AF0D8FBC1B294F8F23794F9E457F5
:104DE00094F80527B4F8F06711FB03F090FBF5F099
:104DF00013FB02F393FBF5F300FA86F090FBF3F15B
:104E000003FB110189B2B7B2A4F8F0170023934253
:104E100004F11C0408DA54F8080C0DB27D1B284478
:104E200044F8080C0133F2E7F8BDFFFF38B590F8FD
:104E300010370533994204460D4614D090F91237C5
:104E40008B4202D10021FFF76BFD94F91337AB427F
:104E500009D1054B1B7833B1204694F80917BDE8FA
:104E60003840FFF7B1BF38BDDABCFF1FF0B50446CC
:104E70008DB01E461C2052B341436518625CAF7B67
:104E8000EA746B7B009705F108002D7C0195C579CC
:104E90000295C07803900020059094F80E070690C4
:104EA00094F80D07079094F80C07089094F81E07E3
:104EB0000990D4F8E8070A9001200B9094F8101795
:104EC0000496D4F80408FFF78DF80DB0F0BD00FB90
:104ED0000143D4F80408DA7C94F8101701230DB0CC
:104EE000BDE8F040FFF792BB431893F8A42753B2F4
:104EF000002B4FF01C0303FB0100807AC4BF50431A
:104F0000C0B270472DE9F04F04460E461746C1EB7C
:104F1000C1021C2101FB064192004D7804EB0208FE
:104F2000A25C95B015448DF839508D78C9788DF80C
:104F3000382015440A448DF83B2094F821279DF829
:104F400078008DF83A501AB1002384F82137AFE188
:104F50000122042518F80210FF2908BF05F1FF35CA
:104F600002F1010208BFEDB2042AF3D1294605EB94
:104F7000850E71450ADA0EAAC5EB020C1CF801C0B9
:104F80000CF10C0C01F802C00131F2E708B1454305
:104F9000EDB2013B1C22042B4FD8DFE803F0030ED7
:104FA0001A2E440002FB064214A9937CB3FBF5F2CF
:104FB00005FB123351FA83F31CE002FB0642937C9B
:104FC000B3FBF5F205FB1233ED1A14AA52FA85F57C
:104FD00026E002FB064214A8937CB3FBF5F212F024
:104FE000010F05FB02F2C2EB030308BFC3EB05038D
:104FF000DBB2034413F8183C21E002FB0642691EB1
:10500000937C93FBF1F2D0074BBFB3FBF5F201FBAE
:10501000123305FB1235C3EB0505EDB214A90D449F
:1050200015F8183C0BE0002029460AF0ACFA14AA47
:1050300052FA80F010F8183C01E09DF838301C2539
:1050400005FB06451035EB70D4F8040894F91517E4
:10505000FEF7C9FE58B1EB7894F80A0794F80B17DD
:10506000181A19440AF08FFA80F30700E87094F8D0
:105070001A17D4F80408FEF7ADFE1C2303FB064301
:1050800003F11005DA7C93F80B901044D87494F86F
:105090001C17D4F80408FEF79DFE0021FF224844A7
:1050A00006F034FEC0B20D9094F91417D4F8040839
:1050B000FEF799FEAB78002818BF002703B96B6094
:1050C00098F80730002B54D198F8065094F81B1725
:1050D000D4F80408FEF77EFE013594F8E4376D003D
:1050E00028445DB2002DD8BFC3F102024FEA8051BF
:1050F000D4BFD2B20122002D02FB01F2C8BFD9B247
:105100004FF01C0303FB064303F11003D8BF01213A
:10511000C900586892FBF1F202445A6094F80717EC
:1051200032290ED094F80007304410F0010F4FF0F0
:10513000640018BFC1EB000149004A4392FBF0F044
:1051400058601C2505FB06452046FFF71FFB6B69D1
:105150004FF0050A93FBFAFAC5F818A02046FFF7AE
:1051600015FBBAEB901F68D22046FFF70FFB8009B2
:1051700062E094F8E4574FF01C0B4FFA85FA0BFBF2
:105180000640BAF1000FD8BFC5F102034169D4BF90
:10519000DBB2012301EB8353417A01FB03F9C0F831
:1051A000149031462046FFF79FFEBAF1000FCCBFA6
:1051B000EDB201250BFB064399FBF0F090FBF5FAED
:1051C00003F11005C5F804A094F807B7BBF1320F3E
:1051D0001ED0A9785B7A94F8002711FB03F32046D0
:1051E000314606EB02090C93FFF77EFE0C9B93FB06
:1051F000F0F009EB0002642312F0010F18BFCBEBB3
:10520000030B4FEA4B0B0BFB0AFA9AFBF3F36B60B1
:105210001C2505FB06454FF0040A6B6993FBFAFA5F
:10522000C5F818A02046FFF7B1FABAEB101F04D258
:105230002046FFF7ABFA0009A8611C2303FB0646D2
:1052400006F1100596F80EE0737BF27CCDF800E0D5
:1052500006F10800367C0196C07902900D98039003
:1052600094F82307059094F80E07069094F80D071C
:10527000079094F80C07089094F81E070990D4F84A
:10528000E80704970A90A87894F81017003018BF20
:1052900001200B90D4F80408FEF7A4FE98F805301E
:1052A000022B18BF002784F82377AB780133AB704B
:1052B00015B0BDE8F08F2DE9F84F90F804779046CF
:1052C00004460D46CF1B1C26FFF760FA06FB054679
:1052D0000836474329462046FFF706FE96F801B0F8
:1052E00094F8072718FB0BF999FBF0F35FFA83F9A1
:1052F00000FB09FA9AFBFBFACAEB080A322A5FFAAA
:105300008AFA0ED12046FFF741FA737818FB03F8AA
:1053100000FB08F829462046FFF7E6FDB8FBF0F051
:1053200036E094F8002743F300032A4493422046D2
:1053300031D0FFF72BFA09FB00F92046FFF726FAD8
:105340008046204694F807B7FFF720FAC0EB090023
:1053500007442046FFF71AFA73781AFB03FA00FB9A
:105360000AFA29462046FFF7BFFD4FEA4B0B94F897
:10537000073708FB0BFB4FF06408C3EB08035B0027
:10538000BAFBF0F0BBFBF8FB58435F44B0FBF8F00E
:105390003844BDE8F88FFFF7F9F909FB007920469A
:1053A000FFF7F4F973781AFB03FA00FB0AFA2946AF
:1053B0002046FFF799FD94F80737BAFBF0F05B0041
:1053C00058436422B0FBF2F04844BDE8F88F38B58A
:1053D000431893F824376BB11C2303FB0104FFF738
:1053E00083FDA579637A15FB00F090FBF3F0C0F321
:1053F000870038BD184638BD30B51C2505FB0101B6
:1054000013464A7C012A044601F1100508D194F89C
:105410001017EA78D0F80408BDE83040FFF7F6B876
:1054200030BDFFFF531A002BB8BF5B42013380F839
:1054300005370A4B91421B7805D201EB031180F826
:105440000417002304E002EB031280F80427012371
:1054500080F80837012380F821377047D8BCFF1F38
:10546000044A054B1360054A1360054A13600AF0AD
:1054700039BA00BF0891FF1F032000380491FF1FB5
:105480000091FF1F08B501F10803DBB2072B09D813
:10549000012202FA03F313F0DD0F03D00068036862
:1054A0001B68984708BD10B504460AF0D7FC206079
:1054B000204610BD2DE9F743BB4B1A680092009AB5
:1054C00002601B680193019B43600446313000F089
:1054D00071FE04F1330001F0AFF804F1340001F083
:1054E000ABF8B24B1A46194652F8040BA064106888
:1054F000E0649868206551F80C0F496804F1540283
:1055000003C2194604F15C0251F8140F496804F112
:10551000640603C203F11C02343310685168354637
:1055200003C508329A422E46F7D1A14B04F17C0202
:1055300003F1080618685968154603C50833B342D5
:105540002A46F7D118689B88AB809A4B286004F1F3
:105550008A0203F10C0153F8040B42F8040B8B424E
:10556000F9D11B881380944B04F1980203F10806CB
:1055700018685968154603C50833B3422A46F7D15F
:1055800018689B88AB808D4B286004F1A60203F15C
:105590000C0153F8040B42F8040B8B42F9D11B8821
:1055A0001380874B04F1B40203F1080618685968A8
:1055B000154603C50833B3422A46F7D118689B88BD
:1055C000AB80804B286004F1C20203F10C0153F858
:1055D000040B42F8040B8B42F9D11B8813807A4BE1
:1055E00004F1D00203F1080618685968154603C58E
:1055F0000833B3422A46F7D118689B882860AB80ED
:1056000000210E2204F1DE000AF088FA4FF47A63DA
:1056100040F6B83841F6583742F21076A4F8E23036
:1056200042F22833694DA4F8E63000210E22A4F896
:10563000E080A4F8E470A4F8E86004F1EC000AF05B
:105640006DFA41F27073A4F8F2302B68C4F8FA30A6
:105650006B68C4F8FE3041F288392B89A4F8023116
:1056600000210E22A4F8EE80A4F8F090A4F8F470C3
:10567000A4F8F66004F582700AF050FA05F10A0207
:105680001A35A4F80681A4F80891A4F80A71A4F8C0
:105690000C6104F589712B4652F8040B41F8040B98
:1056A000AA42F9D11A68C4F822215A681B89A4F8C1
:1056B0002A31474BC4F826215968186804F59672B8
:1056C00003C21989118003F10A0204F59B71163394
:1056D00052F8040B41F8040B9A42F9D113880B805D
:1056E0003C4B04F5A27203F1080618685968154688
:1056F00003C50833B3422A46F7D118689B88AB80AC
:10570000354B286004F5A97203F10C0153F8040B22
:1057100042F8040B8B42F9D11B8813802F4A106882
:10572000516804F5B07303C39068186004F5B67649
:1057300002F10C03243218685968354603C5083352
:1057400093422E46F7D10723082005220C2184F826
:10575000853184F8863184F8873184F8883184F87B
:10576000893184F88A3184F88B3184F88C3184F85B
:105770008D3184F88F3184F8900184F8933184F866
:10578000943184F895312046062384F8841184F8F6
:105790008E2184F8912184F8922184F8963184F83E
:1057A000971103B0BDE8F08330BDFF1F369B0100A9
:1057B0006A9B0100789B0100869B0100949B01007D
:1057C000A29B0100B09B0100BE9B0100CC9B01008D
:1057D000F09B0100089C0100169C0100249C010024
:1057E00013B504461C30FFF75EFE04F13800FFF7E6
:1057F0005AFE04F13C00FFF756FE144B1B68019360
:10580000019B636604F16800FFF754FE04F5007025
:1058100006F0FAFB04F5187000F062FF04F2AC60C9
:10582000FDF7F4F904F5E060FBF73CF904F5F760E7
:1058300000F022FD04F61C0000F01EFD04F50960D6
:10584000FFF731FE204602B010BD00BF30BDFF1F84
:105850002DE9F04F8BB004468A4661486149159E98
:1058600009921D4604F16807FAF749FE04F61C0C7C
:10587000149BC4F88C38614638465246C4F884A854
:10588000C4F8885866600096CDF81CC0FDF7E2FDAC
:10589000284600211022042300970196FFF76EF995
:1058A00005F60C0001211022042300970196FFF752
:1058B00065F905F580501830022110220423009765
:1058C0000196FFF75BF905F5C15004300321102262
:1058D000042300970196FFF751F904F1080B099B87
:1058E000009304F51879484629465A46334600F095
:1058F0002DFFDDF81CC0019504F5007304F5E06888
:10590000184608933946634604F5F762CDF80080DF
:10591000CDF808B0CDF80C90049606F0D5FB04F253
:10592000AC6029463246FDF7E1F9099B58468DE8FF
:10593000480039462A46534608F086FF149B4046E5
:105940008DE848003946284B2A46FCF767FA274B72
:105950001B7853B126492248FAF7D1FD4046FBF7A0
:105960002BFF1F482349FAF7CAFD4046FCF728FEE3
:10597000214B00261E701F4640F60C0000FB06500F
:10598000F2B239780136FFF74FF9042EF4D14046D0
:10599000FBF702F918B1484601F04AF803E0104855
:1059A0001649FAF7ACFD4046FCF700FE38B9484608
:1059B00001F096F812490A48FAF7A1FD06E00848F6
:1059C0001049FAF79CFD05200AF066FA08980121B3
:1059D00006F05CFC002323700BB0BDE8F08F00BF25
:1059E00038BFFF1F489C010035C3FF1FEDBCFF1FE0
:1059F000649C0100B29C0100ECBCFF1FEB9C010009
:105A0000029D01001F9D010000F2AC600021FDF726
:105A100075BC083008F06ABF083009F061B9034668
:105A2000D0F88008D3F8841809F0FCBA2DE9F843BF
:105A30009DF82070013FFFB20F2F04460D4691469E
:105A4000984623D8CEB2330620D5E02917D8806CEB
:105A5000026847EA060113689847A06C066809F0D7
:105A60007F01336805F0EF059847C02D0ED0A06C7C
:105A7000026808F07F0113689847BDE8F883F729AA
:105A800004D94830BDE8F843FFF7FCBCBDE8F88313
:105A900090F86620F12A10B5034670D018D8B02AC5
:105AA00035D008D8902A26D0A02A45D0802A40F0A8
:105AB0008180046841E0D02A49D004D8C02A08BFB8
:105AC000026945D010BDE02A23D0F02A48D010BD8D
:105AD000FA2A14D007D8F32A61D052D3F62A64D018
